:03000000022922B0
:1029220078FFE4F6D8FD9000007F007E03E4F0A378
:0A293200DFFCDEFA75813D020100B2
:0F34BC0024242454696D652073796E630D0A0012
:04356A0041022100F9
:102DF000D2097813E6FF7002D20CEFB40102D20DB3
:102E0000EFB40202D20EEFB40302D20FEFB4040209
:102E1000D210EFB40502D211EF64067024783A168E
:102E2000E670037837F6783916E670037838F67866
:102E30003116E67003782FF6783016E67003783294
:0D2E4000F6781306E6C3940A4002E4F62279
:1029BC00780EE6FF7814667003022A54A60790027C
:1029CC0020E0B4012190021FE004F0E0C3940A401F
:1029DC0015E4F0783D76037BFF7A3479BC122CBC7D
:1029EC009002207402F0780AE6FF7810666059A60F
:1029FC0007780CE6601A16E670161232E2783D760D
:102A0C00039001FAE070047F0180027F00121F0620
:102A1C00900220E0B4021090021FE004F0E0C39496
:102A2C00024004E4F0D207780FE6FF7808666018DD
:102A3C00A60790021DE004F0E0C39418400AE4F0ED
:092A4C009002207402F0D207226E
:10245800300B3D90021CE004F0C3940C400FE4F0F4
:1024680090021EE004F0D394184002C20B90021EA2
:10247800E0FF30E00543801080035380EFEF30E049
:102488000543802080035380DFEF30E05102252F81
:1024980030052590021CE004F0C394324012E4F0A9
:1024A80090021EE004F0D394064005C20512000015
:1024B800438010438020806F30002590021CE00488
:1024C800F0C3940C400FE4F090021EE004F0D394A3
:1024D800104002C20090021EE030E00280498051A4
:1024E8009001FAE0D394015018900257E07012530B
:1024F80080EF5380DF5380BFE4780CF69001F9F049
:10250800229001F9E0FFB41E084380105380DF8059
:1025180020EFB43C085380EF4380208014EFB45A76
:102528000A5380EF5380DF438040225380EF53806B
:05253800DF5380BF220B
:10337100781276029002657401F09001FAF0D201A0
:103381005390EF783D7603E070047F0180027F0067
:0A339100121F069002207401F022C2
:10306E00123371122AE9300902C209300C08C20C5F
:10307E00123578121903300D08C20D122D8C12263E
:10308E00DA300E05C20E121D49300F05C20F121B8B
:10309E008230100BC210122458122C501229BC125E
:0430AE00357E80BF2C
:1001000090023C7400F0A37468F0A37480F0A3E440
:10011000F090023BF090023BE0FFC394405019A3E3
:10012000E0FCA3E02FF582E43CF583E4F0438D206E
:1001300090023BE004F080DD9002427404F0A3E4FE
:10014000F090023BF090023BE0FFC39440503490AB
:100150000242E0FCA3E0F5828C83E493FE90023C33
:10016000E0FCA3E02FF582E43CF583EEF09002433F
:10017000E004F07006900242E004F090023BE004DC
:10018000F080C290023CE0FEA3E0FFF5828E83E0A7
:1001900064AA600302037BA3A3E064AA60030203D2
:1001A0007B90023CA3E02404F582E43EF583E06406
:1001B000AA600302037BEF2406F582E43EF583E0A8
:1001C00064AA600302037B53A87F900240F0A3F06F
:1001D000A37440020374438D20900240E0FEA3E02C
:1001E000FDAC06E490023BF090023BE0F9C3944082
:1001F0004003020273900240E0FEA3E0FFC3EE94CE
:10020000004009D3EF9400EE9404400FC3EE940530
:100210004045D3EF94FFEE943F503C900242E0FE05
:10022000A3E0F5828E83E493FF90023CE0FAA3E022
:1002300029F582E43AF583EFF0900243E004F07090
:1002400006900242E004F0900241E004F0701B903E
:100250000240E004F0801390023BE0FFA3E0FAA329
:10026000E02FF582E43AF583E4F090023BE004F0FD
:100270000201E875FE0100000000E490023BF090EE
:10028000023BE0FFC39440501B90023EE0FAA3E023
:100290002FF582E43AF583E4F0438D2090023BE0B1
:1002A00004F080DBE4F5FAECF5FB8DFC75FDA500B0
:1002B00000000075FE0200000000E4F5FDF5FEF50B
:1002C000FA75FB05F5FC75FE010000000090023B8D
:1002D000F090023BE0F9A3E0FEA3E029F582E43EC2
:1002E000F583E0FF90023EE0FAA3E029F582E43ACC
:1002F000F583EFF090023BE004F0E0B440D3E4F586
:10030000FAECF5FBAF058FFC75FDA500000000754C
:10031000FE0300000000E4F5FDF5FEF5FA75FB05AF
:10032000F5FC900240E0FEA3E0FFC3EE9404400F12
:10033000D3EF9400EE94055006438D2012000090F8
:100340000240E0FEA3E0B40014EEB40110900240BD
:100350007405F0A3E4F0A37445F0A3E4F090024028
:10036000E0FEA3E0C394FFEE943F50030201D69059
:1003700002407404F0A3E4F00201D612050043A881
:0103800080FC
:010381002259
:1022770020202020200D0A0041542B4D540D0A0028
:1022870041542B4D410D0A0041542B4D450D0A0079
:1022970041542B4D440D0A0041542B43410D0A0074
:1022A70041542B43420D0A0041542B43430D0A006E
:1022B70041542B43500D0A0041542B43440D0A004F
:1022C70041542B435A0D0A0041542B48300D0A0044
:1022D70041542B48310D0A0041542B48320D0A0056
:1022E70041542B48330D0A0041542B48340D0A0042
:1022F70041542B48350D0A0041542B48360D0A002E
:1023070041542B48370D0A0041542B48380D0A0019
:1023170041542B48390D0A0041542B48410D0A00FE
:1023270041542B48420D0A0041542B48430D0A00E3
:1023370041542B48440D0A0041542B48450D0A00CF
:1023470041542B48460D0A00000102030607090AFB
:102357000C0E0F0001020304040405060607070814
:0423670008090A0A4D
:102FE200782FE670FB7F08900223E4F0A3DFFCE475
:102FF200FF12260EFE601674232FF582E43402F5CA
:1030020083EEF0740129F9E43AFA0F80E4E47833AC
:10301200F6782F76017833E6062423F582E434022B
:05302200F583E0F5F567
:013027002286
:10334600EFC3940B500CEF75F008A42477F97422A0
:1033560080107812E690234F9375F008A424CFF9D5
:0A336600742235F0FA7BFF122FE20B
:01337000223A
:10217B00201406201503022276301412C21490028A
:10218B003B7401F0A37402F0A3742BF08010C21502
:10219B0090023B7401F0A37402F0A37433F090022D
:1021AB003BE0FBA3E0FAA3E0F912260EFFB4491FB4
:1021BB00900001122627FEB44902D217EEB4410259
:1021CB00C217EE6458600302225BC21702225BEF58
:1021DB00B44D1C900001122627FFB44102C218EF28
:1021EB006442706CD2187812E6F47834F68061127F
:1021FB00260EFFB44F129000011226276446705032
:10220B009001FAE064028048EF644870439001FA51
:05221B00E06402703BCD
:10222000900001122627FFD3648094B94005EF2463
:10223000C9801390023BE0FBA3E0FAA3E0F9900011
:102240000112262724D07812F67812E6D3940F4094
:0B22500002760F7812E690235A93F6F6
:10225B00E4FF90023BE0FBA3E0FAA3E0F98F827569
:0B226B008300E41226660FEFB408E7C2
:012276002245
:1026DA0012217B9001FAE06402600302276520134D
:1026EA00137836F6C217C2187812E6F47834F6E48C
:1026FA00900222F0D213900222E014601514601A9C
:10270A00146019146018240470195390EF4390024E
:10271A00806F1234735390BF80678065806712346C
:10272A001A80657812E6FF7834666009A6077F0B7F
:10273A00123346800D7835E6FF6007123346E47897
:10274A0035F6E58830E2107836E6D394054004433E
:10275A00901022783606225390EF22301308E4783C
:10276A0036F6900222F0C213900222E0146012148C
:10277A0060111460101460172404701C5390EF80C9
:10278A000780058003439040900222E004F02290E3
:09279A000222E004F05390FD223C
:0D34F700E4F5FDF5FEF5FA75FB40F5FC224D
:0335820002000044
:10339B00E4FE7DA2EF600E74722EF582E43402F52A
:1033AB0083EDF0800C74722EF582E43402F583E425
:0733BB00F00D0EEEB404DD7D
:0133C20022E8
:08354A0075FE010000000022E3
:10327600AD07AC06E4F5FAECF5FBAF058FFC75FD82
:10328600A5900272E064A27018A3E0B4A313A3E0B1
:10329600B4A40EA3E0B4A50975FE030000000080E7
:0732A600031235820234F728
:102EFB00AD07AC067F007E8012354AE4FBEF2BF565
:102F0B0082E43EF583E4F00BEBB440F1E4F5FAEC2C
:102F1B00F5FBAF058FFC75FDA5900272E064A27006
:102F2B0018A3E0B4A313A3E0B4A40EA3E0B4A509C3
:0F2F3B0075FE020000000080031235820234F799
:0B2A550090024BEBF0A3EAF0A3E9F0C5
:102A6000E490024FF0A37480F0A3E4F0A3EEF0A38F
:102A7000EFF053A87F7F0112339B900252E0FEA338
:102A8000E0FF122EFB12354AE490024EF090024B0A
:102A9000E0FBA3E0FAA3E0F990024FE0FF04F08F1F
:102AA00082758300122627FF90024EE0FE900250AE
:102AB000E0FCA3E02EF582E43CF583EFF090024EBB
:102AC000E004F0E0B440C6900252E0FEA3E0FF1242
:102AD0003276E4FF12339B900253E02440F09002E0
:082AE00052E03400F043A8802D
:012AE80022CB
:073552008F828E83E493FFDA
:01355900224F
:102B7800242424415457510D0A0024242446616317
:102B8800746F72792073657474696E670D0A002416
:102B98002424576966692072657365740D0A0024D8
:102BA8002424456E74657220546573744D6F646592
:102BB8003A302E34350D0A00000004C90601085EBB
:102BC8000A980BD40D4D0DF40EE50050056906A1C9
:0C2BD80008FE0B380C740DED0E940EE599
:10286B00E490023BF0123541900268EEF0A3EFF0DA
:10287B00C394A0EE940F504AE4FFEF25E024C0F57B
:10288B0082E4342BF583E493FC740193FD9002688E
:10289B00E0FAA3E0FBC39DEA9C4022EF25E024D2A3
:1028AB00F582E4342BF583E493FC740193FDD3EBB5
:1028BB009DEA9C5008EF0490023BF080050FEFB4AB
:1028CB0009B87F051234CB90023BE0FFB4040AE554
:1028DB008820E5057409F0802DEFB4010DE5882003
:1028EB00E50890023B740AF0801CEFB4020DE588FA
:1028FB0020E50890023B740BF0800BE58820E50681
:10290B0090023B7403F0E5A020E204D21C8002C2CB
:06291B001C90023BE0FFEE
:012921002293
:10207900E4900266F0900270E0FE6F600EA3E06FDC
:102089006003EFF022900270EFF02290026EE0FF01
:102099006E6003022126EF700302217A90026AE042
:1020A900700302217A90026AE014F0600302217A37
:1020B90090026EE090026CF0900267E07005900269
:1020C9006604F090026DE014602114603214602FF0
:1020D9002403600302217A90026D7401F090026C6E
:1020E900E04420F090026A7432F02290026D74028A
:1020F900F090026CE04460F090026A7414F022904F
:10210900026D7403F090026CE04480F090026A74EE
:1021190014F0A3E0C394FA5058E004F02290026E40
:10212900E0603790026CF0900267E07005900266FB
:1021390004F090026DE024FE601014600F24027018
:102149001290026CE04440F08009800090026CE03B
:1021590044C0F0E490026DF08009E4900267F090C9
:10216900026BF090026A7405F0900270E090026EC2
:02217900F02252
:0635780012286B0220790D
:10190300900266E07003021B8190026CE01226B421
:1019130019504119934219FC431A13441A2B451ABF
:1019230073461AD3471AF04819E0621AB9661AE0E7
:1019330067196C8119FC831A13841B1B891B448A46
:101943001B628B1950C11AF0C800001B8190026BF7
:10195300E0C394194003021B81783D76059001FA98
:10196300E060030232E20232AD9001FAE0601890C7
:10197300026BE064196003021B81783D76057BFFEF
:101983007A2B7978021B7E9001FAE07003021B81A7
:101993009001FAE0FF64016004EFB40216C201C2D1
:1019A3001B9001FA7403F0900276E06003021B813E
:1019B30004F0229001FAE064036003021B81C20178
:1019C300301B06C21B782A7618C21B900276E004ED
:1019D300F0E0D3940C5003021B81E4F0229001FA4F
:1019E300E064036003021B81B21B201B07C2017862
:1019F3002A761822782A76F0229001FAE0D394010D
:101A03005003021B817812E6940A500106C2012298
:101A13009001FAE0D394015003021B817812E6D3BC
:101A23009401400116C201229001FAE0D3940150BF
:101A330009900257E07003021B819001F9E0FF70E7
:101A430008780C761E741EF022EFB41E0B780C7609
:101A53003C9001F9743CF022EFB43C0B780C765ABD
:101A63009001F9745AF022E4780CF69001F9F0220F
:101A73009001FAE07003021B81900257E0B40A025E
:101A83008015900265E0700404F0800E900257E028
:101A930004F0D3940940037401F0900257E0640901
:101AA3006003021B8190025EF090025CF090025A88
:101AB300F0900259F022900257E07003021B8190CC
:101AC3000265E004F0D394035003021B81E4F02287
:101AD3009001FAE064027003021B8180229001FAF4
:101AE300E064026003021B81783576052290026F61
:101AF300E0FF70047403F022EFB4030790026F74E5
:101B030002F022EFB4020790026F7401F022EF6437
:101B130001706B90026FF02290026BE06432705E92
:101B230090021CF090021EF0D2059001FA04F078A6
:101B33003D76057BFF7A2B7982122CBC7F0A023318
:101B43004690026BE064327035D20B90021CF09029
:101B5300021EF0783D76057BFF7A2B7997801C90E7
:101B6300026BE0B41918D200E490021CF090021E3C
:0F1B7300F0783D76037BFF7A2B79A7122CBC22EA
:02356E00C11D7D
:1005000053A87F122EA81233FF12357112355A12DA
:10051000350412343212345E122F4A1234871235E7
:0F0520001112351E43A88012306E12010080D1D7
:03001B00022BE4D1
:0F2BE400C0E0C083C082C0D075D000C000C00761
:102BF300AFF553F1DF7830760A3012237832E6C32B
:102C03009408500DE606242BF582E43402F583EF95
:102C1300F0EF640A702A7832F6D214B21280217867
:102C230032E6C39408500DE6062433F582E43402F9
:102C3300F583EFF0EFB40A0878327600D215B212BA
:0D2C4300D007D000D0D0D082D083D0E032B6
:030023000230B2F6
:1030B200C0E0C083C082C0D075D000C00053F17F91
:1030C200782FE660247831760A7833E6062423F5F1
:1030D20082E43402F583E0F5F5E62423F582E43454
:1030E20002F583E07003782FF6D000D0D0D082D0E2
:0430F20083D0E03275
:03004B00022E4D35
:102E4D00C0E0C0F0C083C082C0D075D000C000C04B
:052E5D0004C006C007DF
:102E6200AFE553E1DF900000E0FCA3E02468F582C7
:102E720074003CF583EFF0900000E475F001122637
:102E820088FEC3E5F0942CEE94014007900000E424
:032E9200F0A3F0BA
:102E9500D007D006D004D000D0D0D082D083D0F0D7
:032EA500D0E03248
:030053000230F682
:1030F600C0E0C083C082C0D075D000C00053E17F5D
:103106007837E66024783A7614783CE6062495F516
:1031160082E43401F583E0F5E5E62495F582E434AE
:1031260001F583E070037837F6D000D0D0D082D096
:0431360083D0E03230
:03006B0002323B23
:10323B00C0E0C0F0C083C082C0D075D000C000C059
:10324B0001C002C003C004C005C006C007122DF0A8
:10325B00D007D006D005D004D003D002D001D000C7
:0B326B00D0D0D082D083D0F0D0E03271
:03007B00023585C6
:013585003213
:030083000231BF88
:1031BF00C0E0C0F0C083C082C0D075D000C000C0D6
:1031CF0001C002C003C004C005C006C00712253DE0
:1031DF001227A3D007D006D005D004D003D002D039
:0E31EF0001D000D0D0D082D083D0F0D0E0321A
:03008B00022F98A9
:102F9800C0E0C083C082C0D075D000C007901006C2
:102FA800E030E703547FF0901006E030E60354BFAA
:102FB800F0901006E030E50354DFF0901006E030A2
:102FC800E40354EFF0901006E030E30354F7F0D038
:0A2FD80007D0D0D082D083D0E032C1
:0300A30002302800
:10302800C0E0C0D075D000C000C007B20430042D85
:10303800780E06E6D3943B40247600780A06E6D359
:10304800943B40197600780F06E6D39417400E7625
:1030580000780BE625E0FFF6BF80027601D007D0A6
:0630680000D0D0D0E032E0
:08354100AF9FEFFEAD9EEDFF10
:01354900225F
:07357100759C80759D072287
:0F34CB00EF540FFFE59C54F04FF59C439C4022BB
:08355A00E4F59AF599F59B22B6
:1034320075C33075C2D175C70175C6F375C50375FD
:06344200C4E743AA0822C2
:102F4A009010027424F0A37488F090100874E7F0CB
:102F5A00A37403F0A374F3F0A37401F0A374F3F061
:102F6A00A37401F0A374F3F0A37401F09010047435
:102F7A0020F0E4A3F0901010F0A3F0A3F090100753
:0E2F8A007490F043AA20901002E04410F02250
:04357E00438D202237
:0C351E00758E01758DC0438D0202357E54
:0D35040075B28875B45D43AA0243B201227E
:10345E00901000748AF0A3744AF043AA10901000E2
:05346E00E04401F02222
:1034870075DA0275D90643DAECE4F5DB75E30C432C
:03349700A918224F
:10341A00201D1275EA0275E90643EAECE4F5EB753C
:08342A00F34D43A818D21D2246
:10347300301D0EE4F5EAF5E9F5EAF5EBF5F353A8AB
:04348300E7C21D225D
:0D35110075968875890175898143AB042288
:1033FF0090103874A8F075C80A758B09E58B30E703
:0B340F00FB758A0143C80543A880221A
:102EA80075A17FE4F5ACF591F5DEF58075B19A75FD
:102EB800AD20F592F5DFF58875B9FFF5AE7593028B
:102EC800F59075C1BEF5AFF59875C9FA75A30CF5FF
:102ED80094F5A075D1FFF595F5B075D32075D21E80
:102EE800F5D575D40FF5D775D603F5EE75EF0A75D8
:032EF800FF2D2289
:10253D00900264E014F070035398F7900263E01476
:10254D00F070035398EF900262E014F0700353980B
:10255D00DF90025FE014F0600302260D900265E04B
:10256D00FF700A900264F0900263F0805AEFB4019C
:10257D002290025CE01313543F900264F090025AD3
:10258D00E01313543F900263F0900259E01313547B
:10259D003F8034900265E090025CB40219E0C313F1
:1025AD00900264F090025AE0C313900263F090021F
:1025BD0059E0C3138011E0900264F090025AE0904C
:1025CD000263F0900259E0900262F09001FAE0B4DB
:1025DD00020AE59830E60543881080035388EF9092
:1025ED000264E06003439808900263E0600343983F
:1025FD0010900262E060034398209002547401F041
:01260D0022AA
:1034AC0090025CEFF090025AEDF0900259EBF02292
:1016350090025DE004F0C394045003021902E490A3
:10164500025DF0A3E0FF705A90025CE0C394FF5086
:1016550003E004F090025AE0D394004003E014F054
:10166500900259E0D394004003E014F090025CE04E
:10167500F4600302190290025AE060030219029015
:101685000259E0600302190290026075F00112260A
:1016950088FCD3E5F0941EEC940050030219020275
:1016A500189CEF6401707490025CE0C394FF5003D2
:1016B500E004F090025CE0D394FF4003E014F09066
:1016C500025AE0C394805003E004F090025AE0D33C
:1016D50094804003E014F0900259E0D39400400355
:1016E500E014F090025CE0F4600302190290025AE3
:1016F500E064806003021902900259E06003021958
:101705000290026075F001122688FED3E5F0941E62
:10171500EE9400500302190202189C90025EE0FF4D
:101725006402705B90025CE0C394FF5003E004F038
:1017350090025AE0C394FF5003E004F0900259E090
:10174500D394004003E014F090025CE0F4600302DF
:10175500190290025AE0F46003021902900259E05E
:10176500600302190290026075F001122688FCD30D
:10177500E5F0941EEC9400500302190202189CEF48
:101785006403705A90025CE0D394004003E014F0C7
:1017950090025AE0C394FF5003E004F0900259E030
:1017A500D394004003E014F090025CE0600302195A
:1017B5000290025AE0F46003021902900259E060B7
:1017C5000302190290026075F001122688FED3E526
:1017D500F0941EEE9400500302190202189C900228
:1017E5005EE0FF6404705990025CE0D3940040030E
:1017F500E014F090025AE0D394004003E014F09016
:101805000259E0C394FF5003E004F090025CE060ED
:101815000302190290025AE060030219029002596C
:10182500E0F4600302190290026075F00112268847
:10183500FCD3E5F0941EEC94005003021902805786
:10184500EF6405706090025CE0D394004003E014FF
:10185500F090025AE0C394FF5003E004F09002595F
:10186500E0C394FF5003E004F090025CE0600302E3
:10187500190290025AE0F46003021902900259E03D
:10188500F4707A90026075F001122688FED3E5F0B7
:10189500941EEE94004066E4900260F0A3F090027E
:1018A5005EE004F02290025CE0C394FF5003E00484
:1018B500F090025AE0D394004003E014F0900259EE
:1018C500E0C394FF5003E004F090025CE0B4FF2D08
:1018D50090025AE07027900259E0B4FF2090026010
:1018E500E475F001122688FED3E5F09432EE9400FB
:0E18F500400BE4900260F0A3F090025EF0223F
:101B8200900254E07003021D48E4900254F0900267
:101B920057E0FFB4091B7811666016E0F6E4900284
:101BA2005EF090025C747FF0E490025AF090025969
:101BB200F09001FAE06007900257E0FE7004E4FB47
:101BC2008051EEB401047BFF8021900257E0FEB405
:101BD2000205E4FBFD8016EEB40306E4FB7D808083
:101BE2000C900257E0FEB40408E4FB7DFF7FFF8007
:101BF20034EEB40507E4FB7DFFFF8029900257E035
:101C0200FEB406087BFF7DFFE4FF8019EEB40707F0
:101C12007BFFE4FDFF800E900257E0FEB4080C7BD0
:101C2200FFE4FD7F801234AC021D1EEE640A6003E5
:101C3200021D1490025BE0FFA3F0900258E0FE90B8
:101C4200025AF0900256E0FD900259F0EFB4FF11F3
:101C5200EEB4FF0DEDB4FF099002577401F0021DBE
:101C62001E90025BE0B4FF13900258E0700D9002E8
:101C720056E07007A37402F0021D1E90025BE0FFA3
:101C8200B4FF14900258E0B4800D900256E0700741
:101C9200A37403F0021D1EEFB4FF13900258E0B4C8
:101CA200FF0C900256E07006A37404F0806E90025E
:101CB2005BE07013900258E0B4FF0C900256E070A3
:101CC20006A37405F0805590025BE0FF7014900249
:101CD20058E0B4FF0D900256E0B4FF06A37406F07C
:101CE200803AEF7013900258E0700D900256E0B403
:101CF200FF06A37407F0802490025BE0B4801D907D
:101D02000258E07017900256E0B4FF10A37408F076
:101D1200800A900257E0B40903121635900257E088
:101D2200FF701AEFB40A1690025CE090025BF0902A
:101D3200025AE0900258F0A3E0900256F090025747
:071D4200E060037811F622B6
:0F34DA0024242454696D652073796E630D0A00F4
:0B2CBC00900242EBF0A3EAF0A3E9F065
:102CC70012357E7837E670F8783BF67F6490019589
:102CD700E4F0A3DFFCE4FF900242E0FBA3E0FAA3E9
:102CE700E0F912260EFE601974952FF582E434017F
:102CF700F583EEF0900243E475F0011226880F8009
:102D0700D6E4783CF678377601783A760A783CE666
:0D2D1700062495F582E43401F583E0F5E52E
:012D2400228C
:102C5000783DE66035783BE6C39414402912357E12
:102C60007837E670F8783D16783BF608F6783776D0
:102C700001783A760A783CE6062495F582E4340138
:102C8000F583E0F5E522783B062230070FC207788E
:102C90003D76037BFF7A3479DA022CBC900221E086
:102CA00060199001FAE070047F0180027F00121F1A
:0C2CB00006900221E014F0783D7602222C
:102AE900900002E0FEA3E0FF900000E06E7003A3F7
:102AF900E06F607A12357E7839760A900002E0FE3E
:102B0900A3E0FF2468F58274003EF583E0FD18E632
:102B19002404F582E43400F583EDF074682FF5821E
:102B290074003EF583E4F090000275F001122688E6
:102B3900FEC3E5F0942CEE94014007E4900002F006
:102B4900A3F07838E6062404F582E43400F583E03E
:102B5900640A708C7B017A00790412052F7F6490D6
:0E2B69000004E4F0A3DFFCE47838F6022AE969
:012B7700223B
:10344800757064617465206661696C00757064618B
:063458007465206F6B009B
:0C352A0053E13F8FE5E5E154C060FA2258
:1031FD0090024BEBF0A3EAF0A3E9F0801690024B9E
:10320D00E0FBA3E0FAA3E0F912260E6020E5E154FD
:10321D00C060EA53E13F90024BE0FBA3E475F0017F
:0E322D0012269EA9F0FA12260EF5E580D02298
:100ECB00E4F58EF58D53ABFB53A8E753A9E753AA73
:100EDB00EF7817F6781AF608F67815F608F69002FA
:100EEB0046F0A3F0A3F09002797400F0A37468F0BD
:100EFB00E4900242F0A3F0900242E0FEA3E0FFC3B5
:100F0B00942DEE94015020900279E0FCA3E02FF594
:100F1B0082EC3EF583E4F0900243E004F070D8904D
:100F2B000242E004F080D043980843981043982085
:100F3B007F4312352A7817E6B4080040030212B338
:100F4B00900F52F8282873020F6A020FF2021092C8
:100F5B0002111B0211AF02121302125702125F127F
:100F6B00357EE5E130E534900279E0FEA3E0F582D1
:100F7B008E83C083C082781A0806E6188606700135
:100F8B000614D082D0832582F582E5833EF583E576
:100F9B00E5F0E4900246F0A3F0A3F0900279E0FEB6
:100FAB00A3E0F5828E83E0B46E25781DE6184660CB
:100FBB000E7BFF7A3479481231FDE47817F6227BE9
:100FCB00FF7A3479541231FD781776060212BA780B
:100FDB001BE66407700418E6640160030212BA781A
:100FEB001AF608F602125A12357EE4781AF608F64B
:100FFB00900279E0FEA3E0F5828E83E0F9A3E0FE98
:10100B00900279E0FCA3E0F5828C83A3A3E0FDAC16
:10101B0006900279E0FAA3E0FBF5828A83A3A3A3EF
:10102B00E0FEEB2404F582E43AF583E0FBEBFFE909
:10103B00B4020EEFF4FFEEF4FEEF6D7002EE6C6097
:10104B00030211137815E6FE08E6FFC3ED9FFFECD4
:10105B009EFEEF64014E6004EF4E7025AE04AF05AB
:10106B007815A60608A607E6FEE42400FFEE34403A
:10107B00FE900249F0A3EFF0D394FFEE947F40046F
:10108B002202111302125A12357EE4900244F0A38D
:10109B00F0FFFE900242F0A3F0900242E0FCA3E0CE
:1010AB00FDC3EC94015034ED2405FDE43CFC9002AF
:1010BB0079E0FAA3E02DF582EA3CF583E0FD90029E
:1010CB0045E02DF0900244E03400F0900243E00440
:1010DB00F070C6900242E004F080BE900279E0FC12
:1010EB00A3E0FD2405F582EC3401F583E0FEED244D
:1010FB0006F582EC3401F583E0FDEDFF900244E050
:10110B006E7003A3E06F60057F1502125202125A34
:10111B0012357E900249E0FEA3E0FF90027AE024B4
:10112B0005FD900279E03400FAA9057B01122A55DE
:10113B0090024AE02440FF900249E03400FE900206
:10114B007AE02445FD900279E03400FAA9057B0191
:10115B00122A5590024AE02480FF900249E03400A5
:10116B00FE90027AE02485FD900279E03400FAA922
:10117B00057B01122A5590024AE024C0FF900249D8
:10118B00E03400FE90027AE024C5FD900279E03451
:10119B0000FAA9057B01122A55781DE61618700175
:1011AB001602125A12357EE4900242F0A3F090021E
:1011BB0042E0FEA3E0FFC3EE9401504A90024AE0E6
:1011CB002FFF900249E03EFE123552900243E0247D
:1011DB0005FD900242E03400FC900279E0FAA3E0B6
:1011EB002DF582EA3CF583E06F600B7F1512352AF3
:1011FB00E47817F68010900243E004F070B0900290
:10120B0042E004F080A8804712357EE4900242F061
:10121B00A3F0900242E0FEA3E0FFC3942DEE9401F5
:10122B005023900279E0FCA3E02FF582EC3EF5838E
:10123B00E4F012357E900243E004F070D590024248
:10124B00E004F080CD7F9612352A805F12357E78D0
:10125B001706805B12357EE4900242F0A3F09002F9
:10126B0042E0FEA3E0FFC39440EE940050219002B5
:10127B0079E0FCA3E02FF582EC3EF58374AAF090A5
:10128B000243E004F070D7900242E004F080CF906C
:10129B000279E0FEA3E0AA06F97B017F007E04122F
:1012AB002A5512357E02000012357EE47817F612AD
:1012BB00357E900246E004F06003020F40A3E00489
:1012CB00F06003020F40A3E004F0C394025003024A
:0812DB000F40120000020F4059
:0B353600000102030507090A0C0E0F3C
:0E34E900EF90353693FFC374169FFF0233C376
:1033C30020191AD219EF147826F6E47829F6782C06
:0E33D300F608F653887F782476000876C82224
:1027A30020190302286A782C0806E61870010686A9
:1027B30006C3782596EE1896500302286AE4782C0F
:1027C300F608F67829E6B41300400302286290273E
:1027D300D8F828287302281102281D022836022857
:1027E3001D02283602281D02283602281D0228361B
:1027F30002281D02283602281D02283602281D023F
:10280300283602281D0228360228620228564388E9
:10281300807824760108768F804A53887F7826E66D
:10282300782430E707760008762880387600087623
:102833007880314388807826E6FF782430E707766E
:102843000008767880057600087628EF25E078265C
:10285300F6801153887F782476000876C880055364
:08286300887FC21978290622C2
:101D49009001FAE064036003021EB9201A17782B88
:101D5900F6900276E0F4782EF67812E6F47828F612
:101D6900E4900278F0D21A900278E01460211460AD
:101D790035146047240370465390EF782B06E6D359
:101D890094195003021F055390FD4390408012128D
:101D9900341A439802782B06E6D394325003021F73
:101DA90005E4F6021EFF782B06E6D394C850030219
:101DB9001F05900278E004F0E4F622021EFF782A5B
:101DC900E6FF6039301903021F05B4F0097BFF7A79
:101DD9001479CC122CBC782AE6B41815900276E056
:101DE90075F018A424CCF9741435F0FA7BFF122C81
:101DF900BC782AE6FF1233C3E4782AF622900276E9
:101E0900E0782E666048301903021F05E0FFF6EFFF
:101E19006003B4F00ED21B782E76F07BFF7A14792A
:101E2900CC8019900276E0FFD3940C5012EF75F034
:101E390018A424CCF9741435F0FA7BFF122CBC7861
:101E49002EE6FF1233C3900276E0782EF62279123D
:101E5900E77828666016301903021F057812E6FF35
:101E69007828F67834A6077F0B023346A20130089A
:101E790001B35029783DE67024A201920830010887
:101E89007BFF7A1479CC8012900276E075F018A461
:101E990024CCF9741435F0FA7BFF022CBC201B0802
:101EA9002001057812E670045390EF224390102226
:101EB900301A05E4900278F0C21A900278E01460B2
:101EC9001214601F14602C240370312017035390DF
:101ED900EF8023782B06E6D394144020E4F6439848
:101EE900028013783DE670147BFF7A1479CC122CAA
:0D1EF900BC8003201706900278E004F02260
:1012E3005475726E206F6E20756E6974005475723A
:1012F3006E206F6E204C6967687472004368616E7C
:101303006765206C6967687420636F6C6F72005542
:1013130073657220636F6C6F720053656C656374E1
:1013230020536F756E642066696C65006D75736913
:101333006320706C61790050726F506C61790D0A93
:10134300005475726E206F6E2048756D696469660E
:10135300696572005475726E206F66662048756DFC
:101363006964696669657200564552302E0D0A003C
:101373005645520D0A00242424564552302E343546
:101383000D0A004770537461007B54696D6553798E
:101393006E63005475726E206F666620756E697495
:1013A300005475726E206F6E204254007072657621
:1013B300696F757320736F6E670D0A006E657874BD
:1013C30020736F6E670D0A006D757369632070611A
:1013D300757365007B4D75736963537461747573BD
:1013E3000041646A757374204F7574707574205668
:1013F3006F6C756D6500766F6C756D65207570002B
:10140300766F6C756D6520646F776E006D757369AB
:1014130063206D757465006D7573696320756E6DFA
:10142300757465005365742054696D657200547555
:10143300726E206F66662054696D65720054757212
:101443006E206F6666204C6967687472006C69670A
:101453006874207570006C6967687420646F776EB8
:101463000041646A757374204C6967687420427222
:10147300696768746E6573730041646A7573742079
:101483006D6F697374206D6F646520004E6F7247D2
:10149300705374610D0A00207570646174650041B6
:1014A3005457510D0A00456E746572205465737468
:1014B3004D6F64653A007B4E6F72477053746100E1
:1014C3000101020408102040802424247B4D7573FD
:1014D30069635374617475733A5B30375D7D0D0ACC
:1014E300002424247B4D757369635374617475738D
:1014F3003A5B30315D7D0D0A002424247B4D7573E6
:1015030069635374617475733A5B30325D7D0D0AA0
:10151300002424247B4D757369635374617475735C
:101523003A5B30335D7D0D0A002424247B4D7573B3
:1015330069635374617475733A5B30345D7D0D0A6E
:10154300002424247B4D757369635374617475732C
:101553003A5B30355D7D0D0A002424247B4D757381
:1015630069635374617475733A5B30365D7D0D0A3C
:10157300002424247B47705374613A5B30302C3051
:10158300302C30302C30302C3030303030302C3068
:10159300302C30302C30302C3030303B30302C304D
:1015A300302C30302C3030303030302C30302C3048
:1015B300302C30302C30302C30303A30302C30302E
:1015C3002C30305D7D0D0A002424247B4E6F72473E
:1015D300705374613A5B30302C30302C30302C3007
:1015E300302C3030303030302C30302C30302C3008
:1015F300302C3030302C30305D7D0D0A0024242413
:101603007B4E6F7247705374613A5B30302C3030CD
:101613002C30302C30302C3030303030302C3030D7
:101623002C30302C30302C3030302C30305D7D0D70
:021633000A00AB
:102D250090024574FFF0A37413F07473A3F090023E
:092D35003FE0FBA3E0FAA3E0F982
:102D3E00900242EBF0A3EAF0A3E9F0900245E0FB2B
:102D4E00A3E0FAA3E0F912260EFF602F900242E0F4
:102D5E00FBA3E0FAA3E0F912260EB507056003EF18
:102D6E0070037F0122900243E475F00112268890D1
:0E2D7E000246E475F00112268880C07F002214
:10313A0090023FE0FBA3E0FAA3E0F990000B12260D
:09314A002790000CFF122627FD5E
:10315300C3EF648094C14006EF24C9FF800474D098
:103163002FFFC3ED648094C14006ED24C9FD8004A4
:0B31730074D02DFDEFC454F04DFF227E
:05331500FF122627FD58
:10331A00C3EF648094C14006EF24C9FF800474D0CF
:10332A002FFFC3ED648094C14006ED24C9FD8004DB
:0C333A0074D02DFDEF75F00AA42DFF22C9
:10236B0012242990023BE0FBA3E0FAA3E0241AF924
:10237B00E43AFA90025BE0FD12242990023BE0FB69
:10238B00A3E0FAA3E0241CF9E43AFA900258E0FD2A
:10239B0012242990023BE0FBA3E0FAA3E0241EF9F0
:1023AB00E43AFA900256E0FD12242990023BE0FB3E
:1023BB00A3E0FAA3E02421F9E43AFA900265E0FDE8
:1023CB0012242990023BE0FBA3E0FAA3E02424F9BA
:1023DB00E43AFA7812E6FD12242990023BE0FBA3C3
:1023EB00E0FAA3E02427F9E43AFAA21BE433FD1246
:1023FB00242990023BE0FBA3E0FAA3E0242AF9E4B2
:10240B003AFA780CE6FD12317E90023BE0FBA3E03A
:0E241B00FAA3E0242EF9E43AFA90026FE0FDF5
:10242900EDC4540FFFC3940AEF40042437800224FB
:1024390030122654740129F9E43AFAED540FFFC316
:0E244900940AEF4004243780022430122654F7
:012457002262
:10317E007F00EFC3940AEF400424378002243012FC
:10318E002654740129F9E43AFAEDC4540FFFC3949E
:10319E000AEF4004243780022430122654ED540FD7
:1031AE00FFC3940AEF4004243780022430122654C1
:0131BE0022EE
:1032AD009001FA7401F0780DE6B403047F038002F7
:1032BD007F019001FAEFF07809E67812F67811E6C1
:1032CD00900257F0EF70047F0180027F00121F06FD
:0532DD00783D7603229C
:1033E1009001FA7401F07809E67812F6740170041C
:0E33F1007F0180027F00121F06783D760322C6
:1032E2009001FAE0780DF6E4F07812E67809F690AB
:1032F2000257E07811F6E4F090026FF0780CF69045
:1033020001F9F070047F0180027F00121F06783DF0
:033312007603221D
:051F0600900242EFF023
:101F0B0012357E7837E670F8783BF67F6490019552
:101F1B00E4F0A3DFFCE4FFEFFD3395E0FC74742DDC
:101F2B00F58274153CF583E493FE74952DF582745C
:101F3B00013CF583EEF00FEFB458DC7B017A0179AD
:101F4B00A0900242E0FD1224297A0179A39001FAB4
:101F5B00E0B40308900276E0FFFD80027D071224B7
:101F6B00297B017A0179A6900257E07003FD80026C
:101F7B007D011224297B017A0179A9900257E0B4E3
:101F8B0009047D0180027D001224297B017A0179ED
:101F9B00AC90025BE0FD1224297A0179AE900258D5
:101FAB00E0FD1224297A0179B0900256E0FD12244B
:101FBB00297A0179B3900265E0FD1224297A01791F
:101FCB00B67812E6FD1224297A0179B9A21BE43303
:101FDB00FD1224297A0179BC900265E0FD122429B7
:101FEB007A0179C0E4FD1224297A0179C3122429DC
:101FFB007A0179C61224297A0179C91224297A0126
:10200B0079CB1224297A0179CD1224297A0179D03E
:10201B001224297A0179D31224297A0179D6122430
:10202B00297A0179D91224297A0179DC1224297AA7
:10203B000179DF1224297A0179E21224297A0179B4
:10204B00E5122424783D7602E4783CF67837760165
:10205B00783A7614783CE6062495F582E43401F55B
:0D206B0083E0F5E5900221E070037402F0BF
:012078002245
:0B052F0090023BEBF0A3EAF0A3E9F020
:10053A002403F9E43AFA90023FEBF0A3EAF0A3E9C4
:10054A00F090024574FFF0A37412F0A374E3F01262
:10055A002D3EEF701A90023BE0FBA3E0FAA3E0F90C
:10056A00122CBC9001FAE060030208540232AD90EA
:10057A00024574FFF0A37412F074F0122D31EF707B
:10058A003190023BE0FBA3E0FAA3E0F9122CBC9005
:10059A0001FAE070031233E17811E6900257F07025
:1005AA000204F0900265E0FF70057F0102068702EF
:1005BA00068790024574FFF0A37412F0A374FF1229
:1005CA002D32EF703C90023BE0FBA3E0FAA3E0F986
:1005DA00122CBC9001FAE070031233E190025774B6
:1005EA0009F0E490025EF090025CF090025AF090FA
:1005FA000259F0900265E0FF70047F018000020654
:10060A008790024574FFF0A37413F0A37412122D9D
:10061A0032EF706F90023BE0FBA3E0FAA3E0F9121D
:10062A002CBC9001FAE070031233E112313A9002C5
:10063A005BEFF090023FE0FBA3E0FAA3E0F9900041
:10064A000D12262790000E12314E900258EFF090AC
:10065A00023FE0FBA3E0FAA3E0F990000F1226277D
:10066A00FF90001012314F900256EFF0900257742B
:10067A000AF0900265E0FF70047F01800090026535
:10068A00EFF02290024574FFF0A37413F0A3741DD7
:10069A00122D32EF704A90023BE0FBA3E0FAA3E08E
:1006AA00F9122CBC9001FAE070031233E1C201C2C4
:1006BA001B9001FA7403F090023FE0FBA3E0FAA357
:1006CA00E0F990001A12262724D0FF900276F078DB
:1006DA002EE6B50704782A7618783D760102099A3B
:1006EA0090024574FFF0A37413F0A3742F122D32F5
:1006FA00EF70219001FAE070031233E19001FA746D
:10070A0003F0C201C21B900276E0700304F0227863
:10071A002A76182290024574FFF0A37413F0A3748A
:10072A003A122D32EF60030207B590023BE0FBA3B9
:10073A00E0FAA3E0F9122CBC9001FAE0700312333C
:10074A00E19001FBE0900276F09001FCE090025704
:10075A00F09001FDE090025BF09001FEE0900258FB
:10076A00F09001FFE0900256F0900200E0900265DE
:10077A00F0900201E07812F6A3E09001FAF09002FC
:10078A0003E024FF921B201B03C38001D39201E4E0
:10079A0033900204F0201B047F1880027FF0782A2D
:1007AA00A607900205E09001F9F02290024574FF35
:1007BA00F0A37413F0A37444122D32EF7024900244
:1007CA003BE0FBA3E0FAA3E0F9122CBC9001FAE0AB
:1007DA0070031233E190026FE06003020ECA7403E1
:1007EA00F02290024574FFF0A37413F0A374571219
:1007FA002D32EF701D90023BE0FBA3E0FAA3E0F973
:10080A00122CBC9001FAE070031233E1E490026FFB
:10081A00F02290024574FFF0A37413F0A3746B12D4
:10082A002D32EF700122122D25EF7003020D9390E5
:10083A00024574FFF0A37413F0A37486122D32EFED
:10084A007008783DF6900221F0229001FAE07003D8
:10085A00020DD490024574FFF0A37413F0A3748CB4
:10086A00122D32EF706753ABFB12313A780FA6079D
:10087A0090023FE0FBA3E0FAA3E0F990000E1226F3
:10088A0027FF90000F12314F780AA60790023FE027
:10089A00FBA3E0FAA3E0F9900011122627FF9000CB
:1008AA001212314F780EA60790023FE0FBA3E0FA3E
:1008BA00A3E0F990001E12262724D0780BF6E690C2
:1008CA0014C393F643AB04E4900220F0229002454D
:1008DA0074FFF0A37413F0A37496122D32EF7015FF
:1008EA0090023BE0FBA3E0FAA3E0F9122CBC783DAE
:1008FA0076030232E290024574FFF0A37413F0A368
:10090A0074A4122D32EF70099001FA7402F0020DEC
:10091A00C690024574FFF0A37413F0A374AF122DAE
:10092A0032EF702F782A7618900276E0FFD394007F
:10093A00400BEFD3940C5005E014F08014EF7011C3
:10094A00900276740CF0C201301B06C21B782A761C
:10095A0018803D90024574FFF0A37413F0A374BF8E
:10096A00122D32EF703F782A7618900276E0FFC394
:10097A0094004013EF940C500EE004F0C201301BB7
:10098A000FC21B76188009EFB40C05E4900276F0CA
:10099A00900276E075F018A424CCF9741435F0FAB4
:1009AA007BFF020EC790024574FFF0A37413F0A3F5
:1009BA0074CB122D32EF70129001FAE064036003D7
:1009CA00020ECAD21B782A76F02290024574FFF0F2
:1009DA00A37413F0A374D7122D32EF700122900280
:1009EA004574FFF0A37413F0A374E4122D32EF7070
:1009FA001990023FE0FBA3E0FAA3E0F99000141279
:100A0A002627900015123315806490024574FFF072
:100A1A00A37413F0A374F9122D32EF70207812E642
:100A2A00FFC3940A5013EF94085007E62402FFF616
:100A3A008009781206E6FF80027F0A80319002451B
:100A4A0074FFF0A37414F0A37403122D32EF70270D
:100A5A007812E6FFD394014013EF94034007E6248B
:100A6A00FEFFF68009781216E6FF80027F017812EF
:100A7A00A607C201020DC690024574FFF0A37414C2
:100A8A00F0A3740F122D32EF7003D20122900245A7
:100A9A0074FFF0A37414F0A3741A122D32EF7003CA
:100AAA00C2012290024574FFF0A37414F0A37427C4
:100ABA00122D32EF703690023FE0FBA3E0FAA3E07A
:100ACA00F990000A12262790000B123315EFB40989
:100ADA00047F5A8012EFB406047F3C800AEFB40305
:100AEA00047F1E80027F00780CEF80159002457407
:100AFA00FFF0A37414F0A37431122D32EF700A7848
:100B0A000CF69001F9F0020DC690024574FFF0A3AD
:100B1A007414F0A37440122D32EF7007900257F04C
:100B2A00020DC690024574FFF0A37414F0A374502A
:100B3A00122D32EF7012900265E0C3940340030253
:100B4A000DC6E004F0020DC690024574FFF0A374CE
:100B5A0014F0A37459122D32EF7012900265E0D38B
:100B6A0094005003020DC6E014F0020DC69002452F
:100B7A0074FFF0A37414F0A37464122D32EF702082
:100B8A0090023FE0FBA3E0FAA3E0F99000181226D6
:100B9A0027FF900019123316900265EFF0020DC676
:100BAA0090024574FFF0A37414F0A3747C122D32E2
:100BBA00EF702090023FE0FBA3E0FAA3E0F9900077
:100BCA0012122627FF90001312331690026FEFF0CD
:100BDA00020DC690024574FFF0A37414F0A3748F3B
:090BEA00122D32EF6003020CC869
:100BF30090023EF090023EE0FFC39464501C9002CA
:100C03003BE0FBA3E0FAA3E0F98F82758300E412D3
:100C1300266690023EE004F080DAE490023EF09013
:100C2300023EE0FF9015CB93FE90023BE0FBA3E076
:100C3300FAA3E0F98F82758300EE12266690023ED6
:100C4300E004F0E0B437D890023BE0FBA3E0FAA362
:100C5300E0240EF9E43AFA7D0112242990023BE0E4
:100C6300FBA3E0FAA3E02411F9E43AFA9001FAE0D5
:100C7300B40308900276E0FFFD80027D0712242969
:100C830090023BE0FBA3E0FAA3E02414F9E43AFA70
:100C9300900257E07003FD80027D01122429900227
:100CA3003BE0FBA3E0FAA3E02417F9E43AFA90024D
:100CB30057E0B409047D0080027D0112236B783D67
:020CC3007602B7
:100CC500020DC690024574FFF0A37414F0A3749A44
:100CD500122D32EF6003020D7690023FE0FBA3E098
:100CE500FAA3E0F990000A122627FF90000B1231B3
:100CF5004FEF7F00FEC007C00690023FE0FBA3E078
:100D0500FAA3E0F990000C122627FF90000D12318E
:100D15004FEFFD3395E0FCD0E04C7818F6D0E04D70
:100D250008F690023FE0FBA3E0FAA3E0F99000117A
:100D3500122627FF90001212314FEF7F00FEC007E9
:100D4500C00690023FE0FBA3E0FAA3E0F990001390
:100D5500122627FF90001412314FEFFD3395E0FC6A
:100D6500D0E04C781CF6D0E04D08F6120ECB020D03
:100D7500C690024574FFF0A37414F0A374A2122D5B
:100D850032EF7004783DF622122D25EF70097BFFB6
:100D95007A137979020EC790024574FFF0A3741493
:100DA500F0A374A9122D32EF7017783DF690021C4E
:100DB500F090021EF0D2059001FA04F07F0A02338A
:100DC5004690023BE0FBA3E0FAA3E0F9020EC790D0
:100DD500024574FFF0A37414F0A374B9122D32EF19
:050DE5006003020EBCDA
:100DEA0090023EF090023EE0FFC39464501C9002D1
:100DFA003BE0FBA3E0FAA3E0F98F82758300E412DB
:100E0A00266690023EE004F080DAE490023EF0901A
:100E1A00023EE0FF90160093FE90023BE0FBA3E047
:100E2A00FAA3E0F98F82758300EE12266690023EDD
:100E3A00E004F0E0B437D890023BE0FBA3E0FAA369
:100E4A00E0240EF9E43AFAE4FD12242990023BE088
:100E5A00FBA3E0FAA3E02411F9E43AFA9001FAE0DC
:100E6A00B40308900276E0FFFD80027D0712242970
:100E7A0090023BE0FBA3E0FAA3E02414F9E43AFA77
:100E8A00900257E07003FD80027D0112242990022E
:100E9A003BE0FBA3E0FAA3E02417F9E43AFA900254
:100EAA0057E0B409047D0080027D0112236B783D6E
:020EBA007602BE
:0E0EBC0090023BE0FBA3E0FAA3E0F9122CBC8D
:010ECA002205
:08356200901004E04408F0227F
:10349A0090100A74FFF090100BF0901004E054F7AB
:0234AA00F0220E
:102D8C0090026FE0FD6003301C17E490026FF0902E
:102D9C00100A74FFF090100BF0901004E054F7F050
:102DAC0022EDB4030BE490100AF090100BF0802687
:102DBC0090026FE0FFB4020E90100A7412F09010A3
:102DCC000B74FDF08010EFB4010C90100A740CF031
:102DDC0090100B74FEF090026FE0600443A0082288
:042DEC0053A0F722D7
:10293C00020500E493A3F8E493A34003F68001F2AC
:10294C0008DFF48029E493A3F85407240CC8C3339C
:10295C00C4540F4420C8834004F456800146F6DF6B
:10296C00E4800B010204081020408090356AE47E5C
:10297C00019360BCA3FF543F30E509541FFEE49360
:10298C00A360010ECF54C025E060A840B8E493A327
:10299C00FAE493A3F8E493A3C8C582C8CAC583CA52
:1029AC00F0A3C8C582C8CAC583CADFE9DEE780BE0A
:01357000005A
:10260E00BB010689828A83E0225002E722BBFE02CA
:09261E00E32289828A83E49322FD
:10262700BB010CE58229F582E5833AF583E0225068
:1026370006E92582F8E622BBFE06E92582F8E222B2
:0D264700E58229F582E5833AF583E49322CC
:10265400BB010689828A83F0225002F722BBFE0165
:02266400F3225F
:10266600F8BB010DE58229F582E5833AF583E8F0AA
:10267600225006E92582C8F622BBFE05E92582C856
:02268600F2223E
:10268800C5F0F8A3E028F0C5F0F8E58215827002DD
:062698001583E038F0227A
:10269E00A3F8E0C5F025F0F0E582158270021583EF
:0626AE00E0C838F0E8224C
:1026B400D083D082F8E4937012740193700DA3A3B5
:1026C40093F8740193F5828883E4737402936860C9
:0626D400EFA3A3A380DFC9
:00000001FF
