:030000000228F2E1
:1028F20078FFE4F6D8FD9000007F007E03E4F0A3A9
:0A290200DFFCDEFA75813A020100E5
:0F34830024242454696D652073796E630D0A004B
:043531004102210032
:102DC000D2097813E6FF7002D20CEFB40102D20DE3
:102DD000EFB40202D20EEFB40302D20FEFB404023A
:102DE000D210EFB40502D211EF64067024783716C2
:102DF000E670037834F6783616E670037835F678A0
:102E00002616E670037824F6782516E670037827F0
:0D2E1000F6781306E6C3940A4002E4F622A9
:10298C00780EE6FF7814667003022A24A6079002DC
:10299C0020E0B4012190021FE004F0E0C3940A404F
:1029AC0015E4F0783A76037BFF7A347983122C8C19
:1029BC009002207402F0780AE6FF7810666059A63F
:1029CC0007780CE6601A16E670161232E3783A763F
:1029DC00039001FAE070047F0180027F00121EEC6C
:1029EC00900220E0B4021090021FE004F0E0C394C7
:1029FC00024004E4F0D207780FE6FF78086660180E
:102A0C00A60790021DE004F0E0C39418400AE4F01D
:092A1C009002207402F0D207229E
:10243E00300B3D90021CE004F0C3940C400FE4F00E
:10244E0090021EE004F0D394184002C20B90021EBC
:10245E00E0FF30E00543801080035380EFEF30E063
:10246E000543802080035380DFEF30E051022515B5
:10247E0030052590021CE004F0C394324012E4F0C3
:10248E0090021EE004F0D394064005C2051200002F
:10249E00438010438020806F30002590021CE004A2
:1024AE00F0C3940C400FE4F090021EE004F0D394BD
:1024BE00104002C20090021EE030E00280498051BE
:1024CE009001FAE0D394015018900257E070125325
:1024DE0080EF5380DF5380BFE4780CF69001F9F063
:1024EE00229001F9E0FFB428084380105380DF806A
:1024FE0020EFB43C085380EF4380208014EFB45A91
:10250E000A5380EF5380DF438040225380EF538085
:05251E00DF5380BF2225
:10333D00781276029002657401F09001FAF0D201D4
:10334D005390EF783A7603E070047F0180027F009E
:0A335D00121EEC9002207401F02211
:10303E0012333D122AB9300902C209300C08C20CF3
:10304E0012353F1218EE300D08C20D122D5C1226ED
:10305E00C0300E05C20E121D35300F05C20F121BE9
:10306E006E30100BC21012243E122C2012298C121C
:04307E00354580BF95
:1001000090023C7400F0A37468F0A37480F0A3E440
:10011000F090023BF090023BE0FFC394405019A3E3
:10012000E0FCA3E02FF582E43CF583E4F0438D206E
:1001300090023BE004F080DD9002427404F0A3E4FE
:10014000F090023BF090023BE0FFC39440503490AB
:100150000242E0FCA3E0F5828C83E493FE90023C33
:10016000E0FCA3E02FF582E43CF583EEF09002433F
:10017000E004F07006900242E004F090023BE004DC
:10018000F080C290023CE0FEA3E0FFF5828E83E0A7
:1001900064AA600302037BA3A3E064AA60030203D2
:1001A0007B90023CA3E02404F582E43EF583E06406
:1001B000AA600302037BEF2406F582E43EF583E0A8
:1001C00064AA600302037B53A87F900240F0A3F06F
:1001D000A37440020374438D20900240E0FEA3E02C
:1001E000FDAC06E490023BF090023BE0F9C3944082
:1001F0004003020273900240E0FEA3E0FFC3EE94CE
:10020000004009D3EF9400EE9404400FC3EE940530
:100210004045D3EF94FFEE943F503C900242E0FE05
:10022000A3E0F5828E83E493FF90023CE0FAA3E022
:1002300029F582E43AF583EFF0900243E004F07090
:1002400006900242E004F0900241E004F0701B903E
:100250000240E004F0801390023BE0FFA3E0FAA329
:10026000E02FF582E43AF583E4F090023BE004F0FD
:100270000201E875FE0100000000E490023BF090EE
:10028000023BE0FFC39440501B90023EE0FAA3E023
:100290002FF582E43AF583E4F0438D2090023BE0B1
:1002A00004F080DBE4F5FAECF5FB8DFC75FDA500B0
:1002B00000000075FE0200000000E4F5FDF5FEF50B
:1002C000FA75FB05F5FC75FE010000000090023B8D
:1002D000F090023BE0F9A3E0FEA3E029F582E43EC2
:1002E000F583E0FF90023EE0FAA3E029F582E43ACC
:1002F000F583EFF090023BE004F0E0B440D3E4F586
:10030000FAECF5FBAF058FFC75FDA500000000754C
:10031000FE0300000000E4F5FDF5FEF5FA75FB05AF
:10032000F5FC900240E0FEA3E0FFC3EE9404400F12
:10033000D3EF9400EE94055006438D2012000090F8
:100340000240E0FEA3E0B40014EEB40110900240BD
:100350007405F0A3E4F0A37445F0A3E4F090024028
:10036000E0FEA3E0C394FFEE943F50030201D69059
:1003700002407404F0A3E4F00201D612050043A881
:0103800080FC
:010381002259
:10225D0020202020200D0A0041542B4D540D0A0042
:10226D0041542B4D410D0A0041542B4D450D0A0093
:10227D0041542B4D440D0A0041542B43410D0A008E
:10228D0041542B43420D0A0041542B43430D0A0088
:10229D0041542B43500D0A0041542B43440D0A0069
:1022AD0041542B435A0D0A0041542B48300D0A005E
:1022BD0041542B48310D0A0041542B48320D0A0070
:1022CD0041542B48330D0A0041542B48340D0A005C
:1022DD0041542B48350D0A0041542B48360D0A0048
:1022ED0041542B48370D0A0041542B48380D0A0034
:1022FD0041542B48390D0A0041542B48410D0A0019
:10230D0041542B48420D0A0041542B48430D0A00FD
:10231D0041542B48440D0A0041542B48450D0A00E9
:10232D0041542B48460D0A00000102030607090A15
:10233D000C0E0F000102030404040506060707082E
:04234D0008090A0A67
:102FB2007824E670FB7F08900223E4F0A3DFFCE4B0
:102FC200FF1225F4FE601674232FF582E43402F515
:102FD20083EEF0740129F9E43AFA0F80E4E47828E8
:102FE200F6782476017828E6062423F582E4340272
:052FF200F583E0F5F598
:012FF70022B7
:10331200EFC3940B500CEF75F008A4245DF97422EE
:1033220080107812E69023359375F008A424B5F93D
:0A333200742235F0FA7BFF122FB26F
:01333C00226E
:1021610020140620150302225C301412C2149002BE
:102171003B7401F0A37402F0A3742BF08010C2151C
:1021810090023B7401F0A37402F0A37433F0900247
:102191003BE0FBA3E0FAA3E0F91225F4FFB4491FE9
:1021A10090000112260DFEB44902D217EEB441028D
:1021B100C217EE64586003022241C217022241EFA6
:1021C100B44D1C90000112260DFFB44102C218EF5C
:1021D1006442706CD2187812E6F47829F6806112A4
:1021E10025F4FFB44F1290000112260D6446705081
:1021F1009001FAE064028048EF644870439001FA6C
:05220100E06402703BE7
:1022060090000112260DFFD3648094B94005EF2497
:10221600C9801390023BE0FBA3E0FAA3E0F990002B
:102226000112260D24D07812F67812E6D3940F40C8
:0B22360002760F7812E690234093F62A
:10224100E4FF90023BE0FBA3E0FAA3E0F98F827583
:0B2251008300E412264C0FEFB408E7F6
:01225C00225F
:1026C0001221619001FAE06402600302274B20139B
:1026D00013782BF6C217C2187812E6F47829F6E4BC
:1026E000900222F0D213900222E014601514601AB6
:1026F000146019146018240470195390EF43900269
:10270000806F12343A5390BF8067806580671233C0
:10271000E180657812E6FF7829666009A6077F0BDD
:10272000123312800D782AE6FF6007123312E47824
:102730002AF6E58830E210782BE6D394054004436E
:10274000901022782B06225390EF22301308E47861
:102750002BF6900222F0C213900222E014601214B1
:1027600060111460101460172404701C5390EF80E3
:102770000780058003439040900222E004F02290FD
:092780000222E004F05390FD2256
:0D34BE00E4F5FDF5FEF5FA75FB40F5FC2286
:033549000200007D
:10336700E4FE7DA2EF600E74722EF582E43402F55E
:1033770083EDF0800C74722EF582E43402F583E459
:07338700F00D0EEEB404DDB1
:01338E00221C
:0835110075FE0100000000221C
:10324600AD07AC06E4F5FAECF5FBAF058FFC75FDB2
:10325600A5900272E064A27018A3E0B4A313A3E0E1
:10326600B4A40EA3E0B4A50975FE03000000008017
:07327600031235490234BECA
:102ECB00AD07AC067F007E80123511E4FBEF2BF5CE
:102EDB0082E43EF583E4F00BEBB440F1E4F5FAEC5D
:102EEB00F5FBAF058FFC75FDA5900272E064A27037
:102EFB0018A3E0B4A313A3E0B4A40EA3E0B4A509F4
:0F2F0B0075FE020000000080031235490234BE3B
:0B2A250090024BEBF0A3EAF0A3E9F0F5
:102A3000E490024FF0A37480F0A3E4F0A3EEF0A3BF
:102A4000EFF053A87F7F01123367900252E0FEA39C
:102A5000E0FF122ECB123511E490024EF090024BA3
:102A6000E0FBA3E0FAA3E0F990024FE0FF04F08F4F
:102A70008275830012260DFF90024EE0FE900250F8
:102A8000E0FCA3E02EF582E43CF583EFF090024EEB
:102A9000E004F0E0B440C6900252E0FEA3E0FF1272
:102AA0003246E4FF123367900253E02440F0900274
:082AB00052E03400F043A8805D
:012AB80022FB
:073519008F828E83E493FF13
:013520002288
:102B4800242424415457510D0A0024242446616347
:102B5800746F72792073657474696E670D0A002446
:102B68002424576966692072657365740D0A002408
:102B78002424456E74657220546573744D6F6465C2
:102B88003A302E34350D0A00000004C90601085EEB
:102B98000A980BD40D4D0DF40EE50050056906A1F9
:0C2BA80008FE0B380C740DED0E940EE5C9
:10278900E490023BF0123508900268EEF0A3EFF0F6
:10279900C394A0EE940F504AE4FFEF25E02490F58E
:1027A90082E4342BF583E493FC740193FD90026871
:1027B900E0FAA3E0FBC39DEA9C4022EF25E024A2B6
:1027C900F582E4342BF583E493FC740193FDD3EB98
:1027D9009DEA9C5008EF0490023BF080050FEFB48E
:1027E90009B87F0512349290023BE0FFB4040AE570
:1027F9008820E5057409F0802DEFB4010DE58820E6
:10280900E50890023B740AF0801CEFB4020DE588DC
:1028190020E50890023B740BF0800BE58820E50663
:1028290090023B7403F0E5A030E204D21C8002C29E
:062839001C90023BE0FFD1
:01283F002276
:10205F00E4900266F0900270E0FE6F600EA3E06FF6
:10206F006003EFF022900270EFF02290026EE0FF1B
:10207F006E600302210CEF700302216090026AE090
:10208F00700302216090026AE014F0600302216085
:10209F0090026EE090026CF0900267E07005900283
:1020AF006604F090026DE014602114603214602F0A
:1020BF002403600302216090026D7401F090026CA2
:1020CF00E04420F090026A7432F02290026D7402A4
:1020DF00F090026CE04460F090026A7414F0229069
:1020EF00026D7403F090026CE04480F090026A7409
:1020FF0014F0A3E0C394FA5058E004F02290026E5B
:10210F00E0603790026CF0900267E0700590026615
:10211F0004F090026DE024FE601014600F24027032
:10212F001290026CE04440F08009800090026CE055
:10213F0044C0F0E490026DF08009E4900267F090E3
:10214F00026BF090026A7405F0900270E090026EDC
:02215F00F0226C
:06353F0012278902205F43
:1018EE00900266E07003021B6D90026CE012269A65
:1018FE00193B41197E4219F1431A08441A20451A20
:10190E0068461ABF471ADC4819D5621AA5661ACC62
:10191E006719578119F1831A08841B07891B308AAE
:10192E001B4E8B193BC11ADCC800001B6D90026B5D
:10193E00E0C394194003021B6D783A76059001FAC4
:10194E00E060030232E302327D9001FAE06018900B
:10195E00026BE064196003021B6D783A76057BFF1B
:10196E007A2B7948021B6A9001FAE07003021B6D14
:10197E009001FAE0FF64016004EFB40216C201C2E6
:10198E001B9001FA7403F0900276E06003021B6D67
:10199E0004F0229001FAE064036003021B6DC201A1
:1019AE00301B06C21B78307618C21B900276E004FC
:1019BE00F0E0FF700304F022EFD394065003021BF5
:1019CE006DE4900276F0229001FAE0640360030267
:1019DE001B6DB21B201B07C201783076182278309F
:1019EE007617229001FAE0D394015003021B6D7812
:1019FE0012E6940A500106C201229001FAE0D39435
:101A0E00015003021B6D7812E6D39401400116C2F9
:101A1E0001229001FAE0D394015009900257E07030
:101A2E0003021B6D9001F9E0FF7008780C762874A4
:101A3E0028F022EFB4280B780C763C9001F9743C18
:101A4E00F022EFB43C0B780C765A9001F9745AF0F0
:101A5E0022E4780CF69001F9F022900257E0B40AD5
:101A6E00028015900265E0700404F0800E9002571B
:101A7E00E004F0D3940940037401F0900257E0643F
:101A8E00096003021B6D90025EF090025CF0900202
:101A9E005AF0900259F022900257E07003021B6D2B
:101AAE00900265E004F0D394035003021B6DE4F042
:101ABE00229001FAE064027003021B6D80229001F5
:101ACE00FAE064026003021B6D782A76052290020A
:101ADE006FE0FF70047403F022EFB4030790026FFF
:101AEE007402F022EFB4020790026F7401F022EF3D
:101AFE006401706B90026FF02290026BE0643270A2
:101B0E005E90021CF090021EF0D2059001FA04F0D5
:101B1E00783A76057BFF7A2B7952122C8C7F0A024B
:101B2E00331290026BE064327035D20B90021CF0CF
:101B3E0090021EF0783A76057BFF7A2B7967801C2F
:101B4E0090026BE0B41918D200E490021CF09002DF
:101B5E001EF0783A76037BFF7A2B7977122C8C2243
:02353500C11DB6
:1005000053A87F122E781233AD12353812352112CE
:1005100034CB1233F9123425122F1A12344E1234FE
:0F052000D81234E543A88012303E12010080D17A
:03001B00022BB401
:0F2BB400C0E0C083C082C0D075D000C000C00791
:102BC300AFF553F1DF7825760A3012237827E6C371
:102BD3009408500DE606242BF582E43402F583EFC6
:102BE300F0EF640A702A7827F6D214B212802178A3
:102BF30027E6C39408500DE6062433F582E4340235
:102C0300F583EFF0EFB40A0878277600D215B212F5
:0D2C1300D007D000D0D0D082D083D0E032E6
:0300230002308226
:10308200C0E0C083C082C0D075D000C00053F17FC1
:103092007824E660247826760A7828E6062423F542
:1030A20082E43402F583E0F5F5E62423F582E43484
:1030B20002F583E070037824F6D000D0D0D082D01D
:0430C20083D0E032A5
:03004B00022E1D65
:102E1D00C0E0C0F0C083C082C0D075D000C000C07B
:052E2D0004C006C0070F
:102E3200AFE553E1DF900000E0FCA3E02468F582F7
:102E420074003CF583EFF0900000E475F001122667
:102E52006EFEC3E5F0942CEE94014007900000E46E
:032E6200F0A3F0EA
:102E6500D007D006D004D000D0D0D082D083D0F007
:032E7500D0E03278
:030053000230C6B2
:1030C600C0E0C083C082C0D075D000C00053E17F8D
:1030D6007834E66024783776147839E6062495F550
:1030E60082E43401F583E0F5E5E62495F582E434DF
:1030F60001F583E070037834F6D000D0D0D082D0CA
:0431060083D0E03260
:03006B0002320B53
:10320B00C0E0C0F0C083C082C0D075D000C000C089
:10321B0001C002C003C004C005C006C007122DC008
:10322B00D007D006D005D004D003D002D001D000F7
:0B323B00D0D0D082D083D0F0D0E032A1
:03007B0002354CFF
:01354C00324C
:0300830002318FB8
:10318F00C0E0C0F0C083C082C0D075D000C000C006
:10319F0001C002C003C004C005C006C0071225232A
:1031AF00122840D007D006D005D004D003D002D0CB
:0E31BF0001D000D0D0D082D083D0F0D0E0324A
:03008B00022F68D9
:102F6800C0E0C083C082C0D075D000C007901006F2
:102F7800E030E703547FF0901006E030E60354BFDA
:102F8800F0901006E030E50354DFF0901006E030D2
:102F9800E40354EFF0901006E030E30354F7F0D068
:0A2FA80007D0D0D082D083D0E032F1
:0300A300022FF831
:102FF800C0E0C0D075D000C000C007B20430042DB6
:10300800780E06E6D3943B40247600780A06E6D389
:10301800943B40197600780F06E6D39417400E7655
:1030280000780BE625E0FFF6BF80027601D007D0D6
:0630380000D0D0D0E03210
:08350800AF9FEFFEAD9EEDFF49
:013510002298
:07353800759C80759D0722C0
:0F349200EF540FFFE59C54F04FF59C439C4022F4
:08352100E4F59AF599F59B22EF
:1033F90075C33075C2D175C70175C6F375C5037537
:06340900C4E743AA0822FB
:102F1A009010027424F0A37488F090100874E7F0FB
:102F2A00A37403F0A374F3F0A37401F0A374F3F091
:102F3A00A37401F0A374F3F0A37401F09010047465
:102F4A0020F0E4A3F0901010F0A3F0A3F090100783
:0E2F5A007490F043AA20901002E04410F02280
:04354500438D202270
:0C34E500758E01758DC0438D02023545C7
:0D34CB0075B28875B45D43AA0243B20122B8
:10342500901000748AF0A3744AF043AA109010001B
:05343500E04401F0225B
:10344E0075DA0275D90643DAECE4F5DB75E30C4365
:03345E00A9182288
:1033E100201D1275EA0275E90643EAECE4F5EB7576
:0833F100F34D43A818D21D2280
:10343A00301D0EE4F5EAF5E9F5EAF5EBF5F353A8E4
:04344A00E7C21D2296
:0D34D80075968875890175898143AB0422C2
:1033AD0090103874A8F075C80A758B09E58B30E755
:0B33BD00FB758A0143C80543A880226D
:102E780075A17FE4F5ACF591F5DEF58075B19A752D
:102E8800AD20F592F5DFF58875B9FFF5AE759302BB
:102E9800F59075C1BEF5AFF59875C9FA75A308F533
:102EA80094F5A075D1FFF595F5B075D32075D21EB0
:102EB800F5D575D40FF5D775D603F5EE75EF0A7508
:032EC800FF2D22B9
:10252300900264E014F070035398F7900263E01490
:10253300F070035398EF900262E014F07003539825
:10254300DF90025FE014F060030225F3900265E080
:10255300FF700A900264F0900263F0805AEFB401B6
:102563002290025CE01313543F900264F090025AED
:10257300E01313543F900263F0900259E013135495
:102583003F8034900265E090025CB40219E0C3130B
:10259300900264F090025AE0C313900263F0900239
:1025A30059E0C3138011E0900264F090025AE09066
:1025B3000263F0900259E0900262F09001FAE0B4F5
:1025C300020AE59830E60543881080035388EF90AC
:1025D3000264E06003439808900263E06003439859
:1025E30010900262E060034398209002547401F05B
:0125F30022C5
:1034730090025CEFF090025AEDF0900259EBF022CB
:1016200090025DE004F0C3940450030218EDE490CE
:10163000025DF0A3E0FF705A90025CE0C394FF509B
:1016400003E004F090025AE0D394004003E014F069
:10165000900259E0D394004003E014F090025CE063
:10166000F460030218ED90025AE060030218ED9056
:101670000259E060030218ED90026075F001122635
:101680006EFCD3E5F0941EEC940050030218ED02BA
:101690001887EF6401707490025CE0C394FF5003FC
:1016A000E004F090025CE0D394FF4003E014F0907B
:1016B000025AE0C394805003E004F090025AE0D351
:1016C00094804003E014F0900259E0D3940040036A
:1016D000E014F090025CE0F460030218ED90025A0E
:1016E000E0648060030218ED900259E06003021884
:1016F000ED90026075F00112266EFED3E5F0941EA7
:10170000EE940050030218ED02188790025EE0FF8D
:101710006402705B90025CE0C394FF5003E004F04D
:1017200090025AE0C394FF5003E004F0900259E0A5
:10173000D394004003E014F090025CE0F4600302F4
:1017400018ED90025AE0F460030218ED900259E09F
:1017500060030218ED90026075F00112266EFCD352
:10176000E5F0941EEC940050030218ED021887EF88
:101770006403705A90025CE0D394004003E014F0DC
:1017800090025AE0C394FF5003E004F0900259E045
:10179000D394004003E014F090025CE06003021870
:1017A000ED90025AE0F460030218ED900259E060F7
:1017B000030218ED90026075F00112266EFED3E56B
:1017C000F0941EEE940050030218ED021887900268
:1017D0005EE0FF6404705990025CE0D39400400323
:1017E000E014F090025AE0D394004003E014F0902B
:1017F0000259E0C394FF5003E004F090025CE06003
:10180000030218ED90025AE060030218ED900259AD
:10181000E0F460030218ED90026075F00112266E8C
:10182000FCD3E5F0941EEC940050030218ED8057B1
:10183000EF6405706090025CE0D394004003E01414
:10184000F090025AE0C394FF5003E004F090025974
:10185000E0C394FF5003E004F090025CE0600302F8
:1018600018ED90025AE0F460030218ED900259E07E
:10187000F4707A90026075F00112266EFED3E5F0E6
:10188000941EEE94004066E4900260F0A3F0900293
:101890005EE004F02290025CE0C394FF5003E00499
:1018A000F090025AE0D394004003E014F090025903
:1018B000E0C394FF5003E004F090025CE0B4FF2D1D
:1018C00090025AE07027900259E0B4FF2090026025
:1018D000E475F00112266EFED3E5F09432EE94002A
:0E18E000400BE4900260F0A3F090025EF02254
:101B6E00900254E07003021D34E4900254F090028F
:101B7E0057E0FFB4091B7811666016E0F6E4900298
:101B8E005EF090025C747FF0E490025AF09002597D
:101B9E00F09001FAE06007900257E0FE7004E4FB5B
:101BAE008051EEB401047BFF8021900257E0FEB419
:101BBE000205E4FBFD8016EEB40306E4FB7D808097
:101BCE000C900257E0FEB40408E4FB7DFF7FFF801B
:101BDE0034EEB40507E4FB7DFFFF8029900257E049
:101BEE00FEB406087BFF7DFFE4FF8019EEB4070705
:101BFE007BFFE4FDFF800E900257E0FEB4080C7BE5
:101C0E00FFE4FD7F80123473021D0AEE640A600346
:101C1E00021D0090025BE0FFA3F0900258E0FE90E0
:101C2E00025AF0900256E0FD900259F0EFB4FF1107
:101C3E00EEB4FF0DEDB4FF099002577401F0021DD2
:101C4E000A90025BE0B4FF13900258E0700D900210
:101C5E0056E07007A37402F0021D0A90025BE0FFCB
:101C6E00B4FF14900258E0B4800D900256E0700755
:101C7E00A37403F0021D0AEFB4FF13900258E0B4F0
:101C8E00FF0C900256E07006A37404F0806E900272
:101C9E005BE07013900258E0B4FF0C900256E070B7
:101CAE0006A37405F0805590025BE0FF701490025D
:101CBE0058E0B4FF0D900256E0B4FF06A37406F090
:101CCE00803AEF7013900258E0700D900256E0B417
:101CDE00FF06A37407F0802490025BE0B4801D9091
:101CEE000258E07017900256E0B4FF10A37408F08B
:101CFE00800A900257E0B40903121620900257E0B2
:101D0E00FF701AEFB40A1690025CE090025BF0903E
:101D1E00025AE0900258F0A3E0900256F09002575B
:071D2E00E060037811F622CA
:0F34A10024242454696D652073796E630D0A002D
:0B2C8C00900242EBF0A3EAF0A3E9F095
:102C97001235457834E670F87838F67F64900195F8
:102CA700E4F0A3DFFCE4FF900242E0FBA3E0FAA319
:102CB700E0F91225F4FE601974952FF582E43401CA
:102CC700F583EEF0900243E475F00112266E0F8053
:102CD700D6E47839F6783476017837760A7839E6A3
:0D2CE700062495F582E43401F583E0F5E55F
:012CF40022BD
:102C2000783AE660357838E6C39414402912354581
:102C30007834E670F8783A167838F608F67834760C
:102C4000017837760A7839E6062495F582E434016E
:102C5000F583E0F5E5227838062230070FC20778C1
:102C60003A76037BFF7A3479A1022C8C900221E022
:102C700060199001FAE070047F0180027F00121E4B
:0C2C8000EC900221E014F0783A76022279
:102AB900900002E0FEA3E0FF900000E06E7003A327
:102AC900E06F607A1235457836760A900002E0FEAA
:102AD900A3E0FF2468F58274003EF583E0FD18E663
:102AE9002404F582E43400F583EDF074682FF5824F
:102AF90074003EF583E4F090000275F00112266E31
:102B0900FEC3E5F0942CEE94014007E4900002F036
:102B1900A3F07835E6062404F582E43400F583E071
:102B2900640A708C7B017A00790412052F7F649006
:0E2B39000004E4F0A3DFFCE47835F6022AB9CC
:012B4700226B
:10340F00757064617465206661696C0075706461C4
:06341F007465206F6B00D4
:0C34F10053E13F8FE5E5E154C060FA2292
:1031CD0090024BEBF0A3EAF0A3E9F0801690024BCE
:1031DD00E0FBA3E0FAA3E0F91225F46020E5E15449
:1031ED00C060EA53E13F90024BE0FBA3E475F001B0
:0E31FD00122684A9F0FA1225F4F5E580D022FE
:100EB700E4F58EF58D53ABFB53A8E753A9E753AA87
:100EC700EF7817F6781AF608F67815F608F690020E
:100ED70046F0A3F0A3F09002797400F0A37468F0D1
:100EE700E4900242F0A3F0900242E0FEA3E0FFC3C9
:100EF700942DEE94015020900279E0FCA3E02FF5A9
:100F070082EC3EF583E4F0900243E004F070D89061
:100F17000242E004F080D043980843981043982099
:100F27007F431234F17817E6B40800400302129F9A
:100F3700900F3EF8282873020F56020FDE02107E2C
:100F470002110702119B0211FF02124302124B12F8
:100F57003545E5E130E534900279E0FEA3E0F5821E
:100F67008E83C083C082781A0806E6188606700149
:100F77000614D082D0832582F582E5833EF583E58A
:100F8700E5F0E4900246F0A3F0A3F0900279E0FECA
:100F9700A3E0F5828E83E0B46E25781DE6184660DF
:100FA7000E7BFF7A34790F1231CDE47817F6227B66
:100FB700FF7A34791B1231CD781776060212A6789C
:100FC7001BE66407700418E6640160030212A67842
:100FD7001AF608F6021246123545E4781AF608F6AC
:100FE700900279E0FEA3E0F5828E83E0F9A3E0FEAC
:100FF700900279E0FCA3E0F5828C83A3A3E0FDAC2B
:1010070006900279E0FAA3E0FBF5828A83A3A3A303
:10101700E0FEEB2404F582E43AF583E0FBEBFFE91D
:10102700B4020EEFF4FFEEF4FEEF6D7002EE6C60AB
:10103700030210FF7815E6FE08E6FFC3ED9FFFECFD
:101047009EFEEF64014E6004EF4E7025AE04AF05BF
:101057007815A60608A607E6FEE42400FFEE34404E
:10106700FE900249F0A3EFF0D394FFEE947F400483
:10107700220210FF021246123545E4900244F0A303
:10108700F0FFFE900242F0A3F0900242E0FCA3E0E2
:10109700FDC3EC94015034ED2405FDE43CFC9002C3
:1010A70079E0FAA3E02DF582EA3CF583E0FD9002B2
:1010B70045E02DF0900244E03400F0900243E00454
:1010C700F070C6900242E004F080BE900279E0FC26
:1010D700A3E0FD2405F582EC3401F583E0FEED2461
:1010E70006F582EC3401F583E0FDEDFF900244E064
:1010F7006E7003A3E06F60057F1502123E02124671
:10110700123545900249E0FEA3E0FF90027AE02401
:1011170005FD900279E03400FAA9057B01122A2522
:1011270090024AE02440FF900249E03400FE90021A
:101137007AE02445FD900279E03400FAA9057B01A5
:10114700122A2590024AE02480FF900249E03400E9
:10115700FE90027AE02485FD900279E03400FAA936
:10116700057B01122A2590024AE024C0FF9002491C
:10117700E03400FE90027AE024C5FD900279E03465
:1011870000FAA9057B01122A25781DE616187001B9
:1011970016021246123545E4900242F0A3F090027F
:1011A70042E0FEA3E0FFC3EE9401504A90024AE0FA
:1011B7002FFF900249E03EFE123519900243E024CA
:1011C70005FD900242E03400FC900279E0FAA3E0CA
:1011D7002DF582EA3CF583E06F600B7F151234F141
:1011E700E47817F68010900243E004F070B09002A4
:1011F70042E004F080A88047123545E4900242F0AF
:10120700A3F0900242E0FEA3E0FFC3942DEE940109
:101217005023900279E0FCA3E02FF582EC3EF583A2
:10122700E4F0123545900243E004F070D590024295
:10123700E004F080CD7F961234F1805F1235457857
:101247001706805B123545E4900242F0A3F0900246
:1012570042E0FEA3E0FFC39440EE940050219002C9
:1012670079E0FCA3E02FF582EC3EF58374AAF090B9
:101277000243E004F070D7900242E004F080CF9080
:101287000279E0FEA3E0AA06F97B017F007E041243
:101297002A25123545020000123545E47817F61263
:1012A7003545900246E004F06003020F2CA3E004EA
:1012B700F06003020F2CA3E004F0C3940250030272
:0812C7000F2C120000020F2C95
:0B34FD00000102030507090A0C0E0F76
:0E34B000EF9034FD93FFC374169FFF0233C8E4
:1033C800201915D219EF14782DF6E4782FF67832F3
:0933D800F653887F782C76C82298
:102840002019030228F1783206E6C3782C9650034B
:102850000228F1E47832F6782FE6B4130040030240
:1028600028E9902869F82828730228A20228AB02D8
:1028700028B40228C80228B40228C80228B40228B2
:10288000C80228B40228C80228B40228C80228B402
:102890000228C80228B40228C80228B40228C802A4
:1028A00028E3438880782C76A0804353887F782C57
:1028B0007614803A438880782DE630E70518761E36
:1028C000802C782C760A802653887F782DE6FF307E
:1028D000E70518760A8004782C761EEF25E0782D1F
:1028E000F6800B782C76C8800553887FC219782F24
:0228F0000622BE
:101D35009001FAE064036003021E9F201A177831B0
:101D4500F6900276E0F47833F67812E6F4782EF61B
:101D5500E4900278F0D21A900278E01460211460C1
:101D650035146047240370465390EF783106E6D367
:101D750094195003021EEB5390FD439040801212BC
:101D850033E1439802783106E6D394325003021EBC
:101D9500EBE4F6021EE5783106E6D394C85003025B
:101DA5001EEB900278E004F0E4F622021EE578309E
:101DB500E6FF6039301903021EEBB417097BFF7A81
:101DC5001479B7122C8C7830E6B41815900276E0A9
:101DD50075F018A424B7F9741435F0FA7BFF122CAA
:101DE5008C7830E6FF1233C8E47830F6229002761C
:101DF500E07833666048301903021EEBE0FFF6EF2A
:101E05006003B4170ED21B783376177BFF7A1479EB
:101E1500B78019900276E0FFD394065012EF75F063
:101E250018A424B7F9741435F0FA7BFF122C8C78BA
:101E350033E6FF1233C8900276E07833F622791242
:101E4500E7782E666010301903021EEB7812E6FF64
:101E5500782EF60234B0A201300801B35029783A41
:101E6500E67024A20192083001087BFF7A1479B745
:101E75008012900276E075F018A424B7F974143531
:101E8500F0FA7BFF022C8C201B082001057812E656
:101E950070045390EF2243901022301A05E490020B
:101EA50078F0C21A900278E014601214601F146072
:101EB5002C240370312017035390EF8023783106CB
:101EC500E6D394144020E4F64398028013783AE66A
:101ED50070147BFF7A1479B7122C8C8003201706B7
:071EE500900278E004F022F6
:1012CF005475726E206F6E20756E6974005475724E
:1012DF006E206F6E204C6967687472004368616E90
:1012EF006765206C6967687420636F6C6F72005557
:1012FF0073657220636F6C6F720053656C656374F6
:10130F0020536F756E642066696C65006D75736927
:10131F006320706C61790050726F506C61790D0AA7
:10132F00005475726E206F6E2048756D6964696622
:10133F00696572005475726E206F66662048756D10
:10134F006964696669657200564552302E0D0A0050
:10135F005645520D0A00242424564552302E34355A
:10136F000D0A004770537461007B54696D655379A2
:10137F006E63005475726E206F666620756E6974A9
:10138F00005475726E206F6E204254007072657635
:10139F00696F757320736F6E670D0A006E657874D1
:1013AF0020736F6E670D0A006D757369632070612E
:1013BF00757365007B4D75736963537461747573D1
:1013CF000041646A757374204F757470757420567C
:1013DF006F6C756D6500766F6C756D65207570003F
:1013EF00766F6C756D6520646F776E006D757369C0
:1013FF0063206D757465006D7573696320756E6D0F
:10140F00757465005365742054696D657200547569
:10141F00726E206F66662054696D65720054757226
:10142F006E206F6666204C6967687472006C69671E
:10143F006874207570006C6967687420646F776ECC
:10144F000041646A757374204C6967687420427236
:10145F00696768746E6573730041646A757374208D
:10146F006D6F697374206D6F6465004E6F72477096
:10147F005374610D0A0020757064617465004154E6
:10148F0057510D0A00456E74657220546573744D83
:10149F006F64653A007B4E6F724770537461000141
:1014AF0001020408102040802424247B4D757369A9
:1014BF00635374617475733A5B30375D7D0D0A0049
:1014CF002424247B4D757369635374617475733A67
:1014DF005B30315D7D0D0A002424247B4D757369CB
:1014EF00635374617475733A5B30325D7D0D0A001E
:1014FF002424247B4D757369635374617475733A37
:10150F005B30335D7D0D0A002424247B4D75736998
:10151F00635374617475733A5B30345D7D0D0A00EB
:10152F002424247B4D757369635374617475733A06
:10153F005B30355D7D0D0A002424247B4D75736966
:10154F00635374617475733A5B30365D7D0D0A00B9
:10155F002424247B47705374613A5B30302C303035
:10156F002C30302C30302C3030303030302C30307C
:10157F002C30302C30302C3030303B30302C303061
:10158F002C30302C3030303030302C30302C30305C
:10159F002C30302C30302C30303A30302C30302C46
:1015AF0030305D7D0D0A002424247B4E6F7247700E
:1015BF005374613A5B30302C30302C30302C30305B
:1015CF002C3030303030302C30302C30302C30301C
:1015DF002C3030302C30305D7D0D0A002424247BDC
:1015EF004E6F7247705374613A5B30302C30302C31
:1015FF0030302C30302C3030303030302C30302CEC
:10160F0030302C30302C3030302C30305D7D0D0AA6
:01161F0000CA
:102CF50090024574FFF0A37413F0745FA3F0900283
:092D05003FE0FBA3E0FAA3E0F9B2
:102D0E00900242EBF0A3EAF0A3E9F0900245E0FB5B
:102D1E00A3E0FAA3E0F91225F4FF602F900242E03F
:102D2E00FBA3E0FAA3E0F91225F4B507056003EF63
:102D3E0070037F0122900243E475F00112266E901B
:0E2D4E000246E475F00112266E80C07F00225E
:10310A0090023FE0FBA3E0FAA3E0F990000B12263D
:09311A000D90000CFF12260DFDC2
:10312300C3EF648094C14006EF24C9FF800474D0C8
:103133002FFFC3ED648094C14006ED24C9FD8004D4
:0B31430074D02DFDEFC454F04DFF22AE
:0532B200FF12260DFDD6
:1032B700C3EF648094C14006EF24C9FF800474D033
:1032C7002FFFC3ED648094C14006ED24C9FD80043F
:0C32D70074D02DFDEF75F00AA42DFF222D
:1023510012240F90023BE0FBA3E0FAA3E0241AF958
:10236100E43AFA90025BE0FD12240F90023BE0FB9D
:10237100A3E0FAA3E0241CF9E43AFA900258E0FD44
:1023810012240F90023BE0FBA3E0FAA3E0241EF924
:10239100E43AFA900256E0FD12240F90023BE0FB72
:1023A100A3E0FAA3E02421F9E43AFA900265E0FD02
:1023B10012240F90023BE0FBA3E0FAA3E02424F9EE
:1023C100E43AFA7812E6FD12240F90023BE0FBA3F7
:1023D100E0FAA3E02427F9E43AFAA21BE433FD1260
:1023E100240F90023BE0FBA3E0FAA3E0242AF9E4E6
:1023F1003AFA780CE6FD12314E90023BE0FBA3E085
:0E240100FAA3E0242EF9E43AFA90026FE0FD0F
:10240F00EDC4540FFFC3940AEF4004243780022415
:10241F003012263A740129F9E43AFAED540FFFC34A
:0E242F00940AEF400424378002243012263A2B
:01243D00227C
:10314E007F00EFC3940AEF4004243780022430122C
:10315E00263A740129F9E43AFAEDC4540FFFC394E8
:10316E000AEF400424378002243012263AED540F21
:10317E00FFC3940AEF400424378002243012263A0B
:01318E00221E
:10327D009001FA7401F0780DE6B403047F03800227
:10328D007F019001FAEFF07809E67812F67811E6F1
:10329D00900257F0EF70047F0180027F00121EEC48
:0532AD00783A760322CF
:10338F009001FA7401F07809E67812F6740170046E
:0E339F007F0180027F00121EEC783A76032236
:1032E3009001FAE0780DF6E4F07812E67809F690AA
:1032F3000257E07811F6E4F0780CF69001F9F070DB
:0F330300047F0180027F00121EEC783A760322CD
:051EEC00900242EFF03E
:101EF1001235457834E670F87838F67F64900195AC
:101F0100E4F0A3DFFCE4FFEFFD3395E0FC745F2D0B
:101F1100F58274153CF583E493FE74952DF5827476
:101F2100013CF583EEF00FEFB458DC7B017A0179C7
:101F3100A0900242E0FD12240F7A0179A39001FAE8
:101F4100E0B40308900276E0FFFD80027D071224D1
:101F51000F7B017A0179A6900257E07003FD8002A0
:101F61007D0112240F7B017A0179A9900257E0B417
:101F710009047D0180027D0012240F7B017A017921
:101F8100AC90025BE0FD12240F7A0179AE90025809
:101F9100E0FD12240F7A0179B0900256E0FD12247F
:101FA1000F7A0179B3900265E0FD12240F7A01796D
:101FB100B67812E6FD12240F7A0179B9A21BE43337
:101FC100FD12240F7A0179BC900265E0FD12240F05
:101FD1007A0179C0E4FD12240F7A0179C312240F2A
:101FE1007A0179C612240F7A0179C912240F7A0174
:101FF10079CB12240F7A0179CD12240F7A0179D08D
:1020010012240F7A0179D312240F7A0179D612247E
:102011000F7A0179D912240F7A0179DC12240F7A0F
:102021000179DF12240F7A0179E212240F7A017902
:10203100E512240A783A7602E47839F678347601A2
:10204100783776147839E6062495F582E43401F57B
:0D20510083E0F5E5900221E070037402F0D9
:01205E00225F
:0B052F0090023BEBF0A3EAF0A3E9F020
:10053A002403F9E43AFA90023FEBF0A3EAF0A3E9C4
:10054A00F090024574FFF0A37412F0A374CFF01276
:10055A002D0EEF701A90023BE0FBA3E0FAA3E0F93C
:10056A00122C8C9001FAE0600302085402327D904A
:10057A00024574FFF0A37412F074DC122D01EF70BF
:10058A003190023BE0FBA3E0FAA3E0F9122C8C9035
:10059A0001FAE0700312338F7811E6900257F07077
:1005AA000204F0900265E0FF70057F0102068702EF
:1005BA00068790024574FFF0A37412F0A374EB123D
:1005CA002D02EF703C90023BE0FBA3E0FAA3E0F9B6
:1005DA00122C8C9001FAE0700312338F9002577438
:1005EA0009F0E490025EF090025CF090025AF090FA
:1005FA000259F0900265E0FF70047F018000020654
:10060A008790024574FFF0A37412F0A374FE122DB2
:10061A0002EF706F90023BE0FBA3E0FAA3E0F9124D
:10062A002C8C9001FAE0700312338F12310A900277
:10063A005BEFF090023FE0FBA3E0FAA3E0F9900041
:10064A000D12260D90000E12311E900258EFF090F6
:10065A00023FE0FBA3E0FAA3E0F990000F12260D97
:10066A00FF90001012311F900256EFF0900257745B
:10067A000AF0900265E0FF70047F01800090026535
:10068A00EFF02290024574FFF0A37413F0A37409EB
:10069A00122D02EF704A90023BE0FBA3E0FAA3E0BE
:1006AA00F9122C8C9001FAE0700312338FC201C246
:1006BA001B9001FA7403F090023FE0FBA3E0FAA357
:1006CA00E0F990001A12260D24D0FF900276F078F5
:1006DA0033E6B5070478307618783A760102098647
:1006EA0090024574FFF0A37413F0A3741B122D0239
:1006FA00EF70219001FAE0700312338F9001FA74BF
:10070A0003F0C201C21B900276E0700304F0227863
:10071A003076182290024574FFF0A37413F0A37484
:10072A0026122D02EF60030207B590023BE0FBA3FD
:10073A00E0FAA3E0F9122C8C9001FAE0700312336C
:10074A008F9001FBE0900276F09001FCE090025756
:10075A00F09001FDE090025BF09001FEE0900258FB
:10076A00F09001FFE0900256F0900200E0900265DE
:10077A00F0900201E07812F6A3E09001FAF09002FC
:10078A0003E024FF921B201B03C38001D39201E4E0
:10079A0033900204F0201B047F1880027F17783000
:1007AA00A607900205E09001F9F02290024574FF35
:1007BA00F0A37413F0A37430122D02EF7024900288
:1007CA003BE0FBA3E0FAA3E0F9122C8C9001FAE0DB
:1007DA00700312338F90026FE06003020EB6740347
:1007EA00F02290024574FFF0A37413F0A37443122D
:1007FA002D02EF701D90023BE0FBA3E0FAA3E0F9A3
:10080A00122C8C9001FAE0700312338FE490026F7D
:10081A00F02290024574FFF0A37413F0A3745712E8
:10082A002D02EF700122122CF5EF7003020D7F905A
:10083A00024574FFF0A37413F0A37472122D02EF31
:10084A007008783AF6900221F0229001FAE07003DB
:10085A00020DC090024574FFF0A37413F0A37478DC
:10086A00122D02EF706753ABFB12310A780FA607FD
:10087A0090023FE0FBA3E0FAA3E0F990000E1226F3
:10088A000DFF90000F12311F780AA60790023FE071
:10089A00FBA3E0FAA3E0F990001112260DFF9000E5
:1008AA001212311F780EA60790023FE0FBA3E0FA6E
:1008BA00A3E0F990001E12260D24D0780BF6E690DC
:1008CA0014AE93F643AB04E4900220F02290024562
:1008DA0074FFF0A37413F0A37482122D02EF701543
:1008EA0090023BE0FBA3E0FAA3E0F9122C8C783AE1
:1008FA0076030232E390024574FFF0A37413F0A367
:10090A007490122D02EF70099001FA7402F0020D30
:10091A00B290024574FFF0A37413F0A3749B122DD6
:10092A0002EF702478307618900276E0FFD39400B4
:10093A00400BEFD394065005E014F08009EF7006DF
:10094A009002767406F0803490024574FFF0A37426
:10095A0013F0A374AB122D02EF703678307618902C
:10096A000276E0FFC39400400AEF94065005E004C3
:10097A00F08009EFB40605E4900276F0900276E082
:10098A0075F018A424B7F9741435F0FA7BFF020E37
:10099A00B390024574FFF0A37413F0A374B7122D39
:1009AA0002EF70129001FAE064036003020EB6D2FD
:1009BA001B783076172290024574FFF0A37413F067
:1009CA00A374C3122D02EF70012290024574FFF046
:1009DA00A37413F0A374D0122D02EF701990023F82
:1009EA00E0FBA3E0FAA3E0F990001412260D9000B0
:1009FA00151232B2806490024574FFF0A37413F0AA
:100A0A00A374E5122D02EF70207812E6FFC3940A50
:100A1A005013EF94085007E62402FFF68009781273
:100A2A0006E6FF80027F0A803190024574FFF0A338
:100A3A007413F0A374EF122D02EF70277812E6FFF9
:100A4A00D394014013EF94034007E624FEFFF68097
:100A5A0009781216E6FF80027F017812A607C20102
:100A6A00020DB290024574FFF0A37413F0A374FB55
:100A7A00122D02EF7003D2012290024574FFF0A3F7
:100A8A007414F0A37406122D02EF7003C2012290AF
:100A9A00024574FFF0A37414F0A37413122D02EF2D
:100AAA00703690023FE0FBA3E0FAA3E0F990000A57
:100ABA0012260D90000B1232B2EFB45A047F5A80FC
:100ACA0012EFB43C047F3C800AEFB41E047F1E8000
:100ADA00027F00780CEF801590024574FFF0A37432
:100AEA0014F0A3741D122D02EF700A780CF690010F
:100AFA00F9F0020DB290024574FFF0A37414F0A34A
:100B0A00742C122D02EF7007900257F0020DB2906A
:100B1A00024574FFF0A37414F0A3743C122D02EF83
:100B2A007012900265E0C394034003020DB2E00420
:100B3A00F0020DB290024574FFF0A37414F0A3748E
:100B4A0045122D02EF7012900265E0D39400500313
:100B5A00020DB2E014F0020DB290024574FFF0A348
:100B6A007414F0A37450122D02EF702090023FE02B
:100B7A00FBA3E0FAA3E0F990001812260DFF9000FB
:100B8A00191232B3900265EFF0020DB29002457469
:100B9A00FFF0A37414F0A37468122D02EF70209072
:100BAA00023FE0FBA3E0FAA3E0F990001212260D3F
:100BBA00FF9000131232B390026FEFF0020DB29061
:100BCA00024574FFF0A37414F0A3747A122D02EF95
:050BDA006003020CB4F1
:100BDF0090023EF090023EE0FFC39464501C9002DE
:100BEF003BE0FBA3E0FAA3E0F98F82758300E412E8
:100BFF00264C90023EE004F080DAE490023EF09042
:100C0F00023EE0FF9015B693FE90023BE0FBA3E09F
:100C1F00FAA3E0F98F82758300EE12264C90023E04
:100C2F00E004F0E0B437D890023BE0FBA3E0FAA376
:100C3F00E0240EF9E43AFA7D0112240F90023BE012
:100C4F00FBA3E0FAA3E02411F9E43AFA9001FAE0E9
:100C5F00B40308900276E0FFFD80027D0712240F97
:100C6F0090023BE0FBA3E0FAA3E02414F9E43AFA84
:100C7F00900257E07003FD80027D0112240F900255
:100C8F003BE0FBA3E0FAA3E02417F9E43AFA900261
:100C9F0057E0B409047D0080027D01122351783A98
:020CAF007602CB
:100CB100020DB290024574FFF0A37414F0A3748581
:100CC100122D02EF6003020D6290023FE0FBA3E0F0
:100CD100FAA3E0F990000A12260DFF90000B1231E1
:100CE1001FEF7F00FEC007C00690023FE0FBA3E0BC
:100CF100FAA3E0F990000C12260DFF90000D1231BD
:100D01001FEFFD3395E0FCD0E04C7818F6D0E04DB4
:100D110008F690023FE0FBA3E0FAA3E0F99000118E
:100D210012260DFF90001212311FEF7F00FEC00747
:100D3100C00690023FE0FBA3E0FAA3E0F9900013A4
:100D410012260DFF90001412311FEFFD3395E0FCC8
:100D5100D0E04C781CF6D0E04D08F6120EB7020D2B
:100D6100B290024574FFF0A37414F0A3748D122D98
:100D710002EF7004783AF622122CF5EF70097BFF2E
:100D81007A137965020EB390024574FFF0A37414CF
:100D9100F0A37494122D02EF7017783AF690021CAA
:100DA100F090021EF0D2059001FA04F07F0A02339E
:100DB1001290023BE0FBA3E0FAA3E0F9020EB3902C
:100DC100024574FFF0A37414F0A374A4122D02EF72
:050DD1006003020EA802
:100DD60090023EF090023EE0FFC39464501C9002E5
:100DE6003BE0FBA3E0FAA3E0F98F82758300E412EF
:100DF600264C90023EE004F080DAE490023EF09049
:100E0600023EE0FF9015EB93FE90023BE0FBA3E071
:100E1600FAA3E0F98F82758300EE12264C90023E0B
:100E2600E004F0E0B437D890023BE0FBA3E0FAA37D
:100E3600E0240EF9E43AFAE4FD12240F90023BE0B6
:100E4600FBA3E0FAA3E02411F9E43AFA9001FAE0F0
:100E5600B40308900276E0FFFD80027D0712240F9E
:100E660090023BE0FBA3E0FAA3E02414F9E43AFA8B
:100E7600900257E07003FD80027D0112240F90025C
:100E86003BE0FBA3E0FAA3E02417F9E43AFA900268
:100E960057E0B409047D0080027D01122351783A9F
:020EA6007602D2
:0E0EA80090023BE0FBA3E0FAA3E0F9122C8CD1
:010EB6002219
:08352900901004E04408F022B8
:1034610090100A74FFF090100BF0901004E054F7E4
:02347100F02247
:102D5C0090026FE0FD6003301C17E490026FF0905E
:102D6C00100A74FFF090100BF0901004E054F7F080
:102D7C0022EDB4030BE490100AF090100BF08026B7
:102D8C0090026FE0FFB4020E90100A7412F09010D3
:102D9C000B74FDF08010EFB4010C90100A740CF061
:102DAC0090100B74FEF090026FE0600443A00822B8
:042DBC0053A0F72207
:10290C00020500E493A3F8E493A34003F68001F2DC
:10291C0008DFF48029E493A3F85407240CC8C333CC
:10292C00C4540F4420C8834004F456800146F6DF9B
:10293C00E4800B0102040810204080903531E47EC5
:10294C00019360BCA3FF543F30E509541FFEE49390
:10295C00A360010ECF54C025E060A840B8E493A357
:10296C00FAE493A3F8E493A3C8C582C8CAC583CA82
:10297C00F0A3C8C582C8CAC583CADFE9DEE780BE3A
:013537000093
:1025F400BB010689828A83E0225002E722BBFE02E5
:09260400E32289828A83E4932217
:10260D00BB010CE58229F582E5833AF583E0225082
:10261D0006E92582F8E622BBFE06E92582F8E222CC
:0D262D00E58229F582E5833AF583E49322E6
:10263A00BB010689828A83F0225002F722BBFE017F
:02264A00F32279
:10264C00F8BB010DE58229F582E5833AF583E8F0C4
:10265C00225006E92582C8F622BBFE05E92582C870
:02266C00F22258
:10266E00C5F0F8A3E028F0C5F0F8E58215827002F7
:06267E001583E038F02294
:10268400A3F8E0C5F025F0F0E58215827002158309
:06269400E0C838F0E82266
:10269A00D083D082F8E4937012740193700DA3A3CF
:1026AA0093F8740193F5828883E4737402936860E3
:0626BA00EFA3A3A380DFE3
:00000001FF
