:0300000002268F46
:10268F0078FFE4F6D8FD9000007F007E03E4F0A30E
:0A269F00DFFCDEFA75813A0201004B
:10211100300B3D90021DE004F0C3940C400FE4F03D
:1021210090021FE004F0D394184002C20B90021FEA
:10213100E0FF30E00543801080035380EFEF30E093
:102141000543802080035380DFEF30E0510221E816
:1021510030052590021DE004F0C394324012E4F0F2
:1021610090021FE004F0D394064005C2051200005E
:10217100438010438020806F30002590021DE004D1
:10218100F0C3940C400FE4F090021FE004F0D394EC
:10219100104002C20090021FE030E00280498051ED
:1021A1009001FBE0D39401501890023FE07012536C
:1021B10080EF5380DF5380BFE4780CF69001FAF092
:1021C100229001FAE0FFB40F084380105380DF80B2
:1021D10020EFB41E085380EF4380208014EFB43CFD
:1021E1000A5380EF5380DF438040225380EF5380B6
:0521F100DF5380BF2256
:102F9F007812760290024D7401F09001FBF0D2018D
:102FAF005390EF783A7603E070047F0180027F0040
:0A2FBF00121D0C9002217401F02293
:102FF100122F9F300902C209300C02C20C300D029F
:10300100C20D300E02C20E300F02C20F301002C2CA
:06301100101231B880DD51
:1001000090026E7400F0A37468F0A37480F0A3E40E
:10011000F090026DF090026DE0FFC394405019A37F
:10012000E0FCA3E02FF582E43CF583E4F0438D206E
:1001300090026DE004F080DD9002747404F0A3E49A
:10014000F090026DF090026DE0FFC3944050349047
:100150000274E0FCA3E0F5828C83E493FE90026ECF
:10016000E0FCA3E02FF582E43CF583EEF09002750D
:10017000E004F07006900274E004F090026DE00478
:10018000F080C290026EE0FEA3E0FFF5828E83E075
:1001900064AA600302037BA3A3E064AA60030203D2
:1001A0007B90026EA3E02404F582E43EF583E064D4
:1001B000AA600302037BEF2406F582E43EF583E0A8
:1001C00064AA600302037B53A87F900272F0A3F03D
:1001D000A37440020374438D20900272E0FEA3E0FA
:1001E000FDAC06E490026DF090026DE0F9C394401E
:1001F0004003020273900272E0FEA3E0FFC3EE949C
:10020000004009D3EF9400EE9404400FC3EE940530
:100210004045D3EF94FFEE943F503C900274E0FED3
:10022000A3E0F5828E83E493FF90026EE0FAA3E0F0
:1002300029F582E43AF583EFF0900275E004F0705E
:1002400006900274E004F0900273E004F0701B90DA
:100250000272E004F0801390026DE0FFA3E0FAA3C5
:10026000E02FF582E43AF583E4F090026DE004F0CB
:100270000201E875FE0100000000E490026DF090BC
:10028000026DE0FFC39440501B900270E0FAA3E0BF
:100290002FF582E43AF583E4F0438D2090026DE07F
:1002A00004F080DBE4F5FAECF5FB8DFC75FDA500B0
:1002B00000000075FE0200000000E4F5FDF5FEF50B
:1002C000FA75FB05F5FC75FE010000000090026D5B
:1002D000F090026DE0F9A3E0FEA3E029F582E43E90
:1002E000F583E0FF900270E0FAA3E029F582E43A9A
:1002F000F583EFF090026DE004F0E0B440D3E4F554
:10030000FAECF5FBAF058FFC75FDA500000000754C
:10031000FE0300000000E4F5FDF5FEF5FA75FB05AF
:10032000F5FC900272E0FEA3E0FFC3EE9404400FE0
:10033000D3EF9400EE94055006438D2012000090F8
:100340000272E0FEA3E0B40014EEB4011090027259
:100350007405F0A3E4F0A37445F0A3E4F0900272F6
:10036000E0FEA3E0C394FFEE943F50030201D69059
:1003700002727404F0A3E4F00201D612050043A84F
:0103800080FC
:010381002259
:10201D0020202020200D0A0041542B4D540D0A0084
:10202D0041542B4D410D0A0041542B4D450D0A00D5
:10203D0041542B4D440D0A0041542B43410D0A00D0
:10204D0041542B43420D0A0041542B43430D0A00CA
:10205D0041542B43500D0A0041542B43440D0A00AB
:10206D0041542B435A0D0A0041542B48300D0A00A0
:10207D0041542B48310D0A0041542B48320D0A00B2
:10208D0041542B48330D0A0041542B48340D0A009E
:10209D0041542B48350D0A0041542B48360D0A008A
:1020AD0041542B48370D0A0041542B48380D0A0076
:1020BD0041542B48390D0A0041542B48410D0A005B
:1020CD0041542B48420D0A0041542B48430D0A0040
:1020DD0041542B48440D0A0041542B48450D0A002C
:1020ED0041542B48460D0A00000102030607090A58
:1020FD000C0E0F0001020304040405060607070871
:04210D0008090A0AA9
:102C99007824E670FB7F08900224E4F0A3DFFCE4CB
:102CA900FF12239CFE601674242FF582E43402F58A
:102CB90083EEF0740129F9E43AFA0F80E4E4782804
:102CC900F6782476017828E6062424F582E434028D
:052CD900F583E0F5F5B4
:012CDE0022D3
:102F7400EFC3940B500CEF75F008A4241DF97420D2
:102F840080107812E69020F59375F008A42475F962
:0A2F9400742035F0FA7BFF122C992F
:012F9E002210
:101F210020140620150302201C301412C214900242
:101F3100877401F0A37402F0A3742CF08010C21511
:101F41009002877401F0A37402F0A37434F090023C
:101F510087E0FBA3E0FAA3E0F912239CFFB4491F39
:101F61009000011223B5FEB44902D217EEB441022A
:101F7100C217EE64586003022001C217022001EF6C
:101F8100B44D1C9000011223B5FFB44102C218EFF9
:101F91006442706CD2187812E6F47829F6806112E6
:101FA100239CFFB44F129000011223B56446705078
:101FB1009001FBE064028048EF644870439001FBAC
:051FC100E06402703B2A
:101FC6009000011223B5FFD3648094B94005EF2435
:101FD600C98013900287E0FBA3E0FAA3E0F9900022
:101FE600011223B524D07812F67812E6D3940F4066
:0B1FF60002760F7812E690210093F6AF
:10200100E4FF900287E0FBA3E0FAA3E0F98F827579
:0B2011008300E41223F40FEFB408E793
:01201C0022A1
:10246800121F219001FBE0640260030224F3201391
:1024780013782BF6C217C2187812E6F47829F6E416
:10248800900223F0D213900223E014601514601A0E
:10249800146019146018240470195390EF439002C3
:1024A800806F1230A95390BF8067806580671230B3
:1024B8004E80657812E6FF7829666009A6077F0BCB
:1024C800122F74800D782AE6FF6007122F74E478C3
:1024D8002AF6E58830E210782BE6D39405400443C9
:1024E800901022782B06225390EF22301308E478BC
:1024F8002BF6900223F0C213900223E0146012140A
:1025080060111460101460172404701C5390EF803D
:102518000780058003439040900223E004F0229056
:092528000223E004F05390FD22AF
:0D313900E4F5FDF5FEF5FA75FB40F5FC220E
:0331BC000200000E
:102FC900E4FE7DA2EF600E74832EF582E43402F5EF
:102FD90083EDF0800C74832EF582E43402F583E4EA
:072FE900F00D0EEEB404DD53
:012FF00022BE
:08318C0075FE010000000022A5
:102EA800AD07AC06E4F5FAECF5FBAF058FFC75FD54
:102EB800A5900283E064A27018A3E0B4A313A3E072
:102EC800B4A40EA3E0B4A50975FE030000000080B9
:072ED800031231BC02313985
:102C0000AD07AC067F007E8012318CE4FBEF2BF524
:102C100082E43EF583E4F00BEBB440F1E4F5FAEC2A
:102C2000F5FBAF058FFC75FDA5900283E064A270F3
:102C300018A3E0B4A313A3E0B4A40EA3E0B4A509C1
:0F2C400075FE020000000080031231BC02313922
:0B27C200900264EBF0A3EAF0A3E9F042
:1027CD00E4900268F0A37480F0A3E4F0A3EEF0A30C
:1027DD00EFF053A87F7F01122FC990026BE0FEA38B
:1027ED00E0FF122C0012318CE4900267F09002642D
:1027FD00E0FBA3E0FAA3E0F9900268E0FF04F08F9C
:10280D00827583001223B5FF900267E0FE90026986
:10281D00E0FCA3E02EF582E43CF583EFF090026737
:10282D00E004F0E0B440C690026BE0FEA3E0FF12BE
:10283D002EA8E4FF122FC990026CE02440F0900204
:08284D006BE03400F043A880A9
:012855002260
:073194008F828E83E493FF9C
:01319B002211
:102A2600242424415457510D0A002424244661636A
:102A3600746F72792073657474696E670D0A002469
:102A46002424576966692072657365740D0A00242B
:102A56002424456E74657220546573744D6F6465E5
:102A66003A302E34350D0A00000004C0060108670E
:102A76000A900BE50D560E000050056006A10907E9
:082A86000B300C850DF60E006B
:1025E300E4900294F0123183900250EEF0A3EFF0E6
:1025F300C394A0EE940F504AE4FFEF25E0246EF558
:1026030082E4342AF583E493FC740193FD90025031
:10261300E0FAA3E0FBC39DEA9C4022EF25E0247E81
:10262300F582E4342AF583E493FC740193FDD3EB40
:102633009DEA9C5008EF04900294F080050FEFB4DC
:1026430008B87F051230E0900294E0FFB4040AE575
:102653008820E5057408F0802DEFB4010DE588208E
:10266300E5089002947409F0801CEFB4020DE5882C
:1026730020E508900294740AF0800BE58820E506B3
:0B2683009002947403F0900294E0FFBA
:01268E002229
:101E1F00E490024EF0900257E0FE6F600EA3E06F69
:101E2F006003EFF022900257EFF022900256E0FF8E
:101E3F006E6003021ECCEF7003021F20900252E06F
:101E4F007003021F20900252E014F06003021F2063
:101E5F00900256E0900254F090024FE0700590020D
:101E6F004E04F0900255E014602114603214602F7C
:101E7F0024036003021F209002557401F090025456
:101E8F00E04420F09002527432F022900255740216
:101E9F00F0900254E04460F09002527414F02290DB
:101EAF0002557403F0900254E04480F09002527493
:101EBF0014F0A3E0C394FA5058E004F022900256B5
:101ECF00E06037900254F090024FE0700590024EA0
:101EDF0004F0900255E024FE601014600F2402708D
:101EEF0012900254E04440F080098000900254E0C8
:101EFF0044C0F0E4900255F08009E490024FF09056
:101F0F000253F09002527405F0900257E09002567F
:021F1F00F022AE
:0631B2001225E3021E1FBE
:1017460090024EE0700302198F900254E012244278
:10175600178D4117D042183743184E44186645185E
:10176600AE46190E47181B6218F466191C6717A9AE
:1017760081183783184E8419298819528919708A55
:10178600178DC10000198F900253E0C394194003CE
:1017960002198F783A76059001FBE06003022F4527
:1017A600022EDF9001FBE06018900253E06419609E
:1017B6000302198F783A76057BFF7A2A7926021971
:1017C6008C9001FBE0700302198F9001FBE0FF642F
:1017D600016004EFB40216C201C21B9001FB740340
:1017E600F0900292E0600302198F04F0229001FB50
:1017F600E06403600302198FC201301B04C21B8020
:1018060026C21B900292E004F0D3940650030219FC
:101816008F7401F0229001FBE06403600302198FCC
:10182600B21B201B07C20178307618227830761753
:10183600229001FBE0D39401500302198F7812E63F
:10184600940A500106C201229001FBE0D394015094
:101856000302198F7812E6D39401400116C20122C1
:101866009001FBE0D39401500990023FE07003021F
:10187600198F9001FAE0FF7008780C760F740FF05C
:1018860022EFB40F0B780C761E9001FA741EF0222C
:10189600EFB41E0B780C763C9001FA743CF022E40F
:1018A600780CF69001FAF0229001FBE07003021921
:1018B6008F90023FE0B40A02801590024DE070045A
:1018C60004F0800E90023FE004F0D39409400374C4
:1018D60001F090023FE06409600302198F9002460E
:1018E600F0900244F0900242F0900241F022900201
:1018F6003FE0700302198F90024DE004F0D3940389
:10190600500302198FE4F0229001FBE0607B640231
:1019160060777402F0229001FBE06402706B782A13
:10192600760522900253E06432705E90021DF090BC
:10193600021FF0D2059001FB04F0783A76057BFF92
:101946007A2A79301229BD7F0A022F74900253E059
:1019560064327035D20B90021DF090021FF0783A77
:1019660076057BFF7A2A7945801C900253E0B419EC
:1019760018D200E490021DF090021FF0783A760328
:0A1986007BFF7A2A79551229BD2251
:0231AB00C11C45
:1005000053A87F122BAD1230661231A412319C1207
:1005100031461230941230BD12315312316043A86B
:0905200080122FF112010080D7B6
:03001B000228E5D3
:0F28E500C0E0C083C082C0D075D000C000C00763
:1028F400AFF553F1DF7825760A3012237827E6C343
:102904009408500DE606242CF582E43402F583EF96
:10291400F0EF640A702A7827F6D214B21280217874
:1029240027E6C39408500DE6062434F582E4340205
:10293400F583EFF0EFB40A0878277600D215B212C7
:0D294400D007D000D0D0D082D083D0E032B8
:03002300022D2586
:102D2500C0E0C083C082C0D075D000C00053F17F21
:102D35007824E660247826760A7828E6062424F5A1
:102D450082E43402F583E0F5F5E62424F582E434E3
:102D550002F583E070037824F6D000D0D0D082D07D
:042D650083D0E03205
:03004B00022B5233
:102B5200C0E0C0F0C083C082C0D075D000C000C049
:052B620004C006C007DD
:102B6700AFE553E1DF900000E0FCA3E02468F582C5
:102B770074003CF583EFF0900000E475F001122437
:102B870016FEC3E5F0942CEE94014007900000E494
:032B9700F0A3F0B8
:102B9A00D007D006D004D000D0D0D082D083D0F0D5
:032BAA00D0E03246
:03005300022D6912
:102D6900C0E0C083C082C0D075D000C00053E17FED
:102D79007834E660247837760A7839E6062495F5BA
:102D890082E43401F583E0F5E5E62495F582E4343F
:102D990001F583E070037834F6D000D0D0D082D02A
:042DA90083D0E032C1
:03006B00022E6DF5
:102E6D00C0E0C0F0C083C082C0D075D000C000C02B
:102E7D0001C002C003C004C005C006C007122AF578
:102E8D00D007D006D005D004D003D002D001D00099
:0B2E9D00D0D0D082D083D0F0D0E03243
:03008300022DF15A
:102DF100C0E0C0F0C083C082C0D075D000C000C0A8
:102E010001C002C003C004C005C006C0071222CB26
:102E1100122531D007D006D005D004D003D002D07E
:0E2E210001D000D0D0D082D083D0F0D0E032EB
:0300A300022CDF4D
:102CDF00C0E0C0D075D000C000C007B20430042DD2
:102CEF00780E06E6D3943B40247600780A06E6D3A6
:102CFF00943B40197600780F06E6D39417400E7672
:102D0F0000780BE625E0FFF6BF80027601D007D0F2
:062D1F0000D0D0D0E0322C
:08318300AF9FEFFEAD9EEDFFD2
:01318B002221
:0731A400759C80759D072258
:0F30E000EF540FFFE59C54F04FF59C439C4022AA
:08319C00E4F59AF599F59B2278
:102C4F009010027424F0A37480F090100874E7F0D1
:102C5F00A37403F0A374F3F0A37401F0A374F3F05F
:102C6F00A37401F0A374F3F0A37401F09010047433
:102C7F0010F0E4A3F0901010F0A3F0A3F090100761
:0A2C8F00F074244410901002F022AB
:0431B800438D202201
:0C316000758E01758DC0438D020231B8E0
:0D31460075B28875B45D43AA0243B2012240
:10309400901000748AF0A3744AF043AA10901000B0
:0530A400E04401F022F0
:1030BD0075DA0275D90643DAECE4F5DB75E30C43FA
:0330CD00A918221D
:10304E00201C1275EA0275E90643EAECE4F5EB750D
:08305E00F34D43A818D21C2217
:1030A900301C0EE4F5EAF5E9F5EAF5EBF5F353A87A
:0430B900E7C21C222C
:0D31530075968875890175898143AB04224A
:1030660090103874A8F075C80A758B09E58B30E79F
:08307600FB758A0143C8052225
:102BAD0075A177E4F5ACF591F5DEF58075B1987505
:102BBD00AD20F592F5DFF58875B9FFF5AE75930289
:102BCD00F59075C1FEF5AFF59875C9FE75A308F5BD
:102BDD0094F5A075D1FFF595F5B075D32075D21884
:102BED00F5D575D403F5D775D603F5EE75EF0A75E2
:032BFD00FF2D2287
:1022CB0090024CE014F070035398F790024BE0141B
:1022DB00F070035398EF90024AE014F07003539898
:1022EB00DF900247E014F0600302239B90024DE065
:1022FB00FF700A90024CF090024BF0805AEFB40141
:10230B0022900244E01313543F90024CF09002428F
:10231B00E01313543F90024BF0900241E01313541F
:10232B003F803490024DE0900244B40219E0C31395
:10233B0090024CF0900242E0C31390024BF09002DB
:10234B0041E0C3138011E090024CF0900242E09008
:10235B00024BF0900241E090024AF09001FBE0B496
:10236B00020AE58830E10543881080035388EF901B
:10237B00024CE0600343980890024BE060034398E3
:10238B001090024AE0600343982090023C7401F0E5
:01239B00221F
:1030D000900244EFF0900242EDF0900241EBF022BA
:1011AD00900245E004F0C39404500302147AE490D5
:1011BD000245F0A3E0FF705A900244E0C394FF5043
:1011CD0003E004F0900242E0D394004003E014F0F9
:1011DD00900241E0D394004003E014F0900244E00B
:1011ED00F4600302147A900242E0600302147A90D4
:1011FD000241E0600302147A90024875F001122456
:10120D0016FCD3E5F0941EEC9400500302147A0200
:10121D001414EF64017074900244E0C394FF500302
:10122D00E004F0900244E0D394FF4003E014F0900A
:10123D000242E0C394805003E004F0900242E0D3F8
:10124D0094804003E014F0900241E0D394004003F9
:10125D00E014F0900244E0F4600302147A9002422C
:10126D00E06480600302147A900241E0600302148E
:10127D007A90024875F001122416FED3E5F0941E03
:10128D00EE9400500302147A021414900246E0FF0B
:10129D006402705B900244E0C394FF5003E004F0DD
:1012AD00900242E0C394FF5003E004F0900241E04D
:1012BD00D394004003E014F0900244E0F460030284
:1012CD00147A900242E0F4600302147A900241E035
:1012DD00600302147A90024875F001122416FCD3B3
:1012ED00E5F0941EEC9400500302147A021414EFEE
:1012FD006403705A900244E0D394004003E014F06C
:10130D00900242E0C394FF5003E004F0900241E0EC
:10131D00D394004003E014F0900244E06003021403
:10132D007A900242E0F4600302147A900241E06088
:10133D000302147A90024875F001122416FED3E5CB
:10134D00F0941EEE9400500302147A0214149002CD
:10135D0046E0FF64047059900244E0D394004003CA
:10136D00E014F0900242E0D394004003E014F090BA
:10137D000241E0C394FF5003E004F0900244E060AA
:10138D000302147A900242E0600302147A90024143
:10139D00E0F4600302147A90024875F001122416ED
:1013AD00FCD3E5F0941EEC9400500302147A8057A0
:1013BD00EF64057060900244E0D394004003E014A4
:1013CD00F0900242E0C394FF5003E004F09002411C
:1013DD00E0C394FF5003E004F0900244E060030288
:1013ED00147A900242E0F4600302147A900241E014
:1013FD00F4707A90024875F001122416FED3E5F0D0
:10140D00941EEE94004066E4900248F0A3F0900222
:10141D0046E004F022900244E0C394FF5003E00440
:10142D00F0900242E0D394004003E014F0900241AA
:10143D00E0C394FF5003E004F0900244E0B4FF2DAC
:10144D00900242E07027900241E0B4FF20900248E4
:10145D00E475F001122416FED3E5F09432EE9400FB
:0E146D00400BE4900248F0A3F0900246F022FB
:1019900090023CE07003021B56E490023CF090027F
:1019A0003FE0FFB4091B7811666016E0F6E4900290
:1019B00046F0900244747FF0E4900242F0900241BD
:1019C000F09001FBE0600790023FE0FE7004E4FB52
:1019D0008051EEB401047BFF802190023FE0FEB411
:1019E0000205E4FBFD8016EEB40306E4FB7D808077
:1019F0000C90023FE0FEB40408E4FB7DFF7FFF8013
:101A000034EEB40507E4FB7DFFFF802990023FE040
:101A1000FEB406087BFF7DFFE4FF8019EEB40707E4
:101A20007BFFE4FDFF800E90023FE0FEB4080C7BDC
:101A3000FFE4FD7F801230D0021B2CEE640A6003AD
:101A4000021B22900243E0FFA3F0900240E0FE90D0
:101A50000242F090023EE0FD900241F0EFB4FF112F
:101A6000EEB4FF0DEDB4FF0990023F7401F0021BCC
:101A70002C900243E0B4FF13900240E0700D9002FE
:101A80003EE07007A37402F0021B2C900243E0FFBB
:101A9000B4FF14900240E0B4800D90023EE0700765
:101AA000A37403F0021B2CEFB4FF13900240E0B4C8
:101AB000FF0C90023EE07006A37404F0806E90026A
:101AC00043E07013900240E0B4FF0C90023EE070DF
:101AD00006A37405F08055900243E0FF7014900255
:101AE00040E0B4FF0D90023EE0B4FF06A37406F0A0
:101AF000803AEF7013900240E0700D90023EE0B427
:101B0000FF06A37407F08024900243E0B4801D9088
:101B10000240E0701790023EE0B4FF10A37408F09A
:101B2000800A90023FE0B409031211AD90023FE039
:101B3000FF701AEFB40A16900244E0900243F0904E
:101B40000242E0900240F0A3E090023EF090023F9B
:071B5000E060037811F622AA
:0F30EF0024242454696D652073796E630D0A00E3
:0B29BD0090028AEBF0A3EAF0A3E9F01F
:1029C8001231B87834E670F87838F67F649001955B
:1029D800E4F0A3DFFCE4FF90028AE0FBA3E0FAA3A3
:1029E800E0F912239CFE601974952FF582E43401F6
:1029F800F583EEF090028BE475F0011224160F8037
:102A0800D6E47839F6783476017837760A7839E674
:0D2A1800062495F582E43401F583E0F5E530
:012A2500228E
:10295100783AE660357838E6C3941440291231B8E4
:102961007834E670F8783A167838F608F6783476DE
:10297100017837760A7839E6062495F582E4340140
:10298100F583E0F5E5227838062230070FC2077893
:102991003A76037BFF7A3079EF0229BD900222E07B
:1029A10060199001FBE070047F0180027F00121D1D
:0C29B1000C900222E014F0783A7602222A
:10285600900002E0FEA3E0FF900000E06E7003A38C
:10286600E06F607A1231B87836760A900002E0FEA0
:10287600A3E0FF2468F58274003EF583E0FD18E6C8
:102886002404F582E43400F583EDF074682FF582B4
:1028960074003EF583E4F090000275F001122416F0
:1028A600FEC3E5F0942CEE94014007E4900002F09C
:1028B600A3F07835E6062404F582E43400F583E0D7
:1028C600640A708C7B017A0079041205297F649072
:0E28D6000004E4F0A3DFFCE47835F602285697
:0128E40022D1
:10307E00757064617465206661696C007570646159
:06308E007465206F6B0069
:0C316C0053E13F8FE5E5E154C060FA221A
:102E2F0090028DEBF0A3EAF0A3E9F0801690028DEB
:102E3F00E0FBA3E0FAA3E0F912239C6020E5E15444
:102E4F00C060EA53E13F90028DE0FBA3E475F0010F
:0E2E5F0012242CA9F0FA12239CF5E580D02253
:100D9500E4F58EF58D53ABFB53A8E753A9E753AAAA
:100DA500EF7817F6781AF608F67815F608F6900231
:100DB5005DF0A3F0A3F09002907400F0A37468F0C6
:100DC500E4900259F0A3F0900259E0FEA3E0FFC3BE
:100DD500942DEE94015020900290E0FCA3E02FF5B5
:100DE50082EC3EF583E4F090025AE004F070D8906E
:100DF5000259E004F080D0439808439810439820A6
:100E05007F4312316C7817E6B40800400302117D68
:100E1500900E1CF8282873020E34020EBC020F5CDB
:100E2500020FE50210790210DD02112102112912CB
:100E350031B8E5E130E534900290E0FEA3E0F582BB
:100E45008E83C083C082781A0806E618860670016C
:100E55000614D082D0832582F582E5833EF583E5AD
:100E6500E5F0E490025DF0A3F0A3F0900290E0FEBF
:100E7500A3E0F5828E83E0B46E25781DE618466002
:100E85000E7BFF7A30797E122E2FE47817F6227BBF
:100E9500FF7A30798A122E2F781776060211847818
:100EA5001BE66407700418E6640160030211847888
:100EB5001AF608F60211241231B8E4781AF608F683
:100EC500900290E0FEA3E0F5828E83E0F9A3E0FEB8
:100ED500900290E0FCA3E0F5828C83A3A3E0FDAC37
:100EE50006900290E0FAA3E0FBF5828A83A3A3A310
:100EF500E0FEEB2404F582E43AF583E0FBEBFFE941
:100F0500B4020EEFF4FFEEF4FEEF6D7002EE6C60CE
:100F150003020FDD7815E6FE08E6FFC3ED9FFFEC43
:100F25009EFEEF64014E6004EF4E7025AE04AF05E2
:100F35007815A60608A607E6FEE42400FFEE344071
:100F4500FE900260F0A3EFF0D394FFEE947F40048F
:100F550022020FDD0211241231B8E490025BF0A3E6
:100F6500F0FFFE900259F0A3F0900259E0FCA3E0D7
:100F7500FDC3EC94015034ED2405FDE43CFC9002E6
:100F850090E0FAA3E02DF582EA3CF583E0FD9002BE
:100F95005CE02DF090025BE03400F090025AE00432
:100FA500F070C6900259E004F080BE900290E0FC1B
:100FB500A3E0FD2405F582EC3401F583E0FEED2484
:100FC50006F582EC3401F583E0FDEDFF90025BE070
:100FD5006E7003A3E06F60057F1502111C021124DA
:100FE5001231B8900260E0FEA3E0FF900291E02488
:100FF50005FD900290E03400FAA9057B011227C295
:10100500900261E02440FF900260E03400FE90020F
:1010150091E02445FD900290E03400FAA9057B019A
:101025001227C2900261E02480FF900260E0340044
:10103500FE900291E02485FD900290E03400FAA92B
:10104500057B011227C2900261E024C0FF90026077
:10105500E03400FE900291E024C5FD900290E0345A
:1010650000FAA9057B011227C2781DE61618700142
:10107500160211241231B8E4900259F0A3F090023F
:1010850059E0FEA3E0FFC3EE9401504A900261E0EF
:101095002FFF900260E03EFE12319490025AE02448
:1010A50005FD900259E03400FC900290E0FAA3E0BF
:1010B5002DF582EA3CF583E06F600B7F1512316CEC
:1010C500E47817F6801090025AE004F070B09002B0
:1010D50059E004F080A880471231B8E4900259F035
:1010E500A3F0900259E0FEA3E0FFC3942DEE940116
:1010F5005023900290E0FCA3E02FF582EC3EF583AF
:10110500E4F01231B890025AE004F070D59002591B
:10111500E004F080CD7F9612316C805F1231B87893
:101125001706805B1231B8E4900259F0A3F09002E3
:1011350059E0FEA3E0FFC39440EE940050219002D5
:1011450090E0FCA3E02FF582EC3EF58374AAF090C5
:10115500025AE004F070D7900259E004F080CF9075
:101165000290E0FEA3E0AA06F97B017F007E04124F
:1011750027C21231B80200001231B8E47817F6120E
:1011850031B890025DE004F06003020E0AA3E004AA
:10119500F06003020E0AA3E004F0C39402500302B8
:0811A5000E0A120000020E0AFE
:0B317800000102030507090A0C0E0FFE
:0E312B00EF90317893FFC374169FFF0230358A
:10303500201915D219EF14782DF6E4782FF6783289
:09304500F653887F782C76C8222E
:102531002019030225E2783206E6C3782C9650036F
:102541000225E2E47832F6782FE6B4130040030264
:1025510025DA90255AF828287302259302259C0232
:1025610025A50225B90225A50225B90225A5022521
:10257100B90225A50225B90225A50225B90225A57D
:102581000225B90225A50225B90225A50225B90210
:1025910025D4438880782C76A0804353887F782C7B
:1025A1007614803A438880782DE630E70518761E48
:1025B100802C782C760A802653887F782DE6FF3090
:1025C100E70518760A8004782C761EEF25E0782D31
:1025D100F6800B782C76C8800553887FC219782F36
:0225E1000622D0
:101B57009001FBE064036003021CBF201A15783173
:101B6700F6900292E0F47833F67812E6F4782EF6DF
:101B7700E4A3F0D21A900293E014602114603514A4
:101B87006047240370465390EF783106E6D39419E3
:101B97005003021D0B5390FD439040801212304EAC
:101BA700439802783106E6D394325003021D0BE4C2
:101BB700F6021D05783106E6D394C85003021D0BC3
:101BC700900293E004F0E4F622021D057830E6FF68
:101BD7006039301903021D0BB417097BFF7A167998
:101BE7000E1229BD7830E6B41815900292E075F010
:101BF70018A4240EF9741635F0FA7BFF1229BD7864
:101C070030E6FF123035E47830F622900292E07821
:101C170033666048301903021D0BE0FFF6EF6003DF
:101C2700B4170ED21B783376177BFF7A16790E809E
:101C370019900292E0FFD394065012EF75F018A4A2
:101C4700240EF9741635F0FA7BFF1229BD7833E6B6
:101C5700FF123035900292E07833F6227912E77856
:101C67002E666010301903021D0B7812E6FF782EDE
:101C7700F602312BA201300801B35029783AE670F9
:101C870024A20192083001087BFF7A16790E801290
:101C9700900292E075F018A4240EF9741635F0FA44
:101CA7007BFF0229BD201B082001057812E670047E
:101CB7005390EF2243901022301A05E4900293F0DC
:101CC700C21A900293E014601214601F14602C244F
:101CD7000370312017035390EF8023783106E6D342
:101CE70094144020E4F64398028013783AE670147F
:101CF7007BFF7A16790E1229BD8003201706900202
:051D070093E004F0224E
:10147B005475726E206F6E20756E697400547572A0
:10148B006E206F6E204C6967687472004368616EE2
:10149B006765206C6967687420636F6C6F720055A9
:1014AB0073657220636F6C6F720053656C65637448
:1014BB0020536F756E642066696C65006D7573697A
:1014CB006320706C61790050726F506C61790D0AFA
:1014DB0000564552302E0D0A005645520D0A002477
:1014EB002424564552302E34350D0A004770537460
:1014FB0061007B54696D6553796E63005475726E30
:10150B00206F666620756E6974005475726E206F5D
:10151B006E204254006D757369632070617573653D
:10152B00007B4D757369635374617475730041640B
:10153B006A757374204F757470757420566F6C7563
:10154B006D6500766F6C756D6520757000766F6CD0
:10155B00756D6520646F776E006D75736963206DB3
:10156B00757465006D7573696320756E6D75746543
:10157B00005365742054696D6572005475726E204A
:10158B006F66662054696D6572005475726E206FBC
:10159B006666204C6967687472006C6967687420B2
:1015AB007570006C6967687420646F776E004164B6
:1015BB006A757374204C6967687420427269676836
:1015CB00746E657373004E6F7247705374610D0ABE
:1015DB00002075706461746500415457510D0A0009
:1015EB00456E74657220546573744D6F64653A0073
:1015FB007B4E6F7247705374610001010204081037
:10160B002040802424247B4D75736963537461746B
:10161B0075733A5B30375D7D0D0A002424247B4DB6
:10162B00757369635374617475733A5B30315D7DA7
:10163B000D0A002424247B4D757369635374617404
:10164B0075733A5B30325D7D0D0A002424247B4D8B
:10165B00757369635374617475733A5B30335D7D75
:10166B000D0A002424247B4D7573696353746174D4
:10167B0075733A5B30345D7D0D0A002424247B4D59
:10168B00757369635374617475733A5B30355D7D43
:10169B000D0A002424247B4D7573696353746174A4
:1016AB0075733A5B30365D7D0D0A002424247B472D
:1016BB00705374613A5B30302C30302C30302C301E
:1016CB00302C3030303030302C30302C30302C301F
:1016DB00302C30305D7D0D0A002424247B4E6F723C
:1016EB0047705374613A5B30302C30302C30302CD7
:1016FB0030302C3030303030302C30302C30302CEF
:10170B0030302C30305D7D0D0A002424247B4E6F4D
:10171B007247705374613A5B30302C30302C303060
:10172B002C30302C3030303030302C30302C3030BE
:0B173B002C30302C30305D7D0D0A009A
:102A8E0090028074FFF0A37414F074E4A3F090022B
:092A9E007AE0FBA3E0FAA3E0F9E1
:102AA70090027DEBF0A3EAF0A3E9F0900280E0FB4F
:102AB700A3E0FAA3E0F912239CFF602F90027DE0C8
:102AC700FBA3E0FAA3E0F912239CB507056003EF27
:102AD70070037F012290027EE475F00112241690A4
:0E2AE7000281E475F00112241680C07F0022E7
:102DAD0090027AE0FBA3E0FAA3E0F990000B122366
:092DBD00B590000CFF1223B5FDD6
:102DC600C3EF648094C14006EF24C9FF800474D029
:102DD6002FFFC3ED648094C14006ED24C9FD800435
:0B2DE60074D02DFDEFC454F04DFF220F
:052F1400FF1223B5FDD2
:102F1900C3EF648094C14006EF24C9FF800474D0D4
:102F29002FFFC3ED648094C14006ED24C9FD8004E0
:0C2F390074D02DFDEF75F00AA42DFF22CE
:1021F60012229C900276E0FBA3E0FAA3E0241AF9EF
:10220600E43AFA900243E0FD12229C900276E0FB4B
:10221600A3E0FAA3E0241CF9E43AFA900240E0FDB8
:1022260012229C900276E0FBA3E0FAA3E0241EF9BA
:10223600E43AFA90023EE0FD12229C900276E0FB20
:10224600A3E0FAA3E02421F9E43AFA90024DE0FD76
:1022560012229C900276E0FBA3E0FAA3E02424F984
:10226600E43AFA7812E6FD12229C900276E0FBA38D
:10227600E0FAA3E02427F9E43AFAA21BE433FD12BC
:10228600229C900276E0FBA3E0FAA3E0242AF9E47C
:062296003AFA780CE6FDA7
:10229C00EDC4540FFFC3940AEF400424378002248A
:1022AC00301223E2740129F9E43AFAED540FFFC31A
:0E22BC00940AEF40042437800224301223E2FB
:0122CA0022F1
:102EDF009001FB7401F0780DE6B403047F038002C8
:102EEF007F019001FBEFF07809E67812F67811E692
:102EFF0090023FF0EF70047F0180027F00121D0CE3
:052F0F00783A76032270
:103017009001FB7401F07809E67812F674017004E8
:0E3027007F0180027F00121D0C783A76032292
:102F45009001FBE0780DF6E4F07812E67809F6904A
:102F5500023FE07811F6E4F0780CF69001FAF07093
:0F2F6500047F0180027F00121D0C783A76032250
:051D0C0090026DEFF0F4
:101D11001231B87834E670F87838F67F649001951E
:101D2100E4F0A3DFFCE4FFEFFD3395E0FC74B62D96
:101D3100F58274163CF583E493FE74952DF5827457
:101D4100013CF583EEF00FEFB429DC0FC3EF6480A3
:101D510094D240D17B017A0179A090026DE0FD120D
:101D6100229C7A0179A39001FBE0B40308900292CE
:101D7100E0FFFD80027D0712229C7B017A0179A69A
:101D810090023FE07003FD80027D0112229C7B01E5
:101D91007A0179A990023FE0B409047D0180027DB6
:101DA1000012229C7B017A0179AC900243E0FD1282
:101DB100229C7A0179AE900240E0FD12229C7A01C8
:101DC10079B090023EE0FD12229C7A0179B3900233
:101DD1004DE0FD12229C7A0179B67812E6FD1222BD
:101DE1009C7A0179B9A21BE433FD12229C7A017914
:101DF100BC122298783A7602E47839F67834760182
:101E01007837760A7839E6062495F582E43401F5C7
:0D1E110083E0F5E5900222E070037402F01A
:011E1E0022A1
:0B052900900276EBF0A3EAF0A3E9F0EB
:100534002403F9E43AFA90027AEBF0A3EAF0A3E98F
:10054400F090028074FFF0A37414F0A3747BF01293
:100554002AA7EF701A900276E0FBA3E0FAA3E0F971
:100564001229BD9001FBE060030207FF022EDF9019
:10057400028074FFF0A37414F07488122A9AEF7046
:1005840031900276E0FBA3E0FAA3E0F91229BD90D2
:1005940001FBE070031230177811E690023FF0700F
:1005A4000204F090024DE0FF70057F010206810213
:1005B400068190028074FFF0A37414F0A374971260
:1005C4002A9BEF703C900276E0FBA3E0FAA3E0F9EB
:1005D4001229BD9001FBE0700312301790023F74A2
:1005E40009F0E4900246F0900244F0900242F09048
:1005F4000241F090024DE0FF70047F01800002068A
:100604008190028074FFF0A37414F0A374AA122AD8
:100614009BEF706F900276E0FBA3E0FAA3E0F9127F
:1006240029BD9001FBE07003123017122DAD90022A
:1006340043EFF090027AE0FBA3E0FAA3E0F9900024
:100644000D1223B590000E122DC1900240EFF090D0
:10065400027AE0FBA3E0FAA3E0F990000F1223B5BD
:10066400FF900010122DC290023EEFF090023F74F2
:100674000AF090024DE0FF70047F01800090024D6B
:10068400EFF02290028074FFF0A37414F0A374B509
:10069400122A9BEF705C900276E0FBA3E0FAA3E0E1
:1006A400F91229BD9001FBE07003123017C201C298
:1006B4001B9001FB7403F090027AE0FBA3E0FAA321
:1006C400E0F990001A1223B524D0FF900292F0783A
:1006D40033E6B5070478307618783A7601900292BA
:1006E400E075F018A4240EF9741635F0FA7BFF02B5
:1006F4000D9190028074FFF0A37414F0A374C712D8
:100704002A9BEF70219001FBE070031230179001D7
:10071400FB7403F0C201C21B900292E0700304F068
:1007240022783076182290028074FFF0A37414F0BB
:10073400A374D2122A9BEF60030207C1900276E0F1
:10074400FBA3E0FAA3E0F91229BD9001FBE07003DA
:100754001230179001FCE0900292F09001FDE090BD
:10076400023FF09001FEE0900243F09001FFE09020
:100774000240F0900200E090023EF0900201E0900E
:10078400024DF0900202E07812F6A3E09001FBF033
:10079400900204E024FF921B201B03C38001D39228
:1007A40001E433900205F0201B047F1880027F17B8
:1007B4007830A607900206E09001FAF022900280B9
:1007C40074FFF0A37414F0A374DC122A9BEF70017D
:1007D40022122A8EEF70097BFF7A1479EA020D91B6
:1007E40090028074FFF0A37414F0A374F7122A9B90
:1007F400EF7008783AF6900222F0229001FBE07044
:1008040003020C9E90028074FFF0A37414F0A3748E
:10081400FD122A9BEF706753ABFB122DAD780FA628
:100824000790027AE0FBA3E0FAA3E0F990000E122D
:1008340023B5FF90000F122DC2780AA60790027A02
:10084400E0FBA3E0FAA3E0F99000111223B5FF90B6
:100854000012122DC2780EA60790027AE0FBA3E0E4
:10086400FAA3E0F990001E1223B524D0780BF6E623
:1008740090160593F643AB04E4900221F022900213
:100884008074FFF0A37415F0A37407122A9BEF7011
:1008940015900276E0FBA3E0FAA3E0F91229BD78F3
:1008A4003A7603022F4590028074FFF0A37415F08A
:1008B400A37415122A9BEF70099001FB7402F002D5
:1008C4000C9090028074FFF0A37415F0A3742012AE
:1008D4002A9BEF70129001FBE064036003020D9405
:1008E400D21B783076172290028074FFF0A374151F
:1008F400F0A3742C122A9BEF70012290028074FFE3
:10090400F0A37415F0A37439122A9BEF70199002A6
:100914007AE0FBA3E0FAA3E0F99000141223B59067
:100924000015122F14806490028074FFF0A37415D4
:10093400F0A3744E122A9BEF70207812E6FFC39442
:100944000A5013EF94085007E62402FFF680097852
:100954001206E6FF80027F0A803190028074FFF065
:10096400A37415F0A37458122A9BEF70277812E62B
:10097400FFD394014013EF94034007E624FEFFF6EF
:100984008009781216E6FF80027F017812A607C25A
:1009940001020C9090028074FFF0A37415F0A3740C
:1009A40064122A9BEF7003D2012290028074FFF03C
:1009B400A37415F0A3746F122A9BEF7003C2012273
:1009C40090028074FFF0A37415F0A3747C122A9B28
:1009D400EF701C90027AE0FBA3E0FAA3E0F9900028
:1009E4000A1223B590000B122F14780CEF80159087
:1009F400028074FFF0A37415F0A37486122A9BEF8F
:100A0400700A780CF69001FAF0020C90900280744F
:100A1400FFF0A37415F0A37495122A9BEF7007904E
:100A2400023FF0020C9090028074FFF0A37415F062
:100A3400A374A5122A9BEF701290024DE0C3940395
:100A44004003020C90E004F0020C9090028074FFCA
:100A5400F0A37415F0A374AE122A9BEF70129002E7
:100A64004DE0D394005003020C90E014F0020C907B
:100A740090028074FFF0A37415F0A374B9122A9B3A
:100A8400EF702090027AE0FBA3E0FAA3E0F9900073
:100A9400181223B5FF900019122F1590024DEFF094
:100AA400020C9090028074FFF0A37415F0A374D12B
:090AB400122A9BEF6003020B9271
:100ABD00900279F0900279E0FFC39464501C90028B
:100ACD0076E0FBA3E0FAA3E0F98F82758300E412D0
:100ADD0023F4900279E004F080DAE4900279F0904A
:100AED000279E0FF9016E493FE900276E0FBA3E01E
:100AFD00FAA3E0F98F82758300EE1223F490027948
:100B0D00E004F0E0B430D8900276E0FBA3E0FAA365
:100B1D00E0240EF9E43AFA7D0112229C900276E06F
:100B2D00FBA3E0FAA3E02411F9E43AFA9001FBE00B
:100B3D00B40308900292E0FFFD80027D0712229C13
:100B4D00900276E0FBA3E0FAA3E02414F9E43AFA6C
:100B5D0090023FE07003FD80027D0112229C900205
:100B6D0076E0FBA3E0FAA3E02417F9E43AFA900249
:100B7D003FE0B409047D0080027D011221F6783A30
:020B8D007602EE
:100B8F00020C9090028074FFF0A37415F0A374DC34
:100B9F00122A9BEF6003020C4090027AE0FBA3E065
:100BAF00FAA3E0F990000A1223B5FF90000B122D63
:100BBF00C2EF7F00FEC007C00690027AE0FBA3E001
:100BCF00FAA3E0F990000C1223B5FF90000D122D3F
:100BDF00C2EFFD3395E0FCD0E04C7818F6D0E04D35
:100BEF0008F690027AE0FBA3E0FAA3E0F990001177
:100BFF001223B5FF900012122DC2EF7F00FEC00727
:100C0F00C00690027AE0FBA3E0FAA3E0F99000138C
:100C1F001223B5FF900014122DC2EFFD3395E0FCA7
:100C2F00D0E04C781CF6D0E04D08F6120D95020C72
:100C3F009090028074FFF0A37415F0A374E4122A4D
:100C4F009BEF7004783AF622122A8EEF70097BFF21
:100C5F007A1479EA020D9190028074FFF0A3741553
:100C6F00F0A374EB122A9BEF7017783AF690021DDF
:100C7F00F090021FF0D2059001FB04F07F0A022FC3
:100C8F0074900276E0FBA3E0FAA3E0F9020D9190D5
:100C9F00028074FFF0A37415F0A374FB122A9BEF6C
:050CAF006003020D8648
:100CB400900279F0900279E0FFC39464501C900292
:100CC40076E0FBA3E0FAA3E0F98F82758300E412D7
:100CD40023F4900279E004F080DAE4900279F09051
:100CE4000279E0FF90171593FE900276E0FBA3E0F3
:100CF400FAA3E0F98F82758300EE1223F49002794F
:100D0400E004F0E0B430D8900276E0FBA3E0FAA36C
:100D1400E0240EF9E43AFAE4FD12229C900276E013
:100D2400FBA3E0FAA3E02411F9E43AFA9001FBE012
:100D3400B40308900292E0FFFD80027D0712229C1A
:100D4400900276E0FBA3E0FAA3E02414F9E43AFA73
:100D540090023FE07003FD80027D0112229C90020C
:100D640076E0FBA3E0FAA3E02417F9E43AFA900250
:100D74003FE0B409047D0080027D011221F6783A37
:020D84007602F5
:0E0D8600900276E0FBA3E0FAA3E0F91229BD8B
:010D9400223C
:0F30FE0024242454696D652073796E630D0A00D4
:0431AD0041022200B9
:102AF500D2097813E6FF7002D20CEFB40102D20DB1
:102B0500EFB40202D20EEFB40302D20FEFB4040207
:102B1500D210EFB40502D211EF640670247837168F
:102B2500E670037834F6783616E670037835F6786D
:102B35002616E670037824F6782516E670037827BE
:0D2B4500F6781306E6C3940A4002E4F62277
:10272900780EE6FF78146670030227C1A6079002A7
:1027390021E0B40121900220E004F0E0C3940A40B2
:1027490015E4F0783A76037BFF7A3079FE1229BDD9
:102759009002217402F0780AE6FF7810666059A6A3
:1027690007780CE6601A16E67016122F45783A7645
:10277900039001FBE070047F0180027F00121D0CB1
:10278900900221E0B40210900220E004F0E0C3942A
:10279900024004E4F0D207780FE6FF780866601873
:1027A900A60790021EE004F0E0C39418400AE4F082
:0827B9009002217402F0D20726
:0127C10022F5
:0F310D00901002E04430F0901004E04420F022D3
:0F311C00901002E054CFF0901004E0549FF02286
:1026A900020500E493A3F8E493A34003F68001F242
:1026B90008DFF48029E493A3F85407240CC8C33332
:1026C900C4540F4420C8834004F456800146F6DF01
:1026D900E4800B01020408102040809031ABE47EB5
:1026E900019360BCA3FF543F30E509541FFEE493F6
:1026F900A360010ECF54C025E060A840B8E493A3BD
:10270900FAE493A3F8E493A3C8C582C8CAC583CAE7
:10271900F0A3C8C582C8CAC583CADFE9DEE780BE9F
:0131B100001D
:10239C00BB010689828A83E0225002E722BBFE023F
:0923AC00E32289828A83E4932272
:1023B500BB010CE58229F582E5833AF583E02250DD
:1023C50006E92582F8E622BBFE06E92582F8E22227
:0D23D500E58229F582E5833AF583E4932241
:1023E200BB010689828A83F0225002F722BBFE01DA
:0223F200F322D4
:1023F400F8BB010DE58229F582E5833AF583E8F01F
:10240400225006E92582C8F622BBFE05E92582C8CA
:02241400F222B2
:10241600C5F0F8A3E028F0C5F0F8E5821582700251
:062426001583E038F022EE
:10242C00A3F8E0C5F025F0F0E58215827002158363
:06243C00E0C838F0E822C0
:10244200D083D082F8E4937012740193700DA3A329
:1024520093F8740193F5828883E47374029368603D
:06246200EFA3A3A380DF3D
:00000001FF
