:030000000226AF26
:1026AF0078FFE4F6D8FD9000007F007E03E4F0A3EE
:0A26BF00DFFCDEFA75813A0201002B
:10213100300B3D90021CE004F0C3940C400FE4F01E
:1021410090021EE004F0D394184002C20B90021ECC
:10215100E0FF30E00543801080035380EFEF30E073
:102161000543802080035380DFEF30E051022208D5
:1021710030052590021CE004F0C394324012E4F0D3
:1021810090021EE004F0D394064005C2051200003F
:10219100438010438020806F30002590021CE004B2
:1021A100F0C3940C400FE4F090021EE004F0D394CD
:1021B100104002C20090021EE030E00280498051CE
:1021C1009001FAE0D39401501890023EE07012534E
:1021D10080EF5380DF5380BFE4780CF69001F9F073
:1021E100229001F9E0FFB40F084380105380DF8093
:1021F10020EFB41E085380EF4380208014EFB43CDD
:102201000A5380EF5380DF438040225380EF538095
:05221100DF5380BF2235
:103010007812760290024C7401F09001FAF0D2011D
:103020005390EF783A7603E070047F0180027F00CE
:0A303000121D359002207401F022F9
:10303A00123010300902C209300C02C20C300D05E0
:10304A00C20D123157300E02C20E300F02C20F30BB
:09305A001002C21012323180DABA
:1001000090026E7400F0A37468F0A37480F0A3E40E
:10011000F090026DF090026DE0FFC394405019A37F
:10012000E0FCA3E02FF582E43CF583E4F0438D206E
:1001300090026DE004F080DD9002747404F0A3E49A
:10014000F090026DF090026DE0FFC3944050349047
:100150000274E0FCA3E0F5828C83E493FE90026ECF
:10016000E0FCA3E02FF582E43CF583EEF09002750D
:10017000E004F07006900274E004F090026DE00478
:10018000F080C290026EE0FEA3E0FFF5828E83E075
:1001900064AA600302037BA3A3E064AA60030203D2
:1001A0007B90026EA3E02404F582E43EF583E064D4
:1001B000AA600302037BEF2406F582E43EF583E0A8
:1001C00064AA600302037B53A87F900272F0A3F03D
:1001D000A37440020374438D20900272E0FEA3E0FA
:1001E000FDAC06E490026DF090026DE0F9C394401E
:1001F0004003020273900272E0FEA3E0FFC3EE949C
:10020000004009D3EF9400EE9404400FC3EE940530
:100210004045D3EF94FFEE943F503C900274E0FED3
:10022000A3E0F5828E83E493FF90026EE0FAA3E0F0
:1002300029F582E43AF583EFF0900275E004F0705E
:1002400006900274E004F0900273E004F0701B90DA
:100250000272E004F0801390026DE0FFA3E0FAA3C5
:10026000E02FF582E43AF583E4F090026DE004F0CB
:100270000201E875FE0100000000E490026DF090BC
:10028000026DE0FFC39440501B900270E0FAA3E0BF
:100290002FF582E43AF583E4F0438D2090026DE07F
:1002A00004F080DBE4F5FAECF5FB8DFC75FDA500B0
:1002B00000000075FE0200000000E4F5FDF5FEF50B
:1002C000FA75FB05F5FC75FE010000000090026D5B
:1002D000F090026DE0F9A3E0FEA3E029F582E43E90
:1002E000F583E0FF900270E0FAA3E029F582E43A9A
:1002F000F583EFF090026DE004F0E0B440D3E4F554
:10030000FAECF5FBAF058FFC75FDA500000000754C
:10031000FE0300000000E4F5FDF5FEF5FA75FB05AF
:10032000F5FC900272E0FEA3E0FFC3EE9404400FE0
:10033000D3EF9400EE94055006438D2012000090F8
:100340000272E0FEA3E0B40014EEB4011090027259
:100350007405F0A3E4F0A37445F0A3E4F0900272F6
:10036000E0FEA3E0C394FFEE943F50030201D69059
:1003700002727404F0A3E4F00201D612050043A84F
:0103800080FC
:010381002259
:10203D0020202020200D0A0041542B4D540D0A0064
:10204D0041542B4D410D0A0041542B4D450D0A00B5
:10205D0041542B4D440D0A0041542B43410D0A00B0
:10206D0041542B43420D0A0041542B43430D0A00AA
:10207D0041542B43500D0A0041542B43440D0A008B
:10208D0041542B435A0D0A0041542B48300D0A0080
:10209D0041542B48310D0A0041542B48320D0A0092
:1020AD0041542B48330D0A0041542B48340D0A007E
:1020BD0041542B48350D0A0041542B48360D0A006A
:1020CD0041542B48370D0A0041542B48380D0A0056
:1020DD0041542B48390D0A0041542B48410D0A003B
:1020ED0041542B48420D0A0041542B48430D0A0020
:1020FD0041542B48440D0A0041542B48450D0A000C
:10210D0041542B48460D0A00000102030607090A37
:10211D000C0E0F0001020304040405060607070850
:04212D0008090A0A89
:102D0A007824E670FB7F08900223E4F0A3DFFCE45A
:102D1A00FF1223BCFE601674232FF582E43402F5F9
:102D2A0083EEF0740129F9E43AFA0F80E4E4782892
:102D3A00F6782476017828E6062423F582E434021C
:052D4A00F583E0F5F542
:012D4F002261
:102FE500EFC3940B500CEF75F008A4243DF9742041
:102FF50080107812E69021159375F008A42495F9B0
:0A300500742035F0FA7BFF122D0A4B
:01300F00229E
:101F410020140620150302203C301412C214900202
:101F5100877401F0A37402F0A3742BF08010C215F2
:101F61009002877401F0A37402F0A37433F090021D
:101F710087E0FBA3E0FAA3E0F91223BCFFB4491FF9
:101F81009000011223D5FEB44902D217EEB44102EA
:101F9100C217EE64586003022021C217022021EF0C
:101FA100B44D1C9000011223D5FFB44102C218EFB9
:101FB1006442706CD2187812E6F47829F6806112C6
:101FC10023BCFFB44F129000011223D56446705018
:101FD1009001FAE064028048EF644870439001FA8E
:051FE100E06402703B0A
:101FE6009000011223D5FFD3648094B94005EF24F5
:101FF600C98013900287E0FBA3E0FAA3E0F9900002
:10200600011223D524D07812F67812E6D3940F4025
:0B20160002760F7812E690212093F66E
:10202100E4FF900287E0FBA3E0FAA3E0F98F827559
:0B2031008300E41224140FEFB408E752
:01203C002281
:10248800121F419001FAE064026003022513201331
:1024980013782BF6C217C2187812E6F47829F6E4F6
:1024A800900222F0D213900222E014601514601AF0
:1024B800146019146018240470195390EF439002A3
:1024C800806F1231205390BF80678065806712301B
:1024D800DD80657812E6FF7829666009A6077F0B1C
:1024E800122FE5800D782AE6FF6007122FE5E478C1
:1024F8002AF6E58830E210782BE6D39405400443A9
:10250800901022782B06225390EF22301308E4789B
:102518002BF6900222F0C213900222E014601214EB
:1025280060111460101460172404701C5390EF801D
:102538000780058003439040900222E004F0229037
:092548000222E004F05390FD2290
:0D31A200E4F5FDF5FEF5FA75FB40F5FC22A5
:0332350002000094
:10306300E4FE7DA2EF600E74832EF582E43402F554
:1030730083EDF0800C74832EF582E43402F583E44F
:07308300F00D0EEEB404DDB8
:01308A002223
:0831F50075FE0100000000223C
:102F1900AD07AC06E4F5FAECF5FBAF058FFC75FDE2
:102F2900A5900283E064A27018A3E0B4A313A3E000
:102F3900B4A40EA3E0B4A50975FE03000000008047
:072F4900031232350231A230
:102C2300AD07AC067F007E801231F5E4FBEF2BF598
:102C330082E43EF583E4F00BEBB440F1E4F5FAEC07
:102C4300F5FBAF058FFC75FDA5900283E064A270D0
:102C530018A3E0B4A313A3E0B4A40EA3E0B4A5099E
:0F2C630075FE020000000080031232350231A21C
:0B27E200900264EBF0A3EAF0A3E9F022
:1027ED00E4900268F0A37480F0A3E4F0A3EEF0A3EC
:1027FD00EFF053A87F7F0112306390026BE0FEA3D0
:10280D00E0FF122C231231F5E4900267F090026480
:10281D00E0FBA3E0FAA3E0F9900268E0FF04F08F7B
:10282D00827583001223D5FF900267E0FE90026946
:10283D00E0FCA3E02EF582E43CF583EFF090026717
:10284D00E004F0E0B440C690026BE0FEA3E0FF129E
:10285D002F19E4FF12306390026CE02440F09002D7
:08286D006BE03400F043A88089
:012875002240
:0731FD008F828E83E493FF33
:0132040022A7
:10290500242424415457510D0A002424244661638C
:10291500746F72792073657474696E670D0A00248B
:102925002424576966692072657365740D0A00244D
:102935002424456E74657220546573744D6F646507
:102945003A302E34350D0A00000004C90601085E30
:102955000A980BD40D4D0DF40EE50050056906A13E
:0C29650008FE0B380C740DED0E940EE50E
:10260300E4900294F01231EC90024FEEF0A3EFF05D
:10261300C394A0EE940F504AE4FFEF25E0244DF558
:1026230082E43429F583E493FC740193FD90024F13
:10263300E0FAA3E0FBC39DEA9C4022EF25E0245F80
:10264300F582E43429F583E493FC740193FDD3EB21
:102653009DEA9C5008EF04900294F080050FEFB4BC
:1026630009B87F05123167900294E0FFB4040AE5CC
:102673008820E5057409F0802DEFB4010DE588206D
:10268300E508900294740AF0801CEFB4020DE5880B
:1026930020E508900294740BF0800BE58820E50692
:0B26A3009002947403F0900294E0FF9A
:0126AE002209
:101E3F00E490024DF0900257E0FE6F600EA3E06F4A
:101E4F006003EFF022900257EFF022900255E0FF6F
:101E5F006E6003021EECEF7003021F40900251E010
:101E6F007003021F40900251E014F06003021F4004
:101E7F00900255E0900253F090024EE070059002F0
:101E8F004D04F0900254E014602114603214602F5E
:101E9F0024036003021F409002547401F090025318
:101EAF00E04420F09002517432F0229002547402F8
:101EBF00F0900253E04460F09002517414F02290BD
:101ECF0002547403F0900253E04480F09002517476
:101EDF0014F0A3E0C394FA5058E004F02290025596
:101EEF00E06037900253F090024EE0700590024D83
:101EFF0004F0900254E024FE601014600F2402706E
:101F0F0012900253E04440F080098000900253E0A9
:101F1F0044C0F0E4900254F08009E490024EF09037
:101F2F000252F09002517405F0900257E090025562
:021F3F00F0228E
:06322B00122603021E3F03
:1017490090024DE070030219B8900253E01224622E
:1017590017934117D642183D43185444186C45183D
:10176900B446190B4719284818216218F166191847
:101779006717AF81183D83185484195289197B8AD8
:1017890019998B1793C1000019B8900252E0C394BC
:101799001940030219B8783A76059001FAE0600316
:1017A900022FB6022F509001FAE06018900252E021
:1017B900641960030219B8783A76057BFF7A2979AA
:1017C900050219B59001FAE070030219B89001FAFF
:1017D900E0FF64016004EFB40216C201C21B90016C
:1017E900FA7403F0900292E060030219B804F0223F
:1017F9009001FAE0640360030219B8C201301B04C6
:10180900C21B8026C21B900292E004F0D3940650BA
:10181900030219B87401F0229001FAE0640360032D
:101829000219B8B21B201B07C2017830761822783A
:10183900307617229001FAE0D3940150030219B8C7
:101849007812E6940A500106C201229001FAE0D307
:10185900940150030219B87812E6D3940140011695
:10186900C201229001FAE0D39401500990023EE0AE
:1018790070030219B89001F9E0FF7008780C760F2F
:10188900740FF022EFB40F0B780C761E9001F974E7
:101899001EF022EFB41E0B780C763C9001F9743CD3
:1018A900F022E4780CF69001F9F02290023EE0B4BF
:1018B9000A02801590024CE0700404F0800E900238
:1018C9003EE004F0D3940940037401F090023EE035
:1018D900640960030219B8900245F0900243F09040
:1018E9000241F0900240F02290023EE0700302199A
:1018F900B890024CE004F0D3940350030219B8E401
:10190900F0229001FAE0640270030219B880219074
:1019190001FAE0640260030219B8782A7605229078
:101929000256E0FF700304F022EFB401079002565B
:101939007402F022EFB402079002567403F022EF0A
:101949006403706B900256F022900252E064327088
:101959005E90021CF090021EF0D2059001FA04F08C
:10196900783A76057BFF7A29790F122A497F0A028C
:101979002FE5900252E064327035D20B90021CF0D0
:1019890090021EF0783A76057BFF7A297924801C2B
:10199900900252E0B41918D200E490021CF09002AF
:1019A9001EF0783A76037BFF7A297934122A492284
:02322400C11CCB
:1005000053A87F122BD11230A912321D12320512BC
:1005100031AF12310B122C721231341231BC123144
:0C052000C943A88012303A12010080D4B8
:03001B0002297146
:0F297100C0E0C083C082C0D075D000C000C007D6
:10298000AFF553F1DF7825760A3012237827E6C3B6
:102990009408500DE606242BF582E43402F583EF0B
:1029A000F0EF640A702A7827F6D214B212802178E8
:1029B00027E6C39408500DE6062433F582E434027A
:1029C000F583EFF0EFB40A0878277600D215B2123B
:0D29D000D007D000D0D0D082D083D0E0322C
:03002300022D9615
:102D9600C0E0C083C082C0D075D000C00053F17FB0
:102DA6007824E660247826760A7828E6062423F531
:102DB60082E43402F583E0F5F5E62423F582E43473
:102DC60002F583E070037824F6D000D0D0D082D00C
:042DD60083D0E03294
:03004B00022B760F
:102B7600C0E0C0F0C083C082C0D075D000C000C025
:052B860004C006C007B9
:102B8B00AFE553E1DF900000E0FCA3E02468F582A1
:102B9B0074003CF583EFF0900000E475F001122413
:102BAB0036FEC3E5F0942CEE94014007900000E450
:032BBB00F0A3F094
:102BBE00D007D006D004D000D0D0D082D083D0F0B1
:032BCE00D0E03222
:03005300022DDAA1
:102DDA00C0E0C083C082C0D075D000C00053E17F7C
:102DEA007834E660247837760A7839E6062495F549
:102DFA0082E43401F583E0F5E5E62495F582E434CE
:102E0A0001F583E070037834F6D000D0D0D082D0B8
:042E1A0083D0E0324F
:03006B00022EDE84
:102EDE00C0E0C0F0C083C082C0D075D000C000C0BA
:102EEE0001C002C003C004C005C006C007122B19E2
:102EFE00D007D006D005D004D003D002D001D00028
:0B2F0E00D0D0D082D083D0F0D0E032D1
:03008300022E62E8
:102E6200C0E0C0F0C083C082C0D075D000C000C036
:102E720001C002C003C004C005C006C0071222EB95
:102E8200122551D007D006D005D004D003D002D0ED
:0E2E920001D000D0D0D082D083D0F0D0E0327A
:03008B00022CC084
:102CC000C0E0C083C082C0D075D000C0079010069D
:102CD000E030E703547FF0901006E030E60354BF85
:102CE000F0901006E030E50354DFF0901006E0307D
:102CF000E40354EFF0901006E030E30354F7F0D013
:0A2D000007D0D0D082D083D0E0329B
:0300A300022D50DB
:102D5000C0E0C0D075D000C000C007B20430042D60
:102D6000780E06E6D3943B40247600780A06E6D334
:102D7000943B40197600780F06E6D39417400E7600
:102D800000780BE625E0FFF6BF80027601D007D081
:062D900000D0D0D0E032BB
:0831EC00AF9FEFFEAD9EEDFF69
:0131F40022B8
:07321D00759C80759D0722DE
:0F316700EF540FFFE59C54F04FF59C439C402222
:08320500E4F59AF599F59B220E
:102C72009010027424F0A37488F090100874E7F0A6
:102C8200A37403F0A374F3F0A37401F0A374F3F03C
:102C9200A37401F0A374F3F0A37401F09010047410
:102CA20020F0E4A3F0901010F0A3F0A3F09010072E
:0E2CB2007490F043AA20901002E04410F0222B
:04323100438D202287
:0C31C900758E01758DC0438D02023231FD
:0D31AF0075B28875B45D43AA0243B20122D7
:10310B00901000748AF0A3744AF043AA1090100038
:05311B00E04401F02278
:1031340075DA0275D90643DAECE4F5DB75E30C4382
:03314400A91822A5
:1030DD00201C1275EA0275E90643EAECE4F5EB757E
:0830ED00F34D43A818D21C2288
:10312000301C0EE4F5EAF5E9F5EAF5EBF5F353A802
:04313000E7C21C22B4
:0D31BC0075968875890175898143AB0422E1
:1030A90090103874A8F075C80A758B09E58B30E75C
:0B30B900FB758A0143C80543A8802274
:102BD10075A17FE4F5ACF591F5DEF58075B19875D9
:102BE100AD20F592F5DFF58875B9FFF5AE75930265
:102BF100F59075C1FEF5AFF59875C9FA75A308F59D
:102C010094F5A075D1FFF595F5B0F5D375D21EF504
:102C1100D575D403F5D775D603F5EE75EF0A75FFB3
:022C21002D2262
:1022EB0090024BE014F070035398F790024AE014FD
:1022FB00F070035398EF900249E014F07003539879
:10230B00DF900246E014F060030223BB90024CE026
:10231B00FF700A90024BF090024AF0805AEFB40122
:10232B0022900243E01313543F90024BF090024172
:10233B00E01313543F90024AF0900240E013135401
:10234B003F803490024CE0900243B40219E0C31377
:10235B0090024BF0900241E0C31390024AF09002BE
:10236B0040E0C3138011E090024BF0900241E090EB
:10237B00024AF0900240E0900249F09001FAE0B47A
:10238B00020AE58830E10543881080035388EF90FB
:10239B00024BE0600343980890024AE060034398C5
:1023AB0010900249E0600343982090023B7401F0C7
:0123BB0022FF
:10314700900243EFF0900241EDF0900240EBF02245
:1011B000900244E004F0C39404500302147DE490D0
:1011C0000244F0A3E0FF705A900243E0C394FF5042
:1011D00003E004F0900241E0D394004003E014F0F7
:1011E000900240E0D394004003E014F0900243E00A
:1011F000F4600302147D900241E0600302147D90CC
:101200000240E0600302147D90024775F001122451
:1012100036FCD3E5F0941EEC9400500302147D02DA
:101220001417EF64017074900243E0C394FF5003FD
:10123000E004F0900243E0D394FF4003E014F09008
:101240000241E0C394805003E004F0900241E0D3F7
:1012500094804003E014F0900240E0D394004003F7
:10126000E014F0900243E0F4600302147D90024128
:10127000E06480600302147D900240E06003021489
:101280007D90024775F001122436FED3E5F0941EDE
:10129000EE9400500302147D021417900245E0FF03
:1012A0006402705B900243E0C394FF5003E004F0DB
:1012B000900241E0C394FF5003E004F0900240E04C
:1012C000D394004003E014F0900243E0F460030282
:1012D000147D900241E0F4600302147D900240E02E
:1012E000600302147D90024775F001122436FCD38E
:1012F000E5F0941EEC9400500302147D021417EFE5
:101300006403705A900243E0D394004003E014F069
:10131000900241E0C394FF5003E004F0900240E0EB
:10132000D394004003E014F0900243E06003021401
:101330007D900241E0F4600302147D900240E06081
:101340000302147D90024775F001122436FED3E5A6
:10135000F0941EEE9400500302147D0214179002C4
:1013600045E0FF64047059900243E0D394004003C9
:10137000E014F0900241E0D394004003E014F090B8
:101380000240E0C394FF5003E004F0900243E060A9
:101390000302147D900241E0600302147D9002403C
:1013A000E0F4600302147D90024775F001122436C8
:1013B000FCD3E5F0941EEC9400500302147D80579A
:1013C000EF64057060900243E0D394004003E014A2
:1013D000F0900241E0C394FF5003E004F09002401B
:1013E000E0C394FF5003E004F0900243E060030286
:1013F000147D900241E0F4600302147D900240E00D
:10140000F4707A90024775F001122436FED3E5F0AD
:10141000941EEE94004066E4900247F0A3F0900220
:1014200045E004F022900243E0C394FF5003E0043F
:10143000F0900241E0D394004003E014F0900240A9
:10144000E0C394FF5003E004F0900243E0B4FF2DAA
:10145000900241E07027900240E0B4FF20900247E4
:10146000E475F001122436FED3E5F09432EE9400D8
:0E147000400BE4900247F0A3F0900245F022FA
:1019B90090023BE07003021B7FE490023BF090022F
:1019C9003EE0FFB4091B7811666016E0F6E4900268
:1019D90045F0900243747FF0E4900241F090024098
:1019E900F09001FAE0600790023EE0FE7004E4FB2B
:1019F9008051EEB401047BFF802190023EE0FEB4E9
:101A09000205E4FBFD8016EEB40306E4FB7D80804D
:101A19000C90023EE0FEB40408E4FB7DFF7FFF80EA
:101A290034EEB40507E4FB7DFFFF802990023EE018
:101A3900FEB406087BFF7DFFE4FF8019EEB40707BB
:101A49007BFFE4FDFF800E90023EE0FEB4080C7BB4
:101A5900FFE4FD7F80123147021B55EE640A6003E3
:101A6900021B4B900242E0FFA3F090023FE0FE9080
:101A79000241F090023DE0FD900240F0EFB4FF1109
:101A8900EEB4FF0DEDB4FF0990023E7401F0021BA4
:101A990055900242E0B4FF1390023FE0700D9002AE
:101AA9003DE07007A37402F0021B55900242E0FF6B
:101AB900B4FF1490023FE0B4800D90023DE070073E
:101AC900A37403F0021B55EFB4FF1390023FE0B477
:101AD900FF0C90023DE07006A37404F0806E900242
:101AE90042E0701390023FE0B4FF0C90023DE070B9
:101AF90006A37405F08055900242E0FF701490022D
:101B09003FE0B4FF0D90023DE0B4FF06A37406F078
:101B1900803AEF701390023FE0700D90023DE0B4FF
:101B2900FF06A37407F08024900242E0B4801D9060
:101B3900023FE0701790023DE0B4FF10A37408F073
:101B4900800A90023EE0B409031211B090023EE00F
:101B5900FF701AEFB40A16900243E0900242F09027
:101B69000241E090023FF0A3E090023DF090023E76
:071B7900E060037811F62281
:0F31760024242454696D652073796E630D0A005B
:0B2A490090028AEBF0A3EAF0A3E9F092
:102A54001232317834E670F87838F67F6490019554
:102A6400E4F0A3DFFCE4FF90028AE0FBA3E0FAA316
:102A7400E0F91223BCFE601974952FF582E4340149
:102A8400F583EEF090028BE475F0011224360F808A
:102A9400D6E47839F6783476017837760A7839E6E8
:0D2AA400062495F582E43401F583E0F5E5A4
:012AB1002202
:1029DD00783AE660357838E6C394144029123231DE
:1029ED007834E670F8783A167838F608F678347652
:1029FD00017837760A7839E6062495F582E43401B4
:102A0D00F583E0F5E5227838062230070FC2077806
:102A1D003A76037BFF7A317976022A49900221E0DA
:102A2D0060199001FAE070047F0180027F00121D91
:0C2A3D0035900221E014F0783A76022275
:10287600900002E0FEA3E0FF900000E06E7003A36C
:10288600E06F607A1232317836760A900002E0FE06
:10289600A3E0FF2468F58274003EF583E0FD18E6A8
:1028A6002404F582E43400F583EDF074682FF58294
:1028B60074003EF583E4F090000275F001122436B0
:1028C600FEC3E5F0942CEE94014007E4900002F07C
:1028D600A3F07835E6062404F582E43400F583E0B7
:1028E600640A708C7B017A00790412052C7F64904F
:0E28F6000004E4F0A3DFFCE47835F602287657
:0129040022B0
:1030F500757064617465206661696C0075706461E2
:063105007465206F6B00F1
:0C31D50053E13F8FE5E5E154C060FA22B1
:102EA00090028DEBF0A3EAF0A3E9F0801690028D7A
:102EB000E0FBA3E0FAA3E0F91223BC6020E5E154B3
:102EC000C060EA53E13F90028DE0FBA3E475F0019E
:0E2ED00012244CA9F0FA1223BCF5E580D022A2
:100D9800E4F58EF58D53ABFB53A8E753A9E753AAA7
:100DA800EF7817F6781AF608F67815F608F690022E
:100DB8005DF0A3F0A3F09002907400F0A37468F0C3
:100DC800E4900259F0A3F0900259E0FEA3E0FFC3BB
:100DD800942DEE94015020900290E0FCA3E02FF5B2
:100DE80082EC3EF583E4F090025AE004F070D8906B
:100DF8000259E004F080D0439808439810439820A3
:100E08007F431231D57817E6B408004003021180F9
:100E1800900E1FF8282873020E37020EBF020F5FCC
:100E2800020FE802107C0210E002112402112C12B9
:100E38003231E5E130E534900290E0FEA3E0F5823E
:100E48008E83C083C082781A0806E6188606700169
:100E58000614D082D0832582F582E5833EF583E5AA
:100E6800E5F0E490025DF0A3F0A3F0900290E0FEBC
:100E7800A3E0F5828E83E0B46E25781DE6184660FF
:100E88000E7BFF7A3079F5122EA0E47817F6227BD4
:100E9800FF7A317901122EA0781776060211877829
:100EA8001BE66407700418E6640160030211877882
:100EB8001AF608F6021127123231E4781AF608F603
:100EC800900290E0FEA3E0F5828E83E0F9A3E0FEB5
:100ED800900290E0FCA3E0F5828C83A3A3E0FDAC34
:100EE80006900290E0FAA3E0FBF5828A83A3A3A30D
:100EF800E0FEEB2404F582E43AF583E0FBEBFFE93E
:100F0800B4020EEFF4FFEEF4FEEF6D7002EE6C60CB
:100F180003020FE07815E6FE08E6FFC3ED9FFFEC3D
:100F28009EFEEF64014E6004EF4E7025AE04AF05DF
:100F38007815A60608A607E6FEE42400FFEE34406E
:100F4800FE900260F0A3EFF0D394FFEE947F40048C
:100F580022020FE0021127123231E490025BF0A363
:100F6800F0FFFE900259F0A3F0900259E0FCA3E0D4
:100F7800FDC3EC94015034ED2405FDE43CFC9002E3
:100F880090E0FAA3E02DF582EA3CF583E0FD9002BB
:100F98005CE02DF090025BE03400F090025AE0042F
:100FA800F070C6900259E004F080BE900290E0FC18
:100FB800A3E0FD2405F582EC3401F583E0FEED2481
:100FC80006F582EC3401F583E0FDEDFF90025BE06D
:100FD8006E7003A3E06F60057F1502111F021127D1
:100FE800123231900260E0FEA3E0FF900291E0240B
:100FF80005FD900290E03400FAA9057B011227E272
:10100800900261E02440FF900260E03400FE90020C
:1010180091E02445FD900290E03400FAA9057B0197
:101028001227E2900261E02480FF900260E0340021
:10103800FE900291E02485FD900290E03400FAA928
:10104800057B011227E2900261E024C0FF90026054
:10105800E03400FE900291E024C5FD900290E03457
:1010680000FAA9057B011227E2781DE6161870011F
:1010780016021127123231E4900259F0A3F09002BF
:1010880059E0FEA3E0FFC3EE9401504A900261E0EC
:101098002FFF900260E03EFE1231FD90025AE024DC
:1010A80005FD900259E03400FC900290E0FAA3E0BC
:1010B8002DF582EA3CF583E06F600B7F151231D580
:1010C800E47817F6801090025AE004F070B09002AD
:1010D80059E004F080A88047123231E4900259F0B8
:1010E800A3F0900259E0FEA3E0FFC3942DEE940113
:1010F8005023900290E0FCA3E02FF582EC3EF583AC
:10110800E4F012323190025AE004F070D59002599E
:10111800E004F080CD7F961231D5805F12323178AD
:101128001706805B123231E4900259F0A3F0900266
:1011380059E0FEA3E0FFC39440EE940050219002D2
:1011480090E0FCA3E02FF582EC3EF58374AAF090C2
:10115800025AE004F070D7900259E004F080CF9072
:101168000290E0FEA3E0AA06F97B017F007E04124C
:1011780027E2123231020000123231E47817F612F7
:10118800323190025DE004F06003020E0DA3E0042A
:10119800F06003020E0DA3E004F0C39402500302B2
:0811A8000E0D120000020E0DF5
:0B31E100000102030507090A0C0E0F95
:0E319400EF9031E193FFC374169FFF0230C429
:1030C400201915D219EF14782DF6E4782FF67832FA
:0930D400F653887F782C76C8229F
:10255100201903022602783206E6C3782C9650032E
:10256100022602E47832F6782FE6B4130040030223
:1025710025FA90257AF82828730225B30225BC0292
:1025810025C50225D90225C50225D90225C5022561
:10259100D90225C50225D90225C50225D90225C59D
:1025A1000225D90225C50225D90225C50225D90250
:1025B10025F4438880782C76A0804353887F782C3B
:1025C1007614803A438880782DE630E70518761E28
:1025D100802C782C760A802653887F782DE6FF3070
:1025E100E70518760A8004782C761EEF25E0782D11
:1025F100F6800B782C76C8800553887FC219782F16
:022601000622AF
:101B80009001FAE064036003021CE8201A15783122
:101B9000F6900292E0F47833F67812E6F4782EF6B6
:101BA000E4A3F0D21A900293E0146021146035147B
:101BB0006047240370465390EF783106E6D39419BA
:101BC0005003021D345390FD43904080121230DDCB
:101BD000439802783106E6D394325003021D34E470
:101BE000F6021D2E783106E6D394C85003021D3448
:101BF000900293E004F0E4F622021D2E7830E6FF16
:101C00006039301903021D34B417097BFF7A167945
:101C100011122A497830E6B41815900292E075F056
:101C200018A42411F9741635F0FA7BFF122A4978AA
:101C300030E6FF1230C4E47830F622900292E07869
:101C400033666048301903021D34E0FFF6EF60038D
:101C5000B4170ED21B783376177BFF7A1679118072
:101C600019900292E0FFD394065012EF75F018A479
:101C70002411F9741635F0FA7BFF122A497833E6FD
:101C8000FF1230C4900292E07833F6227912E7789E
:101C90002E666010301903021D347812E6FF782E8C
:101CA000F6023194A201300801B35029783AE67067
:101CB00024A20192083001087BFF7A167911801264
:101CC000900292E075F018A42411F9741635F0FA18
:101CD0007BFF022A49201B082001057812E67004C8
:101CE0005390EF2243901022301A05E4900293F0B3
:101CF000C21A900293E014601214601F14602C2426
:101D00000370312017035390EF8023783106E6D318
:101D100094144020E4F64398028013783AE6701455
:101D20007BFF7A167911122A498003201706900248
:051D300093E004F02225
:10147E005475726E206F6E20756E6974005475729D
:10148E006E206F6E204C6967687472004368616EDF
:10149E006765206C6967687420636F6C6F720055A6
:1014AE0073657220636F6C6F720053656C65637445
:1014BE0020536F756E642066696C65006D75736977
:1014CE006320706C61790050726F506C61790D0AF7
:1014DE0000564552302E0D0A005645520D0A002474
:1014EE002424564552302E34350D0A00477053745D
:1014FE0061007B54696D6553796E63005475726E2D
:10150E00206F666620756E6974005475726E206F5A
:10151E006E204254006D757369632070617573653A
:10152E00007B4D7573696353746174757300416408
:10153E006A757374204F757470757420566F6C7560
:10154E006D6500766F6C756D6520757000766F6CCD
:10155E00756D6520646F776E006D75736963206DB0
:10156E00757465006D7573696320756E6D75746540
:10157E00005365742054696D6572005475726E2047
:10158E006F66662054696D6572005475726E206FB9
:10159E006666204C6967687472006C6967687420AF
:1015AE007570006C6967687420646F776E004164B3
:1015BE006A757374204C6967687420427269676833
:1015CE00746E657373004E6F7247705374610D0ABB
:1015DE00002075706461746500415457510D0A0006
:1015EE00456E74657220546573744D6F64653A0070
:1015FE007B4E6F7247705374610001010204081034
:10160E002040802424247B4D757369635374617468
:10161E0075733A5B30375D7D0D0A002424247B4DB3
:10162E00757369635374617475733A5B30315D7DA4
:10163E000D0A002424247B4D757369635374617401
:10164E0075733A5B30325D7D0D0A002424247B4D88
:10165E00757369635374617475733A5B30335D7D72
:10166E000D0A002424247B4D7573696353746174D1
:10167E0075733A5B30345D7D0D0A002424247B4D56
:10168E00757369635374617475733A5B30355D7D40
:10169E000D0A002424247B4D7573696353746174A1
:1016AE0075733A5B30365D7D0D0A002424247B472A
:1016BE00705374613A5B30302C30302C30302C301B
:1016CE00302C3030303030302C30302C30302C301C
:1016DE00302C30305D7D0D0A002424247B4E6F7239
:1016EE0047705374613A5B30302C30302C30302CD4
:1016FE0030302C3030303030302C30302C30302CEC
:10170E0030302C30305D7D0D0A002424247B4E6F4A
:10171E007247705374613A5B30302C30302C30305D
:10172E002C30302C3030303030302C30302C3030BB
:0B173E002C30302C30305D7D0D0A0097
:102AB20090028074FFF0A37414F074E7A3F0900204
:092AC2007AE0FBA3E0FAA3E0F9BD
:102ACB0090027DEBF0A3EAF0A3E9F0900280E0FB2B
:102ADB00A3E0FAA3E0F91223BCFF602F90027DE084
:102AEB00FBA3E0FAA3E0F91223BCB507056003EFE3
:102AFB0070037F012290027EE475F0011224369060
:0E2B0B000281E475F00112243680C07F0022A2
:102E1E0090027AE0FBA3E0FAA3E0F990000B1223F4
:092E2E00D590000CFF1223D5FD24
:102E3700C3EF648094C14006EF24C9FF800474D0B7
:102E47002FFFC3ED648094C14006ED24C9FD8004C3
:0B2E570074D02DFDEFC454F04DFF229D
:052F8500FF1223D5FD41
:102F8A00C3EF648094C14006EF24C9FF800474D063
:102F9A002FFFC3ED648094C14006ED24C9FD80046F
:0C2FAA0074D02DFDEF75F00AA42DFF225D
:102216001222BC900276E0FBA3E0FAA3E0241AF9AE
:10222600E43AFA900242E0FD1222BC900276E0FB0C
:10223600A3E0FAA3E0241CF9E43AFA90023FE0FD99
:102246001222BC900276E0FBA3E0FAA3E0241EF97A
:10225600E43AFA90023DE0FD1222BC900276E0FBE1
:10226600A3E0FAA3E02421F9E43AFA90024CE0FD57
:102276001222BC900276E0FBA3E0FAA3E02424F944
:10228600E43AFA7812E6FD1222BC900276E0FBA34D
:10229600E0FAA3E02427F9E43AFAA21BE433FD129C
:1022A60022BC900276E0FBA3E0FAA3E0242AF9E43C
:0622B6003AFA780CE6FD87
:1022BC00EDC4540FFFC3940AEF400424378002246A
:1022CC0030122402740129F9E43AFAED540FFFC3D9
:0E22DC00940AEF4004243780022430122402BA
:0122EA0022D1
:102F50009001FA7401F0780DE6B403047F03800257
:102F60007F019001FAEFF07809E67812F67811E621
:102F700090023EF0EF70047F0180027F00121D3549
:052F8000783A760322FF
:10308B009001FA7401F07809E67812F67401700475
:0E309B007F0180027F00121D35783A760322F5
:102FB6009001FAE0780DF6E4F07812E67809F690DA
:102FC600023EE07811F6E4F0780CF69001F9F07024
:0F2FD600047F0180027F00121D35783A760322B6
:051D350090026DEFF0CB
:101D3A001232317834E670F87838F67F649001957B
:101D4A00E4F0A3DFFCE4FFEFFD3395E0FC74B92D6A
:101D5A00F58274163CF583E493FE74952DF582742E
:101D6A00013CF583EEF00FEFB429DC7B017A0179AF
:101D7A00A090026DE0FD1222BC7A0179A39001FACB
:101D8A00E0B40308900292E0FFFD80027D07122270
:101D9A00BC7B017A0179A690023EE07003FD8002C5
:101DAA007D011222BC7B017A0179A990023EE0B43E
:101DBA0009047D0180027D001222BC7B017A01792F
:101DCA00AC900242E0FD1222BC7A0179AE90023F49
:101DDA00E0FD1222BC7A0179B090023DE0FD1222A8
:101DEA00BC7A0179B390024CE0FD1222BC7A0179E7
:101DFA00B67812E6FD1222BC7A0179B9A21BE43345
:101E0A00FD1222BC7A0179BC1222B8783A7602E431
:101E1A007839F6783476017837760A7839E60624FE
:101E2A0095F582E43401F583E0F5E5900221E0704E
:041E3A00037402F03B
:011E3E002281
:0B052C00900276EBF0A3EAF0A3E9F0E8
:100537002403F9E43AFA90027AEBF0A3EAF0A3E98C
:10054700F090028074FFF0A37414F0A3747EF0128D
:100557002ACBEF701A900276E0FBA3E0FAA3E0F94A
:10056700122A499001FAE06003020802022F509014
:10057700028074FFF0A37414F0748B122ABEEF701C
:1005870031900276E0FBA3E0FAA3E0F9122A499042
:1005970001FAE0700312308B7811E690023EF0709A
:1005A7000204F090024CE0FF70057F01020684020E
:1005B700068490028074FFF0A37414F0A3749A1257
:1005C7002ABFEF703C900276E0FBA3E0FAA3E0F9C4
:1005D700122A499001FAE0700312308B90023E74A0
:1005E70009F0E4900245F0900243F0900241F09048
:1005F7000240F090024CE0FF70047F018000020689
:100607008490028074FFF0A37414F0A374AD122ACF
:10061700BFEF706F900276E0FBA3E0FAA3E0F91258
:100627002A499001FAE0700312308B122E1E9002B5
:1006370042EFF090027AE0FBA3E0FAA3E0F9900022
:100647000D1223D590000E122E3290023FEFF0903C
:10065700027AE0FBA3E0FAA3E0F990000F1223D59A
:10066700FF900010122E3390023DEFF090023E747F
:100677000AF090024CE0FF70047F01800090024C6A
:10068700EFF02290028074FFF0A37414F0A374B803
:10069700122ABFEF705C900276E0FBA3E0FAA3E0BA
:1006A700F9122A499001FAE0700312308BC201C295
:1006B7001B9001FA7403F090027AE0FBA3E0FAA31F
:1006C700E0F990001A1223D524D0FF900292F07817
:1006D70033E6B5070478307618783A7601900292B7
:1006E700E075F018A42411F9741635F0FA7BFF02AF
:1006F7000D9490028074FFF0A37414F0A374CA12CF
:100707002ABFEF70219001FAE0700312308B90013D
:10071700FA7403F0C201C21B900292E0700304F066
:1007270022783076182290028074FFF0A37414F0B8
:10073700A374D5122ABFEF60030207C4900276E0C4
:10074700FBA3E0FAA3E0F9122A499001FAE070034B
:1007570012308B9001FBE0900292F09001FCE09048
:10076700023EF09001FDE0900242F09001FEE09021
:10077700023FF09001FFE090023DF0900200E09010
:10078700024CF0900201E07812F6A3E09001FAF033
:10079700900203E024FF921B201B03C38001D39226
:1007A70001E433900204F0201B047F1880027F17B6
:1007B7007830A607900205E09001F9F022900280B8
:1007C70074FFF0A37414F0A374DF122ABFEF700153
:1007D70022122AB2EF70097BFF7A1479ED020D9489
:1007E70090028074FFF0A37414F0A374FA122ABF66
:1007F700EF7008783AF6900221F0229001FAE07043
:1008070003020CA190028074FFF0A37415F0A37487
:1008170000122ABFEF706753ABFB122E1E780FA68C
:100827000790027AE0FBA3E0FAA3E0F990000E122A
:1008370023D5FF90000F122E33780AA60790027A6D
:10084700E0FBA3E0FAA3E0F99000111223D5FF9093
:100857000012122E33780EA60790027AE0FBA3E06F
:10086700FAA3E0F990001E1223D524D0780BF6E600
:1008770090160893F643AB04E4900220F02290020E
:100887008074FFF0A37415F0A3740A122ABFEF70E7
:1008970015900276E0FBA3E0FAA3E0F9122A497863
:1008A7003A7603022FB690028074FFF0A37415F016
:1008B700A37418122ABFEF70099001FA7402F002AC
:1008C7000C9390028074FFF0A37415F0A3742312A5
:1008D7002ABFEF70129001FAE064036003020D97DC
:1008E700D21B783076172290028074FFF0A374151C
:1008F700F0A3742F122ABFEF70012290028074FFB9
:10090700F0A37415F0A3743C122ABFEF701990027C
:100917007AE0FBA3E0FAA3E0F99000141223D59044
:100927000015122F85806490028074FFF0A3741560
:10093700F0A37451122ABFEF70207812E6FFC39418
:100947000A5013EF94085007E62402FFF68009784F
:100957001206E6FF80027F0A803190028074FFF062
:10096700A37415F0A3745B122ABFEF70277812E601
:10097700FFD394014013EF94034007E624FEFFF6EC
:100987008009781216E6FF80027F017812A607C257
:1009970001020C9390028074FFF0A37415F0A37406
:1009A70067122ABFEF7003D2012290028074FFF012
:1009B700A37415F0A37472122ABFEF7003C2012249
:1009C70090028074FFF0A37415F0A3747F122ABFFE
:1009D700EF701C90027AE0FBA3E0FAA3E0F9900025
:1009E7000A1223D590000B122F85780CEF801590F3
:1009F700028074FFF0A37415F0A37489122ABFEF65
:100A0700700A780CF69001F9F0020C93900280744A
:100A1700FFF0A37415F0A37498122ABFEF70079024
:100A2700023EF0020C9390028074FFF0A37415F05D
:100A3700A374A8122ABFEF701290024CE0C394036C
:100A47004003020C93E004F0020C9390028074FFC1
:100A5700F0A37415F0A374B1122ABFEF70129002BD
:100A67004CE0D394005003020C93E014F0020C9373
:100A770090028074FFF0A37415F0A374BC122ABF10
:100A8700EF702090027AE0FBA3E0FAA3E0F9900070
:100A9700181223D5FF900019122F8690024CEFF001
:100AA700020C9390028074FFF0A37415F0A374D422
:090AB700122ABFEF6003020B9547
:100AC000900279F0900279E0FFC39464501C900288
:100AD00076E0FBA3E0FAA3E0F98F82758300E412CD
:100AE0002414900279E004F080DAE4900279F09026
:100AF0000279E0FF9016E793FE900276E0FBA3E018
:100B0000FAA3E0F98F82758300EE12241490027923
:100B1000E004F0E0B430D8900276E0FBA3E0FAA362
:100B2000E0240EF9E43AFA7D011222BC900276E04C
:100B3000FBA3E0FAA3E02411F9E43AFA9001FAE009
:100B4000B40308900292E0FFFD80027D071222BCF0
:100B5000900276E0FBA3E0FAA3E02414F9E43AFA69
:100B600090023EE07003FD80027D011222BC9002E3
:100B700076E0FBA3E0FAA3E02417F9E43AFA900246
:100B80003EE0B409047D0080027D01122216783A0D
:020B90007602EB
:100B9200020C9390028074FFF0A37415F0A374DF2B
:100BA200122ABFEF6003020C4390027AE0FBA3E03B
:100BB200FAA3E0F990000A1223D5FF90000B122E3F
:100BC20033EF7F00FEC007C00690027AE0FBA3E08D
:100BD200FAA3E0F990000C1223D5FF90000D122E1B
:100BE20033EFFD3395E0FCD0E04C7818F6D0E04DC1
:100BF20008F690027AE0FBA3E0FAA3E0F990001174
:100C02001223D5FF900012122E33EF7F00FEC00791
:100C1200C00690027AE0FBA3E0FAA3E0F990001389
:100C22001223D5FF900014122E33EFFD3395E0FC12
:100C3200D0E04C781CF6D0E04D08F6120D98020C6C
:100C42009390028074FFF0A37415F0A374E7122A44
:100C5200BFEF7004783AF622122AB2EF70097BFFD6
:100C62007A1479ED020D9490028074FFF0A374154A
:100C7200F0A374EE122ABFEF7017783AF690021CB6
:100C8200F090021EF0D2059001FA04F07F0A022FC2
:100C9200E5900276E0FBA3E0FAA3E0F9020D94905E
:100CA200028074FFF0A37415F0A374FE122ABFEF42
:050CB2006003020D8942
:100CB700900279F0900279E0FFC39464501C90028F
:100CC70076E0FBA3E0FAA3E0F98F82758300E412D4
:100CD7002414900279E004F080DAE4900279F0902D
:100CE7000279E0FF90171893FE900276E0FBA3E0ED
:100CF700FAA3E0F98F82758300EE1224149002792B
:100D0700E004F0E0B430D8900276E0FBA3E0FAA369
:100D1700E0240EF9E43AFAE4FD1222BC900276E0F0
:100D2700FBA3E0FAA3E02411F9E43AFA9001FAE010
:100D3700B40308900292E0FFFD80027D071222BCF7
:100D4700900276E0FBA3E0FAA3E02414F9E43AFA70
:100D570090023EE07003FD80027D011222BC9002EA
:100D670076E0FBA3E0FAA3E02417F9E43AFA90024D
:100D77003EE0B409047D0080027D01122216783A14
:020D87007602F2
:0E0D8900900276E0FBA3E0FAA3E0F9122A49FB
:010D97002239
:0F31850024242454696D652073796E630D0A004C
:043226004102210040
:102B1900D2097813E6FF7002D20CEFB40102D20D8C
:102B2900EFB40202D20EEFB40302D20FEFB40402E3
:102B3900D210EFB40502D211EF640670247837166B
:102B4900E670037834F6783616E670037835F67849
:102B59002616E670037824F6782516E6700378279A
:0D2B6900F6781306E6C3940A4002E4F62253
:10274900780EE6FF78146670030227E1A607900267
:1027590020E0B4012190021FE004F0E0C3940A4094
:1027690015E4F0783A76037BFF7A317985122A49A4
:102779009002207402F0780AE6FF7810666059A684
:1027890007780CE6601A16E67016122FB6783A76B4
:10279900039001FAE070047F0180027F00121D3569
:1027A900900220E0B4021090021FE004F0E0C3940C
:1027B900024004E4F0D207780FE6FF780866601853
:1027C900A60790021DE004F0E0C39418400AE4F063
:0927D9009002207402F0D20722E4
:08320D00901004E04408F022D7
:08321500901004E054F7F022D0
:1031570090100A740CF090100B74FEF043A0082234
:1026C900020500E493A3F8E493A34003F68001F222
:1026D90008DFF48029E493A3F85407240CC8C33312
:1026E900C4540F4420C8834004F456800146F6DFE1
:1026F900E4800B0102040810204080903224E47E1B
:10270900019360BCA3FF543F30E509541FFEE493D5
:10271900A360010ECF54C025E060A840B8E493A39C
:10272900FAE493A3F8E493A3C8C582C8CAC583CAC7
:10273900F0A3C8C582C8CAC583CADFE9DEE780BE7F
:01322A0000A3
:1023BC00BB010689828A83E0225002E722BBFE021F
:0923CC00E32289828A83E4932252
:1023D500BB010CE58229F582E5833AF583E02250BD
:1023E50006E92582F8E622BBFE06E92582F8E22207
:0D23F500E58229F582E5833AF583E4932221
:10240200BB010689828A83F0225002F722BBFE01B9
:02241200F322B3
:10241400F8BB010DE58229F582E5833AF583E8F0FE
:10242400225006E92582C8F622BBFE05E92582C8AA
:02243400F22292
:10243600C5F0F8A3E028F0C5F0F8E5821582700231
:062446001583E038F022CE
:10244C00A3F8E0C5F025F0F0E58215827002158343
:06245C00E0C838F0E822A0
:10246200D083D082F8E4937012740193700DA3A309
:1024720093F8740193F5828883E47374029368601D
:06248200EFA3A3A380DF1D
:00000001FF
