:030000000230A229
:1030A20078FFE4F6D8FD9000007F007E03E4F0A3F1
:0A30B200DFFCDEFA75813A0201002E
:102CC500300B3D90022CE004F0C3940C400FE4F06F
:102CD50090022EE004F0D394184002C20B90022E0D
:102CE500E0FF30E00543801080035380EFEF30E0D4
:102CF5000543802080035380DFEF30E051022D9C97
:102D050030052590022CE004F0C394324012E4F023
:102D150090022EE004F0D394064005C2051200008F
:102D2500438010438020806F30002590022CE00402
:102D3500F0C3940C400FE4F090022EE004F0D3941D
:102D4500104002C20090022EE030E002804980511E
:102D550090020AE0D394015018900269E070125372
:102D650080EF5380DF5380BFE4780CF69001FAF0D2
:102D7500229001FAE0FFB40F084380105380DF80F2
:102D850020EFB41E085380EF4380208014EFB43C3D
:102D95000A5380EF5380DF438040225380EF5380F6
:052DA500DF5380BF2296
:1039DA00781276029002777401F090020AF0D2010E
:1039EA005390EF783A7603E070047F0180027F00FB
:0A39FA001226719002307401F022D1
:1037BF001239DA1231D0300902C209300C08C20CAA
:1037CF00123BDD121ECD300D05C20D122E7B300EB9
:1037DF0005C20E1224BC300F05C20F122133301058
:1037EF000BC210122CC51232EE122822123BE380AC
:0137FF00C207
:100100009002337400F0A37468F0A37480F0A3E449
:10011000F0900232F0900232E0FFC394405019A3F5
:10012000E0FCA3E02FF582E43CF583E4F0438D206E
:10013000900232E004F080DD9002397404F0A3E410
:10014000F0900232F0900232E0FFC39440503490BD
:100150000239E0FCA3E0F5828C83E493FE90023345
:10016000E0FCA3E02FF582E43CF583EEF090023A48
:10017000E004F07006900239E004F0900232E004EE
:10018000F080C2900233E0FEA3E0FFF5828E83E0B0
:1001900064AA600302037BA3A3E064AA60030203D2
:1001A0007B900233A3E02404F582E43EF583E0640F
:1001B000AA600302037BEF2406F582E43EF583E0A8
:1001C00064AA600302037B53A87F900237F0A3F078
:1001D000A37440020374438D20900237E0FEA3E035
:1001E000FDAC06E4900232F0900232E0F9C3944094
:1001F0004003020273900237E0FEA3E0FFC3EE94D7
:10020000004009D3EF9400EE9404400FC3EE940530
:100210004045D3EF94FFEE943F503C900239E0FE0E
:10022000A3E0F5828E83E493FF900233E0FAA3E02B
:1002300029F582E43AF583EFF090023AE004F07099
:1002400006900239E004F0900238E004F0701B9050
:100250000237E004F08013900232E0FFA3E0FAA33B
:10026000E02FF582E43AF583E4F0900232E004F006
:100270000201E875FE0100000000E4900232F090F7
:100280000232E0FFC39440501B900235E0FAA3E035
:100290002FF582E43AF583E4F0438D20900232E0BA
:1002A00004F080DBE4F5FAECF5FB8DFC75FDA500B0
:1002B00000000075FE0200000000E4F5FDF5FEF50B
:1002C000FA75FB05F5FC75FE010000000090023296
:1002D000F0900232E0F9A3E0FEA3E029F582E43ECB
:1002E000F583E0FF900235E0FAA3E029F582E43AD5
:1002F000F583EFF0900232E004F0E0B440D3E4F58F
:10030000FAECF5FBAF058FFC75FDA500000000754C
:10031000FE0300000000E4F5FDF5FEF5FA75FB05AF
:10032000F5FC900237E0FEA3E0FFC3EE9404400F1B
:10033000D3EF9400EE94055006438D2012000090F8
:100340000237E0FEA3E0B40014EEB40110900237CF
:100350007405F0A3E4F0A37445F0A3E4F090023731
:10036000E0FEA3E0C394FFEE943F50030201D69059
:1003700002377404F0A3E4F00201D612050043A88A
:0103800080FC
:010381002259
:102BD10020202020200D0A0041542B4D540D0A00C5
:102BE10041542B4D410D0A0041542B4D450D0A0016
:102BF10041542B4D440D0A0041542B43410D0A0011
:102C010041542B43420D0A0041542B43430D0A000A
:102C110041542B43500D0A0041542B43440D0A00EB
:102C210041542B435A0D0A0041542B48300D0A00E0
:102C310041542B48310D0A0041542B48320D0A00F2
:102C410041542B48330D0A0041542B48340D0A00DE
:102C510041542B48350D0A0041542B48360D0A00CA
:102C610041542B48370D0A0041542B48380D0A00B6
:102C710041542B48390D0A0041542B48410D0A009B
:102C810041542B48420D0A0041542B48430D0A0080
:102C910041542B48440D0A0041542B48450D0A006C
:102CA10041542B48460D0A00000102030607090A98
:102CB1000C0E0F00010203040404050606070708B1
:042CC10008090A0AEA
:103667007824E670FB7F0890024EE4F0A3DFFCE4C9
:10367700FF1223F0FE6016744E2FF582E43402F534
:1036870083EEF0740129F9E43AFA0F80E4E478282C
:10369700F6782476017828E606244EF582E434028B
:0536A700F583E0F5F5DC
:0136AC0022FB
:1039AF00EFC3940B500CEF75F008A424D1F9742BCE
:1039BF0080107812E6902CA99375F008A42429F9A9
:0A39CF00742C35F0FA7BFF12366706
:0139D90022CB
:102AD500201406201503022BD0301412C2149002C4
:102AE500327401F0A37402F0A37456F08010C2157D
:102AF5009002327401F0A37402F0A3745EF09002A8
:102B050032E0FBA3E0FAA3E0F91223F0FFB4491F7A
:102B1500900001122409FEB44902D217EEB4410215
:102B2500C217EE64586003022BB5C217022BB5EF2E
:102B3500B44D1C900001122409FFB44102C218EFE4
:102B45006442706CD2187812E6F47829F680611226
:102B550023F0FFB44F12900001122409644670500F
:102B650090020AE064028048EF6448704390020ACC
:052B7500E06402703B6A
:102B7A00900001122409FFD3648094B94005EF2420
:102B8A00C98013900232E0FBA3E0FAA3E0F99000B7
:102B9A000112240924D07812F67812E6D3940F4051
:0B2BAA0002760F7812E6902CB493F630
:102BB500E4FF900232E0FBA3E0FAA3E0F98F82750F
:0B2BC5008300E41224480FEFB408E77F
:012BD00022E2
:102E7B00122AD590020AE064026003022F06201387
:102E8B0013782BF6C217C2187812E6F47829F6E4F9
:102E9B0090024DF0D21390024DE014601514601A9D
:102EAB00146019146018240470195390EF439002A6
:102EBB00806F123B015390BF806780658067123A29
:102ECB00A680657812E6FF7829666009A6077F0B56
:102EDB001239AF800D782AE6FF60071239AFE4781C
:102EEB002AF6E58830E210782BE6D39405400443AC
:102EFB00901022782B06225390EF22301308E4789F
:102F0B002BF690024DF0C21390024DE01460121498
:102F1B0060111460101460172404701C5390EF8020
:102F2B00078005800343904090024DE004F022900F
:092F3B00024DE004F05390FD2268
:0D3B6400E4F5FDF5FEF5FA75FB40F5FC22D9
:033BE700020000D9
:103A0400E4FE7DA2EF600E74832EF582E43402F5A9
:103A140083EDF0800C74832EF582E43402F583E4A4
:073A2400F00D0EEEB404DD0D
:013A2B002278
:083BB70075FE01000000002270
:1038B700AD07AC06E4F5FAECF5FBAF058FFC75FD3B
:1038C700A5900283E064A27018A3E0B4A313A3E059
:1038D700B4A40EA3E0B4A50975FE030000000080A0
:0738E70003123BE7023B6402
:10361800AD07AC067F007E80123BB7E4FBEF2BF5CD
:1036280082E43EF583E4F00BEBB440F1E4F5FAEC08
:10363800F5FBAF058FFC75FDA5900283E064A270D1
:1036480018A3E0B4A313A3E0B4A40EA3E0B4A5099F
:0F36580075FE02000000008003123BE7023B6496
:0B313C00900244EBF0A3EAF0A3E9F0DE
:10314700E4900248F0A37480F0A3E4F0A3EEF0A3A8
:10315700EFF053A87F7F01123A0490024BE0FEA3E1
:10316700E0FF123618123BB7E4900247F090024492
:10317700E0FBA3E0FAA3E0F9900248E0FF04F08F38
:1031870082758300122409FF900247E0FE900249EE
:10319700E0FCA3E02EF582E43CF583EFF0900247D4
:1031A700E004F0E0B440C690024BE0FEA3E0FF125B
:1031B70038B7E4FF123A0490024CE02440F0900242
:0831C7004BE03400F043A88046
:0131CF0022DD
:073BBF008F828E83E493FF67
:013BC60022DC
:10344000242424415457510D0A0024242446616346
:10345000746F72792073657474696E670D0A002445
:103460002424576966692072657365740D0A002407
:103470002424456E74657220546573744D6F6465C1
:103480003A302E34350D0A00000004C006010867EA
:103490000A900BE50D560E000050056006A10907C5
:0834A0000B300C850DF60E0047
:102FF600E4900232F0123BAE90027AEEF0A3EFF0CC
:10300600C394A0EE940F504AE4FFEF25E02488F520
:1030160082E43434F583E493FC740193FD90027AE0
:10302600E0FAA3E0FBC39DEA9C4022EF25E024984A
:10303600F582E43434F583E493FC740193FDD3EB19
:103046009DEA9C5008EF04900232F080050FEFB421
:1030560008B87F05123B38900232E0FFB4040AE557
:103066008820E5057408F0802DEFB4010DE5882071
:10307600E5089002327409F0801CEFB4020DE58871
:1030860020E508900232740AF0800BE58820E506F8
:0B3096009002327403F0900232E0FF61
:0130A100220C
:1029D300E4900278F0900281E0FE6F600EA3E06F56
:1029E3006003EFF022900281EFF022900280E0FF7B
:1029F3006E6003022A80EF7003022AD490027CE007
:102A03007003022AD490027CE014F06003022AD4FB
:102A1300900280E090027EF0900279E070059002CF
:102A23007804F090027FE014602114603214602F68
:102A330024036003022AD490027F7401F090027E83
:102A4300E04420F090027C7432F02290027F740202
:102A5300F090027EE04460F090027C7414F02290C7
:102A6300027F7403F090027EE04480F090027C7455
:102A730014F0A3E0C394FA5058E004F022900280CB
:102A8300E0603790027EF0900279E0700590027862
:102A930004F090027FE024FE601014600F240270A3
:102AA3001290027EE04440F08009800090027EE0B4
:102AB30044C0F0E490027FF08009E4900279F09042
:102AC300027DF090027C7405F0900281E090028018
:022AD300F022EF
:063BDD00122FF60229D3AD
:101ECD00900278E07003022132900208E06016E47F
:101EDD00F090027904F0783A7605123954E49002C4
:101EED0009F002204990027EE01224961F30411F16
:101EFD0073421FDA431FF14420094520514620B19A
:101F0D00471FBE6220976620BF671F4C811FDA8373
:101F1D001FF18420CC8820F58921138A1F30C10040
:101F2D0000213290027DE0C39419400302213278E2
:101F3D003A760590020AE060030239540238EE90B9
:101F4D00020AE0601890027DE064196003022132FC
:101F5D00783A76057BFF7A34794002212F90020A78
:101F6D00E0700302213290020AE0FF64016004EF89
:101F7D00B40216C201C21B90020A7403F0900289CA
:101F8D00E0600302213204F02290020AE064036053
:101F9D0003022132C201301B04C21B8026C21B90DA
:101FAD000289E004F0D3940650030221327401F04B
:101FBD002290020AE064036003022132B21B201B4F
:101FCD0007C2017830761822783076172290020AEF
:101FDD00E0D3940150030221327812E6940A5001A5
:101FED0006C2012290020AE0D3940150030221326D
:101FFD007812E6D39401400116C2012290020AE044
:10200D00D394015009900269E070030221329001CE
:10201D00FAE0FF7008780C760F740FF022EFB40F12
:10202D000B780C761E9001FA741EF022EFB41E0B85
:10203D00780C763C9001FA743CF022E4780CF69022
:10204D0001FAF02290020AE0700302213290026937
:10205D00E0B40A028015900277E0700404F0800E5F
:10206D00900269E004F0D3940940037401F09002EA
:10207D0069E064096003022132900270F090026EF3
:10208D00F090026CF090026BF022900269E0700308
:10209D00022132900277E004F0D394035003022121
:1020AD0032E4F02290020AE0607B640260777402F1
:1020BD00F02290020AE06402706B782A7605229075
:1020CD00027DE06432705E90022CF090022EF0D210
:1020DD000590020A04F0783A76057BFF7A34794A46
:1020ED001233D77F0A0239AF90027DE0643270352A
:1020FD00D20B90022CF090022EF0783A76057BFFF1
:10210D007A34795F801C90027DE0B41918D200E416
:10211D0090022CF090022EF0783A76037BFF7A3401
:06212D00796F1233D72286
:023BD600C11C10
:1005000053A87F1235C7123ABE123BCF123BC71217
:100510003B71123AEC123B15123B7E123B8B43A807
:09052000801237BF12010080D7E0
:03001B0002336B42
:0F336B00C0E0C083C082C0D075D000C000C007D2
:10337A00AFF553F1DF7825760A3012237827E6C3B2
:10338A009408500DE6062456F582E43402F583EFDC
:10339A00F0EF640A702A7827F6D214B212802178E4
:1033AA0027E6C39408500DE606245EF582E434024B
:1033BA00F583EFF0EFB40A0878277600D215B21237
:0D33CA00D007D000D0D0D082D083D0E03228
:030023000236F3AF
:1036F300C0E0C083C082C0D075D000C00053F17F4A
:103703007824E660247826760A7828E606244EF59F
:1037130082E43402F583E0F5F5E6244EF582E434E1
:1037230002F583E070037824F6D000D0D0D082D0A5
:0437330083D0E0322D
:03004B0002356C0F
:10356C00C0E0C0F0C083C082C0D075D000C000C025
:05357C0004C006C007B9
:10358100AFE553E1DF900000E0FCA3E02468F582A1
:1035910074003CF583EFF0900000E475F001122413
:1035A1006AFEC3E5F0942CEE94014007900000E41C
:0335B100F0A3F094
:1035B400D007D006D004D000D0D0D082D083D0F0B1
:0335C400D0E03222
:030053000237373A
:10373700C0E0C083C082C0D075D000C00053E17F15
:103747007834E660247837760A7839E6062495F5E2
:1037570082E43401F583E0F5E5E62495F582E43467
:1037670001F583E070037834F6D000D0D0D082D052
:0437770083D0E032E9
:03006B0002387CDC
:10387C00C0E0C0F0C083C082C0D075D000C000C012
:10388C0001C002C003C004C005C006C00712350F3A
:10389C00D007D006D005D004D003D002D001D00080
:0B38AC00D0D0D082D083D0F0D0E0322A
:0300830002380040
:10380000C0E0C0F0C083C082C0D075D000C000C08E
:1038100001C002C003C004C005C006C007122DAA23
:10382000122F44D007D006D005D004D003D002D048
:0E38300001D000D0D0D082D083D0F0D0E032D2
:0300A3000236AD75
:1036AD00C0E0C0D075D000C000C007B20430042DFA
:1036BD00780E06E6D3943B40027600780A06E6D3F0
:1036CD00943B40197600780F06E6D39417400E769A
:1036DD0000780BE625E0FFF6BF80027601D007D01B
:0636ED0000D0D0D0E03255
:083BAE00AF9FEFFEAD9EEDFF9D
:013BB60022EC
:073BCF00759C80759D072223
:0F3B3800EF540FFFE59C54F04FF59C439C402247
:083BC700E4F59AF599F59B2243
:043BE300438D2022CC
:0C3B8B00758E01758DC0438D02023BE376
:0D3B710075B28875B45D43AA0243B201220B
:103AEC00901000748AF0A3744AF043AA109010004E
:053AFC00E04401F0228E
:103B150075DA0275D90643DAECE4F5DB75E30C4397
:033B2500A91822BA
:103AA600201C1275EA0275E90643EAECE4F5EB75AB
:083AB600F34D43A818D21C22B5
:103B0100301C0EE4F5EAF5E9F5EAF5EBF5F353A817
:043B1100E7C21C22C9
:0D3B7E0075968875890175898143AB042215
:103ABE0090103874A8F075C80A758B09E58B30E73D
:083ACE00FB758A0143C80522C3
:1035C70075A17FE4F5ACF591F5DEF58075B19875D9
:1035D700AD20F592F5DFF58875B9FFF5AE75930265
:1035E700F59075C1FEF5AFF59875C9FEF5A3F5948D
:1035F700F5A075D1FFF595F5B075D320F5D2F5D5C2
:1036070075D403F5D775D603F5EE75EF0A75FF2D5B
:013617002290
:102DAA00900276E014F070035398F7900275E014DD
:102DBA00F070035398EF900274E014F07003539884
:102DCA00DF900271E014F06003022E7A900277E03D
:102DDA00FF700A900276F0900275F0805AEFB40103
:102DEA002290026EE01313543F900276F090026C28
:102DFA00E01313543F900275F090026BE0131354E2
:102E0A003F8034900277E090026EB40219E0C31357
:102E1A00900276F090026CE0C313900275F0900273
:102E2A006BE0C3138011E0900276F090026CE090A0
:102E3A000275F090026BE0900274F090020AE0B41E
:102E4A00020AE58830E10543881080035388EF9031
:102E5A000276E06003439808900275E060034398A5
:102E6A0010900274E060034398209002667401F0A7
:012E7A002235
:103B280090026EEFF090026CEDF090026BEBF022D9
:101BFF0090026FE004F0C394045003021ECCE490F3
:101C0F00026FF0A3E0FF705A90026EE0C394FF5092
:101C1F0003E004F090026CE0D394004003E014F072
:101C2F0090026BE0D394004003E014F090026EE05A
:101C3F00F46003021ECC90026CE06003021ECC9095
:101C4F00026BE06003021ECC90027275F001122449
:101C5F006AFCD3E5F0941EEC94005003021ECC02F4
:101C6F001E66EF6401707490026EE0C394FF500320
:101C7F00E004F090026EE0D394FF4003E014F09084
:101C8F00026CE0C394805003E004F090026CE0D348
:101C9F0094804003E014F090026BE0D39400400373
:101CAF00E014F090026EE0F46003021ECC90026C20
:101CBF00E064806003021ECC90026BE06003021EA2
:101CCF00CC90027275F00112246AFED3E5F0941ED7
:101CDF00EE94005003021ECC021E66900270E0FFCD
:101CEF006402705B90026EE0C394FF5003E004F057
:101CFF0090026CE0C394FF5003E004F090026BE09D
:101D0F00D394004003E014F090026EE0F4600302FD
:101D1F001ECC90026CE0F46003021ECC90026BE0CC
:101D2F006003021ECC90027275F00112246AFCD37C
:101D3F00E5F0941EEC94005003021ECC021E66EFD9
:101D4F006403705A90026EE0D394004003E014F0E5
:101D5F0090026CE0C394FF5003E004F090026BE03C
:101D6F00D394004003E014F090026EE06003021E73
:101D7F00CC90026CE0F46003021ECC90026BE0602A
:101D8F0003021ECC90027275F00112246AFED3E595
:101D9F00F0941EEE94005003021ECC021E669002B9
:101DAF0070E0FF6404705990026EE0D3940040031A
:101DBF00E014F090026CE0D394004003E014F09034
:101DCF00026BE0C394FF5003E004F090026EE060FA
:101DDF0003021ECC90026CE06003021ECC90026BDB
:101DEF00E0F46003021ECC90027275F00112246AB7
:101DFF00FCD3E5F0941EEC94005003021ECC8057E8
:101E0F00EF6405706090026EE0D394004003E0141D
:101E1F00F090026CE0C394FF5003E004F090026B6B
:101E2F00E0C394FF5003E004F090026EE060030201
:101E3F001ECC90026CE0F46003021ECC90026BE0AB
:101E4F00F4707A90027275F00112246AFED3E5F0F5
:101E5F00941EEE94004066E4900272F0A3F090029C
:101E6F0070E004F02290026EE0C394FF5003E00490
:101E7F00F090026CE0D394004003E014F090026BFA
:101E8F00E0C394FF5003E004F090026EE0B4FF2D26
:101E9F0090026CE0702790026BE0B4FF209002720A
:101EAF00E475F00112246AFED3E5F09432EE94004B
:0E1EBF00400BE4900272F0A3F0900270F0224B
:10213300900266E070030222F9E4900266F09002D6
:1021430069E0FFB4091B7811666016E0F6E49002BB
:1021530070F090026E747FF0E490026CF090026B6A
:10216300F090020AE06007900269E0FE7004E4FB6D
:102173008051EEB401047BFF8021900269E0FEB43C
:102183000205E4FBFD8016EEB40306E4FB7D8080CC
:102193000C900269E0FEB40408E4FB7DFF7FFF803E
:1021A30034EEB40507E4FB7DFFFF8029900269E06C
:1021B300FEB406087BFF7DFFE4FF8019EEB407073A
:1021C3007BFFE4FDFF800E900269E0FEB4080C7B08
:1021D300FFE4FD7F80123B280222CFEE640A6003F6
:1021E3000222C590026DE0FFA3F090026AE0FE9028
:1021F300026CF0900268E0FD90026BF0EFB4FF1107
:10220300EEB4FF0DEDB4FF099002697401F00222F0
:10221300CF90026DE0B4FF1390026AE0700D90025C
:1022230068E07007A37402F00222CF90026DE0FF12
:10223300B4FF1490026AE0B4800D900268E0700766
:10224300A37403F00222CFEFB4FF1390026AE0B449
:10225300FF0C900268E07006A37404F0806E900295
:102263006DE0701390026AE0B4FF0C900268E070B6
:1022730006A37405F0805590026DE0FF7014900280
:102283006AE0B4FF0D900268E0B4FF06A37406F0A1
:10229300803AEF701390026AE0700D900268E0B428
:1022A300FF06A37407F0802490026DE0B4801D90B4
:1022B300026AE07017900268E0B4FF10A37408F09C
:1022C300800A900269E0B40903121BFF900269E0DF
:1022D300FF701AEFB40A1690026EE090026DF09050
:1022E300026CE090026AF0A3E0900268F090026949
:0722F300E060037811F62200
:103A7000242424416C61726D2075700D0A00242489
:0D3A80002454696D652073796E630D0A0092
:0B33D700900239EBF0A3EAF0A3E9F04C
:1033E200123BE37834E670F87838F67F6490019502
:1033F200E4F0A3DFFCE4FF900239E0FBA3E0FAA3D0
:10340200E0F91223F0FE601974952FF582E434017D
:10341200F583EEF090023AE475F00112246A0F800F
:10342200D6E47839F6783476017837760A7839E650
:0D343200062495F582E43401F583E0F5E50C
:01343F00226A
:1032EE00783AE660357838E6C394144029123BE309
:1032FE007834E670F8783A167838F608F678347638
:10330E00017837760A7839E6062495F582E4340199
:10331E00F583E0F5E5227838062230070EC20778ED
:10332E003A76037BFF7A3A7970800F30060FC20629
:10333E00783A76037BFF7A3A797E0233D790023160
:10334E00E0601990020AE070047F0180027F001293
:0D335E002671900231E014F0783A760222D8
:1031D000900002E0FEA3E0FF900000E06E7003A309
:1031E000E06F607A123BE37836760A900002E0FEE8
:1031F000A3E0FF2468F58274003EF583E0FD18E645
:103200002404F582E43400F583EDF074682FF58230
:1032100074003EF583E4F090000275F00112246A18
:10322000FEC3E5F0942CEE94014007E4900002F018
:10323000A3F07835E6062404F582E43400F583E053
:10324000640A708C7B017A0079041205297F6490EE
:0E3250000004E4F0A3DFFCE47835F60231D090
:01325E00224D
:103AD600757064617465206661696C0075706461F7
:063AE6007465206F6B0007
:0C3B970053E13F8FE5E5E154C060FA22E5
:10383E00900244EBF0A3EAF0A3E9F0801690024464
:10384E00E0FBA3E0FAA3E0F91223F06020E5E154D7
:10385E00C060EA53E13F900244E0FBA3E475F0013F
:0E386E00122480A9F0FA1223F0F5E580D02292
:10149000E4F58EF58D53ABFB53A8E753A9E753AAA8
:1014A000EF7817F6781AF608F67815F608F690022F
:1014B0003DF0A3F0A3F09002877400F0A37468F0ED
:1014C000E4900239F0A3F0900239E0FEA3E0FFC3FC
:1014D000942DEE94015020900287E0FCA3E02FF5BC
:1014E00082EC3EF583E4F090023AE004F070D8908C
:1014F0000239E004F080D0439808439810439820C4
:101500007F43123B977817E6B4080040030218782F
:10151000901517F828287302152F0215B7021657D1
:101520000216E00217740217D802181C02182412BF
:101530003BE3E5E130E534900287E0FEA3E0F5828D
:101540008E83C083C082781A0806E618860670016A
:101550000614D082D0832582F582E5833EF583E5AB
:10156000E5F0E490023DF0A3F0A3F0900287E0FEE6
:10157000A3E0F5828E83E0B46E25781DE618466000
:101580000E7BFF7A3A79D612383EE47817F6227B42
:10159000FF7A3A79E212383E7817760602187F7899
:1015A0001BE66407700418E66401600302187F7884
:1015B0001AF608F602181F123BE3E4781AF608F64A
:1015C000900287E0FEA3E0F5828E83E0F9A3E0FEBF
:1015D000900287E0FCA3E0F5828C83A3A3E0FDAC3E
:1015E00006900287E0FAA3E0FBF5828A83A3A3A317
:1015F000E0FEEB2404F582E43AF583E0FBEBFFE93F
:10160000B4020EEFF4FFEEF4FEEF6D7002EE6C60CC
:10161000030216D87815E6FE08E6FFC3ED9FFFEC3F
:101620009EFEEF64014E6004EF4E7025AE04AF05E0
:101630007815A60608A607E6FEE42400FFEE34406F
:10164000FE900240F0A3EFF0D394FFEE947F4004AD
:10165000220216D802181F123BE3E490023BF0A3CB
:10166000F0FFFE900239F0A3F0900239E0FCA3E015
:10167000FDC3EC94015034ED2405FDE43CFC9002E4
:1016800087E0FAA3E02DF582EA3CF583E0FD9002C5
:101690003CE02DF090023BE03400F090023AE00490
:1016A000F070C6900239E004F080BE900287E0FC42
:1016B000A3E0FD2405F582EC3401F583E0FEED2482
:1016C00006F582EC3401F583E0FDEDFF90023BE08E
:1016D0006E7003A3E06F60057F1502181702181FD4
:1016E000123BE3900240E0FEA3E0FF900288E0247A
:1016F00005FD900287E03400FAA9057B0112313C18
:10170000900241E02440FF900240E03400FE90024D
:1017100088E02445FD900287E03400FAA9057B01AA
:1017200012313C900241E02480FF900240E03400FE
:10173000FE900288E02485FD900287E03400FAA93B
:10174000057B0112313C900241E024C0FF90024031
:10175000E03400FE900288E024C5FD900287E0346A
:1017600000FAA9057B0112313C781DE616187001BC
:101770001602181F123BE3E4900239F0A3F0900226
:1017800039E0FEA3E0FFC3EE9401504A900241E02D
:101790002FFF900240E03EFE123BBF90023AE02451
:1017A00005FD900239E03400FC900287E0FAA3E0E6
:1017B0002DF582EA3CF583E06F600B7F15123B97B5
:1017C000E47817F6801090023AE004F070B09002CE
:1017D00039E004F080A88047123BE3E4900239F03E
:1017E000A3F0900239E0FEA3E0FFC3942DEE940134
:1017F0005023900287E0FCA3E02FF582EC3EF583B6
:10180000E4F0123BE390023AE004F070D590023924
:10181000E004F080CD7F96123B97805F123BE37827
:101820001706805B123BE3E4900239F0A3F09002CC
:1018300039E0FEA3E0FFC39440EE940050219002F3
:1018400087E0FCA3E02FF582EC3EF58374AAF090CC
:10185000023AE004F070D7900239E004F080CF90B3
:101860000287E0FEA3E0AA06F97B017F007E041256
:10187000313C123BE3020000123BE3E47817F6121E
:101880003BE390023DE004F06003021505A3E00491
:10189000F06003021505A3E004F0C39402500302B4
:0818A0001505120000021505F8
:0B3BA300000102030507090A0C0E0FC9
:0E3B5600EF903BA393FFC374169FFF023A8DBE
:103A8D00201915D219EF14782DF6E4782FF6783227
:093A9D00F653887F782C76C822CC
:102F4400201903022FF5783206E6C3782C96500335
:102F5400022FF5E47832F6782FE6B413004003022A
:102F64002FED902F6DF8282873022FA6022FAF02A1
:102F74002FB8022FCC022FB8022FCC022FB8022F69
:102F8400CC022FB8022FCC022FB8022FCC022FB8BC
:102F9400022FCC022FB8022FCC022FB8022FCC0262
:102FA4002FE7438880782C76A0804353887F782C41
:102FB4007614803A438880782DE630E70518761E2B
:102FC400802C782C760A802653887F782DE6FF3073
:102FD400E70518760A8004782C761EEF25E0782D14
:102FE400F6800B782C76C8800553887FC219782F19
:022FF4000622B3
:1024BC0090020AE064036003022624201A15783186
:1024CC00F6900289E0F47833F67812E6F4782EF67A
:1024DC00E4A3F0D21A90028AE0146021146035143F
:1024EC006047240370465390EF783106E6D3941975
:1024FC0050030226705390FD4390408012123AA66E
:10250C00439802783106E6D394325003022670E4E5
:10251C00F602266A783106E6D394C8500302267078
:10252C0090028AE004F0E4F62202266A7830E6FF94
:10253C006039301903022670B417097BFF7A1A79B7
:10254C00651233D77830E6B41815900289E075F02F
:10255C0018A42465F9741A35F0FA7BFF1233D77876
:10256C0030E6FF123A8DE47830F622900289E0785A
:10257C0033666048301903022670E0FFF6EF600303
:10258C00B4170ED21B783376177BFF7A1A796580D5
:10259C0019900289E0FFD394065012EF75F018A43D
:1025AC002465F9741A35F0FA7BFF1233D77833E6C9
:1025BC00FF123A8D900289E07833F6227912E7788F
:1025CC002E6660103019030226707812E6FF782E02
:1025DC00F6023B56A201300801B35029783AE67056
:1025EC0024A20192083001087BFF7A1A79658012C7
:1025FC00900289E075F018A42465F9741A35F0FA84
:10260C007BFF0233D7201B082001057812E67004EB
:10261C005390EF2243901022301A05E490028AF076
:10262C00C21A90028AE014601214601F14602C24E9
:10263C000370312017035390EF8023783106E6D3D3
:10264C0094144020E4F64398028013783AE6701410
:10265C007BFF7A1A79651233D78003201706900214
:05266C008AE004F022E9
:1018A8007B416C61726D536574007B416C61726D34
:1018B8004F6E4F6666005475726E206F6E20756E9F
:1018C8006974005475726E206F6E204C6967687475
:1018D80072004368616E6765206C6967687420638D
:1018E8006F6C6F72005573657220636F6C6F720056
:1018F80053656C65637420536F756E642066696CFC
:1019080065006D7573696320706C61790050726F42
:10191800506C61790D0A007B50726F6772616D00BF
:10192800564552302E0D0A005645520D0A00242401
:1019380024564552302E34350D0A004770537461D1
:10194800007B54696D6553796E63005475726E201F
:101958006F666620756E6974005475726E206F6EBE
:10196800204254006D75736963207061757365005A
:101978007B4D757369635374617475730041646A50
:10198800757374204F757470757420566F6C756D0F
:101998006500766F6C756D6520757000766F6C7577
:1019A8006D6520646F776E006D75736963206D7562
:1019B8007465006D7573696320756E6D7574650067
:1019C8005365742054696D6572005475726E206F8A
:1019D80066662054696D6572005475726E206F6674
:1019E80066204C6967687472006C69676874207552
:1019F80070006C6967687420646F776E0041646A70
:101A0800757374204C6967687420427269676874DA
:101A18006E65737300416C6147705374610D0A0001
:101A28004E6F7247705374610D0A002075706461BF
:101A3800746500415457510D0A00456E7465722053
:101A4800546573744D6F64653A007B4E6F724770CE
:101A580053746100010102040810204080242424EA
:101A68007B4D757369635374617475733A5B303772
:101A78005D7D0D0A002424247B4D757369635374BE
:101A8800617475733A5B30315D7D0D0A002424243E
:101A98007B4D757369635374617475733A5B303247
:101AA8005D7D0D0A002424247B4D7573696353748E
:101AB800617475733A5B30335D7D0D0A002424240C
:101AC8007B4D757369635374617475733A5B303415
:101AD8005D7D0D0A002424247B4D7573696353745E
:101AE800617475733A5B30355D7D0D0A00242424DA
:101AF8007B4D757369635374617475733A5B3036E3
:101B08005D7D0D0A002424247B47705374613A5B81
:101B180030302C30302C30302C30302C30303030CD
:101B280030302C30302C30302C30302C30303B30B2
:101B3800302C30302C30302C3030303030302C30AD
:101B4800302C30302C30302C30302C30303A303093
:101B58002C30305D7D0D0A002424247B416C6147C4
:101B6800705374613A5B30302C30302C30302C306C
:101B7800302C3030303030302C30302C30302C306D
:101B8800302C30302C30302C30303A30302C303053
:101B98005D7D0D0A002424247B4E6F7247705374B8
:101BA800613A5B30302C30302C30302C30302C30D7
:101BB80030303030302C30302C30302C30302C302D
:101BC800305D7D0D0A002424247B4E6F72477053CC
:101BD80074613A5B30302C30302C30302C30302C63
:101BE8003030303030302C30302C30302C30302CFD
:071BF80030305D7D0D0A0095
:1034A80090023C74FFF0A37419F07430A3F09002FA
:0934B80036E0FBA3E0FAA3E0F901
:1034C100900239EBF0A3EAF0A3E9F090023CE0FBB3
:1034D100A3E0FAA3E0F91223F0FF602F900239E094
:1034E100FBA3E0FAA3E0F91223F0B507056003EFAF
:1034F10070037F012290023AE475F00112246A9070
:0E350100023DE475F00112246A80C07F0022B2
:10377B00900236E0FBA3E0FAA3E0F99000191224C3
:09378B000990001AFF122409FD47
:10379400C3EF648094C14006EF24C9FF800474D051
:1037A4002FFFC3ED648094C14006ED24C9FD80045D
:0B37B40074D02DFDEFC454F04DFF2237
:05392300FF122409FD64
:10392800C3EF648094C14006EF24C9FF800474D0BB
:103938002FFFC3ED648094C14006ED24C9FD8004C7
:0C39480074D02DFDEF75F00AA42DFF22B5
:10325F001232BF900232E0FBA3E0FAA3E0241AF986
:10326F00E43AFA90026DE0FD1232BF900232E0FBB9
:10327F00A3E0FAA3E0241CF9E43AFA90026AE0FD15
:10328F001232BF900232E0FBA3E0FAA3E0241EF952
:10329F00E43AFA900268E0FD1232BF900232E0FB8E
:1032AF00A3E0FAA3E09002772421F9E43AFAE0FDD3
:1032BF00EDC4540FFFC3940AEF4004243780022457
:1032CF0030122436740129F9E43AFAED540FFFC392
:0E32DF00940AEF400424378002243012243673
:0132ED0022BE
:1038EE0090020A7401F0780DE6B403047F0380029F
:1038FE007F0190020AEFF07809E67812F67811E669
:10390E00900269F0EF70047F0180027F0012267131
:05391E00783A76032257
:103A520090020A7401F07809E67812F67401700493
:0E3A62007F0180027F00122671783A760322DF
:1039540090020AE0780DF6E4F07812E67809F69021
:103964000269E07811F6E4F0780CF69001FAF07050
:0F397400047F0180027F00122671783A760322C9
:10398300E4900208F0900279F0123954783A7605FF
:1039930090020AE070047F0180027F00122671E426
:0C39A300900209F0780CF69001FAF02276
:05267100900239EFF0BA
:10267600123BE37834E670F87838F67F649001957B
:10268600E4F0A3DFFCE4FFEFFD3395E0FC740D2DD1
:10269600F582741B3CF583E493FE74952DF58274E4
:1026A600013CF583EEF00FEFB452DC7B017A017941
:1026B600A0900239E0FD1232BF7A0179A390020A96
:1026C600E0B40308900289E0FFFD80027D07123224
:1026D600BF7B017A0179A6900269E07003FD800252
:1026E6007D011232BF7B017A0179A9900269E0B4BB
:1026F60009047D0180027D001232BF7B017A0179D7
:10270600AC90026DE0FD1232BF7A0179AE90026A9A
:10271600E0FD1232BF7A0179B0900268E0FD123214
:10272600BF7A0179B3900277E0FD1232BF7A017960
:10273600B67812E6FD1232BF7A0179B9A21BE433EC
:10274600FD1232BF7A0179BC780CE6FD1232BF7AEF
:102756000179BFE4FD1232BF7A0179C2900202E02C
:10276600FD1232BF7A0179C5900205E0B409047DF5
:102776000180027D001232BF7B017A0179C8900187
:10278600FFE0FD1232BF7A0179CA900200E0FD1225
:1027960032BF7A0179CC900201E0FD1232BF7A0194
:1027A60079CF900206E0FD1232BF7A0179D290020B
:1027B60003E0FD1232BF7A0179D59001FBE0FD12EC
:1027C60032BF7A0179D89001FCE0FD1232BF7A015E
:1027D60079DB9001FDE0FD1232BF7A0179DE9001CE
:1027E600FEE0FD1232BF7A0179E1900207E0FD12A8
:1027F60032BF783A7602E47839F67834760178375B
:10280600760A7839E6062495F582E43401F583E004
:0B281600F5E5900231E070037402F061
:012821002294
:0B052900900232EBF0A3EAF0A3E9F02F
:100534002403F9E43AFA900236EBF0A3EAF0A3E9D3
:10054400F090023C74FFF0A37418F0A374A8F012A6
:1005540034C1EF6003020725900236E0FBA3E0FA02
:10056400A3E0F990000F12240924D0900202F0C3F2
:1005740094074002E4F0900012122409FF24D09062
:100584000205F0EFB43111900015122409B43104BE
:100594007F0980067F0A80027F00900205EFF090B9
:1005A4000236E0FBA3E0FAA3E0F990001712240955
:1005B40090001812378F9001FFEFF012377B9002F2
:1005C40000EFF0900236E0FBA3E0FAA3E0F990001C
:1005D4001B122409FF90001C123790900201EFF0C7
:1005E400900236E0FBA3E0FAA3E0F990001F122486
:1005F4000924D0900206F0900021122409FF9000F3
:1006040022123790900203EFF0900236E0FBA3E051
:10061400FAA3E0F990002512240924D0900204F0F2
:1006240090002812240924D09001FBF090002A1293
:100634002409FF90002B1237909001FCEFF09002F8
:1006440036E0FBA3E0FAA3E0F990002D122409FFA1
:1006540090002E1237909001FDEFF0900236E0FBEF
:10066400A3E0FAA3E0F9900030122409FF900031CE
:100674001237909001FEEFF0900236E0FBA3E0FA0F
:10068400A3E0F9900033122409FF9000341237904C
:10069400900207EFF053ABFB900236E0FBA3E0FAC5
:1006A400A3E0F9900036122409FF90003712379026
:1006B400780FA607900236E0FBA3E0FAA3E0F990D6
:1006C4000039122409FF90003A123790780AA607DD
:1006D400900236E0FBA3E0FAA3E0F990003C122478
:1006E40009FF90003D123790780EA607900236E07D
:1006F400FBA3E0FAA3E0F990004912240924D0787E
:100704000BF6E6901A5C93F643AB049001FBE060B1
:100714000BA3E0547F7005D202020C96C202020CB5
:100724009690023C74FFF0A37418F074B21234B4BF
:10073400EF60030207BD900236E0FBA3E0FAA3E0FA
:10074400F990001112240924D09001FBF053ABFB63
:10075400900013122409FF900014123790780FA60A
:1007640007900236E0FBA3E0FAA3E0F9900016122A
:100774002409FF900017123790780AA60712377BD6
:10078400780EA607900236E0FBA3E0FAA3E0F99006
:10079400002612240924D0780BF6E6901A5C93F60E
:1007A40043AB049001FBE0600BA3E0547F7005D2DF
:1007B40002020C96C202020C9690023C74FFF0A353
:1007C4007418F0A374BE1234B5EF701A900232E0BC
:1007D400FBA3E0FAA3E0F91233D790020AE0600326
:1007E400020C960238EE90023C74FFF0A37418F0E9
:1007F400A374CB1234B5EF7042900232E0FBA3E055
:10080400FAA3E0F91233D790020AE07003123A52C5
:10081400900208E0600BE4F0A3F0780CF69001FA83
:10082400F07811E6900269F0700204F0900277E02B
:10083400FF70057F0102094502094590023C74FFDF
:10084400F0A37418F0A374DA1234B5EF704D90026B
:1008540032E0FBA3E0FAA3E0F91233D790020AE0F6
:100864007003123A52900208E0600BE4F0A3F078AF
:100874000CF69001FAF09002697409F0E4900270A9
:10088400F090026EF090026CF090026BF0900277A0
:10089400E0FF70047F01800002094590023C74FF70
:1008A400F0A37418F0A374ED1234B5EF60030209D9
:1008B4004B900232E0FBA3E0FAA3E0F91233D790A5
:1008C400020AE07003123A52900208E0600BE4F06E
:1008D400A3F0780CF69001FAF0900236E0FBA3E066
:1008E400FAA3E0F990000B122409FF90000C1237D0
:1008F4009090026DEFF0900236E0FBA3E0FAA3E0E3
:10090400F990000D122409FF90000E123790900206
:100914006AEFF0900236E0FBA3E0FAA3E0F990005E
:100924000F122409FF900010123790900268EFF024
:10093400900269740AF0900277E0FF70047F0180EE
:1009440000900277EFF02290023C74FFF0A3741839
:10095400F0A374F81234B5EF706D900232E0FBA38B
:10096400E0FAA3E0F91233D790020AE07003123AD6
:1009740052900208E0600BE4F0A3F0780CF69001CA
:10098400FAF0C201C21B90020A7403F0900236E02E
:10099400FBA3E0FAA3E0F990001A12240924D0FF83
:1009A400900289F07833E6B5070478307618783AFF
:1009B4007601900289E075F018A42465F9741A355B
:1009C400F0FA7BFF02148C90023C74FFF0A37419BC
:1009D400F0A3740A1234B5EF703290020AE0700387
:1009E400123A52900208E0600BE4F0A3F0780CF69F
:1009F4009001FAF090020A7403F0C201C21B900243
:100A040089E0700304F022783076182290023C7456
:100A1400FFF0A37419F0A374151234B5EF60030248
:100A24000AB8900232E0FBA3E0FAA3E0F91233D74C
:100A340090020AE07003123A52900208E0600BE45C
:100A4400F0A3F0780CF69001FAF090020BE090021B
:100A540089F090020CE0900269F090020DE090029F
:100A64006DF090020EE090026AF090020FE09002A6
:100A740068F0900210E0900277F0900211E0781292
:100A8400F6A3E090020AF0900213E024FF921B20E8
:100A94001B03C38001D39201E433900214F0201BA2
:100AA400047F1880027F177830A607900215E09023
:100AB40001FAF02290023C74FFF0A37419F0A374BD
:100AC4001F1234B5EF6003020C58900232E0FBA30E
:100AD400E0FAA3E0F91233D790020AE07003123A65
:100AE40052900208E0600BE4F0A3F0780CF6900159
:100AF400FAF0123A2C900236E0FBA3E0FAA3E0F9F4
:100B040090000E12240924D0900289F090020BF078
:100B1400900011122409FFB431047E0180027E008A
:100B2400900269EEF090020CF0EFB4311C900236A2
:100B3400E0FBA3E0FAA3E0F9900014122409B43115
:100B4400047F0980067F0A80027F00900269EFF02B
:100B540090020CF0900236E0FBA3E0FAA3E0F990D7
:100B64000016122409FF90001712379090026DEFBF
:100B7400F090020DF0900236E0FBA3E0FAA3E0F956
:100B8400900018122409FF90001912379090026AFD
:100B9400EFF090020EF0900236E0FBA3E0FAA3E03F
:100BA400F990001A122409FF90001B12379090024A
:100BB40068EFF090020FF0900236E0FBA3E0FAA396
:100BC400E0F990001D12240990001E1239239002AE
:100BD40077EFF0900210F0900236E0FBA3E0FAA366
:100BE400E0F9900020122409FF9000211237907838
:100BF40012EFF6900211F090020A7403F0900212C0
:100C0400F0900236E0FBA3E0FAA3E0F9900024128E
:100C1400240924D024FF921BE433900213F0201BF8
:100C240003C38001D39201E433900214F0201B0427
:100C34007F1880027F177830A607900026122409B7
:100C4400FF900027123790780CEFF69001FAF0909D
:100C54000215F02290023C74FFF0A37419F0A374FF
:100C6400281234B5EF7001221234A8EF70097BFF0B
:100C74007A19793602148C90023C74FFF0A374192B
:100C8400F0A374431234B5EF7008783AF690023149
:100C9400F02290020AE0700302135390023C74FFA6
:100CA400F0A37419F0A374491234B5EF70012290C3
:100CB400023C74FFF0A37419F0A374531234B5EF1B
:100CC400701E900232E0FBA3E0FAA3E0F91233D7DE
:100CD400900208E06003020F11783A760302395457
:100CE40090023C74FFF0A37419F0A374611234B53C
:100CF400EF700990020A7402F002134590023C74EA
:100D0400FFF0A37419F0A3746C1234B5EF70129051
:100D1400020AE06403600302148FD21B7830761752
:100D24002290023C74FFF0A37419F0A37478123477
:100D3400B5EF70012290023C74FFF0A37419F0A384
:100D440074851234B5EF7023900208E06003020F3B
:100D540011900236E0FBA3E0FAA3E0F9900014122C
:100D64002409900015123923020DE590023C74FF0A
:100D7400F0A37419F0A3749A1234B5EF7029900299
:100D840008E06003020F117812E6FFC3940A5013BF
:100D9400EF94085007E62402FFF68009781206E66D
:100DA400FF80027F0A803A90023C74FFF0A374191A
:100DB400F0A374A41234B5EF7030900208E060031D
:100DC400020F117812E6FFD394014013EF9403400D
:100DD40007E624FEFFF68009781216E6FF80027FFC
:100DE400017812A607C20102134590023C74FFF079
:100DF400A37419F0A374B01234B5EF7003D20122B6
:100E040090023C74FFF0A37419F0A374BB1234B5C0
:100E1400EF7003C2012290023C74FFF0A37419F036
:100E2400A374C81234B5EF7026900208E060030280
:100E34000F11900236E0FBA3E0FAA3E0F990000A58
:100E4400122409FF90000B123924780CEF801F90B4
:100E5400023C74FFF0A37419F0A374D21234B5EFFA
:100E64007014900208E06003020F11E4780CF6900D
:100E740001FAF002134590023C74FFF0A37419F0D8
:100E8400A374E11234B5EF7011900208E06003021C
:100E94000F11E4900269F002134590023C74FFF0D4
:100EA400A37419F0A374F11234B5EF701A90020808
:100EB400E060028058900277E0C394034003021379
:100EC40045E004F002134590023C74FFF0A374194A
:100ED400F0A374FA1234B5EF701A900208E06002BD
:100EE400802B900277E0D394005003021345E01462
:100EF400F002134590023C74FFF0A3741AF0A3743B
:100F0400051234B5EF7029900208E06003023983BA
:100F1400900236E0FBA3E0FAA3E0F9900018122453
:100F240009FF900019123924900277EFF00213455B
:100F340090023C74FFF0A3741AF0A3741D1234B52C
:060F4400EF600302111230
:100F4A00900235F0900235E0FFC39464501C900281
:100F5A0032E0FBA3E0FAA3E0F98F82758300E41282
:100F6A002448900235E004F080DAE4900235F090EB
:100F7A000235E0FF901B6093FE900232E0FBA3E093
:100F8A00FAA3E0F98F82758300EE122448900235A5
:100F9A00E004F0E0B43ED8900232E0FBA3E0FAA30A
:100FAA00E0240EF9E43AFAE4FD1232BF900232E08C
:100FBA00FBA3E0FAA3E02411F9E43AFA900202E072
:100FCA00FF6003FD80027D071232BF900232E0FB10
:100FDA00A3E0FAA3E02414F9E43AFA900205E070D7
:100FEA0003FD80027D011232BF900232E0FBA3E0D2
:100FFA00FAA3E02417F9E43AFA900205E0B40904E6
:10100A007D0180027D001232BF900232E0FBA3E034
:10101A00FAA3E0241AF9E43AFA9001FFE0FD123249
:10102A00BF900232E0FBA3E0FAA3E0241CF9E43A01
:10103A00FA900200E0FD1232BF900232E0FBA3E018
:10104A00FAA3E0241EF9E43AFA900201E0FD123212
:10105A00BF900232E0FBA3E0FAA3E090020612324C
:10106A00B7900232E0FBA3E0FAA3E02424F9E43AC1
:10107A00FA900203E0FD1232BF900232E0FBA3E0D5
:10108A00FAA3E02427F9E43AFA900204E0FD1232C6
:10109A00BF900232E0FBA3E0FAA3E0242AF9E43A83
:1010AA00FA9001FBE0FD1232BF900232E0FBA3E0AE
:1010BA00FAA3E0242DF9E43AFA9001FCE0FD123299
:1010CA00BF900232E0FBA3E0FAA3E02430F9E43A4D
:1010DA00FA9001FDE0FD1232BF900232E0FBA3E07C
:1010EA00FAA3E02433F9E43AFA9001FEE0FD123261
:1010FA00BF900232E0FBA3E0FAA3E02436F9E43A17
:05110A00FA900207E06D
:10110F0002123890023C74FFF0A3741AF0A37428F3
:09111F001234B5EF600302124323
:10112800900235F0900235E0FFC39464501C9002A1
:1011380032E0FBA3E0FAA3E0F98F82758300E412A2
:101148002448900235E004F080DAE4900235F0900B
:101158000235E0FF901B9D93FE900232E0FBA3E076
:10116800FAA3E0F98F82758300EE122448900235C5
:10117800E004F0E0B430D8900232E0FBA3E0FAA338
:10118800E0240EF9E43AFA7D011232BF900232E00F
:10119800FBA3E0FAA3E02411F9E43AFA90020AE08A
:1011A800B40308900289E0FFFD80027D071232BF78
:1011B800900232E0FBA3E0FAA3E02414F9E43AFA3F
:1011C800900269E07003FD80027D011232BF900237
:1011D80032E0FBA3E0FAA3E02417F9E43AFA90021C
:1011E80069E0B409047D0080027D0112325F90023B
:1011F80032E0FBA3E0FAA3E02424F9E43AFA7812F7
:10120800E6FD1232BF900232E0FBA3E0FAA3E0242D
:1012180027F9E43AFAA21BE433FD1232BF900232F6
:10122800E0FBA3E0FAA3E0242AF9E43AFA780CE612
:08123800FD1232BF783A760284
:1012400002134590023C74FFF0A3741AF0A37433A8
:101250001234B5EF60030212F5900236E0FBA3E012
:10126000FAA3E0F990000A122409FF90000B12374C
:1012700090EF7F00FEC007C006900236E0FBA3E0BF
:10128000FAA3E0F990000C122409FF90000D123728
:1012900090EFFD3395E0FCD0E04CFED0E04D7818A7
:1012A000A60608F6900236E0FBA3E0FAA3E0F99068
:1012B0000011122409FF900012123790EF7F00FEF8
:1012C000C007C006900236E0FBA3E0FAA3E0F99065
:1012D0000013122409FF900014123790EFFD33958C
:1012E000E0FCD0E04CFED0E04D781CA60608F612DB
:1012F000149002134590023C74FFF0A3741AF0A3FB
:10130000743B1234B5EF7004783AF6221234A8EF29
:1013100070097BFF7A19793602148C90023C74FFB5
:10132000F0A3741AF0A374421234B5EF7017783A30
:10133000F690022CF090022EF0D20590020A04F0F2
:101340007F0A0239AF900232E0FBA3E0FAA3E0F992
:1013500002148C90023C74FFF0A3741AF0A3745230
:091360001234B5EF6003021481A0
:10136900900235F0900235E0FFC39464501C90025E
:1013790032E0FBA3E0FAA3E0F98F82758300E4125F
:101389002448900235E004F080DAE4900235F090C8
:101399000235E0FF901BCE93FE900232E0FBA3E002
:1013A900FAA3E0F98F82758300EE12244890023582
:1013B900E004F0E0B430D8900232E0FBA3E0FAA3F5
:1013C900E0240EF9E43AFAE4FD1232BF900232E069
:1013D900FBA3E0FAA3E02411F9E43AFA90020AE047
:1013E900B40308900289E0FFFD80027D071232BF35
:1013F900900232E0FBA3E0FAA3E02414F9E43AFAFC
:10140900900269E07003FD80027D011232BF9002F3
:1014190032E0FBA3E0FAA3E02417F9E43AFA9002D8
:1014290069E0B409047D0080027D0112325F9002F7
:1014390032E0FBA3E0FAA3E02424F9E43AFA7812B3
:10144900E6FD1232BF900232E0FBA3E0FAA3E024EA
:1014590027F9E43AFAA21BE433FD1232BF900232B3
:10146900E0FBA3E0FAA3E0242AF9E43AFA780CE6CF
:08147900FD1232BF783A760241
:0E148100900232E0FBA3E0FAA3E0F91233D7A9
:01148F00223A
:103A2C0078217C027D017B017A0279167E007F0B66
:103A3C001223CA78167C027D017B017A02790B7EF7
:063A4C00007F0B0223CAFB
:0F3B470024242454696D652073796E630D0A0080
:043BD8004102310075
:10350F00D2097813E6FF7002D20CEFB40102D20D8C
:10351F00EFB40202D20EEFB40302D20FEFB40402E3
:10352F00D210EFB40502D211EF640670247837166B
:10353F00E670037834F6783616E670037835F67849
:10354F002616E670037824F6782516E6700378279A
:0D355F00F6781306E6C3940A4002E4F62253
:10282200780EE6FF78146670030229D2A60790029A
:1028320008E060199001F9E004F0D3940A400EE434
:10284200F0900203E0FF7812E69F500106900230FA
:10285200E0B4012190022FE004F0E0C3940A401595
:10286200E4F0783A76037BFF7A3B79471233D790CC
:1028720002307402F0780AE6FF78106670030229CB
:10288200D2A607780CE6601F16E6701B123954E4D4
:10289200900208F0783A760390020AE070047F0111
:1028A20080027F00122671900209E0601F14F0700E
:1028B2001B123954E4900208F0783A760590020A25
:1028C200E070047F0180027F001226719001FBE01C
:1028D2006401600302299A9001FDE0780F666003AB
:1028E20002299AA3E0780A66600302299A9001FC01
:1028F200E0FF08E6FEEF5E700620020302299AEF6F
:1029020020E70B9001FCE0FFEEF4FEEF5EF0C20266
:1029120078127601C201E49001F9F090020804F005
:1029220090020A7403F09001FFE090026DF09002B1
:1029320000E090026AF0900201E0900268F09002DA
:1029420002E0900289F0900204E024FF921B201B17
:1029520003C38001D39201201B047F1880027F17DA
:102962007830A607900205E0900269F0900206E036
:10297200900277F0900207E0900209F0780CF6904E
:1029820001FAF090020AE070047F0180027F0012D7
:102992002671783A7603D207900230E0B4021090A2
:1029A200022FE004F0E0C394024004E4F0D206787F
:1029B2000FE6FF7808666018A60790022DE004F083
:1029C200E0C39418400AE4F09002307402F0D20698
:0129D20022E2
:1030BC00020500E493A3F8E493A34003F68001F225
:1030CC0008DFF48029E493A3F85407240CC8C33315
:1030DC00C4540F4420C8834004F456800146F6DFE4
:1030EC00E4800B0102040810204080903BD6E47E63
:1030FC00019360BCA3FF543F30E509541FFEE493D9
:10310C00A360010ECF54C025E060A840B8E493A39F
:10311C00FAE493A3F8E493A3C8C582C8CAC583CACA
:10312C00F0A3C8C582C8CAC583CADFE9DEE780BE82
:013BDC0000E8
:1022FA00E709F608DFFA8046E709F208DFFA803EC6
:10230A0088828C83E709F0A3DFFA8032E309F608B2
:10231A00DFFA8078E309F208DFFA807088828C831A
:10232A00E309F0A3DFFA806489828A83E0A3F608CE
:10233A00DFFA805889828A83E0A3F208DFFA804CA8
:10234A0080D280FA80C680D4806980F2803380107F
:10235A0080A680EA809A80A880DA80E280CA8033E8
:10236A0089828A83ECFAE493A3C8C582C8CCC58360
:10237A00CCF0A3C8C582C8CCC583CCDFE9DEE78030
:10238A000D89828A83E493A3F608DFF9ECFAA9F0AF
:10239A00EDFB2289828A83ECFAE0A3C8C582C8CC05
:1023AA00C583CCF0A3C8C582C8CCC583CCDFEADE1E
:1023BA00E880DB89828A83E493A3F208DFF980CC80
:1023CA0088F0EF60010E4E60C388F0ED2402B40479
:1023DA000050B9F582EB2402B4040050AF23234520
:0623EA00822390234A73D8
:1023F000BB010689828A83E0225002E722BBFE02EB
:09240000E32289828A83E493221D
:10240900BB010CE58229F582E5833AF583E0225088
:1024190006E92582F8E622BBFE06E92582F8E222D2
:0D242900E58229F582E5833AF583E49322EC
:10243600BB010689828A83F0225002F722BBFE0185
:02244600F3227F
:10244800F8BB010DE58229F582E5833AF583E8F0CA
:10245800225006E92582C8F622BBFE05E92582C876
:02246800F2225E
:10246A00C5F0F8A3E028F0C5F0F8E58215827002FD
:06247A001583E038F0229A
:10248000A3F8E0C5F025F0F0E5821582700215830F
:06249000E0C838F0E8226C
:10249600D083D082F8E4937012740193700DA3A3D5
:1024A60093F8740193F5828883E4737402936860E9
:0624B600EFA3A3A380DFE9
:00000001FF
