:03000000021000EB
:03000300021003E5
:03000B0002100BD5
:03001300021013C5
:03001B0002101BB5
:03002300021023A5
:03002B0002102B95
:0300330002103385
:03003B0002103B75
:0300430002104365
:03004B0002104B55
:0300530002105345
:03005B0002105B35
:0300630002106325
:03006B0002106B15
:0300730002107305
:03007B0002107BF5
:03008300021083E5
:03008B0002108BD5
:1010000078FFE4A921B8200118F6D8F989219000C9
:10101000007F007E07E4F0A3DFFCDEFA7581210289
:021020001AC2F2
:071DB90075815F020C00229E
:101CC000E4FDFCEFFBC3ED9BEC94005015E4FBFA44
:101CD0000BBB00010ABA01F8BBF4F50DBD00010C05
:021CE00080E1A1
:011CE20022DF
:101BD10053A87F121C25121B07E49001BBF01210C1
:101BE1002E121D2643A880C205E4900034F0900017
:101BF10002F0900000F0900001F0C207902EC07436
:101C0100C2F07F01121CC0121C5C902EC0E020E7C4
:101C1100F91210563007E575A880E4F5A9F5AA1266
:041C21000C0080D85B
:101C2500E4F586758A10538AEF75ABFF75AC0275BE
:101C3500ACFF75AEFFF5897591FFF599F5A1F596A0
:101C4500F593F59BF59BF595F592F59AF59DF58040
:071C5500F588F590F59822D7
:1019A100F0A3F0A3F0A3F0A3F0A3F0A3F0A3F0A39E
:1019B100F0A3F0A3F0A3F0222400FFEC3EF0A3EF8C
:1019C100F022E0FEA3E02400FFEC3E2290028BE037
:1019D10025E0FF90028AE033FE74F62FF582740051
:1019E1003EF5832290028AE0FEA3E0FFC39418EE45
:1019F10094002290028BE025E0FF90028AE033FE02
:101A010022E0FCA3E0FD74862FF58274013EF5838C
:101A1100E0FEA3E022E004F0E490028AF0A3F022C9
:101A210074032FF58274003EF583ECF0A3EDF022F0
:101A310025E0FFEA33FE74C52FF582740022746538
:101A41002FF58274003EF583E4F0A3F02290028B1F
:101A5100E004F02290028AE004F0222426F5827448
:101A6100013EF58322E0FCA3E0FD74032FF58274AF
:101A7100002274862FF58274013EF583E02274956D
:061A81002FF58274002223
:101D7B009000337402F0121C5C43A82053A9F72285
:10105600900033E024FE60181470030210F7147039
:10106600030211A9240360030213B3C206021D7B07
:1010760053A9F77FE8121CC02005030213B39000A2
:1010860034121A1690028AE0FCA3E0FD25E0FFEC7C
:1010960033FE121A73FAA3E0FB1219DAEAF0A3EB95
:1010A600F0121A7F121A46EDAE047802C333CE331D
:1010B600CED8F9121A5C121814000000001219F4A6
:1010C600121A3F121A4E7003121A5590028AE070D5
:1010D60004A3E0641870ADC205121C5C900034E0F5
:1010E600D3940850030213B3E4F09000337403F072
:1010F60022300550900002121A161219E55043EFDD
:101106007802C333CE33CED8F9121A5CC083C082BC
:10111600E0F8A3E0F9A3E0FAA3E0FB1219F4121A2F
:1011260007FFE4FCFDEB2FFFEA3EFEED39FDEC3850
:10113600FCD082D083121808121A4E70BD121A55AE
:1011460080B8C205900002E0D3940250030213B0A7
:10115600121A191219E55038EF7802C333CE33CE7E
:10116600D8F9121A5CE0FCA3E0FDA3E0FEA3E0FFC1
:10117600E47B03FAF9F8121776AD07AC061219F4F8
:10118600121A7F121A28121A4E70C8121A5580C3E4
:1011960043A908E4900002F09000337404F0D201F1
:1011A6000213B02005030213AE20010302128DC202
:1011B60001121A191219E5400302128BEF25E0FFFE
:1011C600EE1219D8121A02D39DEE9C40551219CD73
:1011D600121A02C39DFFEE9CC313FEEF13FFED2F01
:1011E600FDEC3EFC90028AE0FAA3E0FB25E0FFEA74
:1011F60033FE121A211219DA121A66121A0EC39D3A
:10120600FFEE9CFEEF7802CEC313CE13D8F9FDACE9
:1012160006EB25E0FFEA1219D8EC8DF0121724022E
:1012260012801219F4121A73FCA3E0FD1219DAE007
:10123600FAA3E0FBC39DFFEA9CC313FEEF13FFC3B3
:10124600EB9FFDEA9EFC1219F4121A211219DAC05C
:1012560083C082121A66121A0EFFC3ED9FFFEC9E20
:10126600FEEF7802CEC313CE13D8F9FFC3ED9FFF6E
:10127600EC9ED082D083F0A3EFF0121A4E700312C8
:101286001A550211BAD203300378900000121A16CA
:101296001219E5506B900000E0FD6405703FEDB457
:1012A6000608E4F0C203D204804BEF25E0FDEE33DE
:1012B600FC74652DF58274003C121A0F7802CEC3B9
:1012C60013CE13D8F9FF74352DF58274003CF583DF
:1012D600EEF0A3EFF01219F4121A3F80181219CD8E
:1012E600E0FCA3E0FD74652FF58274003EF583EC07
:1012F6008DF0121724121A4E7003121A5502129606
:10130600D204300460121A191219E55054EF25E080
:10131600FFEE33FE121A7F3EF583E0FCA3E0FD12DA
:1013260019DAE0FEA3E0C39DFFEE9CFE121D9BAC06
:1013360006AD0790028AE0FAA3E0FB121A31121AF0
:1013460028121A37121A0ED3941EEE94005007EB89
:10135600121A31121A46121A4E7003121A55021335
:101366000EC204D2021213B430023D121A19121917
:10137600E55031EF25E0FFEE121A35121A0ED3941E
:1013860064EE9400401490028AA3E0049001BBF03E
:10139600C28A000000000000D28A121A4E70CF12D4
:0D13A6001A5580CAC202D201C205121C5C99
:0113B3002217
:101C5C00900001E0B41802E4F0900001E0FFC3949E
:101C6C00085007902EC67411800FEFD3940F902E4E
:101C7C00C64004741480027412F0902EC074C1F02B
:071C8C00900001E004F022CA
:101B0700902EC0E4F0902ECB74F7F0000000000098
:101B170000A37448F0902F58E0540F2410902EC85B
:101B2700F0A374E8F0A3743FF0902E407488121964
:101B3700A1A31219A1902EC574FFF0A37410F09001
:101B47002ECD74FFF0A3F0A3F0902EC17490F0A3F4
:101B57007401F0A37490F0A37407F043E28043A8E4
:081B6700209000337401F0220C
:1013B4009000C5A3E09001DBF09000C5E09001DC53
:1013C400F09000C7A3E09001DDF09000C7E0900129
:1013D400DEF09000C9A3E09001DFF09000C9E09036
:1013E40001E0F09000CBA3E09001E1F09000CBE0AD
:1013F4009001E2F09000CDA3E09001E3F09000CDE5
:10140400E09001E4F09000CFA3E09001E5F09000BB
:10141400CFE09001E6F09000D1A3E09001E7F090D6
:1014240000D1E09001E8F09000D3A3E09001E9F04E
:101434009000D3E09001EAF09000D5A3E09001EB96
:10144400F09000D5E09001ECF09000D7A3E090017B
:10145400EDF09000D7E09001EEF09000D9A3E09079
:1014640001EFF09000D9E09001F0F09000DBA3E0F0
:101474009001F1F09000DBE09001F2F09000DDA328
:10148400E09001F3F09000DDE09001F4F09000DFD3
:10149400A3E09001F5F09000DFE09001F6F09000F9
:1014A400E1A3E09001F7F09000E1E09001F8F09002
:1014B40000E3A3E09001F9F09000E3E09001FAF07A
:1014C4009000E5A3E09001FBF09000E5E09001FCC2
:1014D400F09000E7A3E09001FDF09000E7E09001B8
:1014E400FEF09000E9A3E09001FFF09000E9E090A5
:1014F4000200F09000EBA3E0900201F09000EBE01A
:10150400900202F09000EDA3E0900203F09000ED51
:10151400E0900204F09000EFA3E0900205F0900048
:10152400EFE0900206F09000F1A3E0900207F09043
:1015340000F1E0900208F09000F3A3E0900209F0BB
:101544009000F3E090020AF09000F6A3E090020B02
:10155400F09000F6E090020CF09000F8A3E0900206
:101564000DF09000F8E090020EF09000FAA3E090E5
:10157400020FF09000FAE0900210F09000FCA3E05B
:10158400900211F09000FCE0900212F09000FEA393
:10159400E0900213F09000FEE0900214F09001003D
:1015A400A3E0900215F0900100E0900216F0900183
:1015B40002A3E0900217F0900102E0900218F0906C
:1015C4000104A3E0900219F0900104E090021AF0E3
:1015D400900106A3E090021BF0900106E090021C2B
:1015E400F0900108A3E090021DF0900108E0900241
:1015F4001EF090010AA3E090021FF090010AE0900F
:101604000220F090010CA3E0900221F090010CE084
:10161400900222F090010EA3E0900223F090010EBC
:10162400E0900224F0900110A3E0900225F09001D4
:1016340010E0900226F0900112A3E0900227F090AF
:101644000112E0900228F0900114A3E0900229F026
:10165400900114E090022AF0900116A3E090022B6E
:10166400F0900116E090022CF0900118A3E0900293
:101674002DF0900118E090022EF090011AA3E09052
:10168400022FF090011AE0900230F090011CA3E0C8
:10169400900231F090011CE0900232F090011EA300
:1016A400E0900233F090011EE0900234F0900120AB
:1016B400A3E0900235F0900120E0900236F0900112
:1016C40022A3E0900237F0900122E0900238F090DB
:1016D4000124A3E0900239F0900124E090023AF052
:0116E40022E3
:03102B0002184563
:10184500C0E0C083C082C0D075D000C004C006C04F
:1018550007D205902E00E0FEA3E07C0090018612E1
:1018650019B9902E02E0FEA3E09001881219B990F3
:101875002E041219C390018AF0A3EFF0902E0612E0
:1018850019C390018CF0A3EFF0902E081219C390A4
:10189500018EF0A3EFF0902E0A1219C3900190F07B
:1018A500A3EFF0902E0C1219C3900192F0A3EFF064
:1018B500902E0E1219C3900194F0A3EFF0902E1004
:1018C5001219C3900196F0A3EFF0902E121219C3CE
:1018D500900198F0A3EFF0902E141219C390019A7D
:1018E500F0A3EFF0902E161219C390019CF0A3EF10
:1018F500F0902E181219C390019EF0A3EFF0902ED0
:101905001A1219C39001A0F0A3EFF0902E1C121922
:10191500C39001A2F0A3EFF0902E1E1219C39001FF
:10192500A4F0A3EFF0902E201219C39001A6F0A306
:10193500EFF0902E221219C39001A8F0A3EFF090BA
:101945002E241219C39001AAF0A3EFF0902E2612AF
:1019550019C39001ACF0A3EFF0902E281219C39093
:1019650001AEF0A3EFF0902E2A1219C39001B0F04A
:10197500A3EFF0902E2C1219C39001B2F0A3EFF053
:10198500902E2E1219C39001B4F0A3EFF0D007D01A
:0C19950006D004D0D0D082D083D0E03245
:101D43004101BA014101B8004101B9004201B600A5
:011D5300008F
:101D5F009001B9E0FF04F074BB2FF582E43401F574
:0C1D6F00832275DA4043DA2075D7C022C9
:0A1DA700E4F5DA121D7175DA582216
:03104B00021B6F16
:101B6F00C0E0C083C082C0D075D000C007E5DB30B5
:101B7F00E40EE5DB30E102801B9001B8E4F0803425
:101B8F00E5DB30E505121DA7802AE5DB30E10DE529
:101B9F00DB30E020121D5FE0F5DF80189001B8E028
:101BAF00700CA3E5DFF09001B87401F08006121DF0
:101BBF005FE5DFF075DBFFD007D0D0D082D083D0C8
:021BCF00E03202
:10102E00121D7175D6C075DA5843A90875B840758A
:0D103E00F8409001BC7410F0A3F0A3F02264
:081DB10055AAC33C7EE7ACCA51
:0A1D540042028500004202830000F5
:08102200E5FD30E7FB8FFF2222
:101D8B00E5FD30E508E5FF1217127F01227F0022E7
:0B1C9300900287EBF0A3EAF0A3E9F059
:101C9E00E4FEEEC39D501A900287E0FBA3E0FAA388
:101CAE00E0F98E827583001216E5FF1210220E8067
:011CBE00E144
:011CBF002202
:101D0500E510C394085016E510901DB193B5070B67
:101D15000510E510B40809D20780028000E4F5102B
:011D2500229B
:03105300021CE399
:0D1CE300C0E0C083C082C0D075D000C00733
:0A1CF000E5FD30E505AFFF121D050C
:0B1CFA00D007D0D0D082D083D0E032E1
:101D260075FA0675FB2EE4F5FC75FE6743A910F5FA
:0D1D360010C2077F551210227F53021022A9
:101A8700021BD1E493A3F8E493A34003F68001F289
:101A970008DFF48029E493A3F85407240CC8C33360
:101AA700C4540F4420C8834004F456800146F6DF2F
:101AB700E4800B0102040810204080901D43E47E5F
:101AC700019360BCA3FF543F30E509541FFEE49324
:101AD700A360010ECF54C025E060A840B8E493A3EB
:101AE700FAE493A3F8E493A3C8C582C8CAC583CA16
:101AF700F0A3C8C582C8CAC583CADFE9DEE780BECE
:011D5E000084
:1016E500BB010CE58229F582E5833AF583E02250BA
:1016F50006E92582F8E622BBFE06E92582F8E22204
:0D170500E58229F582E5833AF583E493221D
:10171200BB010689828A83F0225002F722BBFE01B6
:02172200F322B0
:10172400C5F0F8A3E028F0C5F0F8E5821582700250
:061734001583E038F022ED
:10173A0075F008758200EF2FFFEE33FECD33CDCC66
:10174A0033CCC58233C5829BED9AEC99E5829840E9
:10175A000CF582EE9BFEED9AFDEC99FC0FD5F0D6C6
:10176A00E4CEFBE4CDFAE4CCF9A88222B800C1B9F0
:10177A000059BA002DEC8BF084CFCECDFCE5F0CB2E
:10178A00F97818EF2FFFEE33FEED33FDEC33FCEB67
:10179A0033FB10D703994004EB99FB0FD8E5E4F922
:1017AA00FA227818EF2FFFEE33FEED33FDEC33FC0F
:1017BA00C933C910D7059BE99A4007EC9BFCE99A03
:1017CA00F90FD8E0E4C9FAE4CCFB2275F010EF2F48
:1017DA00FFEE33FEED33FDCC33CCC833C810D70748
:1017EA009BEC9AE899400AED9BFDEC9AFCE899F883
:0E17FA000FD5F0DAE4CDFBE4CCFAE4C8F92216
:0C180800ECF0A3EDF0A3EEF0A3EFF02253
:10181400A8828583F0D083D08212182B12182B1241
:10182400182B12182BE473E493A3C583C5F0C58366
:10183400C8C582C8F0A3C583C5F0C583C8C582C81E
:011844002281
:0C1D9B00EE30E707C3E49FFFE49EFE2249
:00000001FF
