:030000000233B117
:1033B10078FFE4F6D8FD9000007F007E03E4F0A3DF
:0A33C100DFFCDEFA75813A0201001C
:023E2600C118C1
:1005000053A87F1237ED123D23123E19123E0112FD
:100510003DBA123D51123D7A123DC743A880123AAE
:060520002D12010080DA3B
:03001B000235FAB1
:0F35FA00C0E0C083C082C0D075D000C000C00741
:10360900AFF553F1DF7825760A300E237827E6C324
:103619009408500DE6062424F582E43402F583EF7C
:10362900F0EF640A702A7827F6D210B20E8021785A
:1036390027E6C39408500DE606242CF582E43402EB
:10364900F583EFF0EFB40A0878277600D211B20EAD
:0D365900D007D000D0D0D082D083D0E03296
:0300230002396738
:10396700C0E0C083C082C0D075D000C00053F17FD3
:103977007824E660247826760A7828E606241CF55B
:1039870082E43402F583E0F5F5E6241CF582E4349D
:1039970002F583E070037824F6D000D0D0D082D02F
:0439A70083D0E032B7
:03004B00023792E7
:10379200C0E0C0F0C083C082C0D075D000C000C0FD
:0537A20004C006C00791
:1037A700AFE553E1DF900000E0FCA3E02468F58279
:1037B70074003CF583EFF0900000E475F0011228E7
:1037C70054FEC3E5F0942CEE94014007900000E40A
:0337D700F0A3F06C
:1037DA00D007D006D004D000D0D0D082D083D0F089
:0337EA00D0E032FA
:030053000239ABC4
:1039AB00C0E0C083C082C0D075D000C00053E17F9F
:1039BB007834E660247837760A7839E6062495F56C
:1039CB0082E43401F583E0F5E5E62495F582E434F1
:1039DB0001F583E070037834F6D000D0D0D082D0DC
:0439EB0083D0E03273
:03006B00023AA9AD
:103AA900C0E0C0F0C083C082C0D075D000C000C0E3
:103AB90001C002C003C004C005C006C007123735E3
:103AC900D007D006D005D004D003D002D001D00051
:0B3AD900D0D0D082D083D0F0D0E032FB
:030083000239EF50
:1039EF00C0E0C0F0C083C082C0D075D000C000C09E
:1039FF0001C002C003C004C005C006C0071230B921
:103A0F00123253D007D006D005D004D003D002D045
:0E3A1F0001D000D0D0D082D083D0F0D0E032E1
:0300A3000238DB45
:1038DB00C0E0C0D075D000C000C007B20230022DCE
:1038EB00780E06E6D3943B40247600780A06E6D39E
:1038FB00943B40197600780F06E6D39417400E766A
:10390B0000780BE625E0FFF6BF80027601D007D0EA
:06391B0000D0D0D0E03224
:083DF800AF9FEFFEAD9EEDFF51
:013E0000229F
:073E1900759C80759D0722D6
:0F3D9D00EF540FFFE59C54F04FF59C439C4022E0
:083E0100E4F59AF599F59B2206
:0D3DBA0075B28875B45D43AA0243B20122C0
:103D5100901000748AF0A3744AF043AA10901000E6
:053D6100E04401F02226
:103D7A0075DA0275D90643DAECE4F5DB75E30C4330
:033D8A00A9182253
:103D0B0020181275EA0275E90643EAECE4F5EB7547
:083D1B00F34D43A818D2182251
:103D660030180EE4F5EAF5E9F5EAF5EBF5F353A8B4
:043D7600E7C2182266
:0D3DC70075968875890175898143AB0422CA
:103D230090103874A8F075C80A758B09E58B30E7D5
:083D3300FB758A0143C805225B
:1037ED0075A17FE4F5ACF591F5DEF58075B19875B1
:1037FD00AD20F592F5DFF58875B9FFF5AE7593023D
:10380D00F59075C1FEF5AFF59875C9FEF5A3F59464
:10381D00F5A075D1FFF595F5B075D320F5D2F5D599
:10382D0075D403F5D775D603F5EE75EF0A75FF2D33
:01383D002268
:103CD50024242454696D652073796E630D0A0024CC
:0D3CE5002424416C61726D2075700D0A0081
:10373500D2057813E6FF7002D208EFB40102D20970
:10374500EFB40202D20AEFB40302D20BEFB40402C3
:10375500D20CEFB40502D20DEF640670247837164B
:10376500E670037834F6783616E670037835F67821
:103775002616E670037824F6782516E67003782772
:0D378500F6781306E6C3940A4002E4F6222B
:10252000780EE6FF78146670030226E3A607900291
:102530005CE0601990024DE004F0D3940A400EE490
:10254000F0900257E0FF7812E69F50010690026378
:10255000E0B40121900261E004F0E0C3940A401568
:10256000E4F0783A76037BFF7A3C79D512388D9087
:1025700002637402F0780AE6FF78106670030226A0
:10258000E3A607780CE6601F16E6701B123BB9E461
:1025900090025CF0783A760390025EE070047F016E
:1025A00080027F00122A5B90025DE0601F14F070D1
:1025B0001B123BB9E490025CF0783A760590025E1B
:1025C000E070047F0180027F00122A5B90024FE0DE
:1025D00064016003022695900251E0780F66600363
:1025E000022695A3E0780A666003022695900250C1
:1025F000E0FF08E6FEEF5E7003022695EF20E70697
:10260000EEF4FEEF5EF078127601C201E490024D26
:10261000F090025C04F090025E7403F0900253E0CC
:1026200090026BF0900254E0900268F0900255E046
:10263000900266F0900256E0900285F0900258E019
:1026400024FF9217201703C38001D392012017049F
:102650007F1880027F177830A607900259E0900219
:1026600067F090025AE0900275F090025BE09002F1
:102670005DF0780CF690024EF090025EE070047F00
:102680000180027F00122A5B783A76037BFF7A3C56
:1026900079E412388D900263E0B4021B900261E08D
:1026A00004F0E0C39402400FE4F0783A76037BFF35
:1026B0007A3C79D512388D780FE6FF78086660236A
:1026C000A607900260E004F0E0C394184015E4F01F
:1026D0009002637402F0783A76037BFF7A3C79D5F6
:0326E00012388D20
:0126E30022D4
:102EF30030073D90025FE004F0C3940C400FE4F010
:102F0300900262E004F0D394184002C20790026278
:102F1300E0FF30E00543801080035380EFEF30E0A3
:102F23000543802080035380DFEF30E051022FCA36
:102F330030032590025FE004F0C394324012E4F0C2
:102F4300900262E004F0D394064005C2031200002D
:102F5300438010438020806F30002590025FE0049F
:102F6300F0C3940C400FE4F0900262E004F0D394B9
:102F7300104002C200900262E030E00280498051BA
:102F830090025EE0D394015018900267E0701253F0
:102F930080EF5380DF5380BFE4780CF690024EF04D
:102FA3002290024EE0FFB40F084380105380DF806D
:102FB30020EFB41E085380EF4380208014EFB43C0D
:102FC3000A5380EF5380DF438040225380EF5380C6
:052FD300DF5380BF2266
:103C3F00781276029002757401F090025EF0D20154
:103C4F005390EF783A7603E070047F0180027F0093
:0A3C5F00122A5B9002637401F02248
:103A2D00123C3F12356E300502C205300808C2083F
:103A3D00123E20122102300905C20912318A300AC4
:103A4D0005C20A1228A6300B05C20B122359300CE1
:0E3A5D00D2C20C122EF3123AE412252080C5BC
:102DFF0020202020200D0A0041542B4D540D0A0095
:102E0F0041542B4D410D0A0041542B4D450D0A00E5
:102E1F0041542B4D440D0A0041542B43410D0A00E0
:102E2F0041542B43420D0A0041542B43430D0A00DA
:102E3F0041542B43500D0A0041542B43440D0A00BB
:102E4F0041542B435A0D0A0041542B48300D0A00B0
:102E5F0041542B48310D0A0041542B48320D0A00C2
:102E6F0041542B48330D0A0041542B48340D0A00AE
:102E7F0041542B48350D0A0041542B48360D0A009A
:102E8F0041542B48370D0A0041542B48380D0A0086
:102E9F0041542B48390D0A0041542B48410D0A006B
:102EAF0041542B48420D0A0041542B48430D0A0050
:102EBF0041542B48440D0A0041542B48450D0A003C
:102ECF0041542B48460D0A00000102030607090A68
:102EDF000C0E0F0001020304040405060607070881
:042EEF0008090A0ABA
:103921007824E670FB7F0890021CE4F0A3DFFCE43E
:10393100FF1227DAFE6016741C2FF582E43402F5BB
:1039410083EEF0740129F9E43AFA0F80E4E478286F
:10395100F6782476017828E606241CF582E4340200
:05396100F583E0F5F51F
:01396600223E
:103C1400EFC3940B500CEF75F008A424FFF9742D36
:103C240080107812E6902ED79375F008A42457F9E3
:0A3C3400742E35F0FA7BFF123921DF
:013C3E002263
:102D0300201006201103022DFE301012C210900273
:102D1300347401F0A37402F0A37424F08010C21180
:102D23009002347401F0A37402F0A3742CF09002A7
:102D330034E0FBA3E0FAA3E0F91227DAFFB4491F5A
:102D43009000011227F3FEB44902D213EEB44102FC
:102D5300C213EE64586003022DE3C213022DE3EFA6
:102D6300B44D1C9000011227F3FFB44102C214EFCB
:102D73006442706CD2147812E6F47829F6806112FA
:102D830027DAFFB44F129000011227F36446705004
:102D930090025EE064028048EF6448704390025EF4
:052DA300E06402703B3A
:102DA8009000011227F3FFD3648094B94005EF2403
:102DB800C98013900234E0FBA3E0FAA3E0F9900085
:102DC800011227F324D07812F67812E6D3940F4034
:0B2DD80002760F7812E6902EE293F6D0
:102DE300E4FF900234E0FBA3E0FAA3E0F98F8275DD
:0B2DF3008300E41228320FEFB408E761
:012DFE0022B2
:10318A00122D0390025EE064026003023215200FE2
:10319A0013782BF6C213C2147812E6F47829F6E4EF
:1031AA0090021BF0D20F90021BE014601514601AF3
:1031BA00146019146018240470195390EF43900294
:1031CA00806F123D665390BF806780658067123DAD
:1031DA000B80657812E6FF7829666009A6077F0BDF
:1031EA00123C14800D782AE6FF6007123C14E4783A
:1031FA002AF6E58830E210782BE6D394054004439A
:10320A00901022782B06225390EF22300F08E47890
:10321A002BF690021BF0C20F90021BE014601214EE
:10322A0060111460101460172404701C5390EF800E
:10323A00078005800343904090021BE004F022902F
:09324A00021BE004F05390FD2288
:10366600242424415457510D0A002424244661631E
:10367600746F72792073657474696E670D0A00241D
:103686002424576966692072657365740D0A0024DF
:103696002424456E74657220546573744D6F646599
:1036A6003A302E33330D0A00000004C006010867C5
:1036B6000A900BE50D560E000050056006A109079D
:0836C6000B300C850DF60E001F
:10330500E4900234F0123DF8900278EEF0A3EFF06D
:10331500C394A0EE940F504AE4FFEF25E024AEF5E8
:1033250082E43436F583E493FC740193FD900278CE
:10333500E0FAA3E0FBC39DEA9C4022EF25E024BE12
:10334500F582E43436F583E493FC740193FDD3EB05
:103355009DEA9C5008EF04900234F080050FEFB40D
:1033650008B87F05123D9D900234E0FFB4040AE5DC
:103375008820E5057408F0802DEFB4010DE588205F
:10338500E5089002347409F0801CEFB4020DE5885D
:1033950020E508900234740AF0800BE58820E506E4
:0B33A5009002347403F0900234E0FF4B
:0133B00022FA
:102C0100E4900276F090027FE0FE6F600EA3E06F29
:102C11006003EFF02290027FEFF02290027EE0FF4E
:102C21006E6003022CAEEF7003022D0290027AE077
:102C31007003022D0290027AE014F06003022D026B
:102C410090027EE090027CF0900277E070059002A5
:102C51007604F090027DE014602114603214602F3C
:102C610024036003022D0290027D7401F090027C26
:102C7100E04420F090027A7432F02290027D7402D6
:102C8100F090027CE04460F090027A7414F022909B
:102C9100027D7403F090027CE04480F090027A742B
:102CA10014F0A3E0C394FA5058E004F02290027E9D
:102CB100E0603790027CF0900277E0700590027638
:102CC10004F090027DE024FE601014600F24027075
:102CD1001290027CE04440F08009800090027CE088
:102CE10044C0F0E490027DF08009E4900277F09016
:102CF100027BF090027A7405F090027FE090027EF0
:022D0100F022BE
:063E2000123305022C0123
:10210200900276E0700302235890025CE06016E4CD
:10211200F090027704F0783A7605123BB9E4900227
:102122005DF002226F90027CE0122880216541213D
:102132009942220043221744222F4522774622D772
:102142004721E46222BD6622E56721818122008364
:1021520022178422F288231B8923398A2165C10030
:1021620000235890027BE0C394194003022358785D
:102172003A760590025EE06003023BB9023B53905F
:10218200027BE064196003022358783A76057BFFEC
:102192007A36796602235590025EE0FF640160049C
:1021A200EFB40216C201C21790025E7403F09002ED
:1021B20085E0600302235804F02290025EE064038B
:1021C2006003022358C201301704C2178026C217C7
:1021D200900285E004F0D394065003022358740160
:1021E200F02290025EE064036003022358B21720DB
:1021F2001707C201783076182278307617229002BB
:102202005EE0D3940150030223587812E6940A50F8
:102212000106C2012290025EE0D394015003022320
:10222200587812E6D39401400116C2012290025E50
:10223200E0D394015009900267E0700302235890A2
:10224200024EE0FF7008780C760F740FF022EFB4A4
:102252000F0B780C761E90024E741EF022EFB41E05
:102262000B780C763C90024E743CF022E4780CF62B
:1022720090024EF02290025EE07003022358900218
:1022820067E0B40A028015900275E0700404F080E1
:102292000E900267E004F0D3940940037401F090B9
:1022A2000267E06409600302235890026EF0900214
:1022B2006CF090026AF0900269F022900267E0707E
:1022C20003022358900275E004F0D39403500302F2
:1022D2002358E4F02290025EE0607B64026077742F
:1022E20002F02290025EE06402706B782A76052288
:1022F20090027BE06432705E90025FF0900262F0C6
:10230200D20390025E04F0783A76057BFF7A367942
:102312007012388D7F0A023C1490027BE0643270A6
:1023220035D20790025FF0900262F0783A76057B30
:10233200FF7A367985801C90027BE0B41918D200AE
:10234200E490025FF0900262F0783A76037BFF7AC3
:0723520036799512388D2247
:1030B900900274E014F070035398F7900273E014CF
:1030C900F070035398EF900272E014F07003539874
:1030D900DF90026FE014F06003023189900275E01D
:1030E900FF700A900274F0900273F0805AEFB401F5
:1030F9002290026CE01313543F900274F090026A1C
:10310900E01313543F900273F0900269E0131354D3
:103119003F8034900275E090026CB40219E0C31349
:10312900900274F090026AE0C313900273F0900267
:1031390069E0C3138011E0900274F090026AE09094
:103149000273F0900269E0900272F090025EE0B4BE
:10315900020AE58830E10543881080035388EF901F
:103169000274E06003439808900273E06003439897
:1031790010900272E060034398209002647401F099
:013189002223
:103D8D0090026CEFF090026AEDF0900269EBF02278
:101E340090026DE004F0C394045003022101E49085
:101E4400026DF0A3E0FF705A90026CE0C394FF505F
:101E540003E004F090026AE0D394004003E014F03D
:101E6400900269E0D394004003E014F090026CE027
:101E7400F4600302210190026AE0600302210190F0
:101E84000269E0600302210190027075F0011228DA
:101E940054FCD3E5F0941EEC94005003022101029B
:101EA400209BEF6401707490026CE0C394FF5003B4
:101EB400E004F090026CE0D394FF4003E014F0904F
:101EC400026AE0C394805003E004F090026AE0D315
:101ED40094804003E014F0900269E0D3940040033E
:101EE400E014F090026CE0F4600302210190026AB5
:101EF400E064806003022101900269E06003022132
:101F04000190027075F001122854FED3E5F0941E7E
:101F1400EE9400500302210102209B90026EE0FF28
:101F24006402705B90026CE0C394FF5003E004F021
:101F340090026AE0C394FF5003E004F0900269E069
:101F4400D394004003E014F090026CE0F4600302C8
:101F5400210190026AE0F46003022101900269E029
:101F6400600302210190027075F001122854FCD321
:101F7400E5F0941EEC9400500302210102209BEF33
:101F84006403705A90026CE0D394004003E014F0B0
:101F940090026AE0C394FF5003E004F0900269E009
:101FA400D394004003E014F090026CE0600302213B
:101FB4000190026AE0F46003022101900269E0608A
:101FC4000302210190027075F001122854FED3E53A
:101FD400F0941EEE9400500302210102209B900213
:101FE4006EE0FF6404705990026CE0D394004003E7
:101FF400E014F090026AE0D394004003E014F090FF
:102004000269E0C394FF5003E004F090026CE060C6
:102014000302210190026AE0600302210190026937
:10202400E0F4600302210190027075F0011228545B
:10203400FCD3E5F0941EEC94005003022101805778
:10204400EF6405706090026CE0D394004003E014E8
:10205400F090026AE0C394FF5003E004F090026938
:10206400E0C394FF5003E004F090026CE0600302CC
:10207400210190026AE0F46003022101900269E008
:10208400F4707A90027075F001122854FED3E5F0D2
:10209400941EEE94004066E4900270F0A3F0900267
:1020A4006EE004F02290026CE0C394FF5003E0045D
:1020B400F090026AE0D394004003E014F0900269C7
:1020C400E0C394FF5003E004F090026CE0B4FF2DF1
:1020D40090026AE07027900269E0B4FF20900270D9
:1020E400E475F001122854FED3E5F09432EE940026
:0E20F400400BE4900270F0A3F090026EF02218
:10235900900264E0700302251FE4900264F0900289
:1023690067E0FFB4091B7811666016E0F6E4900295
:102379006EF090026C747FF0E490026AF09002694A
:10238900F090025EE06007900267E0FE7004E4FBF3
:102399008051EEB401047BFF8021900267E0FEB416
:1023A9000205E4FBFD8016EEB40306E4FB7D8080A4
:1023B9000C900267E0FEB40408E4FB7DFF7FFF8018
:1023C90034EEB40507E4FB7DFFFF8029900267E046
:1023D900FEB406087BFF7DFFE4FF8019EEB4070712
:1023E9007BFFE4FDFF800E900267E0FEB4080C7BE2
:1023F900FFE4FD7F80123D8D0224F5EE640A60033F
:102409000224EB90026BE0FFA3F0900268E0FE90DB
:10241900026AF0900266E0FD900269F0EFB4FF11E4
:10242900EEB4FF0DEDB4FF099002677401F00224C8
:10243900F590026BE0B4FF13900268E0700D900212
:1024490066E07007A37402F00224F590026BE0FFC6
:10245900B4FF14900268E0B4800D900266E0700742
:10246900A37403F00224F5EFB4FF13900268E0B4FB
:10247900FF0C900266E07006A37404F0806E90026F
:102489006BE07013900268E0B4FF0C900266E07094
:1024990006A37405F0805590026BE0FF701490025A
:1024A90068E0B4FF0D900266E0B4FF06A37406F07D
:1024B900803AEF7013900268E0700D900266E0B404
:1024C900FF06A37407F0802490026BE0B4801D908E
:1024D9000268E07017900266E0B4FF10A37408F078
:1024E900800A900267E0B40903121E34900267E083
:1024F900FF701AEFB40A1690026CE090026BF0902C
:10250900026AE0900268F0A3E0900266F090026728
:07251900E060037811F622D7
:0B3DED00000102030507090A0C0E0F7D
:0E3DAC00EF903DED93FFC374169FFF023CF2B3
:103CF200201515D215EF14782DF6E4782FF67832C8
:093D0200F653887F782C76C82264
:10325300201503023304783206E6C3782C96500314
:10326300023304E47832F6782FE6B4130040030205
:1032730032FC90327CF82828730232B50232BE0247
:1032830032C70232DB0232C70232DB0232C70232FA
:10329300DB0232C70232DB0232C70232DB0232C741
:1032A3000232DB0232C70232DB0232C70232DB02F6
:1032B30032F6438880782C76A0804353887F782C1D
:1032C3007614803A438880782DE630E70518761E19
:1032D300802C782C760A802653887F782DE6FF3061
:1032E300E70518760A8004782C761EEF25E0782D02
:1032F300F6800B782C76C8800553887FC215782F0B
:023303000622A0
:1028A60090025EE064036003022A0E20161578315A
:1028B600F6900285E0F47833F67812E6F4782EF690
:1028C600E4A3F0D216900286E01460211460351459
:1028D6006047240370465390EF783106E6D3941987
:1028E6005003022A5A5390FD4390408012123D0B2A
:1028F600439802783106E6D394325003022A5AE40A
:10290600F6022A54783106E6D394C85003022A5AAE
:10291600900286E004F0E4F622022A547830E6FFBC
:102926006039301503022A5AB417097BFF7A1C79DD
:102936009A12388D7830E6B41815900285E075F055
:1029460018A4249AF9741C35F0FA7BFF12388D7896
:1029560030E6FF123CF2E47830F622900285E07809
:1029660033666048301503022A5AE0FFF6EF60032B
:10297600B4170ED217783376177BFF7A1C799A80B4
:1029860019900285E0FFD394065012EF75F018A453
:10299600249AF9741C35F0FA7BFF12388D7833E6E9
:1029A600FF123CF2900285E07833F6227912E7783E
:1029B6002E666010301503022A5A7812E6FF782E2A
:1029C600F6023DACA201300401B35029783AE67014
:1029D60024A20192043001087BFF7A1C799A8012A6
:1029E600900285E075F018A4249AF9741C35F0FA63
:1029F6007BFF02388D2017082001057812E6700447
:102A06005390EF2243901022301605E4900286F090
:102A1600C216900286E014601214601F14602C2403
:102A26000370312013035390EF8023783106E6D3E9
:102A360094144020E4F64398028013783AE6701422
:102A46007BFF7A1C799A12388D8003201306900238
:052A560086E004F022FF
:103D3B00757064617465206661696C00757064618F
:063D4B007465206F6B009F
:0C3DE10053E13F8FE5E5E154C060FA2299
:103A6B00900244EBF0A3EAF0A3E9F0801690024435
:103A7B00E0FBA3E0FAA3E0F91227DA6020E5E154BA
:103A8B00C060EA53E13F900244E0FBA3E475F00110
:0E3A9B0012286AA9F0FA1227DAF5E580D02287
:1016F60053ABFB53A8E753A9E753AAEFE47817F6D1
:10170600781AF608F67815F608F690023FF0A3F078
:10171600A3F09002877400F0A37468F0E490023B93
:10172600F0A3F090023BE0FEA3E0FFC3942DEE94FD
:10173600015020900287E0FCA3E02FF582EC3EF5F5
:1017460083E4F090023CE004F070D890023BE004A1
:10175600F080D07F43123DE17817E6B408004003DD
:10176600021AB3901770F828287302178802180D0A
:101776000218AA0219300219C1021A22021A6002BC
:101786001A65E5E130E534900287E0FEA3E0F582D4
:101796008E83C083C082781A0806E6188606700112
:1017A6000614D082D0832582F582E5833EF583E553
:1017B600E5F0E490023FF0A3F0A3F0900287E0FE8C
:1017C600A3E0F5828E83E0B46E25781DE6184660A8
:1017D6000E7BFF7A3D793B123A6BE47817F6227B53
:1017E600FF7A3D7947123A6B78177606021AB77870
:1017F6001BE66407700418E664016003021AB778F2
:101806001AF608F6021A60E4781AF608F6900287C5
:10181600E0FEA3E0F5828E83E0F9A3E0FE90028766
:10182600E0FCA3E0F5828C83A3A3E0FDAC06900266
:1018360087E0FAA3E0FBF5828A83A3A3A3E0FEEB8D
:101846002404F582E43AF583E0FBEBFFE9B4020EEB
:10185600EFF4FFEEF4FEEF6D7002EE6C600302191A
:10186600287815E6FE08E6FFC3ED9FFFEC9EFEEF27
:1018760064014E6004EF4E7025AE04AF057815A6E0
:101886000608A607E6FEE42400FFEE3440FE9002BA
:1018960042F0A3EFF0D394FFEE947F4004220219A6
:1018A60028021A60E490023DF0A3F0FFFE90023B8E
:1018B600F0A3F090023BE0FCA3E0FDC3EC940150E2
:1018C60034ED2405FDE43CFC900287E0FAA3E02D0C
:1018D600F582EA3CF583E0FD90023EE02DF09002B1
:1018E6003DE03400F090023CE004F070C690023B0C
:1018F600E004F080BE900287E0FCA3E0FD2405F53D
:1019060082EC3401F583E0FEED2406F582EC340129
:10191600F583E0FDEDFF90023DE06E7003A3E06FFE
:1019260060057F15021A5B021A60900242E0FEA370
:10193600E0FF900288E02405FD900287E03400FA7B
:10194600A9057B0112344B900243E02440FF90022C
:1019560042E03400FE900288E02445FD900287E0D4
:101966003400FAA9057B0112344B900243E024802F
:10197600FF900242E03400FE900288E02485FD904C
:101986000287E03400FAA9057B0112344B9002432A
:10199600E024C0FF900242E03400FE900288E0247A
:1019A600C5FD900287E03400FAA9057B0112344B8D
:1019B600781DE61618700116021A60E490023BF0D4
:1019C600A3F090023BE0FEA3E0FFC3EE9401504A71
:1019D600900243E02FFF900242E03EFE123E11903D
:1019E600023CE02405FD90023BE03400FC900287B7
:1019F600E0FAA3E02DF582EA3CF583E06F600B7F09
:101A060015123DE1E47817F6801090023CE004F0F0
:101A160070B090023BE004F080A8803EE490023B68
:101A2600F0A3F090023BE0FEA3E0FFC3942DEE94FA
:101A3600015020900287E0FCA3E02FF582EC3EF5F2
:101A460083E4F090023CE004F070D890023BE0049E
:101A5600F080D07F96123DE180537817068052E4DD
:101A660090023BF0A3F090023BE0FEA3E0FFC3949C
:101A760040EE94005021900287E0FCA3E02FF5820F
:101A8600EC3EF58374AAF090023CE004F070D79027
:101A9600023BE004F080CF900287E0FEA3E0AA06B6
:101AA600F97B017F007E0412344B020000E47817B4
:101AB600F690023FE004F0600302175EA3E004F034
:101AC600600302175EA3E004F0C3940250030217FA
:071AD6005E12000002175E22
:101ADD007B54696D6553796E63005475726E206F1A
:101AED006E20756E6974005475726E206F66662077
:101AFD00756E69740047705374613A5B30315D0DDA
:101B0D000A005475726E206F6E204254006D75730D
:101B1D00696320706C6179006D7573696320706104
:101B2D007573650053656C65637420536F756E64D2
:101B3D002066696C65007B4D7573696353746174C0
:101B4D0075730041646A757374204F757470757484
:101B5D0020566F6C756D6500766F6C756D652075B3
:101B6D007000766F6C756D6520646F776E006D75A6
:101B7D00736963206D757465006D75736963207588
:101B8D006E6D757465005365742054696D657200D2
:101B9D005475726E206F66662054696D65720054BF
:101BAD0075726E206F6E204C696768747200547583
:101BBD00726E206F6666204C6967687472006C697E
:101BCD00676874207570006C6967687420646F773E
:101BDD006E004368616E6765206C69676874206389
:101BED006F6C6F720041646A757374204C6967681D
:101BFD0074204272696768746E65737300557365FE
:101C0D007220636F6C6F72007B50726F6772616DC3
:101C1D000050726F506C61790D0A007B416C6172DE
:101C2D006D4F6E4F6666007B416C61726D536574CE
:101C3D00007B416C614770537461007B4E6F72473E
:101C4D007053746100207570646174650041545760
:101C5D00510D0A005645520D0A00242424564552B2
:101C6D00302E33330D0A00456E7465722054657342
:101C7D00744D6F64653A0047705374613A5B303050
:101C8D005D0D0A0001010204081020408024242467
:101C9D007B4D757369635374617475733A5B30373B
:101CAD005D7D0D0A002424247B4D75736963537487
:101CBD00617475733A5B30315D7D0D0A0024242407
:101CCD007B4D757369635374617475733A5B303210
:101CDD005D7D0D0A002424247B4D75736963537457
:101CED00617475733A5B30335D7D0D0A00242424D5
:101CFD007B4D757369635374617475733A5B3034DE
:101D0D005D7D0D0A002424247B4D75736963537426
:101D1D00617475733A5B30355D7D0D0A00242424A2
:101D2D007B4D757369635374617475733A5B3036AB
:101D3D005D7D0D0A002424247B47705374613A5B4A
:101D4D0030302C30302C30302C30302C3030303096
:101D5D0030302C30302C30302C30302C30303B307B
:101D6D00302C30302C30302C3030303030302C3076
:101D7D00302C30302C30302C30302C30303A30305C
:101D8D002C30305D7D0D0A002424247B416C61478D
:101D9D00705374613A5B30302C30302C30302C3035
:101DAD00302C3030303030302C30302C30302C3036
:101DBD00302C30302C30302C30303A30302C30301C
:101DCD005D7D0D0A002424247B4E6F724770537481
:101DDD00613A5B30302C30302C30302C30302C30A0
:101DED0030303030302C30302C30302C30302C30F6
:101DFD00305D7D0D0A002424247B4E6F7247705395
:101E0D0074613A5B30302C30302C30302C30302C2B
:101E1D003030303030302C30302C30302C30302CC5
:071E2D0030305D7D0D0A005D
:1036CE0090023E74FFF0A3741BF07402A3F09002FC
:0936DE0038E0FBA3E0FAA3E0F9D7
:1036E70090023BEBF0A3EAF0A3E9F090023EE0FB87
:1036F700A3E0FAA3E0F91227DAFF602F90023BE07C
:10370700FBA3E0FAA3E0F91227DAB507056003EF98
:1037170070037F012290023CE475F0011228549057
:0E372700023FE475F00112285480C07F00229A
:102FD800900267EFF09001FAF0900238E0FBA3E06E
:102FE800FAA3E0F99000161227F3FF9000171227B2
:102FF800F3FD12308E90026BEFF09001FBF090021F
:1030080038E0FBA3E0FAA3E0F99000181227F3FFD9
:103018009000191227F3FD12308E900268EFF0909D
:1030280001FCF0900238E0FBA3E0FAA3E0F990007D
:103038001A1227F3FF90001B1227F3FD12308E900F
:103048000266EFF09001FDF0900238E0FBA3E0FA91
:10305800A3E0F990001D1227F3FF90001E1227F33A
:10306800FD123B8D900275EFF09001FEF090023852
:10307800E0FBA3E0FAA3E0F99000201227F3900008
:0630880021FF1227F3FDF9
:10308E00C3EF648094C14006EF24C9FF800474D05E
:10309E002FFFC3ED648094C14006ED24C9FD80046A
:0B30AE0074D02DFDEFC454F04DFF2244
:053B8800FF1227F3FD10
:103B8D00C3EF648094C14006EF24C9FF800474D054
:103B9D002FFFC3ED648094C14006ED24C9FD800460
:0C3BAD0074D02DFDEF75F00AA42DFF224E
:1034DF0012353F900234E0FBA3E0FAA3E0241AF97F
:1034EF00E43AFA90026BE0FD12353F900234E0FBB4
:1034FF00A3E0FAA3E0241CF9E43AFA900268E0FD95
:10350F0012353F900234E0FBA3E0FAA3E0241EF94A
:10351F00E43AFA900266E0FD12353F900234E0FB88
:10352F00A3E0FAA3E09002752421F9E43AFAE0FD52
:10353F00EDC4540FFFC3940AEF40042437800224D4
:10354F0030122820740129F9E43AFAED540FFFC321
:0E355F00940AEF400424378002243012282002
:01356D00223B
:103B530090025E7401F0780DE6B403047F038002E3
:103B63007F0190025EEFF07809E67812F67811E6AD
:103B7300900267F0EF70047F0180027F00122A5BDE
:053B8300783A760322F0
:103CB70090025E7401F07809E67812F674017004D8
:0E3CC7007F0180027F00122A5B783A7603228A
:103BB90090025EE0780DF6E4F07812E67809F69066
:103BC9000267E07811F6E4F0780CF690024EF07096
:0F3BD900047F0180027F00122A5B783A76032274
:103BE800E490025CF0900277F0123BB9783A7605DF
:103BF80090025EE070047F0180027F00122A5BE47D
:0C3C080090025DF0780CF690024EF02265
:052A5B0090023BEFF0CA
:102A60007834E670FBE47838F67F64900195E4F002
:102A7000A3DFFCE4FFEFFD3395E0FC74422DF5820B
:102A8000741D3CF583E493FE74952DF58274013C2E
:102A9000F583EEF00FEFB452DC7B017A0179A09060
:102AA000023BE0FD12353F7A0179A390025EE0B46B
:102AB0000308900285E0FFFD80027D0712353F7B11
:102AC000017A0179A6900267E07003FD80027D0122
:102AD00012353F7B017A0179A9900267E0B40904BD
:102AE0007D0180027D0012353F7B017A0179AC9037
:102AF000026BE0FD12353F7A0179AE900268E0FD8D
:102B000012353F7A0179B0900266E0FD12353F7AC6
:102B10000179B3900275E0FD12353F7A0179B678FC
:102B200012E6FD12353F7A0179B9A217E433FD129E
:102B3000353F7A0179BC780CE6FD12353F7A017990
:102B4000BFE4FD12353F7A0179C2900256E0FD12D2
:102B5000353F7A0179C5900265E0B409047D0180B2
:102B6000027D0012353F7B017A0179C8900253E063
:102B7000FD12353F7A0179CA900254E0FD12353FCB
:102B80007A0179CC900255E0FD12353F7A0179CF78
:102B900090025AE0FD12353F7A0179D2900257E057
:102BA000FD12353F7A0179D590024FE0FD12353F95
:102BB0007A0179D8900250E0FD12353F7A0179DB35
:102BC000900251E0FD12353F7A0179DE900252E029
:102BD000FD12353F7A0179E190025BE0FD12353F4D
:102BE000783A7602E47839F6783476017837760ADE
:102BF0007839E6062495F582E43401F583E0F5E5BD
:012C000022B1
:0B052600900234EBF0A3EAF0A3E9F030
:100531002403F9E43AFA900238EBF0A3EAF0A3E9D4
:10054100F090025EE0700302121790023E74FFF019
:10055100A3741AF074DD1236DAEF7075900238E088
:10056100FBA3E0FAA3E0F990000B1227F390000C33
:10057100123089780FA607900238E0FBA3E0FAA3B6
:10058100E0F990000E1227F3FF90000F12308A78E5
:100591000AA607900238E0FBA3E0FAA3E0F9900075
:1005A100111227F3FF90001212308A780EA60790DD
:1005B1000238E0FBA3E0FAA3E0F990001E1227F352
:1005C10024D0780BF6E6901C9193F6E4900263F048
:1005D1002290023E74FFF0A3741AF0A374E712365E
:1005E100DBEF700C90025EE06003020987021241AA
:1005F10090023E74FFF0A3741AF0A374F41236DB78
:10060100EF701E900234E0FBA3E0FAA3E0F9123888
:100611008D90025CE06003020967783A7603023B41
:10062100B91236CEEF70030215991236CEEF700172
:100631002290023E74FFF0A3741BF0A3740F1236D4
:10064100DBEF700990025E7402F002098790023EAE
:1006510074FFF0A3741BF0A3741A1236DBEF70174A
:1006610090025E7403F0C201C217F0900285E0703F
:100671000304F02202140490023E74FFF0A3741BE1
:10068100F0A374251236DBEF701290025EE0640372
:1006910060030216F5D217783076172290023E7465
:1006A100FFF0A3741BF0A374311236DBEF7040909E
:1006B100025CE0600BE4F0A3F0780CF690024EF0DF
:1006C100C201C21790025E7403F0900238E0FBA3EE
:1006D100E0FAA3E0F990001A1227F324D0FF900268
:1006E10085F07833E6B50704783076180213B490B4
:1006F100023E74FFF0A3741BF0A374431236DBEFC8
:1007010070012290023E74FFF0A3741BF0A3745099
:100711001236DBEF702390025CE060030209679000
:100721000238E0FBA3E0FAA3E0F99000141227F3EA
:10073100900015123B880207B090023E74FFF0A3AF
:10074100741BF0A374651236DBEF702990025CE034
:1007510060030209677812E6FFC3940A5013EF940D
:10076100085007E62402FFF68009781206E6FF80AA
:10077100027F0A803A90023E74FFF0A3741BF0A33B
:10078100746F1236DBEF703090025CE06003020997
:10079100677812E6FFD394014013EF94034007E614
:1007A10024FEFFF68009781216E6FF80027F0178A9
:1007B10012A607C20102098790023E74FFF0A374DA
:1007C1001BF0A3747B1236DBEF7003D2012290027F
:1007D1003E74FFF0A3741BF0A374861236DBEF7036
:1007E10003C2012290023E74FFF0A3741BF0A374B4
:1007F100931236DBEF702590025CE060030209671B
:10080100900238E0FBA3E0FAA3E0F990000A122776
:10081100F390000B123B88780CEF801F90023E741E
:10082100FFF0A3741BF0A3749D1236DBEF701490DC
:10083100025CE06003020967E4780CF690024EF076
:1008410002098790023E74FFF0A3741BF0A374ACFD
:100851001236DBEF702D90025CE0600BE4F0A3F048
:10086100780CF690024EF07811E6900267F0700273
:1008710004F0900275E0FF70077E017F010209829A
:1008810002098290023E74FFF0A3741BF0A374BBB3
:100891001236DBEF701190025CE06003020967E43D
:1008A100900267F002098790023E74FFF0A3741B67
:1008B100F0A374CB1236DBEF701B90025CE0600397
:1008C100020967900275E0C394034003020987E0BF
:1008D10004F002098790023E74FFF0A3741BF0A399
:1008E10074D41236DBEF701B90025CE060030209E6
:1008F10067900275E0D394005003020987E014F079
:1009010002098790023E74FFF0A3741BF0A374DF09
:100911001236DBEF703790025CE0600BE4F0A3F07D
:10092100780CF690024EF09002677409F0E49002A0
:100931006EF090026CF090026AF0900269F0900201
:1009410075E0FF70067E017F018000803490023ED9
:1009510074FFF0A3741BF0A374F21236DBEF702660
:1009610090025CE06003023BE8900238E0FBA3E008
:10097100FAA3E0F99000181227F3FF900019123B37
:1009810089900275EFF090023E74FFF0A3741CF0A1
:10099100A3740A1236DBEF6003020A2090025CE0C6
:1009A100600BE4F0A3F0780CF690024EF090023860
:1009B100E0FBA3E0FAA3E0F990000B1227F3FF900C
:1009C100000C12308A90026BEFF0900238E0FBA32A
:1009D100E0FAA3E0F990000D1227F3FF90000E1248
:1009E100308A900268EFF0900238E0FBA3E0FAA3AE
:1009F100E0F990000F1227F3FF90001012308A9057
:100A01000266EFF0900267740AF0900275E0FF70E1
:100A1100067E017F018000900275EFF00216E790DB
:100A2100023E74FFF0A3741CF0A374151236DBEFC1
:100A31006003020B0A90025CE0600BE4F0A3F07823
:100A41000CF690024EF0123C91900238E0FBA3E0CC
:100A5100FAA3E0F990000E1227F324D0900285F05A
:100A61009001F9F09000111227F3FFB431047E01D7
:100A710080027E00900267EEF09001FAF0EFB4314F
:100A81001C900238E0FBA3E0FAA3E0F990001412F5
:100A910027F3B431047F0980067F0A80027F0012A8
:100AA1002FD87812EFF69001FFF090025E7403F0F8
:100AB100900200F0900238E0FBA3E0FAA3E0F99085
:100AC10000241227F324D024FF9217E4339002016B
:100AD100F0201703C38001D39201E433900202F0A6
:100AE1002017047F1880027F177830A60790002610
:100AF1001227F3FF90002712308A780CEFF690024C
:100B01004EF0900203F00216E790023E74FFF0A34C
:100B1100741CF0A3741E1236DBEF6003020B9D9070
:100B2100025CE0600BE4F0A3F0780CF690024EF06A
:100B31009001F9E0900285F09001FAE0900267F0EF
:100B41009001FBE090026BF09001FCE0900268F0F4
:100B51009001FDE0900266F09001FEE0900275F0D8
:100B61009001FFE07812F6A3E090025EF09002019E
:100B7100E024FF9217201703C38001D39201E433CD
:100B8100900202F02017047F1880027F177830A6A8
:100B910007900203E090024EF00216E790023E74C5
:100BA100FFF0A3741CF0A374281236DBEF70719070
:100BB1000238E0FBA3E0FAA3E0F99000111227F359
:100BC10024D090024FF09000131227F3FF900014ED
:100BD10012308A780FA607900238E0FBA3E0FAA34F
:100BE100E0F99000161227F3FF90001712308A786F
:100BF1000AA607900238E0FBA3E0FAA3E0F990000F
:100C0100191227F3FF90001A12308A780EA6079066
:100C11000238E0FBA3E0FAA3E0F9900026020DEC14
:100C210090023E74FFF0A3741CF0A374341236DBFF
:100C3100EF6003020DFD900238E0FBA3E0FAA3E0B0
:100C4100F990000F1227F324D0900256F0C39407B5
:100C51004002E4F09000121227F3FF24D0900259D1
:100C6100F0EFB431119000151227F3B431047F096C
:100C710080067F0A80027F00900259EFF0900238CF
:100C8100E0FBA3E0FAA3E0F99000171227F3FF902D
:100C9100001812308A900253EFF0900238E0FBA363
:100CA100E0FAA3E0F99000191227F3FF90001A125D
:100CB100308A900254EFF0900238E0FBA3E0FAA3EF
:100CC100E0F990001B1227F3FF90001C12308A906C
:100CD1000255EFF0900238E0FBA3E0FAA3E0F990AF
:100CE100001F1227F324D090025AF09000211227FE
:100CF100F3FF90002212308A900257EFF0900238F1
:100D0100E0FBA3E0FAA3E0F99000251227F324D039
:100D1100900258F09000281227F324D090024FF04F
:100D210090002A1227F3FF90002B12308A90025074
:100D3100EFF0900238E0FBA3E0FAA3E0F990002D78
:100D41001227F3FF90002E12308A900251EFF0909B
:100D51000238E0FBA3E0FAA3E0F99000301227F398
:100D6100FF90003112308A900252EFF0900238E089
:100D7100FBA3E0FAA3E0F99000331227F3FF900000
:100D81003412308A90025BEFF0900238E0FBA3E06E
:100D9100FAA3E0F99000361227F3FF9000371230E2
:100DA1008A780FA607900238E0FBA3E0FAA3E0F9E6
:100DB1009000391227F3FF90003A12308A780AA680
:100DC10007900238E0FBA3E0FAA3E0F990003C129F
:100DD10027F3FF90003D12308A780EA60790023863
:100DE100E0FBA3E0FAA3E0F99000491227F324D035
:100DF100780BF6E6901C9193F60216E790023E748A
:100E0100FFF0A3741CF0A3743E1236DBEF60030203
:020E11000FDBF5
:100E1300900237F0900237E0FFC39464501C9002B5
:100E230034E0FBA3E0FAA3E0F98F82758300E412B8
:100E33002832900237E004F080DAE4900237F09031
:100E43000237E0FF901D9593FE900234E0FBA3E090
:100E5300FAA3E0F98F82758300EE122832900237ED
:100E6300E004F0E0B43ED8900234E0FBA3E0FAA340
:100E7300E0240EF9E43AFAE4FD12353F900234E03F
:100E8300FBA3E0FAA3E02411F9E43AFA900256E056
:100E9300FF6003FD80027D0712353F900234E0FBC3
:100EA300A3E0FAA3E02414F9E43AFA900259E070BB
:100EB30003FD80027D0112353F900234E0FBA3E085
:100EC300FAA3E02417F9E43AFA900259E0B40904CA
:100ED3007D0180027D0012353F900234E0FBA3E0E8
:100EE300FAA3E0241AF9E43AFA900253E0FD12352A
:100EF3003F900234E0FBA3E0FAA3E0241CF9E43AB8
:100F0300FA900254E0FD12353F900234E0FBA3E077
:100F1300FAA3E0241EF9E43AFA900255E0FD1235F3
:100F23003F900234E0FBA3E0FAA3E090025A1235AB
:100F330037900234E0FBA3E0FAA3E02424F9E43A77
:100F4300FA900257E0FD12353F900234E0FBA3E034
:100F5300FAA3E02427F9E43AFA900258E0FD1235A7
:100F63003F900234E0FBA3E0FAA3E0242AF9E43A39
:100F7300FA90024FE0FD12353F900234E0FBA3E00C
:100F8300FAA3E0242DF9E43AFA900250E0FD123579
:100F93003F900234E0FBA3E0FAA3E02430F9E43A03
:100FA300FA900251E0FD12353F900234E0FBA3E0DA
:100FB300FAA3E02433F9E43AFA900252E0FD123541
:100FC3003F900234E0FBA3E0FAA3E02436F9E43ACD
:050FD300FA90025BE052
:100FD80002110190023E74FFF0A3741CF0A3744840
:090FE8001236DBEF600302110C6C
:100FF100900237F0900237E0FFC39464501C9002D6
:1010010034E0FBA3E0FAA3E0F98F82758300E412D8
:101011002832900237E004F080DAE4900237F09051
:101021000237E0FF901DD293FE900234E0FBA3E073
:10103100FAA3E0F98F82758300EE1228329002370D
:10104100E004F0E0B430D8900234E0FBA3E0FAA36E
:10105100E0240EF9E43AFA7D0112353F900234E0C2
:10106100FBA3E0FAA3E02411F9E43AFA90025EE06E
:10107100B40308900285E0FFFD80027D0712353F31
:10108100900234E0FBA3E0FAA3E02414F9E43AFA75
:10109100900267E07003FD80027D0112353F9002EE
:1010A10034E0FBA3E0FAA3E02417F9E43AFA900252
:1010B10067E0B409047D0080027D011234DF9002F3
:1010C10034E0FBA3E0FAA3E02424F9E43AFA78122D
:1010D100E6FD12353F900234E0FBA3E0FAA3E024E1
:1010E10027F9E43AFAA217E433FD12353F900234AE
:1010F100E0FBA3E0FAA3E0242AF9E43AFA780CE64B
:08110100FD12353F783A760239
:101109000216E790023E74FFF0A3741CF0A3745218
:101119001236DBEF60030211BE900238E0FBA3E058
:10112900FAA3E0F990000A1227F3FF90000B12309E
:101139008AEF7F00FEC007C006900238E0FBA3E0FB
:10114900FAA3E0F990000C1227F3FF90000D12307A
:101159008AEFFD3395E0FCD0E04CFED0E04D7818E5
:10116900A60608F6900238E0FBA3E0FAA3E0F9909E
:1011790000111227F3FF90001212308AEF7F00FE50
:10118900C007C006900238E0FBA3E0FAA3E0F9909B
:1011990000131227F3FF90001412308AEFFD3395E4
:1011A900E0FCD0E04CFED0E04D781CA60608F61213
:1011B90016F60216E790023E74FFF0A3741CF0A322
:1011C900745A1236DBEF700302159990023E74FFD0
:1011D900F0A3741CF0A374611236DBEF70030215DF
:1011E900B090023E74FFF0A3741CF0A3747412361D
:1011F900DBEF60030216E7783AF690025FF090029F
:1012090062F0D20390025E04F07F0A023C1490025D
:101219003E74FFF0A3741AF0A374E71236DBEF7083
:101229001E900234E0FBA3E0FAA3E0F912388D9096
:10123900025EE060030216E7783A7603023B5390B8
:10124900023E74FFF0A3741BF0A374AC1236DBEFFB
:10125900702B900234E0FBA3E0FAA3E0F912388D79
:10126900123CB77811E6900267F0700204F0900220
:1012790075E0FF70057F0102135E02135E90023E66
:1012890074FFF0A3741BF0A374DF1236DBEF703622
:10129900900234E0FBA3E0FAA3E0F912388D123C86
:1012A900B79002677409F0E490026EF090026CF056
:1012B90090026AF0900269F0900275E0FF70047F75
:1012C90001800002135E90023E74FFF0A3741CF0CB
:1012D900A3740A1236DBEF6003021364900234E050
:1012E900FBA3E0FAA3E0F912388D123CB79002385B
:1012F900E0FBA3E0FAA3E0F990000B1227F3FF90BB
:10130900000C12308A90026BEFF0900238E0FBA3D8
:10131900E0FAA3E0F990000D1227F3FF90000E12F6
:10132900308A900268EFF0900238E0FBA3E0FAA35C
:10133900E0F990000F1227F3FF90001012308A9005
:101349000266EFF0900267740AF0900275E0FF7090
:10135900047F018000900275EFF02290023E74FF35
:10136900F0A3741BF0A374311236DBEF70569002B0
:1013790034E0FBA3E0FAA3E0F912388D123CB7C2BE
:1013890001C21790025E7403F0900238E0FBA3E0FB
:10139900FAA3E0F990001A1227F324D0FF900285EE
:1013A900F07833E6B5070478307618783A76019004
:1013B9000285E075F018A4249AF9741C35F0FA7BBB
:1013C900FF0216F290023E74FFF0A3741BF0A3749F
:1013D9001A1236DBEF7029900234E0FBA3E0FAA37E
:1013E900E0F912388D123CB790025E7403F0C20125
:1013F900C217900285E0700304F022783076182233
:1014090090023E74FFF0A3741CF0A3741E1236DB25
:10141900EF707B900234E0FBA3E0FAA3E0F9123805
:101429008D123CB79001F9E0900285F09001FAE045
:10143900900267F09001FBE090026BF09001FCE0F4
:10144900900268F09001FDE0900266F09001FEE0E4
:10145900900275F09001FFE07812F6A3E090025E29
:10146900F0900201E024FF9217201703C38001D3F3
:101479009201E433900202F02017047F1880027F62
:10148900177830A607900203E090024EF0229002EE
:101499003E74FFF0A3741CF0A374151236DBEF60E1
:1014A9000302157F900234E0FBA3E0FAA3E0F912EE
:1014B900388D123CB7123C91900238E0FBA3E0FA58
:1014C900A3E0F990000E1227F324D0900285F09042
:1014D90001F9F09000111227F3FFB431047E018065
:1014E900027E00900267EEF09001FAF0EFB4311C31
:1014F900900238E0FBA3E0FAA3E0F9900014122768
:10150900F3B431047F0980067F0A80027F00122F1D
:10151900D87812EFF69001FFF090025E7403F09014
:101529000200F0900238E0FBA3E0FAA3E0F9900092
:10153900241227F324D024FF9217E433900201F0F8
:10154900201703C38001D39201E433900202F020F3
:1015590017047F1880027F177830A607900026129B
:1015690027F3FF90002712308A780CEFF690024E8D
:10157900F0900203F0221236CEEF70012290023E63
:1015890074FFF0A3741CF0A374841236DBEF7004AB
:10159900783AF62290023E74FFF0A3741CF0A3740B
:1015A900611236DBEF70097BFF7A1C79670216F24C
:1015B90090023E74FFF0A3741CF0A374481236DB4A
:0615C900EF60030216E7CB
:1015CF00900237F0900237E0FFC39464501C9002F2
:1015DF0034E0FBA3E0FAA3E0F98F82758300E412F5
:1015EF002832900237E004F080DAE4900237F0906E
:1015FF000237E0FF901E0393FE900234E0FBA3E05E
:10160F00FAA3E0F98F82758300EE12283290023729
:10161F00E004F0E0B430D8900234E0FBA3E0FAA38A
:10162F00E0240EF9E43AFAE4FD12353F900234E07B
:10163F00FBA3E0FAA3E02411F9E43AFA90025EE08A
:10164F00B40308900285E0FFFD80027D0712353F4D
:10165F00900234E0FBA3E0FAA3E02414F9E43AFA91
:10166F00900267E07003FD80027D0112353F90020A
:10167F0034E0FBA3E0FAA3E02417F9E43AFA90026E
:10168F0067E0B409047D0080027D011234DF90020F
:10169F0034E0FBA3E0FAA3E02424F9E43AFA781249
:1016AF00E6FD12353F900234E0FBA3E0FAA3E024FD
:1016BF0027F9E43AFAA217E433FD12353F900234CA
:1016CF00E0FBA3E0FAA3E0242AF9E43AFA780CE667
:0816DF00FD12353F783A760256
:0E16E700900234E0FBA3E0FAA3E0F912388D84
:0116F50022D2
:103C9100780F7C027D017B017A0279047E007F0B23
:103CA1001227B478047C027D017B017A0179F97EC7
:063CB100007F0B0227B4A6
:0D3DD400E4F5FDF5FEF5FA75FB40F5FC2267
:033E290002000094
:103C6900E4FE7DA2EF600E74812EF582E43402F544
:103C790083EDF0800C74812EF582E43402F583E43F
:073C8900F00D0EEEB404DDA6
:013C90002211
:083E090075FE0100000000221B
:103B1C00AD07AC06E4F5FAECF5FBAF058FFC75FDD3
:103B2C00A5900281E064A27018A3E0B4A313A3E0F3
:103B3C00B4A40EA3E0B4A50975FE03000000008038
:073B4C0003123E29023DD4E3
:10383E00AD07AC067F007E80123E09E4FBEF2BF550
:10384E0082E43EF583E4F00BEBB440F1E4F5FAECE0
:10385E00F5FBAF058FFC75FDA5900281E064A270AB
:10386E0018A3E0B4A313A3E0B4A40EA3E0B4A50977
:0F387E0075FE02000000008003123E29023DD4B7
:0B344B00900244EBF0A3EAF0A3E9F0CC
:10345600E4900248F0A37480F0A3E4F0A3EEF0A396
:10346600EFF053A87F7F01123C6990024BE0FEA368
:10347600E0FF12383E123E09E4900247F090024403
:10348600E0FBA3E0FAA3E0F9900248E0FF04F08F26
:10349600827583001227F3FF900247E0FE900249EF
:1034A600E0FCA3E02EF582E43CF583EFF0900247C2
:1034B600E004F0E0B440C690024BE0FEA3E0FF1249
:1034C6003B1CE4FF123C6990024CE02440F0900261
:0834D6004BE03400F043A88034
:0134DE0022CB
:073E11008F828E83E493FF12
:013E18002287
:100100009002357400F0A37468F0A37480F0A3E447
:10011000F0900234F0900234E0FFC394405016A3F4
:10012000E0FCA3E02FF582E43CF583E4F090023498
:10013000E004F080E090023B7404F0A3E4F090024D
:1001400034F0900234E0FFC39440503490023BE01E
:10015000FCA3E0F5828C83E493FE900235E0FCA3DF
:10016000E02FF582E43CF583EEF090023CE004F0F1
:10017000700690023BE004F0900234E004F080C28C
:10018000900235E0FEA3E0FFF5828E83E064AA6072
:100190000302036FA3A3E064AA600302036F90024B
:1001A00035A3E02404F582E43EF583E064AA60030D
:1001B00002036FEF2406F582E43EF583E064AA6053
:1001C0000302036F53A87F900239F0A3F0A3744099
:1001D000020368900239E0FEA3E0FDAC06E4900261
:1001E00034F0900234E0F9C39440400302026D9071
:1001F0000239E0FEA3E0FFC3EE94004009D3EF9480
:1002000000EE9404400FC3EE94054045D3EF94FFF5
:10021000EE943F503C90023BE0FEA3E0F5828E83DB
:10022000E493FF900235E0FAA3E029F582E43AF581
:1002300083EFF090023CE004F0700690023BE00493
:10024000F090023AE004F0701B900239E004F08074
:1002500013900234E0FFA3E0FAA3E02FF582E43A22
:10026000F583E4F0900234E004F00201E275FE014F
:1002700000000000E4900234F0900234E0FFC394E8
:10028000405018900237E0FAA3E02FF582E43AF5E7
:1002900083E4F0900234E004F080DEE4F5FAECF55B
:1002A000FB8DFC75FDA50000000075FE020000003E
:1002B00000E4F5FDF5FEF5FA75FB05F5FC75FE01AC
:1002C00000000000900234F0900234E0F9A3E0FE58
:1002D000A3E029F582E43EF583E0FF900237E0FADF
:1002E000A3E029F582E43AF583EFF0900234E004CC
:1002F000F0E0B440D3E4F5FAECF5FBAF058FFC7504
:10030000FDA50000000075FE0300000000E4F5FDFF
:10031000F5FEF5FA75FB05F5FC900239E0FEA3E069
:10032000FFC3EE9404400CD3EF9400EE9405500309
:10033000120000900239E0FEA3E0B40014EEB40114
:10034000109002397405F0A3E4F0A37445F0A3E41F
:10035000F0900239E0FEA3E0C394FFEE943F500317
:100360000201D39002397404F0A3E4F00201D31225
:05037000050043A88018
:010375002265
:10388D007834E670FBE47838F67F64900195E4F0C7
:10389D00A3DFFCE4FF1227DAFE601674952FF58284
:1038AD00E43401F583EEF0740129F9E43AFA0F805E
:1038BD00E4E47839F6783476017837760A7839E6A3
:0D38CD00062495F582E43401F583E0F5E56D
:0138DA0022CB
:103AE400783AE660327838E6C3941440277834E6AE
:103AF40070FB783A16E47838F608F678347601786C
:103B040037760A7839E6062495F582E43401F5839C
:083B1400E0F5E52278380622F5
:10356E00900002E0FEA3E0FF900000E06E7003A367
:10357E00E06F60777836760A900002E0FEA3E0FFF7
:10358E002468F58274003EF583E0FD18E62404F508
:10359E0082E43400F583EDF074682FF58274003EFA
:1035AE00F583E4F090000275F001122854FEC3E595
:1035BE00F0942CEE94014007E4900002F0A3F07812
:1035CE0035E6062404F582E43400F583E0640A70DF
:1035DE008F7B017A0079041205267F64900004E443
:0B35EE00F0A3DFFCE47835F602356E38
:0135F90022AF
:1033CB00020500E493A3F8E493A34003F68001F213
:1033DB0008DFF48029E493A3F85407240CC8C33303
:1033EB00C4540F4420C8834004F456800146F6DFD2
:1033FB00E4800B0102040810204080903E26E47EFE
:10340B00019360BCA3FF543F30E509541FFEE493C6
:10341B00A360010ECF54C025E060A840B8E493A38D
:10342B00FAE493A3F8E493A3C8C582C8CAC583CAB8
:10343B00F0A3C8C582C8CAC583CADFE9DEE780BE70
:013E28000099
:1026E400E709F608DFFA8046E709F208DFFA803ED8
:1026F40088828C83E709F0A3DFFA8032E309F608C5
:10270400DFFA8078E309F208DFFA807088828C832C
:10271400E309F0A3DFFA806489828A83E0A3F608E0
:10272400DFFA805889828A83E0A3F208DFFA804CBA
:1027340080D280FA80C680D4806980F28033801091
:1027440080A680EA809A80A880DA80E280CA8033FA
:1027540089828A83ECFAE493A3C8C582C8CCC58372
:10276400CCF0A3C8C582C8CCC583CCDFE9DEE78042
:102774000D89828A83E493A3F608DFF9ECFAA9F0C1
:10278400EDFB2289828A83ECFAE0A3C8C582C8CC17
:10279400C583CCF0A3C8C582C8CCC583CCDFEADE30
:1027A400E880DB89828A83E493A3F208DFF980CC92
:1027B40088F0EF60010E4E60C388F0ED2402B4048B
:1027C4000050B9F582EB2402B4040050AF23234532
:0627D400822390273473FC
:1027DA00BB010689828A83E0225002E722BBFE02FD
:0927EA00E32289828A83E4932230
:1027F300BB010CE58229F582E5833AF583E022509B
:1028030006E92582F8E622BBFE06E92582F8E222E4
:0D281300E58229F582E5833AF583E49322FE
:10282000BB010689828A83F0225002F722BBFE0197
:02283000F32291
:10283200F8BB010DE58229F582E5833AF583E8F0DC
:10284200225006E92582C8F622BBFE05E92582C888
:02285200F22270
:10285400C5F0F8A3E028F0C5F0F8E582158270020F
:062864001583E038F022AC
:10286A00A3F8E0C5F025F0F0E58215827002158321
:06287A00E0C838F0E8227E
:10288000D083D082F8E4937012740193700DA3A3E7
:1028900093F8740193F5828883E4737402936860FB
:0628A000EFA3A3A380DFFB
:00000001FF
