:0300000002303695
:1030360078FFE4F6D8FD9000007F007E03E4F0A35D
:0A304600DFFCDEFA75813A0201009A
:1005000053A87F12346712390D123A121239FA12B7
:1005100039B312393B1239641239C043A8801236FC
:06052000A612010080FE9E
:03001B0002327935
:0F327900C0E0C083C082C0D075D000C000C007C5
:10328800AFF553F1DF7825760A300E237827E6C3A9
:103298009408500DE606243FF582E43402F583EFE6
:1032A800F0EF640A702A7827F6D210B20E802178DF
:1032B80027E6C39408500DE6062447F582E4340255
:1032C800F583EFF0EFB40A0878277600D211B20E32
:0D32D800D007D000D0D0D082D083D0E0321B
:030023000235E0C3
:1035E000C0E0C083C082C0D075D000C00053F17F5E
:1035F0007824E660247826760A7828E6062437F5CB
:1036000082E43402F583E0F5F5E62437F582E4340C
:1036100002F583E070037824F6D000D0D0D082D0B9
:0436200083D0E03241
:03004B0002340C70
:10340C00C0E0C0F0C083C082C0D075D000C000C086
:05341C0004C006C0071A
:10342100AFE553E1DF900000E0FCA3E02468F58202
:1034310074003CF583EFF0900000E475F001122573
:1034410085FEC3E5F0942CEE94014007900000E462
:03345100F0A3F0F5
:10345400D007D006D004D000D0D0D082D083D0F012
:03346400D0E03283
:030053000236244E
:10362400C0E0C083C082C0D075D000C00053E17F29
:103634007834E660247837760A7839E6062494F5F7
:1036440082E43401F583E0F5E5E62494F582E4347C
:1036540001F583E070037834F6D000D0D0D082D066
:0436640083D0E032FD
:03006B0002372237
:10372200C0E0C0F0C083C082C0D075D000C000C06D
:1037320001C002C003C004C005C006C0071233AFF7
:10374200D007D006D005D004D003D002D001D000DB
:0B375200D0D0D082D083D0F0D0E03285
:03008300023668DA
:10366800C0E0C0F0C083C082C0D075D000C000C028
:1036780001C002C003C004C005C006C007122D6007
:10368800122E31D007D006D005D004D003D002D0F6
:0E36980001D000D0D0D082D083D0F0D0E0326C
:0300A300023554CF
:10355400C0E0C0D075D000C000C007B20230022D58
:10356400780E06E6D3943B40247600780A06E6D328
:10357400943B40197600780F06E6D39417400E76F4
:1035840000780BE625E0FFF6BF80027601D007D075
:0635940000D0D0D0E032AF
:0839F100AF9FEFFEAD9EEDFF5C
:0139F90022AB
:073A1200759C80759D0722E1
:0F398700EF540FFFE59C54F04FF59C439C4022FA
:0839FA00E4F59AF599F59B2212
:0D39B30075B28875B45D43AA0243B20122CB
:10393B00901000748AF0A3744AF043AA1090100000
:05394B00E04401F02240
:1039640075DA0275D90643DAECE4F5DB75E30C434A
:03397400A918226D
:1038F50020181275EA0275E90643EAECE4F5EB7562
:08390500F34D43A818D218226B
:1039500030180EE4F5EAF5E9F5EAF5EBF5F353A8CE
:04396000E7C2182280
:0D39C00075968875890175898143AB0422D5
:10390D0090103874A8F075C80A758B09E58B30E7EF
:08391D00FB758A0143C8052275
:1034670075A17FE4F5ACF591F5DEF58075B198753A
:10347700AD20F592F5DFF58875B9FFF5AEF593F553
:103487009075C1FEF5AFF59875C9FEF5A3F594F5EE
:10349700A075D1FFF595F5B075D320F5D2F5D575A3
:1034A700D403F5D775D603F5EE75EF0A75FF2D2210
:0F39960024242474696D652073796E630D0A0013
:1033AF00D2057813E6FF7002D208EFB40102D209FA
:1033BF00EFB40202D20AEFB40302D20BEFB404024D
:1033CF00D20CEFB40502D20DEF64067024783716D5
:1033DF00E670037834F6783616E670037835F678AB
:1033EF002616E670037824F6782516E670037827FC
:0D33FF00F6781306E6C3940A4002E4F622B5
:10277D00780EE6FF78146670030228B4A60790025F
:10278D005FE0601990024FE004F0D3940A400EE42C
:10279D00F0900259E0FF7812E69F500106780AE6A4
:1027AD00FF78106670030228B4A607780CE6601F48
:1027BD0016E6701B1238BCE490025EF0783A76058E
:1027CD00900260E070047F0180027F001225D79097
:1027DD00025FE0601F14F0701B1238BCE490025EC3
:1027ED00F0783A7605900260E070047F0180027FF8
:1027FD00001225D7900251E0640160030228A090D9
:10280D000253E0780F6660030228A0A3E0780A6601
:10281D0060030228A0900252E0FF08E6FEEF5E6022
:10282D0072EF20E706EEF4FEEF5EF078127601C24D
:10283D0001E490024FF090025E04F0900260740388
:10284D00F0900255E090026AF0900256E090026717
:10285D00F0900257E0900265F0900258E0900284EB
:10286D00F090025AE024FF9217A3E0900266F090D8
:10287D00025CE0900274F090025DE090025FF078EF
:10288D000CF6900250F0740370047F0180027F00FB
:10289D001225D7780FE6FF780866600BA6077BFF39
:0728AD007A39799612350615
:0128B4002201
:102BA70030073B900261E004F0C3940C400DE4F061
:102BB700A3E004F0D394184002C207900262E0FF3A
:102BC70030E00543801080035380EFEF30E005438A
:102BD700802080035380DFEF30E04D022C783003F4
:102BE70023900261E004F0C394324010E4F0A3E0C4
:102BF70004F0D394064005C203120000438010433B
:102C07008020806D300023900261E004F0C3940CB3
:102C1700400DE4F0A3E004F0D394104002C200900A
:102C27000262E030E00280498051900260E0D39474
:102C3700015018900266E070125380EF5380DF5303
:102C470080BFE4780CF6900250F022900250E0FF2B
:102C5700B40F084380105380DF8020EFB41E085361
:102C670080EF4380208014EFB43C0A5380EF5380F9
:0F2C7700DF438040225380EF5380DF5380BF2222
:10389900781276029002747401F0900260F0D201FD
:1038A9005390EF783A7603E070047F0180027F003D
:0338B9000225D70E
:1036A600123899122F8F300502C205300808C20859
:1036B600123A19121E0C300905C209122C86300A5C
:1036C60005C20A122082300B05C20B12224E300CA4
:0E36D600D2C20C122BA712379412277D80C58A
:102AB30020202020200D0A0041542B4D540D0A00E4
:102AC30041542B4D410D0A0041542B4D450D0A0035
:102AD30041542B4D440D0A0041542B43410D0A0030
:102AE30041542B43420D0A0041542B43430D0A002A
:102AF30041542B43500D0A0041542B43440D0A000B
:102B030041542B435A0D0A0041542B48300D0A00FF
:102B130041542B48310D0A0041542B48320D0A0011
:102B230041542B48330D0A0041542B48340D0A00FD
:102B330041542B48350D0A0041542B48360D0A00E9
:102B430041542B48370D0A0041542B48380D0A00D5
:102B530041542B48390D0A0041542B48410D0A00BA
:102B630041542B48420D0A0041542B48430D0A009F
:102B730041542B48440D0A0041542B48450D0A008B
:102B830041542B48460D0A00000102030607090AB7
:102B93000C0E0F00010203040404050606070708D0
:042BA30008090A0A09
:10359A007824E670FB7F08900237E4F0A3DFFCE4AE
:1035AA00FF12250BFE601674372FF582E43402F5FC
:1035BA0083EEF0740129F9E43AFA0F80E4E47828FA
:1035CA00F6782476017828E6062437F582E4340270
:0535DA00F583E0F5F5AA
:0135DF0022C9
:1037FB00EFC3940B500CEF75F008A424B3F9742AA3
:10380B0080107812E6902B8B9375F008A4240BF99B
:0A381B00742B35F0FA7BFF12359A8A
:013825002280
:1029B700201006201103022AB2301012C210900212
:1029C7001A7401F0A37402F0A3743FF08010C211CF
:1029D70090021A7401F0A37402F0A37447F09002F6
:1029E7001AE0FBA3E0FAA3E0F912250BFFB4491F95
:1029F700900001122524FEB44902D213EEB441021D
:102A0700C213EE64586003022A97C213022A97EF93
:102A1700B44D1C900001122524FFB44102C214EFEB
:102A27006442706CD2147812E6F47829F680611249
:102A3700250BFFB44F1290000112252464467050F5
:102A4700900260E064028048EF644870439002603F
:052A5700E06402703B89
:102A5C00900001122524FFD3648094B94005EF2423
:102A6C00C9801390021AE0FBA3E0FAA3E0F99000EE
:102A7C000112252424D07812F67812E6D3940F4054
:0B2A8C0002760F7812E6902B9693F66E
:102A9700E4FF90021AE0FBA3E0FAA3E0F98F827546
:0B2AA7008300E41225630FEFB408E782
:012AB2002201
:102C86001229B7900260E064026003022D19200F3A
:102C960013782BF6C213C2147812E6F47829F6E4F8
:102CA600900236F0D20F900236E014601D14601CBC
:102CB60014601E14601D240470215390EF4390028B
:102CC600E58830E603022D5F800780055390BF80BC
:102CD6006880664390401238F580627812E6FF7885
:102CE60029666009A6077F0B1237FB800D782AE656
:102CF600FF60071237FBE4782AF6E58830E21078A1
:102D06002BE6D39405400443901022782B062253D9
:102D160090EF22300F08E4782BF6900236F0C20FBF
:102D2600900236E0146012146011146010146014DE
:102D3600240470255390EF800480028000900236B0
:102D4600E004F022900236E004F0900260E0D394B2
:0A2D56000150065390BF12395022BD
:10334C00242424415457510D0A002424244661633B
:10335C00746F72792073657474696E670D0A00243A
:10336C002424576966692072657365740D0A0024FC
:10337C002424456E74657220546573744D6F6465B6
:10338C000D0A00000004C0060108670A900BE50D49
:10339C00560E000050056006A109070B300C850D78
:0333AC00F60E001A
:102EE300E490021AF01239F1900277EEF0A3EFF0BA
:102EF300C394A0EE940F504AE4FFEF25E0248FF52E
:102F030082E43433F583E493FC740193FD900277F8
:102F1300E0FAA3E0FBC39DEA9C4022EF25E0249F57
:102F2300F582E43433F583E493FC740193FDD3EB2E
:102F33009DEA9C5008EF0490021AF080050FEFB44D
:102F430008B87F0512398790021AE0FFB4040AE536
:102F53008820E5057408F0802DEFB4010DE5882085
:102F6300E50890021A7409F0801CEFB4020DE5889D
:102F730020E50890021A740AF0800BE58820E50624
:0B2F830090021A7403F090021AE0FFA5
:012F8E002220
:1028B500E4900275F090027EE0FE6F600EA3E06F7B
:1028C5006003EFF02290027EEFF02290027DE0FFA0
:1028D5006E6003022962EF70030229B6900279E067
:1028E50070030229B6900279E014F060030229B65C
:1028F50090027DE090027BF0900276E070059002F8
:102905007504F090027CE014602114603214602F8D
:10291500240360030229B690027C7401F090027BC7
:10292500E04420F09002797432F02290027C740227
:10293500F090027BE04460F09002797414F02290EC
:10294500027C7403F090027BE04480F0900279747D
:1029550014F0A3E0C394FA5058E004F02290027DED
:10296500E0603790027BF0900276E070059002758A
:1029750004F090027CE024FE601014600F240270C5
:102985001290027BE04440F08009800090027BE0D9
:1029950044C0F0E490027CF08009E4900276F09067
:1029A500027AF09002797405F090027EE090027D43
:0229B500F0220E
:063A1900122EE30228B5A5
:101E0C00900275E0700302208190025EE06024E491
:101E1C00F0900276F01238BC783A7605900260E0C9
:101E2C0070047F0180027F001225D7E490025FF0DE
:101E3C00021F9890027BE01225B11E7D411EC2420A
:101E4C001F29431F40441F58451FA0462000471F11
:101E5C000D621FE666200E671EAA811F29831F4094
:101E6C0084201B8820448920628A1E7DC1000020AA
:101E7C008190027AE0C394194003022081900260A1
:101E8C00E060051238BC8003123874783A760590FD
:101E9C000260E070047F0180027F000225D790026F
:101EAC007AE064196003022081783A76057BFF7A28
:101EBC0033794C02207E900260E0FF64016004EFF5
:101ECC00B40216C201C2179002607403F09002842F
:101EDC00E0600302208104F022900260E064036061
:101EEC0003022081C201301704C2178026C217904A
:101EFC000284E004F0D3940650030220817401F0B4
:101F0C0022900260E064036003022081B217201764
:101F1C0007C201783076182278307617229002604A
:101F2C00E0D3940150030220817812E6940A500108
:101F3C0006C20122900260E0D3940150030220817A
:101F4C007812E6D39401400116C20122900260E09F
:101F5C00D394015009900266E07003022081900234
:101F6C0050E0FF7008780C760F740FF022EFB40F6E
:101F7C000B780C761E900250741EF022EFB41E0BE0
:101F8C00780C763C900250743CF022E4780CF6907D
:101F9C000250F022900260E07003022081900266F1
:101FAC00E0B40A028015900274E0700404F0800E14
:101FBC00900266E004F0D3940940037401F090029F
:101FCC0066E06409600302208190026DF090026B60
:101FDC00F0900269F0900268F022900266E07003C3
:101FEC00022081900274E004F0D394035003022089
:101FFC0081E4F022900260E0607B640260777402FE
:10200C00F022900260E06402706B782A76052290D0
:10201C00027AE06432705E900261F0900262F0D25B
:10202C000390026004F0783A76057BFF7A33795698
:10203C001235067F0A0237FB90027AE06432703563
:10204C00D207900261F0900262F0783A76057BFF3D
:10205C007A33796B801C90027AE0B41918D200E4C0
:10206C00900261F0900262F0783A76037BFF7A334B
:06207C00797B12350622FB
:102D6000900273E014F070035398F7900272E0142D
:102D7000F070035398EF900271E014F070035398D1
:102D8000DF90026EE014F06003022E30900274E0D7
:102D9000FF700A900273F0900272F0805AEFB40153
:102DA0002290026BE01313543F900273F09002697B
:102DB000E01313543F900272F0900268E013135432
:102DC0003F8034900274E090026BB40219E0C313A8
:102DD000900273F0900269E0C313900272F09002C7
:102DE00068E0C3138011E0900273F0900269E090F4
:102DF0000272F0900268E0900271F0900260E0B41C
:102E0000020AE58830E10543881080035388EF907B
:102E10000273E06003439808900272E060034398F5
:102E200010900271E060034398209002637401F0F7
:012E3000227F
:1039770090026BEFF0900269EDF0900268EBF02295
:101B3E0090026CE004F0C394045003021E0BE49078
:101B4E00026CF0A3E0FF705A90026BE0C394FF505A
:101B5E0003E004F0900269E0D394004003E014F037
:101B6E00900268E0D394004003E014F090026BE022
:101B7E00F46003021E0B900269E06003021E0B90DC
:101B8E000268E06003021E0B90026F75F0011225D1
:101B9E0085FCD3E5F0941EEC94005003021E0B025C
:101BAE001DA5EF6401707490026BE0C394FF5003A7
:101BBE00E004F090026BE0D394FF4003E014F09049
:101BCE000269E0C394805003E004F0900269E0D310
:101BDE0094804003E014F0900268E0D39400400338
:101BEE00E014F090026BE0F46003021E0B900269A9
:101BFE00E064806003021E0B900268E06003021E28
:101C0E000B90026F75F001122585FED3E5F0941E40
:101C1E00EE94005003021E0B021DA590026DE0FF14
:101C2E006402705B90026BE0C394FF5003E004F01B
:101C3E00900269E0C394FF5003E004F0900268E064
:101C4E00D394004003E014F090026BE0F4600302C2
:101C5E001E0B900269E0F46003021E0B900268E016
:101C6E006003021E0B90026F75F001122585FCD3E6
:101C7E00E5F0941EEC94005003021E0B021DA5EF1E
:101C8E006403705A90026BE0D394004003E014F0AA
:101C9E00900269E0C394FF5003E004F0900268E004
:101CAE00D394004003E014F090026BE06003021E38
:101CBE000B900269E0F46003021E0B900268E06074
:101CCE0003021E0B90026F75F001122585FED3E5FF
:101CDE00F0941EEE94005003021E0B021DA59002FE
:101CEE006DE0FF6404705990026BE0D394004003E2
:101CFE00E014F0900269E0D394004003E014F090F9
:101D0E000268E0C394FF5003E004F090026BE060C1
:101D1E0003021E0B900269E06003021E0B90026824
:101D2E00E0F46003021E0B90026F75F00112258520
:101D3E00FCD3E5F0941EEC94005003021E0B80576A
:101D4E00EF6405706090026BE0D394004003E014E2
:101D5E00F0900269E0C394FF5003E004F090026833
:101D6E00E0C394FF5003E004F090026BE0600302C6
:101D7E001E0B900269E0F46003021E0B900268E0F5
:101D8E00F4707A90026F75F001122585FED3E5F09E
:101D9E00941EEE94004066E490026FF0A3F0900261
:101DAE006DE004F02290026BE0C394FF5003E00458
:101DBE00F0900269E0D394004003E014F0900268C2
:101DCE00E0C394FF5003E004F090026BE0B4FF2DEB
:101DDE00900269E07027900268E0B4FF2090026FD5
:101DEE00E475F001122585FED3E5F09432EE9400F1
:0E1DFE00400BE490026FF0A3F090026DF02213
:10224E00900263E07003022414E4900263F09002A3
:10225E0066E0FFB4091B7811666016E0F6E49002A2
:10226E006DF090026B747FF0E4900269F09002685A
:10227E00F0900260E06007900266E0FE7004E4FBFE
:10228E008051EEB401047BFF8021900266E0FEB423
:10229E000205E4FBFD8016EEB40306E4FB7D8080B0
:1022AE000C900266E0FEB40408E4FB7DFF7FFF8025
:1022BE0034EEB40507E4FB7DFFFF8029900266E053
:1022CE00FEB406087BFF7DFFE4FF8019EEB407071E
:1022DE007BFFE4FDFF800E900266E0FEB4080C7BEF
:1022EE00FFE4FD7F801239770223EAEE640A600371
:1022FE000223E090026AE0FFA3F0900267E0FE90F6
:10230E000269F0900265E0FD900268F0EFB4FF11F3
:10231E00EEB4FF0DEDB4FF099002667401F00223D6
:10232E00EA90026AE0B4FF13900267E0700D90022B
:10233E0065E07007A37402F00223EA90026AE0FFE0
:10234E00B4FF14900267E0B4800D900265E0700750
:10235E00A37403F00223EAEFB4FF13900267E0B414
:10236E00FF0C900265E07006A37404F0806E90027C
:10237E006AE07013900267E0B4FF0C900265E070A3
:10238E0006A37405F0805590026AE0FF7014900267
:10239E0067E0B4FF0D900265E0B4FF06A37406F08B
:1023AE00803AEF7013900267E0700D900265E0B412
:1023BE00FF06A37407F0802490026AE0B4801D909B
:1023CE000267E07017900265E0B4FF10A37408F086
:1023DE00800A900266E0B40903121B3E900266E08A
:1023EE00FF701AEFB40A1690026BE090026AF0903A
:1023FE000269E0900267F0A3E0900265F090026639
:07240E00E060037811F622E3
:0B39E600000102030507090A0C0E0F88
:0E39A500EF9039E693FFC374169FFF0238DCE3
:1038DC00201515D215EF14782DF6E4782FF67832E2
:0938EC00F653887F782C76C8227F
:102E3100201503022EE2783206E6C3782C96500361
:102E4100022EE2E47832F6782FE6B4130040030252
:102E51002EDA902E5AF8282873022E93022E9C0205
:102E61002EA5022EB9022EA5022EB9022EA5022EE2
:102E7100B9022EA5022EB9022EA5022EB9022EA547
:102E8100022EB9022EA5022EB9022EA5022EB902DA
:102E91002ED4438880782C76A0804353887F782C69
:102EA1007614803A438880782DE630E70518761E3F
:102EB100802C782C760A802653887F782DE6FF3087
:102EC100E70518760A8004782C761EEF25E0782D28
:102ED100F6800B782C76C8800553887FC215782F31
:022EE1000622C7
:10208200900260E0640360030221ED2016157831AE
:10209200F6900284E0F47833F67812E6F4782EF6BD
:1020A200E4A3F0D216900285E0146028146038147C
:1020B200604A240370495390EF783106E6D39419AD
:1020C200500302224D5390FD4390401238F5E478BC
:1020D2003102221A439802783106E6D39432500331
:1020E20002224DE402221A783106E6D394C8500344
:1020F20002224D900285E004F0E4F62202222B78BF
:1021020030E6FF603930150302224DB417097BFF18
:102112007A1979A41235067830E6B418159002843B
:10212200E075F018A424A4F9741935F0FA7BFF12B3
:1021320035067830E6FF1238DCE47830F622900279
:1021420084E0783366604830150302224DE0FFF6E2
:10215200EF6003B4170ED217783376177BFF7A1924
:1021620079A48019900284E0FFD394065012EF758F
:10217200F018A424A4F9741935F0FA7BFF1235067D
:102182007833E6FF1238DC900284E07833F6227965
:1021920012E7782E66601030150302224D7812E69F
:1021A200FF782EF60239A5A201300401B350297836
:1021B2003AE67024A20192043001087BFF7A197971
:1021C200A48012900284E075F018A424A4F9741972
:1021D20035F0FA7BFF023506201708200105781238
:1021E200E670045390EF2243901022301605E490DB
:1021F2000285F0C216900285E014601214601C146D
:10220200602E240370452013035390EF801B783116
:1022120006E6D394144034E4F6800E783AE6702B46
:102222007BFF7A1979A4123506900285E004F02228
:10223200201318900285E004F05398FD900260E0AC
:0C224200D3940150065390BF1239502273
:10392500757064617465206661696C0075706461A9
:063935007465206F6B00B9
:0C39DA0053E13F8FE5E5E154C060FA22A4
:1036E40090022DEBF0A3EAF0A3E9F0801690022DEE
:1036F400E0FBA3E0FAA3E0F912250B6020E5E15416
:10370400C060EA53E13F90022DE0FBA3E475F001B1
:0E37140012259BA9F0FA12250BF5E580D022B4
:10136A0053ABFB53A8E753A9E753AAEFE47817F660
:10137A00781AF608F67815F608F6900226F0A3F021
:10138A00A3F09002867400F0A37468F0E49002223D
:10139A00F0A3F0900222E0FEA3E0FFC3942CEE94A7
:1013AA00015020900286E0FCA3E02FF582EC3EF586
:1013BA0083E4F0900223E004F070D8900222E00463
:1013CA00F080D07F431239DA7817E6B40800400378
:1013DA000217D19013E4F82828730213FC0214812F
:1013EA0002151E0215A40216350216970216D60217
:1013FA001783E5E130E534900286E0FEA3E0F5824A
:10140A008E83C083C082781A0806E61886067001A1
:10141A000614D082D0832582F582E5833EF583E5E2
:10142A00E5F0E4900226F0A3F0A3F0900286E0FE35
:10143A00A3E0F5828E83E0B46E25781DE618466037
:10144A000E7BFF7A3979251236E4E47817F6227B87
:10145A00FF7A3979311236E4781776060217D57889
:10146A001BE66407700418E6640160030217D57866
:10147A001AF608F602177EE4781AF608F69002863B
:10148A00E0FEA3E0F5828E83E0F9A3E0FE900286F7
:10149A00E0FCA3E0F5828C83A3A3E0FDAC069002F6
:1014AA0086E0FAA3E0FBF5828A83A3A3A3E0FEEB1E
:1014BA002404F582E43AF583E0FBEBFFE9B4020E7B
:1014CA00EFF4FFEEF4FEEF6D7002EE6C60030215AE
:1014DA009C7815E6FE08E6FFC3ED9FFFEC9EFEEF43
:1014EA0064014E6004EF4E7025AE04AF057815A670
:1014FA000608A607E6FEE42400FFEE3440FE90024A
:10150A0029F0A3EFF0D394FFEE947F400422021552
:10151A009C02177EE4900224F0A3F0FFFE900222C0
:10152A00F0A3F0900222E0FCA3E0FDC3EC9401508A
:10153A0034ED2405FDE43CFC900286E0FAA3E02D9C
:10154A00F582EA3CF583E0FD900225E02DF0900259
:10155A0024E03400F0900223E004F070C6900222E6
:10156A00E004F080BE900286E0FCA3E0FD2405F5CD
:10157A0082EC3401F583E0FEED2406F582EC3401B9
:10158A00F583E0FDEDFF900224E06E7003A3E06FA7
:10159A0060057F150216D002177E900229E0FEA38D
:1015AA00E0FF900287E02405FD900286E03400FA0D
:1015BA00A9057B011230D090022AE02440FF900254
:1015CA0029E03400FE900287E02445FD900286E07F
:1015DA003400FAA9057B011230D090022AE0248057
:1015EA00FF900229E03400FE900287E02485FD90F6
:1015FA000286E03400FAA9057B011230D090022A53
:10160A00E024C0FF900229E03400FE900287E02423
:10161A00C5FD900286E03400FAA9057B011230D09C
:10162A00781DE6161870011602177EE4900222F061
:10163A00A3F0900222E0FEA3E0FFC3EE9401504A19
:10164A0090022AE02FFF900229E03EFE123A0A9009
:10165A000223E02405FD900222E03400FC90028679
:10166A00E0FAA3E02DF582EA3CF583E06F600B7F98
:10167A00151239DAE47817F68010900223E004F0A4
:10168A0070B0900222E004F080A802177EE4900273
:10169A0022F0A3F0900222E0FEA3E0FFC3942CEE16
:1016AA0094015020900286E0FCA3E02FF582EC3EE4
:1016BA00F583E4F0900223E004F070D8900222E06F
:1016CA0004F080D07F961239DA0217D190022B7477
:1016DA0001F0A3E4F09002297441F0A3E4F090022F
:1016EA002BE0FEA3E0C394FFEE9403400302177EAF
:1016FA00E4900222F0A3F0900222E0FEA3E0FFC3EE
:10170A009440EE9400503790022AE02FFF9002296D
:10171A00E03EFE123A0A900222E0FCA3E0FD9002AB
:10172A0086E0FAA3E02DF582EA3CF583EFF0900219
:10173A0023E004F070C1900222E004F080B9900224
:10174A002BE0FEA3E0FF900286E0FCA3E0AA04F9E6
:10175A007B011230D090022AE02440F0900229E066
:10176A003400F090022CE02440F090022BE0340088
:10177A00F00216E87817068052E4900222F0A3F0ED
:10178A00900222E0FEA3E0FFC39440EE94005021B1
:10179A00900286E0FCA3E02FF582EC3EF58374AA62
:1017AA00F0900223E004F070D7900222E004F08067
:1017BA00CF900286E0FEA3E0AA06F97B017F007EB5
:1017CA00041230D0020000E47817F6900226E004F2
:1017DA00F060030213D2A3E004F060030213D2A361
:1017EA00E004F0C3940250030213D2120000021361
:0117FA00D21C
:1017FB007B54696D6553796E63005475726E206FFF
:10180B006E20756E6974005475726E206F6666205B
:10181B00756E6974004770537461005475726E2055
:10182B006F6E204254006D7573696320706C617923
:10183B00006D757369632070617573650053656C1A
:10184B0065637420536F756E642066696C65007BED
:10185B004D757369635374617475730041646A7574
:10186B007374204F757470757420566F6C756D653D
:10187B0000766F6C756D6520757000766F6C756D8D
:10188B006520646F776E006D75736963206D757479
:10189B0065006D7573696320756E6D7574650053A6
:1018AB0065742054696D6572005475726E206F6695
:1018BB00662054696D6572005475726E206F6E20D0
:1018CB004C6967687472005475726E206F6666207F
:1018DB004C6967687472006C696768742075700076
:1018EB006C6967687420646F776E004368616E671C
:1018FB0065206C6967687420636F6C6F720041645C
:10190B006A757374204C69676874204272696768E2
:10191B00746E657373005573657220636F6C6F72B1
:10192B00007B50726F6772616D0050726F506C610B
:10193B00790D0A007B416C61726D4F6E4F666600CC
:10194B007B416C61726D536574007B416C614770B8
:10195B00537461007B4E6F72477053746100207536
:10196B00706461746500415457510D0A005645521D
:10197B000D0A00242424564552302E330D0A0045FF
:10198B006E74657220546573744D6F64650D0A0037
:10199B000101020408102040802424247B4D757320
:1019AB0069635374617475733A5B30375D7D0D0AEF
:1019BB00002424247B4D75736963537461747573B0
:1019CB003A5B30315D7D0D0A002424247B4D757309
:1019DB0069635374617475733A5B30325D7D0D0AC4
:1019EB00002424247B4D7573696353746174757380
:1019FB003A5B30335D7D0D0A002424247B4D7573D7
:101A0B0069635374617475733A5B30345D7D0D0A91
:101A1B00002424247B4D757369635374617475734F
:101A2B003A5B30355D7D0D0A002424247B4D7573A4
:101A3B0069635374617475733A5B30365D7D0D0A5F
:101A4B00002424247B47705374613A5B30302C3074
:101A5B00302C30302C30302C3030303030302C308B
:101A6B00302C30302C30302C30303B30302C303070
:101A7B002C30302C3030303030302C30302C30306B
:101A8B002C30302C30302C30303A30302C30305D24
:101A9B007D0D0A002424247B416C614770537461D3
:101AAB003A5B30302C30302C30302C30302C303006
:101ABB00303030302C30302C30302C30302C30302B
:101ACB002C30302C30303A30302C30305D7D0D0ADC
:101ADB00002424247B4E6F7247705374613A5B3041
:101AEB00302C30302C30302C30302C3030303030FB
:101AFB00302C30302C30302C30302C30305D7D0D94
:101B0B000A002424247B4E6F7247705374613A5B36
:101B1B0030302C30302C30302C30302C30303030CA
:101B2B0030302C30302C30302C30302C30305D7D40
:031B3B000D0A0090
:1032E50090022574FFF0A37418F07405A3F0900202
:0932F5001FE0FBA3E0FAA3E0F9DD
:1032FE00900222EBF0A3EAF0A3E9F0900225E0FBA6
:10330E00A3E0FAA3E0F912250BFF602F900222E052
:10331E00FBA3E0FAA3E0F912250BB507056003EF56
:10332E0070037F0122900223E475F001122585902F
:0E333E000226E475F00112258580C07F002272
:1031F30090021FE0FBA3E0FAA3E0F990000B122575
:1032030024FF90000C122524FD12324E90026AEF27
:10321300F090021FE0FBA3E0FAA3E0F990000D1287
:103223002524FF90000E122524FD12324E900267D2
:10323300EFF090021FE0FBA3E0FAA3E0F990000F88
:0B324300122524900010FF122524FD2E
:10324E00C3EF648094C14006EF24C9FF800474D09C
:10325E002FFFC3ED648094C14006ED24C9FD8004A8
:0B326E0074D02DFDEFC454F04DFF2282
:0537CA00FF122524FDA3
:1037CF00C3EF648094C14006EF24C9FF800474D016
:1037DF002FFFC3ED648094C14006ED24C9FD800422
:0C37EF0074D02DFDEF75F00AA42DFF2210
:103164001231C490021BE0FBA3E0FAA3E0241AF995
:10317400E43AFA90026AE0FD1231C490021BE0FBCB
:10318400A3E0FAA3E0241CF9E43AFA900267E0FD14
:103194001231C490021BE0FBA3E0FAA3E0241EF961
:1031A400E43AFA900265E0FD1231C490021BE0FBA0
:1031B400A3E0FAA3E09002742421F9E43AFAE0FDD2
:1031C400EDC4540FFFC3940AEF4004243780022453
:1031D40030122551740129F9E43AFAED540FFFC372
:0E31E400940AEF400424378002243012255153
:0131F20022BA
:103874009002607401F0780DE6B403047F038002C3
:103884007F01900260EFF07809E67812F67811E68D
:05389400900266F02225
:1038BC00900260E0780DF6E4F07812E67809F69064
:1038CC000266E07811F6E4F0780CF6900250F022E3
:0525D70090021AEFF074
:1025DC007834E670FBE47838F67F64900194E4F08C
:1025EC00A3DFFCE4FFEFFD3395E0FC744C2DF5828A
:1025FC00741A3CF583E493FE74942DF58274013CBB
:10260C00F583EEF00FEFB452DC7B017A01799F90E9
:10261C00021AE0FD1231C47A0179A2900260E0B492
:10262C000308900284E0FFFD80027D071231C47B19
:10263C00017A0179A5900266E07003FD80027D01AC
:10264C001231C47B017A0179A8900266E0B40904C6
:10265C007D0180027D001231C47B017A0179AB903F
:10266C00026AE0FD1231C47A0179AD900267E0FD97
:10267C001231C47A0179AF900265E0FD1231C47A4F
:10268C000179B2900274E0FD1231C47A0179B57807
:10269C0012E6FD1231C47A0179B8A217E433FD12A7
:1026AC0031C47A0179BB780CE6FD1231C47A017918
:1026BC00BEE4FD1231C47A0179C1900258E0FD12DA
:1026CC0031C47A0179C4900264E0B409047D0180BC
:1026DC00027D001231C47B017A0179C7900255E06A
:1026EC00FD1231C47A0179C9900256E0FD1231C451
:1026FC007A0179CB900257E0FD1231C47A0179CE80
:10270C0090025CE0FD1231C47A0179D1900259E05B
:10271C00FD1231C47A0179D4900251E0FD1231C41A
:10272C007A0179D7900252E0FD1231C47A0179DA3C
:10273C00900253E0FD1231C47A0179DD900254E02D
:10274C00FD1231C47A0179E090025DE0FD1231C4D2
:10275C00783A7602E47839F6783476017837760A66
:10276C007839E6062494F582E43401F583E0F5E546
:01277C00223A
:0B05260090021BEBF0A3EAF0A3E9F049
:100531002403F9E43AFA90021FEBF0A3EAF0A3E9ED
:10054100F0900260E0700302112E90022574FFF01A
:10055100A37417F074FB1232F1EF707290021FE076
:10056100FBA3E0FAA3E0F990000B12252490000C04
:10057100123249780FA60790021FE0FBA3E0FAA30D
:10058100E0F990000E122524FF90000F12324A78F4
:100591000AA60790021FE0FBA3E0FAA3E0F990008E
:1005A10011122524FF90001212324A780EA60790EC
:1005B100021FE0FBA3E0FAA3E0F990001E1225243C
:1005C10024D0780BF6E690199B93F60208C51232F7
:1005D100E5EF700F900260E060030208C512387405
:1005E1000208C590022574FFF0A37418F0A37412D9
:1005F1001232F2EF70061238BC0208C5900225745F
:10060100FFF0A37418F0A374201232F2EF700122EC
:1006110090022574FFF0A37418F0A374261232F22D
:10062100EF70099002607402F00208C5900225740F
:10063100FFF0A37418F0A374311232F2EF70199025
:1006410002607403F0C201C217F0900284E07003EB
:1006510004F022783076182290022574FFF0A374FA
:1006610018F0A3743C1232F2EF7012900260E06451
:10067100036003021369D21778307617229002259E
:1006810074FFF0A37418F0A374481232F2EF702FC4
:10069100C201C2179002607403F090021FE0FBA335
:1006A100E0FAA3E0F990001A12252424D0FF900269
:1006B10084F07833E6B5070478307618021200909A
:1006C100022574FFF0A37418F0A3745A1232F2EFEA
:1006D10070012290022574FFF0A37418F0A37467CF
:1006E1001232F2EF701990021FE0FBA3E0FAA3E0CF
:1006F100F99000141225249000151237CA806490D5
:10070100022574FFF0A37418F0A3747C1232F2EF87
:1007110070207812E6FFC3940A5013EF9408500733
:10072100E62402FFF68009781206E6FF80027F0ABE
:10073100803190022574FFF0A37418F0A37486121F
:1007410032F2EF70277812E6FFD394014013EF9451
:10075100034007E624FEFFF68009781216E6FF80C3
:10076100027F017812A607C2010208C59002257412
:10077100FFF0A37418F0A374921232F2EF7003D257
:10078100012290022574FFF0A37418F0A3749D1246
:1007910032F2EF7003C2012290022574FFF0A374BC
:1007A10018F0A374AA1232F2EF701C90021FE0FB42
:1007B100A3E0FAA3E0F990000A12252490000B129D
:1007C10037CA780CEF801590022574FFF0A37418D6
:1007D100F0A374B41232F2EF700A780CF690025062
:1007E100F00208C590022574FFF0A37418F0A374F9
:1007F100C31232F2EF70117811E6900266F06003D5
:100801000208C504F00208C590022574FFF0A37424
:1008110018F0A374D21232F2EF7007900266F00260
:1008210008C590022574FFF0A37418F0A374E212B6
:1008310032F2EF7012900274E0C394034003020895
:10084100C5E004F00208C590022574FFF0A37418F6
:10085100F0A374EB1232F2EF700E900274E0D394B5
:10086100004061E014F0805C90022574FFF0A374F5
:1008710018F0A374F61232F2EF701990026674093F
:10088100F0E490026DF090026BF0900269F090023A
:1008910068F0803090022574FFF0A37419F0A374FE
:1008A100091232F2EF701D90021FE0FBA3E0FAA3E0
:1008B100E0F9900018122524FF9000191237CB900F
:1008C1000274EFF090022574FFF0A37419F0A37481
:1008D100211232F2EF70111231F3900265EFF090B4
:1008E1000266740AF002112090022574FFF0A374CD
:1008F10019F0A3742C1232F2EF6003020A5012387D
:100901004E90021FE0FBA3E0FAA3E0F990000E1263
:10091100252424D0900284F09001F8F09000111267
:100921002524FFB431047E0180027E00900266EE30
:10093100F09001F9F0EFB4311C90021FE0FBA3E04D
:10094100FAA3E0F9900014122524B431047F098040
:10095100067F0A80027F00900266EFF09001F9F0B5
:1009610090021FE0FBA3E0FAA3E0F9900016122524
:1009710024FF90001712324A90026AEFF09001FAB8
:10098100F090021FE0FBA3E0FAA3E0F99000181237
:100991002524FF90001912324A900267EFF090016E
:1009A100FBF090021FE0FBA3E0FAA3E0F990001A2C
:1009B100122524FF90001B12324A900265EFF0903D
:1009C10001FCF090021FE0FBA3E0FAA3E0F9900024
:1009D1001D122524FF90001E1237CB900274EFF0F8
:1009E1009001FDF090021FE0FBA3E0FAA3E0F99073
:1009F1000020122524FF90002112324A7812EFF6CE
:100A01009001FEF09002607403F09001FFF09002FB
:100A11001FE0FBA3E0FAA3E0F990002412252424AF
:100A2100D024FF9217E433900200F0201705C20191
:100A3100E4A3F0900026122524FF90002712324AE9
:100A4100780CEFF6900250F0900202F00211209023
:100A5100022574FFF0A37419F0A374351232F2EF7A
:100A610070559001F8E0900284F09001F9E0900255
:100A710066F09001FAE090026AF09001FBE09002CA
:100A810067F09001FCE0900265F09001FDE09002BA
:100A910074F09001FEE07812F6A3E0900260F0900D
:100AA1000200E024FF9217201702C201900202E027
:100AB100900250F002112090022574FFF0A37419E6
:100AC100F0A3743F1232F2EF707190021FE0FBA3AA
:100AD100E0FAA3E0F990001112252424D0900251EC
:100AE100F0900013122524FF90001412324A780F5F
:100AF100A60790021FE0FBA3E0FAA3E0F99000161D
:100B0100122524FF90001712324A780AA607900294
:100B11001FE0FBA3E0FAA3E0F9900019122524FFDE
:100B210090001A12324A780EA60790021FE0FBA32A
:100B3100E0FAA3E0F9900026020D0790022574FF68
:100B4100F0A37419F0A3744B1232F2EF6003020D9B
:100B51001890021FE0FBA3E0FAA3E0F990000F1246
:100B6100252424D0900258F0C394074002E4F09069
:100B71000012122524FF24D090025BF0EFB4311152
:100B8100900015122524B431047F0980067F0A8064
:100B9100027F0090025BEFF090021FE0FBA3E0FAFE
:100BA100A3E0F9900017122524FF90001812324A91
:100BB100900255EFF090021FE0FBA3E0FAA3E0F9E9
:100BC100900019122524FF90001A12324A90025601
:100BD100EFF090021FE0FBA3E0FAA3E0F990001B05
:100BE100122524FF90001C12324A900257EFF09018
:100BF100021FE0FBA3E0FAA3E0F990001F122524F5
:100C010024D090025CF0900021122524FF90002254
:100C110012324A900259EFF090021FE0FBA3E0FA72
:100C2100A3E0F990002512252424D090025AF090D7
:100C3100002812252424D0900251F090002A122578
:100C410024FF90002B12324A900252EFF090021FC3
:100C5100E0FBA3E0FAA3E0F990002D122524FF9018
:100C6100002E12324A900253EFF090021FE0FBA3D4
:100C7100E0FAA3E0F9900030122524FF9000311230
:100C8100324A900254EFF090021FE0FBA3E0FAA376
:100C9100E0F9900033122524FF90003412324A907B
:100CA100025DEFF090021FE0FBA3E0FAA3E0F990F0
:100CB1000036122524FF90003712324A780FA6071A
:100CC10090021FE0FBA3E0FAA3E0F990003912259E
:100CD10024FF90003A12324A780AA60790021FE0D8
:100CE100FBA3E0FAA3E0F990003C122524FF900059
:100CF1003D12324A780EA60790021FE0FBA3E0FAEC
:100D0100A3E0F990004912252424D0780BF6E6904F
:100D1100199B93F602112090022574FFF0A3741918
:0D0D2100F0A374551232F2EF6003020EF6DB
:100D2E0090021EF090021EE0FFC39464501C9002CD
:100D3E001BE0FBA3E0FAA3E0F98F82758300E412B7
:100D4E00256390021EE004F080DAE490021EF0901B
:100D5E00021EE0FF901A9F93FE90021BE0FBA3E0A1
:100D6E00FAA3E0F98F82758300EE12256390021EBE
:100D7E00E004F0E0B43ED890021BE0FBA3E0FAA33F
:100D8E00E0240EF9E43AFAE4FD1231C490021BE0BD
:100D9E00FBA3E0FAA3E02411F9E43AFA900258E03A
:100DAE00FF6003FD80027D071231C490021BE0FB41
:100DBE00A3E0FAA3E02414F9E43AFA90025BE0709F
:100DCE0003FD80027D011231C490021BE0FBA3E003
:100DDE00FAA3E02417F9E43AFA90025BE0B40904AE
:100DEE007D0180027D001231C490021BE0FBA3E066
:100DFE00FAA3E0241AF9E43AFA900255E0FD123112
:100E0E00C490021BE0FBA3E0FAA3E0241CF9E43A31
:100E1E00FA900256E0FD1231C490021BE0FBA3E0F3
:100E2E00FAA3E0241EF9E43AFA900257E0FD1231DB
:100E3E00C490021BE0FBA3E0FAA3E090025C123127
:100E4E00BC90021BE0FBA3E0FAA3E02424F9E43AF1
:100E5E00FA900259E0FD1231C490021BE0FBA3E0B0
:100E6E00FAA3E02427F9E43AFA90025AE0FD12318F
:100E7E00C490021BE0FBA3E0FAA3E0242AF9E43AB3
:100E8E00FA900251E0FD1231C490021BE0FBA3E088
:100E9E00FAA3E0242DF9E43AFA900252E0FD123161
:100EAE00C490021BE0FBA3E0FAA3E02430F9E43A7D
:100EBE00FA900253E0FD1231C490021BE0FBA3E056
:100ECE00FAA3E02433F9E43AFA900254E0FD123129
:100EDE00C490021BE0FBA3E0FAA3E02436F9E43A47
:050EEE00FA90025DE036
:100EF30002101C90022574FFF0A37419F0A3745F11
:090F03001232F2EF600302102724
:100F0C0090021EF090021EE0FFC39464501C9002ED
:100F1C001BE0FBA3E0FAA3E0F98F82758300E412D7
:100F2C00256390021EE004F080DAE490021EF0903B
:100F3C00021EE0FF901ADC93FE90021BE0FBA3E084
:100F4C00FAA3E0F98F82758300EE12256390021EDE
:100F5C00E004F0E0B430D890021BE0FBA3E0FAA36D
:100F6C00E0240EF9E43AFA7D011231C490021BE040
:100F7C00FBA3E0FAA3E02411F9E43AFA900260E052
:100F8C00B40308900284E0FFFD80027D071231C497
:100F9C0090021BE0FBA3E0FAA3E02414F9E43AFA74
:100FAC00900266E07003FD80027D011231C4900254
:100FBC001BE0FBA3E0FAA3E02417F9E43AFA900251
:100FCC0066E0B409047D0080027D01123164900258
:100FDC001BE0FBA3E0FAA3E02424F9E43AFA78122C
:100FEC00E6FD1231C490021BE0FBA3E0FAA3E0245F
:100FFC0027F9E43AFAA217E433FD1231C490021B2C
:10100C00E0FBA3E0FAA3E0242AF9E43AFA780CE630
:08101C00FD1231C4783A76029E
:1010240002112090022574FFF0A37419F0A37469CF
:101034001232F2EF60030210D890021FE0FBA3E02B
:10104400FAA3E0F990000A122524FF90000B123253
:101054004AEF7F00FEC007C00690021FE0FBA3E03A
:10106400FAA3E0F990000C122524FF90000D12322F
:101074004AEFFD3395E0FCD0E04CFED0E04D78180B
:10108400A60608F690021FE0FBA3E0FAA3E0F9909D
:101094000011122524FF90001212324AEF7F00FE45
:1010A400C007C00690021FE0FBA3E0FAA3E0F9909A
:1010B4000013122524FF90001412324AEFFD3395D9
:1010C400E0FCD0E04CFED0E04D781CA60608F612F9
:1010D400136A804890022574FFF0A37419F0A37476
:1010E400711232F2EF7002802F90022574FFF0A388
:1010F4007419F0A374781232F2EF70097BFF7A1935
:10110400797E02136690022574FFF0A37419F0A38C
:10111400748A1232F2EF7004783AF62290021BE0DD
:10112400FBA3E0FAA3E0F90213661232E5EF700FB5
:10113400900260E0600302135B12387402135B9048
:10114400022574FFF0A37418F0A374C31232F2EFF3
:101154007011123874900266E0600302135B04F0AD
:1011640002135B90022574FFF0A37418F0A374F6C5
:101174001232F2EF701D1238749002667409F0E4B2
:1011840090026DF090026BF0900269F0900268F0AA
:1011940002135B90022574FFF0A37419F0A3742169
:1011A4001232F2EF70141238741231F3900265EFB8
:1011B400F0900266740AF002135B90022574FFF04B
:1011C400A37418F0A374481232F2EF704812387402
:1011D400C201C2179002607403F090021FE0FBA3E7
:1011E400E0FAA3E0F990001A12252424D0FF90021B
:1011F40084F07833E6B5070478307618783A7601C7
:10120400900284E075F018A424A4F9741935F0FA56
:101214007BFF02136690022574FFF0A37418F0A3F9
:1012240074201232F2EF70012290022574FFF0A3B1
:0F1234007419F0A3745F1232F2EF600302135BC0
:1012430090021EF090021EE0FFC39464501C9002B3
:101253001BE0FBA3E0FAA3E0F98F82758300E4129D
:10126300256390021EE004F080DAE490021EF09001
:10127300021EE0FF901B0D93FE90021BE0FBA3E018
:10128300FAA3E0F98F82758300EE12256390021EA4
:10129300E004F0E0B430D890021BE0FBA3E0FAA333
:1012A300E0240EF9E43AFAE4FD1231C490021BE0A3
:1012B300FBA3E0FAA3E02411F9E43AFA900260E018
:1012C300B40308900284E0FFFD80027D071231C45D
:1012D30090021BE0FBA3E0FAA3E02414F9E43AFA3A
:1012E300900266E07003FD80027D011231C490021A
:1012F3001BE0FBA3E0FAA3E02417F9E43AFA900217
:1013030066E0B409047D0080027D0112316490021D
:101313001BE0FBA3E0FAA3E02424F9E43AFA7812F1
:10132300E6FD1231C490021BE0FBA3E0FAA3E02424
:1013330027F9E43AFAA217E433FD1231C490021BF1
:10134300E0FBA3E0FAA3E0242AF9E43AFA780CE6F6
:08135300FD1231C4783A760264
:0E135B0090021BE0FBA3E0FAA3E0F9123506B6
:011369002261
:10384E00780E7C027D017B017A0279037E007F0B6C
:10385E001224E578037C027D017B017A0179F87EE2
:06386E00007F0B0224E5BF
:0D39CD00E4F5FDF5FEF5FA75FB40F5FC2272
:033A1F00020000A2
:10382600E4FE7DA2EF600E74802EF582E43402F58C
:1038360083EDF0800C74802EF582E43402F583E487
:07384600F00D0EEEB404DDED
:01384D002258
:083A020075FE01000000002226
:10375D00AD07AC06E4F5FAECF5FBAF058FFC75FD96
:10376D00A5900280E064A27018A3E0B4A313A3E0B7
:10377D00B4A40EA3E0B4A50975FE030000000080FB
:07378D0003123A1F0239CDBF
:1034B700AD07AC067F007E80123A02E4FBEF2BF5E6
:1034C70082E43EF583E4F00BEBB440F1E4F5FAEC6B
:1034D700F5FBAF058FFC75FDA5900280E064A27037
:1034E70018A3E0B4A313A3E0B4A40EA3E0B4A50902
:0F34F70075FE02000000008003123A1F0239CD5B
:0B30D00090022DEBF0A3EAF0A3E9F062
:1030DB00E4900231F0A37480F0A3E4F0A3EEF0A32C
:1030EB00EFF053A87F7F01123826900234E0FEA345
:1030FB00E0FF1234B7123A02E4900230F090022D46
:10310B00E0FBA3E0FAA3E0F9900231E0FF04F08FBB
:10311B0082758300122524FF900230E0FE9002326C
:10312B00E0FCA3E02EF582E43CF583EFF090023057
:10313B00E004F0E0B440C6900234E0FEA3E0FF12DE
:10314B00375DE4FF123826900235E02440F0900200
:08315B0034E03400F043A880C9
:013163002249
:073A0A008F828E83E493FF1D
:013A11002292
:1001000090021B7400F0A37468F0A37480F0A3E461
:10011000F090021AF090021AE0FFC394405016A328
:10012000E0FCA3E02FF582E43CF583E4F090021AB2
:10013000E004F080E09002217404F0A3E4F0900267
:100140001AF090021AE0FFC394405034900221E06C
:10015000FCA3E0F5828C83E493FE90021BE0FCA3F9
:10016000E02FF582E43CF583EEF0900222E004F00B
:100170007006900221E004F090021AE004F080C2C0
:1001800090021BE0FEA3E0FFF5828E83E064AA608C
:100190000302036FA3A3E064AA600302036F90024B
:1001A0001BA3E02404F582E43EF583E064AA600327
:1001B00002036FEF2406F582E43EF583E064AA6053
:1001C0000302036F53A87F90021FF0A3F0A37440B3
:1001D00002036890021FE0FEA3E0FDAC06E490027B
:1001E0001AF090021AE0F9C39440400302026D90A5
:1001F000021FE0FEA3E0FFC3EE94004009D3EF949A
:1002000000EE9404400FC3EE94054045D3EF94FFF5
:10021000EE943F503C900221E0FEA3E0F5828E83F5
:10022000E493FF90021BE0FAA3E029F582E43AF59B
:1002300083EFF0900222E004F07006900221E004C7
:10024000F0900220E004F0701B90021FE004F080A8
:100250001390021AE0FFA3E0FAA3E02FF582E43A3C
:10026000F583E4F090021AE004F00201E275FE0169
:1002700000000000E490021AF090021AE0FFC3941C
:1002800040501890021DE0FAA3E02FF582E43AF501
:1002900083E4F090021AE004F080DEE4F5FAECF575
:1002A000FB8DFC75FDA50000000075FE020000003E
:1002B00000E4F5FDF5FEF5FA75FB05F5FC75FE01AC
:1002C0000000000090021AF090021AE0F9A3E0FE8C
:1002D000A3E029F582E43EF583E0FF90021DE0FAF9
:1002E000A3E029F582E43AF583EFF090021AE004E6
:1002F000F0E0B440D3E4F5FAECF5FBAF058FFC7504
:10030000FDA50000000075FE0300000000E4F5FDFF
:10031000F5FEF5FA75FB05F5FC90021FE0FEA3E083
:10032000FFC3EE9404400CD3EF9400EE9405500309
:1003300012000090021FE0FEA3E0B40014EEB4012E
:100340001090021F7405F0A3E4F0A37445F0A3E439
:10035000F090021FE0FEA3E0C394FFEE943F500331
:100360000201D390021F7404F0A3E4F00201D3123F
:05037000050043A88018
:010375002265
:103506007834E670FBE47838F67F64900194E4F052
:10351600A3DFFCE4FF12250BFE601674942FF582E0
:10352600E43401F583EEF0740129F9E43AFA0F80E8
:10353600E4E47839F6783476017837760A7839E62D
:0D354600062494F582E43401F583E0F5E5F8
:013553002255
:10379400783AE660307838E6B414277834E670FB7B
:1037A400783A16E47838F608F6783476017837767D
:1037B4000A7839E6062494F582E43401F583E0F5C9
:0637C400E5227838062220
:102F8F00900002E0FEA3E0FF900000E06E7003A34C
:102F9F00E06F70030230357836760A900002E0FE5B
:102FAF00A3E0FF2468F58274003EF583E0FD18E688
:102FBF002404F582E43400F583EDF074682FF58274
:102FCF0074003EF583E4F090000275F00112258540
:102FDF00FEC3E5F0942CEE94014007E4900002F05C
:102FEF00A3F07835E6062404F582E43400F583E097
:102FFF00640A708C7B017A007904120526E4783517
:10300F00F690021AF090021AE0FFC3946440030294
:10301F002F8F74042FF582E43400F583E4F09002CF
:06302F001AE004F080DF4E
:013035002278
:10305000020500E493A3F8E493A34003F68001F291
:1030600008DFF48029E493A3F85407240CC8C33381
:10307000C4540F4420C8834004F456800146F6DF50
:10308000E4800B0102040810204080903A22E47E84
:10309000019360BCA3FF543F30E509541FFEE49345
:1030A000A360010ECF54C025E060A840B8E493A30C
:1030B000FAE493A3F8E493A3C8C582C8CAC583CA37
:1030C000F0A3C8C582C8CAC583CADFE9DEE780BEEF
:013A220000A3
:10241500E709F608DFFA8046E709F208DFFA803EA9
:1024250088828C83E709F0A3DFFA8032E309F60896
:10243500DFFA8078E309F208DFFA807088828C83FE
:10244500E309F0A3DFFA806489828A83E0A3F608B2
:10245500DFFA805889828A83E0A3F208DFFA804C8C
:1024650080D280FA80C680D4806980F28033801063
:1024750080A680EA809A80A880DA80E280CA8033CC
:1024850089828A83ECFAE493A3C8C582C8CCC58344
:10249500CCF0A3C8C582C8CCC583CCDFE9DEE78014
:1024A5000D89828A83E493A3F608DFF9ECFAA9F093
:1024B500EDFB2289828A83ECFAE0A3C8C582C8CCE9
:1024C500C583CCF0A3C8C582C8CCC583CCDFEADE02
:1024D500E880DB89828A83E493A3F208DFF980CC64
:1024E50088F0EF60010E4E60C388F0ED2402B4045D
:1024F5000050B9F582EB2402B4040050AF23234504
:062505008223902465739F
:10250B00BB010689828A83E0225002E722BBFE02CE
:09251B00E32289828A83E4932201
:10252400BB010CE58229F582E5833AF583E022506C
:1025340006E92582F8E622BBFE06E92582F8E222B6
:0D254400E58229F582E5833AF583E49322D0
:10255100BB010689828A83F0225002F722BBFE0169
:02256100F32263
:10256300F8BB010DE58229F582E5833AF583E8F0AE
:10257300225006E92582C8F622BBFE05E92582C85A
:02258300F22242
:10258500C5F0F8A3E028F0C5F0F8E58215827002E1
:062595001583E038F0227E
:10259B00A3F8E0C5F025F0F0E582158270021583F3
:0625AB00E0C838F0E82250
:1025B100D083D082F8E4937012740193700DA3A3B9
:1025C10093F8740193F5828883E4737402936860CD
:0625D100EFA3A3A380DFCD
:00000001FF
