:030000000230BE0D
:1030BE0078FFE4F6D8FD9000007F007E03E4F0A3D5
:0A30CE00DFFCDEFA75813A02010012
:023BE600C11B01
:1005000053A87F1235C3123AC4123BD5123BBD1219
:100510003B6A123AF2123B1B123B77123B9143A803
:09052000801237BB12010080D7E4
:03001B00023309A4
:0F330900C0E0C083C082C0D075D000C000C00734
:10331800AFF553F1DF7825760A3011237827E6C315
:103328009408500DE606247BF582E43402F583EF19
:10333800F0EF640A702A7827F6D213B21180217848
:1033480027E6C39408500DE6062483F582E4340288
:10335800F583EFF0EFB40A0878277600D214B2119B
:0D336800D007D000D0D0D082D083D0E0328A
:030023000236EFB3
:1036EF00C0E0C083C082C0D075D000C00053F17F4E
:1036FF007824E660247826760A7828E6062473F57F
:10370F0082E43402F583E0F5F5E62473F582E434C0
:10371F0002F583E070037824F6D000D0D0D082D0A9
:04372F0083D0E03231
:03004B0002356813
:10356800C0E0C0F0C083C082C0D075D000C000C029
:0535780004C006C007BD
:10357D00AFE553E1DF900000E0FCA3E02468F582A5
:10358D0074003CF583EFF0900000E475F001122417
:10359D0076FEC3E5F0942CEE94014007900000E414
:0335AD00F0A3F098
:1035B000D007D006D004D000D0D0D082D083D0F0B5
:0335C000D0E03226
:030053000237333E
:10373300C0E0C083C082C0D075D000C00053E17F19
:103743007834E660247837760A7839E6062495F5E6
:1037530082E43401F583E0F5E5E62495F582E4346B
:1037630001F583E070037834F6D000D0D0D082D056
:0437730083D0E032ED
:03006B00023878E0
:10387800C0E0C0F0C083C082C0D075D000C000C016
:1038880001C002C003C004C005C006C00712350B42
:10389800D007D006D005D004D003D002D001D00084
:0B38A800D0D0D082D083D0F0D0E0322E
:030083000237FC45
:1037FC00C0E0C0F0C083C082C0D075D000C000C093
:10380C0001C002C003C004C005C006C007122DC60B
:10381C00122F60D007D006D005D004D003D002D030
:0E382C0001D000D0D0D082D083D0F0D0E032D6
:0300A300023663BF
:10366300C0E0C0D075D000C000C007B20330032D46
:10367300780E06E6D3943B40247600780A06E6D318
:10368300943B40197600780F06E6D39417400E76E4
:1036930000780BE625E0FFF6BF80027601D007D065
:0636A30000D0D0D0E0329F
:083BB400AF9FEFFEAD9EEDFF97
:013BBC0022E6
:073BD500759C80759D07221D
:0F3B3E00EF540FFFE59C54F04FF59C439C402241
:083BBD00E4F59AF599F59B224D
:043BE200438D2022CD
:0C3B9100758E01758DC0438D02023BE271
:0D3B6A0075B28875B45D43AA0243B2012212
:103AF200901000748AF0A3744AF043AA1090100048
:053B0200E04401F02287
:103B1B0075DA0275D90643DAECE4F5DB75E30C4391
:033B2B00A91822B4
:103AAC00201B1275EA0275E90643EAECE4F5EB75A6
:083ABC00F34D43A818D21B22B0
:103B0700301B0EE4F5EAF5E9F5EAF5EBF5F353A812
:043B1700E7C21B22C4
:0D3B770075968875890175898143AB04221C
:103AC40090103874A8F075C80A758B09E58B30E737
:083AD400FB758A0143C80522BD
:1035C30075A17FE4F5ACF591F5DEF58075B19875DD
:1035D300AD20F592F5DFF58875B9FFF5AE75930269
:1035E300F59075C1FEF5AFF59875C9FEF5A3F59491
:1035F300F5A075D1FFF595F5B075D320F5D2F5D5C6
:1036030075D403F5D775D603F5EE75EF0A75FF2D5F
:013613002294
:0F3B4D0024242454696D652073796E630D0A007A
:10350B00D2087813E6FF7002D20BEFB40102D20C93
:10351B00EFB40202D20DEFB40302D20EEFB40402E9
:10352B00D20FEFB40502D210EF6406702478371671
:10353B00E670037834F6783616E670037835F6784D
:10354B002616E670037824F6782516E6700378279E
:0D355B00F6781306E6C3940A4002E4F62257
:10282500780EE6FF78146670030229CBA60790029E
:1028350008E060199001F9E004F0D3940A400EE431
:10284500F0900203E0FF7812E69F500106900271B6
:10285500E0B4012190026FE004F0E0C3940A401552
:10286500E4F0783A76037BFF7A3B794D1233759025
:1028750002717402F0780AE6FF7810667003022987
:10288500CBA607780CE6601F16E6701B123984E4A8
:10289500900208F0783A760390020AE070047F010E
:1028A50080027F0012267D900209E0601F14F070FF
:1028B5001B123984E4900208F0783A760590020AF2
:1028C500E070047F0180027F0012267D9001FBE00D
:1028D500640160030229939001FDE0780F666003AF
:1028E500022993A3E0780A6660030229939001FC0C
:1028F500E0FF08E6FEEF5E7003022993EF20E7068E
:10290500EEF4FEEF5EF078127601C201E49001F973
:10291500F090020804F090020A7403F09001FFE0C1
:102925009002ABF0900200E09002A8F0900201E066
:102935009002A6F0900202E09002C5F0900204E039
:1029450024FF921A201A03C38001D39201201A048E
:102955007F1880027F177830A607900205E0900265
:10296500A7F0900206E09002B5F0900207E0900211
:1029750009F0780CF69001FAF090020AE070047FF5
:102985000180027F0012267D783A7603D2069002F6
:1029950071E0B4021090026FE004F0E0C3940240CD
:1029A50004E4F0D205780FE6FF7808666018A607FC
:1029B50090022DE004F0E0C39418400AE4F0900280
:0629C500717402F0D2055E
:0129CB0022E9
:1029CC00300A3D90022CE004F0C3940C400FE4F06C
:1029DC00900270E004F0D394184002C20A90027086
:1029EC00E0FF30E00543801080035380EFEF30E0D0
:1029FC000543802080035380DFEF30E074022AC649
:032A0C003004484B
:102A0F0090022CE004F0C394324035E4F090027051
:102A1F00E004F0D394064005C204120000E49002D3
:102A2F008BF090028BE0FFC394405014742E2FF55F
:102A3F0082E43402F583E4F090028BE004F080E24C
:082A4F00438010438020806FDA
:102A570030002590022CE004F0C3940C400FE4F002
:102A6700900270E004F0D394104002C2009002700C
:102A7700E030E0028049805190020AE0D39401508F
:102A8700189002A7E070125380EF5380DF5380BF86
:102A9700E4780CF69001FAF0229001FAE0FFB40F07
:102AA700084380105380DF8020EFB41E085380EF67
:102AB7004380208014EFB43C0A5380EF5380DF43F8
:0D2AC7008040225380EF5380DF5380BF22F8
:10391F00781276029002B57401F090020AF0D2018B
:10392F005390EF783A7603E070047F0180027F00B6
:10393F0012267D9002717401F090028C7404F0A332
:03394F007440F0D1
:013952002252
:1037BB0012391F12327B300802C208300B08C20BC1
:1037CB00123BDC121EE8300C05C20C122E97300D8A
:1037DB0005C20D1224C8300E05C20E12213F300F48
:1037EB000BC20F1229CC1234AD122825123BE280EA
:0137FB00C20B
:102CD20020202020200D0A0041542B4D540D0A00C3
:102CE20041542B4D410D0A0041542B4D450D0A0014
:102CF20041542B4D440D0A0041542B43410D0A000F
:102D020041542B43420D0A0041542B43430D0A0008
:102D120041542B43500D0A0041542B43440D0A00E9
:102D220041542B435A0D0A0041542B48300D0A00DE
:102D320041542B48310D0A0041542B48320D0A00F0
:102D420041542B48330D0A0041542B48340D0A00DC
:102D520041542B48350D0A0041542B48360D0A00C8
:102D620041542B48370D0A0041542B48380D0A00B4
:102D720041542B48390D0A0041542B48410D0A0099
:102D820041542B48420D0A0041542B48430D0A007E
:102D920041542B48440D0A0041542B48450D0A006A
:102DA20041542B48460D0A00000102030607090A96
:102DB2000C0E0F00010203040404050606070708AF
:042DC20008090A0AE8
:1036A9007824E670FB7F08900273E4F0A3DFFCE462
:1036B900FF1223FCFE601674732FF582E43402F5C1
:1036C90083EEF0740129F9E43AFA0F80E4E47828EA
:1036D900F6782476017828E6062473F582E4340224
:0536E900F583E0F5F59A
:0136EE0022B9
:1039DF00EFC3940B500CEF75F008A424D2F9742C9C
:1039EF0080107812E6902DAA9375F008A4242AF976
:0A39FF00742D35F0FA7BFF1236A993
:013A0900229A
:102BD600201306201403022CD1301312C2139002C4
:102BE6008B7401F0A37402F0A3747BF08010C214FE
:102BF60090028B7401F0A37402F0A37483F0900228
:102C06008BE0FBA3E0FAA3E0F91223FCFFB4491F13
:102C1600900001122415FEB44902D216EEB4410208
:102C2600C216EE64586003022CB6C216022CB6EF2A
:102C3600B44D1C900001122415FFB44102C217EFD7
:102C46006442706CD2177812E6F47829F680611225
:102C560023FCFFB44F1290000112241564467050F5
:102C660090020AE064028048EF6448704390020ACA
:052C7600E06402703B68
:102C7B00900001122415FFD3648094B94005EF2412
:102C8B00C9801390028BE0FBA3E0FAA3E0F990005C
:102C9B000112241524D07812F67812E6D3940F4043
:0B2CAB0002760F7812E6902DB593F62C
:102CB600E4FF90028BE0FBA3E0FAA3E0F98F8275B4
:0B2CC6008300E41224540FEFB408E771
:012CD10022E0
:102E9700122BD690020AE064026003022F2220124E
:102EA70013782BF6C216C2177812E6F47829F6E4DF
:102EB700900272F0D212900272E014601514601A38
:102EC700146019146018240470195390EF4390028A
:102ED700806F123B075390BF806780658067123A07
:102EE700AC80657812E6FF7829666009A6077F0B34
:102EF7001239DF800D782AE6FF60071239DFE478A0
:102F07002AF6E58830E210782BE6D394054004438F
:102F1700901022782B06225390EF22301208E47883
:102F27002BF6900272F0C212900272E01460121433
:102F370060111460101460172404701C5390EF8004
:102F47000780058003439040900272E004F02290CE
:092F57000272E004F05390FD2227
:1033DE00242424415457510D0A00242424466163A9
:1033EE00746F72792073657474696E670D0A0024A8
:1033FE002424576966692072657365740D0A00246A
:10340E002424456E74657220546573744D6F646523
:10341E003A302E34310D0A00000004C00601086750
:10342E000A900BE50D560E000050056006A1090727
:08343E000B300C850DF60E00A9
:10301200E490028BF0123BB49002B8EEF0A3EFF012
:10302200C394A0EE940F504AE4FFEF25E02426F566
:1030320082E43434F583E493FC740193FD9002B886
:10304200E0FAA3E0FBC39DEA9C4022EF25E0243690
:10305200F582E43434F583E493FC740193FDD3EBFD
:103062009DEA9C5008EF0490028BF080050FEFB4AC
:1030720008B87F05123B3E90028BE0FFB4040AE5DC
:103082008820E5057408F0802DEFB4010DE5882055
:10309200E50890028B7409F0801CEFB4020DE588FC
:1030A20020E50890028B740AF0800BE58820E50683
:0B30B20090028B7403F090028BE0FF93
:0130BD0022F0
:102AD400E49002B6F09002BFE0FE6F600EA3E06FD8
:102AE4006003EFF0229002BFEFF0229002BEE0FFFD
:102AF4006E6003022B81EF7003022BD59002BAE0C3
:102B04007003022BD59002BAE014F06003022BD5B7
:102B14009002BEE09002BCF09002B7E07005900213
:102B2400B604F09002BDE014602114603214602FEA
:102B340024036003022BD59002BD7401F09002BC03
:102B4400E04420F09002BA7432F0229002BD740284
:102B5400F09002BCE04460F09002BA7414F0229049
:102B640002BD7403F09002BCE04480F09002BA7499
:102B740014F0A3E0C394FA5058E004F0229002BE8B
:102B8400E060379002BCF09002B7E070059002B6A6
:102B940004F09002BDE024FE601014600F24027063
:102BA400129002BCE04440F0800980009002BCE036
:102BB40044C0F0E49002BDF08009E49002B7F090C4
:102BC40002BBF09002BA7405F09002BFE09002BE1E
:022BD400F022ED
:063BDC00123012022AD48F
:101EE8009002B6E0700302213E900208E06016E41A
:101EF800F09002B704F0783A7605123984E490023B
:101F080009F00220559002BCE01224A21F4B411F89
:101F18007F421FE6431FFD44201545205D4620BD36
:101F2800471FCA6220A36620CB671F67811FE6830D
:101F38001FFD8420D888210189211F8A1F4BC100D9
:101F480000213E9002BBE0C39419400302213E7871
:101F58003A760590020AE060030239840238EA9072
:101F680002BBE06419600302213E783A76057BFFE4
:101F78007A3379DE02213B90020AE0FF64016004B3
:101F8800EFB40216C201C21A90020A7403F090025A
:101F9800C5E0600302213E04F02290020AE06403D7
:101FA800600302213EC201301A04C21A8026C21AF6
:101FB8009002C5E004F0D39406500302213E740158
:101FC800F02290020AE06403600302213EB21A2064
:101FD8001A07C201783076182278307617229002D4
:101FE8000AE0D39401500302213E7812E6940A5085
:101FF8000106C2012290020AE0D394015003022193
:102008003E7812E6D39401400116C2012290020ADA
:10201800E0D3940150099002A7E0700302213E909A
:1020280001FAE0FF7008780C760F740FF022EFB415
:102038000F0B780C761E9001FA741EF022EFB41E76
:102048000B780C763C9001FA743CF022E4780CF69C
:102058009001FAF02290020AE0700302213E9002F9
:10206800A7E0B40A0280159002B5E0700404F0807D
:102078000E9002A7E004F0D3940940037401F09095
:1020880002A7E06409600302213E9002AEF09002CC
:10209800ACF09002AAF09002A9F0229002A7E0709A
:1020A8000302213E9002B5E004F0D39403500302EA
:1020B800213EE4F02290020AE0607B6402607774BB
:1020C80002F02290020AE06402706B782A760522F8
:1020D8009002BBE06432705E90022CF0900270F0C7
:1020E800D20490020A04F0783A76057BFF7A3379B5
:1020F800E81233757F0A0239DF9002BBE064327060
:1021080035D20A90022CF0900270F0783A76057B6E
:10211800FF7A3379FD801C9002BBE0B41918D20015
:10212800E490022CF0900270F0783A76037BFF7A04
:0721380034790D123375220A
:102DC6009002B4E014F070035398F79002B3E01445
:102DD600F070035398EF9002B2E014F0700353982A
:102DE600DF9002AFE014F06003022E969002B5E089
:102DF600FF700A9002B4F09002B3F0805AEFB4016B
:102E0600229002ACE01313543F9002B4F09002AA51
:102E1600E01313543F9002B3F09002A9E013135449
:102E26003F80349002B5E09002ACB40219E0C313BF
:102E36009002B4F09002AAE0C3139002B3F090029D
:102E4600A9E0C3138011E09002B4F09002AAE090CA
:102E560002B3F09002A9E09002B2F090020AE0B448
:102E6600020AE58830E10543881080035388EF9015
:102E760002B4E060034398089002B3E0600343980D
:102E8600109002B2E060034398209002A47401F00F
:012E96002219
:103B2E009002ACEFF09002AAEDF09002A9EBF02219
:101C1A009002ADE004F0C394045003021EE7E4907E
:101C2A0002ADF0A3E0FF705A9002ACE0C394FF50FB
:101C3A0003E004F09002AAE0D394004003E014F019
:101C4A009002A9E0D394004003E014F09002ACE0C3
:101C5A00F46003021EE79002AAE06003021EE79006
:101C6A0002A9E06003021EE79002B075F001122497
:101C7A0076FCD3E5F0941EEC94005003021EE702B2
:101C8A001E81EF640170749002ACE0C394FF5003AC
:101C9A00E004F09002ACE0D394FF4003E014F0902B
:101CAA0002AAE0C394805003E004F09002AAE0D3B1
:101CBA0094804003E014F09002A9E0D3940040031A
:101CCA00E014F09002ACE0F46003021EE79002AA6E
:101CDA00E064806003021EE79002A9E06003021E2E
:101CEA00E79002B075F001122476FED3E5F0941E57
:101CFA00EE94005003021EE7021E819002AEE0FF3E
:101D0A006402705B9002ACE0C394FF5003E004F0FD
:101D1A009002AAE0C394FF5003E004F09002A9E005
:101D2A00D394004003E014F09002ACE0F4600302A4
:101D3A001EE79002AAE0F46003021EE79002A9E0FF
:101D4A006003021EE79002B075F001122476FCD3FC
:101D5A00E5F0941EEC94005003021EE7021E81EF88
:101D6A006403705A9002ACE0D394004003E014F08C
:101D7A009002AAE0C394FF5003E004F09002A9E0A5
:101D8A00D394004003E014F09002ACE06003021E1A
:101D9A00E79002AAE0F46003021EE79002A9E0605D
:101DAA0003021EE79002B075F001122476FED3E515
:101DBA00F0941EEE94005003021EE7021E81900268
:101DCA00AEE0FF640470599002ACE0D39400400383
:101DDA00E014F09002AAE0D394004003E014F090DB
:101DEA0002A9E0C394FF5003E004F09002ACE06063
:101DFA0003021EE79002AAE06003021EE79002A90E
:101E0A00E0F46003021EE79002B075F00112247636
:101E1A00FCD3E5F0941EEC94005003021EE78057B1
:101E2A00EF640570609002ACE0D394004003E014C4
:101E3A00F09002AAE0C394FF5003E004F09002A9D4
:101E4A00E0C394FF5003E004F09002ACE0600302A8
:101E5A001EE79002AAE0F46003021EE79002A9E0DE
:101E6A00F4707A9002B075F001122476FED3E5F090
:101E7A00941EEE94004066E49002B0F0A3F0900243
:101E8A00AEE004F0229002ACE0C394FF5003E004F9
:101E9A00F09002AAE0D394004003E014F09002A963
:101EAA00E0C394FF5003E004F09002ACE0B4FF2DCD
:101EBA009002AAE070279002A9E0B4FF209002B035
:101ECA00E475F001122476FED3E5F09432EE940024
:0E1EDA00400BE49002B0F0A3F09002AEF022B4
:10213F009002A4E07003022305E49002A4F0900241
:10214F00A7E0FFB4091B7811666016E0F6E4900271
:10215F00AEF09002AC747FF0E49002AAF09002A966
:10216F00F090020AE060079002A7E0FE7004E4FB23
:10217F008051EEB401047BFF80219002A7E0FEB4F2
:10218F000205E4FBFD8016EEB40306E4FB7D8080C0
:10219F000C9002A7E0FEB40408E4FB7DFF7FFF80F4
:1021AF0034EEB40507E4FB7DFFFF80299002A7E022
:1021BF00FEB406087BFF7DFFE4FF8019EEB407072E
:1021CF007BFFE4FDFF800E9002A7E0FEB4080C7BBE
:1021DF00FFE4FD7F80123B2E0222DBEE640A6003D8
:1021EF000222D19002ABE0FFA3F09002A8E0FE9094
:1021FF0002AAF09002A6E0FD9002A9F0EFB4FF1141
:10220F00EEB4FF0DEDB4FF099002A77401F00222A6
:10221F00DB9002ABE0B4FF139002A8E0700D9002C8
:10222F00A6E07007A37402F00222DB9002ABE0FF7E
:10223F00B4FF149002A8E0B4800D9002A6E07007DE
:10224F00A37403F00222DBEFB4FF139002A8E0B4F3
:10225F00FF0C9002A6E07006A37404F0806E90024B
:10226F00ABE070139002A8E0B4FF0C9002A6E070F0
:10227F0006A37405F080559002ABE0FF7014900236
:10228F00A8E0B4FF0D9002A6E0B4FF06A37406F019
:10229F00803AEF70139002A8E0700D9002A6E0B4A0
:1022AF00FF06A37407F080249002ABE0B4801D906A
:1022BF0002A8E070179002A6E0B4FF10A37408F014
:1022CF00800A9002A7E0B40903121C1A9002A7E03B
:1022DF00FF701AEFB40A169002ACE09002ABF090C8
:1022EF0002AAE09002A8F0A3E09002A6F09002A745
:0722FF00E060037811F622F4
:0B3BA900000102030507090A0C0E0FC3
:0E3B5C00EF903BA993FFC374169FFF023A93AC
:103A9300201815D218EF14782DF6E4782FF6783223
:093AA300F653887F782C76C822C6
:102F6000201803023011783206E6C3782C965003FD
:102F7000023011E47832F6782FE6B41300400302F1
:102F80003009902F89F8282873022FC2022FCB0214
:102F90002FD4022FE8022FD4022FE8022FD4022FC1
:102FA000E8022FD4022FE8022FD4022FE8022FD4F8
:102FB000022FE8022FD4022FE8022FD4022FE802BA
:102FC0003003438880782C76A0804353887F782C08
:102FD0007614803A438880782DE630E70518761E0F
:102FE000802C782C760A802653887F782DE6FF3057
:102FF000E70518760A8004782C761EEF25E0782DF8
:10300000F6800B782C76C8800553887FC218782FFD
:02301000062296
:1024C80090020AE06403600302263020191578316F
:1024D800F69002C5E0F47833F67812E6F4782EF632
:1024E800E4A3F0D2199002C6E014602114603514F8
:1024F8006047240370465390EF783106E6D3941969
:10250800500302267C5390FD4390408012123AAC4F
:10251800439802783106E6D39432500302267CE4CD
:10252800F6022676783106E6D394C8500302267C54
:102538009002C6E004F0E4F6220226767830E6FF40
:10254800603930180302267CB417097BFF7A1A79A0
:10255800801233757830E6B418159002C5E075F02E
:1025680018A42480F9741A35F0FA7BFF12337578B1
:1025780030E6FF123A93E47830F6229002C5E0780C
:102588003366604830180302267CE0FFF6EF6003EC
:10259800B4170ED21A783376177BFF7A1A798080AF
:1025A800199002C5E0FFD394065012EF75F018A4F5
:1025B8002480F9741A35F0FA7BFF1233757833E604
:1025C800FF123A939002C5E07833F6227912E77841
:1025D8002E66601030180302267C7812E6FF782EEB
:1025E800F6023B5CA201300701B35029783AE67045
:1025F80024A20192073001087BFF7A1A79808012A1
:102608009002C5E075F018A42480F9741A35F0FA20
:102618007BFF023375201A082001057812E6700442
:102628005390EF2243901022301905E49002C6F02F
:10263800C2199002C6E014601214601F14602C24A2
:102648000370312016035390EF8023783106E6D3C8
:1026580094144020E4F64398028013783AE6701404
:102668007BFF7A1A79801233758003201606900250
:05267800C6E004F022A1
:103ADC00757064617465206661696C0075706461F1
:063AEC007465206F6B0001
:0C3B9D0053E13F8FE5E5E154C060FA22DF
:10383A0090029BEBF0A3EAF0A3E9F0801690029BBA
:10384A00E0FBA3E0FAA3E0F91223FC6020E5E154CF
:10385A00C060EA53E13F90029BE0FBA3E475F001EC
:0E386A0012248CA9F0FA1223FCF5E580D0227E
:1014CD0053ABFB53A8E753A9E753AAEFE47817F6FC
:1014DD00781AF608F67815F608F6900296F0A3F04D
:1014ED00A3F09002C77400F0A37468F0E490029228
:1014FD00F0A3F0900292E0FEA3E0FFC3942DEE94D2
:10150D000150209002C7E0FCA3E02FF582EC3EF5E0
:10151D0083E4F0900293E004F070D8900292E0041E
:10152D00F080D07F43123B9D7817E6B4080040034E
:10153D0002188A901547F828287302155F0215E4E2
:10154D000216810217070217980217F902183702BF
:10155D00183CE5E130E5349002C7E0FEA3E0F582EA
:10156D008E83C083C082781A0806E618860670013D
:10157D000614D082D0832582F582E5833EF583E57E
:10158D00E5F0E4900296F0A3F0A3F09002C7E0FE20
:10159D00A3E0F5828E83E0B46E25781DE6184660D3
:1015AD000E7BFF7A3A79DC12383AE47817F6227B13
:1015BD00FF7A3A79E812383A7817760602188E785B
:1015CD001BE66407700418E66401600302188E7848
:1015DD001AF608F6021837E4781AF608F69002C7DC
:1015ED00E0FEA3E0F5828E83E0F9A3E0FE9002C752
:1015FD00E0FCA3E0F5828C83A3A3E0FDAC06900292
:10160D00C7E0FAA3E0FBF5828A83A3A3A3E0FEEB78
:10161D002404F582E43AF583E0FBEBFFE9B4020E16
:10162D00EFF4FFEEF4FEEF6D7002EE6C6003021648
:10163D00FF7815E6FE08E6FFC3ED9FFFEC9EFEEF7B
:10164D0064014E6004EF4E7025AE04AF057815A60B
:10165D000608A607E6FEE42400FFEE3440FE9002E5
:10166D0099F0A3EFF0D394FFEE947F40042202167D
:10167D00FF021837E4900294F0A3F0FFFE9002925F
:10168D00F0A3F0900292E0FCA3E0FDC3EC940150B6
:10169D0034ED2405FDE43CFC9002C7E0FAA3E02DF7
:1016AD00F582EA3CF583E0FD900295E02DF0900285
:1016BD0094E03400F0900293E004F070C690029232
:1016CD00E004F080BE9002C7E0FCA3E0FD2405F528
:1016DD0082EC3401F583E0FEED2406F582EC340155
:1016ED00F583E0FDEDFF900294E06E7003A3E06FD3
:1016FD0060057F15021832021837900299E0FEA39B
:10170D00E0FF9002C8E02405FD9002C7E03400FA26
:10171D00A9057B0112315890029AE02440FF9002F6
:10172D0099E03400FE9002C8E02445FD9002C7E028
:10173D003400FAA9057B0112315890029AE02480F9
:10174D00FF900299E03400FE9002C8E02485FD90E0
:10175D0002C7E03400FAA9057B0112315890029AB4
:10176D00E024C0FF900299E03400FE9002C8E0240E
:10177D00C5FD9002C7E03400FAA9057B011231586E
:10178D00781DE61618700116021837E4900292F0D3
:10179D00A3F0900292E0FEA3E0FFC3EE9401504A45
:1017AD0090029AE02FFF900299E03EFE123BCD9001
:1017BD000293E02405FD900292E03400FC9002C7F4
:1017CD00E0FAA3E02DF582EA3CF583E06F600B7F34
:1017DD0015123B9DE47817F68010900293E004F00B
:1017ED0070B0900292E004F080A8803EE4900292E6
:1017FD00F0A3F0900292E0FEA3E0FFC3942DEE94CF
:10180D000150209002C7E0FCA3E02FF582EC3EF5DD
:10181D0083E4F0900293E004F070D8900292E0041B
:10182D00F080D07F96123B9D80537817068052E44E
:10183D00900292F0A3F0900292E0FEA3E0FFC39419
:10184D0040EE940050219002C7E0FCA3E02FF582FA
:10185D00EC3EF58374AAF0900293E004F070D790FB
:10186D000292E004F080CF9002C7E0FEA3E0AA064A
:10187D00F97B017F007E04123158020000E47817D5
:10188D00F6123BE2900296E004F06003021535A3D8
:10189D00E004F06003021535A3E004F0C394025098
:0A18AD000302153512000002153584
:1018B7007B416C61726D536574007B416C61726D25
:1018C7004F6E4F6666005475726E206F6E20756E90
:1018D7006974005475726E206F6E204C6967687466
:1018E70072004368616E6765206C6967687420637E
:1018F7006F6C6F72005573657220636F6C6F720047
:1019070053656C65637420536F756E642066696CEC
:1019170065006D7573696320706C61790050726F33
:10192700506C61790D0A007B50726F6772616D00B0
:101937005645520D0A00242424564552302E343180
:101947000D0A0047705374613A5B30315D0D0A0030
:1019570047705374613A5B30305D0D0A007B546900
:101967006D6553796E63005475726E206F666620DD
:10197700756E6974005475726E206F6E2042540044
:101987006D75736963207061757365007B4D757341
:1019970069635374617475730041646A7573742065
:1019A7004F757470757420566F6C756D6500766F22
:1019B7006C756D6520757000766F6C756D6520644C
:1019C7006F776E006D75736963206D757465006D53
:1019D7007573696320756E6D757465005365742042
:1019E70054696D6572005475726E206F6666205477
:1019F700696D6572005475726E206F6666204C695A
:101A070067687472006C69676874207570006C6928
:101A170067687420646F776E0041646A7573742019
:101A27004C69676874204272696768746E6573737E
:101A370000416C6147705374610D0A004E6F724725
:101A4700705374610D0A00207570646174650041FC
:101A57005457510D0A00456E7465722054657374AE
:101A67004D6F64653A007B4E6F7247705374610027
:101A77000101020408102040802424247B4D757343
:101A870069635374617475733A5B30375D7D0D0A12
:101A9700002424247B4D75736963537461747573D3
:101AA7003A5B30315D7D0D0A002424247B4D75732C
:101AB70069635374617475733A5B30325D7D0D0AE7
:101AC700002424247B4D75736963537461747573A3
:101AD7003A5B30335D7D0D0A002424247B4D7573FA
:101AE70069635374617475733A5B30345D7D0D0AB5
:101AF700002424247B4D7573696353746174757373
:101B07003A5B30355D7D0D0A002424247B4D7573C7
:101B170069635374617475733A5B30365D7D0D0A82
:101B2700002424247B47705374613A5B30302C3097
:101B3700302C30302C30302C3030303030302C30AE
:101B4700302C30302C30302C30303B30302C303093
:101B57002C30302C3030303030302C30302C30308E
:101B67002C30302C30302C30303A30302C30305D47
:101B77007D0D0A002424247B416C614770537461F6
:101B87003A5B30302C30302C30302C30302C303029
:101B9700303030302C30302C30302C30302C30304E
:101BA7002C30302C30303A30302C30305D7D0D0AFF
:101BB700002424247B4E6F7247705374613A5B3064
:101BC700302C30302C30302C30302C30303030301E
:101BD700302C30302C30302C30302C30305D7D0DB7
:101BE7000A002424247B4E6F7247705374613A5B5A
:101BF70030302C30302C30302C30302C30303030EE
:101C070030302C30302C30302C30302C30305D7D63
:031C17000D0A00B3
:1034460090029574FFF0A37419F07437A3F09002FC
:093456008FE0FBA3E0FAA3E0F90A
:10345F00900292EBF0A3EAF0A3E9F0900295E0FB63
:10346F00A3E0FAA3E0F91223FCFF602F900292E091
:10347F00FBA3E0FAA3E0F91223FCB507056003EF05
:10348F0070037F0122900293E475F001122476906D
:0E349F000296E475F00112247680C07F0022B0
:1037770090028FE0FBA3E0FAA3E0F990001912246E
:093787001590001AFF122415FD33
:10379000C3EF648094C14006EF24C9FF800474D055
:1037A0002FFFC3ED648094C14006ED24C9FD800461
:0B37B00074D02DFDEFC454F04DFF223B
:05395300FF122415FD28
:10395800C3EF648094C14006EF24C9FF800474D08B
:103968002FFFC3ED648094C14006ED24C9FD800497
:0C39780074D02DFDEF75F00AA42DFF2285
:1031EC0012324C90028BE0FBA3E0FAA3E0241AF914
:1031FC00E43AFA9002ABE0FD12324C90028BE0FB09
:10320C00A3E0FAA3E0241CF9E43AFA9002A8E0FD4A
:10321C0012324C90028BE0FBA3E0FAA3E0241EF9DF
:10322C00E43AFA9002A6E0FD12324C90028BE0FBDD
:10323C00A3E0FAA3E09002B52421F9E43AFAE0FD08
:10324C00EDC4540FFFC3940AEF40042437800224CA
:10325C0030122442740129F9E43AFAED540FFFC3F9
:0E326C00940AEF4004243780022430122442DA
:01327A002231
:1038EA0090020A7401F0780DE6B403047F038002A3
:1038FA007F0190020AEFF07809E67812F67811E66D
:10390A009002A7F0EF70047F0180027F0012267DEB
:05391A00783A7603225B
:103A580090020A7401F07809E67812F6740170048D
:0E3A68007F0180027F0012267D783A760322CD
:1039840090020AE0780DF6E4F07812E67809F690F1
:1039940002A7E07811F6E4F0780CF69001FAF070E2
:0F39A400047F0180027F0012267D783A7603228D
:1039B300E4900208F09002B7F0123984783A760561
:1039C30090020AE070047F0180027F0012267DE4EA
:0C39D300900209F0780CF69001FAF02246
:05267D00900292EFF055
:10268200123BE27834E670F87838F67F6490019570
:10269200E4F0A3DFFCE4FFEFFD3395E0FC74282DAA
:1026A200F582741B3CF583E493FE74952DF58274D8
:1026B200013CF583EEF00FEFB452DC7B017A017935
:1026C200A0900292E0FD12324C7A0179A390020AA4
:1026D200E0B403089002C5E0FFFD80027D071232DC
:1026E2004C7B017A0179A69002A7E07003FD80027B
:1026F2007D0112324C7B017A0179A99002A7E0B4E4
:1027020009047D0180027D0012324C7B017A01793D
:10271200AC9002ABE0FD12324C7A0179AE9002A885
:10272200E0FD12324C7A0179B09002A6E0FD12323D
:102732004C7A0179B39002B5E0FD12324C7A0179FC
:10274200B67812E6FD12324C7A0179B9A21AE43354
:10275200FD12324C7A0179BC780CE6FD12324C7AC9
:102762000179BFE4FD12324C7A0179C2900202E093
:10277200FD12324C7A0179C5900205E0B409047D5C
:102782000180027D0012324C7B017A0179C89001EE
:10279200FFE0FD12324C7A0179CA900200E0FD128C
:1027A200324C7A0179CC900201E0FD12324C7A016E
:1027B20079CF900206E0FD12324C7A0179D2900272
:1027C20003E0FD12324C7A0179D59001FBE0FD1253
:1027D200324C7A0179D89001FCE0FD12324C7A0138
:1027E20079DB9001FDE0FD12324C7A0179DE900135
:1027F200FEE0FD12324C7A0179E1900207E0FD120F
:10280200324C783A7602E47839F6783476017837C1
:10281200760A7839E6062495F582E43401F583E0F8
:02282200F5E5DA
:012824002291
:0B05290090028BEBF0A3EAF0A3E9F0D6
:100534002403F9E43AFA90028FEBF0A3EAF0A3E97A
:10054400F090029574FFF0A37418F0A374B7F0123E
:10055400345FEF60030206FE90028FE0FBA3E0FA33
:10056400A3E0F990000F12241524D0900202F0C3E6
:1005740094074002E4F0900012122415FF24D09056
:100584000205F0EFB43111900015122415B43104B2
:100594007F0980067F0A80027F00900205EFF090B9
:1005A400028FE0FBA3E0FAA3E0F9900017122415F0
:1005B40090001812378B9001FFEFF01237779002FA
:1005C40000EFF090028FE0FBA3E0FAA3E0F99000C3
:1005D4001B122415FF90001C12378C900201EFF0BF
:1005E40090028FE0FBA3E0FAA3E0F990001F12242D
:1005F4001524D0900206F0900021122415FF9000DB
:100604002212378C900203EFF090028FE0FBA3E0FC
:10061400FAA3E0F990002512241524D0900204F0E6
:1006240090002812241524D09001FBF090002A1287
:100634002415FF90002B12378C9001FCEFF09002F0
:100644008FE0FBA3E0FAA3E0F990002D122415FF3C
:1006540090002E12378C9001FDEFF090028FE0FB9A
:10066400A3E0FAA3E0F9900030122415FF900031C2
:1006740012378C9001FEEFF090028FE0FBA3E0FABA
:10068400A3E0F9900033122415FF90003412378C44
:10069400900207EFF090028FE0FBA3E0FAA3E0F9E9
:1006A400900036122415FF90003712378C780FA66D
:1006B4000790028FE0FBA3E0FAA3E0F9900039125F
:1006C4002415FF90003A12378C780AA60790028FFF
:1006D400E0FBA3E0FAA3E0F990003C122415FF909C
:1006E400003D12378C780EA60790028FE0FBA3E042
:1006F400FAA3E0F990004902076990029574FFF0AB
:10070400A37418F074C1123452EF706A90028FE02F
:10071400FBA3E0FAA3E0F990001112241524D09071
:1007240001FBF0900013122415FF90001412378C73
:10073400780FA60790028FE0FBA3E0FAA3E0F990FC
:100744000016122415FF90001712378C780AA6079A
:10075400123777780EA60790028FE0FBA3E0FAA386
:10076400E0F990002612241524D0780BF6E6901AAE
:100774007793F6020C5E90029574FFF0A37418F060
:10078400A374CD123453EF701A90028BE0FBA3E0F4
:10079400FAA3E0F912337590020AE06003020C5EDA
:1007A4000238EA90029574FFF0A37418F0A374DA87
:1007B400123453EF704290028BE0FBA3E0FAA3E003
:1007C400F912337590020AE07003123A5890020845
:1007D400E0600BE4F0A3F0780CF69001FAF07811E5
:1007E400E69002A7F0700204F09002B5E0FF7005F5
:1007F4007F0102090202090290029574FFF0A374BA
:1008040018F0A374E9123453EF704D90028BE0FB9F
:10081400A3E0FAA3E0F912337590020AE070031220
:100824003A58900208E0600BE4F0A3F0780CF690DC
:1008340001FAF09002A77409F0E49002AEF090027D
:10084400ACF09002AAF09002A9F09002B5E0FF701B
:10085400047F01800002090290029574FFF0A374E2
:1008640018F0A374FC123453EF60030209089002D9
:100874008BE0FBA3E0FAA3E0F912337590020AE0DF
:100884007003123A58900208E0600BE4F0A3F07889
:100894000CF69001FAF090028FE0FBA3E0FAA3E0DB
:1008A400F990000B122415FF90000C12378C900263
:1008B400ABEFF090028FE0FBA3E0FAA3E0F9900025
:1008C4000D122415FF90000E12378C9002A8EFF041
:1008D40090028FE0FBA3E0FAA3E0F990000F12244A
:1008E40015FF90001012378C9002A6EFF09002A72B
:1008F400740AF09002B5E0FF70047F01800090025A
:10090400B5EFF02290029574FFF0A37419F0A3746C
:1009140007123453EF706D90028BE0FBA3E0FAA34F
:10092400E0F912337590020AE07003123A5890020B
:1009340008E0600BE4F0A3F0780CF69001FAF0C242
:1009440001C21A90020A7403F090028FE0FBA3E044
:10095400FAA3E0F990001A12241524D0FF9002C5DE
:10096400F07833E6B5070478307618783A76019053
:1009740002C5E075F018A42480F9741A35F0FA7BE6
:10098400FF0214C990029574FFF0A37419F0A374C4
:1009940019123453EF704090028BE0FBA3E0FAA3EA
:1009A400E0F912337590020AE07003123A5890028B
:1009B40008E0600BE4F0A3F0780CF69001FAF090F4
:1009C400020A7403F0C201C21A9002C5E070030463
:1009D400F022783076182290029574FFF0A37419EF
:1009E400F0A37424123453EF6003020A8390028B41
:1009F400E0FBA3E0FAA3E0F912337590020AE07079
:100A040003123A58900208E0600BE4F0A3F0780C6B
:100A1400F69001FAF090020BE09002C5F090020CFF
:100A2400E09002A7F090020DE09002ABF090020E6D
:100A3400E09002A8F090020FE09002A6F09002105D
:100A4400E09002B5F0900211E07812F6A3E0900273
:100A54000AF0900213E024FF921A201A03C38001C3
:100A6400D39201E433900214F0201A047F18800218
:100A74007F177830A607900215E09001FAF02290D3
:100A8400029574FFF0A37419F0A3742E123453EF7B
:100A94006003020C2390028BE0FBA3E0FAA3E0F9CD
:100AA40012337590020AE07003123A58900208E07B
:100AB400600BE4F0A3F0780CF69001FAF0123A32ED
:100AC40090028FE0FBA3E0FAA3E0F990000E122459
:100AD4001524D09002C5F090020BF090001112245E
:100AE40015FFB431047E0180027E009002A7EEF06F
:100AF40090020CF0EFB4311C90028FE0FBA3E0FAFB
:100B0400A3E0F9900014122415B431047F0980067F
:100B14007F0A80027F009002A7EFF090020CF09011
:100B2400028FE0FBA3E0FAA3E0F99000161224156B
:100B3400FF90001712378C9002ABEFF090020DF08B
:100B440090028FE0FBA3E0FAA3E0F99000181224CE
:100B540015FF90001912378C9002A8EFF090020E46
:100B6400F090028FE0FBA3E0FAA3E0F990001A12E0
:100B74002415FF90001B12378C9002A6EFF0900210
:100B84000FF090028FE0FBA3E0FAA3E0F990001DC0
:100B940012241590001E1239539002B5EFF0900202
:100BA40010F090028FE0FBA3E0FAA3E0F99000209C
:100BB400122415FF90002112378C7812EFF6900260
:100BC40011F090020A7403F0900212F090028FE088
:100BD400FBA3E0FAA3E0F990002412241524D02406
:100BE400FF921AE433900213F0201A03C38001D356
:100BF4009201E433900214F0201A047F1880027FDB
:100C0400177830A607900026122415FF90002712AB
:100C1400378C780CEFF69001FAF0900215F022125E
:100C24003446EF70097BFF7A19793D0214C99002AA
:100C34009574FFF0A37419F0A3744A123453EF703F
:100C44000302134590029574FFF0A37419F0A37482
:100C540057123453EF700302134590020AE07003F5
:100C640002139090029574FFF0A37419F0A37464B6
:100C7400123453EF707690028FE0FBA3E0FAA3E006
:100C8400F990000B122415FF90000C12378C780F8A
:100C9400A60790028FE0FBA3E0FAA3E0F990000E10
:100CA400122415FF90000F12378C780AA6079002C1
:100CB4008FE0FBA3E0FAA3E0F9900011122415FFE2
:100CC40090001212378C780EA60790028FE0FBA3D7
:100CD400E0FAA3E0F990001E12241524D0780BF654
:100CE400E6901A7793F6E4900271F02290029574DC
:100CF400FFF0A37419F0A3746E123453EF701E90B6
:100D0400028BE0FBA3E0FAA3E0F91233759002082A
:100D1400E06003020F4E783A76030239849002951C
:100D240074FFF0A37419F0A3747C123453EF7009A8
:100D340090020A7402F002138290029574FFF0A3E9
:100D44007419F0A37487123453EF701290020AE0FE
:100D5400640360030214CCD21A783076172290020E
:100D64009574FFF0A37419F0A37493123453EF70C5
:100D7400012290029574FFF0A37419F0A374A012D9
:100D84003453EF7023900208E06003020F4E900288
:100D94008FE0FBA3E0FAA3E0F9900014122415906D
:100DA4000015123953020E2290029574FFF0A374B9
:100DB40019F0A374B5123453EF7029900208E0605F
:100DC40003020F4E7812E6FFC3940A5013EF9408FF
:100DD4005007E62402FFF68009781206E6FF800237
:100DE4007F0A803A90029574FFF0A37419F0A374FB
:100DF400BF123453EF7030900208E06003020F4ECC
:100E04007812E6FFD394014013EF94034007E624DD
:100E1400FEFFF68009781216E6FF80027F01781241
:100E2400A607C20102138290029574FFF0A37419FD
:100E3400F0A374CB123453EF7003D20122900295C5
:100E440074FFF0A37419F0A374D6123453EF700333
:100E5400C2012290029574FFF0A37419F0A374E305
:100E6400123453EF7026900208E06003020F4E9094
:100E7400028FE0FBA3E0FAA3E0F990000A12241524
:100E8400FF90000B123954780CEF801F9002957478
:100E9400FFF0A37419F0A374ED123453EF7014909F
:100EA4000208E06003020F4EE4780CF69001FAF0B9
:100EB40002138290029574FFF0A37419F0A374FCDA
:100EC400123453EF7011900208E06003020F4EE4F5
:100ED4009002A7F002138290029574FFF0A3741A93
:100EE400F0A3740C123453EF701A900208E06002FD
:100EF40080589002B5E0C394034003021382E004D7
:100F0400F002138290029574FFF0A3741AF0A37494
:100F140015123453EF701A900208E06002802B908F
:100F240002B5E0D394005003021382E014F00213DC
:100F34008290029574FFF0A3741AF0A37420123403
:100F440053EF7029900208E060030239B390028FD6
:100F5400E0FBA3E0FAA3E0F9900018122415FF9037
:100F640000191239549002B5EFF0021382900295E1
:100F740074FFF0A3741AF0A37438123453EF6003AF
:030F840002114F08
:100F870090028EF090028EE0FFC39464501C900292
:100F97008BE0FBA3E0FAA3E0F98F82758300E412EC
:100FA700245490028EE004F080DAE490028EF090F0
:100FB700028EE0FF901B7B93FE90028BE0FBA3E089
:100FC700FAA3E0F98F82758300EE12245490028E03
:100FD700E004F0E0B43ED890028BE0FBA3E0FAA374
:100FE700E0240EF9E43AFAE4FD12324C90028BE069
:100FF700FBA3E0FAA3E02411F9E43AFA900202E035
:10100700FF6003FD80027D0712324C90028BE0FBEC
:10101700A3E0FAA3E02414F9E43AFA900205E07099
:1010270003FD80027D0112324C90028BE0FBA3E0AE
:10103700FAA3E02417F9E43AFA900205E0B40904A8
:101047007D0180027D0012324C90028BE0FBA3E011
:10105700FAA3E0241AF9E43AFA9001FFE0FD12320C
:101067004C90028BE0FBA3E0FAA3E0241CF9E43ADE
:10107700FA900200E0FD12324C90028BE0FBA3E0F5
:10108700FAA3E0241EF9E43AFA900201E0FD1232D5
:101097004C90028BE0FBA3E0FAA3E0900206123229
:1010A7004490028BE0FBA3E0FAA3E02424F9E43A9E
:1010B700FA900203E0FD12324C90028BE0FBA3E0B2
:1010C700FAA3E02427F9E43AFA900204E0FD123289
:1010D7004C90028BE0FBA3E0FAA3E0242AF9E43A60
:1010E700FA9001FBE0FD12324C90028BE0FBA3E08B
:1010F700FAA3E0242DF9E43AFA9001FCE0FD12325C
:101107004C90028BE0FBA3E0FAA3E02430F9E43A29
:10111700FA9001FDE0FD12324C90028BE0FBA3E058
:10112700FAA3E02433F9E43AFA9001FEE0FD123223
:101137004C90028BE0FBA3E0FAA3E02436F9E43AF3
:05114700FA900207E030
:10114C0002127590029574FFF0A3741AF0A3744305
:09115C00123453EF60030212800B
:1011650090028EF090028EE0FFC39464501C9002B2
:101175008BE0FBA3E0FAA3E0F98F82758300E4120C
:10118500245490028EE004F080DAE490028EF09010
:10119500028EE0FF901BB893FE90028BE0FBA3E06C
:1011A500FAA3E0F98F82758300EE12245490028E23
:1011B500E004F0E0B430D890028BE0FBA3E0FAA3A2
:1011C500E0240EF9E43AFA7D0112324C90028BE0EC
:1011D500FBA3E0FAA3E02411F9E43AFA90020AE04D
:1011E500B403089002C5E0FFFD80027D0712324C72
:1011F50090028BE0FBA3E0FAA3E02414F9E43AFAA9
:101205009002A7E07003FD80027D0112324C90022E
:101215008BE0FBA3E0FAA3E02417F9E43AFA900285
:10122500A7E0B409047D0080027D011231EC900233
:101235008BE0FBA3E0FAA3E02424F9E43AFA781260
:10124500E6FD12324C90028BE0FBA3E0FAA3E0240A
:1012550027F9E43AFAA21AE433FD12324C90028BD4
:10126500E0FBA3E0FAA3E0242AF9E43AFA780CE6D5
:08127500FD12324C783A7602BA
:10127D0002138290029574FFF0A3741AF0A3744EBA
:10128D00123453EF600302133290028FE0FBA3E0A0
:10129D00FAA3E0F990000A122415FF90000B123703
:1012AD008CEF7F00FEC007C00690028FE0FBA3E02D
:1012BD00FAA3E0F990000C122415FF90000D1237DF
:1012CD008CEFFD3395E0FCD0E04CFED0E04D78186E
:1012DD00A60608F690028FE0FBA3E0FAA3E0F990D2
:1012ED000011122415FF90001212378CEF7F00FEB3
:1012FD00C007C00690028FE0FBA3E0FAA3E0F990CF
:10130D000013122415FF90001412378CEFFD339546
:10131D00E0FCD0E04CFED0E04D781CA60608F6129D
:10132D0014CD02138290029574FFF0A3741AF0A3EA
:10133D007456123453EF7004783AF622123446EF95
:10134D0070097BFF7A19793D0214C990029574FFDB
:10135D00F0A3741AF0A3745D123453EF7017783A3A
:10136D00F690022CF0900270F0D20490020A04F074
:10137D007F0A0239DF90028BE0FBA3E0FAA3E0F9CC
:10138D000214C990029574FFF0A3741AF0A3746D42
:09139D00123453EF60030214BE88
:1013A60090028EF090028EE0FFC39464501C90026F
:1013B6008BE0FBA3E0FAA3E0F98F82758300E412C9
:1013C600245490028EE004F080DAE490028EF090CD
:1013D600028EE0FF901BE993FE90028BE0FBA3E0F8
:1013E600FAA3E0F98F82758300EE12245490028EE0
:1013F600E004F0E0B430D890028BE0FBA3E0FAA35F
:10140600E0240EF9E43AFAE4FD12324C90028BE045
:10141600FBA3E0FAA3E02411F9E43AFA90020AE009
:10142600B403089002C5E0FFFD80027D0712324C2E
:1014360090028BE0FBA3E0FAA3E02414F9E43AFA65
:101446009002A7E07003FD80027D0112324C9002EB
:101456008BE0FBA3E0FAA3E02417F9E43AFA900242
:10146600A7E0B409047D0080027D011231EC9002F0
:101476008BE0FBA3E0FAA3E02424F9E43AFA78121D
:10148600E6FD12324C90028BE0FBA3E0FAA3E024C7
:1014960027F9E43AFAA21AE433FD12324C90028B91
:1014A600E0FBA3E0FAA3E0242AF9E43AFA780CE692
:0814B600FD12324C783A760277
:0E14BE0090028BE0FBA3E0FAA3E0F912337575
:0114CC0022FD
:103A320078217C027D017B017A0279167E007F0B60
:103A42001223D678167C027D017B017A02790B7EE5
:063A5200007F0B0223D6E9
:0D3B8400E4F5FDF5FEF5FA75FB40F5FC22B9
:033BE900020000D7
:103A0A00E4FE7DA2EF600E74C12EF582E43402F565
:103A1A0083EDF0800C74C12EF582E43402F583E460
:073A2A00F00D0EEEB404DD07
:013A31002272
:083BC50075FE01000000002262
:1038B300AD07AC06E4F5FAECF5FBAF058FFC75FD3F
:1038C300A59002C1E064A27018A3E0B4A313A3E01F
:1038D300B4A40EA3E0B4A50975FE030000000080A4
:0738E30003123BE9023B84E4
:10361400AD07AC067F007E80123BC5E4FBEF2BF5C3
:1036240082E43EF583E4F00BEBB440F1E4F5FAEC0C
:10363400F5FBAF058FFC75FDA59002C1E064A27097
:1036440018A3E0B4A313A3E0B4A40EA3E0B4A509A3
:0F36540075FE02000000008003123BE9023B8478
:0B31580090029BEBF0A3EAF0A3E9F06B
:10316300E490029FF0A37480F0A3E4F0A3EEF0A335
:10317300EFF053A87F7F01123A0A9002A2E0FEA368
:10318300E0FF123614123BC5E490029EF090029BBE
:10319300E0FBA3E0FAA3E0F990029FE0FF04F08FC5
:1031A30082758300122415FF90029EE0FE9002A018
:1031B300E0FCA3E02EF582E43CF583EFF090029E61
:1031C300E004F0E0B440C69002A2E0FEA3E0FF12E8
:1031D30038B3E4FF123A0A9002A3E02440F09002CD
:0831E300A2E03400F043A880D3
:0131EB0022C1
:073BCD008F828E83E493FF59
:013BD40022CE
:1001000090028C7400F0A37468F0A37480F0A3E4F0
:10011000F090028BF090028BE0FFC394405016A346
:10012000E0FCA3E02FF582E43CF583E4F090028B41
:10013000E004F080E09002927404F0A3E4F09002F6
:100140008BF090028BE0FFC394405034900292E019
:10015000FCA3E0F5828C83E493FE90028CE0FCA388
:10016000E02FF582E43CF583EEF0900293E004F09A
:100170007006900292E004F090028BE004F080C2DE
:1001800090028CE0FEA3E0FFF5828E83E064AA601B
:100190000302036FA3A3E064AA600302036F90024B
:1001A0008CA3E02404F582E43EF583E064AA6003B6
:1001B00002036FEF2406F582E43EF583E064AA6053
:1001C0000302036F53A87F900290F0A3F0A3744042
:1001D000020368900290E0FEA3E0FDAC06E490020A
:1001E0008BF090028BE0F9C39440400302026D90C3
:1001F0000290E0FEA3E0FFC3EE94004009D3EF9429
:1002000000EE9404400FC3EE94054045D3EF94FFF5
:10021000EE943F503C900292E0FEA3E0F5828E8384
:10022000E493FF90028CE0FAA3E029F582E43AF52A
:1002300083EFF0900293E004F07006900292E004E5
:10024000F0900291E004F0701B900290E004F080C6
:100250001390028BE0FFA3E0FAA3E02FF582E43ACB
:10026000F583E4F090028BE004F00201E275FE01F8
:1002700000000000E490028BF090028BE0FFC3943A
:1002800040501890028EE0FAA3E02FF582E43AF590
:1002900083E4F090028BE004F080DEE4F5FAECF504
:1002A000FB8DFC75FDA50000000075FE020000003E
:1002B00000E4F5FDF5FEF5FA75FB05F5FC75FE01AC
:1002C0000000000090028BF090028BE0F9A3E0FEAA
:1002D000A3E029F582E43EF583E0FF90028EE0FA88
:1002E000A3E029F582E43AF583EFF090028BE00475
:1002F000F0E0B440D3E4F5FAECF5FBAF058FFC7504
:10030000FDA50000000075FE0300000000E4F5FDFF
:10031000F5FEF5FA75FB05F5FC900290E0FEA3E012
:10032000FFC3EE9404400CD3EF9400EE9405500309
:10033000120000900290E0FEA3E0B40014EEB401BD
:10034000109002907405F0A3E4F0A37445F0A3E4C8
:10035000F0900290E0FEA3E0C394FFEE943F5003C0
:100360000201D39002907404F0A3E4F00201D312CE
:05037000050043A88018
:010375002265
:103A7600242424416C61726D2075700D0A00242483
:0D3A86002454696D652073796E630D0A008C
:0B337500900292EBF0A3EAF0A3E9F055
:10338000123BE27834E670F87838F67F6490019565
:10339000E4F0A3DFFCE4FF900292E0FBA3E0FAA3D9
:1033A000E0F91223FCFE601974952FF582E43401D4
:1033B000F583EEF0900293E475F0011224760F800D
:1033C000D6E47839F6783476017837760A7839E6B3
:0D33D000062495F582E43401F583E0F5E56F
:0133DD0022CD
:1034AD00783AE660357838E6C394144029123BE249
:1034BD007834E670F8783A167838F608F678347677
:1034CD00017837760A7839E6062495F582E43401D9
:1034DD00F583E0F5E5227838062230060EC206782F
:1034ED003A76037BFF7A3A7976800F30050FC20565
:0E34FD00783A76037BFF7A3A7984123375228F
:10327B00900002E0FEA3E0FF900000E06E7003A35D
:10328B00E06F60797836760A900002E0FEA3E0FFEB
:10329B002468F58274003EF583E0FD18E62404F5FE
:1032AB0082E43400F583EDF074682FF58274003EF0
:1032BB00F583E4F090000275F001122476FEC3E56D
:1032CB00F0942CEE94014007E4900002F0A3F07808
:1032DB0035E6062404F582E43400F583E0640A70D5
:1032EB008F7B017A0079041205297F64900004E436
:0D32FB00F0A3DFFCE47835F6D20202327B4E
:0133080022A2
:1030D800020500E493A3F8E493A34003F68001F209
:1030E80008DFF48029E493A3F85407240CC8C333F9
:1030F800C4540F4420C8834004F456800146F6DFC8
:10310800E4800B0102040810204080903BE6E47E36
:10311800019360BCA3FF543F30E509541FFEE493BC
:10312800A360010ECF54C025E060A840B8E493A383
:10313800FAE493A3F8E493A3C8C582C8CAC583CAAE
:10314800F0A3C8C582C8CAC583CADFE9DEE780BE66
:013BE80000DC
:10230600E709F608DFFA8046E709F208DFFA803EB9
:1023160088828C83E709F0A3DFFA8032E309F608A6
:10232600DFFA8078E309F208DFFA807088828C830E
:10233600E309F0A3DFFA806489828A83E0A3F608C2
:10234600DFFA805889828A83E0A3F208DFFA804C9C
:1023560080D280FA80C680D4806980F28033801073
:1023660080A680EA809A80A880DA80E280CA8033DC
:1023760089828A83ECFAE493A3C8C582C8CCC58354
:10238600CCF0A3C8C582C8CCC583CCDFE9DEE78024
:102396000D89828A83E493A3F608DFF9ECFAA9F0A3
:1023A600EDFB2289828A83ECFAE0A3C8C582C8CCF9
:1023B600C583CCF0A3C8C582C8CCC583CCDFEADE12
:1023C600E880DB89828A83E493A3F208DFF980CC74
:1023D60088F0EF60010E4E60C388F0ED2402B4046D
:1023E6000050B9F582EB2402B4040050AF23234514
:0623F600822390235673C0
:1023FC00BB010689828A83E0225002E722BBFE02DF
:09240C00E32289828A83E4932211
:10241500BB010CE58229F582E5833AF583E022507C
:1024250006E92582F8E622BBFE06E92582F8E222C6
:0D243500E58229F582E5833AF583E49322E0
:10244200BB010689828A83F0225002F722BBFE0179
:02245200F32273
:10245400F8BB010DE58229F582E5833AF583E8F0BE
:10246400225006E92582C8F622BBFE05E92582C86A
:02247400F22252
:10247600C5F0F8A3E028F0C5F0F8E58215827002F1
:062486001583E038F0228E
:10248C00A3F8E0C5F025F0F0E58215827002158303
:06249C00E0C838F0E82260
:1024A200D083D082F8E4937012740193700DA3A3C9
:1024B20093F8740193F5828883E4737402936860DD
:0624C200EFA3A3A380DFDD
:00000001FF
