:030000000234F1D6
:1034F10078FFE4F6D8FD9000007F007E03E4F0A39E
:0A350100DFFCDEFA75813A020100DA
:1005000053A87F1238A1123DEE123EE4123ECC12E7
:100510003E85123E1C123E45123E9243A880123B7D
:060520002512010080FE1F
:03001B000236AEFC
:0F36AE00C0E0C083C082C0D075D000C000C0078C
:1036BD00AFF553F1DF7825760A300E237827E6C370
:1036CD009408500DE606243FF582E43402F583EFAD
:1036DD00F0EF640A702A7827F6D210B20E802178A6
:1036ED0027E6C39408500DE6062447F582E434021C
:1036FD00F583EFF0EFB40A0878277600D211B20EF9
:0D370D00D007D000D0D0D082D083D0E032E1
:03002300023A5F3F
:103A5F00C0E0C083C082C0D075D000C00053F17FDA
:103A6F007824E660247826760A7828E6062437F547
:103A7F0082E43402F583E0F5F5E62437F582E43489
:103A8F0002F583E070037824F6D000D0D0D082D036
:043A9F0083D0E032BE
:03004B0002384632
:10384600C0E0C0F0C083C082C0D075D000C000C048
:0538560004C006C007DC
:10385B00AFE553E1DF900000E0FCA3E02468F582C4
:10386B0074003CF583EFF0900000E475F001122A30
:10387B0091FEC3E5F0942CEE94014007900000E418
:03388B00F0A3F0B7
:10388E00D007D006D004D000D0D0D082D083D0F0D4
:03389E00D0E03245
:03005300023AA3CB
:103AA300C0E0C083C082C0D075D000C00053E17FA6
:103AB3007834E660247837760A7839E6062494F574
:103AC30082E43401F583E0F5E5E62494F582E434F9
:103AD30001F583E070037834F6D000D0D0D082D0E3
:043AE30083D0E0327A
:03006B00023BA1B4
:103BA100C0E0C0F0C083C082C0D075D000C000C0EA
:103BB10001C002C003C004C005C006C0071237E936
:103BC100D007D006D005D004D003D002D001D00058
:0B3BD100D0D0D082D083D0F0D0E03202
:03008300023AE757
:103AE700C0E0C0F0C083C082C0D075D000C000C0A5
:103AF70001C002C003C004C005C006C00712321BC4
:103B07001232ECD007D006D005D004D003D002D0B3
:0E3B170001D000D0D0D082D083D0F0D0E032E8
:0300A30002398E91
:10398E00C0E0C0D075D000C000C007B20230022D1A
:10399E00780E06E6D3943B40247600780A06E6D3EA
:1039AE00943B40197600780F06E6D39417400E76B6
:1039BE0000780BE625E0FFF6BF80027601D007D037
:0639CE0000D0D0D0E03271
:083EC300AF9FEFFEAD9EEDFF85
:013ECB0022D4
:073EE400759C80759D07220B
:0F3E6800EF540FFFE59C54F04FF59C439C402214
:083ECC00E4F59AF599F59B223B
:0D3E850075B28875B45D43AA0243B20122F4
:103E1C00901000748AF0A3744AF043AA109010001A
:053E2C00E04401F0225A
:103E450075DA0275D90643DAECE4F5DB75E30C4364
:033E5500A9182287
:103DD60020181275EA0275E90643EAECE4F5EB757C
:083DE600F34D43A818D2182286
:103E310030180EE4F5EAF5E9F5EAF5EBF5F353A8E8
:043E4100E7C218229A
:0D3E920075968875890175898143AB0422FE
:103DEE0090103874A8F075C80A758B09E58B30E70A
:083DFE00FB758A0143C8052290
:1038A10075A17FE4F5ACF591F5DEF58075B19875FC
:1038B100AD20F592F5DFF58875B9FFF5AEF593F515
:1038C1009075C1FEF5AFF59875C9FEF5A3F594F5B0
:1038D100A075D1FFF595F5B075D320F5D2F5D57565
:1038E100D403F5D775D603F5EE75EF0A75FF2D22D2
:103DA00024242454696D652073796E630D0A002400
:0D3DB0002424416C61726D2075700D0A00B5
:1037E900D2057813E6FF7002D208EFB40102D209BC
:1037F900EFB40202D20AEFB40302D20BEFB404020F
:10380900D20CEFB40502D20DEF6406702478371696
:10381900E670037834F6783616E670037835F6786C
:103829002616E670037824F6782516E670037827BD
:0D383900F6781306E6C3940A4002E4F62276
:10275D00780EE6FF7814667003022920A607900212
:10276D005FE0601990024FE004F0D3940A400EE44C
:10277D00F0900259E0FF7812E69F50010690026535
:10278D00E0B40121900263E004F0E0C3940A401527
:10279D00E4F0783A76037BFF7A3D79A012394090C8
:1027AD0002657402F0780AE6FF781066700302295C
:1027BD0020A607780CE6601F16E6701B123D28E474
:1027CD0090025EF0783A7603900260E070047F012B
:1027DD0080027F00122AE390025FE0601F14F07008
:1027ED001B123D28E490025EF0783A760590026067
:1027FD00E070047F0180027F00122AE3900251E015
:10280D00640160030228D2900253E0780F666003E2
:10281D000228D2A3E0780A6660030228D290025201
:10282D00E0FF08E6FEEF5E70030228D2EF20E70618
:10283D00EEF4FEEF5EF078127601C201E490024FE5
:10284D00F090025E04F09002607403F0900255E087
:10285D0090026DF0900256E090026AF0900257E0FF
:10286D00900268F0900258E0900287F090025AE0D2
:10287D0024FF9217201703C38001D3920120170460
:10288D007F1880027F177830A60790025BE09002D8
:10289D0069F090025CE0900277F090025DE09002AA
:1028AD005FF0780CF6900250F0900260E070047FBB
:1028BD000180027F00122AE3783A76037BFF7A3D8E
:1028CD0079AF123940900265E0B4021B900263E0CB
:1028DD0004F0E0C39402400FE4F0783A76037BFFF6
:1028ED007A3D79A0123940780FE6FF7808666023AB
:1028FD00A607900262E004F0E0C394184015E4F0DE
:10290D009002657402F0783A76037BFF7A3D79A0E8
:03291D001239402C
:012920002294
:102F7B0030073D900261E004F0C3940C400FE4F085
:102F8B00900264E004F0D394184002C207900264EC
:102F9B00E0FF30E00543801080035380EFEF30E01B
:102FAB000543802080035380DFEF30E05102305225
:102FBB00300325900261E004F0C394324012E4F038
:102FCB00900264E004F0D394064005C203120000A3
:102FDB00438010438020806F300025900261E00415
:102FEB00F0C3940C400FE4F0900264E004F0D3942F
:102FFB00104002C200900264E030E0028049805130
:10300B00900260E0D394015018900269E070125363
:10301B0080EF5380DF5380BFE4780CF6900250F0C2
:10302B0022900250E0FFB40F084380105380DF80E2
:10303B0020EFB41E085380EF4380208014EFB43C84
:10304B000A5380EF5380DF438040225380EF53803D
:05305B00DF5380BF22DD
:103CFE00781276029002777401F0900260F0D20191
:103D0E005390EF783A7603E070047F0180027F00D3
:0A3D1E00122AE39002657401F022FE
:103B2500123CFE12344A300502C205300808C208AC
:103B3500123EEB122173300905C209123141300AD8
:103B450005C20A1223CA300B05C20B122596300C8A
:0E3B5500D2C20C122F7B123C1312275D80C5CA
:102E870020202020200D0A0041542B4D540D0A000C
:102E970041542B4D410D0A0041542B4D450D0A005D
:102EA70041542B4D440D0A0041542B43410D0A0058
:102EB70041542B43420D0A0041542B43430D0A0052
:102EC70041542B43500D0A0041542B43440D0A0033
:102ED70041542B435A0D0A0041542B48300D0A0028
:102EE70041542B48310D0A0041542B48320D0A003A
:102EF70041542B48330D0A0041542B48340D0A0026
:102F070041542B48350D0A0041542B48360D0A0011
:102F170041542B48370D0A0041542B48380D0A00FD
:102F270041542B48390D0A0041542B48410D0A00E2
:102F370041542B48420D0A0041542B48430D0A00C7
:102F470041542B48440D0A0041542B48450D0A00B3
:102F570041542B48460D0A00000102030607090ADF
:102F67000C0E0F00010203040404050606070708F8
:042F770008090A0A31
:1039D4007824E670FB7F08900237E4F0A3DFFCE470
:1039E400FF122A17FE601674372FF582E43402F5AD
:1039F40083EEF0740129F9E43AFA0F80E4E47828BC
:103A0400F6782476017828E6062437F582E4340231
:053A1400F583E0F5F56B
:013A1900228A
:103CD300EFC3940B500CEF75F008A42487F9742EEE
:103CE30080107812E6902F5F9375F008A424DFF913
:0A3CF300742E35F0FA7BFF1239D46D
:013CFD0022A4
:102D8B00201006201103022E86301012C210900262
:102D9B001A7401F0A37402F0A3743FF08010C211F7
:102DAB0090021A7401F0A37402F0A37447F090021E
:102DBB001AE0FBA3E0FAA3E0F9122A17FFB4491FAC
:102DCB00900001122A30FEB44902D213EEB4410234
:102DDB00C213EE64586003022E6BC213022E6BEF0C
:102DEB00B44D1C900001122A30FFB44102C214EF03
:102DFB006442706CD2147812E6F47829F680611272
:102E0B002A17FFB44F12900001122A3064467050FB
:102E1B00900260E064028048EF6448704390026067
:052E2B00E06402703BB1
:102E3000900001122A30FFD3648094B94005EF243A
:102E4000C9801390021AE0FBA3E0FAA3E0F9900016
:102E500001122A3024D07812F67812E6D3940F406B
:0B2E600002760F7812E6902F6A93F6BE
:102E6B00E4FF90021AE0FBA3E0FAA3E0F98F82756E
:0B2E7B008300E4122A6F0FEFB408E799
:012E86002229
:10314100122D8B900260E0640260030231D4200FE3
:1031510013782BF6C213C2147812E6F47829F6E438
:10316100900236F0D20F900236E014601D14601CFC
:1031710014601E14601D240470215390EF439002CB
:10318100E58830E60302321A800780055390BF803C
:10319100688066439040123DD680627812E6FF78DF
:1031A10029666009A6077F0B123CD3800D782AE6B9
:1031B100FF6007123CD3E4782AF6E58830E2107804
:1031C1002BE6D39405400443901022782B0622531A
:1031D10090EF22300F08E4782BF6900236F0C20F00
:1031E100900236E01460121460111460101460141F
:1031F100240470255390EF800480028000900236F1
:10320100E004F022900236E004F0900260E0D394F2
:0A3211000150065390BF123E312217
:10371A00242424415457510D0A0024242446616369
:10372A00746F72792073657474696E670D0A002468
:10373A002424576966692072657365740D0A00242A
:10374A002424456E74657220546573744D6F6465E4
:10375A003A302E31390D0A00000004C0060108670C
:10376A000A900BE50D560E000050056006A10907E8
:08377A000B300C850DF60E006A
:10339E00E490021AF0123EC390027AEEF0A3EFF020
:1033AE00C394A0EE940F504AE4FFEF25E02462F59B
:1033BE0082E43437F583E493FC740193FD90027A32
:1033CE00E0FAA3E0FBC39DEA9C4022EF25E02472C5
:1033DE00F582E43437F583E493FC740193FDD3EB6B
:1033EE009DEA9C5008EF0490021AF080050FEFB48E
:1033FE0008B87F05123E6890021AE0FFB4040AE591
:10340E008820E5057408F0802DEFB4010DE58820C5
:10341E00E50890021A7409F0801CEFB4020DE588DD
:10342E0020E50890021A740AF0800BE58820E50664
:0B343E0090021A7403F090021AE0FFE5
:013449002260
:102C8900E4900278F0900281E0FE6F600EA3E06F9D
:102C99006003EFF022900281EFF022900280E0FFC2
:102CA9006E6003022D36EF7003022D8A90027CE0DC
:102CB9007003022D8A90027CE014F06003022D8AD1
:102CC900900280E090027EF0900279E07005900217
:102CD9007804F090027FE014602114603214602FB0
:102CE90024036003022D8A90027F7401F090027E12
:102CF900E04420F090027C7432F02290027F74024A
:102D0900F090027EE04460F090027C7414F022900E
:102D1900027F7403F090027EE04480F090027C749C
:102D290014F0A3E0C394FA5058E004F02290028012
:102D3900E0603790027EF0900279E07005900278A9
:102D490004F090027FE024FE601014600F240270EA
:102D59001290027EE04440F08009800090027EE0FB
:102D690044C0F0E490027FF08009E4900279F09089
:102D7900027DF090027C7405F0900281E09002805F
:022D8900F02236
:063EEB0012339E022C8937
:10217300900278E070030223C990025EE06016E4E7
:10218300F090027904F0783A7605123D28E4900243
:102193005FF00222E090027EE0122ABD21D64122A6
:1021A3000A4222714322884422A04522E84623485A
:1021B30047225562232E6623566721F281227183BB
:1021C300228884236388238C8923AA8A21D6C10089
:1021D3000023C990027DE0C3941940030223C97808
:1021E3003A7605900260E06003023D28023A1A90B5
:1021F300027DE0641960030223C9783A76057BFF08
:102203007A37791A0223C6900260E0FF6401600402
:10221300EFB40216C201C2179002607403F0900279
:1022230087E060030223C904F022900260E06403A4
:1022330060030223C9C201301704C2178026C217E4
:10224300900287E004F0D3940650030223C974017B
:10225300F022900260E0640360030223C9B21720F6
:102263001707C20178307618227830761722900249
:1022730060E0D3940150030223C97812E6940A5014
:102283000106C20122900260E0D3940150030223AD
:10229300C97812E6D39401400116C201229002606C
:1022A300E0D394015009900269E070030223C990BE
:1022B3000250E0FF7008780C760F740FF022EFB431
:1022C3000F0B780C761E900250741EF022EFB41E92
:1022D3000B780C763C900250743CF022E4780CF6B8
:1022E300900250F022900260E070030223C9900232
:1022F30069E0B40A028015900277E0700404F0806C
:102303000E900269E004F0D3940940037401F09045
:102313000269E0640960030223C9900270F090022D
:102323006EF090026CF090026BF022900269E07004
:10233300030223C9900277E004F0D394035003020D
:1023430023C9E4F022900260E0607B64026077744A
:1023530002F022900260E06402706B782A76052214
:1023630090027DE06432705E900261F0900264F04E
:10237300D20390026004F0783A76057BFF7A3779CE
:10238300241239407F0A023CD390027DE06432700C
:1023930035D207900261F0900264F0783A76057BBB
:1023A300FF7A377939801C90027DE0B41918D20086
:1023B300E4900261F0900264F0783A76037BFF7A4E
:0723C300377949123940226D
:10321B00900276E014F070035398F7900275E01467
:10322B00F070035398EF900274E014F0700353980E
:10323B00DF900271E014F060030232EB900277E052
:10324B00FF700A900276F0900275F0805AEFB4018D
:10325B002290026EE01313543F900276F090026CB2
:10326B00E01313543F900275F090026BE01313546C
:10327B003F8034900277E090026EB40219E0C313E2
:10328B00900276F090026CE0C313900275F09002FE
:10329B006BE0C3138011E0900276F090026CE0902B
:1032AB000275F090026BE0900274F0900260E0B453
:1032BB00020AE58830E10543881080035388EF90BC
:1032CB000276E06003439808900275E06003439830
:1032DB0010900274E060034398209002667401F032
:0132EB0022C0
:103E580090026EEFF090026CEDF090026BEBF022A6
:101EA50090026FE004F0C394045003022172E490A1
:101EB500026FF0A3E0FF705A90026EE0C394FF50EA
:101EC50003E004F090026CE0D394004003E014F0CA
:101ED50090026BE0D394004003E014F090026EE0B2
:101EE500F4600302217290026CE06003022172909B
:101EF500026BE0600302217290027275F001122AF2
:101F050091FCD3E5F0941EEC94005003022172027B
:101F1500210CEF6401707490026EE0C394FF5003CE
:101F2500E004F090026EE0D394FF4003E014F090DB
:101F3500026CE0C394805003E004F090026CE0D39F
:101F450094804003E014F090026BE0D394004003CA
:101F5500E014F090026EE0F4600302217290026CCE
:101F6500E06480600302217290026BE0600302214D
:101F75007290027275F001122A91FED3E5F0941E5B
:101F8500EE9400500302217202210C900270E0FFD2
:101F95006402705B90026EE0C394FF5003E004F0AE
:101FA50090026CE0C394FF5003E004F090026BE0F4
:101FB500D394004003E014F090026EE0F460030255
:101FC500217290026CE0F4600302217290026BE0D2
:101FD500600302217290027275F001122A91FCD3FE
:101FE500E5F0941EEC9400500302217202210CEFDF
:101FF5006403705A90026EE0D394004003E014F03D
:1020050090026CE0C394FF5003E004F090026BE093
:10201500D394004003E014F090026EE060030221C7
:102025007290026CE0F4600302217290026BE06032
:102035000302217290027275F001122A91FED3E516
:10204500F0941EEE9400500302217202210C9002BE
:1020550070E0FF6404705990026EE0D39400400371
:10206500E014F090026CE0D394004003E014F0908B
:10207500026BE0C394FF5003E004F090026EE06051
:102085000302217290026CE0600302217290026BE0
:10209500E0F4600302217290027275F001122A9138
:1020A500FCD3E5F0941EEC94005003022172805796
:1020B500EF6405706090026EE0D394004003E01475
:1020C500F090026CE0C394FF5003E004F090026BC3
:1020D500E0C394FF5003E004F090026EE060030259
:1020E500217290026CE0F4600302217290026BE0B1
:1020F500F4707A90027275F001122A91FED3E5F020
:10210500941EEE94004066E4900272F0A3F09002F3
:1021150070E004F02290026EE0C394FF5003E004E7
:10212500F090026CE0D394004003E014F090026B51
:10213500E0C394FF5003E004F090026EE0B4FF2D7D
:1021450090026CE0702790026BE0B4FF2090027261
:10215500E475F001122A91FED3E5F09432EE940075
:0E216500400BE4900272F0A3F0900270F022A2
:10259600900266E0700302275CE4900266F0900207
:1025A60069E0FFB4091B7811666016E0F6E4900254
:1025B60070F090026E747FF0E490026CF090026B03
:1025C600F0900260E06007900269E0FE7004E4FBB0
:1025D6008051EEB401047BFF8021900269E0FEB4D5
:1025E6000205E4FBFD8016EEB40306E4FB7D808065
:1025F6000C900269E0FEB40408E4FB7DFF7FFF80D7
:1026060034EEB40507E4FB7DFFFF8029900269E004
:10261600FEB406087BFF7DFFE4FF8019EEB40707D2
:102626007BFFE4FDFF800E900269E0FEB4080C7BA0
:10263600FFE4FD7F80123E58022732EE640A6003F3
:1026460002272890026DE0FFA3F090026AE0FE9058
:10265600026CF0900268E0FD90026BF0EFB4FF119F
:10266600EEB4FF0DEDB4FF099002697401F0022784
:102676003290026DE0B4FF1390026AE0700D900292
:1026860068E07007A37402F002273290026DE0FF43
:10269600B4FF1490026AE0B4800D900268E07007FF
:1026A600A37403F0022732EFB4FF1390026AE0B47A
:1026B600FF0C900268E07006A37404F0806E90022E
:1026C6006DE0701390026AE0B4FF0C900268E0704F
:1026D60006A37405F0805590026DE0FF7014900219
:1026E6006AE0B4FF0D900268E0B4FF06A37406F03A
:1026F600803AEF701390026AE0700D900268E0B4C1
:10270600FF06A37407F0802490026DE0B4801D904C
:10271600026AE07017900268E0B4FF10A37408F034
:10272600800A900269E0B40903121EA5900269E0CE
:10273600FF701AEFB40A1690026EE090026DF090E8
:10274600026CE090026AF0A3E0900268F0900269E1
:07275600E060037811F62298
:0B3EB800000102030507090A0C0E0FB1
:0E3E7700EF903EB893FFC374169FFF023DBD4F
:103DBD00201515D215EF14782DF6E4782FF67832FC
:093DCD00F653887F782C76C82299
:1032EC0020150302339D783206E6C3782C965003E2
:1032FC0002339DE47832F6782FE6B41300400302D3
:10330C003395903315F828287302334E0233570245
:10331C00336002337402336002337402336002335D
:10332C00740233600233740233600233740233600C
:10333C00023374023360023374023360023374025A
:10334C00338F438880782C76A0804353887F782CE9
:10335C007614803A438880782DE630E70518761E7F
:10336C00802C782C760A802653887F782DE6FF30C7
:10337C00E70518760A8004782C761EEF25E0782D68
:10338C00F6800B782C76C8800553887FC215782F71
:02339C00062207
:1023CA00900260E064036003022535201615783117
:1023DA00F6900287E0F47833F67812E6F4782EF66F
:1023EA00E4A3F0D216900288E0146028146038142E
:1023FA00604A240370495390EF783106E6D3941962
:10240A0050030225955390FD439040123DD6E4783F
:10241A0031022562439802783106E6D3943250039A
:10242A00022595E4022562783106E6D394C8500362
:10243A00022595900288E004F0E4F62202257378DA
:10244A0030E6FF6039301503022595B417097BFF82
:10245A007A1D790B1239407830E6B4181590028744
:10246A00E075F018A4240BF9741D35F0FA7BFF12FD
:10247A0039407830E6FF123DBDE47830F62290020A
:10248A0087E07833666048301503022595E0FFF649
:10249A00EF6003B4170ED217783376177BFF7A1DD5
:1024AA00790B8019900287E0FFD394065012EF75DA
:1024BA00F018A4240BF9741D35F0FA7BFF12394089
:1024CA007833E6FF123DBD900287E07833F6227931
:1024DA0012E7782E6660103015030225957812E609
:1024EA00FF782EF6023E77A201300401B350297814
:1024FA003AE67024A20192043001087BFF7A1D7922
:10250A000B8012900287E075F018A4240BF9741D51
:10251A0035F0FA7BFF0239402017082001057812AE
:10252A00E670045390EF2243901022301605E4908F
:10253A000288F0C216900288E014601214601C141B
:10254A00602E240370452013035390EF801B7831CB
:10255A0006E6D394144034E4F6800E783AE6702BFB
:10256A007BFF7A1D790B123940900288E004F02231
:10257A00201318900288E004F05398FD900260E05E
:0C258A00D3940150065390BF123E312242
:103E0600757064617465206661696C0075706461C3
:063E16007465206F6B00D3
:0C3EAC0053E13F8FE5E5E154C060FA22CD
:103B630090022DEBF0A3EAF0A3E9F0801690022D6A
:103B7300E0FBA3E0FAA3E0F9122A176020E5E15481
:103B8300C060EA53E13F90022DE0FBA3E475F0012E
:0E3B9300122AA7A9F0FA122A17F5E580D0220F
:1016D10053ABFB53A8E753A9E753AAEFE47817F6F6
:1016E100781AF608F67815F608F6900226F0A3F0B7
:1016F100A3F09002897400F0A37468F0E4900222D0
:10170100F0A3F0900222E0FEA3E0FFC3942CEE943C
:10171100015020900289E0FCA3E02FF582EC3EF518
:1017210083E4F0900223E004F070D8900222E004F8
:10173100F080D07F43123EAC7817E6B40800400336
:10174100021B3890174BF82828730217630217E819
:1017510002188502190B02199C0219FE021A3D0298
:101761001AEAE5E130E534900289E0FEA3E0F58272
:101771008E83C083C082781A0806E6188606700137
:101781000614D082D0832582F582E5833EF583E578
:10179100E5F0E4900226F0A3F0A3F0900289E0FEC8
:1017A100A3E0F5828E83E0B46E25781DE6184660CD
:1017B1000E7BFF7A3E7906123B63E47817F6227BB3
:1017C100FF7A3E7912123B6378177606021B3C784A
:1017D1001BE66407700418E664016003021B3C7891
:1017E1001AF608F6021AE5E4781AF608F690028964
:1017F100E0FEA3E0F5828E83E0F9A3E0FE9002898A
:10180100E0FCA3E0F5828C83A3A3E0FDAC0690028B
:1018110089E0FAA3E0FBF5828A83A3A3A3E0FEEBB0
:101821002404F582E43AF583E0FBEBFFE9B4020E10
:10183100EFF4FFEEF4FEEF6D7002EE6C600302193F
:10184100037815E6FE08E6FFC3ED9FFFEC9EFEEF71
:1018510064014E6004EF4E7025AE04AF057815A605
:101861000608A607E6FEE42400FFEE3440FE9002DF
:1018710029F0A3EFF0D394FFEE947F4004220219E4
:1018810003021AE5E4900224F0A3F0FFFE90022285
:10189100F0A3F0900222E0FCA3E0FDC3EC94015020
:1018A10034ED2405FDE43CFC900289E0FAA3E02D2F
:1018B100F582EA3CF583E0FD900225E02DF09002EF
:1018C10024E03400F0900223E004F070C69002227C
:1018D100E004F080BE900289E0FCA3E0FD2405F560
:1018E10082EC3401F583E0FEED2406F582EC34014F
:1018F100F583E0FDEDFF900224E06E7003A3E06F3D
:1019010060057F15021A37021AE5900229E0FEA34D
:10191100E0FF90028AE02405FD900289E03400FA9C
:10192100A9057B0112358B90022AE02440FF900229
:1019310029E03400FE90028AE02445FD900289E00E
:101941003400FAA9057B0112358B90022AE024802C
:10195100FF900229E03400FE90028AE02485FD9088
:101961000289E03400FAA9057B0112358B90022A25
:10197100E024C0FF900229E03400FE90028AE024B6
:10198100C5FD900289E03400FAA9057B0112358B6F
:10199100781DE61618700116021AE5E4900222F08D
:1019A100A3F0900222E0FEA3E0FFC3EE9401504AAF
:1019B10090022AE02FFF900229E03EFE123EDC90C9
:1019C1000223E02405FD900222E03400FC9002890C
:1019D100E0FAA3E02DF582EA3CF583E06F600B7F2E
:1019E10015123EACE47817F68010900223E004F063
:1019F10070B0900222E004F080A8021AE5E490029F
:101A010022F0A3F0900222E0FEA3E0FFC3942CEEAB
:101A110094015020900289E0FCA3E02FF582EC3E76
:101A2100F583E4F0900223E004F070D8900222E004
:101A310004F080D07F96123EAC021B3890022B74CA
:101A410001F0A3E4F09002297441F0A3E4F09002C4
:101A51002BE0FEA3E0C394FFEE94034003021AE5DA
:101A6100E4900222F0A3F0900222E0FEA3E0FFC383
:101A71009440EE9400503790022AE02FFF90022903
:101A8100E03EFE123EDC900222E0FCA3E0FD90026B
:101A910089E0FAA3E02DF582EA3CF583EFF09002AC
:101AA10023E004F070C1900222E004F080B99002BA
:101AB1002BE0FEA3E0FF900289E0FCA3E0AA04F979
:101AC1007B0112358B90022AE02440F0900229E03C
:101AD1003400F090022CE02440F090022BE034001E
:101AE100F0021A4F7817068052E4900222F0A3F018
:101AF100900222E0FEA3E0FFC39440EE9400502147
:101B0100900289E0FCA3E02FF582EC3EF58374AAF4
:101B1100F0900223E004F070D7900222E004F080FC
:101B2100CF900289E0FEA3E0AA06F97B017F007E47
:101B31000412358B020000E47817F6900226E004C7
:101B4100F06003021739A3E004F06003021739A320
:101B5100E004F0C394025003021739120000021787
:011B6100394A
:101B62007B54696D6553796E63005475726E206F94
:101B72006E20756E6974005475726E206F666620F1
:101B8200756E6974004770537461005475726E20EB
:101B92006F6E204254006D7573696320706C6179B9
:101BA200006D757369632070617573650053656CB0
:101BB20065637420536F756E642066696C65007B83
:101BC2004D757369635374617475730041646A750A
:101BD2007374204F757470757420566F6C756D65D3
:101BE20000766F6C756D6520757000766F6C756D23
:101BF2006520646F776E006D75736963206D75740F
:101C020065006D7573696320756E6D75746500533B
:101C120065742054696D6572005475726E206F662A
:101C2200662054696D6572005475726E206F6E2065
:101C32004C6967687472005475726E206F66662014
:101C42004C6967687472006C69676874207570000B
:101C52006C6967687420646F776E004368616E67B1
:101C620065206C6967687420636F6C6F72004164F1
:101C72006A757374204C6967687420427269676878
:101C8200746E657373005573657220636F6C6F7247
:101C9200007B50726F6772616D0050726F506C61A1
:101CA200790D0A007B416C61726D4F6E4F66660062
:101CB2007B416C61726D536574007B416C6147704E
:101CC200537461007B4E6F724770537461002075CC
:101CD200706461746500415457510D0A00564552B3
:101CE2000D0A00242424564552302E31390D0A00A3
:101CF200456E74657220546573744D6F64653A0065
:101D02000101020408102040802424247B4D7573B5
:101D120069635374617475733A5B30375D7D0D0A84
:101D2200002424247B4D7573696353746174757345
:101D32003A5B30315D7D0D0A002424247B4D75739E
:101D420069635374617475733A5B30325D7D0D0A59
:101D5200002424247B4D7573696353746174757315
:101D62003A5B30335D7D0D0A002424247B4D75736C
:101D720069635374617475733A5B30345D7D0D0A27
:101D8200002424247B4D75736963537461747573E5
:101D92003A5B30355D7D0D0A002424247B4D75733A
:101DA20069635374617475733A5B30365D7D0D0AF5
:101DB200002424247B47705374613A5B30302C300A
:101DC200302C30302C30302C3030303030302C3021
:101DD200302C30302C30302C30303B30302C303006
:101DE2002C30302C3030303030302C30302C303001
:101DF2002C30302C30302C30303A30302C30305DBA
:101E02007D0D0A002424247B416C61477053746168
:101E12003A5B30302C30302C30302C30302C30309B
:101E2200303030302C30302C30302C30302C3030C0
:101E32002C30302C30303A30302C30305D7D0D0A71
:101E4200002424247B4E6F7247705374613A5B30D6
:101E5200302C30302C30302C30302C303030303090
:101E6200302C30302C30302C30302C30305D7D0D29
:101E72000A002424247B4E6F7247705374613A5BCC
:101E820030302C30302C30302C30302C3030303060
:101E920030302C30302C30302C30302C30305D7DD6
:031EA2000D0A0026
:1037820090022574FFF0A3741BF0746CA3F09002F6
:093792001FE0FBA3E0FAA3E0F93B
:10379B00900222EBF0A3EAF0A3E9F0900225E0FB04
:1037AB00A3E0FAA3E0F9122A17FF602F900222E0A0
:1037BB00FBA3E0FAA3E0F9122A17B507056003EFA4
:1037CB0070037F0122900223E475F001122A91907D
:0E37DB000226E475F001122A9180C07F0022C0
:10306000900269EFF09001F9F090021FE0FBA3E0FD
:10307000FAA3E0F9900016122A30FF900017122AE6
:1030800030FD12311690026DEFF09001FAF09002CF
:103090001FE0FBA3E0FAA3E0F9900018122A30FF2A
:1030A000900019122A30FD12311690026AEFF0904A
:1030B00001FBF090021FE0FBA3E0FAA3E0F990000F
:1030C0001A122A30FF90001B122A30FD123116907E
:1030D0000268EFF09001FCF090021FE0FBA3E0FA21
:1030E000A3E0F990001D122A30FF90001E122A3032
:1030F000FD123C4E900277EFF09001FDF090021F20
:10310000E0FBA3E0FAA3E0F9900020122A3090003F
:0631100021FF122A30FD30
:10311600C3EF648094C14006EF24C9FF800474D0D5
:103126002FFFC3ED648094C14006ED24C9FD8004E1
:0B31360074D02DFDEFC454F04DFF22BB
:053C4900FF122A30FD0E
:103C4E00C3EF648094C14006EF24C9FF800474D092
:103C5E002FFFC3ED648094C14006ED24C9FD80049E
:0C3C6E0074D02DFDEF75F00AA42DFF228C
:10361F0012367F90021BE0FBA3E0FAA3E0241AF915
:10362F00E43AFA90026DE0FD12367F90021BE0FB48
:10363F00A3E0FAA3E0241CF9E43AFA90026AE0FD51
:10364F0012367F90021BE0FBA3E0FAA3E0241EF9E1
:10365F00E43AFA900268E0FD12367F90021BE0FB1D
:10366F00A3E0FAA3E09002772421F9E43AFAE0FD0F
:10367F00EDC4540FFFC3940AEF4004243780022493
:10368F0030122A5D740129F9E43AFAED540FFFC3A1
:0E369F00940AEF4004243780022430122A5D82
:0136AD0022FA
:103A1A009002607401F0780DE6B403047F0380021B
:103A2A007F01900260EFF07809E67812F67811E6E5
:103A3A00900269F0900277E0FF70067E017F0180B4
:103A4A0000900277EFF0900260E070047F0180023C
:053A5A007F00022AE3D9
:103C7A009002607401F07809E67812F6900277E013
:103C8A00FF70067E017F018000900277EFF09002BC
:0D3C9A0060E070047F0180027F00022AE3D9
:103D2800900260E0780DF6E4F07812E67809F690F3
:103D38000269E07811F6E4F0780CF6900250F07021
:0A3D4800047F0180027F00022AE3DD
:103CA700E490025EF0900279F0123D28783A7605AA
:103CB700900260E070047F0180027F00122AE3E433
:0C3CC70090025FF0780CF6900250F022A2
:052AE300900222EFF05B
:102AE8007834E670FBE47838F67F64900194E4F07B
:102AF800A3DFFCE4FFEFFD3395E0FC74B32DF58212
:102B0800741D3CF583E493FE74942DF58274013CA6
:102B1800F583EEF00FEFB452DC7B017A01799F90D8
:102B28000222E0FD12367F7A0179A2900260E0B4B9
:102B38000308900287E0FFFD80027D0712367F7B45
:102B4800017A0179A5900269E07003FD80027D0198
:102B580012367F7B017A0179A8900269E0B40904F2
:102B68007D0180027D0012367F7B017A0179AB906E
:102B7800026DE0FD12367F7A0179AD90026AE0FDC0
:102B880012367F7A0179AF900268E0FD12367F7ABB
:102B98000179B2900277E0FD12367F7A0179B57833
:102BA80012E6FD12367F7A0179B8A217E433FD12D6
:102BB800367F7A0179BB780CE6FD12367F7A017987
:102BC800BEE4FD12367F7A0179C1900258E0FD1209
:102BD800367F7A0179C4900267E0B409047D0180E8
:102BE800027D0012367F7B017A0179C7900255E099
:102BF800FD12367F7A0179C9900256E0FD12367FC0
:102C08007A0179CB900257E0FD12367F7A0179CEAE
:102C180090025CE0FD12367F7A0179D1900259E08A
:102C2800FD12367F7A0179D4900251E0FD12367F89
:102C38007A0179D7900252E0FD12367F7A0179DA6B
:102C4800900253E0FD12367F7A0179DD900254E05C
:102C5800FD12367F7A0179E090025DE0FD12367F41
:102C6800783A7602E47839F6783476017837760A55
:102C78007839E6062494F582E43401F583E0F5E535
:012C88002229
:0B05260090021BEBF0A3EAF0A3E9F049
:100531002403F9E43AFA90021FEBF0A3EAF0A3E9ED
:10054100F0900260E070030211FA90022574FFF04E
:10055100A3741BF0746212378EEF707590021FE066
:10056100FBA3E0FAA3E0F990000B122A3090000CF3
:10057100123111780FA60790021FE0FBA3E0FAA346
:10058100E0F990000E122A30FF90000F123112781C
:100591000AA60790021FE0FBA3E0FAA3E0F990008E
:1005A10011122A30FF900012123112780EA6079014
:1005B100021FE0FBA3E0FAA3E0F990001E122A302B
:1005C10024D0780BF6E6901D0293F6E4900265F0D4
:1005D10022123782EF700C900260E0600302097E04
:1005E10002121790022574FFF0A3741BF0A3747913
:1005F10012378FEF701E90021BE0FBA3E0FAA3E01D
:10060100F912394090025EE0600302095E783A76A1
:1006110003023D2890022574FFF0A3741BF0A3741C
:100621008712378FEF70012290022574FFF0A374B7
:100631001BF0A3748D12378FEF7009900260740262
:10064100F002097E90022574FFF0A3741BF0A374DD
:100651009812378FEF70179002607403F0C201C2D5
:1006610017F0900287E0700304F0220213E2900277
:100671002574FFF0A3741BF0A374A312378FEF70DE
:1006810012900260E0640360030216D0D217783042
:1006910076172290022574FFF0A3741BF0A374AFA8
:1006A10012378FEF704090025EE0600BE4F0A3F030
:1006B100780CF6900250F0C201C2179002607403E8
:1006C100F090021FE0FBA3E0FAA3E0F990001A12F8
:1006D1002A3024D0FF900287F07833E6B5070478FA
:1006E10030761802139290022574FFF0A3741BF068
:1006F100A374C112378FEF70012290022574FFF0AD
:10070100A3741BF0A374CE12378FEF702390025E97
:10071100E0600302095E90021FE0FBA3E0FAA3E0A0
:10072100F9900014122A30900015123C490207A7D3
:1007310090022574FFF0A3741BF0A374E312378FAA
:10074100EF702990025EE0600302095E7812E6FF15
:10075100C3940A5013EF94085007E62402FFF68071
:1007610009781206E6FF80027F0A803A900225741A
:10077100FFF0A3741BF0A374ED12378FEF7030906C
:10078100025EE0600302095E7812E6FFD394014045
:1007910013EF94034007E624FEFFF6800978121652
:1007A100E6FF80027F017812A607C20102097E904E
:1007B100022574FFF0A3741BF0A374F912378FEFB5
:1007C1007003D2012290022574FFF0A3741CF0A3E0
:1007D100740412378FEF7003C2012290022574FF57
:1007E100F0A3741CF0A3741112378FEF70259002DF
:1007F1005EE0600302095E90021FE0FBA3E0FAA342
:10080100E0F990000A122A3090000B123C49780C52
:10081100EF801F90022574FFF0A3741CF0A3741BDA
:1008210012378FEF701490025EE0600302095EE4FC
:10083100780CF6900250F002097E90022574FFF0C8
:10084100A3741CF0A3742A12378FEF702D90025EEF
:10085100E0600BE4F0A3F0780CF6900250F0781110
:10086100E6900269F0700204F0900277E0FF7007F1
:100871007E017F0102097902097990022574FFF056
:10088100A3741CF0A3743912378FEF701190025EBC
:10089100E0600302095EE4900269F002097E9002C1
:1008A1002574FFF0A3741CF0A3744912378FEF7005
:1008B1001B90025EE0600302095E900277E0C39440
:1008C10003400302097EE004F002097E90022574D0
:1008D100FFF0A3741CF0A3745212378FEF701B90BA
:1008E100025EE0600302095E900277E0D39400505B
:1008F1000302097EE014F002097E90022574FFF0E4
:10090100A3741CF0A3745D12378FEF703790025EF1
:10091100E0600BE4F0A3F0780CF6900250F0900246
:10092100697409F0E4900270F090026EF090026C2C
:10093100F090026BF0900277E0FF70067E017F017C
:100941008000803490022574FFF0A3741CF0A3741E
:100951007012378FEF702690025EE06003023CA7B1
:1009610090021FE0FBA3E0FAA3E0F9900018122A1D
:1009710030FF900019123C4A900277EFF090022567
:1009810074FFF0A3741CF0A3748812378FEF600317
:10099100020A1790025EE0600BE4F0A3F0780CF617
:1009A100900250F090021FE0FBA3E0FAA3E0F9905F
:1009B100000B122A30FF90000C12311290026DEFE1
:1009C100F090021FE0FBA3E0FAA3E0F990000D1202
:1009D1002A30FF90000E12311290026AEFF090025D
:1009E1001FE0FBA3E0FAA3E0F990000F122A30FF09
:1009F100900010123112900268EFF0900269740AAF
:100A0100F0900277E0FF70067E017F018000900286
:100A110077EFF00216C290022574FFF0A3741CF068
:100A2100A3749312378FEF6003020B0190025EE013
:100A3100600BE4F0A3F0780CF6900250F0123D7ACE
:100A410090021FE0FBA3E0FAA3E0F990000E122A46
:100A51003024D0900287F09001F8F0900011122A12
:100A610030FFB431047E0180027E00900269EEF015
:100A71009001F9F0EFB4311C90021FE0FBA3E0FA02
:100A8100A3E0F9900014122A30B431047F098006E2
:100A91007F0A80027F001230607812EFF69001FE2B
:100AA100F09002607403F09001FFF090021FE0FBF0
:100AB100A3E0FAA3E0F9900024122A3024D024FF05
:100AC1009217E433900200F0201703C38001D39200
:100AD10001E433900201F02017047F1880027F1790
:100AE1007830A607900026122A30FF900027123195
:100AF10012780CEFF6900250F0900202F00216C24A
:100B010090022574FFF0A3741CF0A3749C12378F1C
:100B1100EF6003020B9490025EE0600BE4F0A3F03F
:100B2100780CF6900250F09001F8E0900287F09076
:100B310001F9E0900269F09001FAE090026DF09005
:100B410001FBE090026AF09001FCE0900268F090F5
:100B510001FDE0900277F09001FEE07812F6A3E04B
:100B6100900260F0900200E024FF9217201703C367
:100B71008001D39201E433900201F02017047F1821
:100B810080027F177830A607900202E0900250F0B1
:100B91000216C290022574FFF0A3741CF0A374A680
:100BA10012378FEF707190021FE0FBA3E0FAA3E010
:100BB100F9900011122A3024D0900251F0900013C4
:100BC100122A30FF900014123112780FA6079002FA
:100BD1001FE0FBA3E0FAA3E0F9900016122A30FF10
:100BE100900017123112780AA60790021FE0FBA3AA
:100BF100E0FAA3E0F9900019122A30FF90001A12CE
:100C01003112780EA60790021FE0FBA3E0FAA3E0E1
:100C1100F9900026020DE390022574FFF0A3741CE5
:100C2100F0A374B212378FEF6003020DF490021F2C
:100C3100E0FBA3E0FAA3E0F990000F122A3024D0E0
:100C4100900258F0C394074002E4F0900012122A77
:100C510030FF24D090025BF0EFB4311190001512F7
:100C61002A30B431047F0980067F0A80027F009018
:100C7100025BEFF090021FE0FBA3E0FAA3E0F99022
:100C81000017122A30FF900018123112900255EF0E
:100C9100F090021FE0FBA3E0FAA3E0F99000191223
:100CA1002A30FF90001A123112900256EFF0900292
:100CB1001FE0FBA3E0FAA3E0F990001B122A30FF2A
:100CC10090001C123112900257EFF090021FE0FBCE
:100CD100A3E0FAA3E0F990001F122A3024D0900279
:100CE1005CF0900021122A30FF9000221231129004
:100CF1000259EFF090021FE0FBA3E0FAA3E0F990A4
:100D01000025122A3024D090025AF0900028122A8D
:100D11003024D0900251F090002A122A30FF900026
:100D21002B123112900252EFF090021FE0FBA3E070
:100D3100FAA3E0F990002D122A30FF90002E123113
:100D410012900253EFF090021FE0FBA3E0FAA3E040
:100D5100F9900030122A30FF9000311231129002C6
:100D610054EFF090021FE0FBA3E0FAA3E0F990003A
:100D710033122A30FF90003412311290025DEFF0ED
:100D810090021FE0FBA3E0FAA3E0F9900036122ADB
:100D910030FF900037123112780FA60790021FE042
:100DA100FBA3E0FAA3E0F9900039122A30FF90008A
:100DB1003A123112780AA60790021FE0FBA3E0FA6B
:100DC100A3E0F990003C122A30FF90003D1231124D
:100DD100780EA60790021FE0FBA3E0FAA3E0F990CA
:100DE1000049122A3024D0780BF6E6901D0293F6C2
:100DF1000216C290022574FFF0A3741CF0A374BC08
:090E010012378FEF6003020FD2DB
:100E0A0090021EF090021EE0FFC39464501C9002F0
:100E1A001BE0FBA3E0FAA3E0F98F82758300E412DA
:100E2A002A6F90021EE004F080DAE490021EF0902D
:100E3A00021EE0FF901E0693FE90021BE0FBA3E059
:100E4A00FAA3E0F98F82758300EE122A6F90021ED0
:100E5A00E004F0E0B43ED890021BE0FBA3E0FAA362
:100E6A00E0240EF9E43AFAE4FD12367F90021BE020
:100E7A00FBA3E0FAA3E02411F9E43AFA900258E05D
:100E8A00FF6003FD80027D0712367F90021BE0FBA4
:100E9A00A3E0FAA3E02414F9E43AFA90025BE070C2
:100EAA0003FD80027D0112367F90021BE0FBA3E066
:100EBA00FAA3E02417F9E43AFA90025BE0B40904D1
:100ECA007D0180027D0012367F90021BE0FBA3E0C9
:100EDA00FAA3E0241AF9E43AFA900255E0FD123630
:100EEA007F90021BE0FBA3E0FAA3E0241CF9E43A9A
:100EFA00FA900256E0FD12367F90021BE0FBA3E057
:100F0A00FAA3E0241EF9E43AFA900257E0FD1236F9
:100F1A007F90021BE0FBA3E0FAA3E090025C12368A
:100F2A007790021BE0FBA3E0FAA3E02424F9E43A59
:100F3A00FA900259E0FD12367F90021BE0FBA3E013
:100F4A00FAA3E02427F9E43AFA90025AE0FD1236AD
:100F5A007F90021BE0FBA3E0FAA3E0242AF9E43A1B
:100F6A00FA900251E0FD12367F90021BE0FBA3E0EB
:100F7A00FAA3E0242DF9E43AFA900252E0FD12367F
:100F8A007F90021BE0FBA3E0FAA3E02430F9E43AE5
:100F9A00FA900253E0FD12367F90021BE0FBA3E0B9
:100FAA00FAA3E02433F9E43AFA900254E0FD123647
:100FBA007F90021BE0FBA3E0FAA3E02436F9E43AAF
:050FCA00FA90025DE059
:100FCF000210F890022574FFF0A3741CF0A374C6EE
:090FDF0012378FEF6003021103C9
:100FE80090021EF090021EE0FFC39464501C900211
:100FF8001BE0FBA3E0FAA3E0F98F82758300E412FB
:101008002A6F90021EE004F080DAE490021EF0904D
:10101800021EE0FF901E4393FE90021BE0FBA3E03C
:10102800FAA3E0F98F82758300EE122A6F90021EF0
:10103800E004F0E0B430D890021BE0FBA3E0FAA390
:10104800E0240EF9E43AFA7D0112367F90021BE0A3
:10105800FBA3E0FAA3E02411F9E43AFA900260E075
:10106800B40308900287E0FFFD80027D0712367FF7
:1010780090021BE0FBA3E0FAA3E02414F9E43AFA97
:10108800900269E07003FD80027D0112367F9002B4
:101098001BE0FBA3E0FAA3E02417F9E43AFA900274
:1010A80069E0B409047D0080027D0112361F9002B8
:1010B8001BE0FBA3E0FAA3E02424F9E43AFA78124F
:1010C800E6FD12367F90021BE0FBA3E0FAA3E024C2
:1010D80027F9E43AFAA217E433FD12367F90021B8F
:1010E800E0FBA3E0FAA3E0242AF9E43AFA780CE654
:0810F800FD12367F783A760202
:101100000216C290022574FFF0A3741CF0A374D0E1
:1011100012378FEF60030211B590021FE0FBA3E0CE
:10112000FAA3E0F990000A122A30FF90000B123166
:1011300012EF7F00FEC007C00690021FE0FBA3E095
:10114000FAA3E0F990000C122A30FF90000D123142
:1011500012EFFD3395E0FCD0E04CFED0E04D781866
:10116000A60608F690021FE0FBA3E0FAA3E0F990C0
:101170000011122A30FF900012123112EF7F00FE90
:10118000C007C00690021FE0FBA3E0FAA3E0F990BD
:101190000013122A30FF900014123112EFFD339524
:1011A000E0FCD0E04CFED0E04D781CA60608F6121C
:1011B00016D10216C290022574FFF0A3741CF0A38E
:1011C00074D812378FEF7002802C90022574FFF0D4
:1011D000A3741CF0A374DF12378FEF700302158B1A
:1011E00090022574FFF0A3741CF0A374F212378FE1
:1011F000EF60030216C2783AF622123782EF701EB1
:1012000090021BE0FBA3E0FAA3E0F9123940900240
:1012100060E060030216C2783A7603023A1A90023E
:101220002574FFF0A3741CF0A3742A12378FEF709B
:101230002D90021BE0FBA3E0FAA3E0F91239401263
:101240003C7A7811E6900269F0700204F09002771F
:10125000E0FF70077E017F0102133A02133A900209
:101260002574FFF0A3741CF0A3745D12378FEF7028
:101270003890021BE0FBA3E0FAA3E0F91239401218
:101280003C7A9002697409F0E4900270F090026E6A
:10129000F090026CF090026BF0900277E0FF700625
:1012A0007E017F01800002133A90022574FFF0A3B3
:1012B000741CF0A3748812378FEF600302134290FE
:1012C000021BE0FBA3E0FAA3E0F9123940123C7ADA
:1012D00090021FE0FBA3E0FAA3E0F990000B122AB2
:1012E00030FF90000C12311290026DEFF090021F4F
:1012F000E0FBA3E0FAA3E0F990000D122A30FF9082
:10130000000E12311290026AEFF090021FE0FBA370
:10131000E0FAA3E0F990000F122A30FF90001012BB
:101320003112900268EFF0900269740AF09002772F
:10133000E0FF70067E017F018000900277EFF002EF
:1013400016C290022574FFF0A3741BF0A374AF12B1
:10135000378FEF705690021BE0FBA3E0FAA3E0F991
:10136000123940123C7AC201C2179002607403F035
:1013700090021FE0FBA3E0FAA3E0F990001A122A02
:101380003024D0FF900287F07833E6B50704783038
:101390007618783A7601900287E075F018A4240B4D
:1013A000F9741D35F0FA7BFF0216CD90022574FF0B
:1013B000F0A3741BF0A3749812378FEF702990027A
:1013C0001BE0FBA3E0FAA3E0F9123940123C7A904B
:1013D00002607403F0C201C217900287E070030438
:1013E000F022783076182290022574FFF0A3741C46
:1013F000F0A3749C12378FEF600302147A90021BE3
:10140000E0FBA3E0FAA3E0F9123940123C7A900124
:10141000F8E0900287F09001F9E0900269F0900105
:10142000FAE090026DF09001FBE090026AF090010A
:10143000FCE0900268F09001FDE0900277F09001EE
:10144000FEE07812F6A3E0900260F0900200E02443
:10145000FF9217201703C38001D39201E433900257
:1014600001F02017047F1880027F177830A60790BC
:101470000202E0900250F00216C290022574FFF0C2
:10148000A3741CF0A3749312378FEF6003021564EA
:1014900090021BE0FBA3E0FAA3E0F9123940123CF2
:1014A0007A123D7A90021FE0FBA3E0FAA3E0F990E4
:1014B000000E122A3024D0900287F09001F8F090AC
:1014C0000011122A30FFB431047E0180027E0090A8
:1014D0000269EEF09001F9F0EFB4311C90021FE0C8
:1014E000FBA3E0FAA3E0F9900014122A30B431040F
:1014F0007F0980067F0A80027F001230607812EF39
:10150000F69001FEF09002607403F09001FFF090FD
:10151000021FE0FBA3E0FAA3E0F9900024122A30B6
:1015200024D024FF9217E433900200F0201703C365
:101530008001D39201E433900201F02017047F1858
:1015400080027F177830A607900026122A30FF907D
:101550000027123112780CEFF6900250F090020240
:10156000F00216C290022574FFF0A3741BF0A3745E
:101570008712378FEF70012290022574FFF0A37459
:101580001CF0A374DF12378FEF70097BFF7A1C7990
:10159000E50216CD90022574FFF0A3741CF0A3742D
:0A15A000C612378FEF60030216C277
:1015AA0090021EF090021EE0FFC39464501C900249
:1015BA001BE0FBA3E0FAA3E0F98F82758300E41233
:1015CA002A6F90021EE004F080DAE490021EF09086
:1015DA00021EE0FF901E7493FE90021BE0FBA3E044
:1015EA00FAA3E0F98F82758300EE122A6F90021E29
:1015FA00E004F0E0B430D890021BE0FBA3E0FAA3C9
:10160A00E0240EF9E43AFAE4FD12367F90021BE078
:10161A00FBA3E0FAA3E02411F9E43AFA900260E0AD
:10162A00B40308900287E0FFFD80027D0712367F2F
:10163A0090021BE0FBA3E0FAA3E02414F9E43AFACF
:10164A00900269E07003FD80027D0112367F9002EC
:10165A001BE0FBA3E0FAA3E02417F9E43AFA9002AC
:10166A0069E0B409047D0080027D0112361F9002F0
:10167A001BE0FBA3E0FAA3E02424F9E43AFA781287
:10168A00E6FD12367F90021BE0FBA3E0FAA3E024FA
:10169A0027F9E43AFAA217E433FD12367F90021BC7
:1016AA00E0FBA3E0FAA3E0242AF9E43AFA780CE68C
:0816BA00FD12367F783A76023A
:0E16C20090021BE0FBA3E0FAA3E0F91239400E
:0116D00022F7
:103D7A00780E7C027D017B017A0279037E007F0B3B
:103D8A001229F178037C027D017B017A0179F87EA0
:063D9A00007F0B0229F17D
:0D3E9F00E4F5FDF5FEF5FA75FB40F5FC229B
:033EF100020000CC
:103D5200E4FE7DA2EF600E74832EF582E43402F558
:103D620083EDF0800C74832EF582E43402F583E453
:073D7200F00D0EEEB404DDBC
:013D79002227
:083ED40075FE01000000002250
:103BDC00AD07AC06E4F5FAECF5FBAF058FFC75FD13
:103BEC00A5900283E064A27018A3E0B4A313A3E031
:103BFC00B4A40EA3E0B4A50975FE03000000008078
:073C0C0003123EF1023E9F8E
:1038F100AD07AC067F007E80123ED4E4FBEF2BF5D2
:1039010082E43EF583E4F00BEBB440F1E4F5FAEC2C
:10391100F5FBAF058FFC75FDA5900283E064A270F5
:1039210018A3E0B4A313A3E0B4A40EA3E0B4A509C3
:0F39310075FE02000000008003123EF1023E9F6F
:0B358B0090022DEBF0A3EAF0A3E9F0A2
:10359600E4900231F0A37480F0A3E4F0A3EEF0A36C
:1035A600EFF053A87F7F01123D52900234E0FEA354
:1035B600E0FF1238F1123ED4E4900230F090022D72
:1035C600E0FBA3E0FAA3E0F9900231E0FF04F08FFC
:1035D60082758300122A30FF900230E0FE9002329C
:1035E600E0FCA3E02EF582E43CF583EFF090023098
:1035F600E004F0E0B440C6900234E0FEA3E0FF121F
:103606003BDCE4FF123D52900235E02440F090028C
:0836160034E03400F043A88009
:01361E002289
:073EDC008F828E83E493FF47
:013EE30022BC
:1001000090021B7400F0A37468F0A37480F0A3E461
:10011000F090021AF090021AE0FFC394405016A328
:10012000E0FCA3E02FF582E43CF583E4F090021AB2
:10013000E004F080E09002217404F0A3E4F0900267
:100140001AF090021AE0FFC394405034900221E06C
:10015000FCA3E0F5828C83E493FE90021BE0FCA3F9
:10016000E02FF582E43CF583EEF0900222E004F00B
:100170007006900221E004F090021AE004F080C2C0
:1001800090021BE0FEA3E0FFF5828E83E064AA608C
:100190000302036FA3A3E064AA600302036F90024B
:1001A0001BA3E02404F582E43EF583E064AA600327
:1001B00002036FEF2406F582E43EF583E064AA6053
:1001C0000302036F53A87F90021FF0A3F0A37440B3
:1001D00002036890021FE0FEA3E0FDAC06E490027B
:1001E0001AF090021AE0F9C39440400302026D90A5
:1001F000021FE0FEA3E0FFC3EE94004009D3EF949A
:1002000000EE9404400FC3EE94054045D3EF94FFF5
:10021000EE943F503C900221E0FEA3E0F5828E83F5
:10022000E493FF90021BE0FAA3E029F582E43AF59B
:1002300083EFF0900222E004F07006900221E004C7
:10024000F0900220E004F0701B90021FE004F080A8
:100250001390021AE0FFA3E0FAA3E02FF582E43A3C
:10026000F583E4F090021AE004F00201E275FE0169
:1002700000000000E490021AF090021AE0FFC3941C
:1002800040501890021DE0FAA3E02FF582E43AF501
:1002900083E4F090021AE004F080DEE4F5FAECF575
:1002A000FB8DFC75FDA50000000075FE020000003E
:1002B00000E4F5FDF5FEF5FA75FB05F5FC75FE01AC
:1002C0000000000090021AF090021AE0F9A3E0FE8C
:1002D000A3E029F582E43EF583E0FF90021DE0FAF9
:1002E000A3E029F582E43AF583EFF090021AE004E6
:1002F000F0E0B440D3E4F5FAECF5FBAF058FFC7504
:10030000FDA50000000075FE0300000000E4F5FDFF
:10031000F5FEF5FA75FB05F5FC90021FE0FEA3E083
:10032000FFC3EE9404400CD3EF9400EE9405500309
:1003300012000090021FE0FEA3E0B40014EEB4012E
:100340001090021F7405F0A3E4F0A37445F0A3E439
:10035000F090021FE0FEA3E0C394FFEE943F500331
:100360000201D390021F7404F0A3E4F00201D3123F
:05037000050043A88018
:010375002265
:103940007834E670FBE47838F67F64900194E4F014
:10395000A3DFFCE4FF122A17FE601674942FF58291
:10396000E43401F583EEF0740129F9E43AFA0F80AA
:10397000E4E47839F6783476017837760A7839E6EF
:0D398000062494F582E43401F583E0F5E5BA
:01398D002217
:103C1300783AE660307838E6B414277834E670FBF7
:103C2300783A16E47838F608F678347601783776F9
:103C33000A7839E6062494F582E43401F583E0F545
:063C4300E522783806229C
:10344A00900002E0FEA3E0FF900000E06E7003A38C
:10345A00E06F70030234F07836760A900002E0FEDC
:10346A00A3E0FF2468F58274003EF583E0FD18E6C8
:10347A002404F582E43400F583EDF074682FF582B4
:10348A0074003EF583E4F090000275F001122A916F
:10349A00FEC3E5F0942CEE94014007E4900002F09C
:1034AA00A3F07835E6062404F582E43400F583E0D7
:1034BA00640A708C7B017A007904120526E4783557
:1034CA00F690021AF090021AE0FFC39464400302D5
:1034DA00344A74042FF582E43400F583E4F0900250
:0634EA001AE004F080DF8F
:0134F00022B9
:10350B00020500E493A3F8E493A34003F68001F2D1
:10351B0008DFF48029E493A3F85407240CC8C333C1
:10352B00C4540F4420C8834004F456800146F6DF90
:10353B00E4800B0102040810204080903EF4E47EEE
:10354B00019360BCA3FF543F30E509541FFEE49385
:10355B00A360010ECF54C025E060A840B8E493A34C
:10356B00FAE493A3F8E493A3C8C582C8CAC583CA77
:10357B00F0A3C8C582C8CAC583CADFE9DEE780BE2F
:013EF40000CD
:10292100E709F608DFFA8046E709F208DFFA803E98
:1029310088828C83E709F0A3DFFA8032E309F60885
:10294100DFFA8078E309F208DFFA807088828C83ED
:10295100E309F0A3DFFA806489828A83E0A3F608A1
:10296100DFFA805889828A83E0A3F208DFFA804C7B
:1029710080D280FA80C680D4806980F28033801052
:1029810080A680EA809A80A880DA80E280CA8033BB
:1029910089828A83ECFAE493A3C8C582C8CCC58333
:1029A100CCF0A3C8C582C8CCC583CCDFE9DEE78003
:1029B1000D89828A83E493A3F608DFF9ECFAA9F082
:1029C100EDFB2289828A83ECFAE0A3C8C582C8CCD8
:1029D100C583CCF0A3C8C582C8CCC583CCDFEADEF1
:1029E100E880DB89828A83E493A3F208DFF980CC53
:1029F10088F0EF60010E4E60C388F0ED2402B4044C
:102A01000050B9F582EB2402B4040050AF232345F2
:062A11008223902971737D
:102A1700BB010689828A83E0225002E722BBFE02BD
:092A2700E32289828A83E49322F0
:102A3000BB010CE58229F582E5833AF583E022505B
:102A400006E92582F8E622BBFE06E92582F8E222A5
:0D2A5000E58229F582E5833AF583E49322BF
:102A5D00BB010689828A83F0225002F722BBFE0158
:022A6D00F32252
:102A6F00F8BB010DE58229F582E5833AF583E8F09D
:102A7F00225006E92582C8F622BBFE05E92582C849
:022A8F00F22231
:102A9100C5F0F8A3E028F0C5F0F8E58215827002D0
:062AA1001583E038F0226D
:102AA700A3F8E0C5F025F0F0E582158270021583E2
:062AB700E0C838F0E8223F
:102ABD00D083D082F8E4937012740193700DA3A3A8
:102ACD0093F8740193F5828883E4737402936860BC
:062ADD00EFA3A3A380DFBC
:00000001FF
