:030000000233B414
:1033B40078FFE4F6D8FD9000007F007E03E4F0A3DC
:0A33C400DFFCDEFA75813A02010019
:023E9600C11B4E
:1005000053A87F1238B7123D74123E85123E6D1209
:100510003E1A123DA2123DCB123E27123E4143A885
:0905200080123A6B12010080D731
:03001B000235FDAE
:0F35FD00C0E0C083C082C0D075D000C000C0073E
:10360C00AFF553F1DF7825760A3011237827E6C31E
:10361C009408500DE606247BF582E43402F583EF22
:10362C00F0EF640A702A7827F6D213B21180217851
:10363C0027E6C39408500DE6062483F582E4340291
:10364C00F583EFF0EFB40A0878277600D214B211A4
:0D365C00D007D000D0D0D082D083D0E03293
:030023000239E3BC
:1039E300C0E0C083C082C0D075D000C00053F17F57
:1039F3007824E660247826760A7828E6062473F588
:103A030082E43402F583E0F5F5E62473F582E434C9
:103A130002F583E070037824F6D000D0D0D082D0B2
:043A230083D0E0323A
:03004B0002385C1C
:10385C00C0E0C0F0C083C082C0D075D000C000C032
:05386C0004C006C007C6
:10387100AFE553E1DF900000E0FCA3E02468F582AE
:1038810074003CF583EFF0900000E475F00112261E
:103891008BFEC3E5F0942CEE94014007900000E408
:0338A100F0A3F0A1
:1038A400D007D006D004D000D0D0D082D083D0F0BE
:0338B400D0E0322F
:03005300023A2747
:103A2700C0E0C083C082C0D075D000C00053E17F22
:103A37007834E660247837760A7839E6062495F5EF
:103A470082E43401F583E0F5E5E62495F582E43474
:103A570001F583E070037834F6D000D0D0D082D05F
:043A670083D0E032F6
:03006B00023B282D
:103B2800C0E0C0F0C083C082C0D075D000C000C063
:103B380001C002C003C004C005C006C0071237FF99
:103B4800D007D006D005D004D003D002D001D000D1
:0B3B5800D0D0D082D083D0F0D0E0327B
:03008300023AAC92
:103AAC00C0E0C0F0C083C082C0D075D000C000C0E0
:103ABC0001C002C003C004C005C006C0071230BC60
:103ACC00123256D007D006D005D004D003D002D085
:0E3ADC0001D000D0D0D082D083D0F0D0E03224
:0300A300023957C8
:10395700C0E0C0D075D000C000C007B20330032D4F
:10396700780E06E6D3943B40247600780A06E6D321
:10397700943B40197600780F06E6D39417400E76ED
:1039870000780BE625E0FFF6BF80027601D007D06E
:0639970000D0D0D0E032A8
:083E6400AF9FEFFEAD9EEDFFE4
:013E6C002233
:073E8500759C80759D07226A
:0F3DEE00EF540FFFE59C54F04FF59C439C40228F
:083E6D00E4F59AF599F59B229A
:043E9200438D20221A
:0C3E4100758E01758DC0438D02023E920B
:0D3E1A0075B28875B45D43AA0243B201225F
:103DA200901000748AF0A3744AF043AA1090100095
:053DB200E04401F022D5
:103DCB0075DA0275D90643DAECE4F5DB75E30C43DF
:033DDB00A9182202
:103D5C00201B1275EA0275E90643EAECE4F5EB75F3
:083D6C00F34D43A818D21B22FD
:103DB700301B0EE4F5EAF5E9F5EAF5EBF5F353A860
:043DC700E7C21B2212
:0D3E270075968875890175898143AB042269
:103D740090103874A8F075C80A758B09E58B30E784
:083D8400FB758A0143C805220A
:1038B70075A17FE4F5ACF591F5DEF58075B19875E6
:1038C700AD20F592F5DFF58875B9FFF5AE75930272
:1038D700F59075C1FEF5AFF59875C9FEF5A3F5949A
:1038E700F5A075D1FFF595F5B075D320F5D2F5D5CF
:1038F70075D403F5D775D603F5EE75EF0A75FF2D69
:01390700229D
:0F3DFD0024242454696D652073796E630D0A00C8
:1037FF00D2087813E6FF7002D20BEFB40102D20C9D
:10380F00EFB40202D20DEFB40302D20EEFB40402F2
:10381F00D20FEFB40502D210EF640670247837167A
:10382F00E670037834F6783616E670037835F67856
:10383F002616E670037824F6782516E670037827A7
:0D384F00F6781306E6C3940A4002E4F62260
:102A3A00780EE6FF7814667003022BE0A607900270
:102A4A0008E060199001F9E004F0D3940A400EE41A
:102A5A00F0900203E0FF7812E69F50010690024FC1
:102A6A00E0B4012190024DE004F0E0C3940A40155D
:102A7A00E4F0783A76037BFF7A3D79FD1236699065
:102A8A00024F7402F0780AE6FF7810667003022B90
:102A9A00E0A607780CE6601F16E6701B123C34E4C9
:102AAA00900208F0783A760390020AE070047F01F7
:102ABA0080027F00122892900209E0601F14F070D1
:102ACA001B123C34E4900208F0783A760590020A28
:102ADA00E070047F0180027F001228929001FBE0DF
:102AEA0064016003022BA89001FDE0780F66600381
:102AFA00022BA8A3E0780A666003022BA89001FCC7
:102B0A00E0FF08E6FEEF5E7003022BA8EF20E7065F
:102B1A00EEF4FEEF5EF078127601C201E49001F95C
:102B2A00F090020804F090020A7403F09001FFE0AA
:102B3A009002ABF0900200E09002A8F0900201E04F
:102B4A009002A6F0900202E09002C5F0900204E022
:102B5A0024FF921A201A03C38001D39201201A0477
:102B6A007F1880027F177830A607900205E090024E
:102B7A00A7F0900206E09002B5F0900207E09002FA
:102B8A0009F0780CF69001FAF090020AE070047FDE
:102B9A000180027F00122892783A7603D2069002C8
:102BAA004FE0B4021090024DE004F0E0C3940240FA
:102BBA0004E4F0D205780FE6FF7808666018A607E5
:102BCA0090020CE004F0E0C39418400AE4F090028A
:062BDA004F7402F0D20569
:012BE00022D2
:102BE100300A3D90020BE004F0C3940C400FE4F076
:102BF10090024EE004F0D394184002C20A90024EB3
:102C0100E0FF30E00543801080035380EFEF30E0B8
:102C11000543802080035380DFEF30E074022CDB1A
:032C210030044834
:102C240090020BE004F0C394324035E4F090024E7D
:102C3400E004F0D394064005C204120000E49002BC
:102C44008BF090028BE0FFC394405014740D2FF569
:102C540082E43402F583E4F090028BE004F080E235
:082C6400438010438020806FC3
:102C6C0030002590020BE004F0C3940C400FE4F00C
:102C7C0090024EE004F0D394104002C20090024E39
:102C8C00E030E0028049805190020AE0D394015078
:102C9C00189002A7E070125380EF5380DF5380BF6F
:102CAC00E4780CF69001FAF0229001FAE0FFB40FF0
:102CBC00084380105380DF8020EFB41E085380EF50
:102CCC004380208014EFB43C0A5380EF5380DF43E1
:0D2CDC008040225380EF5380DF5380BF22E1
:103BCF00781276029002B57401F090020AF0D201D9
:103BDF005390EF783A7603E070047F0180027F0004
:103BEF0012289290024F7401F090028C7404F0A38B
:033BFF007440F01F
:013C0200229F
:103A6B00123BCF123571300802C208300B08C20B63
:103A7B00123E8C1220FD300C05C20C12318D300D14
:103A8B0005C20D1226DD300E05C20E122354300F67
:103A9B000BC20F122BE11237A1122A3A123E92805F
:013AAB00C258
:102EE70020202020200D0A0041542B4D540D0A00AC
:102EF70041542B4D410D0A0041542B4D450D0A00FD
:102F070041542B4D440D0A0041542B43410D0A00F7
:102F170041542B43420D0A0041542B43430D0A00F1
:102F270041542B43500D0A0041542B43440D0A00D2
:102F370041542B435A0D0A0041542B48300D0A00C7
:102F470041542B48310D0A0041542B48320D0A00D9
:102F570041542B48330D0A0041542B48340D0A00C5
:102F670041542B48350D0A0041542B48360D0A00B1
:102F770041542B48370D0A0041542B48380D0A009D
:102F870041542B48390D0A0041542B48410D0A0082
:102F970041542B48420D0A0041542B48430D0A0067
:102FA70041542B48440D0A0041542B48450D0A0053
:102FB70041542B48460D0A00000102030607090A7F
:102FC7000C0E0F0001020304040405060607070898
:042FD70008090A0AD1
:10399D007824E670FB7F08900273E4F0A3DFFCE46B
:1039AD00FF122611FE601674732FF582E43402F5B2
:1039BD0083EEF0740129F9E43AFA0F80E4E47828F3
:1039CD00F6782476017828E6062473F582E434022D
:0539DD00F583E0F5F5A3
:0139E20022C2
:103C8F00EFC3940B500CEF75F008A424E7F9742ED2
:103C9F0080107812E6902FBF9375F008A4243FF997
:0A3CAF00742F35F0FA7BFF12399DE7
:013CB90022E8
:102DEB00201306201403022EE6301312C213900296
:102DFB008B7401F0A37402F0A3747BF08010C214E7
:102E0B0090028B7401F0A37402F0A37483F0900210
:102E1B008BE0FBA3E0FAA3E0F9122611FFB4491FE4
:102E2B0090000112262AFEB44902D216EEB44102DA
:102E3B00C216EE64586003022ECBC216022ECBEFE5
:102E4B00B44D1C90000112262AFFB44102C217EFA9
:102E5B006442706CD2177812E6F47829F68061120E
:102E6B002611FFB44F1290000112262A64467050AF
:102E7B0090020AE064028048EF6448704390020AB3
:052E8B00E06402703B51
:102E900090000112262AFFD3648094B94005EF24E4
:102EA000C9801390028BE0FBA3E0FAA3E0F9900045
:102EB0000112262A24D07812F67812E6D3940F4015
:0B2EC00002760F7812E6902FCA93F6FE
:102ECB00E4FF90028BE0FBA3E0FAA3E0F98F82759D
:0B2EDB008300E41226690FEFB408E743
:012EE60022C9
:10318D00122DEB90020AE064026003023218201245
:10319D0013782BF6C216C2177812E6F47829F6E4E6
:1031AD00900272F0D212900272E014601514601A3F
:1031BD00146019146018240470195390EF43900291
:1031CD00806F123DB75390BF806780658067123D59
:1031DD005C80657812E6FF7829666009A6077F0B8B
:1031ED00123C8F800D782AE6FF6007123C8FE47841
:1031FD002AF6E58830E210782BE6D3940540044397
:10320D00901022782B06225390EF22301208E4788A
:10321D002BF6900272F0C212900272E0146012143A
:10322D0060111460101460172404701C5390EF800B
:10323D000780058003439040900272E004F02290D5
:09324D000272E004F05390FD222E
:1036D200242424415457510D0A00242424466163B2
:1036E200746F72792073657474696E670D0A0024B1
:1036F2002424576966692072657365740D0A002473
:103702002424456E74657220546573744D6F64652C
:103712003A302E33390D0A00000004C00601086752
:103722000A900BE50D560E000050056006A1090730
:083732000B300C850DF60E00B2
:10330800E490028BF0123E649002B8EEF0A3EFF066
:10331800C394A0EE940F504AE4FFEF25E0241AF579
:1033280082E43437F583E493FC740193FD9002B88A
:10333800E0FAA3E0FBC39DEA9C4022EF25E0242AA3
:10334800F582E43437F583E493FC740193FDD3EB01
:103358009DEA9C5008EF0490028BF080050FEFB4B3
:1033680008B87F05123DEE90028BE0FFB4040AE531
:103378008820E5057408F0802DEFB4010DE588205C
:10338800E50890028B7409F0801CEFB4020DE58803
:1033980020E50890028B740AF0800BE58820E5068A
:0B33A80090028B7403F090028BE0FF9A
:0133B30022F7
:102CE900E49002B6F09002BFE0FE6F600EA3E06FC1
:102CF9006003EFF0229002BFEFF0229002BEE0FFE6
:102D09006E6003022D96EF7003022DEA9002BAE07D
:102D19007003022DEA9002BAE014F06003022DEA72
:102D29009002BEE09002BCF09002B7E070059002FC
:102D3900B604F09002BDE014602114603214602FD3
:102D490024036003022DEA9002BD7401F09002BCD5
:102D5900E04420F09002BA7432F0229002BD74026D
:102D6900F09002BCE04460F09002BA7414F0229032
:102D790002BD7403F09002BCE04480F09002BA7482
:102D890014F0A3E0C394FA5058E004F0229002BE74
:102D9900E060379002BCF09002B7E070059002B68F
:102DA90004F09002BDE024FE601014600F2402704C
:102DB900129002BCE04440F0800980009002BCE01F
:102DC90044C0F0E49002BDF08009E49002B7F090AD
:102DD90002BBF09002BA7405F09002BFE09002BE07
:022DE900F022D6
:063E8C00123308022CE9CC
:1020FD009002B6E07003022353900208E06016E4EC
:10210D00F09002B704F0783A7605123C34E4900270
:10211D0009F002226A9002BCE01226B7216041212B
:10212D00944221FB43221244222A4522724622D296
:10213D004721DF6222B86622E067217C8121FB8383
:10214D0022128422ED8823168923348A2160C1004E
:10215D000023539002BBE0C394194003022353782C
:10216D003A760590020AE06003023C34023B9A90F5
:10217D0002BBE064196003022353783A76057BFFB6
:10218D007A3679D202235090020AE0FF640160048E
:10219D00EFB40216C201C21A90020A7403F0900243
:1021AD00C5E0600302235304F02290020AE06403A9
:1021BD006003022353C201301A04C21A8026C21AC8
:1021CD009002C5E004F0D39406500302235374012A
:1021DD00F02290020AE064036003022353B21A2036
:1021ED001A07C201783076182278307617229002BD
:1021FD000AE0D3940150030223537812E6940A5057
:10220D000106C2012290020AE0D394015003022379
:10221D00537812E6D39401400116C2012290020AAE
:10222D00E0D3940150099002A7E07003022353906C
:10223D0001FAE0FF7008780C760F740FF022EFB4FE
:10224D000F0B780C761E9001FA741EF022EFB41E5F
:10225D000B780C763C9001FA743CF022E4780CF685
:10226D009001FAF02290020AE070030223539002CB
:10227D00A7E0B40A0280159002B5E0700404F08066
:10228D000E9002A7E004F0D3940940037401F0907E
:10229D0002A7E0640960030223539002AEF090029E
:1022AD00ACF09002AAF09002A9F0229002A7E07083
:1022BD00030223539002B5E004F0D39403500302BC
:1022CD002353E4F02290020AE0607B64026077748D
:1022DD0002F02290020AE06402706B782A760522E1
:1022ED009002BBE06432705E90020BF090024EF0F3
:1022FD00D20490020A04F0783A76057BFF7A36799B
:10230D00DC1236697F0A023C8F9002BBE0643270AA
:10231D0035D20A90020BF090024EF0783A76057B9A
:10232D00FF7A3679F1801C9002BBE0B41918D20007
:10233D00E490020BF090024EF0783A76037BFF7A30
:07234D003779011236692205
:1030BC009002B4E014F070035398F79002B3E0144C
:1030CC00F070035398EF9002B2E014F07003539831
:1030DC00DF9002AFE014F0600302318C9002B5E097
:1030EC00FF700A9002B4F09002B3F0805AEFB40172
:1030FC00229002ACE01313543F9002B4F09002AA59
:10310C00E01313543F9002B3F09002A9E013135450
:10311C003F80349002B5E09002ACB40219E0C313C6
:10312C009002B4F09002AAE0C3139002B3F09002A4
:10313C00A9E0C3138011E09002B4F09002AAE090D1
:10314C0002B3F09002A9E09002B2F090020AE0B44F
:10315C00020AE58830E10543881080035388EF901C
:10316C0002B4E060034398089002B3E06003439814
:10317C00109002B2E060034398209002A47401F016
:01318C002220
:103DDE009002ACEFF09002AAEDF09002A9EBF02267
:101E2F009002ADE004F0C3940450030220FCE49050
:101E3F0002ADF0A3E0FF705A9002ACE0C394FF50E4
:101E4F0003E004F09002AAE0D394004003E014F002
:101E5F009002A9E0D394004003E014F09002ACE0AC
:101E6F00F460030220FC9002AAE060030220FC90C1
:101E7F0002A9E060030220FC9002B075F001122667
:101E8F008BFCD3E5F0941EEC940050030220FC026F
:101E9F002096EF640170749002ACE0C394FF50037E
:101EAF00E004F09002ACE0D394FF4003E014F09014
:101EBF0002AAE0C394805003E004F09002AAE0D39A
:101ECF0094804003E014F09002A9E0D39400400303
:101EDF00E014F09002ACE0F460030220FC9002AA40
:101EEF00E0648060030220FC9002A9E060030220FE
:101EFF00FC9002B075F00112268BFED3E5F0941E14
:101F0F00EE940050030220FC0220969002AEE0FFF8
:101F1F006402705B9002ACE0C394FF5003E004F0E6
:101F2F009002AAE0C394FF5003E004F09002A9E0EE
:101F3F00D394004003E014F09002ACE0F46003028D
:101F4F0020FC9002AAE0F460030220FC9002A9E0BA
:101F5F0060030220FC9002B075F00112268BFCD3B7
:101F6F00E5F0941EEC940050030220FC022096EF43
:101F7F006403705A9002ACE0D394004003E014F075
:101F8F009002AAE0C394FF5003E004F09002A9E08E
:101F9F00D394004003E014F09002ACE06003022001
:101FAF00FC9002AAE0F460030220FC9002A9E0601A
:101FBF00030220FC9002B075F00112268BFED3E5D0
:101FCF00F0941EEE940050030220FC022096900223
:101FDF00AEE0FF640470599002ACE0D3940040036C
:101FEF00E014F09002AAE0D394004003E014F090C4
:101FFF0002A9E0C394FF5003E004F09002ACE0604C
:10200F00030220FC9002AAE060030220FC9002A9C8
:10201F00E0F460030220FC9002B075F00112268BF1
:10202F00FCD3E5F0941EEC940050030220FC805783
:10203F00EF640570609002ACE0D394004003E014AD
:10204F00F09002AAE0C394FF5003E004F09002A9BD
:10205F00E0C394FF5003E004F09002ACE060030291
:10206F0020FC9002AAE0F460030220FC9002A9E099
:10207F00F4707A9002B075F00112268BFED3E5F062
:10208F00941EEE94004066E49002B0F0A3F090022C
:10209F00AEE004F0229002ACE0C394FF5003E004E2
:1020AF00F09002AAE0D394004003E014F09002A94C
:1020BF00E0C394FF5003E004F09002ACE0B4FF2DB6
:1020CF009002AAE070279002A9E0B4FF209002B01E
:1020DF00E475F00112268BFED3E5F09432EE9400F6
:0E20EF00400BE49002B0F0A3F09002AEF0229D
:102354009002A4E0700302251AE49002A4F0900213
:10236400A7E0FFB4091B7811666016E0F6E490025A
:10237400AEF09002AC747FF0E49002AAF09002A94F
:10238400F090020AE060079002A7E0FE7004E4FB0C
:102394008051EEB401047BFF80219002A7E0FEB4DB
:1023A4000205E4FBFD8016EEB40306E4FB7D8080A9
:1023B4000C9002A7E0FEB40408E4FB7DFF7FFF80DD
:1023C40034EEB40507E4FB7DFFFF80299002A7E00B
:1023D400FEB406087BFF7DFFE4FF8019EEB4070717
:1023E4007BFFE4FDFF800E9002A7E0FEB4080C7BA7
:1023F400FFE4FD7F80123DDE0224F0EE640A6003F8
:102404000224E69002ABE0FFA3F09002A8E0FE9065
:1024140002AAF09002A6E0FD9002A9F0EFB4FF1129
:10242400EEB4FF0DEDB4FF099002A77401F002248D
:10243400F09002ABE0B4FF139002A8E0700D90029C
:10244400A6E07007A37402F00224F09002ABE0FF50
:10245400B4FF149002A8E0B4800D9002A6E07007C7
:10246400A37403F00224F0EFB4FF139002A8E0B4C5
:10247400FF0C9002A6E07006A37404F0806E900234
:10248400ABE070139002A8E0B4FF0C9002A6E070D9
:1024940006A37405F080559002ABE0FF701490021F
:1024A400A8E0B4FF0D9002A6E0B4FF06A37406F002
:1024B400803AEF70139002A8E0700D9002A6E0B489
:1024C400FF06A37407F080249002ABE0B4801D9053
:1024D40002A8E070179002A6E0B4FF10A37408F0FD
:1024E400800A9002A7E0B40903121E2F9002A7E00D
:1024F400FF701AEFB40A169002ACE09002ABF090B1
:1025040002AAE09002A8F0A3E09002A6F09002A72D
:07251400E060037811F622DC
:0B3E5900000102030507090A0C0E0F10
:0E3E0C00EF903E5993FFC374169FFF023D4393
:103D4300201815D218EF14782DF6E4782FF6783270
:093D5300F653887F782C76C82213
:10325600201803023307783206E6C3782C9650030B
:10326600023307E47832F6782FE6B41300400302FF
:1032760032FF90327FF82828730232B80232C10238
:1032860032CA0232DE0232CA0232DE0232CA0232E8
:10329600DE0232CA0232DE0232CA0232DE0232CA2C
:1032A6000232DE0232CA0232DE0232CA0232DE02E4
:1032B60032F9438880782C76A0804353887F782C17
:1032C6007614803A438880782DE630E70518761E16
:1032D600802C782C760A802653887F782DE6FF305E
:1032E600E70518760A8004782C761EEF25E0782DFF
:1032F600F6800B782C76C8800553887FC218782F05
:0233060006229D
:1026DD0090020AE064036003022845201915783141
:1026ED00F69002C5E0F47833F67812E6F4782EF61B
:1026FD00E4A3F0D2199002C6E014602114603514E1
:10270D006047240370465390EF783106E6D3941951
:10271D0050030228915390FD4390408012123D5C6E
:10272D00439802783106E6D394325003022891E49F
:10273D00F602288B783106E6D394C850030228910F
:10274D009002C6E004F0E4F62202288B7830E6FF12
:10275D006039301803022891B417097BFF7A1C7970
:10276D00951236697830E6B418159002C5E075F00B
:10277D0018A42495F9741C35F0FA7BFF123669788C
:10278D0030E6FF123D43E47830F6229002C5E07842
:10279D0033666048301803022891E0FFF6EF6003BE
:1027AD00B4170ED21A783376177BFF7A1C79958081
:1027BD00199002C5E0FFD394065012EF75F018A4DE
:1027CD002495F9741C35F0FA7BFF1236697833E6DF
:1027DD00FF123D439002C5E07833F6227912E77877
:1027ED002E6660103018030228917812E6FF782EBD
:1027FD00F6023E0CA201300701B35029783AE6707B
:10280D0024A20192073001087BFF7A1C7995801272
:10281D009002C5E075F018A42495F9741C35F0FAF2
:10282D007BFF023669201A082001057812E6700434
:10283D005390EF2243901022301905E49002C6F018
:10284D00C2199002C6E014601214601F14602C248B
:10285D000370312016035390EF8023783106E6D3B1
:10286D0094144020E4F64398028013783AE67014ED
:10287D007BFF7A1C7995123669800320160690022B
:05288D00C6E004F0228A
:103D8C00757064617465206661696C00757064613E
:063D9C007465206F6B004E
:0C3E4D0053E13F8FE5E5E154C060FA222C
:103AEA0090029BEBF0A3EAF0A3E9F0801690029B08
:103AFA00E0FBA3E0FAA3E0F91226116020E5E15405
:103B0A00C060EA53E13F90029BE0FBA3E475F00139
:0E3B1A001226A1A9F0FA122611F5E580D0229C
:1016EE0053ABFB53A8E753A9E753AAEFE47817F6D9
:1016FE00781AF608F67815F608F6900296F0A3F02A
:10170E00A3F09002C77400F0A37468F0E490029204
:10171E00F0A3F0900292E0FEA3E0FFC3942DEE94AE
:10172E000150209002C7E0FCA3E02FF582EC3EF5BD
:10173E0083E4F0900293E004F070D8900292E004FB
:10174E00F080D07F43123E4D7817E6B40800400378
:10175E00021AAB901768F828287302178002180532
:10176E000218A20219280219B9021A1A021A5802EC
:10177E001A5DE5E130E5349002C7E0FEA3E0F582A4
:10178E008E83C083C082781A0806E618860670011A
:10179E000614D082D0832582F582E5833EF583E55B
:1017AE00E5F0E4900296F0A3F0A3F09002C7E0FEFD
:1017BE00A3E0F5828E83E0B46E25781DE6184660B0
:1017CE000E7BFF7A3D798C123AEAE47817F6227B8B
:1017DE00FF7A3D7998123AEA78177606021AAF78B0
:1017EE001BE66407700418E664016003021AAF7802
:1017FE001AF608F6021A58E4781AF608F69002C796
:10180E00E0FEA3E0F5828E83E0F9A3E0FE9002C72E
:10181E00E0FCA3E0F5828C83A3A3E0FDAC0690026E
:10182E00C7E0FAA3E0FBF5828A83A3A3A3E0FEEB55
:10183E002404F582E43AF583E0FBEBFFE9B4020EF3
:10184E00EFF4FFEEF4FEEF6D7002EE6C6003021922
:10185E00207815E6FE08E6FFC3ED9FFFEC9EFEEF37
:10186E0064014E6004EF4E7025AE04AF057815A6E8
:10187E000608A607E6FEE42400FFEE3440FE9002C2
:10188E0099F0A3EFF0D394FFEE947F400422021957
:10189E0020021A58E4900294F0A3F0FFFE900292F8
:1018AE00F0A3F0900292E0FCA3E0FDC3EC94015093
:1018BE0034ED2405FDE43CFC9002C7E0FAA3E02DD4
:1018CE00F582EA3CF583E0FD900295E02DF0900262
:1018DE0094E03400F0900293E004F070C69002920F
:1018EE00E004F080BE9002C7E0FCA3E0FD2405F505
:1018FE0082EC3401F583E0FEED2406F582EC340132
:10190E00F583E0FDEDFF900294E06E7003A3E06FAF
:10191E0060057F15021A53021A58900299E0FEA331
:10192E00E0FF9002C8E02405FD9002C7E03400FA03
:10193E00A9057B0112344E90029AE02440FF9002DA
:10194E0099E03400FE9002C8E02445FD9002C7E005
:10195E003400FAA9057B0112344E90029AE02480DD
:10196E00FF900299E03400FE9002C8E02485FD90BD
:10197E0002C7E03400FAA9057B0112344E90029A98
:10198E00E024C0FF900299E03400FE9002C8E024EB
:10199E00C5FD9002C7E03400FAA9057B0112344E52
:1019AE00781DE61618700116021A58E4900292F08D
:1019BE00A3F0900292E0FEA3E0FFC3EE9401504A22
:1019CE0090029AE02FFF900299E03EFE123E7D902B
:1019DE000293E02405FD900292E03400FC9002C7D1
:1019EE00E0FAA3E02DF582EA3CF583E06F600B7F11
:1019FE0015123E4DE47817F68010900293E004F035
:101A0E0070B0900292E004F080A8803EE4900292C2
:101A1E00F0A3F0900292E0FEA3E0FFC3942DEE94AB
:101A2E000150209002C7E0FCA3E02FF582EC3EF5BA
:101A3E0083E4F0900293E004F070D8900292E004F8
:101A4E00F080D07F96123E4D80537817068052E478
:101A5E00900292F0A3F0900292E0FEA3E0FFC394F6
:101A6E0040EE940050219002C7E0FCA3E02FF582D7
:101A7E00EC3EF58374AAF0900293E004F070D790D8
:101A8E000292E004F080CF9002C7E0FEA3E0AA0627
:101A9E00F97B017F007E0412344E020000E47817B9
:101AAE00F6123E92900296E004F06003021756A3DF
:101ABE00E004F06003021756A3E004F0C394025052
:0A1ACE00030217561200000217561B
:101AD8007B416C61726D536574007B416C61726D02
:101AE8004F6E4F6666007B54696D6553796E63006F
:101AF8005475726E206F6E20756E6974005475721D
:101B08006E206F666620756E697400477053746145
:101B18003A5B30315D0D0A005475726E206F6E208D
:101B28004254006D7573696320706C6179006D753E
:101B38007369632070617573650053656C656374C0
:101B480020536F756E642066696C65007B4D7573F4
:101B580069635374617475730041646A75737420A2
:101B68004F757470757420566F6C756D6500766F5F
:101B78006C756D6520757000766F6C756D65206489
:101B88006F776E006D75736963206D757465006D90
:101B98007573696320756E6D75746500536574207F
:101BA80054696D6572005475726E206F66662054B4
:101BB800696D6572005475726E206F6E204C69678E
:101BC800687472005475726E206F6666204C69677F
:101BD800687472006C69676874207570006C696756
:101BE800687420646F776E004368616E6765206C67
:101BF8006967687420636F6C6F720041646A7573FB
:101C080074204C69676874204272696768746E65ED
:101C18007373005573657220636F6C6F72007B502D
:101C2800726F6772616D0050726F506C61790D0A46
:101C3800007B416C614770537461007B4E6F724743
:101C48007053746100207570646174650041545765
:101C5800510D0A005645520D0A00242424564552B7
:101C6800302E33390D0A00456E7465722054657341
:101C7800744D6F64653A0047705374613A5B303055
:101C88005D0D0A000101020408102040802424246C
:101C98007B4D757369635374617475733A5B303740
:101CA8005D7D0D0A002424247B4D7573696353748C
:101CB800617475733A5B30315D7D0D0A002424240C
:101CC8007B4D757369635374617475733A5B303215
:101CD8005D7D0D0A002424247B4D7573696353745C
:101CE800617475733A5B30335D7D0D0A00242424DA
:101CF8007B4D757369635374617475733A5B3034E3
:101D08005D7D0D0A002424247B4D7573696353742B
:101D1800617475733A5B30355D7D0D0A00242424A7
:101D28007B4D757369635374617475733A5B3036B0
:101D38005D7D0D0A002424247B47705374613A5B4F
:101D480030302C30302C30302C30302C303030309B
:101D580030302C30302C30302C30302C30303B3080
:101D6800302C30302C30302C3030303030302C307B
:101D7800302C30302C30302C30302C30303A303061
:101D88002C30305D7D0D0A002424247B416C614792
:101D9800705374613A5B30302C30302C30302C303A
:101DA800302C3030303030302C30302C30302C303B
:101DB800302C30302C30302C30303A30302C303021
:101DC8005D7D0D0A002424247B4E6F724770537486
:101DD800613A5B30302C30302C30302C30302C30A5
:101DE80030303030302C30302C30302C30302C30FB
:101DF800305D7D0D0A002424247B4E6F724770539A
:101E080074613A5B30302C30302C30302C30302C30
:101E18003030303030302C30302C30302C30302CCA
:071E280030305D7D0D0A0062
:10373A0090029574FFF0A3741BF07413A3F0900227
:09374A008FE0FBA3E0FAA3E0F913
:10375300900292EBF0A3EAF0A3E9F0900295E0FB6C
:10376300A3E0FAA3E0F9122611FF602F900292E082
:10377300FBA3E0FAA3E0F9122611B507056003EFF6
:1037830070037F0122900293E475F00112268B905F
:0E3793000296E475F00112268B80C07F0022A2
:102FDB009002A7EFF0900251F090028FE0FBA3E07C
:102FEB00FAA3E0F990001612262AFF90001712267A
:102FFB002AFD1230919002ABEFF0900252F090024A
:10300B008FE0FBA3E0FAA3E0F990001812262AFF49
:10301B0090001912262AFD1230919002A8EFF09021
:10302B000253F090028FE0FBA3E0FAA3E0F99000CB
:10303B001A12262AFF90001B12262AFD123091909D
:10304B0002A6EFF0900254F090028FE0FBA3E0FA9F
:10305B00A3E0F990001D12262AFF90001E12262ACB
:10306B00FD123C089002B5EFF0900255F090028FE4
:10307B00E0FBA3E0FAA3E0F990002012262A9000CF
:06308B0021FF12262AFDC0
:10309100C3EF648094C14006EF24C9FF800474D05B
:1030A1002FFFC3ED648094C14006ED24C9FD800467
:0B30B10074D02DFDEFC454F04DFF2241
:053C0300FF12262AFD5E
:103C0800C3EF648094C14006EF24C9FF800474D0D8
:103C18002FFFC3ED648094C14006ED24C9FD8004E4
:0C3C280074D02DFDEF75F00AA42DFF22D2
:1034E20012354290028BE0FBA3E0FAA3E0241AF922
:1034F200E43AFA9002ABE0FD12354290028BE0FB17
:10350200A3E0FAA3E0241CF9E43AFA9002A8E0FD51
:1035120012354290028BE0FBA3E0FAA3E0241EF9ED
:10352200E43AFA9002A6E0FD12354290028BE0FBEB
:10353200A3E0FAA3E09002B52421F9E43AFAE0FD0F
:10354200EDC4540FFFC3940AEF40042437800224D1
:1035520030122657740129F9E43AFAED540FFFC3E9
:0E356200940AEF4004243780022430122657CA
:013570002238
:103B9A0090020A7401F0780DE6B403047F038002F0
:103BAA007F0190020AEFF07809E67812F67811E6BA
:103BBA009002A7F0EF70047F0180027F0012289222
:053BCA00783A760322A9
:103D080090020A7401F07809E67812F674017004DA
:0E3D18007F0180027F00122892783A76032203
:103C340090020AE0780DF6E4F07812E67809F6903E
:103C440002A7E07811F6E4F0780CF69001FAF0702F
:0F3C5400047F0180027F00122892783A760322C3
:103C6300E4900208F09002B7F0123C34783A7605FB
:103C730090020AE070047F0180027F00122892E420
:0C3C8300900209F0780CF69001FAF02293
:05289200900292EFF03E
:10289700123E927834E670F87838F67F64900195A6
:1028A700E4F0A3DFFCE4FFEFFD3395E0FC743D2D7E
:1028B700F582741D3CF583E493FE74952DF58274BF
:1028C700013CF583EEF00FEFB452DC7B017A01791E
:1028D700A0900292E0FD1235427A0179A390020A94
:1028E700E0B403089002C5E0FFFD80027D071235C2
:1028F700427B017A0179A69002A7E07003FD80026E
:102907007D011235427B017A0179A99002A7E0B4D3
:1029170009047D0180027D001235427B017A01792D
:10292700AC9002ABE0FD1235427A0179AE9002A875
:10293700E0FD1235427A0179B09002A6E0FD12352A
:10294700427A0179B39002B5E0FD1235427A0179F6
:10295700B67812E6FD1235427A0179B9A21AE43344
:10296700FD1235427A0179BC780CE6FD1235427AC0
:102977000179BFE4FD1235427A0179C2900202E083
:10298700FD1235427A0179C5900205E0B409047D4C
:102997000180027D001235427B017A0179C89001DE
:1029A700FFE0FD1235427A0179CA900200E0FD127C
:1029B70035427A0179CC900201E0FD1235427A0165
:1029C70079CF900206E0FD1235427A0179D2900262
:1029D70003E0FD1235427A0179D59001FBE0FD1243
:1029E70035427A0179D89001FCE0FD1235427A012F
:1029F70079DB9001FDE0FD1235427A0179DE900125
:102A0700FEE0FD1235427A0179E1900207E0FD12FE
:102A17003542783A7602E47839F6783476017837B1
:102A2700760A7839E6062495F582E43401F583E0E1
:022A3700F5E5C3
:012A3900227A
:0B05290090028BEBF0A3EAF0A3E9F0D6
:100534002403F9E43AFA90028FEBF0A3EAF0A3E97A
:10054400F090029574FFF0A3741AF0A374D8F0121B
:100554003753EF600302071390028FE0FBA3E0FA26
:10056400A3E0F990000F12262A24D0900202F0C3CF
:1005740094074002E4F090001212262AFF24D0903F
:100584000205F0EFB4311190001512262AB431049B
:100594007F0980067F0A80027F00900205EFF090B9
:1005A400028FE0FBA3E0FAA3E0F990001712262AD9
:1005B40090001812308C9001FFEFF090028FE0FB56
:1005C400A3E0FAA3E0F990001912262AFF90001A7A
:1005D40012308D900200EFF090028FE0FBA3E0FA5E
:1005E400A3E0F990001B12262AFF90001C12308D04
:1005F400900201EFF090028FE0FBA3E0FAA3E0F990
:1006040090001F12262A24D0900206F09000211296
:10061400262AFF90002212308D900203EFF0900200
:100624008FE0FBA3E0FAA3E0F990002512262A2428
:10063400D0900204F090002812262A24D09001FBC6
:10064400F090002A12262AFF90002B12308D900180
:10065400FCEFF090028FE0FBA3E0FAA3E0F9900036
:100664002D12262AFF90002E12308D9001FDEFF0FE
:1006740090028FE0FBA3E0FAA3E0F9900030122689
:100684002AFF90003112308D9001FEEFF090028F1E
:10069400E0FBA3E0FAA3E0F990003312262AFF90CE
:1006A400003412308D900207EFF090028FE0FBA32C
:1006B400E0FAA3E0F990003612262AFF90003712E0
:1006C400308D780FA60790028FE0FBA3E0FAA3E039
:1006D400F990003912262AFF90003A12308D780AD8
:1006E400A60790028FE0FBA3E0FAA3E0F990003C98
:1006F40012262AFF90003D12308D780EA607900234
:100704008FE0FBA3E0FAA3E0F9900049020793907D
:10071400029574FFF0A3741AF074E2123746EF7076
:100724007C90028FE0FBA3E0FAA3E0F990001112A1
:10073400262A24D09001FBF090001312262AFF9061
:10074400001412308D780FA60790028FE0FBA3E00F
:10075400FAA3E0F990001612262AFF90001712302F
:100764008D780AA60790028FE0FBA3E0FAA3E0F9D4
:1007740090001912262AFF90001A12308D780EA6C6
:100784000790028FE0FBA3E0FAA3E0F990002612A1
:10079400262A24D0780BF6E6901C8C93F690020A55
:1007A400E0700302120F90029574FFF0A3741AF024
:1007B400A374EE123747EF707690028FE0FBA3E04C
:1007C400FAA3E0F990000B12262AFF90000C1230D5
:1007D4008D780FA60790028FE0FBA3E0FAA3E0F95F
:1007E40090000E12262AFF90000F12308D780AA670
:1007F4000790028FE0FBA3E0FAA3E0F99000111246
:10080400262AFF90001212308D780EA60790028FD0
:10081400E0FBA3E0FAA3E0F990001E12262A24D0FC
:10082400780BF6E6901C8C93F6E490024FF022903D
:10083400029574FFF0A3741AF0A374F8123747EF0B
:10084400700C90020AE06003020BE8021239900275
:100854009574FFF0A3741BF0A37405123747EF706F
:100864001E90028BE0FBA3E0FAA3E0F91236699034
:100874000208E06003020BC8783A7603023C3412A3
:10088400373AEF700302159112373AEF7001229054
:10089400029574FFF0A3741BF0A37420123747EF82
:1008A400700990020A7402F0020BE890029574FF3A
:1008B400F0A3741BF0A3742B123747EF7017900248
:1008C4000A7403F0C201C21AF09002C5E070030476
:1008D400F0220213FC90029574FFF0A3741BF0A3A2
:1008E4007436123747EF701290020AE06403600313
:1008F4000216EDD21A783076172290029574FFF022
:10090400A3741BF0A37442123747EF70409002089F
:10091400E0600BE4F0A3F0780CF69001FAF0C20169
:10092400C21A90020A7403F090028FE0FBA3E0FA6B
:10093400A3E0F990001A12262A24D0FF9002C5F0F1
:100944007833E6B50704783076180213AC90029534
:1009540074FFF0A3741BF0A37454123747EF7001B3
:100964002290029574FFF0A3741BF0A374611237F4
:1009740047EF7023900208E06003020BC890028FD7
:10098400E0FBA3E0FAA3E0F990001412262A9000F9
:1009940015123C03020A1190029574FFF0A3741B14
:1009A400F0A37476123747EF7029900208E06003D1
:1009B400020BC87812E6FFC3940A5013EF94085050
:1009C40007E62402FFF68009781206E6FF80027F1C
:1009D4000A803A90029574FFF0A3741BF0A374800C
:1009E400123747EF7030900208E06003020BC878BA
:1009F40012E6FFD394014013EF94034007E624FE6C
:100A0400FFF68009781216E6FF80027F017812A6AD
:100A140007C201020BE890029574FFF0A3741BF067
:100A2400A3748C123747EF7003D20122900295749D
:100A3400FFF0A3741BF0A37497123747EF7003C23F
:100A4400012290029574FFF0A3741BF0A374A41206
:100A54003747EF7025900208E06003020BC890024C
:100A64008FE0FBA3E0FAA3E0F990000A12262A9093
:100A7400000B123C03780CEF801F90029574FFF07A
:100A8400A3741BF0A374AE123747EF7014900208DE
:100A9400E06003020BC8E4780CF69001FAF0020B54
:100AA400E890029574FFF0A3741BF0A374BD123791
:100AB40047EF702D900208E0600BE4F0A3F0780C8F
:100AC400F69001FAF07811E69002A7F0700204F0B3
:100AD4009002B5E0FF70077E017F01020BE3020B79
:100AE400E390029574FFF0A3741BF0A374CC123747
:100AF40047EF7011900208E06003020BC8E4900213
:100B0400A7F0020BE890029574FFF0A3741BF0A306
:100B140074DC123747EF701B900208E06003020B8D
:100B2400C89002B5E0C394034003020BE8E004F06C
:100B3400020BE890029574FFF0A3741BF0A374E514
:100B4400123747EF701B900208E06003020BC89055
:100B540002B5E0D394005003020BE8E014F0020B5A
:100B6400E890029574FFF0A3741BF0A374F012379D
:100B740047EF7037900208E0600BE4F0A3F0780CC4
:100B8400F69001FAF09002A77409F0E49002AEF036
:100B94009002ACF09002AAF09002A9F09002B5E0A5
:100BA400FF70067E017F018000803490029574FFFF
:100BB400F0A3741CF0A37403123747EF702690025D
:100BC40008E06003023C6390028FE0FBA3E0FAA319
:100BD400E0F990001812262AFF900019123C0490A4
:100BE40002B5EFF090029574FFF0A3741CF0A374A7
:100BF4001B123747EF6003020C81900208E0600B80
:100C0400E4F0A3F0780CF69001FAF090028FE0FB88
:100C1400A3E0FAA3E0F990000B12262AFF90000C3F
:100C240012308D9002ABEFF090028FE0FBA3E0FA5C
:100C3400A3E0F990000D12262AFF90000E12308DC9
:100C44009002A8EFF090028FE0FBA3E0FAA3E0F992
:100C540090000F12262AFF90001012308D9002A6E9
:100C6400EFF09002A7740AF09002B5E0FF70067EE0
:100C7400017F0180009002B5EFF00216DF9002952B
:100C840074FFF0A3741CF0A37426123747EF6003BB
:100C9400020D6B900208E0600BE4F0A3F0780CF610
:100CA4009001FAF0123CE290028FE0FBA3E0FAA379
:100CB400E0F990000E12262A24D09002C5F090028A
:100CC40050F090001112262AFFB431047E018002F4
:100CD4007E009002A7EEF0900251F0EFB4311C9028
:100CE400028FE0FBA3E0FAA3E0F990001412262A95
:100CF400B431047F0980067F0A80027F00122FDB53
:100D04007812EFF6900256F090020A7403F0900203
:100D140057F090028FE0FBA3E0FAA3E0F9900024DF
:100D240012262A24D024FF921AE433900258F02089
:100D34001A03C38001D39201E433900259F0201ABC
:100D4400047F1880027F177830A6079000261226A9
:100D54002AFF90002712308D780CEFF69001FAF0FC
:100D640090025AF00216DF90029574FFF0A3741CEF
:100D7400F0A3742F123747EF7077900208E0600BEE
:100D8400E4F0A3F0780CF69001FAF0900250E090B1
:100D940002C5F0900251E09002A7F0900252E09058
:100DA40002ABF0900253E09002A8F0900254E0905D
:100DB40002A6F0900255E09002B5F0900256E07859
:100DC40012F6A3E090020AF0900258E024FF921A6F
:100DD400201A03C38001D39201201A047F188002D1
:100DE4007F177830A60790025AE09001FAF00216B5
:100DF400DF90029574FFF0A3741CF0A374391237CA
:070E040047EF6003020FD36A
:100E0B0090028EF090028EE0FFC39464501C90020F
:100E1B008BE0FBA3E0FAA3E0F98F82758300E41269
:100E2B00266990028EE004F080DAE490028EF09056
:100E3B00028EE0FF901D9093FE90028BE0FBA3E0EF
:100E4B00FAA3E0F98F82758300EE12266990028E69
:100E5B00E004F0E0B43ED890028BE0FBA3E0FAA3F1
:100E6B00E0240EF9E43AFAE4FD12354290028BE0ED
:100E7B00FBA3E0FAA3E02411F9E43AFA900202E0B2
:100E8B00FF6003FD80027D0712354290028BE0FB71
:100E9B00A3E0FAA3E02414F9E43AFA900205E07017
:100EAB0003FD80027D0112354290028BE0FBA3E033
:100EBB00FAA3E02417F9E43AFA900205E0B4090426
:100ECB007D0180027D0012354290028BE0FBA3E096
:100EDB00FAA3E0241AF9E43AFA9001FFE0FD123587
:100EEB004290028BE0FBA3E0FAA3E0241CF9E43A66
:100EFB00FA900200E0FD12354290028BE0FBA3E07A
:100F0B00FAA3E0241EF9E43AFA900201E0FD12354F
:100F1B004290028BE0FBA3E0FAA3E09002061235AD
:100F2B003A90028BE0FBA3E0FAA3E02424F9E43A25
:100F3B00FA900203E0FD12354290028BE0FBA3E036
:100F4B00FAA3E02427F9E43AFA900204E0FD123503
:100F5B004290028BE0FBA3E0FAA3E0242AF9E43AE7
:100F6B00FA9001FBE0FD12354290028BE0FBA3E00F
:100F7B00FAA3E0242DF9E43AFA9001FCE0FD1235D6
:100F8B004290028BE0FBA3E0FAA3E02430F9E43AB1
:100F9B00FA9001FDE0FD12354290028BE0FBA3E0DD
:100FAB00FAA3E02433F9E43AFA9001FEE0FD12359E
:100FBB004290028BE0FBA3E0FAA3E02436F9E43A7B
:050FCB00FA900207E0AE
:100FD0000210F990029574FFF0A3741CF0A37443FF
:090FE000123747EF60030211040F
:100FE90090028EF090028EE0FFC39464501C900230
:100FF9008BE0FBA3E0FAA3E0F98F82758300E4128A
:10100900266990028EE004F080DAE490028EF09076
:10101900028EE0FF901DCD93FE90028BE0FBA3E0D2
:10102900FAA3E0F98F82758300EE12266990028E89
:10103900E004F0E0B430D890028BE0FBA3E0FAA31F
:10104900E0240EF9E43AFA7D0112354290028BE070
:10105900FBA3E0FAA3E02411F9E43AFA90020AE0CA
:10106900B403089002C5E0FFFD80027D07123542F6
:1010790090028BE0FBA3E0FAA3E02414F9E43AFA26
:101089009002A7E07003FD80027D011235429002B3
:101099008BE0FBA3E0FAA3E02417F9E43AFA900203
:1010A900A7E0B409047D0080027D011234E29002B8
:1010B9008BE0FBA3E0FAA3E02424F9E43AFA7812DE
:1010C900E6FD12354290028BE0FBA3E0FAA3E0248F
:1010D90027F9E43AFAA21AE433FD12354290028B59
:1010E900E0FBA3E0FAA3E0242AF9E43AFA780CE653
:0810F900FD123542783A76023F
:101101000216DF90029574FFF0A3741CF0A3744DD6
:10111100123747EF60030211B690028FE0FBA3E0A4
:10112100FAA3E0F990000A12262AFF90000B123070
:101131008DEF7F00FEC007C00690028FE0FBA3E0A9
:10114100FAA3E0F990000C12262AFF90000D12304C
:101151008DEFFD3395E0FCD0E04CFED0E04D7818EA
:10116100A60608F690028FE0FBA3E0FAA3E0F9904F
:10117100001112262AFF90001212308DEF7F00FE1F
:10118100C007C00690028FE0FBA3E0FAA3E0F9904C
:10119100001312262AFF90001412308DEFFD3395B3
:1011A100E0FCD0E04CFED0E04D781CA60608F6121B
:1011B10016EE0216DF90029574FFF0A3741CF0A3E3
:1011C1007455123747EF700302159190029574FF21
:1011D100F0A3741CF0A3745C123747EF700302157F
:1011E100A890029574FFF0A3741CF0A3746F1237DA
:1011F10047EF60030216DF783AF690020BF0900297
:101201004EF0D20490020A04F07F0A023C8F900251
:101211009574FFF0A3741AF0A374F8123747EF70B6
:101221001E90028BE0FBA3E0FAA3E0F9123669906D
:10123100020AE060030216DF783A7603023B9A90D5
:10124100029574FFF0A3741BF0A374BD123747EF2E
:10125100702B90028BE0FBA3E0FAA3E0F912366950
:10126100123D087811E69002A7F0700204F0900296
:10127100B5E0FF70057F01021356021356900295E7
:1012810074FFF0A3741BF0A374F0123747EF7036AC
:1012910090028BE0FBA3E0FAA3E0F9123669123D5C
:1012A100089002A77409F0E49002AEF09002ACF04D
:1012B1009002AAF09002A9F09002B5E0FF70047FBD
:1012C10001800002135690029574FFF0A3741CF084
:1012D100A3741B123747EF600302135C90028BE08B
:1012E100FBA3E0FAA3E0F9123669123D0890028FE0
:1012F100E0FBA3E0FAA3E0F990000B12262AFF908D
:10130100000C12308D9002ABEFF090028FE0FBA346
:10131100E0FAA3E0F990000D12262AFF90000E12C8
:10132100308D9002A8EFF090028FE0FBA3E0FAA3CA
:10133100E0F990000F12262AFF90001012308D90D4
:1013410002A6EFF09002A7740AF09002B5E0FF70D8
:10135100047F0180009002B5EFF02290029574FFA6
:10136100F0A3741BF0A37442123747EF705690023A
:101371008BE0FBA3E0FAA3E0F9123669123D08C243
:1013810001C21A90020A7403F090028FE0FBA3E0FD
:10139100FAA3E0F990001A12262A24D0FF9002C580
:1013A100F07833E6B5070478307618783A7601900C
:1013B10002C5E075F018A42495F9741C35F0FA7B88
:1013C100FF0216EA90029574FFF0A3741BF0A37458
:1013D1002B123747EF702990028BE0FBA3E0FAA3B1
:1013E100E0F9123669123D0890020A7403F0C20155
:1013F100C21A9002C5E0700304F0227830761822F8
:1014010090029574FFF0A3741CF0A3742F12374758
:10141100EF707B90028BE0FBA3E0FAA3E0F91236B8
:1014210069123D08900250E09002C5F0900251E02F
:101431009002A7F0900252E09002ABF0900253E0CC
:101441009002A8F0900254E09002A6F0900255E0BC
:101451009002B5F0900256E07812F6A3E090020AED
:10146100F0900258E024FF921A201A03C38001D39E
:101471009201E433900259F0201A047F1880027F10
:10148100177830A60790025AE09001FAF0229002F4
:101491009574FFF0A3741CF0A37426123747EF6014
:1014A1000302157790028BE0FBA3E0FAA3E0F912A7
:1014B1003669123D08123CE290028FE0FBA3E0FA8C
:1014C100A3E0F990000E12262A24D09002C5F090D4
:1014D1000250F090001112262AFFB431047E0180DF
:1014E100027E009002A7EEF0900251F0EFB4311CA1
:1014F10090028FE0FBA3E0FAA3E0F990001412261A
:101501002AB431047F0980067F0A80027F00122FEE
:10151100DB7812EFF6900256F090020A7403F09015
:101521000257F090028FE0FBA3E0FAA3E0F99000EC
:101531002412262A24D024FF921AE433900258F070
:10154100201A03C38001D39201E433900259F020A1
:101551001A047F1880027F177830A60790002612A0
:10156100262AFF90002712308D780CEFF69001FAB1
:10157100F090025AF02212373AEF70012290029550
:1015810074FFF0A3741CF0A3747F123747EF70044B
:10159100783AF62290029574FFF0A3741CF0A374BC
:1015A1005C123747EF70097BFF7A1C79620216EAF9
:1015B10090029574FFF0A3741CF0A3744312374793
:0615C100EF60030216DFDB
:1015C70090028EF090028EE0FFC39464501C90024C
:1015D7008BE0FBA3E0FAA3E0F98F82758300E412A6
:1015E700266990028EE004F080DAE490028EF09093
:1015F700028EE0FF901DFE93FE90028BE0FBA3E0BE
:10160700FAA3E0F98F82758300EE12266990028EA5
:10161700E004F0E0B430D890028BE0FBA3E0FAA33B
:10162700E0240EF9E43AFAE4FD12354290028BE029
:10163700FBA3E0FAA3E02411F9E43AFA90020AE0E6
:10164700B403089002C5E0FFFD80027D0712354212
:1016570090028BE0FBA3E0FAA3E02414F9E43AFA42
:101667009002A7E07003FD80027D011235429002CF
:101677008BE0FBA3E0FAA3E02417F9E43AFA90021F
:10168700A7E0B409047D0080027D011234E29002D4
:101697008BE0FBA3E0FAA3E02424F9E43AFA7812FA
:1016A700E6FD12354290028BE0FBA3E0FAA3E024AB
:1016B70027F9E43AFAA21AE433FD12354290028B75
:1016C700E0FBA3E0FAA3E0242AF9E43AFA780CE66F
:0816D700FD123542783A76025B
:0E16DF0090028BE0FBA3E0FAA3E0F91236695B
:0116ED0022DA
:103CE20078667C027D017B017A02795B7E007F0B24
:103CF2001225EB785B7C027D017B017A0279507E92
:063D0200007F0B0225EB1F
:0D3E3400E4F5FDF5FEF5FA75FB40F5FC2206
:033E990002000024
:103CBA00E4FE7DA2EF600E74C12EF582E43402F5B3
:103CCA0083EDF0800C74C12EF582E43402F583E4AE
:073CDA00F00D0EEEB404DD55
:013CE10022C0
:083E750075FE010000000022AF
:103B6300AD07AC06E4F5FAECF5FBAF058FFC75FD8C
:103B7300A59002C1E064A27018A3E0B4A313A3E06C
:103B8300B4A40EA3E0B4A50975FE030000000080F1
:073B930003123E99023E34CB
:10390800AD07AC067F007E80123E75E4FBEF2BF519
:1039180082E43EF583E4F00BEBB440F1E4F5FAEC15
:10392800F5FBAF058FFC75FDA59002C1E064A270A0
:1039380018A3E0B4A313A3E0B4A40EA3E0B4A509AC
:0F39480075FE02000000008003123E99023E341B
:0B344E0090029BEBF0A3EAF0A3E9F072
:10345900E490029FF0A37480F0A3E4F0A3EEF0A33C
:10346900EFF053A87F7F01123CBA9002A2E0FEA3BD
:10347900E0FF123908123E75E490029EF090029B1B
:10348900E0FBA3E0FAA3E0F990029FE0FF04F08FCC
:103499008275830012262AFF90029EE0FE9002A008
:1034A900E0FCA3E02EF582E43CF583EFF090029E68
:1034B900E004F0E0B440C69002A2E0FEA3E0FF12EF
:1034C9003B63E4FF123CBA9002A3E02440F090026F
:0834D900A2E03400F043A880DA
:0134E10022C8
:073E7D008F828E83E493FFA6
:013E8400221B
:1001000090028C7400F0A37468F0A37480F0A3E4F0
:10011000F090028BF090028BE0FFC394405016A346
:10012000E0FCA3E02FF582E43CF583E4F090028B41
:10013000E004F080E09002927404F0A3E4F09002F6
:100140008BF090028BE0FFC394405034900292E019
:10015000FCA3E0F5828C83E493FE90028CE0FCA388
:10016000E02FF582E43CF583EEF0900293E004F09A
:100170007006900292E004F090028BE004F080C2DE
:1001800090028CE0FEA3E0FFF5828E83E064AA601B
:100190000302036FA3A3E064AA600302036F90024B
:1001A0008CA3E02404F582E43EF583E064AA6003B6
:1001B00002036FEF2406F582E43EF583E064AA6053
:1001C0000302036F53A87F900290F0A3F0A3744042
:1001D000020368900290E0FEA3E0FDAC06E490020A
:1001E0008BF090028BE0F9C39440400302026D90C3
:1001F0000290E0FEA3E0FFC3EE94004009D3EF9429
:1002000000EE9404400FC3EE94054045D3EF94FFF5
:10021000EE943F503C900292E0FEA3E0F5828E8384
:10022000E493FF90028CE0FAA3E029F582E43AF52A
:1002300083EFF0900293E004F07006900292E004E5
:10024000F0900291E004F0701B900290E004F080C6
:100250001390028BE0FFA3E0FAA3E02FF582E43ACB
:10026000F583E4F090028BE004F00201E275FE01F8
:1002700000000000E490028BF090028BE0FFC3943A
:1002800040501890028EE0FAA3E02FF582E43AF590
:1002900083E4F090028BE004F080DEE4F5FAECF504
:1002A000FB8DFC75FDA50000000075FE020000003E
:1002B00000E4F5FDF5FEF5FA75FB05F5FC75FE01AC
:1002C0000000000090028BF090028BE0F9A3E0FEAA
:1002D000A3E029F582E43EF583E0FF90028EE0FA88
:1002E000A3E029F582E43AF583EFF090028BE00475
:1002F000F0E0B440D3E4F5FAECF5FBAF058FFC7504
:10030000FDA50000000075FE0300000000E4F5FDFF
:10031000F5FEF5FA75FB05F5FC900290E0FEA3E012
:10032000FFC3EE9404400CD3EF9400EE9405500309
:10033000120000900290E0FEA3E0B40014EEB401BD
:10034000109002907405F0A3E4F0A37445F0A3E4C8
:10035000F0900290E0FEA3E0C394FFEE943F5003C0
:100360000201D39002907404F0A3E4F00201D312CE
:05037000050043A88018
:010375002265
:103D2600242424416C61726D2075700D0A002424D0
:0D3D36002454696D652073796E630D0A00D9
:0B366900900292EBF0A3EAF0A3E9F05E
:10367400123E927834E670F87838F67F64900195BB
:10368400E4F0A3DFFCE4FF900292E0FBA3E0FAA3E2
:10369400E0F9122611FE601974952FF582E43401C5
:1036A400F583EEF0900293E475F00112268B0F80FF
:1036B400D6E47839F6783476017837760A7839E6BC
:0D36C400062495F582E43401F583E0F5E578
:0136D10022D6
:1037A100783AE660357838E6C394144029123E929F
:1037B1007834E670F8783A167838F608F678347680
:1037C100017837760A7839E6062495F582E43401E2
:1037D100F583E0F5E5227838062230060EC2067838
:1037E1003A76037BFF7A3D7926800F30050FC205BB
:0E37F100783A76037BFF7A3D793412366922EE
:10357100900002E0FEA3E0FF900000E06E7003A364
:10358100E06F60777836760A900002E0FEA3E0FFF4
:103591002468F58274003EF583E0FD18E62404F505
:1035A10082E43400F583EDF074682FF58274003EF7
:1035B100F583E4F090000275F00112268BFEC3E55D
:1035C100F0942CEE94014007E4900002F0A3F0780F
:1035D10035E6062404F582E43400F583E0640A70DC
:1035E1008F7B017A0079041205297F64900004E43D
:0B35F100F0A3DFFCE47835F602357132
:0135FC0022AC
:1033CE00020500E493A3F8E493A34003F68001F210
:1033DE0008DFF48029E493A3F85407240CC8C33300
:1033EE00C4540F4420C8834004F456800146F6DFCF
:1033FE00E4800B0102040810204080903E96E47E8B
:10340E00019360BCA3FF543F30E509541FFEE493C3
:10341E00A360010ECF54C025E060A840B8E493A38A
:10342E00FAE493A3F8E493A3C8C582C8CAC583CAB5
:10343E00F0A3C8C582C8CAC583CADFE9DEE780BE6D
:013E98000029
:10251B00E709F608DFFA8046E709F208DFFA803EA2
:10252B0088828C83E709F0A3DFFA8032E309F6088F
:10253B00DFFA8078E309F208DFFA807088828C83F7
:10254B00E309F0A3DFFA806489828A83E0A3F608AB
:10255B00DFFA805889828A83E0A3F208DFFA804C85
:10256B0080D280FA80C680D4806980F2803380105C
:10257B0080A680EA809A80A880DA80E280CA8033C5
:10258B0089828A83ECFAE493A3C8C582C8CCC5833D
:10259B00CCF0A3C8C582C8CCC583CCDFE9DEE7800D
:1025AB000D89828A83E493A3F608DFF9ECFAA9F08C
:1025BB00EDFB2289828A83ECFAE0A3C8C582C8CCE2
:1025CB00C583CCF0A3C8C582C8CCC583CCDFEADEFB
:1025DB00E880DB89828A83E493A3F208DFF980CC5D
:1025EB0088F0EF60010E4E60C388F0ED2402B40456
:1025FB000050B9F582EB2402B4040050AF232345FD
:06260B00822390256B7391
:10261100BB010689828A83E0225002E722BBFE02C7
:09262100E32289828A83E49322FA
:10262A00BB010CE58229F582E5833AF583E0225065
:10263A0006E92582F8E622BBFE06E92582F8E222AF
:0D264A00E58229F582E5833AF583E49322C9
:10265700BB010689828A83F0225002F722BBFE0162
:02266700F3225C
:10266900F8BB010DE58229F582E5833AF583E8F0A7
:10267900225006E92582C8F622BBFE05E92582C853
:02268900F2223B
:10268B00C5F0F8A3E028F0C5F0F8E58215827002DA
:06269B001583E038F02277
:1026A100A3F8E0C5F025F0F0E582158270021583EC
:0626B100E0C838F0E82249
:1026B700D083D082F8E4937012740193700DA3A3B2
:1026C70093F8740193F5828883E4737402936860C6
:0626D700EFA3A3A380DFC6
:00000001FF
