:030000000233DCEC
:1033DC0078FFE4F6D8FD9000007F007E03E4F0A3B4
:0A33EC00DFFCDEFA75813A020100F1
:1005000053A87F12378C123CAC123DA2123D8A12C6
:100510003D43123CDA123D03123D5043A880123A8B
:060520001012010080FE34
:03001B0002359912
:0F359900C0E0C083C082C0D075D000C000C007A2
:1035A800AFF553F1DF7825760A300E237827E6C386
:1035B8009408500DE606243FF582E43402F583EFC3
:1035C800F0EF640A702A7827F6D210B20E802178BC
:1035D80027E6C39408500DE6062447F582E4340232
:1035E800F583EFF0EFB40A0878277600D211B20E0F
:0D35F800D007D000D0D0D082D083D0E032F8
:0300230002394A55
:10394A00C0E0C083C082C0D075D000C00053F17FF0
:10395A007824E660247826760A7828E6062437F55D
:10396A0082E43402F583E0F5F5E62437F582E4349F
:10397A0002F583E070037824F6D000D0D0D082D04C
:04398A0083D0E032D4
:03004B0002373148
:10373100C0E0C0F0C083C082C0D075D000C000C05E
:0537410004C006C007F2
:10374600AFE553E1DF900000E0FCA3E02468F582DA
:1037560074003CF583EFF0900000E475F001122749
:10376600C1FEC3E5F0942CEE94014007900000E4FE
:03377600F0A3F0CD
:10377900D007D006D004D000D0D0D082D083D0F0EA
:03378900D0E0325B
:0300530002398EE1
:10398E00C0E0C083C082C0D075D000C00053E17FBC
:10399E007834E660247837760A7839E6062494F58A
:1039AE0082E43401F583E0F5E5E62494F582E4340F
:1039BE0001F583E070037834F6D000D0D0D082D0F9
:0439CE0083D0E03290
:03006B00023A8CCA
:103A8C00C0E0C0F0C083C082C0D075D000C000C000
:103A9C0001C002C003C004C005C006C0071236D462
:103AAC00D007D006D005D004D003D002D001D0006E
:0B3ABC00D0D0D082D083D0F0D0E03218
:030083000239D26D
:1039D200C0E0C0F0C083C082C0D075D000C000C0BB
:1039E20001C002C003C004C005C006C007123106F0
:1039F2001231D7D007D006D005D004D003D002D0E0
:0E3A020001D000D0D0D082D083D0F0D0E032FE
:0300A300023879A7
:10387900C0E0C0D075D000C000C007B20230022D30
:10388900780E06E6D3943B40247600780A06E6D300
:10389900943B40197600780F06E6D39417400E76CC
:1038A90000780BE625E0FFF6BF80027601D007D04D
:0638B90000D0D0D0E03287
:083D8100AF9FEFFEAD9EEDFFC8
:013D89002217
:073DA200759C80759D07224E
:0F3D2600EF540FFFE59C54F04FF59C439C402257
:083D8A00E4F59AF599F59B227E
:0D3D430075B28875B45D43AA0243B2012237
:103CDA00901000748AF0A3744AF043AA109010005E
:053CEA00E04401F0229E
:103D030075DA0275D90643DAECE4F5DB75E30C43A7
:033D1300A91822CA
:103C940020181275EA0275E90643EAECE4F5EB75BF
:083CA400F34D43A818D21822C9
:103CEF0030180EE4F5EAF5E9F5EAF5EBF5F353A82C
:043CFF00E7C21822DE
:0D3D500075968875890175898143AB042241
:103CAC0090103874A8F075C80A758B09E58B30E74D
:083CBC00FB758A0143C80522D3
:10378C0075A17FE4F5ACF591F5DEF58075B1987512
:10379C00AD20F592F5DFF58875B9FFF5AEF593F52B
:1037AC009075C1FEF5AFF59875C9FEF5A3F594F5C6
:1037BC00A075D1FFF595F5B075D320F5D2F5D5757B
:1037CC00D403F5D775D603F5EE75EF0A75FF2D22E8
:103C5E0024242454696D652073796E630D0A002443
:0D3C6E002424416C61726D2075700D0A00F8
:1036D400D2057813E6FF7002D208EFB40102D209D2
:1036E400EFB40202D20AEFB40302D20BEFB4040225
:1036F400D20CEFB40502D20DEF64067024783716AD
:10370400E670037834F6783616E670037835F67882
:103714002616E670037824F6782516E670037827D3
:0D372400F6781306E6C3940A4002E4F6228C
:10281300780EE6FF78146670030229CDA6079002AE
:102823005FE0601990024FE004F0D3940A400EE495
:10283300F0900259E0FF7812E69F5001069002657E
:10284300E0B40121900263E004F0E0C3940A401570
:10285300E4F0783A76037BFF7A3C795E12382B906A
:1028630002657402F0780AE6FF78106670030229A5
:10287300CDA607780CE6601F16E6701B123BE6E454
:1028830090025EF0783A7603900260E070047F0174
:1028930080027F001229CE90025FE0601F14F07067
:1028A3001B123BE6E490025EF0783A7605900260F4
:1028B300E070047F0180027F001229CE900251E074
:1028C3006401600302297F900253E0780F6660037E
:1028D30002297FA3E0780A66600302297F900252EF
:1028E300E0FF08E6FEEF5E700302297FEF20E706B4
:1028F300EEF4FEEF5EF078127601C201E490024F2F
:10290300F090025E04F09002607403F0900255E0D0
:1029130090026DF0900256E090026AF0900257E048
:10292300900268F0900258E0900287F090025AE01B
:1029330024FF92172017047F1880027F177830A690
:102943000790025BE0900269F090025CE0900277EE
:10295300F090025DE090025FF0780CF6900250F088
:10296300900260E070047F0180027F001229CE781C
:102973003A76037BFF7A3C796D12382B900265E03F
:10298300B4021B900263E004F0E0C39402400FE43E
:10299300F0783A76037BFF7A3C795E12382B780F16
:1029A300E6FF7808666023A607900262E004F0E081
:1029B300C394184015E4F09002657402F0783A76F7
:0A29C300037BFF7A3C795E12382B8B
:0129CD0022E7
:102E660030073D900261E004F0C3940C400FE4F09B
:102E7600900264E004F0D394184002C20790026402
:102E8600E0FF30E00543801080035380EFEF30E031
:102E96000543802080035380DFEF30E051022F3D51
:102EA600300325900261E004F0C394324012E4F04E
:102EB600900264E004F0D394064005C203120000B9
:102EC600438010438020806F300025900261E0042B
:102ED600F0C3940C400FE4F0900264E004F0D39445
:102EE600104002C200900264E030E0028049805146
:102EF600900260E0D394015018900269E07012537A
:102F060080EF5380DF5380BFE4780CF6900250F0D8
:102F160022900250E0FFB40F084380105380DF80F8
:102F260020EFB41E085380EF4380208014EFB43C9A
:102F36000A5380EF5380DF438040225380EF538053
:052F4600DF5380BF22F3
:103BBC00781276029002777401F0900260F0D201D4
:103BCC005390EF783A7603E070047F0180027F0017
:0A3BDC001229CE9002657401F02258
:103A1000123BBC123335300502C205300808C2081B
:103A2000123DA9122067300905C20912302C300A54
:103A300005C20A1222BE300B05C20B12248A300CBA
:0E3A4000D2C20C122E66123AFE12281380C556
:102D720020202020200D0A0041542B4D540D0A0022
:102D820041542B4D410D0A0041542B4D450D0A0073
:102D920041542B4D440D0A0041542B43410D0A006E
:102DA20041542B43420D0A0041542B43430D0A0068
:102DB20041542B43500D0A0041542B43440D0A0049
:102DC20041542B435A0D0A0041542B48300D0A003E
:102DD20041542B48310D0A0041542B48320D0A0050
:102DE20041542B48330D0A0041542B48340D0A003C
:102DF20041542B48350D0A0041542B48360D0A0028
:102E020041542B48370D0A0041542B48380D0A0013
:102E120041542B48390D0A0041542B48410D0A00F8
:102E220041542B48420D0A0041542B48430D0A00DD
:102E320041542B48440D0A0041542B48450D0A00C9
:102E420041542B48460D0A00000102030607090AF5
:102E52000C0E0F000102030404040506060707080E
:042E620008090A0A47
:1038BF007824E670FB7F08900237E4F0A3DFFCE486
:1038CF00FF122747FE601674372FF582E43402F596
:1038DF0083EEF0740129F9E43AFA0F80E4E47828D2
:1038EF00F6782476017828E6062437F582E4340248
:0538FF00F583E0F5F582
:0139040022A0
:103B9100EFC3940B500CEF75F008A42472F9742D47
:103BA10080107812E6902E4A9375F008A424CAF981
:0A3BB100742D35F0FA7BFF1238BFC7
:013BBB0022E7
:102C7600201006201103022D71301012C21090028E
:102C86001A7401F0A37402F0A3743FF08010C2110D
:102C960090021A7401F0A37402F0A37447F0900234
:102CA6001AE0FBA3E0FAA3E0F9122747FFB4491F95
:102CB600900001122760FEB44902D213EEB441021D
:102CC600C213EE64586003022D56C213022D56EF4E
:102CD600B44D1C900001122760FFB44102C214EFEC
:102CE6006442706CD2147812E6F47829F680611288
:102CF6002747FFB44F1290000112276064467050B8
:102D0600900260E064028048EF644870439002607D
:052D1600E06402703BC7
:102D1B00900001122760FFD3648094B94005EF2423
:102D2B00C9801390021AE0FBA3E0FAA3E0F990002C
:102D3B000112276024D07812F67812E6D3940F4054
:0B2D4B0002760F7812E6902E5593F6EA
:102D5600E4FF90021AE0FBA3E0FAA3E0F98F827584
:0B2D66008300E412279F0FEFB408E782
:012D7100223F
:10302C00122C76900260E0640260030230BF200F25
:10303C0013782BF6C213C2147812E6F47829F6E44E
:10304C00900236F0D20F900236E014601D14601C12
:10305C0014601E14601D240470215390EF439002E1
:10306C00E58830E603023105800780055390BF8068
:10307C00688066439040123C9480627812E6FF7838
:10308C0029666009A6077F0B123B91800D782AE612
:10309C00FF6007123B91E4782AF6E58830E210785D
:1030AC002BE6D39405400443901022782B06225330
:1030BC0090EF22300F08E4782BF6900236F0C20F16
:1030CC00900236E014601214601114601014601435
:1030DC00240470255390EF80048002800090023607
:1030EC00E004F022900236E004F0900260E0D39409
:0A30FC000150065390BF123CEF2272
:10360500242424415457510D0A002424244661637F
:10361500746F72792073657474696E670D0A00247E
:103625002424576966692072657365740D0A002440
:103635002424456E74657220546573744D6F6465FA
:103645003A302E31330D0A00000004C00601086728
:103655000A900BE50D560E000050056006A10907FE
:083665000B300C850DF60E0080
:10328900E490021AF0123D8190027AEEF0A3EFF079
:10329900C394A0EE940F504AE4FFEF25E0244DF5C6
:1032A90082E43436F583E493FC740193FD90027A49
:1032B900E0FAA3E0FBC39DEA9C4022EF25E0245DF0
:1032C900F582E43436F583E493FC740193FDD3EB82
:1032D9009DEA9C5008EF0490021AF080050FEFB4A4
:1032E90008B87F05123D2690021AE0FFB4040AE5EA
:1032F9008820E5057408F0802DEFB4010DE58820DC
:10330900E50890021A7409F0801CEFB4020DE588F3
:1033190020E50890021A740AF0800BE58820E5067A
:0B33290090021A7403F090021AE0FFFB
:013334002276
:102B7400E4900278F0900281E0FE6F600EA3E06FB3
:102B84006003EFF022900281EFF022900280E0FFD8
:102B94006E6003022C21EF7003022C7590027CE01E
:102BA4007003022C7590027CE014F06003022C7513
:102BB400900280E090027EF0900279E0700590022D
:102BC4007804F090027FE014602114603214602FC6
:102BD40024036003022C7590027F7401F090027E3E
:102BE400E04420F090027C7432F02290027F740260
:102BF400F090027EE04460F090027C7414F0229025
:102C0400027F7403F090027EE04480F090027C74B2
:102C140014F0A3E0C394FA5058E004F02290028028
:102C2400E0603790027EF0900279E07005900278BF
:102C340004F090027FE024FE601014600F24027000
:102C44001290027EE04440F08009800090027EE011
:102C540044C0F0E490027FF08009E4900279F0909F
:102C6400027DF090027C7405F0900281E090028075
:022C7400F0224C
:063DA900123289022B74A6
:10206700900278E070030222BD90025EE06016E401
:10207700F090027904F0783A7605123BE6E4900294
:102087005FF00221D490027EE01227ED20CA4120A2
:10209700FE42216543217C4421944521DC46223CB4
:1020A70047214962222266224A6720E68121658309
:1020B700217C84225788228089229E8A20CAC100D7
:1020C7000022BD90027DE0C3941940030222BD782F
:1020D7003A7605900260E06003023BE6023905901C
:1020E700027DE0641960030222BD783A76057BFF22
:1020F7007A3679050222BA900260E0FF6401600433
:10210700EFB40216C201C2179002607403F0900286
:1021170087E060030222BD04F022900260E06403BE
:1021270060030222BDC201301704C2178026C217FE
:10213700900287E004F0D3940650030222BD740195
:10214700F022900260E0640360030222BDB2172010
:102157001707C20178307618227830761722900256
:1021670060E0D3940150030222BD7812E6940A502E
:102177000106C20122900260E0D3940150030222BB
:10218700BD7812E6D39401400116C2012290026085
:10219700E0D394015009900269E070030222BD90D8
:1021A7000250E0FF7008780C760F740FF022EFB43E
:1021B7000F0B780C761E900250741EF022EFB41E9F
:1021C7000B780C763C900250743CF022E4780CF6C5
:1021D700900250F022900260E070030222BD90024C
:1021E70069E0B40A028015900277E0700404F08079
:1021F7000E900269E004F0D3940940037401F09053
:102207000269E0640960030222BD900270F0900247
:102217006EF090026CF090026BF022900269E07011
:10222700030222BD900277E004F0D3940350030227
:1022370022BDE4F022900260E0607B640260777464
:1022470002F022900260E06402706B782A76052221
:1022570090027DE06432705E900261F0900264F05B
:10226700D20390026004F0783A76057BFF7A3679DC
:102277000F12382B7F0A023B9190027DE064327087
:1022870035D207900261F0900264F0783A76057BC8
:10229700FF7A367924801C90027DE0B41918D200A9
:1022A700E4900261F0900264F0783A76037BFF7A5B
:0722B70036793412382B22A6
:10310600900276E014F070035398F7900275E0147D
:10311600F070035398EF900274E014F07003539824
:10312600DF900271E014F060030231D6900277E07E
:10313600FF700A900276F0900275F0805AEFB401A3
:103146002290026EE01313543F900276F090026CC8
:10315600E01313543F900275F090026BE013135482
:103166003F8034900277E090026EB40219E0C313F8
:10317600900276F090026CE0C313900275F0900214
:103186006BE0C3138011E0900276F090026CE09041
:103196000275F090026BE0900274F0900260E0B469
:1031A600020AE58830E10543881080035388EF90D2
:1031B6000276E06003439808900275E06003439846
:1031C60010900274E060034398209002667401F048
:0131D60022D6
:103D160090026EEFF090026CEDF090026BEBF022E9
:101D990090026FE004F0C394045003022066E490BB
:101DA900026FF0A3E0FF705A90026EE0C394FF50F7
:101DB90003E004F090026CE0D394004003E014F0D7
:101DC90090026BE0D394004003E014F090026EE0BF
:101DD900F4600302206690026CE0600302206690C2
:101DE900026BE0600302206690027275F00112270F
:101DF900C1FCD3E5F0941EEC940050030220660266
:101E09002000EF6401707490026EE0C394FF5003E8
:101E1900E004F090026EE0D394FF4003E014F090E8
:101E2900026CE0C394805003E004F090026CE0D3AC
:101E390094804003E014F090026BE0D394004003D7
:101E4900E014F090026EE0F4600302206690026CE8
:101E5900E06480600302206690026BE06003022068
:101E69006690027275F0011227C1FED3E5F0941E47
:101E7900EE94005003022066022000900270E0FFF9
:101E89006402705B90026EE0C394FF5003E004F0BB
:101E990090026CE0C394FF5003E004F090026BE001
:101EA900D394004003E014F090026EE0F460030262
:101EB900206690026CE0F4600302206690026BE0F9
:101EC900600302206690027275F0011227C1FCD3EB
:101ED900E5F0941EEC94005003022066022000EF06
:101EE9006403705A90026EE0D394004003E014F04A
:101EF90090026CE0C394FF5003E004F090026BE0A1
:101F0900D394004003E014F090026EE060030220D5
:101F19006690026CE0F4600302206690026BE06058
:101F29000302206690027275F0011227C1FED3E503
:101F3900F0941EEE940050030220660220009002E5
:101F490070E0FF6404705990026EE0D3940040037E
:101F5900E014F090026CE0D394004003E014F09098
:101F6900026BE0C394FF5003E004F090026EE0605E
:101F79000302206690026CE0600302206690026B07
:101F8900E0F4600302206690027275F0011227C125
:101F9900FCD3E5F0941EEC940050030220668057B0
:101FA900EF6405706090026EE0D394004003E01482
:101FB900F090026CE0C394FF5003E004F090026BD0
:101FC900E0C394FF5003E004F090026EE060030266
:101FD900206690026CE0F4600302206690026BE0D8
:101FE900F4707A90027275F0011227C1FED3E5F000
:101FF900941EEE94004066E4900272F0A3F0900201
:1020090070E004F02290026EE0C394FF5003E004F4
:10201900F090026CE0D394004003E014F090026B5E
:10202900E0C394FF5003E004F090026EE0B4FF2D8A
:1020390090026CE0702790026BE0B4FF209002726E
:10204900E475F0011227C1FED3E5F09432EE940055
:0E205900400BE4900272F0A3F0900270F022AF
:10248A00900266E07003022650E4900266F0900221
:10249A0069E0FFB4091B7811666016E0F6E4900261
:1024AA0070F090026E747FF0E490026CF090026B10
:1024BA00F0900260E06007900269E0FE7004E4FBBD
:1024CA008051EEB401047BFF8021900269E0FEB4E2
:1024DA000205E4FBFD8016EEB40306E4FB7D808072
:1024EA000C900269E0FEB40408E4FB7DFF7FFF80E4
:1024FA0034EEB40507E4FB7DFFFF8029900269E012
:10250A00FEB406087BFF7DFFE4FF8019EEB40707DF
:10251A007BFFE4FDFF800E900269E0FEB4080C7BAD
:10252A00FFE4FD7F80123D16022626EE640A600350
:10253A0002261C90026DE0FFA3F090026AE0FE9072
:10254A00026CF0900268E0FD90026BF0EFB4FF11AC
:10255A00EEB4FF0DEDB4FF099002697401F0022692
:10256A002690026DE0B4FF1390026AE0700D9002AB
:10257A0068E07007A37402F002262690026DE0FF5D
:10258A00B4FF1490026AE0B4800D900268E070070C
:10259A00A37403F0022626EFB4FF1390026AE0B494
:1025AA00FF0C900268E07006A37404F0806E90023B
:1025BA006DE0701390026AE0B4FF0C900268E0705C
:1025CA0006A37405F0805590026DE0FF7014900226
:1025DA006AE0B4FF0D900268E0B4FF06A37406F047
:1025EA00803AEF701390026AE0700D900268E0B4CE
:1025FA00FF06A37407F0802490026DE0B4801D905A
:10260A00026AE07017900268E0B4FF10A37408F041
:10261A00800A900269E0B40903121D99900269E0E8
:10262A00FF701AEFB40A1690026EE090026DF090F5
:10263A00026CE090026AF0A3E0900268F0900269EE
:07264A00E060037811F622A5
:0B3D7600000102030507090A0C0E0FF4
:0E3D3500EF903D7693FFC374169FFF023C7B18
:103C7B00201515D215EF14782DF6E4782FF678323F
:093C8B00F653887F782C76C822DC
:1031D700201503023288783206E6C3782C9650030E
:1031E700023288E47832F6782FE6B41300400302FF
:1031F7003280903200F828287302323902324202B4
:10320700324B02325F02324B02325F02324B0232E2
:103217005F02324B02325F02324B02325F02324BA5
:1032270002325F02324B02325F02324B02325F02DE
:10323700327A438880782C76A0804353887F782C15
:103247007614803A438880782DE630E70518761E95
:10325700802C782C760A802653887F782DE6FF30DD
:10326700E70518760A8004782C761EEF25E0782D7E
:10327700F6800B782C76C8800553887FC215782F87
:0232870006221D
:1022BE00900260E064036003022429201615783131
:1022CE00F6900287E0F47833F67812E6F4782EF67C
:1022DE00E4A3F0D216900288E0146028146038143B
:1022EE00604A240370495390EF783106E6D394196F
:1022FE0050030224895390FD439040123C94E4789D
:10230E0031022456439802783106E6D394325003B4
:10231E00022489E4022456783106E6D394C8500389
:10232E00022489900288E004F0E4F6220224677801
:10233E0030E6FF6039301503022489B417097BFF9C
:10234E007A1B79FF12382B7830E6B4181590028775
:10235E00E075F018A424FFF9741B35F0FA7BFF1218
:10236E00382B7830E6FF123C7BE47830F622900270
:10237E0087E07833666048301503022489E0FFF663
:10238E00EF6003B4170ED217783376177BFF7A1BE4
:10239E0079FF8019900287E0FFD394065012EF75F3
:1023AE00F018A424FFF9741B35F0FA7BFF12382BBA
:1023BE007833E6FF123C7B900287E07833F6227981
:1023CE0012E7782E6660103015030224897812E623
:1023DE00FF782EF6023D35A201300401B350297864
:1023EE003AE67024A20192043001087BFF7A1B7931
:1023FE00FF8012900287E075F018A424FFF9741B79
:10240E0035F0FA7BFF02382B2017082001057812D1
:10241E00E670045390EF2243901022301605E4909C
:10242E000288F0C216900288E014601214601C1428
:10243E00602E240370452013035390EF801B7831D8
:10244E0006E6D394144034E4F6800E783AE6702B08
:10245E007BFF7A1B79FF12382B900288E004F02262
:10246E00201318900288E004F05398FD900260E06B
:0C247E00D3940150065390BF123CEF2293
:103CC400757064617465206661696C007570646107
:063CD4007465206F6B0017
:0C3D6A0053E13F8FE5E5E154C060FA2210
:103A4E0090022DEBF0A3EAF0A3E9F0801690022D80
:103A5E00E0FBA3E0FAA3E0F91227476020E5E1546A
:103A6E00C060EA53E13F90022DE0FBA3E475F00144
:0E3A7E001227D7A9F0FA122747F5E580D022CB
:1015C50053ABFB53A8E753A9E753AAEFE47817F603
:1015D500781AF608F67815F608F6900226F0A3F0C4
:1015E500A3F09002897400F0A37468F0E4900222DD
:1015F500F0A3F0900222E0FEA3E0FFC3942CEE944A
:10160500015020900289E0FCA3E02FF582EC3EF525
:1016150083E4F0900223E004F070D8900222E00405
:10162500F080D07F43123D6A7817E6B40800400386
:10163500021A2C90163FF82828730216570216DC5A
:101645000217790217FF0218900218F202193102E7
:1016550019DEE5E130E534900289E0FEA3E0F5828C
:101665008E83C083C082781A0806E6188606700144
:101675000614D082D0832582F582E5833EF583E585
:10168500E5F0E4900226F0A3F0A3F0900289E0FED5
:10169500A3E0F5828E83E0B46E25781DE6184660DA
:1016A5000E7BFF7A3C79C4123A4EE47817F6227B1A
:1016B500FF7A3C79D0123A4E78177606021A3078BE
:1016C5001BE66407700418E664016003021A3078AB
:1016D5001AF608F60219D9E4781AF608F69002897E
:1016E500E0FEA3E0F5828E83E0F9A3E0FE90028997
:1016F500E0FCA3E0F5828C83A3A3E0FDAC06900299
:1017050089E0FAA3E0FBF5828A83A3A3A3E0FEEBBD
:101715002404F582E43AF583E0FBEBFFE9B4020E1D
:10172500EFF4FFEEF4FEEF6D7002EE6C600302174E
:10173500F77815E6FE08E6FFC3ED9FFFEC9EFEEF8A
:1017450064014E6004EF4E7025AE04AF057815A612
:101755000608A607E6FEE42400FFEE3440FE9002EC
:1017650029F0A3EFF0D394FFEE947F4004220217F3
:10177500F70219D9E4900224F0A3F0FFFE900222AB
:10178500F0A3F0900222E0FCA3E0FDC3EC9401502D
:1017950034ED2405FDE43CFC900289E0FAA3E02D3C
:1017A500F582EA3CF583E0FD900225E02DF09002FC
:1017B50024E03400F0900223E004F070C690022289
:1017C500E004F080BE900289E0FCA3E0FD2405F56D
:1017D50082EC3401F583E0FEED2406F582EC34015C
:1017E500F583E0FDEDFF900224E06E7003A3E06F4A
:1017F50060057F1502192B0219D9900229E0FEA375
:10180500E0FF90028AE02405FD900289E03400FAA9
:10181500A9057B0112347690022AE02440FF90024C
:1018250029E03400FE90028AE02445FD900289E01B
:101835003400FAA9057B0112347690022AE024804F
:10184500FF900229E03400FE90028AE02485FD9095
:101855000289E03400FAA9057B0112347690022A48
:10186500E024C0FF900229E03400FE90028AE024C3
:10187500C5FD900289E03400FAA9057B0112347692
:10188500781DE616187001160219D9E4900222F0A7
:10189500A3F0900222E0FEA3E0FFC3EE9401504ABC
:1018A50090022AE02FFF900229E03EFE123D9A9019
:1018B5000223E02405FD900222E03400FC90028919
:1018C500E0FAA3E02DF582EA3CF583E06F600B7F3B
:1018D50015123D6AE47817F68010900223E004F0B3
:1018E50070B0900222E004F080A80219D9E49002B9
:1018F50022F0A3F0900222E0FEA3E0FFC3942CEEB9
:1019050094015020900289E0FCA3E02FF582EC3E83
:10191500F583E4F0900223E004F070D8900222E011
:1019250004F080D07F96123D6A021A2C90022B7427
:1019350001F0A3E4F09002297441F0A3E4F09002D1
:101945002BE0FEA3E0C394FFEE940340030219D9F4
:10195500E4900222F0A3F0900222E0FEA3E0FFC390
:101965009440EE9400503790022AE02FFF90022910
:10197500E03EFE123D9A900222E0FCA3E0FD9002BB
:1019850089E0FAA3E02DF582EA3CF583EFF09002B9
:1019950023E004F070C1900222E004F080B99002C7
:1019A5002BE0FEA3E0FF900289E0FCA3E0AA04F986
:1019B5007B0112347690022AE02440F0900229E05F
:1019C5003400F090022CE02440F090022BE034002B
:1019D500F00219437817068052E4900222F0A3F032
:1019E500900222E0FEA3E0FFC39440EE9400502154
:1019F500900289E0FCA3E02FF582EC3EF58374AA02
:101A0500F0900223E004F070D7900222E004F08009
:101A1500CF900289E0FEA3E0AA06F97B017F007E54
:101A250004123476020000E47817F6900226E004EA
:101A3500F0600302162DA3E004F0600302162DA347
:101A4500E004F0C39402500302162D1200000216A2
:011A55002D63
:101A56007B54696D6553796E63005475726E206FA1
:101A66006E20756E6974005475726E206F666620FE
:101A7600756E6974004770537461005475726E20F8
:101A86006F6E204254006D7573696320706C6179C6
:101A9600006D757369632070617573650053656CBD
:101AA60065637420536F756E642066696C65007B90
:101AB6004D757369635374617475730041646A7517
:101AC6007374204F757470757420566F6C756D65E0
:101AD60000766F6C756D6520757000766F6C756D30
:101AE6006520646F776E006D75736963206D75741C
:101AF60065006D7573696320756E6D757465005349
:101B060065742054696D6572005475726E206F6637
:101B1600662054696D6572005475726E206F6E2072
:101B26004C6967687472005475726E206F66662021
:101B36004C6967687472006C696768742075700018
:101B46006C6967687420646F776E004368616E67BE
:101B560065206C6967687420636F6C6F72004164FE
:101B66006A757374204C6967687420427269676885
:101B7600746E657373005573657220636F6C6F7254
:101B8600007B50726F6772616D0050726F506C61AE
:101B9600790D0A007B416C61726D4F6E4F6666006F
:101BA6007B416C61726D536574007B416C6147705B
:101BB600537461007B4E6F724770537461002075D9
:101BC600706461746500415457510D0A00564552C0
:101BD6000D0A00242424564552302E31330D0A00B6
:101BE600456E74657220546573744D6F64653A0072
:101BF6000101020408102040802424247B4D7573C3
:101C060069635374617475733A5B30375D7D0D0A91
:101C1600002424247B4D7573696353746174757352
:101C26003A5B30315D7D0D0A002424247B4D7573AB
:101C360069635374617475733A5B30325D7D0D0A66
:101C4600002424247B4D7573696353746174757322
:101C56003A5B30335D7D0D0A002424247B4D757379
:101C660069635374617475733A5B30345D7D0D0A34
:101C7600002424247B4D75736963537461747573F2
:101C86003A5B30355D7D0D0A002424247B4D757347
:101C960069635374617475733A5B30365D7D0D0A02
:101CA600002424247B47705374613A5B30302C3017
:101CB600302C30302C30302C3030303030302C302E
:101CC600302C30302C30302C30303B30302C303013
:101CD6002C30302C3030303030302C30302C30300E
:101CE6002C30302C30302C30303A30302C30305DC7
:101CF6007D0D0A002424247B416C61477053746176
:101D06003A5B30302C30302C30302C30302C3030A8
:101D1600303030302C30302C30302C30302C3030CD
:101D26002C30302C30303A30302C30305D7D0D0A7E
:101D3600002424247B4E6F7247705374613A5B30E3
:101D4600302C30302C30302C30302C30303030309D
:101D5600302C30302C30302C30302C30305D7D0D36
:101D66000A002424247B4E6F7247705374613A5BD9
:101D760030302C30302C30302C30302C303030306D
:101D860030302C30302C30302C30302C30305D7DE3
:031D96000D0A0033
:10366D0090022574FFF0A3741AF07460A3F0900219
:09367D001FE0FBA3E0FAA3E0F951
:10368600900222EBF0A3EAF0A3E9F0900225E0FB1A
:10369600A3E0FAA3E0F9122747FF602F900222E089
:1036A600FBA3E0FAA3E0F9122747B507056003EF8D
:1036B60070037F0122900223E475F0011227C19066
:0E36C6000226E475F0011227C180C07F0022A9
:102F4B00900269EFF09001F9F090021FE0FBA3E013
:102F5B00FAA3E0F9900016122760FF9000171227D2
:102F6B0060FD12300190026DEFF09001FAF09002CB
:102F7B001FE0FBA3E0FAA3E0F9900018122760FF13
:102F8B00900019122760FD12300190026AEFF09049
:102F9B0001FBF090021FE0FBA3E0FAA3E0F9900025
:102FAB001A122760FF90001B122760FD1230019050
:102FBB000268EFF09001FCF090021FE0FBA3E0FA37
:102FCB00A3E0F990001D122760FF90001E122760EE
:102FDB00FD123B39900277EFF09001FDF090021F4C
:102FEB00E0FBA3E0FAA3E0F9900020122760900029
:062FFB0021FF122760FD1A
:10300100C3EF648094C14006EF24C9FF800474D0EB
:103011002FFFC3ED648094C14006ED24C9FD8004F7
:0B30210074D02DFDEFC454F04DFF22D1
:053B3400FF122760FDF7
:103B3900C3EF648094C14006EF24C9FF800474D0A8
:103B49002FFFC3ED648094C14006ED24C9FD8004B4
:0C3B590074D02DFDEF75F00AA42DFF22A2
:10350A0012356A90021BE0FBA3E0FAA3E0241AF941
:10351A00E43AFA90026DE0FD12356A90021BE0FB74
:10352A00A3E0FAA3E0241CF9E43AFA90026AE0FD67
:10353A0012356A90021BE0FBA3E0FAA3E0241EF90D
:10354A00E43AFA900268E0FD12356A90021BE0FB49
:10355A00A3E0FAA3E09002772421F9E43AFAE0FD25
:10356A00EDC4540FFFC3940AEF40042437800224A9
:10357A003012278D740129F9E43AFAED540FFFC38A
:0E358A00940AEF400424378002243012278D6B
:013598002210
:103905009002607401F0780DE6B403047F03800231
:103915007F01900260EFF07809E67812F67811E6FB
:10392500900269F0900277E0FF70067E017F0180CA
:1039350000900277EFF0900260E070047F01800252
:053945007F000229CE05
:103BE600900260E0780DF6E4F07812E67809F69037
:103BF6000269E07811F6E4F0780CF6900250F07065
:0A3C0600047F0180027F000229CE36
:103B6500E490025EF0900279F0123BE6783A760531
:103B7500900260E070047F0180027F001229CEE48C
:0C3B850090025FF0780CF6900250F022E5
:0529CE00900222EFF071
:1029D3007834E670FBE47838F67F64900194E4F091
:1029E300A3DFFCE4FFEFFD3395E0FC74A72DF58234
:1029F300741C3CF583E493FE74942DF58274013CBE
:102A0300F583EEF00FEFB452DC7B017A01799F90EE
:102A13000222E0FD12356A7A0179A2900260E0B4E5
:102A23000308900287E0FFFD80027D0712356A7B71
:102A3300017A0179A5900269E07003FD80027D01AE
:102A430012356A7B017A0179A8900269E0B409041E
:102A53007D0180027D0012356A7B017A0179AB909A
:102A6300026DE0FD12356A7A0179AD90026AE0FDEC
:102A730012356A7A0179AF900268E0FD12356A7AFD
:102A83000179B2900277E0FD12356A7A0179B5785F
:102A930012E6FD12356A7A0179B8A217E433FD1202
:102AA300356A7A0179BB780CE6FD12356A7A0179C9
:102AB300BEE4FD12356A7A0179C1900258E0FD1235
:102AC300356A7A0179C4900267E0B409047D018014
:102AD300027D0012356A7B017A0179C7900255E0C5
:102AE300FD12356A7A0179C9900256E0FD12356A02
:102AF3007A0179CB900257E0FD12356A7A0179CEDB
:102B030090025CE0FD12356A7A0179D1900259E0B6
:102B1300FD12356A7A0179D4900251E0FD12356ACB
:102B23007A0179D7900252E0FD12356A7A0179DA97
:102B3300900253E0FD12356A7A0179DD900254E088
:102B4300FD12356A7A0179E090025DE0FD12356A83
:102B5300783A7602E47839F6783476017837760A6B
:102B63007839E6062494F582E43401F583E0F5E54B
:012B7300223F
:0B05260090021BEBF0A3EAF0A3E9F049
:100531002403F9E43AFA90021FEBF0A3EAF0A3E9ED
:10054100F0900260E070030211C090022574FFF088
:10055100A3741AF07456123679EF707590021FE089
:10056100FBA3E0FAA3E0F990000B12276090000CC6
:10057100122FFC780FA60790021FE0FBA3E0FAA35D
:10058100E0F990000E122760FF90000F122FFD7806
:100591000AA60790021FE0FBA3E0FAA3E0F990008E
:1005A10011122760FF900012122FFD780EA60790FE
:1005B100021FE0FBA3E0FAA3E0F990001E122760FE
:1005C10024D0780BF6E6901BF693F6E4900265F0E2
:1005D1002212366DEF700C900260E0600302097226
:1005E1000211CF90022574FFF0A3741AF0A3746D69
:1005F10012367AEF701090025EE0600302095278C1
:100601003A7603023BE690022574FFF0A3741AF0D8
:10061100A3747B12367AEF70012290022574FFF0E9
:10062100A3741AF0A3748112367AEF7009900260F4
:100631007402F002097290022574FFF0A3741AF09B
:10064100A3748C12367AEF70199002607403F0C2B1
:1006510001C217F0900287E0700304F0227830762F
:10066100182290022574FFF0A3741AF0A374971254
:10067100367AEF7012900260E0640360030215C4E1
:10068100D217783076172290022574FFF0A3741ADE
:10069100F0A374A312367AEF704090025EE0600B13
:1006A100E4F0A3F0780CF6900250F0C201C217906A
:1006B10002607403F090021FE0FBA3E0FAA3E0F9EB
:1006C10090001A12276024D0FF900287F07833E659
:1006D100B507047830761802130C90022574FFF0E8
:1006E100A3741AF0A374B512367AEF700122900246
:1006F1002574FFF0A3741AF0A374C212367AEF7056
:100701002390025EE0600302095290021FE0FBA306
:10071100E0FAA3E0F9900014122760900015123B53
:100721003402079B90022574FFF0A3741AF0A3749E
:10073100D712367AEF702990025EE0600302095207
:100741007812E6FFC3940A5013EF94085007E62489
:1007510002FFF68009781206E6FF80027F0A803ADE
:1007610090022574FFF0A3741AF0A374E112367A93
:10077100EF703090025EE060030209527812E6FFEA
:10078100D394014013EF94034007E624FEFFF68063
:1007910009781216E6FF80027F017812A607C201CE
:1007A10002097290022574FFF0A3741AF0A374ED8C
:1007B10012367AEF7003D2012290022574FFF0A362
:1007C100741AF0A374F812367AEF7003C201229002
:1007D100022574FFF0A3741BF0A3740512367AEF9F
:1007E100702590025EE0600302095290021FE0FB57
:1007F100A3E0FAA3E0F990000A12276090000B121F
:100801003B34780CEF801F90022574FFF0A3741B1A
:10081100F0A3740F12367AEF701490025EE0600359
:10082100020952E4780CF6900250F002097290022B
:100831002574FFF0A3741BF0A3741E12367AEF70B7
:100841002D90025EE0600BE4F0A3F0780CF69002CC
:1008510050F07811E6900269F0700204F09002778E
:10086100E0FF70077E017F0102096D02096D9002B0
:100871002574FFF0A3741BF0A3742D12367AEF7068
:100881001190025EE06003020952E4900269F002F5
:10089100097290022574FFF0A3741BF0A3743D123A
:1008A100367AEF701B90025EE060030209529002FB
:1008B10077E0C394034003020972E004F002097275
:1008C10090022574FFF0A3741BF0A3744612367ACC
:1008D100EF701B90025EE06003020952900277E024
:1008E100D394005003020972E014F00209729002DD
:1008F1002574FFF0A3741BF0A3745112367AEF70C4
:100901003790025EE0600BE4F0A3F0780CF6900201
:1009110050F09002697409F0E4900270F090026E58
:10092100F090026CF090026BF0900277E0FF70069D
:100931007E017F018000803490022574FFF0A37452
:100941001BF0A3746412367AEF702690025EE060A9
:1009510003023B6590021FE0FBA3E0FAA3E0F990DC
:100961000018122760FF900019123B35900277EFB3
:10097100F090022574FFF0A3741BF0A3747C12366F
:100981007AEF6003020A0B90025EE0600BE4F0A3D1
:10099100F0780CF6900250F090021FE0FBA3E0FA11
:1009A100A3E0F990000B122760FF90000C122FFDBD
:1009B10090026DEFF090021FE0FBA3E0FAA3E0F9D3
:1009C10090000D122760FF90000E122FFD90026A19
:1009D100EFF090021FE0FBA3E0FAA3E0F990000F13
:1009E100122760FF900010122FFD900268EFF09027
:1009F1000269740AF0900277E0FF70067E017F01C0
:100A01008000900277EFF00215B690022574FFF096
:100A1100A3741BF0A3748712367AEF6003020AE114
:100A210090025EE0600BE4F0A3F0780CF6900250C7
:100A3100F0123C3890021FE0FBA3E0FAA3E0F9902A
:100A4100000E12276024D0900287F09001F8F090F8
:100A51000011122760FFB431047E0180027E0090F4
:100A61000269EEF09001F9F0EFB4311C90021FE041
:100A7100FBA3E0FAA3E0F9900014122760B431045B
:100A81007F0980067F0A80027F00122F4B7812EFC8
:100A9100F69001FEF09002607403F09001FFF09077
:100AA100021FE0FBA3E0FAA3E0F990002412276003
:100AB10024D024FF9217E433900200F0201705C2DE
:100AC10001E4A3F0900026122760FF900027122F67
:100AD100FD780CEFF6900250F0900202F00215B68C
:100AE10090022574FFF0A3741BF0A3749012367A60
:100AF100EF706690025EE0600BE4F0A3F0780CF614
:100B0100900250F09001F8E0900287F09001F9E036
:100B1100900269F09001FAE090026DF09001FBE023
:100B210090026AF09001FCE0900268F09001FDE013
:100B3100900277F09001FEE07812F6A3E090026057
:100B4100F0900200E024FF9217201702C2019002E8
:100B510002E0900250F00215B690022574FFF0A356
:100B6100741BF0A3749A12367AEF707190021FE031
:100B7100FBA3E0FAA3E0F990001112276024D090C2
:100B81000251F0900013122760FF900014122FFD04
:100B9100780FA60790021FE0FBA3E0FAA3E0F9900B
:100BA1000016122760FF900017122FFD780AA60782
:100BB10090021FE0FBA3E0FAA3E0F99000191227CD
:100BC10060FF90001A122FFD780EA60790021FE019
:100BD100FBA3E0FAA3E0F9900026020DA9900225FB
:100BE10074FFF0A3741BF0A374A612367AEF6003AE
:100BF100020DBA90021FE0FBA3E0FAA3E0F9900016
:100C01000F12276024D0900258F0C394074002E4E9
:100C1100F0900012122760FF24D090025BF0EFB435
:100C21003111900015122760B431047F0980067FCD
:100C31000A80027F0090025BEFF090021FE0FBA3AD
:100C4100E0FAA3E0F9900017122760FF9000181254
:100C51002FFD900255EFF090021FE0FBA3E0FAA3F5
:100C6100E0F9900019122760FF90001A122FFD90F1
:100C71000256EFF090021FE0FBA3E0FAA3E0F99027
:100C8100001B122760FF90001C122FFD900257EFEE
:100C9100F090021FE0FBA3E0FAA3E0F990001F121D
:100CA100276024D090025CF0900021122760FF9011
:100CB1000022122FFD900259EFF090021FE0FBA3DA
:100CC100E0FAA3E0F990002512276024D090025A9F
:100CD100F090002812276024D0900251F090002A51
:100CE100122760FF90002B122FFD900252EFF0901F
:100CF100021FE0FBA3E0FAA3E0F990002D122760A8
:100D0100FF90002E122FFD900253EFF090021FE092
:100D1100FBA3E0FAA3E0F9900030122760FF9000F6
:100D210031122FFD900254EFF090021FE0FBA3E07F
:100D3100FAA3E0F9900033122760FF900034122FDC
:100D4100FD90025DEFF090021FE0FBA3E0FAA3E04B
:100D5100F9900036122760FF900037122FFD780FAF
:100D6100A60790021FE0FBA3E0FAA3E0F990003987
:100D7100122760FF90003A122FFD780AA607900211
:100D81001FE0FBA3E0FAA3E0F990003C122760FF0B
:100D910090003D122FFD780EA60790021FE0FBA3E5
:100DA100E0FAA3E0F990004912276024D0780BF60D
:100DB100E6901BF693F60215B690022574FFF0A398
:0F0DC100741BF0A374B012367AEF6003020F9820
:100DD00090021EF090021EE0FFC39464501C90022B
:100DE0001BE0FBA3E0FAA3E0F98F82758300E41215
:100DF000279F90021EE004F080DAE490021EF0903B
:100E0000021EE0FF901CFA93FE90021BE0FBA3E0A1
:100E1000FAA3E0F98F82758300EE12279F90021EDD
:100E2000E004F0E0B43ED890021BE0FBA3E0FAA39C
:100E3000E0240EF9E43AFAE4FD12356A90021BE070
:100E4000FBA3E0FAA3E02411F9E43AFA900258E097
:100E5000FF6003FD80027D0712356A90021BE0FBF4
:100E6000A3E0FAA3E02414F9E43AFA90025BE070FC
:100E700003FD80027D0112356A90021BE0FBA3E0B6
:100E8000FAA3E02417F9E43AFA90025BE0B409040B
:100E90007D0180027D0012356A90021BE0FBA3E019
:100EA000FAA3E0241AF9E43AFA900255E0FD12356B
:100EB0006A90021BE0FBA3E0FAA3E0241CF9E43AE9
:100EC000FA900256E0FD12356A90021BE0FBA3E0A7
:100ED000FAA3E0241EF9E43AFA900257E0FD123535
:100EE0006A90021BE0FBA3E0FAA3E090025C1235DB
:100EF0006290021BE0FBA3E0FAA3E02424F9E43AA9
:100F0000FA900259E0FD12356A90021BE0FBA3E063
:100F1000FAA3E02427F9E43AFA90025AE0FD1235E8
:100F20006A90021BE0FBA3E0FAA3E0242AF9E43A6A
:100F3000FA900251E0FD12356A90021BE0FBA3E03B
:100F4000FAA3E0242DF9E43AFA900252E0FD1235BA
:100F50006A90021BE0FBA3E0FAA3E02430F9E43A34
:100F6000FA900253E0FD12356A90021BE0FBA3E009
:100F7000FAA3E02433F9E43AFA900254E0FD123582
:100F80006A90021BE0FBA3E0FAA3E02436F9E43AFE
:050F9000FA90025DE093
:100F95000210BE90022574FFF0A3741BF0A374BA6F
:090FA50012367AEF60030210C954
:100FAE0090021EF090021EE0FFC39464501C90024B
:100FBE001BE0FBA3E0FAA3E0F98F82758300E41235
:100FCE00279F90021EE004F080DAE490021EF0905B
:100FDE00021EE0FF901D3793FE90021BE0FBA3E084
:100FEE00FAA3E0F98F82758300EE12279F90021EFE
:100FFE00E004F0E0B430D890021BE0FBA3E0FAA3CB
:10100E00E0240EF9E43AFA7D0112356A90021BE0F3
:10101E00FBA3E0FAA3E02411F9E43AFA900260E0AF
:10102E00B40308900287E0FFFD80027D0712356A47
:10103E0090021BE0FBA3E0FAA3E02414F9E43AFAD1
:10104E00900269E07003FD80027D0112356A900204
:10105E001BE0FBA3E0FAA3E02417F9E43AFA9002AE
:10106E0069E0B409047D0080027D0112350A900208
:10107E001BE0FBA3E0FAA3E02424F9E43AFA781289
:10108E00E6FD12356A90021BE0FBA3E0FAA3E02412
:10109E0027F9E43AFAA217E433FD12356A90021BDF
:1010AE00E0FBA3E0FAA3E0242AF9E43AFA780CE68E
:0810BE00FD12356A783A760252
:1010C6000215B690022574FFF0A3741BF0A374C436
:1010D60012367AEF600302117B90021FE0FBA3E059
:1010E600FAA3E0F990000A122760FF90000B122F76
:1010F600FDEF7F00FEC007C00690021FE0FBA3E0E5
:10110600FAA3E0F990000C122760FF90000D122F51
:10111600FDEFFD3395E0FCD0E04CFED0E04D7818B5
:10112600A60608F690021FE0FBA3E0FAA3E0F990FA
:101136000011122760FF900012122FFDEF7F00FEB4
:10114600C007C00690021FE0FBA3E0FAA3E0F990F7
:101156000013122760FF900014122FFDEFFD339548
:10116600E0FCD0E04CFED0E04D781CA60608F61256
:1011760015C50215B690022574FFF0A3741BF0A3E3
:1011860074CC12367AEF7002802C90022574FFF030
:10119600A3741BF0A374D312367AEF700302147F84
:1011A60090022574FFF0A3741BF0A374E612367A3E
:1011B600EF60030215B6783AF62212366DEF70101C
:1011C600900260E060030215B6783A7603023905AC
:1011D60090022574FFF0A3741BF0A3741E12367AD6
:1011E600EF701C123905900269E0700204F090025B
:1011F60077E0FF70077E017F010212C20212C290E1
:10120600022574FFF0A3741BF0A3745112367AEF13
:10121600702A1239059002697409F0E4900270F0A0
:1012260090026EF090026CF090026BF0900277E004
:10123600FF70067E017F0180000212C290022574B3
:10124600FFF0A3741BF0A3747C12367AEF7075124C
:10125600390590021FE0FBA3E0FAA3E0F990000B2A
:10126600122760FF90000C122FFD90026DEFF09098
:10127600021FE0FBA3E0FAA3E0F990000D1227603D
:10128600FF90000E122FFD90026AEFF090021FE011
:10129600FBA3E0FAA3E0F990000F122760FF90008D
:1012A60010122FFD900268EFF0900269740AF09018
:1012B6000277E0FF70067E017F018000900277EFE3
:1012C600F00215B690022574FFF0A3741AF0A37409
:1012D600A312367AEF7048123905C201C21790027E
:1012E600607403F090021FE0FBA3E0FAA3E0F9901C
:1012F600001A12276024D0FF900287F07833E6B5F3
:10130600070478307618783A7601900287E075F00F
:1013160018A424FFF9741B35F0FA7BFF0215C1905F
:10132600022574FFF0A3741BF0A3749012367AEFB3
:1013360070581239059001F8E0900287F09001F993
:10134600E0900269F09001FAE090026DF09001FBE6
:10135600E090026AF09001FCE0900268F09001FDD6
:10136600E0900277F09001FEE07812F6A3E090029A
:1013760060F0900200E024FF9217201702C201904D
:101386000202E0900250F00215B690022574FFF0BA
:10139600A3741BF0A3748712367AEF600302145805
:1013A600123905123C3890021FE0FBA3E0FAA3E0D5
:1013B600F990000E12276024D0900287F09001F871
:1013C600F0900011122760FFB431047E0180027E86
:1013D60000900269EEF09001F9F0EFB4311C900232
:1013E6001FE0FBA3E0FAA3E0F9900014122760B413
:1013F60031047F0980067F0A80027F00122F4B7816
:1014060012EFF69001FEF09002607403F09001FF77
:10141600F090021FE0FBA3E0FAA3E0F9900024128B
:10142600276024D024FF9217E433900200F020179F
:1014360005C201E4A3F0900026122760FF90002762
:10144600122FFD780CEFF6900250F0900202F00297
:1014560015B690022574FFF0A3741AF0A3747B12DC
:10146600367AEF70012290022574FFF0A3741BF008
:10147600A374D312367AEF70097BFF7A1B79D902EF
:1014860015C190022574FFF0A3741BF0A374BA1261
:08149600367AEF60030215B67F
:10149E0090021EF090021EE0FFC39464501C900256
:1014AE001BE0FBA3E0FAA3E0F98F82758300E41240
:1014BE00279F90021EE004F080DAE490021EF09066
:1014CE00021EE0FF901D6893FE90021BE0FBA3E05E
:1014DE00FAA3E0F98F82758300EE12279F90021E09
:1014EE00E004F0E0B430D890021BE0FBA3E0FAA3D6
:1014FE00E0240EF9E43AFAE4FD12356A90021BE09C
:10150E00FBA3E0FAA3E02411F9E43AFA900260E0BA
:10151E00B40308900287E0FFFD80027D0712356A52
:10152E0090021BE0FBA3E0FAA3E02414F9E43AFADC
:10153E00900269E07003FD80027D0112356A90020F
:10154E001BE0FBA3E0FAA3E02417F9E43AFA9002B9
:10155E0069E0B409047D0080027D0112350A900213
:10156E001BE0FBA3E0FAA3E02424F9E43AFA781294
:10157E00E6FD12356A90021BE0FBA3E0FAA3E0241D
:10158E0027F9E43AFAA217E433FD12356A90021BEA
:10159E00E0FBA3E0FAA3E0242AF9E43AFA780CE699
:0815AE00FD12356A783A76025D
:0E15B60090021BE0FBA3E0FAA3E0F912382B31
:0115C4002204
:103C3800780E7C027D017B017A0279037E007F0B7E
:103C480012272178037C027D017B017A0179F87EB5
:063C5800007F0B02272192
:0D3D5D00E4F5FDF5FEF5FA75FB40F5FC22DE
:033DAF000200000F
:103C1000E4FE7DA2EF600E74832EF582E43402F59B
:103C200083EDF0800C74832EF582E43402F583E496
:073C3000F00D0EEEB404DDFF
:013C3700226A
:083D920075FE01000000002293
:103AC700AD07AC06E4F5FAECF5FBAF058FFC75FD29
:103AD700A5900283E064A27018A3E0B4A313A3E047
:103AE700B4A40EA3E0B4A50975FE0300000000808E
:073AF70003123DAF023D5D2B
:1037DC00AD07AC067F007E80123D92E4FBEF2BF52B
:1037EC0082E43EF583E4F00BEBB440F1E4F5FAEC43
:1037FC00F5FBAF058FFC75FDA5900283E064A2700C
:10380C0018A3E0B4A313A3E0B4A40EA3E0B4A509D9
:0F381C0075FE02000000008003123DAF023D5D0B
:0B34760090022DEBF0A3EAF0A3E9F0B8
:10348100E4900231F0A37480F0A3E4F0A3EEF0A382
:10349100EFF053A87F7F01123C10900234E0FEA3AD
:1034A100E0FF1237DC123D92E4900230F090022DE1
:1034B100E0FBA3E0FAA3E0F9900231E0FF04F08F12
:1034C10082758300122760FF900230E0FE90023285
:1034D100E0FCA3E02EF582E43CF583EFF0900230AE
:1034E100E004F0E0B440C6900234E0FEA3E0FF1235
:1034F1003AC7E4FF123C10900235E02440F09002FC
:0835010034E03400F043A8801F
:01350900229F
:073D9A008F828E83E493FF8A
:013DA10022FF
:1001000090021B7400F0A37468F0A37480F0A3E461
:10011000F090021AF090021AE0FFC394405016A328
:10012000E0FCA3E02FF582E43CF583E4F090021AB2
:10013000E004F080E09002217404F0A3E4F0900267
:100140001AF090021AE0FFC394405034900221E06C
:10015000FCA3E0F5828C83E493FE90021BE0FCA3F9
:10016000E02FF582E43CF583EEF0900222E004F00B
:100170007006900221E004F090021AE004F080C2C0
:1001800090021BE0FEA3E0FFF5828E83E064AA608C
:100190000302036FA3A3E064AA600302036F90024B
:1001A0001BA3E02404F582E43EF583E064AA600327
:1001B00002036FEF2406F582E43EF583E064AA6053
:1001C0000302036F53A87F90021FF0A3F0A37440B3
:1001D00002036890021FE0FEA3E0FDAC06E490027B
:1001E0001AF090021AE0F9C39440400302026D90A5
:1001F000021FE0FEA3E0FFC3EE94004009D3EF949A
:1002000000EE9404400FC3EE94054045D3EF94FFF5
:10021000EE943F503C900221E0FEA3E0F5828E83F5
:10022000E493FF90021BE0FAA3E029F582E43AF59B
:1002300083EFF0900222E004F07006900221E004C7
:10024000F0900220E004F0701B90021FE004F080A8
:100250001390021AE0FFA3E0FAA3E02FF582E43A3C
:10026000F583E4F090021AE004F00201E275FE0169
:1002700000000000E490021AF090021AE0FFC3941C
:1002800040501890021DE0FAA3E02FF582E43AF501
:1002900083E4F090021AE004F080DEE4F5FAECF575
:1002A000FB8DFC75FDA50000000075FE020000003E
:1002B00000E4F5FDF5FEF5FA75FB05F5FC75FE01AC
:1002C0000000000090021AF090021AE0F9A3E0FE8C
:1002D000A3E029F582E43EF583E0FF90021DE0FAF9
:1002E000A3E029F582E43AF583EFF090021AE004E6
:1002F000F0E0B440D3E4F5FAECF5FBAF058FFC7504
:10030000FDA50000000075FE0300000000E4F5FDFF
:10031000F5FEF5FA75FB05F5FC90021FE0FEA3E083
:10032000FFC3EE9404400CD3EF9400EE9405500309
:1003300012000090021FE0FEA3E0B40014EEB4012E
:100340001090021F7405F0A3E4F0A37445F0A3E439
:10035000F090021FE0FEA3E0C394FFEE943F500331
:100360000201D390021F7404F0A3E4F00201D3123F
:05037000050043A88018
:010375002265
:10382B007834E670FBE47838F67F64900194E4F02A
:10383B00A3DFFCE4FF122747FE601674942FF5827A
:10384B00E43401F583EEF0740129F9E43AFA0F80C0
:10385B00E4E47839F6783476017837760A7839E605
:0D386B00062494F582E43401F583E0F5E5D0
:01387800222D
:103AFE00783AE660307838E6B414277834E670FB0E
:103B0E00783A16E47838F608F6783476017837760F
:103B1E000A7839E6062494F582E43401F583E0F55B
:063B2E00E52278380622B2
:10333500900002E0FEA3E0FF900000E06E7003A3A2
:10334500E06F70030233DB7836760A900002E0FE08
:10335500A3E0FF2468F58274003EF583E0FD18E6DE
:103365002404F582E43400F583EDF074682FF582CA
:1033750074003EF583E4F090000275F0011227C158
:10338500FEC3E5F0942CEE94014007E4900002F0B2
:10339500A3F07835E6062404F582E43400F583E0ED
:1033A500640A708C7B017A007904120526E478356D
:1033B500F690021AF090021AE0FFC39464400302EB
:1033C500333574042FF582E43400F583E4F090027C
:0633D5001AE004F080DFA5
:0133DB0022CF
:1033F600020500E493A3F8E493A34003F68001F2E8
:1034060008DFF48029E493A3F85407240CC8C333D7
:10341600C4540F4420C8834004F456800146F6DFA6
:10342600E4800B0102040810204080903DB2E47E47
:10343600019360BCA3FF543F30E509541FFEE4939B
:10344600A360010ECF54C025E060A840B8E493A362
:10345600FAE493A3F8E493A3C8C582C8CAC583CA8D
:10346600F0A3C8C582C8CAC583CADFE9DEE780BE45
:013DB2000010
:10265100E709F608DFFA8046E709F208DFFA803E6B
:1026610088828C83E709F0A3DFFA8032E309F60858
:10267100DFFA8078E309F208DFFA807088828C83C0
:10268100E309F0A3DFFA806489828A83E0A3F60874
:10269100DFFA805889828A83E0A3F208DFFA804C4E
:1026A10080D280FA80C680D4806980F28033801025
:1026B10080A680EA809A80A880DA80E280CA80338E
:1026C10089828A83ECFAE493A3C8C582C8CCC58306
:1026D100CCF0A3C8C582C8CCC583CCDFE9DEE780D6
:1026E1000D89828A83E493A3F608DFF9ECFAA9F055
:1026F100EDFB2289828A83ECFAE0A3C8C582C8CCAB
:10270100C583CCF0A3C8C582C8CCC583CCDFEADEC3
:10271100E880DB89828A83E493A3F208DFF980CC25
:1027210088F0EF60010E4E60C388F0ED2402B4041E
:102731000050B9F582EB2402B4040050AF232345C5
:0627410082239026A17323
:10274700BB010689828A83E0225002E722BBFE0290
:09275700E32289828A83E49322C3
:10276000BB010CE58229F582E5833AF583E022502E
:1027700006E92582F8E622BBFE06E92582F8E22278
:0D278000E58229F582E5833AF583E4932292
:10278D00BB010689828A83F0225002F722BBFE012B
:02279D00F32225
:10279F00F8BB010DE58229F582E5833AF583E8F070
:1027AF00225006E92582C8F622BBFE05E92582C81C
:0227BF00F22204
:1027C100C5F0F8A3E028F0C5F0F8E58215827002A3
:0627D1001583E038F02240
:1027D700A3F8E0C5F025F0F0E582158270021583B5
:0627E700E0C838F0E82212
:1027ED00D083D082F8E4937012740193700DA3A37B
:1027FD0093F8740193F5828883E47374029368608F
:06280D00EFA3A3A380DF8E
:00000001FF
