:03000000023508BE
:1035080078FFE4F6D8FD9000007F007E03E4F0A386
:0A351800DFFCDEFA75813A020100C3
:1005000053A87F1238B8123E05123EFB123EE3128A
:100510003E9C123E33123E5C123EA943A880123B21
:060520003C12010080FE08
:03001B000236C5E5
:0F36C500C0E0C083C082C0D075D000C000C00775
:1036D400AFF553F1DF7825760A300E237827E6C359
:1036E4009408500DE606243FF582E43402F583EF96
:1036F400F0EF640A702A7827F6D210B20E8021788F
:1037040027E6C39408500DE6062447F582E4340204
:10371400F583EFF0EFB40A0878277600D211B20EE1
:0D372400D007D000D0D0D082D083D0E032CA
:03002300023A7628
:103A7600C0E0C083C082C0D075D000C00053F17FC3
:103A86007824E660247826760A7828E6062437F530
:103A960082E43402F583E0F5F5E62437F582E43472
:103AA60002F583E070037824F6D000D0D0D082D01F
:043AB60083D0E032A7
:03004B0002385D1B
:10385D00C0E0C0F0C083C082C0D075D000C000C031
:05386D0004C006C007C5
:10387200AFE553E1DF900000E0FCA3E02468F582AD
:1038820074003CF583EFF0900000E475F001122A19
:10389200A8FEC3E5F0942CEE94014007900000E4EA
:0338A200F0A3F0A0
:1038A500D007D006D004D000D0D0D082D083D0F0BD
:0338B500D0E0322E
:03005300023ABAB4
:103ABA00C0E0C083C082C0D075D000C00053E17F8F
:103ACA007834E660247837760A7839E6062494F55D
:103ADA0082E43401F583E0F5E5E62494F582E434E2
:103AEA0001F583E070037834F6D000D0D0D082D0CC
:043AFA0083D0E03263
:03006B00023BB89D
:103BB800C0E0C0F0C083C082C0D075D000C000C0D3
:103BC80001C002C003C004C005C006C00712380007
:103BD800D007D006D005D004D003D002D001D00041
:0B3BE800D0D0D082D083D0F0D0E032EB
:03008300023AFE40
:103AFE00C0E0C0F0C083C082C0D075D000C000C08E
:103B0E0001C002C003C004C005C006C00712323295
:103B1E00123303D007D006D005D004D003D002D084
:0E3B2E0001D000D0D0D082D083D0F0D0E032D1
:0300A3000239A57A
:1039A500C0E0C0D075D000C000C007B20230022D03
:1039B500780E06E6D3943B40247600780A06E6D3D3
:1039C500943B40197600780F06E6D39417400E769F
:1039D50000780BE625E0FFF6BF80027601D007D020
:0639E50000D0D0D0E0325A
:083EDA00AF9FEFFEAD9EEDFF6E
:013EE20022BD
:073EFB00759C80759D0722F4
:0F3E7F00EF540FFFE59C54F04FF59C439C4022FD
:083EE300E4F59AF599F59B2224
:0D3E9C0075B28875B45D43AA0243B20122DD
:103E3300901000748AF0A3744AF043AA1090100003
:053E4300E04401F02243
:103E5C0075DA0275D90643DAECE4F5DB75E30C434D
:033E6C00A9182270
:103DED0020181275EA0275E90643EAECE4F5EB7565
:083DFD00F34D43A818D218226F
:103E480030180EE4F5EAF5E9F5EAF5EBF5F353A8D1
:043E5800E7C2182283
:0D3EA90075968875890175898143AB0422E7
:103E050090103874A8F075C80A758B09E58B30E7F2
:083E1500FB758A0143C8052278
:1038B80075A17FE4F5ACF591F5DEF58075B19875E5
:1038C800AD20F592F5DFF58875B9FFF5AEF593F5FE
:1038D8009075C1FEF5AFF59875C9FEF5A3F594F599
:1038E800A075D1FFF595F5B075D320F5D2F5D5754E
:1038F800D403F5D775D603F5EE75EF0A75FF2D22BB
:103DB70024242454696D652073796E630D0A0024E9
:0D3DC7002424416C61726D2075700D0A009E
:10380000D2057813E6FF7002D208EFB40102D209A4
:10381000EFB40202D20AEFB40302D20BEFB40402F7
:10382000D20CEFB40502D20DEF640670247837167F
:10383000E670037834F6783616E670037835F67855
:103840002616E670037824F6782516E670037827A6
:0D385000F6781306E6C3940A4002E4F6225F
:10277400780EE6FF7814667003022937A6079002E4
:102784005FE0601990024FE004F0D3940A400EE435
:10279400F0900259E0FF7812E69F5001069002651E
:1027A400E0B40121900263E004F0E0C3940A401510
:1027B400E4F0783A76037BFF7A3D79B71239579083
:1027C40002657402F0780AE6FF7810667003022945
:1027D40037A607780CE6601F16E6701B123D3FE42F
:1027E40090025EF0783A7603900260E070047F0114
:1027F40080027F00122AFA90025FE0601F14F070DA
:102804001B123D3FE490025EF0783A760590026038
:10281400E070047F0180027F00122AFA900251E0E6
:10282400640160030228E9900253E0780F666003B4
:102834000228E9A3E0780A6660030228E9900252BC
:10284400E0FF08E6FEEF5E70030228E9EF20E706EA
:10285400EEF4FEEF5EF078127601C201E490024FCE
:10286400F090025E04F09002607403F0900255E070
:1028740090026DF0900256E090026AF0900257E0E8
:10288400900268F0900258E0900287F090025AE0BB
:1028940024FF9217201703C38001D3920120170449
:1028A4007F1880027F177830A60790025BE09002C1
:1028B40069F090025CE0900277F090025DE0900293
:1028C4005FF0780CF6900250F0900260E070047FA4
:1028D4000180027F00122AFA783A76037BFF7A3D60
:1028E40079C6123957900265E0B4021B900263E086
:1028F40004F0E0C39402400FE4F0783A76037BFFDF
:102904007A3D79B7123957780FE6FF780866602365
:10291400A607900262E004F0E0C394184015E4F0C6
:102924009002657402F0783A76037BFF7A3D79B7BA
:03293400123957FE
:01293700227D
:102F920030073D900261E004F0C3940C400FE4F06E
:102FA200900264E004F0D394184002C207900264D5
:102FB200E0FF30E00543801080035380EFEF30E004
:102FC2000543802080035380DFEF30E051023069F7
:102FD200300325900261E004F0C394324012E4F021
:102FE200900264E004F0D394064005C2031200008C
:102FF200438010438020806F300025900261E004FE
:10300200F0C3940C400FE4F0900264E004F0D39417
:10301200104002C200900264E030E0028049805118
:10302200900260E0D394015018900269E07012534C
:1030320080EF5380DF5380BFE4780CF6900250F0AB
:1030420022900250E0FFB40F084380105380DF80CB
:1030520020EFB41E085380EF4380208014EFB43C6D
:103062000A5380EF5380DF438040225380EF538026
:05307200DF5380BF22C6
:103D1500781276029002777401F0900260F0D20179
:103D25005390EF783A7603E070047F0180027F00BC
:0A3D3500122AFA9002657401F022D0
:103B3C00123D15123461300502C205300808C20866
:103B4C00123F0212218A300905C209123158300A7B
:103B5C0005C20A1223E1300B05C20B1225AD300C45
:0E3B6C00D2C20C122F92123C2A12277480C56E
:102E9E0020202020200D0A0041542B4D540D0A00F5
:102EAE0041542B4D410D0A0041542B4D450D0A0046
:102EBE0041542B4D440D0A0041542B43410D0A0041
:102ECE0041542B43420D0A0041542B43430D0A003B
:102EDE0041542B43500D0A0041542B43440D0A001C
:102EEE0041542B435A0D0A0041542B48300D0A0011
:102EFE0041542B48310D0A0041542B48320D0A0023
:102F0E0041542B48330D0A0041542B48340D0A000E
:102F1E0041542B48350D0A0041542B48360D0A00FA
:102F2E0041542B48370D0A0041542B48380D0A00E6
:102F3E0041542B48390D0A0041542B48410D0A00CB
:102F4E0041542B48420D0A0041542B48430D0A00B0
:102F5E0041542B48440D0A0041542B48450D0A009C
:102F6E0041542B48460D0A00000102030607090AC8
:102F7E000C0E0F00010203040404050606070708E1
:042F8E0008090A0A1A
:1039EB007824E670FB7F08900237E4F0A3DFFCE459
:1039FB00FF122A2EFE601674372FF582E43402F57F
:103A0B0083EEF0740129F9E43AFA0F80E4E47828A4
:103A1B00F6782476017828E6062437F582E434021A
:053A2B00F583E0F5F554
:013A30002273
:103CEA00EFC3940B500CEF75F008A4249EF9742EC0
:103CFA0080107812E6902F769375F008A424F6F9CE
:0A3D0A00742E35F0FA7BFF1239EB3E
:013D1400228C
:102DA200201006201103022E9D301012C210900234
:102DB2001A7401F0A37402F0A3743FF08010C211E0
:102DC20090021A7401F0A37402F0A37447F0900207
:102DD2001AE0FBA3E0FAA3E0F9122A2EFFB4491F7E
:102DE200900001122A47FEB44902D213EEB4410206
:102DF200C213EE64586003022E82C213022E82EFC7
:102E0200B44D1C900001122A47FFB44102C214EFD4
:102E12006442706CD2147812E6F47829F68061125A
:102E22002A2EFFB44F12900001122A4764467050B6
:102E3200900260E064028048EF6448704390026050
:052E4200E06402703B9A
:102E4700900001122A47FFD3648094B94005EF240C
:102E5700C9801390021AE0FBA3E0FAA3E0F99000FF
:102E670001122A4724D07812F67812E6D3940F403D
:0B2E770002760F7812E6902F8193F690
:102E8200E4FF90021AE0FBA3E0FAA3E0F98F827557
:0B2E92008300E4122A860FEFB408E76B
:012E9D002212
:10315800122DA2900260E0640260030231EB200F9E
:1031680013782BF6C213C2147812E6F47829F6E421
:10317800900236F0D20F900236E014601D14601CE5
:1031880014601E14601D240470215390EF439002B4
:10319800E58830E603023231800780055390BF800E
:1031A800688066439040123DED80627812E6FF78B1
:1031B80029666009A6077F0B123CEA800D782AE68B
:1031C800FF6007123CEAE4782AF6E58830E21078D6
:1031D8002BE6D39405400443901022782B06225303
:1031E80090EF22300F08E4782BF6900236F0C20FE9
:1031F800900236E014601214601114601014601408
:10320800240470255390EF800480028000900236D9
:10321800E004F022900236E004F0900260E0D394DB
:0A3228000150065390BF123E4822E9
:10373100242424415457510D0A0024242446616352
:10374100746F72792073657474696E670D0A002451
:103751002424576966692072657365740D0A002413
:103761002424456E74657220546573744D6F6465CD
:103771003A302E32330D0A00000004C006010867FA
:103781000A900BE50D560E000050056006A10907D1
:083791000B300C850DF60E0053
:1033B500E490021AF0123EDA90027AEEF0A3EFF0F2
:1033C500C394A0EE940F504AE4FFEF25E02479F56D
:1033D50082E43437F583E493FC740193FD90027A1B
:1033E500E0FAA3E0FBC39DEA9C4022EF25E0248997
:1033F500F582E43437F583E493FC740193FDD3EB54
:103405009DEA9C5008EF0490021AF080050FEFB476
:1034150008B87F05123E7F90021AE0FFB4040AE562
:103425008820E5057408F0802DEFB4010DE58820AE
:10343500E50890021A7409F0801CEFB4020DE588C6
:1034450020E50890021A740AF0800BE58820E5064D
:0B34550090021A7403F090021AE0FFCE
:013460002249
:102CA000E4900278F0900281E0FE6F600EA3E06F86
:102CB0006003EFF022900281EFF022900280E0FFAB
:102CC0006E6003022D4DEF7003022DA190027CE097
:102CD0007003022DA190027CE014F06003022DA18C
:102CE000900280E090027EF0900279E07005900200
:102CF0007804F090027FE014602114603214602F99
:102D000024036003022DA190027F7401F090027EE3
:102D1000E04420F090027C7432F02290027F740232
:102D2000F090027EE04460F090027C7414F02290F7
:102D3000027F7403F090027EE04480F090027C7485
:102D400014F0A3E0C394FA5058E004F022900280FB
:102D5000E0603790027EF0900279E0700590027892
:102D600004F090027FE024FE601014600F240270D3
:102D70001290027EE04440F08009800090027EE0E4
:102D800044C0F0E490027FF08009E4900279F09072
:102D9000027DF090027C7405F0900281E090028048
:022DA000F0221F
:063F02001233B5022CA0F1
:10218A00900278E070030223E090025EE06016E4B9
:10219A00F090027904F0783A7605123D3FE4900215
:1021AA005FF00222F790027EE0122AD421ED41224A
:1021BA002142228843229F4422B74522FF46235FB9
:1021CA0047226C62234566236D6722098122888330
:1021DA00229F84237A8823A38923C18A21EDC100FF
:1021EA000023E090027DE0C3941940030223E078C3
:1021FA003A7605900260E06003023D3F023A319070
:10220A00027DE0641960030223E0783A76057BFFD9
:10221A007A3779310223DD900260E0FF64016004BD
:10222A00EFB40216C201C2179002607403F0900262
:10223A0087E060030223E004F022900260E0640376
:10224A0060030223E0C201301704C2178026C217B6
:10225A00900287E004F0D3940650030223E074014D
:10226A00F022900260E0640360030223E0B21720C8
:10227A001707C20178307618227830761722900232
:10228A0060E0D3940150030223E07812E6940A50E6
:10229A000106C20122900260E0D394015003022396
:1022AA00E07812E6D39401400116C201229002603E
:1022BA00E0D394015009900269E070030223E09090
:1022CA000250E0FF7008780C760F740FF022EFB41A
:1022DA000F0B780C761E900250741EF022EFB41E7B
:1022EA000B780C763C900250743CF022E4780CF6A1
:1022FA00900250F022900260E070030223E0900204
:10230A0069E0B40A028015900277E0700404F08054
:10231A000E900269E004F0D3940940037401F0902E
:10232A000269E0640960030223E0900270F09002FF
:10233A006EF090026CF090026BF022900269E070ED
:10234A00030223E0900277E004F0D39403500302DF
:10235A0023E0E4F022900260E0607B64026077741C
:10236A0002F022900260E06402706B782A760522FD
:10237A0090027DE06432705E900261F0900264F037
:10238A00D20390026004F0783A76057BFF7A3779B7
:10239A003B1239577F0A023CEA90027DE0643270B0
:1023AA0035D207900261F0900264F0783A76057BA4
:1023BA00FF7A377950801C90027DE0B41918D20058
:1023CA00E4900261F0900264F0783A76037BFF7A37
:0723DA003779601239572228
:10323200900276E014F070035398F7900275E01450
:10324200F070035398EF900274E014F070035398F7
:10325200DF900271E014F06003023302900277E023
:10326200FF700A900276F0900275F0805AEFB40176
:103272002290026EE01313543F900276F090026C9B
:10328200E01313543F900275F090026BE013135455
:103292003F8034900277E090026EB40219E0C313CB
:1032A200900276F090026CE0C313900275F09002E7
:1032B2006BE0C3138011E0900276F090026CE09014
:1032C2000275F090026BE0900274F0900260E0B43C
:1032D200020AE58830E10543881080035388EF90A5
:1032E2000276E06003439808900275E06003439819
:1032F20010900274E060034398209002667401F01B
:0133020022A8
:103E6F0090026EEFF090026CEDF090026BEBF0228F
:101EBC0090026FE004F0C394045003022189E49073
:101ECC00026FF0A3E0FF705A90026EE0C394FF50D3
:101EDC0003E004F090026CE0D394004003E014F0B3
:101EEC0090026BE0D394004003E014F090026EE09B
:101EFC00F4600302218990026CE060030221899056
:101F0C00026BE0600302218990027275F001122AC3
:101F1C00A8FCD3E5F0941EEC940050030221890236
:101F2C002123EF6401707490026EE0C394FF5003A0
:101F3C00E004F090026EE0D394FF4003E014F090C4
:101F4C00026CE0C394805003E004F090026CE0D388
:101F5C0094804003E014F090026BE0D394004003B3
:101F6C00E014F090026EE0F4600302218990026CA0
:101F7C00E06480600302218990026BE0600302211F
:101F8C008990027275F001122AA8FED3E5F0941E16
:101F9C00EE94005003022189022123900270E0FF8D
:101FAC006402705B90026EE0C394FF5003E004F097
:101FBC0090026CE0C394FF5003E004F090026BE0DD
:101FCC00D394004003E014F090026EE0F46003023E
:101FDC00218990026CE0F4600302218990026BE08D
:101FEC00600302218990027275F001122AA8FCD3B9
:101FFC00E5F0941EEC94005003022189022123EF9A
:10200C006403705A90026EE0D394004003E014F025
:10201C0090026CE0C394FF5003E004F090026BE07C
:10202C00D394004003E014F090026EE060030221B0
:10203C008990026CE0F4600302218990026BE060ED
:10204C000302218990027275F001122AA8FED3E5D1
:10205C00F0941EEE94005003022189022123900279
:10206C0070E0FF6404705990026EE0D3940040035A
:10207C00E014F090026CE0D394004003E014F09074
:10208C00026BE0C394FF5003E004F090026EE0603A
:10209C000302218990026CE0600302218990026B9B
:1020AC00E0F4600302218990027275F001122AA8F3
:1020BC00FCD3E5F0941EEC94005003022189805768
:1020CC00EF6405706090026EE0D394004003E0145E
:1020DC00F090026CE0C394FF5003E004F090026BAC
:1020EC00E0C394FF5003E004F090026EE060030242
:1020FC00218990026CE0F4600302218990026BE06C
:10210C00F4707A90027275F001122AA8FED3E5F0F1
:10211C00941EEE94004066E4900272F0A3F09002DC
:10212C0070E004F02290026EE0C394FF5003E004D0
:10213C00F090026CE0D394004003E014F090026B3A
:10214C00E0C394FF5003E004F090026EE0B4FF2D66
:10215C0090026CE0702790026BE0B4FF209002724A
:10216C00E475F001122AA8FED3E5F09432EE940047
:0E217C00400BE4900272F0A3F0900270F0228B
:1025AD00900266E07003022773E4900266F09002D9
:1025BD0069E0FFB4091B7811666016E0F6E490023D
:1025CD0070F090026E747FF0E490026CF090026BEC
:1025DD00F0900260E06007900269E0FE7004E4FB99
:1025ED008051EEB401047BFF8021900269E0FEB4BE
:1025FD000205E4FBFD8016EEB40306E4FB7D80804E
:10260D000C900269E0FEB40408E4FB7DFF7FFF80BF
:10261D0034EEB40507E4FB7DFFFF8029900269E0ED
:10262D00FEB406087BFF7DFFE4FF8019EEB40707BB
:10263D007BFFE4FDFF800E900269E0FEB4080C7B89
:10264D00FFE4FD7F80123E6F022749EE640A6003AE
:10265D0002273F90026DE0FFA3F090026AE0FE902A
:10266D00026CF0900268E0FD90026BF0EFB4FF1188
:10267D00EEB4FF0DEDB4FF099002697401F002276D
:10268D004990026DE0B4FF1390026AE0700D900264
:10269D0068E07007A37402F002274990026DE0FF15
:1026AD00B4FF1490026AE0B4800D900268E07007E8
:1026BD00A37403F0022749EFB4FF1390026AE0B44C
:1026CD00FF0C900268E07006A37404F0806E900217
:1026DD006DE0701390026AE0B4FF0C900268E07038
:1026ED0006A37405F0805590026DE0FF7014900202
:1026FD006AE0B4FF0D900268E0B4FF06A37406F023
:10270D00803AEF701390026AE0700D900268E0B4A9
:10271D00FF06A37407F0802490026DE0B4801D9035
:10272D00026AE07017900268E0B4FF10A37408F01D
:10273D00800A900269E0B40903121EBC900269E0A0
:10274D00FF701AEFB40A1690026EE090026DF090D1
:10275D00026CE090026AF0A3E0900268F0900269CA
:07276D00E060037811F62281
:0B3ECF00000102030507090A0C0E0F9A
:0E3E8E00EF903ECF93FFC374169FFF023DD40A
:103DD400201515D215EF14782DF6E4782FF67832E5
:093DE400F653887F782C76C82282
:103303002015030233B4783206E6C3782C965003B3
:103313000233B4E47832F6782FE6B41300400302A4
:1033230033AC90332CF828287302336502336E02D2
:10333300337702338B02337702338B0233770233D3
:103343008B02337702338B02337702338B0233776B
:1033530002338B02337702338B02337702338B02D0
:1033630033A6438880782C76A0804353887F782CBB
:103373007614803A438880782DE630E70518761E68
:10338300802C782C760A802653887F782DE6FF30B0
:10339300E70518760A8004782C761EEF25E0782D51
:1033A300F6800B782C76C8800553887FC215782F5A
:0233B3000622F0
:1023E100900260E06403600302254C2016157831E9
:1023F100F6900287E0F47833F67812E6F4782EF658
:10240100E4A3F0D216900288E01460281460381416
:10241100604A240370495390EF783106E6D394194A
:1024210050030225AC5390FD439040123DEDE478FA
:1024310031022579439802783106E6D3943250036C
:102441000225ACE4022579783106E6D394C850031D
:102451000225AC900288E004F0E4F62202258A7895
:1024610030E6FF60393015030225ACB417097BFF54
:102471007A1D79221239577830E6B41815900287FF
:10248100E075F018A42422F9741D35F0FA7BFF12CF
:1024910039577830E6FF123DD4E47830F6229002C5
:1024A10087E078336660483015030225ACE0FFF61B
:1024B100EF6003B4170ED217783376177BFF7A1DBE
:1024C10079228019900287E0FFD394065012EF75AC
:1024D100F018A42422F9741D35F0FA7BFF12395744
:1024E1007833E6FF123DD4900287E07833F6227903
:1024F10012E7782E6660103015030225AC7812E6DB
:10250100FF782EF6023E8EA201300401B3502978E5
:102511003AE67024A20192043001087BFF7A1D790A
:10252100228012900287E075F018A42422F9741D0C
:1025310035F0FA7BFF023957201708200105781280
:10254100E670045390EF2243901022301605E49078
:102551000288F0C216900288E014601214601C1404
:10256100602E240370452013035390EF801B7831B4
:1025710006E6D394144034E4F6800E783AE6702BE4
:102581007BFF7A1D7922123957900288E004F022EC
:10259100201318900288E004F05398FD900260E047
:0C25A100D3940150065390BF123E482214
:103E1D00757064617465206661696C0075706461AC
:063E2D007465206F6B00BC
:0C3EC30053E13F8FE5E5E154C060FA22B6
:103B7A0090022DEBF0A3EAF0A3E9F0801690022D53
:103B8A00E0FBA3E0FAA3E0F9122A2E6020E5E15453
:103B9A00C060EA53E13F90022DE0FBA3E475F00117
:0E3BAA00122ABEA9F0FA122A2EF5E580D022CA
:1016E80053ABFB53A8E753A9E753AAEFE47817F6DF
:1016F800781AF608F67815F608F6900226F0A3F0A0
:10170800A3F09002897400F0A37468F0E4900222B8
:10171800F0A3F0900222E0FEA3E0FFC3942CEE9425
:10172800015020900289E0FCA3E02FF582EC3EF501
:1017380083E4F0900223E004F070D8900222E004E1
:10174800F080D07F43123EC37817E6B40800400308
:10175800021B4F901762F828287302177A0217FFA6
:1017680002189C0219220219B3021A15021A54020D
:101778001B01E5E130E534900289E0FEA3E0F58243
:101788008E83C083C082781A0806E6188606700120
:101798000614D082D0832582F582E5833EF583E561
:1017A800E5F0E4900226F0A3F0A3F0900289E0FEB1
:1017B800A3E0F5828E83E0B46E25781DE6184660B6
:1017C8000E7BFF7A3E791D123B7AE47817F6227B6E
:1017D800FF7A3E7929123B7A78177606021B5378EE
:1017E8001BE66407700418E664016003021B537863
:1017F8001AF608F6021AFCE4781AF608F690028936
:10180800E0FEA3E0F5828E83E0F9A3E0FE90028972
:10181800E0FCA3E0F5828C83A3A3E0FDAC06900274
:1018280089E0FAA3E0FBF5828A83A3A3A3E0FEEB99
:101838002404F582E43AF583E0FBEBFFE9B4020EF9
:10184800EFF4FFEEF4FEEF6D7002EE6C6003021928
:101858001A7815E6FE08E6FFC3ED9FFFEC9EFEEF43
:1018680064014E6004EF4E7025AE04AF057815A6EE
:101878000608A607E6FEE42400FFEE3440FE9002C8
:1018880029F0A3EFF0D394FFEE947F4004220219CD
:101898001A021AFCE4900224F0A3F0FFFE90022240
:1018A800F0A3F0900222E0FCA3E0FDC3EC94015009
:1018B80034ED2405FDE43CFC900289E0FAA3E02D18
:1018C800F582EA3CF583E0FD900225E02DF09002D8
:1018D80024E03400F0900223E004F070C690022265
:1018E800E004F080BE900289E0FCA3E0FD2405F549
:1018F80082EC3401F583E0FEED2406F582EC340138
:10190800F583E0FDEDFF900224E06E7003A3E06F25
:1019180060057F15021A4E021AFC900229E0FEA308
:10192800E0FF90028AE02405FD900289E03400FA85
:10193800A9057B011235A290022AE02440FF9002FB
:1019480029E03400FE90028AE02445FD900289E0F7
:101958003400FAA9057B011235A290022AE02480FE
:10196800FF900229E03400FE90028AE02485FD9071
:101978000289E03400FAA9057B011235A290022AF7
:10198800E024C0FF900229E03400FE90028AE0249F
:10199800C5FD900289E03400FAA9057B011235A241
:1019A800781DE61618700116021AFCE4900222F05F
:1019B800A3F0900222E0FEA3E0FFC3EE9401504A98
:1019C80090022AE02FFF900229E03EFE123EF3909B
:1019D8000223E02405FD900222E03400FC900289F5
:1019E800E0FAA3E02DF582EA3CF583E06F600B7F17
:1019F80015123EC3E47817F68010900223E004F035
:101A080070B0900222E004F080A8021AFCE4900270
:101A180022F0A3F0900222E0FEA3E0FFC3942CEE94
:101A280094015020900289E0FCA3E02FF582EC3E5F
:101A3800F583E4F0900223E004F070D8900222E0ED
:101A480004F080D07F96123EC3021B4F90022B7485
:101A580001F0A3E4F09002297441F0A3E4F09002AD
:101A68002BE0FEA3E0C394FFEE94034003021AFCAC
:101A7800E4900222F0A3F0900222E0FEA3E0FFC36C
:101A88009440EE9400503790022AE02FFF900229EC
:101A9800E03EFE123EF3900222E0FCA3E0FD90023D
:101AA80089E0FAA3E02DF582EA3CF583EFF0900295
:101AB80023E004F070C1900222E004F080B99002A3
:101AC8002BE0FEA3E0FF900289E0FCA3E0AA04F962
:101AD8007B011235A290022AE02440F0900229E00E
:101AE8003400F090022CE02440F090022BE0340007
:101AF800F0021A667817068052E4900222F0A3F0EA
:101B0800900222E0FEA3E0FFC39440EE940050212F
:101B1800900289E0FCA3E02FF582EC3EF58374AADD
:101B2800F0900223E004F070D7900222E004F080E5
:101B3800CF900289E0FEA3E0AA06F97B017F007E30
:101B4800041235A2020000E47817F6900226E00499
:101B5800F06003021750A3E004F06003021750A3DB
:101B6800E004F0C394025003021750120000021759
:011B7800501C
:101B79007B54696D6553796E63005475726E206F7D
:101B89006E20756E6974005475726E206F666620DA
:101B9900756E6974004770537461005475726E20D4
:101BA9006F6E204254006D7573696320706C6179A2
:101BB900006D757369632070617573650053656C99
:101BC90065637420536F756E642066696C65007B6C
:101BD9004D757369635374617475730041646A75F3
:101BE9007374204F757470757420566F6C756D65BC
:101BF90000766F6C756D6520757000766F6C756D0C
:101C09006520646F776E006D75736963206D7574F7
:101C190065006D7573696320756E6D757465005324
:101C290065742054696D6572005475726E206F6613
:101C3900662054696D6572005475726E206F6E204E
:101C49004C6967687472005475726E206F666620FD
:101C59004C6967687472006C6967687420757000F4
:101C69006C6967687420646F776E004368616E679A
:101C790065206C6967687420636F6C6F72004164DA
:101C89006A757374204C6967687420427269676861
:101C9900746E657373005573657220636F6C6F7230
:101CA900007B50726F6772616D0050726F506C618A
:101CB900790D0A007B416C61726D4F6E4F6666004B
:101CC9007B416C61726D536574007B416C61477037
:101CD900537461007B4E6F724770537461002075B5
:101CE900706461746500415457510D0A005645529C
:101CF9000D0A00242424564552302E32330D0A0091
:101D0900456E74657220546573744D6F64653A004D
:101D19000101020408102040802424247B4D75739E
:101D290069635374617475733A5B30375D7D0D0A6D
:101D3900002424247B4D757369635374617475732E
:101D49003A5B30315D7D0D0A002424247B4D757387
:101D590069635374617475733A5B30325D7D0D0A42
:101D6900002424247B4D75736963537461747573FE
:101D79003A5B30335D7D0D0A002424247B4D757355
:101D890069635374617475733A5B30345D7D0D0A10
:101D9900002424247B4D75736963537461747573CE
:101DA9003A5B30355D7D0D0A002424247B4D757323
:101DB90069635374617475733A5B30365D7D0D0ADE
:101DC900002424247B47705374613A5B30302C30F3
:101DD900302C30302C30302C3030303030302C300A
:101DE900302C30302C30302C30303B30302C3030EF
:101DF9002C30302C3030303030302C30302C3030EA
:101E09002C30302C30302C30303A30302C30305DA2
:101E19007D0D0A002424247B416C61477053746151
:101E29003A5B30302C30302C30302C30302C303084
:101E3900303030302C30302C30302C30302C3030A9
:101E49002C30302C30303A30302C30305D7D0D0A5A
:101E5900002424247B4E6F7247705374613A5B30BF
:101E6900302C30302C30302C30302C303030303079
:101E7900302C30302C30302C30302C30305D7D0D12
:101E89000A002424247B4E6F7247705374613A5BB5
:101E990030302C30302C30302C30302C3030303049
:101EA90030302C30302C30302C30302C30305D7DBF
:031EB9000D0A000F
:1037990090022574FFF0A3741BF07483A3F09002C8
:0937A9001FE0FBA3E0FAA3E0F924
:1037B200900222EBF0A3EAF0A3E9F0900225E0FBED
:1037C200A3E0FAA3E0F9122A2EFF602F900222E072
:1037D200FBA3E0FAA3E0F9122A2EB507056003EF76
:1037E20070037F0122900223E475F001122AA8904F
:0E37F2000226E475F001122AA880C07F002292
:10307700900269EFF09001F9F090021FE0FBA3E0E6
:10308700FAA3E0F9900016122A47FF900017122AB8
:1030970047FD12312D90026DEFF09001FAF090028A
:1030A7001FE0FBA3E0FAA3E0F9900018122A47FFFC
:1030B700900019122A47FD12312D90026AEFF09005
:1030C70001FBF090021FE0FBA3E0FAA3E0F99000F8
:1030D7001A122A47FF90001B122A47FD12312D9022
:1030E7000268EFF09001FCF090021FE0FBA3E0FA0A
:1030F700A3E0F990001D122A47FF90001E122A47ED
:10310700FD123C65900277EFF09001FDF090021FF1
:10311700E0FBA3E0FAA3E0F9900020122A47900011
:0631270021FF122A47FD02
:10312D00C3EF648094C14006EF24C9FF800474D0BE
:10313D002FFFC3ED648094C14006ED24C9FD8004CA
:0B314D0074D02DFDEFC454F04DFF22A4
:053C6000FF122A47FDE0
:103C6500C3EF648094C14006EF24C9FF800474D07B
:103C75002FFFC3ED648094C14006ED24C9FD800487
:0C3C850074D02DFDEF75F00AA42DFF2275
:1036360012369690021BE0FBA3E0FAA3E0241AF9E7
:10364600E43AFA90026DE0FD12369690021BE0FB1A
:10365600A3E0FAA3E0241CF9E43AFA90026AE0FD3A
:1036660012369690021BE0FBA3E0FAA3E0241EF9B3
:10367600E43AFA900268E0FD12369690021BE0FBEF
:10368600A3E0FAA3E09002772421F9E43AFAE0FDF8
:10369600EDC4540FFFC3940AEF400424378002247C
:1036A60030122A74740129F9E43AFAED540FFFC373
:0E36B600940AEF4004243780022430122A7454
:0136C40022E3
:103A31009002607401F0780DE6B403047F03800204
:103A41007F01900260EFF07809E67812F67811E6CE
:103A5100900269F0900277E0FF70067E017F01809D
:103A610000900277EFF0900260E070047F01800225
:053A71007F00022AFAAB
:103C91009002607401F07809E67812F6900277E0FC
:103CA100FF70067E017F018000900277EFF09002A5
:0D3CB10060E070047F0180027F00022AFAAB
:103D3F00900260E0780DF6E4F07812E67809F690DC
:103D4F000269E07811F6E4F0780CF6900250F0700A
:0A3D5F00047F0180027F00022AFAAF
:103CBE00E490025EF0900279F0123D3F783A76057C
:103CCE00900260E070047F0180027F00122AFAE405
:0C3CDE0090025FF0780CF6900250F0228B
:052AFA00900222EFF044
:102AFF007834E670FBE47838F67F64900194E4F064
:102B0F00A3DFFCE4FFEFFD3395E0FC74CA2DF582E3
:102B1F00741D3CF583E493FE74942DF58274013C8F
:102B2F00F583EEF00FEFB452DC7B017A01799F90C1
:102B3F000222E0FD1236967A0179A2900260E0B48B
:102B4F000308900287E0FFFD80027D071236967B17
:102B5F00017A0179A5900269E07003FD80027D0181
:102B6F001236967B017A0179A8900269E0B40904C4
:102B7F007D0180027D001236967B017A0179AB9040
:102B8F00026DE0FD1236967A0179AD90026AE0FD92
:102B9F001236967A0179AF900268E0FD1236967A76
:102BAF000179B2900277E0FD1236967A0179B57805
:102BBF0012E6FD1236967A0179B8A217E433FD12A8
:102BCF0036967A0179BB780CE6FD1236967A017942
:102BDF00BEE4FD1236967A0179C1900258E0FD12DB
:102BEF0036967A0179C4900267E0B409047D0180BA
:102BFF00027D001236967B017A0179C7900255E06B
:102C0F00FD1236967A0179C9900256E0FD1236967A
:102C1F007A0179CB900257E0FD1236967A0179CE80
:102C2F0090025CE0FD1236967A0179D1900259E05C
:102C3F00FD1236967A0179D4900251E0FD12369644
:102C4F007A0179D7900252E0FD1236967A0179DA3D
:102C5F00900253E0FD1236967A0179DD900254E02E
:102C6F00FD1236967A0179E090025DE0FD123696FC
:102C7F00783A7602E47839F6783476017837760A3E
:102C8F007839E6062494F582E43401F583E0F5E51E
:012C9F002212
:0B05260090021BEBF0A3EAF0A3E9F049
:100531002403F9E43AFA90021FEBF0A3EAF0A3E9ED
:10054100F0900260E0700302121190022574FFF036
:10055100A3741BF074791237A5EF707590021FE038
:10056100FBA3E0FAA3E0F990000B122A4790000CDC
:10057100123128780FA60790021FE0FBA3E0FAA32F
:10058100E0F990000E122A47FF90000F12312978EE
:100591000AA60790021FE0FBA3E0FAA3E0F990008E
:1005A10011122A47FF900012123129780EA60790E6
:1005B100021FE0FBA3E0FAA3E0F990001E122A4714
:1005C10024D0780BF6E6901D1993F6E4900265F0BD
:1005D10022123799EF700C900260E0600302097EED
:1005E10002122E90022574FFF0A3741BF0A37490E5
:1005F1001237A6EF701E90021BE0FBA3E0FAA3E006
:10060100F912395790025EE0600302095E783A768A
:1006110003023D3F90022574FFF0A3741BF0A37405
:100621009E1237A6EF70012290022574FFF0A37489
:100631001BF0A374A41237A6EF7009900260740234
:10064100F002097E90022574FFF0A3741BF0A374DD
:10065100AF1237A6EF70179002607403F0C201C2A7
:1006610017F0900287E0700304F0220213F9900260
:100671002574FFF0A3741BF0A374BA1237A6EF70B0
:1006810012900260E0640360030216E7D21778302B
:1006910076172290022574FFF0A3741BF0A374C691
:1006A1001237A6EF704090025EE0600BE4F0A3F019
:1006B100780CF6900250F0C201C2179002607403E8
:1006C100F090021FE0FBA3E0FAA3E0F990001A12F8
:1006D1002A4724D0FF900287F07833E6B5070478E3
:1006E1003076180213A990022574FFF0A3741BF051
:1006F100A374D81237A6EF70012290022574FFF07F
:10070100A3741BF0A374E51237A6EF702390025E69
:10071100E0600302095E90021FE0FBA3E0FAA3E0A0
:10072100F9900014122A47900015123C600207A7A5
:1007310090022574FFF0A3741BF0A374FA1237A67C
:10074100EF702990025EE0600302095E7812E6FF15
:10075100C3940A5013EF94085007E62402FFF68071
:1007610009781206E6FF80027F0A803A900225741A
:10077100FFF0A3741CF0A374041237A6EF7030903D
:10078100025EE0600302095E7812E6FFD394014045
:1007910013EF94034007E624FEFFF6800978121652
:1007A100E6FF80027F017812A607C20102097E904E
:1007B100022574FFF0A3741CF0A374101237A6EF86
:1007C1007003D2012290022574FFF0A3741CF0A3E0
:1007D100741B1237A6EF7003C2012290022574FF29
:1007E100F0A3741CF0A374281237A6EF70259002B1
:1007F1005EE0600302095E90021FE0FBA3E0FAA342
:10080100E0F990000A122A4790000B123C60780C24
:10081100EF801F90022574FFF0A3741CF0A37432C3
:100821001237A6EF701490025EE0600302095EE4E5
:10083100780CF6900250F002097E90022574FFF0C8
:10084100A3741CF0A374411237A6EF702D90025EC1
:10085100E0600BE4F0A3F0780CF6900250F0781110
:10086100E6900269F0700204F0900277E0FF7007F1
:100871007E017F0102097902097990022574FFF056
:10088100A3741CF0A374501237A6EF701190025E8E
:10089100E0600302095EE4900269F002097E9002C1
:1008A1002574FFF0A3741CF0A374601237A6EF70D7
:1008B1001B90025EE0600302095E900277E0C39440
:1008C10003400302097EE004F002097E90022574D0
:1008D100FFF0A3741CF0A374691237A6EF701B908C
:1008E100025EE0600302095E900277E0D39400505B
:1008F1000302097EE014F002097E90022574FFF0E4
:10090100A3741CF0A374741237A6EF703790025EC3
:10091100E0600BE4F0A3F0780CF6900250F0900246
:10092100697409F0E4900270F090026EF090026C2C
:10093100F090026BF0900277E0FF70067E017F017C
:100941008000803490022574FFF0A3741CF0A3741E
:10095100871237A6EF702690025EE06003023CBE6C
:1009610090021FE0FBA3E0FAA3E0F9900018122A1D
:1009710047FF900019123C61900277EFF090022539
:1009810074FFF0A3741CF0A3749F1237A6EF6003E9
:10099100020A1790025EE0600BE4F0A3F0780CF617
:1009A100900250F090021FE0FBA3E0FAA3E0F9905F
:1009B100000B122A47FF90000C12312990026DEFB3
:1009C100F090021FE0FBA3E0FAA3E0F990000D1202
:1009D1002A47FF90000E12312990026AEFF090022F
:1009E1001FE0FBA3E0FAA3E0F990000F122A47FFF2
:1009F100900010123129900268EFF0900269740A98
:100A0100F0900277E0FF70067E017F018000900286
:100A110077EFF00216D990022574FFF0A3741CF051
:100A2100A374AA1237A6EF6003020B0190025EE0E5
:100A3100600BE4F0A3F0780CF6900250F0123D91B7
:100A410090021FE0FBA3E0FAA3E0F990000E122A46
:100A51004724D0900287F09001F8F0900011122AFB
:100A610047FFB431047E0180027E00900269EEF0FE
:100A71009001F9F0EFB4311C90021FE0FBA3E0FA02
:100A8100A3E0F9900014122A47B431047F098006CB
:100A91007F0A80027F001230777812EFF69001FE14
:100AA100F09002607403F09001FFF090021FE0FBF0
:100AB100A3E0FAA3E0F9900024122A4724D024FFEE
:100AC1009217E433900200F0201703C38001D39200
:100AD10001E433900201F02017047F1880027F1790
:100AE1007830A607900026122A47FF90002712317E
:100AF10029780CEFF6900250F0900202F00216D91C
:100B010090022574FFF0A3741CF0A374B31237A6EE
:100B1100EF6003020B9490025EE0600BE4F0A3F03F
:100B2100780CF6900250F09001F8E0900287F09076
:100B310001F9E0900269F09001FAE090026DF09005
:100B410001FBE090026AF09001FCE0900268F090F5
:100B510001FDE0900277F09001FEE07812F6A3E04B
:100B6100900260F0900200E024FF9217201703C367
:100B71008001D39201E433900201F02017047F1821
:100B810080027F177830A607900202E0900250F0B1
:100B91000216D990022574FFF0A3741CF0A374BD52
:100BA1001237A6EF707190021FE0FBA3E0FAA3E0F9
:100BB100F9900011122A4724D0900251F0900013AD
:100BC100122A47FF900014123129780FA6079002CC
:100BD1001FE0FBA3E0FAA3E0F9900016122A47FFF9
:100BE100900017123129780AA60790021FE0FBA393
:100BF100E0FAA3E0F9900019122A47FF90001A12B7
:100C01003129780EA60790021FE0FBA3E0FAA3E0CA
:100C1100F9900026020DE390022574FFF0A3741CE5
:100C2100F0A374C91237A6EF6003020DF490021FFE
:100C3100E0FBA3E0FAA3E0F990000F122A4724D0C9
:100C4100900258F0C394074002E4F0900012122A77
:100C510047FF24D090025BF0EFB4311190001512E0
:100C61002A47B431047F0980067F0A80027F009001
:100C7100025BEFF090021FE0FBA3E0FAA3E0F99022
:100C81000017122A47FF900018123129900255EFE0
:100C9100F090021FE0FBA3E0FAA3E0F99000191223
:100CA1002A47FF90001A123129900256EFF0900264
:100CB1001FE0FBA3E0FAA3E0F990001B122A47FF13
:100CC10090001C123129900257EFF090021FE0FBB7
:100CD100A3E0FAA3E0F990001F122A4724D0900262
:100CE1005CF0900021122A47FF90002212312990D6
:100CF1000259EFF090021FE0FBA3E0FAA3E0F990A4
:100D01000025122A4724D090025AF0900028122A76
:100D11004724D0900251F090002A122A47FF9000F8
:100D21002B123129900252EFF090021FE0FBA3E059
:100D3100FAA3E0F990002D122A47FF90002E1231FC
:100D410029900253EFF090021FE0FBA3E0FAA3E029
:100D5100F9900030122A47FF900031123129900298
:100D610054EFF090021FE0FBA3E0FAA3E0F990003A
:100D710033122A47FF90003412312990025DEFF0BF
:100D810090021FE0FBA3E0FAA3E0F9900036122ADB
:100D910047FF900037123129780FA60790021FE014
:100DA100FBA3E0FAA3E0F9900039122A47FF900073
:100DB1003A123129780AA60790021FE0FBA3E0FA54
:100DC100A3E0F990003C122A47FF90003D1231291F
:100DD100780EA60790021FE0FBA3E0FAA3E0F990CA
:100DE1000049122A4724D0780BF6E6901D1993F694
:100DF1000216D990022574FFF0A3741CF0A374D3DA
:090E01001237A6EF6003020FD2C4
:100E0A0090021EF090021EE0FFC39464501C9002F0
:100E1A001BE0FBA3E0FAA3E0F98F82758300E412DA
:100E2A002A8690021EE004F080DAE490021EF09016
:100E3A00021EE0FF901E1D93FE90021BE0FBA3E042
:100E4A00FAA3E0F98F82758300EE122A8690021EB9
:100E5A00E004F0E0B43ED890021BE0FBA3E0FAA362
:100E6A00E0240EF9E43AFAE4FD12369690021BE009
:100E7A00FBA3E0FAA3E02411F9E43AFA900258E05D
:100E8A00FF6003FD80027D0712369690021BE0FB8D
:100E9A00A3E0FAA3E02414F9E43AFA90025BE070C2
:100EAA0003FD80027D0112369690021BE0FBA3E04F
:100EBA00FAA3E02417F9E43AFA90025BE0B40904D1
:100ECA007D0180027D0012369690021BE0FBA3E0B2
:100EDA00FAA3E0241AF9E43AFA900255E0FD123630
:100EEA009690021BE0FBA3E0FAA3E0241CF9E43A83
:100EFA00FA900256E0FD12369690021BE0FBA3E040
:100F0A00FAA3E0241EF9E43AFA900257E0FD1236F9
:100F1A009690021BE0FBA3E0FAA3E090025C123673
:100F2A008E90021BE0FBA3E0FAA3E02424F9E43A42
:100F3A00FA900259E0FD12369690021BE0FBA3E0FC
:100F4A00FAA3E02427F9E43AFA90025AE0FD1236AD
:100F5A009690021BE0FBA3E0FAA3E0242AF9E43A04
:100F6A00FA900251E0FD12369690021BE0FBA3E0D4
:100F7A00FAA3E0242DF9E43AFA900252E0FD12367F
:100F8A009690021BE0FBA3E0FAA3E02430F9E43ACE
:100F9A00FA900253E0FD12369690021BE0FBA3E0A2
:100FAA00FAA3E02433F9E43AFA900254E0FD123647
:100FBA009690021BE0FBA3E0FAA3E02436F9E43A98
:050FCA00FA90025DE059
:100FCF000210F890022574FFF0A3741CF0A374DDD7
:090FDF001237A6EF6003021103B2
:100FE80090021EF090021EE0FFC39464501C900211
:100FF8001BE0FBA3E0FAA3E0F98F82758300E412FB
:101008002A8690021EE004F080DAE490021EF09036
:10101800021EE0FF901E5A93FE90021BE0FBA3E025
:10102800FAA3E0F98F82758300EE122A8690021ED9
:10103800E004F0E0B430D890021BE0FBA3E0FAA390
:10104800E0240EF9E43AFA7D0112369690021BE08C
:10105800FBA3E0FAA3E02411F9E43AFA900260E075
:10106800B40308900287E0FFFD80027D07123696E0
:1010780090021BE0FBA3E0FAA3E02414F9E43AFA97
:10108800900269E07003FD80027D0112369690029D
:101098001BE0FBA3E0FAA3E02417F9E43AFA900274
:1010A80069E0B409047D0080027D011236369002A1
:1010B8001BE0FBA3E0FAA3E02424F9E43AFA78124F
:1010C800E6FD12369690021BE0FBA3E0FAA3E024AB
:1010D80027F9E43AFAA217E433FD12369690021B78
:1010E800E0FBA3E0FAA3E0242AF9E43AFA780CE654
:0810F800FD123696783A7602EB
:101100000216D990022574FFF0A3741CF0A374E7B3
:101110001237A6EF60030211B590021FE0FBA3E0B7
:10112000FAA3E0F990000A122A47FF90000B12314F
:1011300029EF7F00FEC007C00690021FE0FBA3E07E
:10114000FAA3E0F990000C122A47FF90000D12312B
:1011500029EFFD3395E0FCD0E04CFED0E04D78184F
:10116000A60608F690021FE0FBA3E0FAA3E0F990C0
:101170000011122A47FF900012123129EF7F00FE62
:10118000C007C00690021FE0FBA3E0FAA3E0F990BD
:101190000013122A47FF900014123129EFFD3395F6
:1011A000E0FCD0E04CFED0E04D781CA60608F6121C
:1011B00016E80216D990022574FFF0A3741CF0A360
:1011C00074EF1237A6EF7004783AF6229002257475
:1011D000FFF0A3741CF0A374F61237A6EF7003029D
:1011E00015A290022574FFF0A3741DF0A3740912D8
:1011F00037A6EF60030216D9783AF6900261F090B4
:101200000264F0D20390026004F076057F0A023C8B
:10121000EA123799EF701E90021BE0FBA3E0FAA3DD
:10122000E0F9123957900260E060030216D9783A6B
:101230007603023A3190022574FFF0A3741CF0A3E8
:1012400074411237A6EF702D90021BE0FBA3E0FA69
:10125000A3E0F9123957123C917811E6900269F037
:10126000700204F0900277E0FF70077E017F0102B8
:10127000135102135190022574FFF0A3741CF0A3C4
:1012800074741237A6EF703890021BE0FBA3E0FAEB
:10129000A3E0F9123957123C919002697409F0E405
:1012A000900270F090026EF090026CF090026BF081
:1012B000900277E0FF70067E017F018000021351EB
:1012C00090022574FFF0A3741CF0A3749F1237A63C
:1012D000EF600302135990021BE0FBA3E0FAA3E0C6
:1012E000F9123957123C9190021FE0FBA3E0FAA3D8
:1012F000E0F990000B122A47FF90000C1231299060
:10130000026DEFF090021FE0FBA3E0FAA3E0F9907A
:10131000000D122A47FF90000E12312990026AEF49
:10132000F090021FE0FBA3E0FAA3E0F990000F1297
:101330002A47FF900010123129900268EFF09002C6
:1013400069740AF0900277E0FF70067E017F0180E9
:1013500000900277EFF00216D990022574FFF0A3F7
:10136000741BF0A374C61237A6EF705690021BE0F0
:10137000FBA3E0FAA3E0F9123957123C91C201C273
:10138000179002607403F090021FE0FBA3E0FAA341
:10139000E0F990001A122A4724D0FF900287F078D3
:1013A00033E6B5070478307618783A7601900287EC
:1013B000E075F018A42422F9741D35F0FA7BFF02C1
:1013C00016E490022574FFF0A3741BF0A374AF120F
:1013D00037A6EF702990021BE0FBA3E0FAA3E0F927
:1013E000123957123C919002607403F0C201C21787
:1013F000900287E0700304F0227830761822900281
:101400002574FFF0A3741CF0A374B31237A6EF6029
:101410000302149190021BE0FBA3E0FAA3E0F9128F
:101420003957123C919001F8E0900287F09001F951
:10143000E0900269F09001FAE090026DF09001FBFB
:10144000E090026AF09001FCE0900268F09001FDEB
:10145000E0900277F09001FEE07812F6A3E09002AF
:1014600060F0900200E024FF9217201703C3800170
:10147000D39201E433900201F02017047F18800218
:101480007F177830A607900202E0900250F0021613
:10149000D990022574FFF0A3741CF0A374AA12372C
:1014A000A6EF600302157B90021BE0FBA3E0FAA30A
:1014B000E0F9123957123C91123D9190021FE0FB66
:1014C000A3E0FAA3E0F990000E122A4724D090027C
:1014D00087F09001F8F0900011122A47FFB4310410
:1014E0007E0180027E00900269EEF09001F9F0EF3B
:1014F000B4311C90021FE0FBA3E0FAA3E0F99000D6
:1015000014122A47B431047F0980067F0A80027FC3
:10151000001230777812EFF69001FEF090026074BE
:1015200003F09001FFF090021FE0FBA3E0FAA3E0BC
:10153000F9900024122A4724D024FF9217E4339014
:101540000200F0201703C38001D39201E43390021C
:1015500001F02017047F1880027F177830A60790CB
:101560000026122A47FF900027123129780CEFF647
:10157000900250F0900202F00216D990022574FFFA
:10158000F0A3741BF0A3749E1237A6EF7001229093
:10159000022574FFF0A3741CF0A374F61237A6EFB3
:1015A00070097BFF7A1C79FC0216E490022574FF17
:1015B000F0A3741CF0A374DD1237A6EF60030216CB
:0115C000D951
:1015C10090021EF090021EE0FFC39464501C900232
:1015D1001BE0FBA3E0FAA3E0F98F82758300E4121C
:1015E1002A8690021EE004F080DAE490021EF09058
:1015F100021EE0FF901E8B93FE90021BE0FBA3E016
:10160100FAA3E0F98F82758300EE122A8690021EFA
:10161100E004F0E0B430D890021BE0FBA3E0FAA3B1
:10162100E0240EF9E43AFAE4FD12369690021BE04A
:10163100FBA3E0FAA3E02411F9E43AFA900260E096
:10164100B40308900287E0FFFD80027D0712369601
:1016510090021BE0FBA3E0FAA3E02414F9E43AFAB8
:10166100900269E07003FD80027D011236969002BE
:101671001BE0FBA3E0FAA3E02417F9E43AFA900295
:1016810069E0B409047D0080027D011236369002C2
:101691001BE0FBA3E0FAA3E02424F9E43AFA781270
:1016A100E6FD12369690021BE0FBA3E0FAA3E024CC
:1016B10027F9E43AFAA217E433FD12369690021B99
:1016C100E0FBA3E0FAA3E0242AF9E43AFA780CE675
:0816D100FD123696783A76020C
:0E16D90090021BE0FBA3E0FAA3E0F9123957E0
:0116E70022E0
:103D9100780E7C027D017B017A0279037E007F0B24
:103DA100122A0878037C027D017B017A0179F87E71
:063DB100007F0B022A084E
:0D3EB600E4F5FDF5FEF5FA75FB40F5FC2284
:033F0800020000B4
:103D6900E4FE7DA2EF600E74832EF582E43402F541
:103D790083EDF0800C74832EF582E43402F583E43C
:073D8900F00D0EEEB404DDA5
:013D90002210
:083EEB0075FE01000000002239
:103BF300AD07AC06E4F5FAECF5FBAF058FFC75FDFC
:103C0300A5900283E064A27018A3E0B4A313A3E019
:103C1300B4A40EA3E0B4A50975FE03000000008060
:073C230003123F08023EB648
:10390800AD07AC067F007E80123EEBE4FBEF2BF5A3
:1039180082E43EF583E4F00BEBB440F1E4F5FAEC15
:10392800F5FBAF058FFC75FDA5900283E064A270DE
:1039380018A3E0B4A313A3E0B4A40EA3E0B4A509AC
:0F39480075FE02000000008003123F08023EB629
:0B35A20090022DEBF0A3EAF0A3E9F08B
:1035AD00E4900231F0A37480F0A3E4F0A3EEF0A355
:1035BD00EFF053A87F7F01123D69900234E0FEA326
:1035CD00E0FF123908123EEBE4900230F090022D2C
:1035DD00E0FBA3E0FAA3E0F9900231E0FF04F08FE5
:1035ED0082758300122A47FF900230E0FE9002326E
:1035FD00E0FCA3E02EF582E43CF583EFF090023081
:10360D00E004F0E0B440C6900234E0FEA3E0FF1207
:10361D003BF3E4FF123D69900235E02440F0900247
:08362D0034E03400F043A880F2
:013635002272
:073EF3008F828E83E493FF30
:013EFA0022A5
:1001000090021B7400F0A37468F0A37480F0A3E461
:10011000F090021AF090021AE0FFC394405016A328
:10012000E0FCA3E02FF582E43CF583E4F090021AB2
:10013000E004F080E09002217404F0A3E4F0900267
:100140001AF090021AE0FFC394405034900221E06C
:10015000FCA3E0F5828C83E493FE90021BE0FCA3F9
:10016000E02FF582E43CF583EEF0900222E004F00B
:100170007006900221E004F090021AE004F080C2C0
:1001800090021BE0FEA3E0FFF5828E83E064AA608C
:100190000302036FA3A3E064AA600302036F90024B
:1001A0001BA3E02404F582E43EF583E064AA600327
:1001B00002036FEF2406F582E43EF583E064AA6053
:1001C0000302036F53A87F90021FF0A3F0A37440B3
:1001D00002036890021FE0FEA3E0FDAC06E490027B
:1001E0001AF090021AE0F9C39440400302026D90A5
:1001F000021FE0FEA3E0FFC3EE94004009D3EF949A
:1002000000EE9404400FC3EE94054045D3EF94FFF5
:10021000EE943F503C900221E0FEA3E0F5828E83F5
:10022000E493FF90021BE0FAA3E029F582E43AF59B
:1002300083EFF0900222E004F07006900221E004C7
:10024000F0900220E004F0701B90021FE004F080A8
:100250001390021AE0FFA3E0FAA3E02FF582E43A3C
:10026000F583E4F090021AE004F00201E275FE0169
:1002700000000000E490021AF090021AE0FFC3941C
:1002800040501890021DE0FAA3E02FF582E43AF501
:1002900083E4F090021AE004F080DEE4F5FAECF575
:1002A000FB8DFC75FDA50000000075FE020000003E
:1002B00000E4F5FDF5FEF5FA75FB05F5FC75FE01AC
:1002C0000000000090021AF090021AE0F9A3E0FE8C
:1002D000A3E029F582E43EF583E0FF90021DE0FAF9
:1002E000A3E029F582E43AF583EFF090021AE004E6
:1002F000F0E0B440D3E4F5FAECF5FBAF058FFC7504
:10030000FDA50000000075FE0300000000E4F5FDFF
:10031000F5FEF5FA75FB05F5FC90021FE0FEA3E083
:10032000FFC3EE9404400CD3EF9400EE9405500309
:1003300012000090021FE0FEA3E0B40014EEB4012E
:100340001090021F7405F0A3E4F0A37445F0A3E439
:10035000F090021FE0FEA3E0C394FFEE943F500331
:100360000201D390021F7404F0A3E4F00201D3123F
:05037000050043A88018
:010375002265
:103957007834E670FBE47838F67F64900194E4F0FD
:10396700A3DFFCE4FF122A2EFE601674942FF58263
:10397700E43401F583EEF0740129F9E43AFA0F8093
:10398700E4E47839F6783476017837760A7839E6D8
:0D399700062494F582E43401F583E0F5E5A3
:0139A4002200
:103C2A00783AE660307838E6B414277834E670FBE0
:103C3A00783A16E47838F608F678347601783776E2
:103C4A000A7839E6062494F582E43401F583E0F52E
:063C5A00E5227838062285
:10346100900002E0FEA3E0FF900000E06E7003A375
:10347100E06F70030235077836760A900002E0FEAD
:10348100A3E0FF2468F58274003EF583E0FD18E6B1
:103491002404F582E43400F583EDF074682FF5829D
:1034A10074003EF583E4F090000275F001122AA841
:1034B100FEC3E5F0942CEE94014007E4900002F085
:1034C100A3F07835E6062404F582E43400F583E0C0
:1034D100640A708C7B017A007904120526E4783540
:1034E100F690021AF090021AE0FFC39464400302BE
:1034F100346174042FF582E43400F583E4F0900222
:063501001AE004F080DF77
:0135070022A1
:10352200020500E493A3F8E493A34003F68001F2BA
:1035320008DFF48029E493A3F85407240CC8C333AA
:10354200C4540F4420C8834004F456800146F6DF79
:10355200E4800B0102040810204080903F0BE47EBF
:10356200019360BCA3FF543F30E509541FFEE4936E
:10357200A360010ECF54C025E060A840B8E493A335
:10358200FAE493A3F8E493A3C8C582C8CAC583CA60
:10359200F0A3C8C582C8CAC583CADFE9DEE780BE18
:013F0B0000B5
:10293800E709F608DFFA8046E709F208DFFA803E81
:1029480088828C83E709F0A3DFFA8032E309F6086E
:10295800DFFA8078E309F208DFFA807088828C83D6
:10296800E309F0A3DFFA806489828A83E0A3F6088A
:10297800DFFA805889828A83E0A3F208DFFA804C64
:1029880080D280FA80C680D4806980F2803380103B
:1029980080A680EA809A80A880DA80E280CA8033A4
:1029A80089828A83ECFAE493A3C8C582C8CCC5831C
:1029B800CCF0A3C8C582C8CCC583CCDFE9DEE780EC
:1029C8000D89828A83E493A3F608DFF9ECFAA9F06B
:1029D800EDFB2289828A83ECFAE0A3C8C582C8CCC1
:1029E800C583CCF0A3C8C582C8CCC583CCDFEADEDA
:1029F800E880DB89828A83E493A3F208DFF980CC3C
:102A080088F0EF60010E4E60C388F0ED2402B40434
:102A18000050B9F582EB2402B4040050AF232345DB
:062A28008223902988734F
:102A2E00BB010689828A83E0225002E722BBFE02A6
:092A3E00E32289828A83E49322D9
:102A4700BB010CE58229F582E5833AF583E0225044
:102A570006E92582F8E622BBFE06E92582F8E2228E
:0D2A6700E58229F582E5833AF583E49322A8
:102A7400BB010689828A83F0225002F722BBFE0141
:022A8400F3223B
:102A8600F8BB010DE58229F582E5833AF583E8F086
:102A9600225006E92582C8F622BBFE05E92582C832
:022AA600F2221A
:102AA800C5F0F8A3E028F0C5F0F8E58215827002B9
:062AB8001583E038F02256
:102ABE00A3F8E0C5F025F0F0E582158270021583CB
:062ACE00E0C838F0E82228
:102AD400D083D082F8E4937012740193700DA3A391
:102AE40093F8740193F5828883E4737402936860A5
:062AF400EFA3A3A380DFA5
:00000001FF
