:030000000233C305
:1033C30078FFE4F6D8FD9000007F007E03E4F0A3CD
:0A33D300DFFCDEFA75813A0201000A
:1005000053A87F12376E123C64123D5A123D4212BC
:100510003CFB123C92123CBB123D0843A8801239AE
:06052000AD12010080FE97
:03001B000235802B
:0F358000C0E0C083C082C0D075D000C000C007BB
:10358F00AFF553F1DF7825760A300E237827E6C39F
:10359F009408500DE606243FF582E43402F583EFDC
:1035AF00F0EF640A702A7827F6D210B20E802178D5
:1035BF0027E6C39408500DE6062447F582E434024B
:1035CF00F583EFF0EFB40A0878277600D211B20E28
:0D35DF00D007D000D0D0D082D083D0E03211
:030023000238E7B9
:1038E700C0E0C083C082C0D075D000C00053F17F54
:1038F7007824E660247826760A7828E6062437F5C1
:1039070082E43402F583E0F5F5E62437F582E43402
:1039170002F583E070037824F6D000D0D0D082D0AF
:0439270083D0E03237
:03004B0002371366
:10371300C0E0C0F0C083C082C0D075D000C000C07C
:0537230004C006C00710
:10372800AFE553E1DF900000E0FCA3E02468F582F8
:1037380074003CF583EFF0900000E475F001122767
:10374800B9FEC3E5F0942CEE94014007900000E424
:03375800F0A3F0EB
:10375B00D007D006D004D000D0D0D082D083D0F008
:03376B00D0E03279
:0300530002392B44
:10392B00C0E0C083C082C0D075D000C00053E17F1F
:10393B007834E660247837760A7839E6062494F5ED
:10394B0082E43401F583E0F5E5E62494F582E43472
:10395B0001F583E070037834F6D000D0D0D082D05C
:04396B0083D0E032F3
:03006B00023A292D
:103A2900C0E0C0F0C083C082C0D075D000C000C063
:103A390001C002C003C004C005C006C0071236B6E3
:103A4900D007D006D005D004D003D002D001D000D1
:0B3A5900D0D0D082D083D0F0D0E0327B
:0300830002396FD0
:10396F00C0E0C0F0C083C082C0D075D000C000C01E
:10397F0001C002C003C004C005C006C0071230ED6D
:10398F001231BED007D006D005D004D003D002D05C
:0E399F0001D000D0D0D082D083D0F0D0E03262
:0300A30002385BC5
:10385B00C0E0C0D075D000C000C007B20230022D4E
:10386B00780E06E6D3943B40247600780A06E6D31E
:10387B00943B40197600780F06E6D39417400E76EA
:10388B0000780BE625E0FFF6BF80027601D007D06B
:06389B0000D0D0D0E032A5
:083D3900AF9FEFFEAD9EEDFF10
:013D4100225F
:073D5A00759C80759D072296
:0F3CDE00EF540FFFE59C54F04FF59C439C4022A0
:083D4200E4F59AF599F59B22C6
:0D3CFB0075B28875B45D43AA0243B2012280
:103C9200901000748AF0A3744AF043AA10901000A6
:053CA200E04401F022E6
:103CBB0075DA0275D90643DAECE4F5DB75E30C43F0
:033CCB00A9182213
:103C4C0020181275EA0275E90643EAECE4F5EB7507
:083C5C00F34D43A818D2182211
:103CA70030180EE4F5EAF5E9F5EAF5EBF5F353A874
:043CB700E7C2182226
:0D3D080075968875890175898143AB042289
:103C640090103874A8F075C80A758B09E58B30E795
:083C7400FB758A0143C805221B
:10376E0075A17FE4F5ACF591F5DEF58075B1987530
:10377E00AD20F592F5DFF58875B9FFF5AEF593F549
:10378E009075C1FEF5AFF59875C9FEF5A3F594F5E4
:10379E00A075D1FFF595F5B075D320F5D2F5D57599
:1037AE00D403F5D775D603F5EE75EF0A75FF2D2206
:103C160024242454696D652073796E630D0A00248B
:0D3C26002424416C61726D2075700D0A0040
:1036B600D2057813E6FF7002D208EFB40102D209F0
:1036C600EFB40202D20AEFB40302D20BEFB4040243
:1036D600D20CEFB40502D20DEF64067024783716CB
:1036E600E670037834F6783616E670037835F678A1
:1036F6002616E670037824F6782516E670037827F2
:0D370600F6781306E6C3940A4002E4F622AA
:10280B00780EE6FF78146670030229B4A6079002CF
:10281B005FE0601990024FE004F0D3940A400EE49D
:10282B00F0900259E0FF7812E69F50010690026586
:10283B00E0B40121900263E004F0E0C3940A401578
:10284B00E4F0783A76037BFF7A3C791612380D90D8
:10285B0002657402F0780AE6FF78106670030229AD
:10286B00B4A607780CE6601F16E6701B123BF6E465
:10287B0090025EF0783A7603900260E070047F017C
:10288B0080027F001229B590025FE0601F14F07088
:10289B001B123BF6E490025EF0783A7605900260EC
:1028AB00E070047F0180027F001229B5900251E095
:1028BB0064016003022966900253E0780F6660039F
:1028CB00022966A3E0780A66600302296690025229
:1028DB00E0FF08E6FEEF5E7003022966EF20E706D5
:1028EB00EEF4FEEF5EF078127601C201E490024F37
:1028FB00F090025E04F09002607403F0900255E0D9
:10290B0090026DF0900256E090026AF0900257E050
:10291B00900268F0900258E0900287F090025AE023
:10292B0024FF9217A3E0900269F090025CE0900202
:10293B0077F090025DE090025FF0780CF690025019
:10294B00F0740370047F0180027F001229B5783A7E
:10295B0076037BFF7A3C792512380D900265E0B443
:10296B00021B900263E004F0E0C39402400FE4F01A
:10297B00783A76037BFF7A3C791612380D780FE69E
:10298B00FF7808666023A607900262E004F0E0C3BC
:10299B0094184015E4F09002657402F0783A7603CF
:0929AB007BFF7A3C791612380D0D
:0129B4002200
:102E4D0030073D900261E004F0C3940C400FE4F0B4
:102E5D00900264E004F0D394184002C2079002641B
:102E6D00E0FF30E00543801080035380EFEF30E04A
:102E7D000543802080035380DFEF30E051022F2483
:102E8D00300325900261E004F0C394324012E4F067
:102E9D00900264E004F0D394064005C203120000D2
:102EAD00438010438020806F300025900261E00444
:102EBD00F0C3940C400FE4F0900264E004F0D3945E
:102ECD00104002C200900264E030E002804980515F
:102EDD00900260E0D394015018900269E070125393
:102EED0080EF5380DF5380BFE4780CF6900250F0F2
:102EFD0022900250E0FFB40F084380105380DF8012
:102F0D0020EFB41E085380EF4380208014EFB43CB3
:102F1D000A5380EF5380DF438040225380EF53806C
:052F2D00DF5380BF220C
:103B5900781276029002777401F0900260F0D20137
:103B69005390EF783A7603E070047F0180027F007A
:0A3B79001229B59002657401F022D4
:1039AD00123B5912331C300502C205300808C208FB
:1039BD00123D6112203F300905C209123013300A41
:1039CD0005C20A1222B6300B05C20B122482300C2E
:0E39DD00D2C20C122E4D123A9B12280B80C53E
:102D590020202020200D0A0041542B4D540D0A003B
:102D690041542B4D410D0A0041542B4D450D0A008C
:102D790041542B4D440D0A0041542B43410D0A0087
:102D890041542B43420D0A0041542B43430D0A0081
:102D990041542B43500D0A0041542B43440D0A0062
:102DA90041542B435A0D0A0041542B48300D0A0057
:102DB90041542B48310D0A0041542B48320D0A0069
:102DC90041542B48330D0A0041542B48340D0A0055
:102DD90041542B48350D0A0041542B48360D0A0041
:102DE90041542B48370D0A0041542B48380D0A002D
:102DF90041542B48390D0A0041542B48410D0A0012
:102E090041542B48420D0A0041542B48430D0A00F6
:102E190041542B48440D0A0041542B48450D0A00E2
:102E290041542B48460D0A00000102030607090A0E
:102E39000C0E0F0001020304040405060607070827
:042E490008090A0A60
:1038A1007824E670FB7F08900237E4F0A3DFFCE4A4
:1038B100FF12273FFE601674372FF582E43402F5BC
:1038C10083EEF0740129F9E43AFA0F80E4E47828F0
:1038D100F6782476017828E6062437F582E4340266
:0538E100F583E0F5F5A0
:0138E60022BF
:103B2E00EFC3940B500CEF75F008A42459F9742DC3
:103B3E0080107812E6902E319375F008A424B1F916
:0A3B4E00742D35F0FA7BFF1238A148
:013B5800224A
:102C5D00201006201103022D58301012C2109002C0
:102C6D001A7401F0A37402F0A3743FF08010C21126
:102C7D0090021A7401F0A37402F0A37447F090024D
:102C8D001AE0FBA3E0FAA3E0F912273FFFB4491FB6
:102C9D00900001122758FEB44902D213EEB441023E
:102CAD00C213EE64586003022D3DC213022D3DEF99
:102CBD00B44D1C900001122758FFB44102C214EF0D
:102CCD006442706CD2147812E6F47829F6806112A1
:102CDD00273FFFB44F1290000112275864467050E1
:102CED00900260E064028048EF6448704390026097
:052CFD00E06402703BE1
:102D0200900001122758FFD3648094B94005EF2444
:102D1200C9801390021AE0FBA3E0FAA3E0F9900045
:102D22000112275824D07812F67812E6D3940F4075
:0B2D320002760F7812E6902E3C93F61C
:102D3D00E4FF90021AE0FBA3E0FAA3E0F98F82759D
:0B2D4D008300E41227970FEFB408E7A3
:012D58002258
:10301300122C5D900260E0640260030230A6200F70
:1030230013782BF6C213C2147812E6F47829F6E467
:10303300900236F0D20F900236E014601D14601C2B
:1030430014601E14601D240470215390EF439002FA
:10305300E58830E6030230EC800780055390BF809B
:10306300688066439040123C4C80627812E6FF7899
:1030730029666009A6077F0B123B2E800D782AE68E
:10308300FF6007123B2EE4782AF6E58830E21078D9
:103093002BE6D39405400443901022782B06225349
:1030A30090EF22300F08E4782BF6900236F0C20F2F
:1030B300900236E01460121460111460101460144E
:1030C300240470255390EF80048002800090023620
:1030D300E004F022900236E004F0900260E0D39422
:0A30E3000150065390BF123CA722D3
:10365300242424415457510D0A0024242446616331
:10366300746F72792073657474696E670D0A002430
:103673002424576966692072657365740D0A0024F2
:103683002424456E74657220546573744D6F6465AC
:103693000D0A00000004C0060108670A900BE50D3F
:1036A300560E000050056006A109070B300C850D6E
:0336B300F60E0010
:10327000E490021AF0123D3990027AEEF0A3EFF0DA
:10328000C394A0EE940F504AE4FFEF25E02496F596
:1032900082E43436F583E493FC740193FD90027A62
:1032A000E0FAA3E0FBC39DEA9C4022EF25E024A6C0
:1032B000F582E43436F583E493FC740193FDD3EB9B
:1032C0009DEA9C5008EF0490021AF080050FEFB4BD
:1032D00008B87F05123CDE90021AE0FFB4040AE54C
:1032E0008820E5057408F0802DEFB4010DE58820F5
:1032F000E50890021A7409F0801CEFB4020DE5880D
:1033000020E50890021A740AF0800BE58820E50693
:0B33100090021A7403F090021AE0FF14
:01331B00228F
:102B5B00E4900278F0900281E0FE6F600EA3E06FCC
:102B6B006003EFF022900281EFF022900280E0FFF1
:102B7B006E6003022C08EF7003022C5C90027CE069
:102B8B007003022C5C90027CE014F06003022C5C5E
:102B9B00900280E090027EF0900279E07005900246
:102BAB007804F090027FE014602114603214602FDF
:102BBB0024036003022C5C90027F7401F090027E70
:102BCB00E04420F090027C7432F02290027F740279
:102BDB00F090027EE04460F090027C7414F022903E
:102BEB00027F7403F090027EE04480F090027C74CC
:102BFB0014F0A3E0C394FA5058E004F02290028042
:102C0B00E0603790027EF0900279E07005900278D8
:102C1B0004F090027FE024FE601014600F24027019
:102C2B001290027EE04440F08009800090027EE02A
:102C3B0044C0F0E490027FF08009E4900279F090B8
:102C4B00027DF090027C7405F0900281E09002808E
:022C5B00F02265
:063D6100123270022B5B20
:10203F00900278E070030222B590025EE06025E422
:10204F00F090027904F0123BF6783A760590026030
:10205F00E070047F0180027F001229B5E490025FD7
:10206F00F00221CC90027EE01227E520B14120F64C
:10207F0042215D43217444218C4521D446223447AB
:10208F00214162221A6622426720DE81215D83216F
:10209F007484224F8822788922968A20B1C1000049
:1020AF0022B590027DE0C3941940030222B590023D
:1020BF0060E06005123BF68003123BD1783A76055B
:1020CF00900260E070047F0180027F000229B590CA
:1020DF00027DE0641960030222B5783A76057BFF32
:1020EF007A3679530222B2900260E0FF64016004F5
:1020FF00EFB40216C201C2179002607403F090028F
:10210F0087E060030222B504F022900260E06403CE
:10211F0060030222B5C201301704C2178026C2170E
:10212F00900287E004F0D3940650030222B57401A5
:10213F00F022900260E0640360030222B5B2172020
:10214F001707C2017830761822783076172290025E
:10215F0060E0D3940150030222B57812E6940A503E
:10216F000106C20122900260E0D3940150030222C3
:10217F00B57812E6D39401400116C2012290026095
:10218F00E0D394015009900269E070030222B590E8
:10219F000250E0FF7008780C760F740FF022EFB446
:1021AF000F0B780C761E900250741EF022EFB41EA7
:1021BF000B780C763C900250743CF022E4780CF6CD
:1021CF00900250F022900260E070030222B590025C
:1021DF0069E0B40A028015900277E0700404F08081
:1021EF000E900269E004F0D3940940037401F0905B
:1021FF000269E0640960030222B5900270F0900258
:10220F006EF090026CF090026BF022900269E07019
:10221F00030222B5900277E004F0D3940350030237
:10222F0022B5E4F022900260E0607B640260777474
:10223F0002F022900260E06402706B782A76052229
:10224F0090027DE06432705E900261F0900264F063
:10225F00D20390026004F0783A76057BFF7A3679E4
:10226F005D12380D7F0A023B2E90027DE0643270C2
:10227F0035D207900261F0900264F0783A76057BD0
:10228F00FF7A367972801C90027DE0B41918D20063
:10229F00E4900261F0900264F0783A76037BFF7A63
:0722AF0036798212380D227E
:1030ED00900276E014F070035398F7900275E01497
:1030FD00F070035398EF900274E014F0700353983E
:10310D00DF900271E014F060030231BD900277E0B0
:10311D00FF700A900276F0900275F0805AEFB401BC
:10312D002290026EE01313543F900276F090026CE1
:10313D00E01313543F900275F090026BE01313549B
:10314D003F8034900277E090026EB40219E0C31311
:10315D00900276F090026CE0C313900275F090022D
:10316D006BE0C3138011E0900276F090026CE0905A
:10317D000275F090026BE0900274F0900260E0B482
:10318D00020AE58830E10543881080035388EF90EB
:10319D000276E06003439808900275E0600343985F
:1031AD0010900274E060034398209002667401F061
:0131BD0022EF
:103CCE0090026EEFF090026CEDF090026BEBF02232
:101D710090026FE004F0C39404500302203EE4900B
:101D8100026FF0A3E0FF705A90026EE0C394FF501F
:101D910003E004F090026CE0D394004003E014F0FF
:101DA10090026BE0D394004003E014F090026EE0E7
:101DB100F4600302203E90026CE0600302203E903A
:101DC100026BE0600302203E90027275F00112275F
:101DD100B9FCD3E5F0941EEC9400500302203E02BE
:101DE1001FD8EF6401707490026EE0C394FF50033A
:101DF100E004F090026EE0D394FF4003E014F09011
:101E0100026CE0C394805003E004F090026CE0D3D4
:101E110094804003E014F090026BE0D394004003FF
:101E2100E014F090026EE0F4600302203E90026C38
:101E3100E06480600302203E90026BE060030220B8
:101E41003E90027275F0011227B9FED3E5F0941E9F
:101E5100EE9400500302203E021FD8900270E0FF72
:101E61006402705B90026EE0C394FF5003E004F0E3
:101E710090026CE0C394FF5003E004F090026BE029
:101E8100D394004003E014F090026EE0F46003028A
:101E9100203E90026CE0F4600302203E90026BE071
:101EA100600302203E90027275F0011227B9FCD343
:101EB100E5F0941EEC9400500302203E021FD8EF7F
:101EC1006403705A90026EE0D394004003E014F072
:101ED10090026CE0C394FF5003E004F090026BE0C9
:101EE100D394004003E014F090026EE060030220FE
:101EF1003E90026CE0F4600302203E90026BE060D1
:101F01000302203E90027275F0011227B9FED3E55B
:101F1100F0941EEE9400500302203E021FD890025E
:101F210070E0FF6404705990026EE0D394004003A6
:101F3100E014F090026CE0D394004003E014F090C0
:101F4100026BE0C394FF5003E004F090026EE06086
:101F51000302203E90026CE0600302203E90026B7F
:101F6100E0F4600302203E90027275F0011227B97D
:101F7100FCD3E5F0941EEC9400500302203E805700
:101F8100EF6405706090026EE0D394004003E014AA
:101F9100F090026CE0C394FF5003E004F090026BF8
:101FA100E0C394FF5003E004F090026EE06003028E
:101FB100203E90026CE0F4600302203E90026BE050
:101FC100F4707A90027275F0011227B9FED3E5F030
:101FD100941EEE94004066E4900272F0A3F0900229
:101FE10070E004F02290026EE0C394FF5003E0041D
:101FF100F090026CE0D394004003E014F090026B87
:10200100E0C394FF5003E004F090026EE0B4FF2DB2
:1020110090026CE0702790026BE0B4FF2090027296
:10202100E475F0011227B9FED3E5F09432EE940085
:0E203100400BE4900272F0A3F0900270F022D7
:10248200900266E07003022648E4900266F0900231
:1024920069E0FFB4091B7811666016E0F6E4900269
:1024A20070F090026E747FF0E490026CF090026B18
:1024B200F0900260E06007900269E0FE7004E4FBC5
:1024C2008051EEB401047BFF8021900269E0FEB4EA
:1024D2000205E4FBFD8016EEB40306E4FB7D80807A
:1024E2000C900269E0FEB40408E4FB7DFF7FFF80EC
:1024F20034EEB40507E4FB7DFFFF8029900269E01A
:10250200FEB406087BFF7DFFE4FF8019EEB40707E7
:102512007BFFE4FDFF800E900269E0FEB4080C7BB5
:10252200FFE4FD7F80123CCE02261EEE640A6003A9
:1025320002261490026DE0FFA3F090026AE0FE9082
:10254200026CF0900268E0FD90026BF0EFB4FF11B4
:10255200EEB4FF0DEDB4FF099002697401F002269A
:102562001E90026DE0B4FF1390026AE0700D9002BB
:1025720068E07007A37402F002261E90026DE0FF6D
:10258200B4FF1490026AE0B4800D900268E0700714
:10259200A37403F002261EEFB4FF1390026AE0B4A4
:1025A200FF0C900268E07006A37404F0806E900243
:1025B2006DE0701390026AE0B4FF0C900268E07064
:1025C20006A37405F0805590026DE0FF701490022E
:1025D2006AE0B4FF0D900268E0B4FF06A37406F04F
:1025E200803AEF701390026AE0700D900268E0B4D6
:1025F200FF06A37407F0802490026DE0B4801D9062
:10260200026AE07017900268E0B4FF10A37408F049
:10261200800A900269E0B40903121D71900269E018
:10262200FF701AEFB40A1690026EE090026DF090FD
:10263200026CE090026AF0A3E0900268F0900269F6
:07264200E060037811F622AD
:0B3D2E00000102030507090A0C0E0F3C
:0E3CED00EF903D2E93FFC374169FFF023C33F1
:103C3300201515D215EF14782DF6E4782FF6783287
:093C4300F653887F782C76C82224
:1031BE0020150302326F783206E6C3782C96500340
:1031CE0002326FE47832F6782FE6B4130040030231
:1031DE0032679031E7F82828730232200232290232
:1031EE003232023246023232023246023232023279
:1031FE004602323202324602323202324602323255
:10320E000232460232320232460232320232460274
:10321E003261438880782C76A0804353887F782C47
:10322E007614803A438880782DE630E70518761EAE
:10323E00802C782C760A802653887F782DE6FF30F6
:10324E00E70518760A8004782C761EEF25E0782D97
:10325E00F6800B782C76C8800553887FC215782FA0
:02326E00062236
:1022B600900260E064036003022421201615783141
:1022C600F6900287E0F47833F67812E6F4782EF684
:1022D600E4A3F0D216900288E01460281460381443
:1022E600604A240370495390EF783106E6D3941977
:1022F60050030224815390FD439040123C4CE478F5
:102306003102244E439802783106E6D394325003C4
:10231600022481E402244E783106E6D394C85003A1
:10232600022481900288E004F0E4F62202245F7819
:1023360030E6FF6039301503022481B417097BFFAC
:102346007A1B79D712380D7830E6B41815900287C3
:10235600E075F018A424D7F9741B35F0FA7BFF1248
:10236600380D7830E6FF123C33E47830F6229002DE
:1023760087E07833666048301503022481E0FFF673
:10238600EF6003B4170ED217783376177BFF7A1BEC
:1023960079D78019900287E0FFD394065012EF7523
:1023A600F018A424D7F9741B35F0FA7BFF12380D08
:1023B6007833E6FF123C33900287E07833F62279D1
:1023C60012E7782E6660103015030224817812E633
:1023D600FF782EF6023CEDA201300401B3502978B5
:1023E6003AE67024A20192043001087BFF7A1B7939
:1023F600D78012900287E075F018A424D7F9741BD1
:1024060035F0FA7BFF02380D2017082001057812F7
:10241600E670045390EF2243901022301605E490A4
:102426000288F0C216900288E014601214601C1430
:10243600602E240370452013035390EF801B7831E0
:1024460006E6D394144034E4F6800E783AE6702B10
:102456007BFF7A1B79D712380D900288E004F022B0
:10246600201318900288E004F05398FD900260E073
:0C247600D3940150065390BF123CA722E3
:103C7C00757064617465206661696C00757064614F
:063C8C007465206F6B005F
:0C3D220053E13F8FE5E5E154C060FA2258
:1039EB0090022DEBF0A3EAF0A3E9F0801690022DE4
:1039FB00E0FBA3E0FAA3E0F912273F6020E5E154D6
:103A0B00C060EA53E13F90022DE0FBA3E475F001A7
:0E3A1B001227CFA9F0FA12273FF5E580D0223E
:10159D0053ABFB53A8E753A9E753AAEFE47817F62B
:1015AD00781AF608F67815F608F6900226F0A3F0EC
:1015BD00A3F09002897400F0A37468F0E490022205
:1015CD00F0A3F0900222E0FEA3E0FFC3942CEE9472
:1015DD00015020900289E0FCA3E02FF582EC3EF54E
:1015ED0083E4F0900223E004F070D8900222E0042E
:1015FD00F080D07F43123D227817E6B408004003F7
:10160D00021A04901617F828287302162F0216B422
:10161D000217510217D70218680218CA02190902D7
:10162D0019B6E5E130E534900289E0FEA3E0F582DC
:10163D008E83C083C082781A0806E618860670016C
:10164D000614D082D0832582F582E5833EF583E5AD
:10165D00E5F0E4900226F0A3F0A3F0900289E0FEFD
:10166D00A3E0F5828E83E0B46E25781DE618466002
:10167D000E7BFF7A3C797C1239EBE47817F6227BEE
:10168D00FF7A3C79881239EB78177606021A0878BA
:10169D001BE66407700418E664016003021A0878FB
:1016AD001AF608F60219B1E4781AF608F6900289CE
:1016BD00E0FEA3E0F5828E83E0F9A3E0FE900289BF
:1016CD00E0FCA3E0F5828C83A3A3E0FDAC069002C1
:1016DD0089E0FAA3E0FBF5828A83A3A3A3E0FEEBE6
:1016ED002404F582E43AF583E0FBEBFFE9B4020E46
:1016FD00EFF4FFEEF4FEEF6D7002EE6C6003021777
:10170D00CF7815E6FE08E6FFC3ED9FFFEC9EFEEFDA
:10171D0064014E6004EF4E7025AE04AF057815A63A
:10172D000608A607E6FEE42400FFEE3440FE900214
:10173D0029F0A3EFF0D394FFEE947F40042202171B
:10174D00CF0219B1E4900224F0A3F0FFFE90022223
:10175D00F0A3F0900222E0FCA3E0FDC3EC94015055
:10176D0034ED2405FDE43CFC900289E0FAA3E02D64
:10177D00F582EA3CF583E0FD900225E02DF0900224
:10178D0024E03400F0900223E004F070C6900222B1
:10179D00E004F080BE900289E0FCA3E0FD2405F595
:1017AD0082EC3401F583E0FEED2406F582EC340184
:1017BD00F583E0FDEDFF900224E06E7003A3E06F72
:1017CD0060057F150219030219B1900229E0FEA3ED
:1017DD00E0FF90028AE02405FD900289E03400FAD2
:1017ED00A9057B0112345D90022AE02440FF90028E
:1017FD0029E03400FE90028AE02445FD900289E044
:10180D003400FAA9057B0112345D90022AE0248090
:10181D00FF900229E03400FE90028AE02485FD90BD
:10182D000289E03400FAA9057B0112345D90022A89
:10183D00E024C0FF900229E03400FE90028AE024EB
:10184D00C5FD900289E03400FAA9057B0112345DD3
:10185D00781DE616187001160219B1E4900222F0F7
:10186D00A3F0900222E0FEA3E0FFC3EE9401504AE4
:10187D0090022AE02FFF900229E03EFE123D529089
:10188D000223E02405FD900222E03400FC90028941
:10189D00E0FAA3E02DF582EA3CF583E06F600B7F63
:1018AD0015123D22E47817F68010900223E004F023
:1018BD0070B0900222E004F080A80219B1E4900209
:1018CD0022F0A3F0900222E0FEA3E0FFC3942CEEE1
:1018DD0094015020900289E0FCA3E02FF582EC3EAC
:1018ED00F583E4F0900223E004F070D8900222E03A
:1018FD0004F080D07F96123D22021A0490022B74C0
:10190D0001F0A3E4F09002297441F0A3E4F09002F9
:10191D002BE0FEA3E0C394FFEE940340030219B144
:10192D00E4900222F0A3F0900222E0FEA3E0FFC3B8
:10193D009440EE9400503790022AE02FFF90022938
:10194D00E03EFE123D52900222E0FCA3E0FD90022B
:10195D0089E0FAA3E02DF582EA3CF583EFF09002E1
:10196D0023E004F070C1900222E004F080B99002EF
:10197D002BE0FEA3E0FF900289E0FCA3E0AA04F9AE
:10198D007B0112345D90022AE02440F0900229E0A0
:10199D003400F090022CE02440F090022BE0340053
:1019AD00F002191B7817068052E4900222F0A3F082
:1019BD00900222E0FEA3E0FFC39440EE940050217C
:1019CD00900289E0FCA3E02FF582EC3EF58374AA2A
:1019DD00F0900223E004F070D7900222E004F08032
:1019ED00CF900289E0FEA3E0AA06F97B017F007E7D
:1019FD000412345D020000E47817F6900226E0042C
:101A0D00F06003021605A3E004F06003021605A3BF
:101A1D00E004F0C3940250030216051200000216F2
:011A2D0005B3
:101A2E007B54696D6553796E63005475726E206FC9
:101A3E006E20756E6974005475726E206F66662026
:101A4E00756E6974004770537461005475726E2020
:101A5E006F6E204254006D7573696320706C6179EE
:101A6E00006D757369632070617573650053656CE5
:101A7E0065637420536F756E642066696C65007BB8
:101A8E004D757369635374617475730041646A753F
:101A9E007374204F757470757420566F6C756D6508
:101AAE0000766F6C756D6520757000766F6C756D58
:101ABE006520646F776E006D75736963206D757444
:101ACE0065006D7573696320756E6D757465005371
:101ADE0065742054696D6572005475726E206F6660
:101AEE00662054696D6572005475726E206F6E209B
:101AFE004C6967687472005475726E206F6666204A
:101B0E004C6967687472006C696768742075700040
:101B1E006C6967687420646F776E004368616E67E6
:101B2E0065206C6967687420636F6C6F7200416426
:101B3E006A757374204C69676874204272696768AD
:101B4E00746E657373005573657220636F6C6F727C
:101B5E00007B50726F6772616D0050726F506C61D6
:101B6E00790D0A007B416C61726D4F6E4F66660097
:101B7E007B416C61726D536574007B416C61477083
:101B8E00537461007B4E6F72477053746100207501
:101B9E00706461746500415457510D0A00564552E8
:101BAE000D0A00242424564552302E390D0A0045C4
:101BBE006E74657220546573744D6F64650D0A0002
:101BCE000101020408102040802424247B4D7573EB
:101BDE0069635374617475733A5B30375D7D0D0ABA
:101BEE00002424247B4D757369635374617475737B
:101BFE003A5B30315D7D0D0A002424247B4D7573D4
:101C0E0069635374617475733A5B30325D7D0D0A8E
:101C1E00002424247B4D757369635374617475734A
:101C2E003A5B30335D7D0D0A002424247B4D7573A1
:101C3E0069635374617475733A5B30345D7D0D0A5C
:101C4E00002424247B4D757369635374617475731A
:101C5E003A5B30355D7D0D0A002424247B4D75736F
:101C6E0069635374617475733A5B30365D7D0D0A2A
:101C7E00002424247B47705374613A5B30302C303F
:101C8E00302C30302C30302C3030303030302C3056
:101C9E00302C30302C30302C30303B30302C30303B
:101CAE002C30302C3030303030302C30302C303036
:101CBE002C30302C30302C30303A30302C30305DEF
:101CCE007D0D0A002424247B416C6147705374619E
:101CDE003A5B30302C30302C30302C30302C3030D1
:101CEE00303030302C30302C30302C30302C3030F6
:101CFE002C30302C30303A30302C30305D7D0D0AA7
:101D0E00002424247B4E6F7247705374613A5B300B
:101D1E00302C30302C30302C30302C3030303030C5
:101D2E00302C30302C30302C30302C30305D7D0D5E
:101D3E000A002424247B4E6F7247705374613A5B01
:101D4E0030302C30302C30302C30302C3030303095
:101D5E0030302C30302C30302C30302C30305D7D0B
:031D6E000D0A005B
:1035EC0090022574FFF0A3741AF07438A3F09002C3
:0935FC001FE0FBA3E0FAA3E0F9D3
:10360500900222EBF0A3EAF0A3E9F0900225E0FB9B
:10361500A3E0FAA3E0F912273FFF602F900222E012
:10362500FBA3E0FAA3E0F912273FB507056003EF16
:1036350070037F0122900223E475F0011227B990EF
:0E3645000226E475F0011227B980C07F002232
:102F3200900269EFF09001F9F090021FE0FBA3E02C
:102F4200FAA3E0F9900016122758FF9000171227F3
:102F520058FD122FE890026DEFF09001FAF0900206
:102F62001FE0FBA3E0FAA3E0F9900018122758FF34
:102F7200900019122758FD122FE890026AEFF09084
:102F820001FBF090021FE0FBA3E0FAA3E0F990003E
:102F92001A122758FF90001B122758FD122FE89093
:102FA2000268EFF09001FCF090021FE0FBA3E0FA50
:102FB200A3E0F990001D122758FF90001E12275817
:102FC200FD123AD6900277EFF09001FDF090021FC9
:102FD200E0FBA3E0FAA3E0F990002012275890004A
:062FE20021FF122758FD3B
:102FE800C3EF648094C14006EF24C9FF800474D005
:102FF8002FFFC3ED648094C14006ED24C9FD800411
:0B30080074D02DFDEFC454F04DFF22EA
:053AD100FF122758FD63
:103AD600C3EF648094C14006EF24C9FF800474D00C
:103AE6002FFFC3ED648094C14006ED24C9FD800418
:0C3AF60074D02DFDEF75F00AA42DFF2206
:1034F10012355190021BE0FBA3E0FAA3E0241AF974
:10350100E43AFA90026DE0FD12355190021BE0FBA6
:10351100A3E0FAA3E0241CF9E43AFA90026AE0FD80
:1035210012355190021BE0FBA3E0FAA3E0241EF93F
:10353100E43AFA900268E0FD12355190021BE0FB7B
:10354100A3E0FAA3E09002772421F9E43AFAE0FD3E
:10355100EDC4540FFFC3940AEF40042437800224C2
:1035610030122785740129F9E43AFAED540FFFC3AB
:0E357100940AEF40042437800224301227858C
:01357F002229
:103BD1009002607401F0780DE6B403047F03800263
:103BE1007F01900260EFF07809E67812F67811E62D
:053BF100900269F022C2
:103BF600900260E0780DF6E4F07812E67809F69027
:103C06000269E07811F6E4F0780CF6900250F022A2
:103B0200E490025EF0900279F0123BF6783A760584
:103B1200900260E070047F0180027F001229B5E408
:0C3B220090025FF0780CF6900250F02248
:0529B500900222EFF08A
:1029BA007834E670FBE47838F67F64900194E4F0AA
:1029CA00A3DFFCE4FFEFFD3395E0FC747F2DF58275
:1029DA00741C3CF583E493FE74942DF58274013CD7
:1029EA00F583EEF00FEFB452DC7B017A01799F9008
:1029FA000222E0FD1235517A0179A2900260E0B418
:102A0A000308900287E0FFFD80027D071235517BA3
:102A1A00017A0179A5900269E07003FD80027D01C7
:102A2A001235517B017A0179A8900269E0B4090450
:102A3A007D0180027D001235517B017A0179AB90CC
:102A4A00026DE0FD1235517A0179AD90026AE0FD1E
:102A5A001235517A0179AF900268E0FD1235517A48
:102A6A000179B2900277E0FD1235517A0179B57891
:102A7A0012E6FD1235517A0179B8A217E433FD1234
:102A8A0035517A0179BB780CE6FD1235517A017914
:102A9A00BEE4FD1235517A0179C1900258E0FD1267
:102AAA0035517A0179C4900267E0B409047D018046
:102ABA00027D001235517B017A0179C7900255E0F7
:102ACA00FD1235517A0179C9900256E0FD1235514D
:102ADA007A0179CB900257E0FD1235517A0179CE0D
:102AEA0090025CE0FD1235517A0179D1900259E0E9
:102AFA00FD1235517A0179D4900251E0FD12355117
:102B0A007A0179D7900252E0FD1235517A0179DAC9
:102B1A00900253E0FD1235517A0179DD900254E0BA
:102B2A00FD1235517A0179E090025DE0FD123551CE
:102B3A00783A7602E47839F6783476017837760A84
:102B4A007839E6062494F582E43401F583E0F5E564
:012B5A002258
:0B05260090021BEBF0A3EAF0A3E9F049
:100531002403F9E43AFA90021FEBF0A3EAF0A3E9ED
:10054100F0900260E070030211B390022574FFF095
:10055100A3741AF0742E1235F8EF707590021FE033
:10056100FBA3E0FAA3E0F990000B12275890000CCE
:10057100122FE3780FA60790021FE0FBA3E0FAA376
:10058100E0F990000E122758FF90000F122FE47827
:100591000AA60790021FE0FBA3E0FAA3E0F990008E
:1005A10011122758FF900012122FE4780EA607901F
:1005B100021FE0FBA3E0FAA3E0F990001E12275806
:1005C10024D0780BF6E6901BCE93F6E4900265F00A
:1005D100221235ECEF7020900260E0600302097A8C
:1005E100123BD1783A7603900260E070057F0102F8
:1005F10011D57F000211D590022574FFF0A3741A62
:10060100F0A374451235F9EF701F90025EE06003AC
:1006110002095A123BF6783A7603900260E07004C0
:100621007F0180027F000211D590022574FFF0A3A3
:10063100741AF0A374531235F9EF70012290022558
:1006410074FFF0A3741AF0A374591235F9EF70090D
:100651009002607402F002097A90022574FFF0A3FF
:10066100741AF0A374641235F9EF70199002607472
:1006710003F0C201C217F0900287E0700304F02278
:10068100783076182290022574FFF0A3741AF0A333
:10069100746F1235F9EF7012900260E06403600329
:1006A10002159CD217783076172290022574FFF03C
:1006B100A3741AF0A3747B1235F9EF704090025EB7
:1006C100E0600BE4F0A3F0780CF6900250F0C20168
:1006D100C2179002607403F090021FE0FBA3E0FADE
:1006E100A3E0F990001A12275824D0FF900287F056
:1006F1007833E6B50704783076180212E4900225C3
:1007010074FFF0A3741AF0A3748D1235F9EF700120
:100711002290022574FFF0A3741AF0A3749A123583
:10072100F9EF702390025EE0600302095A90021F04
:10073100E0FBA3E0FAA3E0F990001412275890001F
:1007410015123AD10207BE90022574FFF0A3741A64
:10075100F0A374AF1235F9EF702990025EE06003E7
:1007610002095A7812E6FFC3940A5013EF94085015
:1007710007E62402FFF68009781206E6FF80027F71
:100781000A803A90022574FFF0A3741AF0A374B999
:100791001235F9EF703090025EE0600302095A7879
:1007A10012E6FFD394014013EF94034007E624FEC1
:1007B100FFF68009781216E6FF80027F017812A603
:1007C10007C20102097A90022574FFF0A3741AF09E
:1007D100A374C51235F9EF7003D20122900225747A
:1007E100FFF0A3741AF0A374D01235F9EF7003C2AD
:1007F100012290022574FFF0A3741AF0A374DD1294
:1008010035F9EF702590025EE0600302095A90020B
:100811001FE0FBA3E0FAA3E0F990000A1227589029
:10082100000B123AD1780CEF801F90022574FFF073
:10083100A3741AF0A374E71235F9EF701490025EF5
:10084100E0600302095AE4780CF6900250F00209C4
:100851007A90022574FFF0A3741AF0A374F612358E
:10086100F9EF702290025EE0600BE4F0A3F0780CE7
:10087100F6900250F07811E6900269F060030209E7
:100881007A04F002097A90022574FFF0A3741BF038
:10089100A374051235F9EF701190025EE060030256
:1008A100095AE4900269F002097A90022574FFF076
:1008B100A3741BF0A374151235F9EF701B90025E3F
:1008C100E0600302095A900277E0C39403400302F7
:1008D100097AE004F002097A90022574FFF0A3740A
:1008E1001BF0A3741E1235F9EF701890025EE060E0
:1008F1000302095A900277E0D39400407CE014F09F
:1009010002097A90022574FFF0A3741BF0A37429E5
:100911001235F9EF702A90025EE0600BE4F0A3F06B
:10092100780CF6900250F09002697409F0E490029C
:1009310070F090026EF090026CF090026BF08039D2
:1009410090022574FFF0A3741BF0A3743C1235F9D7
:10095100EF702690025EE06003023B0290021FE00E
:10096100FBA3E0FAA3E0F9900018122758FF9000CA
:1009710019123AD2900277EFF090022574FFF0A39A
:10098100741BF0A374541235F9EF707190025EE09C
:10099100600BE4F0A3F0780CF6900250F090021F87
:1009A100E0FBA3E0FAA3E0F990000B122758FF90B7
:1009B100000C122FE490026DEFF090021FE0FBA3F8
:1009C100E0FAA3E0F990000D122758FF90000E12F3
:1009D1002FE490026AEFF090021FE0FBA3E0FAA37C
:1009E100E0F990000F122758FF900010122FE490A9
:1009F1000268EFF0900269740AF002158E900225E8
:100A010074FFF0A3741BF0A3745F1235F9EF600358
:100A1100020AD490025EE0600BE4F0A3F0780CF6D9
:100A2100900250F0123BAB90021FE0FBA3E0FAA34F
:100A3100E0F990000E12275824D0900287F090011F
:100A4100F8F0900011122758FFB431047E018002A2
:100A51007E00900269EEF09001F9F0EFB4311C9044
:100A6100021FE0FBA3E0FAA3E0F99000141227585B
:100A7100B431047F0980067F0A80027F00122F3281
:100A81007812EFF69001FEF09002607403F090018D
:100A9100FFF090021FE0FBA3E0FAA3E0F99000242D
:100AA10012275824D024FF9217E433900200F0203B
:100AB1001705C201E4A3F0900026122758FF900009
:100AC10027122FE4780CEFF6900250F0900202F01A
:100AD10002158E90022574FFF0A3741BF0A37468B5
:100AE1001235F9EF706690025EE0600BE4F0A3F05E
:100AF100780CF6900250F09001F8E0900287F090A7
:100B010001F9E0900269F09001FAE090026DF09035
:100B110001FBE090026AF09001FCE0900268F09025
:100B210001FDE0900277F09001FEE07812F6A3E07B
:100B3100900260F0900200E024FF9217201702C299
:100B410001900202E0900250F002158E900225748D
:100B5100FFF0A3741BF0A374721235F9EF7071905A
:100B6100021FE0FBA3E0FAA3E0F99000111227585D
:100B710024D0900251F0900013122758FF900014D6
:100B8100122FE4780FA60790021FE0FBA3E0FAA35F
:100B9100E0F9900016122758FF900017122FE47801
:100BA1000AA60790021FE0FBA3E0FAA3E0F9900078
:100BB10019122758FF90001A122FE4780EA60790F9
:100BC100021FE0FBA3E0FAA3E0F9900026020D9CCE
:100BD10090022574FFF0A3741BF0A3747E1235F903
:100BE100EF6003020DAD90021FE0FBA3E0FAA3E06A
:100BF100F990000F12275824D0900258F0C394079F
:100C01004002E4F0900012122758FF24D090025BBA
:100C1100F0EFB43111900015122758B431047F0957
:100C210080067F0A80027F0090025BEFF090021F36
:100C3100E0FBA3E0FAA3E0F9900017122758FF9018
:100C41000018122FE4900255EFF090021FE0FBA371
:100C5100E0FAA3E0F9900019122758FF90001A1248
:100C61002FE4900256EFF090021FE0FBA3E0FAA3FD
:100C7100E0F990001B122758FF90001C122FE490FE
:100C81000257EFF090021FE0FBA3E0FAA3E0F99016
:100C9100001F12275824D090025CF09000211227E7
:100CA10058FF900022122FE4900259EFF090021F9A
:100CB100E0FBA3E0FAA3E0F990002512275824D025
:100CC10090025AF090002812275824D0900251F037
:100CD10090002A122758FF90002B122FE490025205
:100CE100EFF090021FE0FBA3E0FAA3E0F990002DE2
:100CF100122758FF90002E122FE4900253EFF0902C
:100D0100021FE0FBA3E0FAA3E0F99000301227589C
:100D1100FF900031122FE4900254EFF090021FE097
:100D2100FBA3E0FAA3E0F9900033122758FF9000EB
:100D310034122FE490025DEFF090021FE0FBA3E07C
:100D4100FAA3E0F9900036122758FF900037122FCE
:100D5100E4780FA60790021FE0FBA3E0FAA3E0F9F5
:100D6100900039122758FF90003A122FE4780AA612
:100D71000790021FE0FBA3E0FAA3E0F990003C1208
:100D81002758FF90003D122FE4780EA60790021F0E
:100D9100E0FBA3E0FAA3E0F990004912275824D020
:100DA100780BF6E6901BCE93F602158E9002257411
:100DB100FFF0A3741BF0A374881235F9EF600302EE
:020DC1000F8B96
:100DC30090021EF090021EE0FFC39464501C900238
:100DD3001BE0FBA3E0FAA3E0F98F82758300E41222
:100DE300279790021EE004F080DAE490021EF09050
:100DF300021EE0FF901CD293FE90021BE0FBA3E0D7
:100E0300FAA3E0F98F82758300EE12279790021EF2
:100E1300E004F0E0B43ED890021BE0FBA3E0FAA3A9
:100E2300E0240EF9E43AFAE4FD12355190021BE096
:100E3300FBA3E0FAA3E02411F9E43AFA900258E0A4
:100E4300FF6003FD80027D0712355190021BE0FB1A
:100E5300A3E0FAA3E02414F9E43AFA90025BE07009
:100E630003FD80027D0112355190021BE0FBA3E0DC
:100E7300FAA3E02417F9E43AFA90025BE0B4090418
:100E83007D0180027D0012355190021BE0FBA3E03F
:100E9300FAA3E0241AF9E43AFA900255E0FD123578
:100EA3005190021BE0FBA3E0FAA3E0241CF9E43A0F
:100EB300FA900256E0FD12355190021BE0FBA3E0CD
:100EC300FAA3E0241EF9E43AFA900257E0FD123542
:100ED3005190021BE0FBA3E0FAA3E090025C123501
:100EE3004990021BE0FBA3E0FAA3E02424F9E43ACF
:100EF300FA900259E0FD12355190021BE0FBA3E08A
:100F0300FAA3E02427F9E43AFA90025AE0FD1235F5
:100F13005190021BE0FBA3E0FAA3E0242AF9E43A90
:100F2300FA900251E0FD12355190021BE0FBA3E061
:100F3300FAA3E0242DF9E43AFA900252E0FD1235C7
:100F43005190021BE0FBA3E0FAA3E02430F9E43A5A
:100F5300FA900253E0FD12355190021BE0FBA3E02F
:100F6300FAA3E02433F9E43AFA900254E0FD12358F
:100F73005190021BE0FBA3E0FAA3E02436F9E43A24
:050F8300FA90025DE0A0
:100F88000210B190022574FFF0A3741BF0A37492B1
:090F98001235F9EF60030210BCF0
:100FA10090021EF090021EE0FFC39464501C900258
:100FB1001BE0FBA3E0FAA3E0F98F82758300E41242
:100FC100279790021EE004F080DAE490021EF09070
:100FD100021EE0FF901D0F93FE90021BE0FBA3E0B9
:100FE100FAA3E0F98F82758300EE12279790021E13
:100FF100E004F0E0B430D890021BE0FBA3E0FAA3D8
:10100100E0240EF9E43AFA7D0112355190021BE019
:10101100FBA3E0FAA3E02411F9E43AFA900260E0BC
:10102100B40308900287E0FFFD80027D071235516D
:1010310090021BE0FBA3E0FAA3E02414F9E43AFADE
:10104100900269E07003FD80027D0112355190022A
:101051001BE0FBA3E0FAA3E02417F9E43AFA9002BB
:1010610069E0B409047D0080027D011234F190022F
:101071001BE0FBA3E0FAA3E02424F9E43AFA781296
:10108100E6FD12355190021BE0FBA3E0FAA3E02438
:1010910027F9E43AFAA217E433FD12355190021B05
:1010A100E0FBA3E0FAA3E0242AF9E43AFA780CE69B
:0810B100FD123551783A760278
:1010B90002158E90022574FFF0A3741BF0A3749C93
:1010C9001235F9EF600302116E90021FE0FBA3E0F5
:1010D900FAA3E0F990000A122758FF90000B122F8B
:1010E900E4EF7F00FEC007C00690021FE0FBA3E00B
:1010F900FAA3E0F990000C122758FF90000D122F67
:10110900E4EFFD3395E0FCD0E04CFED0E04D7818DB
:10111900A60608F690021FE0FBA3E0FAA3E0F99007
:101129000011122758FF900012122FE4EF7F00FEE2
:10113900C007C00690021FE0FBA3E0FAA3E0F99004
:101149000013122758FF900014122FE4EFFD339576
:10115900E0FCD0E04CFED0E04D781CA60608F61263
:10116900159D02158E90022574FFF0A3741BF0A340
:1011790074A41235F9EF7002802C90022574FFF0E7
:10118900A3741BF0A374AB1235F9EF700302145763
:1011990090022574FFF0A3741BF0A374BD1235F9F6
:1011A900EF600302158E783AF6221235ECEF701FC4
:1011B900900260E0600302158E123BD1783A760303
:1011C900900260E070047F0180027F000229B590DF
:1011D900022574FFF0A3741AF0A374F61235F9EF1F
:1011E9007011123BD1900269E0600302158E04F080
:1011F90002158E90022574FFF0A3741BF0A37429C5
:101209001235F9EF701D123BD19002697409F0E4AF
:10121900900270F090026EF090026CF090026BF008
:1012290002158E90022574FFF0A3741BF0A3745469
:101239001235F9EF7063123BD190021FE0FBA3E076
:10124900FAA3E0F990000B122758FF90000C122F17
:10125900E490026DEFF090021FE0FBA3E0FAA3E037
:10126900F990000D122758FF90000E122FE49002FA
:101279006AEFF090021FE0FBA3E0FAA3E0F9900007
:101289000F122758FF900010122FE4900268EFF018
:10129900900269740AF002158E90022574FFF0A37A
:1012A900741AF0A3747B1235F9EF7048123BD1C25E
:1012B90001C2179002607403F090021FE0FBA3E0E3
:1012C900FAA3E0F990001A12275824D0FF90028758
:1012D900F07833E6B5070478307618783A760190D5
:1012E9000287E075F018A424D7F9741B35F0FA7B4E
:1012F900FF02159990022574FFF0A3741BF0A374E3
:10130900681235F9EF7058123BD19001F8E090025C
:1013190087F09001F9E0900269F09001FAE09002FB
:101329006DF09001FBE090026AF09001FCE0900200
:1013390068F09001FDE0900277F09001FEE07812EC
:10134900F6A3E0900260F0900200E024FF921720DB
:101359001702C201900202E0900250F002158E902D
:10136900022574FFF0A3741BF0A3745F1235F9EF23
:101379006003021430123BD1123BAB90021FE0FB19
:10138900A3E0FAA3E0F990000E12275824D09002A6
:1013990087F09001F8F0900011122758FFB431043A
:1013A9007E0180027E00900269EEF09001F9F0EF73
:1013B900B4311C90021FE0FBA3E0FAA3E0F990000E
:1013C90014122758B431047F0980067F0A80027FEE
:1013D90000122F327812EFF69001FEF0900260743D
:1013E90003F09001FFF090021FE0FBA3E0FAA3E0F5
:1013F900F990002412275824D024FF9217E433903F
:101409000200F0201705C201E4A3F090002612277C
:1014190058FF900027122FE4780CEFF6900250F055
:10142900900202F002158E90022574FFF0A3741A3F
:10143900F0A374531235F9EF70012290022574FF5D
:10144900F0A3741BF0A374AB1235F9EF70097BFF9D
:101459007A1B79B102159990022574FFF0A3741BC8
:0D146900F0A374921235F9EF600302158EA6
:1014760090021EF090021EE0FFC39464501C90027E
:101486001BE0FBA3E0FAA3E0F98F82758300E41268
:10149600279790021EE004F080DAE490021EF09096
:1014A600021EE0FF901D4093FE90021BE0FBA3E0AE
:1014B600FAA3E0F98F82758300EE12279790021E39
:1014C600E004F0E0B430D890021BE0FBA3E0FAA3FE
:1014D600E0240EF9E43AFAE4FD12355190021BE0DD
:1014E600FBA3E0FAA3E02411F9E43AFA900260E0E3
:1014F600B40308900287E0FFFD80027D0712355194
:1015060090021BE0FBA3E0FAA3E02414F9E43AFA04
:10151600900269E07003FD80027D01123551900250
:101526001BE0FBA3E0FAA3E02417F9E43AFA9002E1
:1015360069E0B409047D0080027D011234F1900255
:101546001BE0FBA3E0FAA3E02424F9E43AFA7812BC
:10155600E6FD12355190021BE0FBA3E0FAA3E0245E
:1015660027F9E43AFAA217E433FD12355190021B2B
:10157600E0FBA3E0FAA3E0242AF9E43AFA780CE6C1
:08158600FD123551783A76029E
:0E158E0090021BE0FBA3E0FAA3E0F912380D77
:01159C00222C
:103BAB00780E7C027D017B017A0279037E007F0B0C
:103BBB0012271978037C027D017B017A0179F87E4B
:063BCB00007F0B02271928
:0D3D1500E4F5FDF5FEF5FA75FB40F5FC2226
:033D670002000057
:103B8300E4FE7DA2EF600E74832EF582E43402F529
:103B930083EDF0800C74832EF582E43402F583E424
:073BA300F00D0EEEB404DD8D
:013BAA0022F8
:083D4A0075FE010000000022DB
:103A6400AD07AC06E4F5FAECF5FBAF058FFC75FD8C
:103A7400A5900283E064A27018A3E0B4A313A3E0AA
:103A8400B4A40EA3E0B4A50975FE030000000080F1
:073A940003123D67023D151E
:1037BE00AD07AC067F007E80123D4AE4FBEF2BF591
:1037CE0082E43EF583E4F00BEBB440F1E4F5FAEC61
:1037DE00F5FBAF058FFC75FDA5900283E064A2702A
:1037EE0018A3E0B4A313A3E0B4A40EA3E0B4A509F8
:0F37FE0075FE02000000008003123D67023D15BA
:0B345D0090022DEBF0A3EAF0A3E9F0D1
:10346800E4900231F0A37480F0A3E4F0A3EEF0A39B
:10347800EFF053A87F7F01123B83900234E0FEA354
:10348800E0FF1237BE123D4AE4900230F090022D60
:10349800E0FBA3E0FAA3E0F9900231E0FF04F08F2B
:1034A80082758300122758FF900230E0FE900232A6
:1034B800E0FCA3E02EF582E43CF583EFF0900230C7
:1034C800E004F0E0B440C6900234E0FEA3E0FF124E
:1034D8003A64E4FF123B83900235E02440F0900206
:0834E80034E03400F043A88039
:0134F00022B9
:073D52008F828E83E493FFD2
:013D59002247
:1001000090021B7400F0A37468F0A37480F0A3E461
:10011000F090021AF090021AE0FFC394405016A328
:10012000E0FCA3E02FF582E43CF583E4F090021AB2
:10013000E004F080E09002217404F0A3E4F0900267
:100140001AF090021AE0FFC394405034900221E06C
:10015000FCA3E0F5828C83E493FE90021BE0FCA3F9
:10016000E02FF582E43CF583EEF0900222E004F00B
:100170007006900221E004F090021AE004F080C2C0
:1001800090021BE0FEA3E0FFF5828E83E064AA608C
:100190000302036FA3A3E064AA600302036F90024B
:1001A0001BA3E02404F582E43EF583E064AA600327
:1001B00002036FEF2406F582E43EF583E064AA6053
:1001C0000302036F53A87F90021FF0A3F0A37440B3
:1001D00002036890021FE0FEA3E0FDAC06E490027B
:1001E0001AF090021AE0F9C39440400302026D90A5
:1001F000021FE0FEA3E0FFC3EE94004009D3EF949A
:1002000000EE9404400FC3EE94054045D3EF94FFF5
:10021000EE943F503C900221E0FEA3E0F5828E83F5
:10022000E493FF90021BE0FAA3E029F582E43AF59B
:1002300083EFF0900222E004F07006900221E004C7
:10024000F0900220E004F0701B90021FE004F080A8
:100250001390021AE0FFA3E0FAA3E02FF582E43A3C
:10026000F583E4F090021AE004F00201E275FE0169
:1002700000000000E490021AF090021AE0FFC3941C
:1002800040501890021DE0FAA3E02FF582E43AF501
:1002900083E4F090021AE004F080DEE4F5FAECF575
:1002A000FB8DFC75FDA50000000075FE020000003E
:1002B00000E4F5FDF5FEF5FA75FB05F5FC75FE01AC
:1002C0000000000090021AF090021AE0F9A3E0FE8C
:1002D000A3E029F582E43EF583E0FF90021DE0FAF9
:1002E000A3E029F582E43AF583EFF090021AE004E6
:1002F000F0E0B440D3E4F5FAECF5FBAF058FFC7504
:10030000FDA50000000075FE0300000000E4F5FDFF
:10031000F5FEF5FA75FB05F5FC90021FE0FEA3E083
:10032000FFC3EE9404400CD3EF9400EE9405500309
:1003300012000090021FE0FEA3E0B40014EEB4012E
:100340001090021F7405F0A3E4F0A37445F0A3E439
:10035000F090021FE0FEA3E0C394FFEE943F500331
:100360000201D390021F7404F0A3E4F00201D3123F
:05037000050043A88018
:010375002265
:10380D007834E670FBE47838F67F64900194E4F048
:10381D00A3DFFCE4FF12273FFE601674942FF582A0
:10382D00E43401F583EEF0740129F9E43AFA0F80DE
:10383D00E4E47839F6783476017837760A7839E623
:0D384D00062494F582E43401F583E0F5E5EE
:01385A00224B
:103A9B00783AE660307838E6B414277834E670FB71
:103AAB00783A16E47838F608F67834760178377673
:103ABB000A7839E6062494F582E43401F583E0F5BF
:063ACB00E5227838062216
:10331C00900002E0FEA3E0FF900000E06E7003A3BB
:10332C00E06F70030233C27836760A900002E0FE3A
:10333C00A3E0FF2468F58274003EF583E0FD18E6F7
:10334C002404F582E43400F583EDF074682FF582E3
:10335C0074003EF583E4F090000275F0011227B979
:10336C00FEC3E5F0942CEE94014007E4900002F0CB
:10337C00A3F07835E6062404F582E43400F583E006
:10338C00640A708C7B017A007904120526E4783586
:10339C00F690021AF090021AE0FFC3946440030204
:1033AC00331C74042FF582E43400F583E4F09002AE
:0633BC001AE004F080DFBE
:0133C20022E8
:1033DD00020500E493A3F8E493A34003F68001F201
:1033ED0008DFF48029E493A3F85407240CC8C333F1
:1033FD00C4540F4420C8834004F456800146F6DFC0
:10340D00E4800B0102040810204080903D6AE47EA8
:10341D00019360BCA3FF543F30E509541FFEE493B4
:10342D00A360010ECF54C025E060A840B8E493A37B
:10343D00FAE493A3F8E493A3C8C582C8CAC583CAA6
:10344D00F0A3C8C582C8CAC583CADFE9DEE780BE5E
:013D6A000058
:10264900E709F608DFFA8046E709F208DFFA803E73
:1026590088828C83E709F0A3DFFA8032E309F60860
:10266900DFFA8078E309F208DFFA807088828C83C8
:10267900E309F0A3DFFA806489828A83E0A3F6087C
:10268900DFFA805889828A83E0A3F208DFFA804C56
:1026990080D280FA80C680D4806980F2803380102D
:1026A90080A680EA809A80A880DA80E280CA803396
:1026B90089828A83ECFAE493A3C8C582C8CCC5830E
:1026C900CCF0A3C8C582C8CCC583CCDFE9DEE780DE
:1026D9000D89828A83E493A3F608DFF9ECFAA9F05D
:1026E900EDFB2289828A83ECFAE0A3C8C582C8CCB3
:1026F900C583CCF0A3C8C582C8CCC583CCDFEADECC
:10270900E880DB89828A83E493A3F208DFF980CC2D
:1027190088F0EF60010E4E60C388F0ED2402B40426
:102729000050B9F582EB2402B4040050AF232345CD
:0627390082239026997333
:10273F00BB010689828A83E0225002E722BBFE0298
:09274F00E32289828A83E49322CB
:10275800BB010CE58229F582E5833AF583E0225036
:1027680006E92582F8E622BBFE06E92582F8E22280
:0D277800E58229F582E5833AF583E493229A
:10278500BB010689828A83F0225002F722BBFE0133
:02279500F3222D
:10279700F8BB010DE58229F582E5833AF583E8F078
:1027A700225006E92582C8F622BBFE05E92582C824
:0227B700F2220C
:1027B900C5F0F8A3E028F0C5F0F8E58215827002AB
:0627C9001583E038F02248
:1027CF00A3F8E0C5F025F0F0E582158270021583BD
:0627DF00E0C838F0E8221A
:1027E500D083D082F8E4937012740193700DA3A383
:1027F50093F8740193F5828883E473740293686097
:06280500EFA3A3A380DF96
:00000001FF
