:03000000023208C1
:1032080078FFE4F6D8FD9000007F007E03E4F0A389
:0A321800DFFCDEFA75813A020100C6
:1005000053A87F123639123B2F123C25123C0D1294
:100510003BC6123B5D123B86123BD343A880123888
:060520007812010080FECC
:03001B0002344B61
:0F344B00C0E0C083C082C0D075D000C000C007F1
:10345A00AFF553F1DF7825760A300E237827E6C3D5
:10346A009408500DE606243FF582E43402F583EF12
:10347A00F0EF640A702A7827F6D210B20E8021780B
:10348A0027E6C39408500DE6062447F582E4340281
:10349A00F583EFF0EFB40A0878277600D211B20E5E
:0D34AA00D007D000D0D0D082D083D0E03247
:030023000237B2EF
:1037B200C0E0C083C082C0D075D000C00053F17F8A
:1037C2007824E660247826760A7828E6062437F5F7
:1037D20082E43402F583E0F5F5E62437F582E43439
:1037E20002F583E070037824F6D000D0D0D082D0E6
:0437F20083D0E0326E
:03004B000235DE9D
:1035DE00C0E0C0F0C083C082C0D075D000C000C0B3
:0535EE0004C006C00747
:1035F300AFE553E1DF900000E0FCA3E02468F5822F
:1036030074003CF583EFF0900000E475F00112269E
:10361300DFFEC3E5F0942CEE94014007900000E434
:03362300F0A3F021
:10362600D007D006D004D000D0D0D082D083D0F03E
:03363600D0E032AF
:030053000237F67B
:1037F600C0E0C083C082C0D075D000C00053E17F56
:103806007834E660247837760A7839E6062494F523
:1038160082E43401F583E0F5E5E62494F582E434A8
:1038260001F583E070037834F6D000D0D0D082D092
:0438360083D0E03229
:03006B000238F464
:1038F400C0E0C0F0C083C082C0D075D000C000C09A
:1039040001C002C003C004C005C006C0071235814F
:10391400D007D006D005D004D003D002D001D00007
:0B392400D0D0D082D083D0F0D0E032B1
:0300830002383A06
:10383A00C0E0C0F0C083C082C0D075D000C000C054
:10384A0001C002C003C004C005C006C007122F325F
:10385A00123003D007D006D005D004D003D002D04E
:0E386A0001D000D0D0D082D083D0F0D0E03298
:0300A300023726FB
:10372600C0E0C0D075D000C000C007B20230022D84
:10373600780E06E6D3943B40247600780A06E6D354
:10374600943B40197600780F06E6D39417400E7620
:1037560000780BE625E0FFF6BF80027601D007D0A1
:0637660000D0D0D0E032DB
:083C0400AF9FEFFEAD9EEDFF46
:013C0C002295
:073C2500759C80759D0722CC
:0F3BA900EF540FFFE59C54F04FF59C439C4022D6
:083C0D00E4F59AF599F59B22FC
:0D3BC60075B28875B45D43AA0243B20122B6
:103B5D00901000748AF0A3744AF043AA10901000DC
:053B6D00E04401F0221C
:103B860075DA0275D90643DAECE4F5DB75E30C4326
:033B9600A9182249
:103B170020181275EA0275E90643EAECE4F5EB753D
:083B2700F34D43A818D2182247
:103B720030180EE4F5EAF5E9F5EAF5EBF5F353A8AA
:043B8200E7C218225C
:0D3BD30075968875890175898143AB0422C0
:103B2F0090103874A8F075C80A758B09E58B30E7CB
:083B3F00FB758A0143C8052251
:1036390075A17FE4F5ACF591F5DEF58075B1987566
:10364900AD20F592F5DFF58875B9FFF5AEF593F57F
:103659009075C1FEF5AFF59875C9FEF5A3F594F51A
:10366900A075D1FFF595F5B075D320F5D2F5D575CF
:10367900D403F5D775D603F5EE75EF0A75FF2D223C
:103AE10024242454696D652073796E630D0A0024C2
:0D3AF1002424416C61726D2075700D0A0077
:10358100D2057813E6FF7002D208EFB40102D20926
:10359100EFB40202D20AEFB40302D20BEFB4040279
:1035A100D20CEFB40502D20DEF6406702478371601
:1035B100E670037834F6783616E670037835F678D7
:1035C1002616E670037824F6782516E67003782728
:0D35D100F6781306E6C3940A4002E4F622E1
:10273100780EE6FF78146670030228DAA607900285
:102741005FE0601990024FE004F0D3940A400EE478
:10275100F0900259E0FF7812E69F50010690026561
:10276100E0B40121900263E004F0E0C3940A401553
:10277100E4F0783A76037BFF7A3A79E11236D89021
:1027810002657402F0780AE6FF7810667003022889
:10279100DAA607780CE6601F16E6701B123AC1E450
:1027A10090025EF0783A7603900260E070047F0157
:1027B10080027F001228DB90025FE0601F14F0703E
:1027C1001B123AC1E490025EF0783A7605900260FD
:1027D100E070047F0180027F001228DB900251E04B
:1027E1006401600302288C900253E0780F66600355
:1027F10002288CA3E0780A66600302288C900252BA
:10280100E0FF08E6FEEF5E700302288CEF20E7068A
:10281100EEF4FEEF5EF078127601C201E490024F11
:10282100F090025E04F09002607403F0900255E0B3
:1028310090026DF0900256E090026AF0900257E02B
:10284100900268F0900258E0900287F090025AE0FE
:1028510024FF9217A3E0900269F090025CE09002DD
:1028610077F090025DE090025FF0780CF6900250F4
:10287100F0740370047F0180027F001228DB783A34
:1028810076037BFF7A3A79F01236D8900265E0B48C
:10289100021B900263E004F0E0C39402400FE4F0F5
:1028A100783A76037BFF7A3A79E11236D8780FE6E7
:1028B100FF7808666023A607900262E004F0E0C397
:1028C10094184015E4F09002657402F0783A7603AA
:0928D1007BFF7A3A79E11236D856
:0128DA0022DB
:102D730030073D900261E004F0C3940C400FE4F08F
:102D8300900264E004F0D394184002C207900264F6
:102D9300E0FF30E00543801080035380EFEF30E025
:102DA3000543802080035380DFEF30E051022E4A39
:102DB300300325900261E004F0C394324012E4F042
:102DC300900264E004F0D394064005C203120000AD
:102DD300438010438020806F300025900261E0041F
:102DE300F0C3940C400FE4F0900264E004F0D39439
:102DF300104002C200900264E030E002804980513A
:102E0300900260E0D394015018900269E07012536D
:102E130080EF5380DF5380BFE4780CF6900250F0CC
:102E230022900250E0FFB40F084380105380DF80EC
:102E330020EFB41E085380EF4380208014EFB43C8E
:102E43000A5380EF5380DF438040225380EF538047
:052E5300DF5380BF22E7
:103A2400781276029002777401F0900260F0D2016D
:103A34005390EF783A7603E070047F0180027F00B0
:0A3A44001228DB9002657401F022E5
:10387800123A24123161300502C205300808C20824
:10388800123C2C121F66300905C209122E58300A44
:1038980005C20A1221DC300B05C20B1223A8300C1A
:0E38A800D2C20C122D7312396612273180C560
:102C7F0020202020200D0A0041542B4D540D0A0016
:102C8F0041542B4D410D0A0041542B4D450D0A0067
:102C9F0041542B4D440D0A0041542B43410D0A0062
:102CAF0041542B43420D0A0041542B43430D0A005C
:102CBF0041542B43500D0A0041542B43440D0A003D
:102CCF0041542B435A0D0A0041542B48300D0A0032
:102CDF0041542B48310D0A0041542B48320D0A0044
:102CEF0041542B48330D0A0041542B48340D0A0030
:102CFF0041542B48350D0A0041542B48360D0A001C
:102D0F0041542B48370D0A0041542B48380D0A0007
:102D1F0041542B48390D0A0041542B48410D0A00EC
:102D2F0041542B48420D0A0041542B48430D0A00D1
:102D3F0041542B48440D0A0041542B48450D0A00BD
:102D4F0041542B48460D0A00000102030607090AE9
:102D5F000C0E0F0001020304040405060607070802
:042D6F0008090A0A3B
:10376C007824E670FB7F08900237E4F0A3DFFCE4DA
:10377C00FF122665FE601674372FF582E43402F5CD
:10378C0083EEF0740129F9E43AFA0F80E4E4782826
:10379C00F6782476017828E6062437F582E434029C
:0537AC00F583E0F5F5D6
:0137B10022F5
:1039F900EFC3940B500CEF75F008A4247FF9742CD5
:103A090080107812E6902D579375F008A424D7F901
:0A3A1900742C35F0FA7BFF12376CB5
:013A23002280
:102B8300201006201103022C7E301012C210900276
:102B93001A7401F0A37402F0A3743FF08010C21101
:102BA30090021A7401F0A37402F0A37447F0900228
:102BB3001AE0FBA3E0FAA3E0F9122665FFB4491F6C
:102BC30090000112267EFEB44902D213EEB44102F4
:102BD300C213EE64586003022C63C213022C63EF2A
:102BE300B44D1C90000112267EFFB44102C214EFC3
:102BF3006442706CD2147812E6F47829F68061127C
:102C03002665FFB44F1290000112267E6446705071
:102C1300900260E064028048EF6448704390026071
:052C2300E06402703BBB
:102C280090000112267EFFD3648094B94005EF24FA
:102C3800C9801390021AE0FBA3E0FAA3E0F9900020
:102C48000112267E24D07812F67812E6D3940F402B
:0B2C580002760F7812E6902D6293F6D2
:102C6300E4FF90021AE0FBA3E0FAA3E0F98F827578
:0B2C73008300E41226BD0FEFB408E759
:012C7E002233
:102E5800122B83900260E064026003022EEB200FC5
:102E680013782BF6C213C2147812E6F47829F6E424
:102E7800900236F0D20F900236E014601D14601CE8
:102E880014601E14601D240470215390EF439002B7
:102E9800E58830E603022F31800780055390BF8014
:102EA800688066439040123B1780627812E6FF788C
:102EB80029666009A6077F0B1239F9800D782AE682
:102EC800FF60071239F9E4782AF6E58830E21078CD
:102ED8002BE6D39405400443901022782B06225306
:102EE80090EF22300F08E4782BF6900236F0C20FEC
:102EF800900236E01460121460111460101460140B
:102F0800240470255390EF800480028000900236DC
:102F1800E004F022900236E004F0900260E0D394DE
:0A2F28000150065390BF123B7222C5
:10351E00242424415457510D0A0024242446616367
:10352E00746F72792073657474696E670D0A002466
:10353E002424576966692072657365740D0A002428
:10354E002424456E74657220546573744D6F6465E2
:10355E000D0A00000004C0060108670A900BE50D75
:10356E00560E000050056006A109070B300C850DA4
:03357E00F60E0046
:1030B500E490021AF0123C0490027AEEF0A3EFF0CD
:1030C500C394A0EE940F504AE4FFEF25E02461F588
:1030D50082E43435F583E493FC740193FD90027A20
:1030E500E0FAA3E0FBC39DEA9C4022EF25E02471B2
:1030F500F582E43435F583E493FC740193FDD3EB59
:103105009DEA9C5008EF0490021AF080050FEFB479
:1031150008B87F05123BA990021AE0FFB4040AE53E
:103125008820E5057408F0802DEFB4010DE58820B1
:10313500E50890021A7409F0801CEFB4020DE588C9
:1031450020E50890021A740AF0800BE58820E50650
:0B31550090021A7403F090021AE0FFD1
:01316000224C
:102A8100E4900278F0900281E0FE6F600EA3E06FA7
:102A91006003EFF022900281EFF022900280E0FFCC
:102AA1006E6003022B2EEF7003022B8290027CE0FA
:102AB1007003022B8290027CE014F06003022B82EF
:102AC100900280E090027EF0900279E07005900221
:102AD1007804F090027FE014602114603214602FBA
:102AE10024036003022B8290027F7401F090027E26
:102AF100E04420F090027C7432F02290027F740254
:102B0100F090027EE04460F090027C7414F0229018
:102B1100027F7403F090027EE04480F090027C74A6
:102B210014F0A3E0C394FA5058E004F0229002801C
:102B3100E0603790027EF0900279E07005900278B3
:102B410004F090027FE024FE601014600F240270F4
:102B51001290027EE04440F08009800090027EE005
:102B610044C0F0E490027FF08009E4900279F09093
:102B7100027DF090027C7405F0900281E090028069
:022B8100F02240
:063C2C001230B5022A81EE
:101F6600900278E070030221DB90025EE06024E4D8
:101F7600F0900279F0123AC1783A7605900260E064
:101F860070047F0180027F001228DBE490025FF07C
:101F96000220F290027EE012270B1FD741201C423E
:101FA600208343209A4420B24520FA46215A4720EE
:101FB6006762214066216867200481208383209A16
:101FC60084217588219E8921BC8A1FD7C1000021E2
:101FD600DB90027DE0C3941940030221DB9002608E
:101FE600E06005123AC18003123A9C783A76059071
:101FF6000260E070047F0180027F000228DB90020D
:102006007DE0641960030221DB783A76057BFF7A6E
:1020160035791E0221D8900260E0FF64016004EF6A
:10202600B40216C201C2179002607403F0900287D0
:10203600E060030221DB04F022900260E0640360AA
:10204600030221DBC201301704C2178026C2179093
:102056000287E004F0D3940650030221DB7401F0FA
:1020660022900260E0640360030221DBB2172017AE
:1020760007C20178307618227830761722900260EF
:10208600E0D3940150030221DB7812E6940A500152
:1020960006C20122900260E0D3940150030221DBC4
:1020A6007812E6D39401400116C20122900260E044
:1020B600D394015009900269E070030221DB90027B
:1020C60050E0FF7008780C760F740FF022EFB40F13
:1020D6000B780C761E900250741EF022EFB41E0B85
:1020E600780C763C900250743CF022E4780CF69022
:1020F6000250F022900260E070030221DB90026938
:10210600E0B40A028015900277E0700404F0800EB5
:10211600900269E004F0D3940940037401F0900240
:1021260069E0640960030221DB900270F090026EA0
:10213600F090026CF090026BF022900269E070035E
:102146000221DB900277E004F0D3940350030221CE
:10215600DBE4F022900260E0607B64026077740248
:10216600F022900260E06402706B782A7605229075
:10217600027DE06432705E900261F0900264F0D2FB
:102186000390026004F0783A76057BFF7A35792869
:102196001236D87F0A0239F990027DE06432703532
:1021A600D207900261F0900264F0783A76057BFFE0
:1021B6007A35793D801C90027DE0B41918D200E48E
:1021C600900261F0900264F0783A76037BFF7A35EC
:0621D600794D1236D822FB
:102F3200900276E014F070035398F7900275E01453
:102F4200F070035398EF900274E014F070035398FA
:102F5200DF900271E014F06003023002900277E029
:102F6200FF700A900276F0900275F0805AEFB40179
:102F72002290026EE01313543F900276F090026C9E
:102F8200E01313543F900275F090026BE013135458
:102F92003F8034900277E090026EB40219E0C313CE
:102FA200900276F090026CE0C313900275F09002EA
:102FB2006BE0C3138011E0900276F090026CE09017
:102FC2000275F090026BE0900274F0900260E0B43F
:102FD200020AE58830E10543881080035388EF90A8
:102FE2000276E06003439808900275E0600343981C
:102FF20010900274E060034398209002667401F01E
:0130020022AB
:103B990090026EEFF090026CEDF090026BEBF02268
:101C980090026FE004F0C394045003021F65E490BF
:101CA800026FF0A3E0FF705A90026EE0C394FF50F9
:101CB80003E004F090026CE0D394004003E014F0D9
:101CC80090026BE0D394004003E014F090026EE0C1
:101CD800F46003021F6590026CE06003021F6590C8
:101CE800026BE06003021F6590027275F001122614
:101CF800DFFCD3E5F0941EEC94005003021F65024C
:101D08001EFFEF6401707490026EE0C394FF5003ED
:101D1800E004F090026EE0D394FF4003E014F090EA
:101D2800026CE0C394805003E004F090026CE0D3AE
:101D380094804003E014F090026BE0D394004003D9
:101D4800E014F090026EE0F46003021F6590026CEC
:101D5800E064806003021F6590026BE06003021F6D
:101D68006590027275F0011226DFFED3E5F0941E2D
:101D7800EE94005003021F65021EFF900270E0FF00
:101D88006402705B90026EE0C394FF5003E004F0BD
:101D980090026CE0C394FF5003E004F090026BE003
:101DA800D394004003E014F090026EE0F460030264
:101DB8001F6590026CE0F46003021F6590026BE0FF
:101DC8006003021F6590027275F0011226DFFCD3D2
:101DD800E5F0941EEC94005003021F65021EFFEF0D
:101DE8006403705A90026EE0D394004003E014F04C
:101DF80090026CE0C394FF5003E004F090026BE0A3
:101E0800D394004003E014F090026EE06003021FD8
:101E18006590026CE0F46003021F6590026BE0605D
:101E280003021F6590027275F0011226DFFED3E5EA
:101E3800F0941EEE94005003021F65021EFF9002EC
:101E480070E0FF6404705990026EE0D39400400380
:101E5800E014F090026CE0D394004003E014F0909A
:101E6800026BE0C394FF5003E004F090026EE06060
:101E780003021F6590026CE06003021F6590026B0D
:101E8800E0F46003021F6590027275F0011226DF0C
:101E9800FCD3E5F0941EEC94005003021F658057B4
:101EA800EF6405706090026EE0D394004003E01484
:101EB800F090026CE0C394FF5003E004F090026BD2
:101EC800E0C394FF5003E004F090026EE060030268
:101ED8001F6590026CE0F46003021F6590026BE0DE
:101EE800F4707A90027275F0011226DFFED3E5F0E5
:101EF800941EEE94004066E4900272F0A3F0900203
:101F080070E004F02290026EE0C394FF5003E004F6
:101F1800F090026CE0D394004003E014F090026B60
:101F2800E0C394FF5003E004F090026EE0B4FF2D8C
:101F380090026CE0702790026BE0B4FF2090027270
:101F4800E475F0011226DFFED3E5F09432EE94003A
:0E1F5800400BE4900272F0A3F0900270F022B1
:1023A800900266E0700302256EE4900266F09002E7
:1023B80069E0FFB4091B7811666016E0F6E4900244
:1023C80070F090026E747FF0E490026CF090026BF3
:1023D800F0900260E06007900269E0FE7004E4FBA0
:1023E8008051EEB401047BFF8021900269E0FEB4C5
:1023F8000205E4FBFD8016EEB40306E4FB7D808055
:102408000C900269E0FEB40408E4FB7DFF7FFF80C6
:1024180034EEB40507E4FB7DFFFF8029900269E0F4
:10242800FEB406087BFF7DFFE4FF8019EEB40707C2
:102438007BFFE4FDFF800E900269E0FEB4080C7B90
:10244800FFE4FD7F80123B99022544EE640A600395
:1024580002253A90026DE0FFA3F090026AE0FE9038
:10246800026CF0900268E0FD90026BF0EFB4FF118F
:10247800EEB4FF0DEDB4FF099002697401F0022576
:102488004490026DE0B4FF1390026AE0700D900270
:1024980068E07007A37402F002254490026DE0FF23
:1024A800B4FF1490026AE0B4800D900268E07007EF
:1024B800A37403F0022544EFB4FF1390026AE0B45A
:1024C800FF0C900268E07006A37404F0806E90021E
:1024D8006DE0701390026AE0B4FF0C900268E0703F
:1024E80006A37405F0805590026DE0FF7014900209
:1024F8006AE0B4FF0D900268E0B4FF06A37406F02A
:10250800803AEF701390026AE0700D900268E0B4B0
:10251800FF06A37407F0802490026DE0B4801D903C
:10252800026AE07017900268E0B4FF10A37408F024
:10253800800A900269E0B40903121C98900269E0CD
:10254800FF701AEFB40A1690026EE090026DF090D8
:10255800026CE090026AF0A3E0900268F0900269D1
:07256800E060037811F62288
:0B3BF900000102030507090A0C0E0F73
:0E3BB800EF903BF993FFC374169FFF023AFE95
:103AFE00201515D215EF14782DF6E4782FF67832BE
:093B0E00F653887F782C76C8225A
:103003002015030230B4783206E6C3782C965003B9
:103013000230B4E47832F6782FE6B41300400302AA
:1030230030AC90302CF828287302306502306E02E1
:10303300307702308B02307702308B0230770230E8
:103043008B02307702308B02307702308B0230777D
:1030530002308B02307702308B02307702308B02E2
:1030630030A6438880782C76A0804353887F782CC1
:103073007614803A438880782DE630E70518761E6B
:10308300802C782C760A802653887F782DE6FF30B3
:10309300E70518760A8004782C761EEF25E0782D54
:1030A300F6800B782C76C8800553887FC215782F5D
:0230B3000622F3
:1021DC00900260E0640360030223472016157831F7
:1021EC00F6900287E0F47833F67812E6F4782EF65F
:1021FC00E4A3F0D216900288E0146028146038141E
:10220C00604A240370495390EF783106E6D3941951
:10221C0050030223A75390FD439040123B17E478E0
:10222C0031022374439802783106E6D3943250037A
:10223C000223A7E4022374783106E6D394C8500332
:10224C000223A7900288E004F0E4F62202238578AA
:10225C0030E6FF60393015030223A7B417097BFF62
:10226C007A1A79FE1236D87830E6B41815900287AF
:10227C00E075F018A424FEF9741A35F0FA7BFF12FD
:10228C0036D87830E6FF123AFEE47830F622900227
:10229C0087E078336660483015030223A7E0FFF629
:1022AC00EF6003B4170ED217783376177BFF7A1AC8
:1022BC0079FE8019900287E0FFD394065012EF75D7
:1022CC00F018A424FEF9741A35F0FA7BFF1236D8F4
:1022DC007833E6FF123AFE900287E07833F62279E3
:1022EC0012E7782E6660103015030223A77812E6E9
:1022FC00FF782EF6023BB8A201300401B3502978C6
:10230C003AE67024A20192043001087BFF7A1A7914
:10231C00FE8012900287E075F018A424FEF9741A5E
:10232C0035F0FA7BFF0236D8201708200105781209
:10233C00E670045390EF2243901022301605E4907F
:10234C000288F0C216900288E014601214601C140B
:10235C00602E240370452013035390EF801B7831BB
:10236C0006E6D394144034E4F6800E783AE6702BEB
:10237C007BFF7A1A79FE1236D8900288E004F0229C
:10238C00201318900288E004F05398FD900260E04E
:0C239C00D3940150065390BF123B7222F4
:103B4700757064617465206661696C007570646185
:063B57007465206F6B0095
:0C3BED0053E13F8FE5E5E154C060FA228F
:1038B60090022DEBF0A3EAF0A3E9F0801690022D1A
:1038C600E0FBA3E0FAA3E0F91226656020E5E154E7
:1038D600C060EA53E13F90022DE0FBA3E475F001DE
:0E38E6001226F5A9F0FA122665F5E580D0222B
:1014C40053ABFB53A8E753A9E753AAEFE47817F605
:1014D400781AF608F67815F608F6900226F0A3F0C6
:1014E400A3F09002897400F0A37468F0E4900222DF
:1014F400F0A3F0900222E0FEA3E0FFC3942CEE944C
:10150400015020900289E0FCA3E02FF582EC3EF527
:1015140083E4F0900223E004F070D8900222E00407
:10152400F080D07F43123BED7817E6B40800400307
:1015340002192B90153EF82828730215560215DB64
:101544000216780216FE02178F0217F102183002F3
:1015540018DDE5E130E534900289E0FEA3E0F58290
:101564008E83C083C082781A0806E6188606700146
:101574000614D082D0832582F582E5833EF583E587
:10158400E5F0E4900226F0A3F0A3F0900289E0FED7
:10159400A3E0F5828E83E0B46E25781DE6184660DC
:1015A4000E7BFF7A3B79471238B6E47817F6227B34
:1015B400FF7A3B79531238B67817760602192F78DA
:1015C4001BE66407700418E66401600302192F78AF
:1015D4001AF608F60218D8E4781AF608F690028982
:1015E400E0FEA3E0F5828E83E0F9A3E0FE90028999
:1015F400E0FCA3E0F5828C83A3A3E0FDAC0690029B
:1016040089E0FAA3E0FBF5828A83A3A3A3E0FEEBBF
:101614002404F582E43AF583E0FBEBFFE9B4020E1F
:10162400EFF4FFEEF4FEEF6D7002EE6C6003021651
:10163400F67815E6FE08E6FFC3ED9FFFEC9EFEEF8D
:1016440064014E6004EF4E7025AE04AF057815A614
:101654000608A607E6FEE42400FFEE3440FE9002EE
:1016640029F0A3EFF0D394FFEE947F4004220216F6
:10167400F60218D8E4900224F0A3F0FFFE900222B0
:10168400F0A3F0900222E0FCA3E0FDC3EC9401502F
:1016940034ED2405FDE43CFC900289E0FAA3E02D3E
:1016A400F582EA3CF583E0FD900225E02DF09002FE
:1016B40024E03400F0900223E004F070C69002228B
:1016C400E004F080BE900289E0FCA3E0FD2405F56F
:1016D40082EC3401F583E0FEED2406F582EC34015E
:1016E400F583E0FDEDFF900224E06E7003A3E06F4C
:1016F40060057F1502182A0218D8900229E0FEA37B
:10170400E0FF90028AE02405FD900289E03400FAAB
:10171400A9057B011232A290022AE02440FF900224
:1017240029E03400FE90028AE02445FD900289E01D
:101734003400FAA9057B011232A290022AE0248027
:10174400FF900229E03400FE90028AE02485FD9097
:101754000289E03400FAA9057B011232A290022A20
:10176400E024C0FF900229E03400FE90028AE024C5
:10177400C5FD900289E03400FAA9057B011232A26A
:10178400781DE616187001160218D8E4900222F0AB
:10179400A3F0900222E0FEA3E0FFC3EE9401504ABE
:1017A40090022AE02FFF900229E03EFE123C1D9099
:1017B4000223E02405FD900222E03400FC9002891B
:1017C400E0FAA3E02DF582EA3CF583E06F600B7F3D
:1017D40015123BEDE47817F68010900223E004F034
:1017E40070B0900222E004F080A80218D8E49002BD
:1017F40022F0A3F0900222E0FEA3E0FFC3942CEEBB
:1018040094015020900289E0FCA3E02FF582EC3E85
:10181400F583E4F0900223E004F070D8900222E013
:1018240004F080D07F96123BED02192B90022B74AA
:1018340001F0A3E4F09002297441F0A3E4F09002D3
:101844002BE0FEA3E0C394FFEE940340030218D8F8
:10185400E4900222F0A3F0900222E0FEA3E0FFC392
:101864009440EE9400503790022AE02FFF90022912
:10187400E03EFE123C1D900222E0FCA3E0FD90023B
:1018840089E0FAA3E02DF582EA3CF583EFF09002BB
:1018940023E004F070C1900222E004F080B99002C9
:1018A4002BE0FEA3E0FF900289E0FCA3E0AA04F988
:1018B4007B011232A290022AE02440F0900229E037
:1018C4003400F090022CE02440F090022BE034002D
:1018D400F00218427817068052E4900222F0A3F036
:1018E400900222E0FEA3E0FFC39440EE9400502156
:1018F400900289E0FCA3E02FF582EC3EF58374AA04
:10190400F0900223E004F070D7900222E004F0800B
:10191400CF900289E0FEA3E0AA06F97B017F007E56
:10192400041232A2020000E47817F6900226E004C2
:10193400F0600302152CA3E004F0600302152CA34D
:10194400E004F0C39402500302152C1200000215A7
:011954002C66
:101955007B54696D6553796E63005475726E206FA3
:101965006E20756E6974005475726E206F66662000
:10197500756E6974004770537461005475726E20FA
:101985006F6E204254006D7573696320706C6179C8
:10199500006D757369632070617573650053656CBF
:1019A50065637420536F756E642066696C65007B92
:1019B5004D757369635374617475730041646A7519
:1019C5007374204F757470757420566F6C756D65E2
:1019D50000766F6C756D6520757000766F6C756D32
:1019E5006520646F776E006D75736963206D75741E
:1019F50065006D7573696320756E6D75746500534B
:101A050065742054696D6572005475726E206F6639
:101A1500662054696D6572005475726E206F6E2074
:101A25004C6967687472005475726E206F66662023
:101A35004C6967687472006C69676874207570001A
:101A45006C6967687420646F776E004368616E67C0
:101A550065206C6967687420636F6C6F7200416400
:101A65006A757374204C6967687420427269676887
:101A7500746E657373005573657220636F6C6F7256
:101A8500007B50726F6772616D0050726F506C61B0
:101A9500790D0A007B416C61726D4F6E4F66660071
:101AA5007B416C61726D536574007B416C6147705D
:101AB500537461007B4E6F724770537461002075DB
:101AC500706461746500415457510D0A00564552C2
:101AD5000D0A00242424564552302E350D0A0045A2
:101AE5006E74657220546573744D6F64650D0A00DC
:101AF5000101020408102040802424247B4D7573C5
:101B050069635374617475733A5B30375D7D0D0A93
:101B1500002424247B4D7573696353746174757354
:101B25003A5B30315D7D0D0A002424247B4D7573AD
:101B350069635374617475733A5B30325D7D0D0A68
:101B4500002424247B4D7573696353746174757324
:101B55003A5B30335D7D0D0A002424247B4D75737B
:101B650069635374617475733A5B30345D7D0D0A36
:101B7500002424247B4D75736963537461747573F4
:101B85003A5B30355D7D0D0A002424247B4D757349
:101B950069635374617475733A5B30365D7D0D0A04
:101BA500002424247B47705374613A5B30302C3019
:101BB500302C30302C30302C3030303030302C3030
:101BC500302C30302C30302C30303B30302C303015
:101BD5002C30302C3030303030302C30302C303010
:101BE5002C30302C30302C30303A30302C30305DC9
:101BF5007D0D0A002424247B416C61477053746178
:101C05003A5B30302C30302C30302C30302C3030AA
:101C1500303030302C30302C30302C30302C3030CF
:101C25002C30302C30303A30302C30305D7D0D0A80
:101C3500002424247B4E6F7247705374613A5B30E5
:101C4500302C30302C30302C30302C30303030309F
:101C5500302C30302C30302C30302C30305D7D0D38
:101C65000A002424247B4E6F7247705374613A5BDB
:101C750030302C30302C30302C30302C303030306F
:101C850030302C30302C30302C30302C30305D7DE5
:031C95000D0A0035
:1034B70090022574FFF0A37419F0745FA3F09002D3
:0934C7001FE0FBA3E0FAA3E0F909
:1034D000900222EBF0A3EAF0A3E9F0900225E0FBD2
:1034E000A3E0FAA3E0F9122665FF602F900222E024
:1034F000FBA3E0FAA3E0F9122665B507056003EF28
:1035000070037F0122900223E475F0011226DF9000
:0E3510000226E475F0011226DF80C07F002243
:1033C50090021FE0FBA3E0FAA3E0F990000B1226A0
:1033D5007EFF90000C12267EFD12342090026DEFC8
:1033E500F090021FE0FBA3E0FAA3E0F990000D12B4
:1033F500267EFF90000E12267EFD12342090026A72
:10340500EFF090021FE0FBA3E0FAA3E0F990000FB4
:0B34150012267E900010FF12267EFDA4
:10342000C3EF648094C14006EF24C9FF800474D0C8
:103430002FFFC3ED648094C14006ED24C9FD8004D4
:0B34400074D02DFDEFC454F04DFF22AE
:05399C00FF12267EFD74
:1039A100C3EF648094C14006EF24C9FF800474D042
:1039B1002FFFC3ED648094C14006ED24C9FD80044E
:0C39C10074D02DFDEF75F00AA42DFF223C
:1033360012339690021BE0FBA3E0FAA3E0241AF9ED
:10334600E43AFA90026DE0FD12339690021BE0FB20
:10335600A3E0FAA3E0241CF9E43AFA90026AE0FD3D
:1033660012339690021BE0FBA3E0FAA3E0241EF9B9
:10337600E43AFA900268E0FD12339690021BE0FBF5
:10338600A3E0FAA3E09002772421F9E43AFAE0FDFB
:10339600EDC4540FFFC3940AEF400424378002247F
:1033A600301226AB740129F9E43AFAED540FFFC343
:0E33B600940AEF40042437800224301226AB24
:0133C40022E6
:103A9C009002607401F0780DE6B403047F03800299
:103AAC007F01900260EFF07809E67812F67811E663
:053ABC00900269F022F8
:103AC100900260E0780DF6E4F07812E67809F6905D
:103AD1000269E07811F6E4F0780CF6900250F022D9
:1039CD00E490025EF0900279F0123AC1783A7605F1
:1039DD00900260E070047F0180027F001228DBE41A
:0C39ED0090025FF0780CF6900250F0227F
:0528DB00900222EFF065
:1028E0007834E670FBE47838F67F64900194E4F085
:1028F000A3DFFCE4FFEFFD3395E0FC74A62DF58229
:10290000741B3CF583E493FE74942DF58274013CB2
:10291000F583EEF00FEFB452DC7B017A01799F90E2
:102920000222E0FD1233967A0179A2900260E0B4AF
:102930000308900287E0FFFD80027D071233967B3B
:10294000017A0179A5900269E07003FD80027D01A2
:102950001233967B017A0179A8900269E0B40904E8
:102960007D0180027D001233967B017A0179AB9064
:10297000026DE0FD1233967A0179AD90026AE0FDB6
:102980001233967A0179AF900268E0FD1233967A9D
:102990000179B2900277E0FD1233967A0179B57829
:1029A00012E6FD1233967A0179B8A217E433FD12CC
:1029B00033967A0179BB780CE6FD1233967A017969
:1029C000BEE4FD1233967A0179C1900258E0FD12FF
:1029D00033967A0179C4900267E0B409047D0180DE
:1029E000027D001233967B017A0179C7900255E08F
:1029F000FD1233967A0179C9900256E0FD123396A2
:102A00007A0179CB900257E0FD1233967A0179CEA4
:102A100090025CE0FD1233967A0179D1900259E080
:102A2000FD1233967A0179D4900251E0FD1233966B
:102A30007A0179D7900252E0FD1233967A0179DA61
:102A4000900253E0FD1233967A0179DD900254E052
:102A5000FD1233967A0179E090025DE0FD12339623
:102A6000783A7602E47839F6783476017837760A5F
:102A70007839E6062494F582E43401F583E0F5E53F
:012A80002233
:0B05260090021BEBF0A3EAF0A3E9F049
:100531002403F9E43AFA90021FEBF0A3EAF0A3E9ED
:10054100F0900260E0700302120D90022574FFF03A
:10055100A37419F074551234C3EF707590021FE043
:10056100FBA3E0FAA3E0F990000B12267E90000CA9
:1005710012341B780FA60790021FE0FBA3E0FAA339
:10058100E0F990000E12267EFF90000F12341C78C5
:100591000AA60790021FE0FBA3E0FAA3E0F990008E
:1005A1001112267EFF90001212341C780EA60790BD
:1005B100021FE0FBA3E0FAA3E0F990001E12267EE1
:1005C10024D0780BF6E6901AF593F6E4900265F0E4
:1005D100221234B7EF7020900260E06003020971CB
:1005E100123A9C783A7603900260E070057F01022E
:1005F100122F7F0002122F90022574FFF0A37419AD
:10060100F0A3746C1234C4EF7016123AC1783A76C2
:1006110003900260E070047F0180027F0002122FCC
:1006210090022574FFF0A37419F0A3747A1234C4F4
:10063100EF70012290022574FFF0A37419F0A374E6
:10064100801234C4EF70099002607402F0020971E3
:1006510090022574FFF0A37419F0A3748B1234C4B3
:10066100EF70199002607403F0C201C217F090029A
:1006710087E0700304F02278307618229002257406
:10068100FFF0A37419F0A374961234C4EF701290A2
:100691000260E0640360030214C3D2177830761756
:1006A1002290022574FFF0A37419F0A374A21234EE
:1006B100C4EF704090025EE0600BE4F0A3F0780CB0
:1006C100F6900250F0C201C2179002607403F090DC
:1006D100021FE0FBA3E0FAA3E0F990001A12267EC4
:1006E10024D0FF900287F07833E6B507047830769E
:1006F100180212EF90022574FFF0A37419F0A3748D
:10070100B41234C4EF70012290022574FFF0A37477
:1007110019F0A374C11234C4EF702390025EE0603B
:100721000302095190021FE0FBA3E0FAA3E0F99054
:10073100001412267E90001512399C0207B5900212
:100741002574FFF0A37419F0A374D61234C4EF70AA
:100751002990025EE060030209517812E6FFC3941A
:100761000A5013EF94085007E62402FFF680097837
:100771001206E6FF80027F0A803A90022574FFF09C
:10078100A37419F0A374E01234C4EF703090025EC8
:10079100E060030209517812E6FFD394014013EFA0
:1007A10094034007E624FEFFF68009781216E6FF5F
:1007B10080027F017812A607C20102097190022509
:1007C10074FFF0A37419F0A374EC1234C4EF700336
:1007D100D2012290022574FFF0A37419F0A374F7DB
:1007E1001234C4EF7003C2012290022574FFF0A3FA
:1007F100741AF0A374041234C4EF702590025EE001
:10080100600302095190021FE0FBA3E0FAA3E0F9A3
:1008110090000A12267E90000B12399C780CEF8012
:100821001F90022574FFF0A3741AF0A3740E123402
:10083100C4EF701490025EE06003020951E4780C89
:10084100F6900250F002097190022574FFF0A37432
:100851001AF0A3741D1234C4EF702290025EE0609E
:100861000BE4F0A3F0780CF6900250F07811E690CA
:100871000269F0600302097104F002097190022516
:1008810074FFF0A3741AF0A3742C1234C4EF701126
:1008910090025EE06003020951E4900269F00209EE
:1008A1007190022574FFF0A3741AF0A3743C123402
:1008B100C4EF701B90025EE0600302095190027761
:1008C100E0C394034003020971E004F0020971904E
:1008D100022574FFF0A3741AF0A374451234C4EF17
:1008E100701890025EE06003020951900277E0D334
:1008F1009400407CE014F002097190022574FFF02D
:10090100A3741AF0A374501234C4EF702A90025EDB
:10091100E0600BE4F0A3F0780CF6900250F0900246
:10092100697409F0E4900270F090026EF090026C2C
:10093100F090026BF0803990022574FFF0A3741AD5
:10094100F0A374631234C4EF702690025EE060037A
:100951000239CD90021FE0FBA3E0FAA3E0F9900079
:100961001812267EFF90001912399D900277EFF040
:1009710090022574FFF0A3741AF0A3747B1234C49F
:10098100EF702290025EE0600BE4F0A3F0780CF6C9
:10099100900250F01233C5900268EFF09002697432
:1009A1000AF00211FF90022574FFF0A3741AF0A35C
:1009B10074861234C4EF6003020B1E90025EE06085
:1009C1000BE4F0A3F0780CF6900250F0123A769016
:1009D100021FE0FBA3E0FAA3E0F990000E12267ECD
:1009E10024D0900287F09001F8F090001112267E39
:1009F100FFB431047E0180027E00900269EEF09026
:100A010001F9F0EFB4311C90021FE0FBA3E0FAA35F
:100A1100E0F990001412267EB431047F0980067F2C
:100A21000A80027F00900269EFF09001F9F09002D4
:100A31001FE0FBA3E0FAA3E0F990001612267EFF67
:100A410090001712341C90026DEFF09001FAF090B3
:100A5100021FE0FBA3E0FAA3E0F990001812267E42
:100A6100FF90001912341C90026AEFF09001FBF024
:100A710090021FE0FBA3E0FAA3E0F990001A12260E
:100A81007EFF90001B12341C900268EFF09001FC75
:100A9100F090021FE0FBA3E0FAA3E0F990001D1221
:100AA100267EFF90001E12399D900277EFF0900193
:100AB100FDF090021FE0FBA3E0FAA3E0F990002013
:100AC10012267EFF90002112341C7812EFF690015D
:100AD100FEF09002607403F09001FFF090021FE0BD
:100AE100FBA3E0FAA3E0F990002412267E24D0248F
:100AF100FF9217E433900200F0201705C201E4A32E
:100B0100F090002612267EFF90002712341C780CEC
:100B1100EFF6900250F0900202F00211FF900225D0
:100B210074FFF0A3741AF0A3748F1234C4EF7066CB
:100B310090025EE0600BE4F0A3F0780CF6900250B6
:100B4100F09001F8E0900287F09001F9E0900269DD
:100B5100F09001FAE090026DF09001FBE090026AE2
:100B6100F09001FCE0900268F09001FDE0900277C6
:100B7100F09001FEE07812F6A3E0900260F090029E
:100B810000E024FF9217201702C201900202E090B8
:100B91000250F00211FF90022574FFF0A3741AF0C5
:100BA100A374991234C4EF707190021FE0FBA3E0AB
:100BB100FAA3E0F990001112267E24D0900251F0A0
:100BC10090001312267EFF90001412341C780FA699
:100BD1000790021FE0FBA3E0FAA3E0F990001612D0
:100BE100267EFF90001712341C780AA60790021F78
:100BF100E0FBA3E0FAA3E0F990001912267EFF9032
:100C0100001A12341C780EA60790021FE0FBA3E025
:100C1100FAA3E0F9900026020DE690022574FFF098
:100C2100A3741AF0A374A51234C4EF6003020DF784
:100C310090021FE0FBA3E0FAA3E0F990000F122657
:100C41007E24D0900258F0C394074002E4F0900053
:100C51001212267EFF24D090025BF0EFB431119086
:100C6100001512267EB431047F0980067F0A8002B6
:100C71007F0090025BEFF090021FE0FBA3E0FAA37C
:100C8100E0F990001712267EFF90001812341C9094
:100C91000255EFF090021FE0FBA3E0FAA3E0F99008
:100CA100001912267EFF90001A12341C900256EF92
:100CB100F090021FE0FBA3E0FAA3E0F990001B1201
:100CC100267EFF90001C12341C900257EFF0900218
:100CD1001FE0FBA3E0FAA3E0F990001F12267E2497
:100CE100D090025CF090002112267EFF900022122B
:100CF100341C900259EFF090021FE0FBA3E0FAA32D
:100D0100E0F990002512267E24D090025AF090003E
:100D11002812267E24D0900251F090002A12267EBD
:100D2100FF90002B12341C900252EFF090021FE052
:100D3100FBA3E0FAA3E0F990002D12267EFF9000BC
:100D41002E12341C900253EFF090021FE0FBA3E03F
:100D5100FAA3E0F990003012267EFF9000311234A0
:100D61001C900254EFF090021FE0FBA3E0FAA3E015
:100D7100F990003312267EFF90003412341C900249
:100D81005DEFF090021FE0FBA3E0FAA3E0F9900011
:100D91003612267EFF90003712341C780FA607907A
:100DA100021FE0FBA3E0FAA3E0F990003912267ECE
:100DB100FF90003A12341C780AA60790021FE0FB4C
:100DC100A3E0FAA3E0F990003C12267EFF90003DDB
:100DD10012341C780EA60790021FE0FBA3E0FAA3D1
:100DE100E0F990004912267E24D0780BF6E6901A9D
:100DF100F593F60211FF90022574FFF0A3741AF027
:0C0E0100A374AF1234C4EF6003020FD5DD
:100E0D0090021EF090021EE0FFC39464501C9002ED
:100E1D001BE0FBA3E0FAA3E0F98F82758300E412D7
:100E2D0026BD90021EE004F080DAE490021EF090E0
:100E3D00021EE0FF901BF993FE90021BE0FBA3E066
:100E4D00FAA3E0F98F82758300EE1226BD90021E83
:100E5D00E004F0E0B43ED890021BE0FBA3E0FAA35F
:100E6D00E0240EF9E43AFAE4FD12339690021BE009
:100E7D00FBA3E0FAA3E02411F9E43AFA900258E05A
:100E8D00FF6003FD80027D0712339690021BE0FB8D
:100E9D00A3E0FAA3E02414F9E43AFA90025BE070BF
:100EAD0003FD80027D0112339690021BE0FBA3E04F
:100EBD00FAA3E02417F9E43AFA90025BE0B40904CE
:100ECD007D0180027D0012339690021BE0FBA3E0B2
:100EDD00FAA3E0241AF9E43AFA900255E0FD123330
:100EED009690021BE0FBA3E0FAA3E0241CF9E43A80
:100EFD00FA900256E0FD12339690021BE0FBA3E040
:100F0D00FAA3E0241EF9E43AFA900257E0FD1233F9
:100F1D009690021BE0FBA3E0FAA3E090025C123373
:100F2D008E90021BE0FBA3E0FAA3E02424F9E43A3F
:100F3D00FA900259E0FD12339690021BE0FBA3E0FC
:100F4D00FAA3E02427F9E43AFA90025AE0FD1233AD
:100F5D009690021BE0FBA3E0FAA3E0242AF9E43A01
:100F6D00FA900251E0FD12339690021BE0FBA3E0D4
:100F7D00FAA3E0242DF9E43AFA900252E0FD12337F
:100F8D009690021BE0FBA3E0FAA3E02430F9E43ACB
:100F9D00FA900253E0FD12339690021BE0FBA3E0A2
:100FAD00FAA3E02433F9E43AFA900254E0FD123347
:100FBD009690021BE0FBA3E0FAA3E02436F9E43A95
:050FCD00FA90025DE056
:100FD2000210FB90022574FFF0A3741AF0A374B9F7
:090FE2001234C4EF600302110691
:100FEB0090021EF090021EE0FFC39464501C90020E
:100FFB001BE0FBA3E0FAA3E0F98F82758300E412F8
:10100B0026BD90021EE004F080DAE490021EF09000
:10101B00021EE0FF901C3693FE90021BE0FBA3E048
:10102B00FAA3E0F98F82758300EE1226BD90021EA3
:10103B00E004F0E0B430D890021BE0FBA3E0FAA38D
:10104B00E0240EF9E43AFA7D0112339690021BE08C
:10105B00FBA3E0FAA3E02411F9E43AFA900260E072
:10106B00B40308900287E0FFFD80027D07123396E0
:10107B0090021BE0FBA3E0FAA3E02414F9E43AFA94
:10108B00900269E07003FD80027D0112339690029D
:10109B001BE0FBA3E0FAA3E02417F9E43AFA900271
:1010AB0069E0B409047D0080027D011233369002A1
:1010BB001BE0FBA3E0FAA3E02424F9E43AFA78124C
:1010CB00E6FD12339690021BE0FBA3E0FAA3E024AB
:1010DB0027F9E43AFAA217E433FD12339690021B78
:1010EB00E0FBA3E0FAA3E0242AF9E43AFA780CE651
:0810FB00FD123396783A7602EB
:101103000211FF90022574FFF0A3741AF0A374C3B5
:101113001234C4EF60030211B790021FE0FBA3E097
:10112300FAA3E0F990000A12267EFF90000B123416
:101133001CEF7F00FEC007C00690021FE0FBA3E088
:10114300FAA3E0F990000C12267EFF90000D1234F2
:101153001CEFFD3395E0FCD0E04CFED0E04D781859
:10116300A60608F690021FE0FBA3E0FAA3E0F990BD
:10117300001112267EFF90001212341CEF7F00FE36
:10118300C007C00690021FE0FBA3E0FAA3E0F990BA
:10119300001312267EFF90001412341CEFFD3395CA
:1011A300E0FCD0E04CFED0E04D781CA60608F61219
:1011B30014C4804890022574FFF0A3741AF0A3743A
:1011C300CB1234C4EF7002802F90022574FFF0A37A
:1011D300741AF0A374D21234C4EF70097BFF7A1A25
:1011E30079D80214C090022574FFF0A3741AF0A3F7
:1011F30074E41234C4EF7004783AF62290021BE0D0
:10120300FBA3E0FAA3E0F90214C01234B7EF701F96
:10121300900260E060030214B5123A9C783A7603B8
:10122300900260E070047F0180027F000228DB905F
:10123300022574FFF0A3741AF0A3741D1234C4EFD3
:101243007011123A9C900269E060030214B504F035
:101253000214B590022574FFF0A3741AF0A374501E
:101263001234C4EF701D123A9C9002697409F0E4C1
:10127300900270F090026EF090026CF090026BF0AE
:101283000214B590022574FFF0A3741AF0A3747BC3
:101293001234C4EF7014123A9C1233C5900268EFF3
:1012A300F0900269740AF00214B590022574FFF0FD
:1012B300A37419F0A374A21234C4EF7048123A9CB9
:1012C300C201C2179002607403F090021FE0FBA3F7
:1012D300E0FAA3E0F990001A12267E24D0FF9002D0
:1012E30087F07833E6B5070478307618783A7601D4
:1012F300900287E075F018A424FEF9741A35F0FA09
:101303007BFF0214C090022574FFF0A3741AF0A3AC
:10131300748F1234C4EF7058123A9C9001F8E09025
:101323000287F09001F9E0900269F09001FAE090F1
:10133300026DF09001FBE090026AF09001FCE090F6
:101343000268F09001FDE0900277F09001FEE078F2
:1013530012F6A3E0900260F0900200E024FF9217DF
:10136300201702C201900202E0900250F00214B56D
:1013730090022574FFF0A37419F0A3747A1234C495
:10138300EF70012290022574FFF0A3741AF0A37486
:0A139300B91234C4EF60030214B570
:10139D0090021EF090021EE0FFC39464501C900258
:1013AD001BE0FBA3E0FAA3E0F98F82758300E41242
:1013BD0026BD90021EE004F080DAE490021EF0904B
:1013CD00021EE0FF901C6793FE90021BE0FBA3E062
:1013DD00FAA3E0F98F82758300EE1226BD90021EEE
:1013ED00E004F0E0B430D890021BE0FBA3E0FAA3D8
:1013FD00E0240EF9E43AFAE4FD12339690021BE074
:10140D00FBA3E0FAA3E02411F9E43AFA900260E0BC
:10141D00B40308900287E0FFFD80027D071233962A
:10142D0090021BE0FBA3E0FAA3E02414F9E43AFADE
:10143D00900269E07003FD80027D011233969002E7
:10144D001BE0FBA3E0FAA3E02417F9E43AFA9002BB
:10145D0069E0B409047D0080027D011233369002EB
:10146D001BE0FBA3E0FAA3E02424F9E43AFA781296
:10147D00E6FD12339690021BE0FBA3E0FAA3E024F5
:10148D0027F9E43AFAA217E433FD12339690021BC2
:10149D00E0FBA3E0FAA3E0242AF9E43AFA780CE69B
:0814AD00FD123396783A760235
:0E14B50090021BE0FBA3E0FAA3E0F91236D888
:0114C3002206
:103A7600780E7C027D017B017A0279037E007F0B42
:103A860012263F78037C027D017B017A0179F87E5C
:063A9600007F0B02263F39
:0D3BE000E4F5FDF5FEF5FA75FB40F5FC225D
:033C32000200008D
:103A4E00E4FE7DA2EF600E74832EF582E43402F55F
:103A5E0083EDF0800C74832EF582E43402F583E45A
:073A6E00F00D0EEEB404DDC3
:013A7500222E
:083C150075FE01000000002211
:10392F00AD07AC06E4F5FAECF5FBAF058FFC75FDC2
:10393F00A5900283E064A27018A3E0B4A313A3E0E0
:10394F00B4A40EA3E0B4A50975FE03000000008027
:07395F0003123C32023BE0C1
:10368900AD07AC067F007E80123C15E4FBEF2BF5FD
:1036990082E43EF583E4F00BEBB440F1E4F5FAEC97
:1036A900F5FBAF058FFC75FDA5900283E064A27060
:1036B90018A3E0B4A313A3E0B4A40EA3E0B4A5092E
:0F36C90075FE02000000008003123C32023BE05D
:0B32A20090022DEBF0A3EAF0A3E9F08E
:1032AD00E4900231F0A37480F0A3E4F0A3EEF0A358
:1032BD00EFF053A87F7F01123A4E900234E0FEA347
:1032CD00E0FF123689123C15E4900230F090022D89
:1032DD00E0FBA3E0FAA3E0F9900231E0FF04F08FE8
:1032ED008275830012267EFF900230E0FE9002323E
:1032FD00E0FCA3E02EF582E43CF583EFF090023084
:10330D00E004F0E0B440C6900234E0FEA3E0FF120A
:10331D00392FE4FF123A4E900235E02440F090022E
:08332D0034E03400F043A880F5
:013335002275
:073C1D008F828E83E493FF08
:013C2400227D
:1001000090021B7400F0A37468F0A37480F0A3E461
:10011000F090021AF090021AE0FFC394405016A328
:10012000E0FCA3E02FF582E43CF583E4F090021AB2
:10013000E004F080E09002217404F0A3E4F0900267
:100140001AF090021AE0FFC394405034900221E06C
:10015000FCA3E0F5828C83E493FE90021BE0FCA3F9
:10016000E02FF582E43CF583EEF0900222E004F00B
:100170007006900221E004F090021AE004F080C2C0
:1001800090021BE0FEA3E0FFF5828E83E064AA608C
:100190000302036FA3A3E064AA600302036F90024B
:1001A0001BA3E02404F582E43EF583E064AA600327
:1001B00002036FEF2406F582E43EF583E064AA6053
:1001C0000302036F53A87F90021FF0A3F0A37440B3
:1001D00002036890021FE0FEA3E0FDAC06E490027B
:1001E0001AF090021AE0F9C39440400302026D90A5
:1001F000021FE0FEA3E0FFC3EE94004009D3EF949A
:1002000000EE9404400FC3EE94054045D3EF94FFF5
:10021000EE943F503C900221E0FEA3E0F5828E83F5
:10022000E493FF90021BE0FAA3E029F582E43AF59B
:1002300083EFF0900222E004F07006900221E004C7
:10024000F0900220E004F0701B90021FE004F080A8
:100250001390021AE0FFA3E0FAA3E02FF582E43A3C
:10026000F583E4F090021AE004F00201E275FE0169
:1002700000000000E490021AF090021AE0FFC3941C
:1002800040501890021DE0FAA3E02FF582E43AF501
:1002900083E4F090021AE004F080DEE4F5FAECF575
:1002A000FB8DFC75FDA50000000075FE020000003E
:1002B00000E4F5FDF5FEF5FA75FB05F5FC75FE01AC
:1002C0000000000090021AF090021AE0F9A3E0FE8C
:1002D000A3E029F582E43EF583E0FF90021DE0FAF9
:1002E000A3E029F582E43AF583EFF090021AE004E6
:1002F000F0E0B440D3E4F5FAECF5FBAF058FFC7504
:10030000FDA50000000075FE0300000000E4F5FDFF
:10031000F5FEF5FA75FB05F5FC90021FE0FEA3E083
:10032000FFC3EE9404400CD3EF9400EE9405500309
:1003300012000090021FE0FEA3E0B40014EEB4012E
:100340001090021F7405F0A3E4F0A37445F0A3E439
:10035000F090021FE0FEA3E0C394FFEE943F500331
:100360000201D390021F7404F0A3E4F00201D3123F
:05037000050043A88018
:010375002265
:1036D8007834E670FBE47838F67F64900194E4F07F
:1036E800A3DFFCE4FF122665FE601674942FF582B2
:1036F800E43401F583EEF0740129F9E43AFA0F8015
:10370800E4E47839F6783476017837760A7839E659
:0D371800062494F582E43401F583E0F5E524
:013725002281
:10396600783AE660307838E6B414277834E670FBA7
:10397600783A16E47838F608F678347601783776A9
:103986000A7839E6062494F582E43401F583E0F5F5
:06399600E522783806224C
:10316100900002E0FEA3E0FF900000E06E7003A378
:10317100E06F70030232077836760A900002E0FEB3
:10318100A3E0FF2468F58274003EF583E0FD18E6B4
:103191002404F582E43400F583EDF074682FF582A0
:1031A10074003EF583E4F090000275F0011226DF11
:1031B100FEC3E5F0942CEE94014007E4900002F088
:1031C100A3F07835E6062404F582E43400F583E0C3
:1031D100640A708C7B017A007904120526E4783543
:1031E100F690021AF090021AE0FFC39464400302C1
:1031F100316174042FF582E43400F583E4F0900228
:063201001AE004F080DF7A
:0132070022A4
:10322200020500E493A3F8E493A34003F68001F2BD
:1032320008DFF48029E493A3F85407240CC8C333AD
:10324200C4540F4420C8834004F456800146F6DF7C
:10325200E4800B0102040810204080903C35E47E9B
:10326200019360BCA3FF543F30E509541FFEE49371
:10327200A360010ECF54C025E060A840B8E493A338
:10328200FAE493A3F8E493A3C8C582C8CAC583CA63
:10329200F0A3C8C582C8CAC583CADFE9DEE780BE1B
:013C3500008E
:10256F00E709F608DFFA8046E709F208DFFA803E4E
:10257F0088828C83E709F0A3DFFA8032E309F6083B
:10258F00DFFA8078E309F208DFFA807088828C83A3
:10259F00E309F0A3DFFA806489828A83E0A3F60857
:1025AF00DFFA805889828A83E0A3F208DFFA804C31
:1025BF0080D280FA80C680D4806980F28033801008
:1025CF0080A680EA809A80A880DA80E280CA803371
:1025DF0089828A83ECFAE493A3C8C582C8CCC583E9
:1025EF00CCF0A3C8C582C8CCC583CCDFE9DEE780B9
:1025FF000D89828A83E493A3F608DFF9ECFAA9F038
:10260F00EDFB2289828A83ECFAE0A3C8C582C8CC8D
:10261F00C583CCF0A3C8C582C8CCC583CCDFEADEA6
:10262F00E880DB89828A83E493A3F208DFF980CC08
:10263F0088F0EF60010E4E60C388F0ED2402B40401
:10264F000050B9F582EB2402B4040050AF232345A8
:06265F0082239025BF73E9
:10266500BB010689828A83E0225002E722BBFE0273
:09267500E32289828A83E49322A6
:10267E00BB010CE58229F582E5833AF583E0225011
:10268E0006E92582F8E622BBFE06E92582F8E2225B
:0D269E00E58229F582E5833AF583E4932275
:1026AB00BB010689828A83F0225002F722BBFE010E
:0226BB00F32208
:1026BD00F8BB010DE58229F582E5833AF583E8F053
:1026CD00225006E92582C8F622BBFE05E92582C8FF
:0226DD00F222E7
:1026DF00C5F0F8A3E028F0C5F0F8E5821582700286
:0626EF001583E038F02223
:1026F500A3F8E0C5F025F0F0E58215827002158398
:06270500E0C838F0E822F4
:10270B00D083D082F8E4937012740193700DA3A35D
:10271B0093F8740193F5828883E473740293686071
:06272B00EFA3A3A380DF71
:00000001FF
