:0300000002346F58
:10346F0078FFE4F6D8FD9000007F007E03E4F0A320
:0A347F00DFFCDEFA75813A0201005D
:1005000053A87F12381F123D6C123E62123E4A12EF
:100510003E03123D9A123DC3123E1043A880123A88
:06052000A312010080FEA1
:03001B0002362C7E
:0F362C00C0E0C083C082C0D075D000C000C0070E
:10363B00AFF553F1DF7825760A300E237827E6C3F2
:10364B009408500DE606243FF582E43402F583EF2F
:10365B00F0EF640A702A7827F6D210B20E80217828
:10366B0027E6C39408500DE6062447F582E434029E
:10367B00F583EFF0EFB40A0878277600D211B20E7B
:0D368B00D007D000D0D0D082D083D0E03264
:030023000239DDC2
:1039DD00C0E0C083C082C0D075D000C00053F17F5D
:1039ED007824E660247826760A7828E6062437F5CA
:1039FD0082E43402F583E0F5F5E62437F582E4340C
:103A0D0002F583E070037824F6D000D0D0D082D0B8
:043A1D0083D0E03240
:03004B000237C4B5
:1037C400C0E0C0F0C083C082C0D075D000C000C0CB
:0537D40004C006C0075F
:1037D900AFE553E1DF900000E0FCA3E02468F58247
:1037E90074003CF583EFF0900000E475F001122AB3
:1037F9000FFEC3E5F0942CEE94014007900000E41D
:03380900F0A3F039
:10380C00D007D006D004D000D0D0D082D083D0F056
:03381C00D0E032C7
:03005300023A214D
:103A2100C0E0C083C082C0D075D000C00053E17F28
:103A31007834E660247837760A7839E6062494F5F6
:103A410082E43401F583E0F5E5E62494F582E4347B
:103A510001F583E070037834F6D000D0D0D082D065
:043A610083D0E032FC
:03006B00023B1F36
:103B1F00C0E0C0F0C083C082C0D075D000C000C06C
:103B2F0001C002C003C004C005C006C0071237673A
:103B3F00D007D006D005D004D003D002D001D000DA
:0B3B4F00D0D0D082D083D0F0D0E03284
:03008300023A65D9
:103A6500C0E0C0F0C083C082C0D075D000C000C027
:103A750001C002C003C004C005C006C007123199C9
:103A850012326AD007D006D005D004D003D002D0B8
:0E3A950001D000D0D0D082D083D0F0D0E0326B
:0300A30002390C13
:10390C00C0E0C0D075D000C000C007B20230022D9C
:10391C00780E06E6D3943B40247600780A06E6D36C
:10392C00943B40197600780F06E6D39417400E7638
:10393C0000780BE625E0FFF6BF80027601D007D0B9
:06394C0000D0D0D0E032F3
:083E4100AF9FEFFEAD9EEDFF07
:013E49002256
:073E6200759C80759D07228D
:0F3DE600EF540FFFE59C54F04FF59C439C402297
:083E4A00E4F59AF599F59B22BD
:0D3E030075B28875B45D43AA0243B2012276
:103D9A00901000748AF0A3744AF043AA109010009D
:053DAA00E04401F022DD
:103DC30075DA0275D90643DAECE4F5DB75E30C43E7
:033DD300A918220A
:103D540020181275EA0275E90643EAECE4F5EB75FE
:083D6400F34D43A818D2182208
:103DAF0030180EE4F5EAF5E9F5EAF5EBF5F353A86B
:043DBF00E7C218221D
:0D3E100075968875890175898143AB042280
:103D6C0090103874A8F075C80A758B09E58B30E78C
:083D7C00FB758A0143C8052212
:10381F0075A17FE4F5ACF591F5DEF58075B198757E
:10382F00AD20F592F5DFF58875B9FFF5AEF593F597
:10383F009075C1FEF5AFF59875C9FEF5A3F594F532
:10384F00A075D1FFF595F5B075D320F5D2F5D575E7
:10385F00D403F5D775D603F5EE75EF0A75FF2D2254
:103D1E0024242454696D652073796E630D0A002482
:0D3D2E002424416C61726D2075700D0A0037
:10376700D2057813E6FF7002D208EFB40102D2093E
:10377700EFB40202D20AEFB40302D20BEFB4040291
:10378700D20CEFB40502D20DEF6406702478371619
:10379700E670037834F6783616E670037835F678EF
:1037A7002616E670037824F6782516E67003782740
:0D37B700F6781306E6C3940A4002E4F622F9
:1026DB00780EE6FF781466700302289EA607900218
:1026EB005FE0601990024FE004F0D3940A400EE4CF
:1026FB00F0900259E0FF7812E69F500106900265B8
:10270B00E0B40121900263E004F0E0C3940A4015A9
:10271B00E4F0783A76037BFF7A3D791E1238BE904F
:10272B0002657402F0780AE6FF78106670030228DF
:10273B009EA607780CE6601F16E6701B123CA6E4FB
:10274B0090025EF0783A7603900260E070047F01AD
:10275B0080027F00122A6190025FE0601F14F0700C
:10276B001B123CA6E490025EF0783A76059002606C
:10277B00E070047F0180027F00122A61900251E019
:10278B0064016003022850900253E0780F666003E7
:10279B00022850A3E0780A66600302285090025288
:1027AB00E0FF08E6FEEF5E7003022850EF20E7061D
:1027BB00EEF4FEEF5EF078127601C201E490024F68
:1027CB00F090025E04F09002607403F0900255E00A
:1027DB0090026DF0900256E090026AF0900257E082
:1027EB00900268F0900258E0900287F090025AE055
:1027FB0024FF9217201703C38001D39201201704E3
:10280B007F1880027F177830A60790025BE090025A
:10281B0069F090025CE0900277F090025DE090022C
:10282B005FF0780CF6900250F0900260E070047F3D
:10283B000180027F00122A61783A76037BFF7A3D92
:10284B00792D1238BE900265E0B4021B900263E052
:10285B0004F0E0C39402400FE4F0783A76037BFF78
:10286B007A3D791E1238BE780FE6FF780866602332
:10287B00A607900262E004F0E0C394184015E4F060
:10288B009002657402F0783A76037BFF7A3D791EED
:03289B001238BE32
:01289E002217
:102EF90030073D900261E004F0C3940C400FE4F008
:102F0900900264E004F0D394184002C2079002646E
:102F1900E0FF30E00543801080035380EFEF30E09D
:102F29000543802080035380DFEF30E051022FD02A
:102F3900300325900261E004F0C394324012E4F0BA
:102F4900900264E004F0D394064005C20312000025
:102F5900438010438020806F300025900261E00497
:102F6900F0C3940C400FE4F0900264E004F0D394B1
:102F7900104002C200900264E030E00280498051B2
:102F8900900260E0D394015018900269E0701253E6
:102F990080EF5380DF5380BFE4780CF6900250F045
:102FA90022900250E0FFB40F084380105380DF8065
:102FB90020EFB41E085380EF4380208014EFB43C07
:102FC9000A5380EF5380DF438040225380EF5380C0
:052FD900DF5380BF2260
:103C7C00781276029002777401F0900260F0D20113
:103C8C005390EF783A7603E070047F0180027F0056
:0A3C9C00122A619002657401F02203
:103AA300123C7C1233C8300502C205300808C20834
:103AB300123E691220F1300905C2091230BF300AE3
:103AC30005C20A122348300B05C20B122514300C11
:0E3AD300D2C20C122EF9123B911226DB80C5D6
:102E050020202020200D0A0041542B4D540D0A008E
:102E150041542B4D410D0A0041542B4D450D0A00DF
:102E250041542B4D440D0A0041542B43410D0A00DA
:102E350041542B43420D0A0041542B43430D0A00D4
:102E450041542B43500D0A0041542B43440D0A00B5
:102E550041542B435A0D0A0041542B48300D0A00AA
:102E650041542B48310D0A0041542B48320D0A00BC
:102E750041542B48330D0A0041542B48340D0A00A8
:102E850041542B48350D0A0041542B48360D0A0094
:102E950041542B48370D0A0041542B48380D0A0080
:102EA50041542B48390D0A0041542B48410D0A0065
:102EB50041542B48420D0A0041542B48430D0A004A
:102EC50041542B48440D0A0041542B48450D0A0036
:102ED50041542B48460D0A00000102030607090A62
:102EE5000C0E0F000102030404040506060707087B
:042EF50008090A0AB4
:103952007824E670FB7F08900237E4F0A3DFFCE4F2
:10396200FF122995FE601674372FF582E43402F5B2
:1039720083EEF0740129F9E43AFA0F80E4E478283E
:10398200F6782476017828E6062437F582E43402B4
:05399200F583E0F5F5EE
:01399700220D
:103C5100EFC3940B500CEF75F008A42405F9742EF2
:103C610080107812E6902EDD9375F008A4245DF99A
:0A3C7100742E35F0FA7BFF12395271
:013C7B002226
:102D0900201006201103022E04301012C210900266
:102D19001A7401F0A37402F0A3743FF08010C21179
:102D290090021A7401F0A37402F0A37447F09002A0
:102D39001AE0FBA3E0FAA3E0F9122995FFB4491FB1
:102D49009000011229AEFEB44902D213EEB4410239
:102D5900C213EE64586003022DE9C213022DE9EF94
:102D6900B44D1C9000011229AEFFB44102C214EF08
:102D79006442706CD2147812E6F47829F6806112F4
:102D89002995FFB44F129000011229AE6446705084
:102D9900900260E064028048EF64487043900260EA
:052DA900E06402703B34
:102DAE009000011229AEFFD3648094B94005EF2440
:102DBE00C9801390021AE0FBA3E0FAA3E0F9900099
:102DCE00011229AE24D07812F67812E6D3940F4071
:0B2DDE0002760F7812E6902EE893F6C4
:102DE900E4FF90021AE0FBA3E0FAA3E0F98F8275F1
:0B2DF9008300E41229ED0FEFB408E79F
:012E040022AB
:1030BF00122D09900260E064026003023152200F6A
:1030CF0013782BF6C213C2147812E6F47829F6E4BB
:1030DF00900236F0D20F900236E014601D14601C7F
:1030EF0014601E14601D240470215390EF4390024E
:1030FF00E58830E603023198800780055390BF8042
:10310F00688066439040123D5480627812E6FF78E3
:10311F0029666009A6077F0B123C51800D782AE6BD
:10312F00FF6007123C51E4782AF6E58830E2107808
:10313F002BE6D39405400443901022782B0622539C
:10314F0090EF22300F08E4782BF6900236F0C20F82
:10315F00900236E0146012146011146010146014A1
:10316F00240470255390EF80048002800090023673
:10317F00E004F022900236E004F0900260E0D39475
:0A318F000150065390BF123DAF221D
:10369800242424415457510D0A00242424466163EC
:1036A800746F72792073657474696E670D0A0024EB
:1036B8002424576966692072657365740D0A0024AD
:1036C8002424456E74657220546573744D6F646567
:1036D8003A302E31390D0A00000004C0060108678F
:1036E8000A900BE50D560E000050056006A109076B
:0836F8000B300C850DF60E00ED
:10331C00E490021AF0123E4190027AEEF0A3EFF024
:10332C00C394A0EE940F504AE4FFEF25E024E0F59F
:10333C0082E43436F583E493FC740193FD90027AB5
:10334C00E0FAA3E0FBC39DEA9C4022EF25E024F0C9
:10335C00F582E43436F583E493FC740193FDD3EBEE
:10336C009DEA9C5008EF0490021AF080050FEFB410
:10337C0008B87F05123DE690021AE0FFB4040AE596
:10338C008820E5057408F0802DEFB4010DE5882048
:10339C00E50890021A7409F0801CEFB4020DE58860
:1033AC0020E50890021A740AF0800BE58820E506E7
:0B33BC0090021A7403F090021AE0FF68
:0133C70022E3
:102C0700E4900278F0900281E0FE6F600EA3E06F1F
:102C17006003EFF022900281EFF022900280E0FF44
:102C27006E6003022CB4EF7003022D0890027CE063
:102C37007003022D0890027CE014F06003022D0857
:102C4700900280E090027EF0900279E07005900299
:102C57007804F090027FE014602114603214602F32
:102C670024036003022D0890027F7401F090027E16
:102C7700E04420F090027C7432F02290027F7402CC
:102C8700F090027EE04460F090027C7414F0229091
:102C9700027F7403F090027EE04480F090027C741F
:102CA70014F0A3E0C394FA5058E004F02290028095
:102CB700E0603790027EF0900279E070059002782C
:102CC70004F090027FE024FE601014600F2402706D
:102CD7001290027EE04440F08009800090027EE07E
:102CE70044C0F0E490027FF08009E4900279F0900C
:102CF700027DF090027C7405F0900281E0900280E2
:022D0700F022B8
:063E690012331C022C07BD
:1020F100900278E0700302234790025EE06016E4EC
:10210100F090027904F0783A7605123CA6E4900248
:102111005FF002225E90027EE0122A3B21544121AF
:10212100884221EF43220644221E4522664622C6EA
:102131004721D36222AC6622D46721708121EF83CB
:1021410022068422E188230A8923288A2154C10096
:1021510000234790027DE0C394194003022347788E
:102161003A7605900260E06003023CA6023998903D
:10217100027DE064196003022347783A76057BFF0C
:102181007A367998022344900260E0FF640160048A
:10219100EFB40216C201C2179002607403F09002FC
:1021A10087E0600302234704F022900260E06403A9
:1021B1006003022347C201301704C2178026C217E9
:1021C100900287E004F0D394065003022347740180
:1021D100F022900260E064036003022347B21720FB
:1021E1001707C201783076182278307617229002CC
:1021F10060E0D3940150030223477812E6940A5019
:102201000106C20122900260E0D39401500302232F
:10221100477812E6D39401400116C2012290026070
:10222100E0D394015009900269E0700302234790C2
:102231000250E0FF7008780C760F740FF022EFB4B3
:102241000F0B780C761E900250741EF022EFB41E14
:102251000B780C763C900250743CF022E4780CF63A
:10226100900250F022900260E07003022347900236
:1022710069E0B40A028015900277E0700404F080EE
:102281000E900269E004F0D3940940037401F090C8
:102291000269E064096003022347900270F0900232
:1022A1006EF090026CF090026BF022900269E07087
:1022B10003022347900277E004F0D3940350030212
:1022C1002347E4F022900260E0607B64026077744F
:1022D10002F022900260E06402706B782A76052297
:1022E10090027DE06432705E900261F0900264F0D1
:1022F100D20390026004F0783A76057BFF7A367952
:10230100A21238BE7F0A023C5190027DE064327015
:1023110035D207900261F0900264F0783A76057B3D
:10232100FF7A3679B7801C90027DE0B41918D2008B
:10233100E4900261F0900264F0783A76037BFF7AD0
:072341003679C71238BE22F5
:10319900900276E014F070035398F7900275E014EA
:1031A900F070035398EF900274E014F07003539891
:1031B900DF900271E014F06003023269900277E057
:1031C900FF700A900276F0900275F0805AEFB40110
:1031D9002290026EE01313543F900276F090026C35
:1031E900E01313543F900275F090026BE0131354EF
:1031F9003F8034900277E090026EB40219E0C31365
:10320900900276F090026CE0C313900275F0900280
:103219006BE0C3138011E0900276F090026CE090AD
:103229000275F090026BE0900274F0900260E0B4D5
:10323900020AE58830E10543881080035388EF903E
:103249000276E06003439808900275E060034398B2
:1032590010900274E060034398209002667401F0B4
:013269002242
:103DD60090026EEFF090026CEDF090026BEBF02229
:101E230090026FE004F0C3940450030220F0E490A6
:101E3300026FF0A3E0FF705A90026EE0C394FF506C
:101E430003E004F090026CE0D394004003E014F04C
:101E530090026BE0D394004003E014F090026EE034
:101E6300F460030220F090026CE060030220F09023
:101E7300026BE060030220F090027275F001122AF7
:101E83000FFCD3E5F0941EEC940050030220F00203
:101E9300208AEF6401707490026EE0C394FF5003D4
:101EA300E004F090026EE0D394FF4003E014F0905E
:101EB300026CE0C394805003E004F090026CE0D322
:101EC30094804003E014F090026BE0D3940040034D
:101ED300E014F090026EE0F460030220F090026CD4
:101EE300E0648060030220F090026BE06003022054
:101EF300F090027275F001122A0FFED3E5F0941EE2
:101F0300EE940050030220F002208A900270E0FF5A
:101F13006402705B90026EE0C394FF5003E004F030
:101F230090026CE0C394FF5003E004F090026BE076
:101F3300D394004003E014F090026EE0F4600302D7
:101F430020F090026CE0F460030220F090026BE05A
:101F530060030220F090027275F001122A0FFCD385
:101F6300E5F0941EEC940050030220F002208AEF67
:101F73006403705A90026EE0D394004003E014F0BF
:101F830090026CE0C394FF5003E004F090026BE016
:101F9300D394004003E014F090026EE0600302204B
:101FA300F090026CE0F460030220F090026BE060BA
:101FB300030220F090027275F001122A0FFED3E59E
:101FC300F0941EEE940050030220F002208A900247
:101FD30070E0FF6404705990026EE0D394004003F4
:101FE300E014F090026CE0D394004003E014F0900E
:101FF300026BE0C394FF5003E004F090026EE060D4
:10200300030220F090026CE060030220F090026B68
:10201300E0F460030220F090027275F001122A0FBF
:10202300FCD3E5F0941EEC940050030220F080579B
:10203300EF6405706090026EE0D394004003E014F7
:10204300F090026CE0C394FF5003E004F090026B45
:10205300E0C394FF5003E004F090026EE0600302DB
:1020630020F090026CE0F460030220F090026BE039
:10207300F4707A90027275F001122A0FFED3E5F024
:10208300941EEE94004066E4900272F0A3F0900276
:1020930070E004F02290026EE0C394FF5003E0046A
:1020A300F090026CE0D394004003E014F090026BD4
:1020B300E0C394FF5003E004F090026EE0B4FF2D00
:1020C30090026CE0702790026BE0B4FF20900272E4
:1020D300E475F001122A0FFED3E5F09432EE94007A
:0E20E300400BE4900272F0A3F0900270F02225
:10251400900266E070030226DAE4900266F090020C
:1025240069E0FFB4091B7811666016E0F6E49002D6
:1025340070F090026E747FF0E490026CF090026B85
:10254400F0900260E06007900269E0FE7004E4FB32
:102554008051EEB401047BFF8021900269E0FEB457
:102564000205E4FBFD8016EEB40306E4FB7D8080E7
:102574000C900269E0FEB40408E4FB7DFF7FFF8059
:1025840034EEB40507E4FB7DFFFF8029900269E087
:10259400FEB406087BFF7DFFE4FF8019EEB4070755
:1025A4007BFFE4FDFF800E900269E0FEB4080C7B23
:1025B400FFE4FD7F80123DD60226B0EE640A60037C
:1025C4000226A690026DE0FFA3F090026AE0FE905E
:1025D400026CF0900268E0FD90026BF0EFB4FF1122
:1025E400EEB4FF0DEDB4FF099002697401F0022608
:1025F400B090026DE0B4FF1390026AE0700D900297
:1026040068E07007A37402F00226B090026DE0FF48
:10261400B4FF1490026AE0B4800D900268E0700781
:10262400A37403F00226B0EFB4FF1390026AE0B47F
:10263400FF0C900268E07006A37404F0806E9002B0
:102644006DE0701390026AE0B4FF0C900268E070D1
:1026540006A37405F0805590026DE0FF701490029B
:102664006AE0B4FF0D900268E0B4FF06A37406F0BC
:10267400803AEF701390026AE0700D900268E0B443
:10268400FF06A37407F0802490026DE0B4801D90CF
:10269400026AE07017900268E0B4FF10A37408F0B7
:1026A400800A900269E0B40903121E23900269E0D3
:1026B400FF701AEFB40A1690026EE090026DF0906B
:1026C400026CE090026AF0A3E0900268F090026964
:0726D400E060037811F6221B
:0B3E3600000102030507090A0C0E0F33
:0E3DF500EF903E3693FFC374169FFF023D3BD6
:103D3B00201515D215EF14782DF6E4782FF678327E
:093D4B00F653887F782C76C8221B
:10326A0020150302331B783206E6C3782C965003E6
:10327A0002331BE47832F6782FE6B41300400302D7
:10328A003313903293F82828730232CC0232D502D3
:10329A0032DE0232F20232DE0232F20232DE023270
:1032AA00F20232DE0232F20232DE0232F20232DEA0
:1032BA000232F20232DE0232F20232DE0232F2026C
:1032CA00330D438880782C76A0804353887F782CEE
:1032DA007614803A438880782DE630E70518761E02
:1032EA00802C782C760A802653887F782DE6FF304A
:1032FA00E70518760A8004782C761EEF25E0782DEB
:10330A00F6800B782C76C8800553887FC215782FF3
:02331A00062289
:10234800900260E0640360030224B320161578311C
:10235800F6900287E0F47833F67812E6F4782EF6F1
:10236800E4A3F0D216900288E014602814603814B0
:10237800604A240370495390EF783106E6D39419E4
:1023880050030225135390FD439040123D54E478C6
:10239800310224E0439802783106E6D394325003A0
:1023A800022513E40224E0783106E6D394C85003EA
:1023B800022513900288E004F0E4F6220224F17862
:1023C80030E6FF6039301503022513B417097BFF87
:1023D8007A1C79891238BE7830E6B41815900287CD
:1023E800E075F018A42489F9741C35F0FA7BFF1203
:1023F80038BE7830E6FF123D3BE47830F622900292
:1024080087E07833666048301503022513E0FFF64D
:10241800EF6003B4170ED217783376177BFF7A1C58
:1024280079898019900287E0FFD394065012EF75DE
:10243800F018A42489F9741C35F0FA7BFF1238BE11
:102448007833E6FF123D3B900287E07833F6227935
:1024580012E7782E6660103015030225137812E60D
:10246800FF782EF6023DF5A201300401B350297819
:102478003AE67024A20192043001087BFF7A1C79A5
:10248800898012900287E075F018A42489F9741CD9
:1024980035F0FA7BFF0238BE2017082001057812B4
:1024A800E670045390EF2243901022301605E49012
:1024B8000288F0C216900288E014601214601C149E
:1024C800602E240370452013035390EF801B78314E
:1024D80006E6D394144034E4F6800E783AE6702B7E
:1024E8007BFF7A1C79891238BE900288E004F022BA
:1024F800201318900288E004F05398FD900260E0E1
:0C250800D3940150065390BF123DAF2247
:103D8400757064617465206661696C007570646146
:063D94007465206F6B0056
:0C3E2A0053E13F8FE5E5E154C060FA224F
:103AE10090022DEBF0A3EAF0A3E9F0801690022DED
:103AF100E0FBA3E0FAA3E0F91229956020E5E15487
:103B0100C060EA53E13F90022DE0FBA3E475F001B0
:0E3B1100122A25A9F0FA122995F5E580D02296
:10164F0053ABFB53A8E753A9E753AAEFE47817F678
:10165F00781AF608F67815F608F6900226F0A3F039
:10166F00A3F09002897400F0A37468F0E490022252
:10167F00F0A3F0900222E0FEA3E0FFC3942CEE94BF
:10168F00015020900289E0FCA3E02FF582EC3EF59B
:10169F0083E4F0900223E004F070D8900222E0047B
:1016AF00F080D07F43123E2A7817E6B4080040033B
:1016BF00021AB69016C9F82828730216E1021766A7
:1016CF0002180302188902191A02197C0219BB02A7
:1016DF001A68E5E130E534900289E0FEA3E0F58277
:1016EF008E83C083C082781A0806E61886067001BA
:1016FF000614D082D0832582F582E5833EF583E5FB
:10170F00E5F0E4900226F0A3F0A3F0900289E0FE4A
:10171F00A3E0F5828E83E0B46E25781DE61846604F
:10172F000E7BFF7A3D7984123AE1E47817F6227B3B
:10173F00FF7A3D7990123AE178177606021ABA7855
:10174F001BE66407700418E664016003021ABA7896
:10175F001AF608F6021A63E4781AF608F690028968
:10176F00E0FEA3E0F5828E83E0F9A3E0FE9002890C
:10177F00E0FCA3E0F5828C83A3A3E0FDAC0690020E
:10178F0089E0FAA3E0FBF5828A83A3A3A3E0FEEB33
:10179F002404F582E43AF583E0FBEBFFE9B4020E93
:1017AF00EFF4FFEEF4FEEF6D7002EE6C60030218C3
:1017BF00817815E6FE08E6FFC3ED9FFFEC9EFEEF76
:1017CF0064014E6004EF4E7025AE04AF057815A688
:1017DF000608A607E6FEE42400FFEE3440FE900262
:1017EF0029F0A3EFF0D394FFEE947F400422021868
:1017FF0081021A63E4900224F0A3F0FFFE9002220C
:10180F00F0A3F0900222E0FCA3E0FDC3EC940150A2
:10181F0034ED2405FDE43CFC900289E0FAA3E02DB1
:10182F00F582EA3CF583E0FD900225E02DF0900271
:10183F0024E03400F0900223E004F070C6900222FE
:10184F00E004F080BE900289E0FCA3E0FD2405F5E2
:10185F0082EC3401F583E0FEED2406F582EC3401D1
:10186F00F583E0FDEDFF900224E06E7003A3E06FBF
:10187F0060057F150219B5021A63900229E0FEA3D5
:10188F00E0FF90028AE02405FD900289E03400FA1F
:10189F00A9057B0112350990022AE02440FF90022E
:1018AF0029E03400FE90028AE02445FD900289E091
:1018BF003400FAA9057B0112350990022AE0248031
:1018CF00FF900229E03400FE90028AE02485FD900B
:1018DF000289E03400FAA9057B0112350990022A2A
:1018EF00E024C0FF900229E03400FE90028AE02439
:1018FF00C5FD900289E03400FAA9057B0112350974
:10190F00781DE61618700116021A63E4900222F091
:10191F00A3F0900222E0FEA3E0FFC3EE9401504A31
:10192F0090022AE02FFF900229E03EFE123E5A90CD
:10193F000223E02405FD900222E03400FC9002898E
:10194F00E0FAA3E02DF582EA3CF583E06F600B7FB0
:10195F0015123E2AE47817F68010900223E004F067
:10196F0070B0900222E004F080A8021A63E49002A3
:10197F0022F0A3F0900222E0FEA3E0FFC3942CEE2E
:10198F0094015020900289E0FCA3E02FF582EC3EF9
:10199F00F583E4F0900223E004F070D8900222E087
:1019AF0004F080D07F96123E2A021AB690022B7452
:1019BF0001F0A3E4F09002297441F0A3E4F0900247
:1019CF002BE0FEA3E0C394FFEE94034003021A63DF
:1019DF00E4900222F0A3F0900222E0FEA3E0FFC306
:1019EF009440EE9400503790022AE02FFF90022986
:1019FF00E03EFE123E5A900222E0FCA3E0FD900270
:101A0F0089E0FAA3E02DF582EA3CF583EFF090022E
:101A1F0023E004F070C1900222E004F080B990023C
:101A2F002BE0FEA3E0FF900289E0FCA3E0AA04F9FB
:101A3F007B0112350990022AE02440F0900229E040
:101A4F003400F090022CE02440F090022BE03400A0
:101A5F00F00219CD7817068052E4900222F0A3F01D
:101A6F00900222E0FEA3E0FFC39440EE94005021C9
:101A7F00900289E0FCA3E02FF582EC3EF58374AA77
:101A8F00F0900223E004F070D7900222E004F0807F
:101A9F00CF900289E0FEA3E0AA06F97B017F007ECA
:101AAF0004123509020000E47817F6900226E004CC
:101ABF00F060030216B7A3E004F060030216B7A3A9
:101ACF00E004F0C3940250030216B712000002168E
:011ADF00B74F
:101AE0007B54696D6553796E63005475726E206F17
:101AF0006E20756E6974005475726E206F66662074
:101B0000756E6974004770537461005475726E206D
:101B10006F6E204254006D7573696320706C61793B
:101B2000006D757369632070617573650053656C32
:101B300065637420536F756E642066696C65007B05
:101B40004D757369635374617475730041646A758C
:101B50007374204F757470757420566F6C756D6555
:101B600000766F6C756D6520757000766F6C756DA5
:101B70006520646F776E006D75736963206D757491
:101B800065006D7573696320756E6D7574650053BE
:101B900065742054696D6572005475726E206F66AD
:101BA000662054696D6572005475726E206F6E20E8
:101BB0004C6967687472005475726E206F66662097
:101BC0004C6967687472006C69676874207570008E
:101BD0006C6967687420646F776E004368616E6734
:101BE00065206C6967687420636F6C6F7200416474
:101BF0006A757374204C69676874204272696768FB
:101C0000746E657373005573657220636F6C6F72C9
:101C1000007B50726F6772616D0050726F506C6123
:101C2000790D0A007B416C61726D4F6E4F666600E4
:101C30007B416C61726D536574007B416C614770D0
:101C4000537461007B4E6F7247705374610020754E
:101C5000706461746500415457510D0A0056455235
:101C60000D0A00242424564552302E31390D0A0025
:101C7000456E74657220546573744D6F64653A00E7
:101C80000101020408102040802424247B4D757338
:101C900069635374617475733A5B30375D7D0D0A07
:101CA000002424247B4D75736963537461747573C8
:101CB0003A5B30315D7D0D0A002424247B4D757321
:101CC00069635374617475733A5B30325D7D0D0ADC
:101CD000002424247B4D7573696353746174757398
:101CE0003A5B30335D7D0D0A002424247B4D7573EF
:101CF00069635374617475733A5B30345D7D0D0AAA
:101D0000002424247B4D7573696353746174757367
:101D10003A5B30355D7D0D0A002424247B4D7573BC
:101D200069635374617475733A5B30365D7D0D0A77
:101D3000002424247B47705374613A5B30302C308C
:101D4000302C30302C30302C3030303030302C30A3
:101D5000302C30302C30302C30303B30302C303088
:101D60002C30302C3030303030302C30302C303083
:101D70002C30302C30302C30303A30302C30305D3C
:101D80007D0D0A002424247B416C614770537461EB
:101D90003A5B30302C30302C30302C30302C30301E
:101DA000303030302C30302C30302C30302C303043
:101DB0002C30302C30303A30302C30305D7D0D0AF4
:101DC000002424247B4E6F7247705374613A5B3059
:101DD000302C30302C30302C30302C303030303013
:101DE000302C30302C30302C30302C30305D7D0DAC
:101DF0000A002424247B4E6F7247705374613A5B4F
:101E000030302C30302C30302C30302C30303030E2
:101E100030302C30302C30302C30302C30305D7D58
:031E20000D0A00A8
:1037000090022574FFF0A3741AF074EAA3F09002FB
:093710001FE0FBA3E0FAA3E0F9BD
:10371900900222EBF0A3EAF0A3E9F0900225E0FB86
:10372900A3E0FAA3E0F9122995FF602F900222E0A5
:10373900FBA3E0FAA3E0F9122995B507056003EFA9
:1037490070037F0122900223E475F001122A0F9081
:0E3759000226E475F001122A0F80C07F0022C4
:102FDE00900269EFF09001F9F090021FE0FBA3E080
:102FEE00FAA3E0F99000161229AEFF9000171229ED
:102FFE00AEFD12309490026DEFF09001FAF0900257
:10300E001FE0FBA3E0FAA3E0F99000181229AEFF2F
:10301E009000191229AEFD12309490026AEFF090D2
:10302E0001FBF090021FE0FBA3E0FAA3E0F9900091
:10303E001A1229AEFF90001B1229AEFD1230949089
:10304E000268EFF09001FCF090021FE0FBA3E0FAA3
:10305E00A3E0F990001D1229AEFF90001E1229AEBA
:10306E00FD123BCC900277EFF09001FDF090021F25
:10307E00E0FBA3E0FAA3E0F99000201229AE900045
:06308E0021FF1229AEFD36
:10309400C3EF648094C14006EF24C9FF800474D058
:1030A4002FFFC3ED648094C14006ED24C9FD800464
:0B30B40074D02DFDEFC454F04DFF223E
:053BC700FF1229AEFD14
:103BCC00C3EF648094C14006EF24C9FF800474D015
:103BDC002FFFC3ED648094C14006ED24C9FD800421
:0C3BEC0074D02DFDEF75F00AA42DFF220F
:10359D001235FD90021BE0FBA3E0FAA3E0241AF91B
:1035AD00E43AFA90026DE0FD1235FD90021BE0FB4E
:1035BD00A3E0FAA3E0241CF9E43AFA90026AE0FDD4
:1035CD001235FD90021BE0FBA3E0FAA3E0241EF9E7
:1035DD00E43AFA900268E0FD1235FD90021BE0FB23
:1035ED00A3E0FAA3E09002772421F9E43AFAE0FD92
:1035FD00EDC4540FFFC3940AEF4004243780022416
:10360D00301229DB740129F9E43AFAED540FFFC3A6
:0E361D00940AEF40042437800224301229DB87
:01362B00227C
:103998009002607401F0780DE6B403047F0380029E
:1039A8007F01900260EFF07809E67812F67811E668
:1039B800900269F0900277E0FF70067E017F018037
:1039C80000900277EFF0900260E070047F018002BF
:0539D8007F00022A61DE
:103BF8009002607401F07809E67812F6900277E096
:103C0800FF70067E017F018000900277EFF090023E
:0D3C180060E070047F0180027F00022A61DD
:103CA600900260E0780DF6E4F07812E67809F69076
:103CB6000269E07811F6E4F0780CF6900250F070A4
:0A3CC600047F0180027F00022A61E2
:103C2500E490025EF0900279F0123CA6783A7605AF
:103C3500900260E070047F0180027F00122A61E437
:0C3C450090025FF0780CF6900250F02224
:052A6100900222EFF0DD
:102A66007834E670FBE47838F67F64900194E4F0FD
:102A7600A3DFFCE4FFEFFD3395E0FC74312DF58216
:102A8600741D3CF583E493FE74942DF58274013C29
:102A9600F583EEF00FEFB452DC7B017A01799F905B
:102AA6000222E0FD1235FD7A0179A2900260E0B4BF
:102AB6000308900287E0FFFD80027D071235FD7B4B
:102AC600017A0179A5900269E07003FD80027D011B
:102AD6001235FD7B017A0179A8900269E0B40904F8
:102AE6007D0180027D001235FD7B017A0179AB9074
:102AF600026DE0FD1235FD7A0179AD90026AE0FDC6
:102B06001235FD7A0179AF900268E0FD1235FD7A43
:102B16000179B2900277E0FD1235FD7A0179B57838
:102B260012E6FD1235FD7A0179B8A217E433FD12DB
:102B360035FD7A0179BB780CE6FD1235FD7A01790F
:102B4600BEE4FD1235FD7A0179C1900258E0FD120E
:102B560035FD7A0179C4900267E0B409047D0180ED
:102B6600027D001235FD7B017A0179C7900255E09E
:102B7600FD1235FD7A0179C9900256E0FD1235FD48
:102B86007A0179CB900257E0FD1235FD7A0179CEB4
:102B960090025CE0FD1235FD7A0179D1900259E090
:102BA600FD1235FD7A0179D4900251E0FD1235FD12
:102BB6007A0179D7900252E0FD1235FD7A0179DA71
:102BC600900253E0FD1235FD7A0179DD900254E062
:102BD600FD1235FD7A0179E090025DE0FD1235FDCA
:102BE600783A7602E47839F6783476017837760AD8
:102BF6007839E6062494F582E43401F583E0F5E5B8
:012C060022AB
:0B05260090021BEBF0A3EAF0A3E9F049
:100531002403F9E43AFA90021FEBF0A3EAF0A3E9ED
:10054100F0900260E070030211E290022574FFF066
:10055100A3741AF074E012370CEF707590021FE06B
:10056100FBA3E0FAA3E0F990000B1229AE90000C76
:1005710012308F780FA60790021FE0FBA3E0FAA3C9
:10058100E0F990000E1229AEFF90000F1230907822
:100591000AA60790021FE0FBA3E0FAA3E0F990008E
:1005A100111229AEFF900012123090780EA607901A
:1005B100021FE0FBA3E0FAA3E0F990001E1229AEAE
:1005C10024D0780BF6E6901C8093F6E4900265F057
:1005D10022123700EF700C900260E0600302098084
:1005E1000211FF90022574FFF0A3741AF0A374F7AF
:1005F10012370DEF701E90021BE0FBA3E0FAA3E09F
:10060100F91238BE90025EE06003020960783A7622
:1006110003023CA690022574FFF0A3741BF0A3749F
:100621000512370DEF70012290022574FFF0A374BB
:100631001BF0A3740B12370DEF7009900260740266
:10064100F002098090022574FFF0A3741BF0A374DB
:100651001612370DEF70199002607403F0C201C2D7
:1006610017F0900287E0700304F0227830761822A8
:1006710090022574FFF0A3741BF0A3742112370DAF
:10068100EF7012900260E06403600302164ED2170D
:10069100783076172290022574FFF0A3741BF0A323
:1006A100742D12370DEF704090025EE0600BE4F0A4
:1006B100A3F0780CF6900250F0C201C217900260CC
:1006C1007403F090021FE0FBA3E0FAA3E0F99000AD
:1006D1001A1229AE24D0FF900287F07833E6B507CD
:1006E100047830761802137A90022574FFF0A3740F
:1006F1001BF0A3743F12370DEF7001229002257495
:10070100FFF0A3741BF0A3744C12370DEF7023900C
:10071100025EE0600302096090021FE0FBA3E0FAC1
:10072100A3E0F99000141229AE900015123BC70204
:1007310007A990022574FFF0A3741BF0A374611242
:10074100370DEF702990025EE060030209607812B4
:10075100E6FFC3940A5013EF94085007E62402FF02
:10076100F68009781206E6FF80027F0A803A90023D
:100771002574FFF0A3741BF0A3746B12370DEF7097
:100781003090025EE060030209607812E6FFD394C4
:10079100014013EF94034007E624FEFFF680097839
:1007A1001216E6FF80027F017812A607C201020934
:1007B1008090022574FFF0A3741BF0A374771237A5
:1007C1000DEF7003D2012290022574FFF0A3741B78
:1007D100F0A3748212370DEF7003C201229002253B
:1007E10074FFF0A3741BF0A3748F12370DEF702503
:1007F10090025EE0600302096090021FE0FBA3E04B
:10080100FAA3E0F990000A1229AE90000B123BC73F
:10081100780CEF801F90022574FFF0A3741BF0A3E6
:10082100749912370DEF701490025EE060030209B3
:1008310060E4780CF6900250F00209809002257471
:10084100FFF0A3741BF0A374A812370DEF702D9065
:10085100025EE0600BE4F0A3F0780CF6900250F039
:100861007811E6900269F0700204F0900277E0FFDF
:1008710070077E017F0102097B02097B90022574CA
:10088100FFF0A3741BF0A374B712370DEF70119032
:10089100025EE06003020960E4900269F0020980EF
:1008A10090022574FFF0A3741BF0A374C712370DD7
:1008B100EF701B90025EE06003020960900277E036
:1008C100C394034003020980E004F002098090020E
:1008D1002574FFF0A3741BF0A374D012370DEF70D1
:1008E1001B90025EE06003020960900277E0D394FE
:1008F100005003020980E014F0020980900225747F
:10090100FFF0A3741BF0A374DB12370DEF70379067
:10091100025EE0600BE4F0A3F0780CF6900250F078
:100921009002697409F0E4900270F090026EF09008
:10093100026CF090026BF0900277E0FF70067E018E
:100941007F018000803490022574FFF0A3741BF0B6
:10095100A374EE12370DEF702690025EE060030281
:100961003C2590021FE0FBA3E0FAA3E0F9900018F8
:100971001229AEFF900019123BC8900277EFF09058
:10098100022574FFF0A3741CF0A3740612370DEF57
:100991006003020A1990025EE0600BE4F0A3F078B4
:1009A1000CF6900250F090021FE0FBA3E0FAA3E0E6
:1009B100F990000B1229AEFF90000C1230909002BA
:1009C1006DEFF090021FE0FBA3E0FAA3E0F99000C5
:1009D1000D1229AEFF90000E12309090026AEFF0D6
:1009E10090021FE0FBA3E0FAA3E0F990000F1229A7
:1009F100AEFF900010123090900268EFF090026903
:100A0100740AF0900277E0FF70067E017F0180009A
:100A1100900277EFF002164090022574FFF0A37464
:100A21001CF0A3741112370DEF6003020B03900247
:100A31005EE0600BE4F0A3F0780CF6900250F01247
:100A41003CF890021FE0FBA3E0FAA3E0F990000E4E
:100A51001229AE24D0900287F09001F8F090001195
:100A61001229AEFFB431047E0180027E009002693A
:100A7100EEF09001F9F0EFB4311C90021FE0FBA3FE
:100A8100E0FAA3E0F99000141229AEB431047F0911
:100A910080067F0A80027F00122FDE7812EFF69027
:100AA10001FEF09002607403F09001FFF090021FCC
:100AB100E0FBA3E0FAA3E0F99000241229AE24D0D0
:100AC10024FF9217E433900200F0201703C3800142
:100AD100D39201E433900201F02017047F188002C1
:100AE1007F177830A6079000261229AEFF900027C5
:100AF100123090780CEFF6900250F0900202F00262
:100B0100164090022574FFF0A3741CF0A3741A120E
:100B1100370DEF706690025EE0600BE4F0A3F078B1
:100B21000CF6900250F09001F8E0900287F09001ED
:100B3100F9E0900269F09001FAE090026DF0900105
:100B4100FBE090026AF09001FCE0900268F09001F5
:100B5100FDE0900277F09001FEE07812F6A3E090BC
:100B61000260F0900200E024FF9217201702C201F8
:100B7100900202E0900250F002164090022574FFAC
:100B8100F0A3741CF0A3742412370DEF707190025E
:100B91001FE0FBA3E0FAA3E0F99000111229AE24B3
:100BA100D0900251F09000131229AEFF9000141260
:100BB1003090780FA60790021FE0FBA3E0FAA3E0B4
:100BC100F99000161229AEFF900017123090780AA2
:100BD100A60790021FE0FBA3E0FAA3E0F990001939
:100BE1001229AEFF90001A123090780EA6079002DB
:100BF1001FE0FBA3E0FAA3E0F9900026020DCB90E1
:100C0100022574FFF0A3741CF0A3743012370DEFAA
:100C11006003020DDC90021FE0FBA3E0FAA3E0F900
:100C210090000F1229AE24D0900258F0C3940740CF
:100C310002E4F09000121229AEFF24D090025BF082
:100C4100EFB431119000151229AEB431047F09803F
:100C5100067F0A80027F0090025BEFF090021FE0A6
:100C6100FBA3E0FAA3E0F99000171229AEFF900070
:100C710018123090900255EFF090021FE0FBA3E0B4
:100C8100FAA3E0F99000191229AEFF90001A123070
:100C910090900256EFF090021FE0FBA3E0FAA3E070
:100CA100F990001B1229AEFF90001C1230909002A7
:100CB10057EFF090021FE0FBA3E0FAA3E0F99000E8
:100CC1001F1229AE24D090025CF09000211229AEAF
:100CD100FF900022123090900259EFF090021FE035
:100CE100FBA3E0FAA3E0F99000251229AE24D090ED
:100CF100025AF09000281229AE24D0900251F090AF
:100D0100002A1229AEFF90002B123090900252EF70
:100D1100F090021FE0FBA3E0FAA3E0F990002D128E
:100D210029AEFF90002E123090900253EFF0900206
:100D31001FE0FBA3E0FAA3E0F99000301229AEFF17
:100D4100900031123090900254EFF090021FE0FBBE
:100D5100A3E0FAA3E0F99000331229AEFF9000342A
:100D610012309090025DEFF090021FE0FBA3E0FAD9
:100D7100A3E0F99000361229AEFF900037123090AF
:100D8100780FA60790021FE0FBA3E0FAA3E0F99019
:100D910000391229AEFF90003A123090780AA60766
:100DA10090021FE0FBA3E0FAA3E0F990003C1229B6
:100DB100AEFF90003D123090780EA60790021FE022
:100DC100FBA3E0FAA3E0F99000491229AE24D07800
:100DD1000BF6E6901C8093F602164090022574FFF4
:100DE100F0A3741CF0A3743A12370DEF6003020FE5
:010DF100BA47
:100DF20090021EF090021EE0FFC39464501C900209
:100E02001BE0FBA3E0FAA3E0F98F82758300E412F2
:100E120029ED90021EE004F080DAE490021EF090C8
:100E2200021EE0FF901D8493FE90021BE0FBA3E0F4
:100E3200FAA3E0F98F82758300EE1229ED90021E6B
:100E4200E004F0E0B43ED890021BE0FBA3E0FAA37A
:100E5200E0240EF9E43AFAE4FD1235FD90021BE0BB
:100E6200FBA3E0FAA3E02411F9E43AFA900258E075
:100E7200FF6003FD80027D071235FD90021BE0FB3F
:100E8200A3E0FAA3E02414F9E43AFA90025BE070DA
:100E920003FD80027D011235FD90021BE0FBA3E001
:100EA200FAA3E02417F9E43AFA90025BE0B40904E9
:100EB2007D0180027D001235FD90021BE0FBA3E064
:100EC200FAA3E0241AF9E43AFA900255E0FD123549
:100ED200FD90021BE0FBA3E0FAA3E0241CF9E43A34
:100EE200FA900256E0FD1235FD90021BE0FBA3E0F2
:100EF200FAA3E0241EF9E43AFA900257E0FD123513
:100F0200FD90021BE0FBA3E0FAA3E090025C123525
:100F1200F590021BE0FBA3E0FAA3E02424F9E43AF3
:100F2200FA900259E0FD1235FD90021BE0FBA3E0AE
:100F3200FAA3E02427F9E43AFA90025AE0FD1235C6
:100F4200FD90021BE0FBA3E0FAA3E0242AF9E43AB5
:100F5200FA900251E0FD1235FD90021BE0FBA3E086
:100F6200FAA3E0242DF9E43AFA900252E0FD123598
:100F7200FD90021BE0FBA3E0FAA3E02430F9E43A7F
:100F8200FA900253E0FD1235FD90021BE0FBA3E054
:100F9200FAA3E02433F9E43AFA900254E0FD123560
:100FA200FD90021BE0FBA3E0FAA3E02436F9E43A49
:050FB200FA90025DE071
:100FB7000210E090022574FFF0A3741CF0A37444A0
:090FC70012370DEF60030210EB7C
:100FD00090021EF090021EE0FFC39464501C900229
:100FE0001BE0FBA3E0FAA3E0F98F82758300E41213
:100FF00029ED90021EE004F080DAE490021EF090E9
:10100000021EE0FF901DC193FE90021BE0FBA3E0D7
:10101000FAA3E0F98F82758300EE1229ED90021E8B
:10102000E004F0E0B430D890021BE0FBA3E0FAA3A8
:10103000E0240EF9E43AFA7D011235FD90021BE03E
:10104000FBA3E0FAA3E02411F9E43AFA900260E08D
:10105000B40308900287E0FFFD80027D071235FD92
:1010600090021BE0FBA3E0FAA3E02414F9E43AFAAF
:10107000900269E07003FD80027D011235FD90024F
:101080001BE0FBA3E0FAA3E02417F9E43AFA90028C
:1010900069E0B409047D0080027D0112359D900253
:1010A0001BE0FBA3E0FAA3E02424F9E43AFA781267
:1010B000E6FD1235FD90021BE0FBA3E0FAA3E0245D
:1010C00027F9E43AFAA217E433FD1235FD90021B2A
:1010D000E0FBA3E0FAA3E0242AF9E43AFA780CE66C
:0810E000FD1235FD783A76029D
:1010E80002164090022574FFF0A3741CF0A3744EFE
:1010F80012370DEF600302119D90021FE0FBA3E081
:10110800FAA3E0F990000A1229AEFF90000B123002
:1011180090EF7F00FEC007C00690021FE0FBA3E02F
:10112800FAA3E0F990000C1229AEFF90000D1230DE
:1011380090EFFD3395E0FCD0E04CFED0E04D781800
:10114800A60608F690021FE0FBA3E0FAA3E0F990D8
:1011580000111229AEFF900012123090EF7F00FEAE
:10116800C007C00690021FE0FBA3E0FAA3E0F990D5
:1011780000131229AEFF900014123090EFFD339542
:10118800E0FCD0E04CFED0E04D781CA60608F61234
:10119800164F02164090022574FFF0A3741CF0A3AA
:1011A800745612370DEF7002802C90022574FFF0F0
:1011B800A3741CF0A3745D12370DEF7003021509B8
:1011C80090022574FFF0A3741CF0A3747012370DFD
:1011D800EF6003021640783AF622123700EF701ECD
:1011E80090021BE0FBA3E0FAA3E0F91238BE9002DC
:1011F80060E06003021640783A760302399890025C
:101208002574FFF0A3741BF0A374A812370DEF70B8
:101218002D90021BE0FBA3E0FAA3E0F91238BE12FE
:101228003BF87811E6900269F0700204F0900277BA
:10123800E0FF70077E017F01021322021322900251
:101248002574FFF0A3741BF0A374DB12370DEF7045
:101258003890021BE0FBA3E0FAA3E0F91238BE12B3
:101268003BF89002697409F0E4900270F090026E05
:10127800F090026CF090026BF0900277E0FF70063D
:101288007E017F01800002132290022574FFF0A3E3
:10129800741CF0A3740612370DEF600302132A9032
:1012A800021BE0FBA3E0FAA3E0F91238BE123BF8F8
:1012B80090021FE0FBA3E0FAA3E0F990000B1229CB
:1012C800AEFF90000C12309090026DEFF090021F6C
:1012D800E0FBA3E0FAA3E0F990000D1229AEFF901D
:1012E800000E12309090026AEFF090021FE0FBA30C
:1012F800E0FAA3E0F990000F1229AEFF9000101257
:101308003090900268EFF0900269740AF0900277CA
:10131800E0FF70067E017F018000900277EFF00207
:10132800164090022574FFF0A3741BF0A3742D12CD
:10133800370DEF705690021BE0FBA3E0FAA3E0F92B
:101348001238BE123BF8C201C2179002607403F053
:1013580090021FE0FBA3E0FAA3E0F990001A12291B
:10136800AE24D0FF900287F07833E6B507047830D2
:101378007618783A7601900287E075F018A42489E7
:10138800F9741C35F0FA7BFF02164B90022574FFA6
:10139800F0A3741CF0A3741A12370DEF7066900254
:1013A8001BE0FBA3E0FAA3E0F91238BE123BF89069
:1013B80001F8E0900287F09001F9E0900269F0905E
:1013C80001FAE090026DF09001FBE090026AF09063
:1013D80001FCE0900268F09001FDE0900277F09047
:1013E80001FEE07812F6A3E0900260F0900200E0BF
:1013F80024FF9217201702C201900202E0900250C7
:10140800F002164090022574FFF0A3741CF0A37438
:101418001112370DEF60030214E290021BE0FBA3E8
:10142800E0FAA3E0F91238BE123BF8123CF8900239
:101438001FE0FBA3E0FAA3E0F990000E1229AE2406
:10144800D0900287F09001F8F09000111229AEFFB9
:10145800B431047E0180027E00900269EEF09001B2
:10146800F9F0EFB4311C90021FE0FBA3E0FAA3E00F
:10147800F99000141229AEB431047F0980067F0A5E
:1014880080027F00122FDE7812EFF69001FEF090B6
:1014980002607403F09001FFF090021FE0FBA3E0EC
:1014A800FAA3E0F99000241229AE24D024FF921761
:1014B800E433900200F0201705C201E4A3F0900085
:1014C800261229AEFF900027123090780CEFF69084
:1014D8000250F0900202F002164090022574FFF0CC
:1014E800A3741BF0A3740512370DEF70012290024C
:1014F8002574FFF0A3741CF0A3745D12370DEF7010
:10150800097BFF7A1C796302164B90022574FFF061
:10151800A3741CF0A3744412370DEF600302164045
:1015280090021EF090021EE0FFC39464501C9002CB
:101538001BE0FBA3E0FAA3E0F98F82758300E412B5
:1015480029ED90021EE004F080DAE490021EF0908B
:10155800021EE0FF901DF293FE90021BE0FBA3E049
:10156800FAA3E0F98F82758300EE1229ED90021E2E
:10157800E004F0E0B430D890021BE0FBA3E0FAA34B
:10158800E0240EF9E43AFAE4FD1235FD90021BE07E
:10159800FBA3E0FAA3E02411F9E43AFA900260E030
:1015A800B40308900287E0FFFD80027D071235FD35
:1015B80090021BE0FBA3E0FAA3E02414F9E43AFA52
:1015C800900269E07003FD80027D011235FD9002F2
:1015D8001BE0FBA3E0FAA3E02417F9E43AFA90022F
:1015E80069E0B409047D0080027D0112359D9002F6
:1015F8001BE0FBA3E0FAA3E02424F9E43AFA78120A
:10160800E6FD1235FD90021BE0FBA3E0FAA3E024FF
:1016180027F9E43AFAA217E433FD1235FD90021BCC
:10162800E0FBA3E0FAA3E0242AF9E43AFA780CE60E
:08163800FD1235FD783A76023F
:0E16400090021BE0FBA3E0FAA3E0F91238BE13
:01164E002279
:103CF800780E7C027D017B017A0279037E007F0BBE
:103D080012296F78037C027D017B017A0179F87EA4
:063D1800007F0B02296F81
:0D3E1D00E4F5FDF5FEF5FA75FB40F5FC221D
:033E6F000200004E
:103CD000E4FE7DA2EF600E74832EF582E43402F5DB
:103CE00083EDF0800C74832EF582E43402F583E4D6
:073CF000F00D0EEEB404DD3F
:013CF70022AA
:083E520075FE010000000022D2
:103B5A00AD07AC06E4F5FAECF5FBAF058FFC75FD95
:103B6A00A5900283E064A27018A3E0B4A313A3E0B3
:103B7A00B4A40EA3E0B4A50975FE030000000080FA
:073B8A0003123E6F023E1D15
:10386F00AD07AC067F007E80123E52E4FBEF2BF5D6
:10387F0082E43EF583E4F00BEBB440F1E4F5FAECAF
:10388F00F5FBAF058FFC75FDA5900283E064A27078
:10389F0018A3E0B4A313A3E0B4A40EA3E0B4A50946
:0F38AF0075FE02000000008003123E6F023E1DF6
:0B35090090022DEBF0A3EAF0A3E9F024
:10351400E4900231F0A37480F0A3E4F0A3EEF0A3EE
:10352400EFF053A87F7F01123CD0900234E0FEA359
:10353400E0FF12386F123E52E4900230F090022DF8
:10354400E0FBA3E0FAA3E0F9900231E0FF04F08F7E
:10355400827583001229AEFF900230E0FE900232A1
:10356400E0FCA3E02EF582E43CF583EFF09002301A
:10357400E004F0E0B440C6900234E0FEA3E0FF12A1
:103584003B5AE4FF123CD0900235E02440F0900214
:0835940034E03400F043A8808C
:01359C00220C
:073E5A008F828E83E493FFC9
:013E6100223E
:1001000090021B7400F0A37468F0A37480F0A3E461
:10011000F090021AF090021AE0FFC394405016A328
:10012000E0FCA3E02FF582E43CF583E4F090021AB2
:10013000E004F080E09002217404F0A3E4F0900267
:100140001AF090021AE0FFC394405034900221E06C
:10015000FCA3E0F5828C83E493FE90021BE0FCA3F9
:10016000E02FF582E43CF583EEF0900222E004F00B
:100170007006900221E004F090021AE004F080C2C0
:1001800090021BE0FEA3E0FFF5828E83E064AA608C
:100190000302036FA3A3E064AA600302036F90024B
:1001A0001BA3E02404F582E43EF583E064AA600327
:1001B00002036FEF2406F582E43EF583E064AA6053
:1001C0000302036F53A87F90021FF0A3F0A37440B3
:1001D00002036890021FE0FEA3E0FDAC06E490027B
:1001E0001AF090021AE0F9C39440400302026D90A5
:1001F000021FE0FEA3E0FFC3EE94004009D3EF949A
:1002000000EE9404400FC3EE94054045D3EF94FFF5
:10021000EE943F503C900221E0FEA3E0F5828E83F5
:10022000E493FF90021BE0FAA3E029F582E43AF59B
:1002300083EFF0900222E004F07006900221E004C7
:10024000F0900220E004F0701B90021FE004F080A8
:100250001390021AE0FFA3E0FAA3E02FF582E43A3C
:10026000F583E4F090021AE004F00201E275FE0169
:1002700000000000E490021AF090021AE0FFC3941C
:1002800040501890021DE0FAA3E02FF582E43AF501
:1002900083E4F090021AE004F080DEE4F5FAECF575
:1002A000FB8DFC75FDA50000000075FE020000003E
:1002B00000E4F5FDF5FEF5FA75FB05F5FC75FE01AC
:1002C0000000000090021AF090021AE0F9A3E0FE8C
:1002D000A3E029F582E43EF583E0FF90021DE0FAF9
:1002E000A3E029F582E43AF583EFF090021AE004E6
:1002F000F0E0B440D3E4F5FAECF5FBAF058FFC7504
:10030000FDA50000000075FE0300000000E4F5FDFF
:10031000F5FEF5FA75FB05F5FC90021FE0FEA3E083
:10032000FFC3EE9404400CD3EF9400EE9405500309
:1003300012000090021FE0FEA3E0B40014EEB4012E
:100340001090021F7405F0A3E4F0A37445F0A3E439
:10035000F090021FE0FEA3E0C394FFEE943F500331
:100360000201D390021F7404F0A3E4F00201D3123F
:05037000050043A88018
:010375002265
:1038BE007834E670FBE47838F67F64900194E4F097
:1038CE00A3DFFCE4FF122995FE601674942FF58297
:1038DE00E43401F583EEF0740129F9E43AFA0F802D
:1038EE00E4E47839F6783476017837760A7839E672
:0D38FE00062494F582E43401F583E0F5E53D
:01390B002299
:103B9100783AE660307838E6B414277834E670FB7A
:103BA100783A16E47838F608F6783476017837767C
:103BB1000A7839E6062494F582E43401F583E0F5C8
:063BC100E522783806221F
:1033C800900002E0FEA3E0FF900000E06E7003A30F
:1033D800E06F700302346E7836760A900002E0FEE1
:1033E800A3E0FF2468F58274003EF583E0FD18E64B
:1033F8002404F582E43400F583EDF074682FF58237
:1034080074003EF583E4F090000275F001122A0F73
:10341800FEC3E5F0942CEE94014007E4900002F01E
:10342800A3F07835E6062404F582E43400F583E059
:10343800640A708C7B017A007904120526E47835D9
:10344800F690021AF090021AE0FFC3946440030257
:1034580033C874042FF582E43400F583E4F0900255
:063468001AE004F080DF11
:01346E00223B
:10348900020500E493A3F8E493A34003F68001F254
:1034990008DFF48029E493A3F85407240CC8C33344
:1034A900C4540F4420C8834004F456800146F6DF13
:1034B900E4800B0102040810204080903E72E47EF3
:1034C900019360BCA3FF543F30E509541FFEE49308
:1034D900A360010ECF54C025E060A840B8E493A3CF
:1034E900FAE493A3F8E493A3C8C582C8CAC583CAFA
:1034F900F0A3C8C582C8CAC583CADFE9DEE780BEB2
:013E7200004F
:10289F00E709F608DFFA8046E709F208DFFA803E1B
:1028AF0088828C83E709F0A3DFFA8032E309F60808
:1028BF00DFFA8078E309F208DFFA807088828C8370
:1028CF00E309F0A3DFFA806489828A83E0A3F60824
:1028DF00DFFA805889828A83E0A3F208DFFA804CFE
:1028EF0080D280FA80C680D4806980F280338010D5
:1028FF0080A680EA809A80A880DA80E280CA80333E
:10290F0089828A83ECFAE493A3C8C582C8CCC583B5
:10291F00CCF0A3C8C582C8CCC583CCDFE9DEE78085
:10292F000D89828A83E493A3F608DFF9ECFAA9F004
:10293F00EDFB2289828A83ECFAE0A3C8C582C8CC5A
:10294F00C583CCF0A3C8C582C8CCC583CCDFEADE73
:10295F00E880DB89828A83E493A3F208DFF980CCD5
:10296F0088F0EF60010E4E60C388F0ED2402B404CE
:10297F000050B9F582EB2402B4040050AF23234575
:06298F0082239028EF7383
:10299500BB010689828A83E0225002E722BBFE0240
:0929A500E32289828A83E4932273
:1029AE00BB010CE58229F582E5833AF583E02250DE
:1029BE0006E92582F8E622BBFE06E92582F8E22228
:0D29CE00E58229F582E5833AF583E4932242
:1029DB00BB010689828A83F0225002F722BBFE01DB
:0229EB00F322D5
:1029ED00F8BB010DE58229F582E5833AF583E8F020
:1029FD00225006E92582C8F622BBFE05E92582C8CC
:022A0D00F222B3
:102A0F00C5F0F8A3E028F0C5F0F8E5821582700252
:062A1F001583E038F022EF
:102A2500A3F8E0C5F025F0F0E58215827002158364
:062A3500E0C838F0E822C1
:102A3B00D083D082F8E4937012740193700DA3A32A
:102A4B0093F8740193F5828883E47374029368603E
:062A5B00EFA3A3A380DF3E
:00000001FF
