:0300000002311DAD
:10311D0078FFE4F6D8FD9000007F007E03E4F0A375
:0A312D00DFFCDEFA75813A020100B2
:023C5100C11C94
:1005000053A87F123642123B39123C4A123C321237
:100510003BDF123B67123B90123BEC123C0643A8B8
:090520008012383A12010080D764
:03001B000233E6C7
:0F33E600C0E0C083C082C0D075D000C000C00757
:1033F500AFF553F1DF7825760A3012237827E6C337
:103405009408500DE6062456F582E43402F583EF60
:10341500F0EF640A702A7827F6D214B21280217868
:1034250027E6C39408500DE606245EF582E43402CF
:10343500F583EFF0EFB40A0878277600D215B212BB
:0D344500D007D000D0D0D082D083D0E032AC
:0300230002376E33
:10376E00C0E0C083C082C0D075D000C00053F17FCE
:10377E007824E660247826760A7828E606244EF524
:10378E0082E43402F583E0F5F5E6244EF582E43466
:10379E0002F583E070037824F6D000D0D0D082D02A
:0437AE0083D0E032B2
:03004B000235E794
:1035E700C0E0C0F0C083C082C0D075D000C000C0AA
:0535F70004C006C0073E
:1035FC00AFE553E1DF900000E0FCA3E02468F58226
:10360C0074003CF583EFF0900000E475F001122497
:10361C00E5FEC3E5F0942CEE94014007900000E425
:03362C00F0A3F018
:10362F00D007D006D004D000D0D0D082D083D0F035
:03363F00D0E032A6
:030053000237B2BF
:1037B200C0E0C083C082C0D075D000C00053E17F9A
:1037C2007834E660247837760A7839E6062495F567
:1037D20082E43401F583E0F5E5E62495F582E434EC
:1037E20001F583E070037834F6D000D0D0D082D0D7
:0437F20083D0E0326E
:03006B000238F761
:1038F700C0E0C0F0C083C082C0D075D000C000C097
:1039070001C002C003C004C005C006C00712358A43
:10391700D007D006D005D004D003D002D001D00004
:0B392700D0D0D082D083D0F0D0E032AE
:0300830002387BC5
:10387B00C0E0C0F0C083C082C0D075D000C000C013
:10388B0001C002C003C004C005C006C007122E252C
:10389B00122FBFD007D006D005D004D003D002D052
:0E38AB0001D000D0D0D082D083D0F0D0E03257
:0300A3000236E240
:1036E200C0E0C0D075D000C000C007B20430042DC5
:1036F200780E06E6D3943B40247600780A06E6D399
:10370200943B40197600780F06E6D39417400E7664
:1037120000780BE625E0FFF6BF80027601D007D0E5
:0637220000D0D0D0E0321F
:083C2900AF9FEFFEAD9EEDFF21
:013C31002270
:073C4A00759C80759D0722A7
:0F3BB300EF540FFFE59C54F04FF59C439C4022CC
:083C3200E4F59AF599F59B22D7
:043C5E00438D202250
:0C3C0600758E01758DC0438D02023C5E7E
:0D3BDF0075B28875B45D43AA0243B201229D
:103B6700901000748AF0A3744AF043AA10901000D2
:053B7700E04401F02212
:103B900075DA0275D90643DAECE4F5DB75E30C431C
:033BA000A918223F
:103B2100201C1275EA0275E90643EAECE4F5EB752F
:083B3100F34D43A818D21C2239
:103B7C00301C0EE4F5EAF5E9F5EAF5EBF5F353A89C
:043B8C00E7C21C224E
:0D3BEC0075968875890175898143AB0422A7
:103B390090103874A8F075C80A758B09E58B30E7C1
:083B4900FB758A0143C8052247
:1036420075A17FE4F5ACF591F5DEF58075B198755D
:10365200AD20F592F5DFF58875B9FFF5AE759302E9
:10366200F59075C1FEF5AFF59875C9FEF5A3F59411
:10367200F5A075D1FFF595F5B075D320F5D2F5D546
:1036820075D403F5D775D603F5EE75EF0A75FF2DE0
:013692002215
:0F3BC20024242454696D652073796E630D0A0005
:043C530041023100F9
:10358A00D2097813E6FF7002D20CEFB40102D20D11
:10359A00EFB40202D20EEFB40302D20FEFB4040268
:1035AA00D210EFB40502D211EF64067024783716F0
:1035BA00E670037834F6783616E670037835F678CE
:1035CA002616E670037824F6782516E6700378271F
:0D35DA00F6781306E6C3940A4002E4F622D8
:1026EC00780EE6FF781466700302289CA607900209
:1026FC0008E060199001F9E004F0D3940A400EE46C
:10270C00F0900203E0FF7812E69F50010690023031
:10271C00E0B4012190022EE004F0E0C3940A4015CD
:10272C00E4F0783A76037BFF7A3B79C2123452900C
:10273C0002307402F0780AE6FF7810667003022803
:10274C009CA607780CE6601F16E6701B1239CFE4C6
:10275C00900208F0783A760390020AE070047F0148
:10276C0080027F0012289D900209E0601F14F07017
:10277C001B1239CFE4900208F0783A760590020AE1
:10278C00E070047F0180027F0012289D9001FBE025
:10279C00640160030228649001FDE0780F66600319
:1027AC00022864A3E0780A6660030228649001FCA6
:1027BC00E0FF08E6FEEF5E7006200203022864EFDD
:1027CC0020E70B9001FCE0FFEEF4FEEF5EF0C2029E
:1027DC0078127601C201E49001F9F090020804F03D
:1027EC0090020A7403F09001FFE090026DF09002E9
:1027FC0000E090026AF0900201E0900268F0900212
:10280C0002E0900287F0900204E024FF921B201B50
:10281C0003C38001D39201201B047F1880027F1711
:10282C007830A607900205E0900269F0900206E06D
:10283C00900277F0900207E0900209F0780CF69085
:10284C0001FAF090020AE070047F0180027F00120E
:10285C00289D783A7603D207900230E0B4021090AB
:10286C00022EE004F0E0C394024004E4F0D20678B7
:10287C000FE6FF7808666018A60790022DE004F0BA
:10288C00E0C39418400AE4F09002307402F0D206CF
:01289C002219
:102D4000300B3D90022CE004F0C3940C400FE4F0F3
:102D500090022FE004F0D394184002C20B90022F8F
:102D6000E0FF30E00543801080035380EFEF30E058
:102D70000543802080035380DFEF30E051022E179F
:102D800030052590022CE004F0C394324012E4F0A8
:102D900090022FE004F0D394064005C20512000013
:102DA000438010438020806F30002590022CE00487
:102DB000F0C3940C400FE4F090022FE004F0D394A1
:102DC000104002C20090022FE030E00280498051A2
:102DD00090020AE0D394015018900269E0701253F7
:102DE00080EF5380DF5380BFE4780CF69001FAF057
:102DF000229001FAE0FFB40F084380105380DF8077
:102E000020EFB41E085380EF4380208014EFB43CC1
:102E10000A5380EF5380DF438040225380EF53807A
:052E2000DF5380BF221A
:103A5500781276029002777401F090020AF0D20192
:103A65005390EF783A7603E070047F0180027F007F
:0A3A750012289D9002307401F02227
:10383A00123A551232DA300902C209300C08C20CA7
:10384A00123C58121F48300D05C20D122EF6300ECA
:10385A0005C20E122537300F05C20F1221AE3010E5
:10386A000BC210122D401233691226EC123C5E80F4
:01387A00C28B
:102C4C0020202020200D0A0041542B4D540D0A0049
:102C5C0041542B4D410D0A0041542B4D450D0A009A
:102C6C0041542B4D440D0A0041542B43410D0A0095
:102C7C0041542B43420D0A0041542B43430D0A008F
:102C8C0041542B43500D0A0041542B43440D0A0070
:102C9C0041542B435A0D0A0041542B48300D0A0065
:102CAC0041542B48310D0A0041542B48320D0A0077
:102CBC0041542B48330D0A0041542B48340D0A0063
:102CCC0041542B48350D0A0041542B48360D0A004F
:102CDC0041542B48370D0A0041542B48380D0A003B
:102CEC0041542B48390D0A0041542B48410D0A0020
:102CFC0041542B48420D0A0041542B48430D0A0005
:102D0C0041542B48440D0A0041542B48450D0A00F0
:102D1C0041542B48460D0A00000102030607090A1C
:102D2C000C0E0F0001020304040405060607070835
:042D3C0008090A0A6E
:103728007824E670FB7F0890024EE4F0A3DFFCE407
:10373800FF12246BFE6016744E2FF582E43402F5F6
:1037480083EEF0740129F9E43AFA0F80E4E478286A
:10375800F6782476017828E606244EF582E43402C9
:05376800F583E0F5F51A
:01376D002239
:103A2A00EFC3940B500CEF75F008A4244CF9742CD6
:103A3A0080107812E6902D249375F008A424A4F936
:0A3A4A00742C35F0FA7BFF123728C8
:013A5400224F
:102B5000201406201503022C4B301412C2149002CC
:102B6000327401F0A37402F0A37456F08010C21501
:102B70009002327401F0A37402F0A3745EF090022C
:102B800032E0FBA3E0FAA3E0F912246BFFB4491F83
:102B9000900001122484FEB44902D217EEB441021F
:102BA000C217EE64586003022C30C217022C30EFBB
:102BB000B44D1C900001122484FFB44102C218EFEE
:102BC0006442706CD2187812E6F47829F6806112AB
:102BD000246BFFB44F12900001122484644670509D
:102BE00090020AE064028048EF6448704390020A51
:052BF000E06402703BEF
:102BF500900001122484FFD3648094B94005EF242A
:102C0500C98013900232E0FBA3E0FAA3E0F990003B
:102C15000112248424D07812F67812E6D3940F405A
:0B2C250002760F7812E6902D2F93F638
:102C3000E4FF900232E0FBA3E0FAA3E0F98F827593
:0B2C40008300E41224C30FEFB408E788
:012C4B002266
:102EF600122B5090020AE064026003022F81201315
:102F060013782BF6C217C2187812E6F47829F6E47D
:102F160090024DF0D21390024DE014601514601A21
:102F2600146019146018240470195390EF4390022A
:102F3600806F123B7C5390BF806780658067123B31
:102F46002180657812E6FF7829666009A6077F0B5F
:102F5600123A2A800D782AE6FF6007123A2AE478A8
:102F66002AF6E58830E210782BE6D3940540044330
:102F7600901022782B06225390EF22301308E47823
:102F86002BF690024DF0C21390024DE0146012141D
:102F960060111460101460172404701C5390EF80A5
:102FA600078005800343904090024DE004F0229094
:092FB600024DE004F05390FD22ED
:1034BB00242424415457510D0A00242424466163CB
:1034CB00746F72792073657474696E670D0A0024CA
:1034DB002424576966692072657365740D0A00248C
:1034EB002424456E74657220546573744D6F646546
:1034FB003A302E34350D0A00000004C0060108676F
:10350B000A900BE50D560E000050056006A1090749
:08351B000B300C850DF60E00CB
:10307100E4900232F0123C2990027AEEF0A3EFF0D4
:10308100C394A0EE940F504AE4FFEF25E02403F52A
:1030910082E43435F583E493FC740193FD90027A64
:1030A100E0FAA3E0FBC39DEA9C4022EF25E0241354
:1030B100F582E43435F583E493FC740193FDD3EB9D
:1030C1009DEA9C5008EF04900232F080050FEFB4A6
:1030D10008B87F05123BB3900232E0FFB4040AE561
:1030E1008820E5057408F0802DEFB4010DE58820F6
:1030F100E5089002327409F0801CEFB4020DE588F6
:1031010020E508900232740AF0800BE58820E5067C
:0B3111009002327403F0900232E0FFE5
:01311C002290
:102A4E00E4900278F0900281E0FE6F600EA3E06FDA
:102A5E006003EFF022900281EFF022900280E0FFFF
:102A6E006E6003022AFBEF7003022B4F90027CE094
:102A7E007003022B4F90027CE014F06003022B4F88
:102A8E00900280E090027EF0900279E07005900254
:102A9E007804F090027FE014602114603214602FED
:102AAE0024036003022B4F90027F7401F090027E8C
:102ABE00E04420F090027C7432F02290027F740287
:102ACE00F090027EE04460F090027C7414F022904C
:102ADE00027F7403F090027EE04480F090027C74DA
:102AEE0014F0A3E0C394FA5058E004F02290028050
:102AFE00E0603790027EF0900279E07005900278E7
:102B0E0004F090027FE024FE601014600F24027027
:102B1E001290027EE04440F08009800090027EE038
:102B2E0044C0F0E490027FF08009E4900279F090C6
:102B3E00027DF090027C7405F0900281E09002809C
:022B4E00F02273
:063C5800123071022A4E39
:101F4800900278E070030221AD900208E06016E488
:101F5800F090027904F0783A76051239CFE49002CD
:101F680009F00220C490027EE01225111FAB411F28
:101F7800EE42205543206C4420844520CC46212C39
:101F880047203962211266213A671FC7812055838D
:101F9800206C84214788217089218E8A1FABC1005B
:101FA8000021AD90027DE0C3941940030221AD7871
:101FB8003A760590020AE060030239CF0239699047
:101FC800020AE0601890027DE0641960030221AD06
:101FD800783A76057BFF7A3479BB0221AA90020A07
:101FE800E070030221AD90020AE0FF64016004EF93
:101FF800B40216C201C21B90020A7403F090028751
:10200800E060030221AD04F02290020AE06403605C
:10201800030221ADC201301B04C21B8026C21B90E3
:102028000287E004F0D3940650030221AD7401F056
:102038002290020AE0640360030221ADB21B201B58
:1020480007C2017830761822783076172290020A73
:10205800E0D3940150030221AD7812E6940A5001AE
:1020680006C2012290020AE0D3940150030221AD76
:102078007812E6D39401400116C2012290020AE0C8
:10208800D394015009900269E070030221AD9001D8
:10209800FAE0FF7008780C760F740FF022EFB40F97
:1020A8000B780C761E9001FA741EF022EFB41E0B0A
:1020B800780C763C9001FA743CF022E4780CF690A7
:1020C80001FAF02290020AE070030221AD90026941
:1020D800E0B40A028015900277E0700404F0800EE4
:1020E800900269E004F0D3940940037401F090026F
:1020F80069E0640960030221AD900270F090026EFD
:10210800F090026CF090026BF022900269E070038C
:102118000221AD900277E004F0D39403500302212A
:10212800ADE4F02290020AE0607B640260777402FA
:10213800F02290020AE06402706B782A76052290F9
:10214800027DE06432705E90022CF090022FF0D293
:102158000590020A04F0783A76057BFF7A3479C54F
:102168001234527F0A023A2A90027DE064327035B6
:10217800D20B90022CF090022FF0783A76057BFF74
:102188007A3479DA801C90027DE0B41918D200E420
:1021980090022CF090022FF0783A76037BFF7A3485
:0621A80079EA1234522214
:102E2500900276E014F070035398F7900275E01461
:102E3500F070035398EF900274E014F07003539808
:102E4500DF900271E014F06003022EF5900277E046
:102E5500FF700A900276F0900275F0805AEFB40187
:102E65002290026EE01313543F900276F090026CAC
:102E7500E01313543F900275F090026BE013135466
:102E85003F8034900277E090026EB40219E0C313DC
:102E9500900276F090026CE0C313900275F09002F8
:102EA5006BE0C3138011E0900276F090026CE09025
:102EB5000275F090026BE0900274F090020AE0B4A3
:102EC500020AE58830E10543881080035388EF90B6
:102ED5000276E06003439808900275E0600343982A
:102EE50010900274E060034398209002667401F02C
:012EF50022BA
:103BA30090026EEFF090026CEDF090026BEBF0225E
:101C7A0090026FE004F0C394045003021F47E490FB
:101C8A00026FF0A3E0FF705A90026EE0C394FF5017
:101C9A0003E004F090026CE0D394004003E014F0F7
:101CAA0090026BE0D394004003E014F090026EE0DF
:101CBA00F46003021F4790026CE06003021F479022
:101CCA00026BE06003021F4790027275F001122452
:101CDA00E5FCD3E5F0941EEC94005003021F470282
:101CEA001EE1EF6401707490026EE0C394FF50032A
:101CFA00E004F090026EE0D394FF4003E014F09009
:101D0A00026CE0C394805003E004F090026CE0D3CC
:101D1A0094804003E014F090026BE0D394004003F7
:101D2A00E014F090026EE0F46003021F4790026C28
:101D3A00E064806003021F4790026BE06003021FA9
:101D4A004790027275F0011224E5FED3E5F0941E65
:101D5A00EE94005003021F47021EE1900270E0FF5A
:101D6A006402705B90026EE0C394FF5003E004F0DB
:101D7A0090026CE0C394FF5003E004F090026BE021
:101D8A00D394004003E014F090026EE0F460030282
:101D9A001F4790026CE0F46003021F4790026BE059
:101DAA006003021F4790027275F0011224E5FCD30A
:101DBA00E5F0941EEC94005003021F47021EE1EF67
:101DCA006403705A90026EE0D394004003E014F06A
:101DDA0090026CE0C394FF5003E004F090026BE0C1
:101DEA00D394004003E014F090026EE06003021FF7
:101DFA004790026CE0F46003021F4790026BE060B8
:101E0A0003021F4790027275F0011224E5FED3E522
:101E1A00F0941EEE94005003021F47021EE1900246
:101E2A0070E0FF6404705990026EE0D3940040039E
:101E3A00E014F090026CE0D394004003E014F090B8
:101E4A00026BE0C394FF5003E004F090026EE0607E
:101E5A0003021F4790026CE06003021F4790026B67
:101E6A00E0F46003021F4790027275F0011224E544
:101E7A00FCD3E5F0941EEC94005003021F478057F0
:101E8A00EF6405706090026EE0D394004003E014A2
:101E9A00F090026CE0C394FF5003E004F090026BF0
:101EAA00E0C394FF5003E004F090026EE060030286
:101EBA001F4790026CE0F46003021F4790026BE038
:101ECA00F4707A90027275F0011224E5FED3E5F0FF
:101EDA00941EEE94004066E4900272F0A3F0900221
:101EEA0070E004F02290026EE0C394FF5003E00415
:101EFA00F090026CE0D394004003E014F090026B7F
:101F0A00E0C394FF5003E004F090026EE0B4FF2DAA
:101F1A0090026CE0702790026BE0B4FF209002728E
:101F2A00E475F0011224E5FED3E5F09432EE940054
:0E1F3A00400BE4900272F0A3F0900270F022CF
:1021AE00900266E07003022374E4900266F09002DF
:1021BE0069E0FFB4091B7811666016E0F6E4900240
:1021CE0070F090026E747FF0E490026CF090026BEF
:1021DE00F090020AE06007900269E0FE7004E4FBF2
:1021EE008051EEB401047BFF8021900269E0FEB4C1
:1021FE000205E4FBFD8016EEB40306E4FB7D808051
:10220E000C900269E0FEB40408E4FB7DFF7FFF80C2
:10221E0034EEB40507E4FB7DFFFF8029900269E0F0
:10222E00FEB406087BFF7DFFE4FF8019EEB40707BE
:10223E007BFFE4FDFF800E900269E0FEB4080C7B8C
:10224E00FFE4FD7F80123BA302234AEE640A600383
:10225E0002234090026DE0FFA3F090026AE0FE9030
:10226E00026CF0900268E0FD90026BF0EFB4FF118B
:10227E00EEB4FF0DEDB4FF099002697401F0022374
:10228E004A90026DE0B4FF1390026AE0700D900266
:10229E0068E07007A37402F002234A90026DE0FF1B
:1022AE00B4FF1490026AE0B4800D900268E07007EB
:1022BE00A37403F002234AEFB4FF1390026AE0B452
:1022CE00FF0C900268E07006A37404F0806E90021A
:1022DE006DE0701390026AE0B4FF0C900268E0703B
:1022EE0006A37405F0805590026DE0FF7014900205
:1022FE006AE0B4FF0D900268E0B4FF06A37406F026
:10230E00803AEF701390026AE0700D900268E0B4AC
:10231E00FF06A37407F0802490026DE0B4801D9038
:10232E00026AE07017900268E0B4FF10A37408F020
:10233E00800A900269E0B40903121C7A900269E0E7
:10234E00FF701AEFB40A1690026EE090026DF090D4
:10235E00026CE090026AF0A3E0900268F0900269CD
:07236E00E060037811F62284
:0B3C1E00000102030507090A0C0E0F4D
:0E3BD100EF903C1E93FFC374169FFF023B084B
:103B0800201915D219EF14782DF6E4782FF67832AB
:093B1800F653887F782C76C82250
:102FBF00201903023070783206E6C3782C9650033E
:102FCF00023070E47832F6782FE6B4130040030233
:102FDF003068902FE8F828287302302102302A0237
:102FEF003033023047023033023047023033023081
:102FFF00470230330230470230330230470230335A
:10300F00023047023033023047023033023047027A
:10301F003062438880782C76A0804353887F782C49
:10302F007614803A438880782DE630E70518761EAF
:10303F00802C782C760A802653887F782DE6FF30F7
:10304F00E70518760A8004782C761EEF25E0782D98
:10305F00F6800B782C76C8800553887FC219782F9D
:02306F00062237
:1025370090020AE06403600302269F201A1578318F
:10254700F6900287E0F47833F67812E6F4782EF600
:10255700E4A3F0D21A900288E014602114603514C5
:102567006047240370465390EF783106E6D39419F9
:1025770050030226EB5390FD4390408012123B21FB
:10258700439802783106E6D3943250030226EBE4EF
:10259700F60226E5783106E6D394C850030226EB07
:1025A700900288E004F0E4F6220226E57830E6FFA0
:1025B70060393019030226EBB417097BFF7A1A79C1
:1025C700E01234527830E6B41815900287E075F0BF
:1025D70018A424E0F9741A35F0FA7BFF1234527804
:1025E70030E6FF123B08E47830F622900287E07865
:1025F700336660483019030226EBE0FFF6EF60030D
:10260700B4170ED21B783376177BFF7A1A79E080DE
:1026170019900287E0FFD394065012EF75F018A4C3
:1026270024E0F9741A35F0FA7BFF1234527833E656
:10263700FF123B08900287E07833F6227912E77899
:102647002E6660103019030226EB7812E6FF782E0B
:10265700F6023BD1A201300801B35029783AE6705F
:1026670024A20192083001087BFF7A1A79E08012D0
:10267700900287E075F018A424E0F9741A35F0FA8F
:102687007BFF023452201B082001057812E67004F4
:102697005390EF2243901022301A05E4900288F0FD
:1026A700C21A900288E014601214601F14602C2470
:1026B7000370312017035390EF8023783106E6D358
:1026C70094144020E4F64398028013783AE6701495
:1026D7007BFF7A1A79E012345280032017069002A2
:0526E70088E004F02270
:103B5100757064617465206661696C00757064617B
:063B61007465206F6B008B
:0C3C120053E13F8FE5E5E154C060FA2269
:1038B900900244EBF0A3EAF0A3E9F08016900244E9
:1038C900E0FBA3E0FAA3E0F912246B6020E5E154E0
:1038D900C060EA53E13F900244E0FBA3E475F001C4
:0E38E9001224FBA9F0FA12246BF5E580D02220
:10150B00E4F58EF58D53ABFB53A8E753A9E753AA2C
:10151B00EF7817F6781AF608F67815F608F69002B3
:10152B003DF0A3F0A3F09002897400F0A37468F06F
:10153B00E4900239F0A3F0900239E0FEA3E0FFC380
:10154B00942DEE94015020900289E0FCA3E02FF53E
:10155B0082EC3EF583E4F090023AE004F070D89010
:10156B000239E004F080D043980843981043982048
:10157B007F43123C127817E6B4080040030218F3BD
:10158B00901592F82828730215AA0216320216D269
:10159B0002175B0217EF02185302189702189F12DB
:1015AB003C5EE5E130E534900289E0FEA3E0F58294
:1015BB008E83C083C082781A0806E61886067001EF
:1015CB000614D082D0832582F582E5833EF583E530
:1015DB00E5F0E490023DF0A3F0A3F0900289E0FE69
:1015EB00A3E0F5828E83E0B46E25781DE618466085
:1015FB000E7BFF7A3B79511238B9E47817F6227BD0
:10160B00FF7A3B795D1238B9781776060218FA78AB
:10161B001BE66407700418E6640160030218FA788D
:10162B001AF608F602189A123C5EE4781AF608F6D7
:10163B00900289E0FEA3E0F5828E83E0F9A3E0FE41
:10164B00900289E0FCA3E0F5828C83A3A3E0FDACC0
:10165B0006900289E0FAA3E0FBF5828A83A3A3A399
:10166B00E0FEEB2404F582E43AF583E0FBEBFFE9C3
:10167B00B4020EEFF4FFEEF4FEEF6D7002EE6C6051
:10168B00030217537815E6FE08E6FFC3ED9FFFEC48
:10169B009EFEEF64014E6004EF4E7025AE04AF0565
:1016AB007815A60608A607E6FEE42400FFEE3440F4
:1016BB00FE900240F0A3EFF0D394FFEE947F400432
:1016CB002202175302189A123C5EE490023BF0A3DD
:1016DB00F0FFFE900239F0A3F0900239E0FCA3E09A
:1016EB00FDC3EC94015034ED2405FDE43CFC900269
:1016FB0089E0FAA3E02DF582EA3CF583E0FD900248
:10170B003CE02DF090023BE03400F090023AE00414
:10171B00F070C6900239E004F080BE900289E0FCC4
:10172B00A3E0FD2405F582EC3401F583E0FEED2406
:10173B0006F582EC3401F583E0FDEDFF90023BE012
:10174B006E7003A3E06F60057F1502189202189A62
:10175B00123C5E900240E0FEA3E0FF90028AE02480
:10176B0005FD900289E03400FAA9057B011231B71F
:10177B00900241E02440FF900240E03400FE9002D2
:10178B008AE02445FD900289E03400FAA9057B012B
:10179B001231B7900241E02480FF900240E0340008
:1017AB00FE90028AE02485FD900289E03400FAA9BC
:1017BB00057B011231B7900241E024C0FF9002403B
:1017CB00E03400FE90028AE024C5FD900289E034EB
:1017DB0000FAA9057B011231B7781DE616187001C6
:1017EB001602189A123C5EE4900239F0A3F09002B4
:1017FB0039E0FEA3E0FFC3EE9401504A900241E0B2
:10180B002FFF900240E03EFE123C4290023AE02451
:10181B0005FD900239E03400FC900289E0FAA3E068
:10182B002DF582EA3CF583E06F600B7F15123C12BD
:10183B00E47817F6801090023AE004F070B0900252
:10184B0039E004F080A88047123C5EE4900239F046
:10185B00A3F0900239E0FEA3E0FFC3942DEE9401B8
:10186B005023900289E0FCA3E02FF582EC3EF58338
:10187B00E4F0123C5E90023AE004F070D59002392D
:10188B00E004F080CD7F96123C12805F123C5E78B4
:10189B001706805B123C5EE4900239F0A3F09002D5
:1018AB0039E0FEA3E0FFC39440EE94005021900278
:1018BB0089E0FCA3E02FF582EC3EF58374AAF0904F
:1018CB00023AE004F070D7900239E004F080CF9038
:1018DB000289E0FEA3E0AA06F97B017F007E0412D9
:1018EB0031B7123C5E020000123C5EE47817F61230
:1018FB003C5E90023DE004F06003021580A3E0041F
:10190B00F06003021580A3E004F0C39402500302BD
:08191B00158012000002158086
:101923007B416C61726D536574007B416C61726DB8
:101933004F6E4F6666005475726E206F6E20756E23
:101943006974005475726E206F6E204C69676874F9
:1019530072004368616E6765206C69676874206311
:101963006F6C6F72005573657220636F6C6F7200DA
:1019730053656C65637420536F756E642066696C80
:1019830065006D7573696320706C61790050726FC7
:10199300506C61790D0A007B50726F6772616D0044
:1019A300564552302E0D0A005645520D0A00242486
:1019B30024564552302E34350D0A00477053746156
:1019C300007B54696D6553796E63005475726E20A4
:1019D3006F666620756E6974005475726E206F6E43
:1019E300204254006D7573696320706175736500DF
:1019F3007B4D757369635374617475730041646AD5
:101A0300757374204F757470757420566F6C756D93
:101A13006500766F6C756D6520757000766F6C75FB
:101A23006D6520646F776E006D75736963206D75E6
:101A33007465006D7573696320756E6D75746500EB
:101A43005365742054696D6572005475726E206F0E
:101A530066662054696D6572005475726E206F66F8
:101A630066204C6967687472006C696768742075D6
:101A730070006C6967687420646F776E0041646AF4
:101A8300757374204C69676874204272696768745F
:101A93006E65737300416C6147705374610D0A0086
:101AA3004E6F7247705374610D0A00207570646144
:101AB300746500415457510D0A00456E74657220D8
:101AC300546573744D6F64653A007B4E6F72477053
:101AD300537461000101020408102040802424246F
:101AE3007B4D757369635374617475733A5B3037F7
:101AF3005D7D0D0A002424247B4D75736963537443
:101B0300617475733A5B30315D7D0D0A00242424C2
:101B13007B4D757369635374617475733A5B3032CB
:101B23005D7D0D0A002424247B4D75736963537412
:101B3300617475733A5B30335D7D0D0A0024242490
:101B43007B4D757369635374617475733A5B303499
:101B53005D7D0D0A002424247B4D757369635374E2
:101B6300617475733A5B30355D7D0D0A002424245E
:101B73007B4D757369635374617475733A5B303667
:101B83005D7D0D0A002424247B47705374613A5B06
:101B930030302C30302C30302C30302C3030303052
:101BA30030302C30302C30302C30302C30303B3037
:101BB300302C30302C30302C3030303030302C3032
:101BC300302C30302C30302C30302C30303A303018
:101BD3002C30305D7D0D0A002424247B416C614749
:101BE300705374613A5B30302C30302C30302C30F1
:101BF300302C3030303030302C30302C30302C30F2
:101C0300302C30302C30302C30303A30302C3030D7
:101C13005D7D0D0A002424247B4E6F72477053743C
:101C2300613A5B30302C30302C30302C30302C305B
:101C330030303030302C30302C30302C30302C30B1
:101C4300305D7D0D0A002424247B4E6F7247705350
:101C530074613A5B30302C30302C30302C30302CE7
:101C63003030303030302C30302C30302C30302C81
:071C730030305D7D0D0A0019
:1035230090023C74FFF0A37419F074ABA3F0900203
:0935330036E0FBA3E0FAA3E0F985
:10353C00900239EBF0A3EAF0A3E9F090023CE0FB37
:10354C00A3E0FAA3E0F912246BFF602F900239E09C
:10355C00FBA3E0FAA3E0F912246BB507056003EFB7
:10356C0070037F012290023AE475F0011224E59079
:0E357C00023DE475F0011224E580C07F0022BC
:1037F600900236E0FBA3E0FAA3E0F9900019122448
:093806008490001AFF122484FDD5
:10380F00C3EF648094C14006EF24C9FF800474D0D5
:10381F002FFFC3ED648094C14006ED24C9FD8004E1
:0B382F0074D02DFDEFC454F04DFF22BB
:05399E00FF122484FD6E
:1039A300C3EF648094C14006EF24C9FF800474D040
:1039B3002FFFC3ED648094C14006ED24C9FD80044C
:0C39C30074D02DFDEF75F00AA42DFF223A
:10324B001232AB900232E0FBA3E0FAA3E0241AF9AE
:10325B00E43AFA90026DE0FD1232AB900232E0FBE1
:10326B00A3E0FAA3E0241CF9E43AFA90026AE0FD29
:10327B001232AB900232E0FBA3E0FAA3E0241EF97A
:10328B00E43AFA900268E0FD1232AB900232E0FBB6
:10329B00A3E0FAA3E09002772421F9E43AFAE0FDE7
:1032AB00EDC4540FFFC3940AEF400424378002246B
:1032BB00301224B1740129F9E43AFAED540FFFC32B
:0E32CB00940AEF40042437800224301224B10C
:0132D90022D2
:1039690090020A7401F0780DE6B403047F03800223
:103979007F0190020AEFF07809E67812F67811E6ED
:10398900900269F0EF70047F0180027F0012289D88
:05399900783A760322DC
:103ACD0090020A7401F07809E67812F67401700418
:0E3ADD007F0180027F0012289D783A76032236
:1039CF0090020AE0780DF6E4F07812E67809F690A6
:1039DF000269E07811F6E4F0780CF69001FAF070D5
:0F39EF00047F0180027F0012289D783A76032220
:1039FE00E4900208F0900279F01239CF783A760509
:103A0E0090020AE070047F0180027F0012289DE47C
:0C3A1E00900209F0780CF69001FAF022FA
:05289D00900239EFF08C
:1028A200123C5E7834E670F87838F67F64900195D1
:1028B200E4F0A3DFFCE4FFEFFD3395E0FC74882D28
:1028C200F582741B3CF583E493FE74952DF58274B6
:1028D200013CF583EEF00FEFB452DC7B017A017913
:1028E200A0900239E0FD1232AB7A0179A390020A7C
:1028F200E0B40308900287E0FFFD80027D071232F8
:10290200AB7B017A0179A6900269E07003FD800237
:102912007D011232AB7B017A0179A9900269E0B4A0
:1029220009047D0180027D001232AB7B017A0179BC
:10293200AC90026DE0FD1232AB7A0179AE90026A80
:10294200E0FD1232AB7A0179B0900268E0FD1232FA
:10295200AB7A0179B3900277E0FD1232AB7A01795A
:10296200B67812E6FD1232AB7A0179B9A21BE433D2
:10297200FD1232AB7A0179BC780CE6FD1232AB7AE9
:102982000179BFE4FD1232AB7A0179C2900202E012
:10299200FD1232AB7A0179C5900205E0B409047DDB
:1029A2000180027D001232AB7B017A0179C890016D
:1029B200FFE0FD1232AB7A0179CA900200E0FD120B
:1029C20032AB7A0179CC900201E0FD1232AB7A018E
:1029D20079CF900206E0FD1232AB7A0179D29002F1
:1029E20003E0FD1232AB7A0179D59001FBE0FD12D2
:1029F20032AB7A0179D89001FCE0FD1232AB7A0158
:102A020079DB9001FDE0FD1232AB7A0179DE9001B3
:102A1200FEE0FD1232AB7A0179E1900207E0FD128D
:102A220032AB783A7602E47839F678347601783740
:102A3200760A7839E6062495F582E43401F583E0D6
:0B2A4200F5E5900231E070037402F033
:012A4D002266
:0B052900900232EBF0A3EAF0A3E9F02F
:100534002403F9E43AFA900236EBF0A3EAF0A3E9D3
:10054400F090023C74FFF0A37419F0A37423F0122A
:10055400353CEF6003020725900236E0FBA3E0FA86
:10056400A3E0F990000F12248424D0900202F0C377
:1005740094074002E4F0900012122484FF24D090E7
:100584000205F0EFB43111900015122484B4310443
:100594007F0980067F0A80027F00900205EFF090B9
:1005A4000236E0FBA3E0FAA3E0F9900017122484DA
:1005B40090001812380A9001FFEFF01237F69002FB
:1005C40000EFF0900236E0FBA3E0FAA3E0F990001C
:1005D4001B122484FF90001C12380B900201EFF0D0
:1005E400900236E0FBA3E0FAA3E0F990001F122486
:1005F4008424D0900206F0900021122484FF9000FD
:100604002212380B900203EFF0900236E0FBA3E0D5
:10061400FAA3E0F990002512248424D0900204F077
:1006240090002812248424D09001FBF090002A1218
:100634002484FF90002B12380B9001FCEFF0900201
:1006440036E0FBA3E0FAA3E0F990002D122484FF26
:1006540090002E12380B9001FDEFF0900236E0FB73
:10066400A3E0FAA3E0F9900030122484FF90003153
:1006740012380B9001FEEFF0900236E0FBA3E0FA93
:10068400A3E0F9900033122484FF90003412380B55
:10069400900207EFF053ABFB900236E0FBA3E0FAC5
:1006A400A3E0F9900036122484FF90003712380B2F
:1006B400780FA607900236E0FBA3E0FAA3E0F990D6
:1006C4000039122484FF90003A12380B780AA607E6
:1006D400900236E0FBA3E0FAA3E0F990003C122478
:1006E40084FF90003D12380B780EA607900236E086
:1006F400FBA3E0FAA3E0F990004912248424D07803
:100704000BF6E6901AD793F643AB049001FBE06036
:100714000BA3E0547F7005D202020C96C202020CB5
:100724009690023C74FFF0A37419F0742D12352FC7
:10073400EF60030207BD900236E0FBA3E0FAA3E0FA
:10074400F990001112248424D09001FBF053ABFBE8
:10075400900013122484FF90001412380B780FA613
:1007640007900236E0FBA3E0FAA3E0F9900016122A
:100774002484FF90001712380B780AA6071237F664
:10078400780EA607900236E0FBA3E0FAA3E0F99006
:10079400002612248424D0780BF6E6901AD793F618
:1007A40043AB049001FBE0600BA3E0547F7005D2DF
:1007B40002020C96C202020C9690023C74FFF0A353
:1007C4007419F0A37439123530EF701A900232E0C4
:1007D400FBA3E0FAA3E0F912345290020AE06003AA
:1007E400020C9602396990023C74FFF0A37419F06C
:1007F400A37446123530EF7042900232E0FBA3E05E
:10080400FAA3E0F912345290020AE07003123ACDCE
:10081400900208E0600BE4F0A3F0780CF69001FA83
:10082400F07811E6900269F0700204F0900277E02B
:10083400FF70057F0102094502094590023C74FFDF
:10084400F0A37419F0A37455123530EF704D900273
:1008540032E0FBA3E0FAA3E0F912345290020AE07A
:100864007003123ACD900208E0600BE4F0A3F07834
:100874000CF69001FAF09002697409F0E4900270A9
:10088400F090026EF090026CF090026BF0900277A0
:10089400E0FF70047F01800002094590023C74FF70
:1008A400F0A37419F0A37468123530EF60030209E1
:1008B4004B900232E0FBA3E0FAA3E0F91234529029
:1008C400020AE07003123ACD900208E0600BE4F0F3
:1008D400A3F0780CF69001FAF0900236E0FBA3E066
:1008E400FAA3E0F990000B122484FF90000C123854
:1008F4000B90026DEFF0900236E0FBA3E0FAA3E068
:10090400F990000D122484FF90000E12380B90020F
:100914006AEFF0900236E0FBA3E0FAA3E0F990005E
:100924000F122484FF90001012380B900268EFF02D
:10093400900269740AF0900277E0FF70047F0180EE
:1009440000900277EFF02290023C74FFF0A3741938
:10095400F0A37473123530EF706D900232E0FBA394
:10096400E0FAA3E0F912345290020AE07003123A5A
:10097400CD900208E0600BE4F0A3F0780CF690014F
:10098400FAF0C201C21B90020A7403F0900236E02E
:10099400FBA3E0FAA3E0F990001A12248424D0FF08
:1009A400900287F07833E6B5070478307618783A01
:1009B4007601900287E075F018A424E0F9741A35E2
:1009C400F0FA7BFF02150790023C74FFF0A3741940
:1009D400F0A37485123530EF703290020AE0700390
:1009E400123ACD900208E0600BE4F0A3F0780CF624
:1009F4009001FAF090020A7403F0C201C21B900243
:100A040087E0700304F022783076182290023C7458
:100A1400FFF0A37419F0A37490123530EF60030251
:100A24000AB8900232E0FBA3E0FAA3E0F9123452D0
:100A340090020AE07003123ACD900208E0600BE4E1
:100A4400F0A3F0780CF69001FAF090020BE090021B
:100A540087F090020CE0900269F090020DE09002A1
:100A64006DF090020EE090026AF090020FE09002A6
:100A740068F0900210E0900277F0900211E0781292
:100A8400F6A3E090020AF0900213E024FF921B20E8
:100A94001B03C38001D39201E433900214F0201BA2
:100AA400047F1880027F177830A607900215E09023
:100AB40001FAF02290023C74FFF0A37419F0A374BD
:100AC4009A123530EF6003020C58900232E0FBA317
:100AD400E0FAA3E0F912345290020AE07003123AE9
:100AE400CD900208E0600BE4F0A3F0780CF69001DE
:100AF400FAF0123AA7900236E0FBA3E0FAA3E0F979
:100B040090000E12248424D0900287F090020BF0FF
:100B1400900011122484FFB431047E0180027E000F
:100B2400900269EEF090020CF0EFB4311C900236A2
:100B3400E0FBA3E0FAA3E0F9900014122484B4319A
:100B4400047F0980067F0A80027F00900269EFF02B
:100B540090020CF0900236E0FBA3E0FAA3E0F990D7
:100B64000016122484FF90001712380B90026DEFC8
:100B7400F090020DF0900236E0FBA3E0FAA3E0F956
:100B8400900018122484FF90001912380B90026A06
:100B9400EFF090020EF0900236E0FBA3E0FAA3E03F
:100BA400F990001A122484FF90001B12380B900253
:100BB40068EFF090020FF0900236E0FBA3E0FAA396
:100BC400E0F990001D12248490001E12399E9002B8
:100BD40077EFF0900210F0900236E0FBA3E0FAA366
:100BE400E0F9900020122484FF90002112380B7841
:100BF40012EFF6900211F090020A7403F0900212C0
:100C0400F0900236E0FBA3E0FAA3E0F9900024128E
:100C1400248424D024FF921BE433900213F0201B7D
:100C240003C38001D39201E433900214F0201B0427
:100C34007F1880027F177830A6079000261224843C
:100C4400FF90002712380B780CEFF69001FAF09021
:100C54000215F02290023C74FFF0A37419F0A374FF
:100C6400A3123530EF700122123523EF70097BFF98
:100C74007A1979B102150790023C74FFF0A3741934
:100C8400F0A374BE123530EF7008783AF690023152
:100C9400F02290020AE070030213CE90023C74FF2B
:100CA400F0A37419F0A374C4123530EF707C53AB05
:100CB400FB900236E0FBA3E0FAA3E0F990000B12EC
:100CC4002484FF90000C12380B780FA6079002368C
:100CD400E0FBA3E0FAA3E0F990000E122484FF9055
:100CE400000F12380B780AA607900236E0FBA3E047
:100CF400FAA3E0F9900011122484FF900012123834
:100D04000B780EA607900236E0FBA3E0FAA3E0F905
:100D140090001E12248424D0780BF6E6901AD79300
:100D2400F643AB04E4900230F02290023C74FFF0EE
:100D3400A37419F0A374CE123530EF701E900232F2
:100D4400E0FBA3E0FAA3E0F9123452900208E06059
:100D540003020F8C783A76030239CF90023C74FF79
:100D6400F0A37419F0A374DC123530EF700990020B
:100D74000A7402F00213C090023C74FFF0A37419C9
:100D8400F0A374E7123530EF701290020AE06403A6
:100D9400600302150AD21B783076172290023C7445
:100DA400FFF0A37419F0A374F3123530EF7001222D
:100DB40090023C74FFF0A3741AF0A374001235304F
:100DC400EF7023900208E06003020F8C900236E07B
:100DD400FBA3E0FAA3E0F990001412248490001518
:100DE40012399E020E6090023C74FFF0A3741AF054
:100DF400A37415123530EF7029900208E0600302E5
:100E04000F8C7812E6FFC3940A5013EF940850072E
:100E1400E62402FFF68009781206E6FF80027F0AC4
:100E2400803A90023C74FFF0A3741AF0A3741F126A
:100E34003530EF7030900208E06003020F8C7812B6
:100E4400E6FFD394014013EF94034007E624FEFF2A
:100E5400F68009781216E6FF80027F017812A60751
:100E6400C2010213C090023C74FFF0A3741AF0A3F1
:100E7400742B123530EF7003D2012290023C74FFC0
:100E8400F0A3741AF0A37436123530EF7003C20164
:100E94002290023C74FFF0A3741AF0A37443123539
:100EA40030EF7026900208E06003020F8C90023647
:100EB400E0FBA3E0FAA3E0F990000A122484FF9077
:100EC400000B12399F780CEF801F90023C74FFF0E6
:100ED400A3741AF0A3744D123530EF701490020805
:100EE400E06003020F8CE4780CF69001FAF0021330
:100EF400C090023C74FFF0A3741AF0A3745C123522
:100F040030EF7011900208E06003020F8CE490024D
:100F140069F00213C090023C74FFF0A3741AF0A3AA
:100F2400746C123530EF701A900208E06002805839
:100F3400900277E0C3940340030213C0E004F0027C
:100F440013C090023C74FFF0A3741AF0A3747512DA
:100F54003530EF701A900208E06002802B9002771F
:100F6400E0D3940050030213C0E014F00213C090C5
:100F7400023C74FFF0A3741AF0A37480123530EFAE
:100F84007029900208E060030239FE900236E0FB0B
:100F9400A3E0FAA3E0F9900018122484FF9000194A
:100FA40012399F900277EFF00213C090023C74FF55
:100FB400F0A3741AF0A37498123530EF6003021191
:010FC4008D9F
:100FC500900235F0900235E0FFC39464501C900206
:100FD50032E0FBA3E0FAA3E0F98F82758300E41207
:100FE50024C3900235E004F080DAE4900235F090F5
:100FF5000235E0FF901BDB93FE900232E0FBA3E09D
:10100500FAA3E0F98F82758300EE1224C3900235AE
:10101500E004F0E0B43ED8900232E0FBA3E0FAA38E
:10102500E0240EF9E43AFAE4FD1232AB900232E024
:10103500FBA3E0FAA3E02411F9E43AFA900202E0F6
:10104500FF6003FD80027D071232AB900232E0FBA8
:10105500A3E0FAA3E02414F9E43AFA900205E0705B
:1010650003FD80027D011232AB900232E0FBA3E06A
:10107500FAA3E02417F9E43AFA900205E0B409046A
:101085007D0180027D001232AB900232E0FBA3E0CD
:10109500FAA3E0241AF9E43AFA9001FFE0FD1232CE
:1010A500AB900232E0FBA3E0FAA3E0241CF9E43A9A
:1010B500FA900200E0FD1232AB900232E0FBA3E0B1
:1010C500FAA3E0241EF9E43AFA900201E0FD123297
:1010D500AB900232E0FBA3E0FAA3E09002061232E5
:1010E500A3900232E0FBA3E0FAA3E02424F9E43A5A
:1010F500FA900203E0FD1232AB900232E0FBA3E06E
:10110500FAA3E02427F9E43AFA900204E0FD12324A
:10111500AB900232E0FBA3E0FAA3E0242AF9E43A1B
:10112500FA9001FBE0FD1232AB900232E0FBA3E046
:10113500FAA3E0242DF9E43AFA9001FCE0FD12321D
:10114500AB900232E0FBA3E0FAA3E02430F9E43AE5
:10115500FA9001FDE0FD1232AB900232E0FBA3E014
:10116500FAA3E02433F9E43AFA9001FEE0FD1232E5
:10117500AB900232E0FBA3E0FAA3E02436F9E43AAF
:05118500FA900207E0F2
:10118A000212B390023C74FFF0A3741AF0A374A382
:09119A00123530EF60030212BEB1
:1011A300900235F0900235E0FFC39464501C900226
:1011B30032E0FBA3E0FAA3E0F98F82758300E41227
:1011C30024C3900235E004F080DAE4900235F09015
:1011D3000235E0FF901C1893FE900232E0FBA3E07F
:1011E300FAA3E0F98F82758300EE1224C3900235CF
:1011F300E004F0E0B430D8900232E0FBA3E0FAA3BD
:10120300E0240EF9E43AFA7D011232AB900232E0A7
:10121300FBA3E0FAA3E02411F9E43AFA90020AE00E
:10122300B40308900287E0FFFD80027D071232AB12
:10123300900232E0FBA3E0FAA3E02414F9E43AFAC3
:10124300900269E07003FD80027D011232AB9002CF
:1012530032E0FBA3E0FAA3E02417F9E43AFA9002A0
:1012630069E0B409047D0080027D0112324B9002D3
:1012730032E0FBA3E0FAA3E02424F9E43AFA78127B
:10128300E6FD1232AB900232E0FBA3E0FAA3E024C6
:1012930027F9E43AFAA21BE433FD1232AB9002328F
:1012A300E0FBA3E0FAA3E0242AF9E43AFA780CE697
:0812B300FD1232AB783A76021D
:1012BB000213C090023C74FFF0A3741AF0A374AE37
:1012CB00123530EF6003021370900236E0FBA3E09F
:1012DB00FAA3E0F990000A122484FF90000B123855
:1012EB000BEF7F00FEC007C006900236E0FBA3E0C9
:1012FB00FAA3E0F990000C122484FF90000D123831
:10130B000BEFFD3395E0FCD0E04CFED0E04D7818B0
:10131B00A60608F6900236E0FBA3E0FAA3E0F990EC
:10132B000011122484FF90001212380BEF7F00FE85
:10133B00C007C006900236E0FBA3E0FAA3E0F990E9
:10134B000013122484FF90001412380BEFFD339519
:10135B00E0FCD0E04CFED0E04D781CA60608F6125F
:10136B00150B0213C090023C74FFF0A3741AF0A388
:10137B0074B6123530EF7004783AF622123523EF3B
:10138B0070097BFF7A1979B102150790023C74FF43
:10139B00F0A3741AF0A374BD123530EF7017783ABE
:1013AB00F690022CF090022FF0D20590020A04F076
:1013BB007F0A023A2A900232E0FBA3E0FAA3E0F99B
:1013CB0002150790023C74FFF0A3741AF0A374CDBE
:0913DB00123530EF60030214FC2E
:1013E400900235F0900235E0FFC39464501C9002E3
:1013F40032E0FBA3E0FAA3E0F98F82758300E412E4
:1014040024C3900235E004F080DAE4900235F090D1
:101414000235E0FF901C4993FE900232E0FBA3E00A
:10142400FAA3E0F98F82758300EE1224C39002358B
:10143400E004F0E0B430D8900232E0FBA3E0FAA379
:10144400E0240EF9E43AFAE4FD1232AB900232E001
:10145400FBA3E0FAA3E02411F9E43AFA90020AE0CB
:10146400B40308900287E0FFFD80027D071232ABCF
:10147400900232E0FBA3E0FAA3E02414F9E43AFA80
:10148400900269E07003FD80027D011232AB90028C
:1014940032E0FBA3E0FAA3E02417F9E43AFA90025D
:1014A40069E0B409047D0080027D0112324B900290
:1014B40032E0FBA3E0FAA3E02424F9E43AFA781238
:1014C400E6FD1232AB900232E0FBA3E0FAA3E02483
:1014D40027F9E43AFAA21BE433FD1232AB9002324C
:1014E400E0FBA3E0FAA3E0242AF9E43AFA780CE654
:0814F400FD1232AB783A7602DA
:0E14FC00900232E0FBA3E0FAA3E0F9123452B2
:01150A0022BE
:103AA70078217C027D017B017A0279167E007F0BEB
:103AB70012244578167C027D017B017A02790B7E00
:063AC700007F0B02244504
:0D3BF900E4F5FDF5FEF5FA75FB40F5FC2244
:033C62000200005D
:103A7F00E4FE7DA2EF600E74832EF582E43402F52E
:103A8F0083EDF0800C74832EF582E43402F583E429
:073A9F00F00D0EEEB404DD92
:013AA60022FD
:083C3A0075FE010000000022EC
:10393200AD07AC06E4F5FAECF5FBAF058FFC75FDBF
:10394200A5900283E064A27018A3E0B4A313A3E0DD
:10395200B4A40EA3E0B4A50975FE03000000008024
:0739620003123C62023BF975
:10369300AD07AC067F007E80123C3AE4FBEF2BF5CE
:1036A30082E43EF583E4F00BEBB440F1E4F5FAEC8D
:1036B300F5FBAF058FFC75FDA5900283E064A27056
:1036C30018A3E0B4A313A3E0B4A40EA3E0B4A50924
:0F36D30075FE02000000008003123C62023BF90A
:0B31B700900244EBF0A3EAF0A3E9F063
:1031C200E4900248F0A37480F0A3E4F0A3EEF0A32D
:1031D200EFF053A87F7F01123A7F90024BE0FEA3EB
:1031E200E0FF123693123C3AE4900247F090024418
:1031F200E0FBA3E0FAA3E0F9900248E0FF04F08FBD
:1032020082758300122484FF900247E0FE900249F7
:10321200E0FCA3E02EF582E43CF583EFF090024758
:10322200E004F0E0B440C690024BE0FEA3E0FF12DF
:103232003932E4FF123A7F90024CE02440F09002CF
:083242004BE03400F043A880CA
:01324A002261
:073C42008F828E83E493FFE3
:013C49002258
:100100009002337400F0A37468F0A37480F0A3E449
:10011000F0900232F0900232E0FFC394405019A3F5
:10012000E0FCA3E02FF582E43CF583E4F0438D206E
:10013000900232E004F080DD9002397404F0A3E410
:10014000F0900232F0900232E0FFC39440503490BD
:100150000239E0FCA3E0F5828C83E493FE90023345
:10016000E0FCA3E02FF582E43CF583EEF090023A48
:10017000E004F07006900239E004F0900232E004EE
:10018000F080C2900233E0FEA3E0FFF5828E83E0B0
:1001900064AA600302037BA3A3E064AA60030203D2
:1001A0007B900233A3E02404F582E43EF583E0640F
:1001B000AA600302037BEF2406F582E43EF583E0A8
:1001C00064AA600302037B53A87F900237F0A3F078
:1001D000A37440020374438D20900237E0FEA3E035
:1001E000FDAC06E4900232F0900232E0F9C3944094
:1001F0004003020273900237E0FEA3E0FFC3EE94D7
:10020000004009D3EF9400EE9404400FC3EE940530
:100210004045D3EF94FFEE943F503C900239E0FE0E
:10022000A3E0F5828E83E493FF900233E0FAA3E02B
:1002300029F582E43AF583EFF090023AE004F07099
:1002400006900239E004F0900238E004F0701B9050
:100250000237E004F08013900232E0FFA3E0FAA33B
:10026000E02FF582E43AF583E4F0900232E004F006
:100270000201E875FE0100000000E4900232F090F7
:100280000232E0FFC39440501B900235E0FAA3E035
:100290002FF582E43AF583E4F0438D20900232E0BA
:1002A00004F080DBE4F5FAECF5FB8DFC75FDA500B0
:1002B00000000075FE0200000000E4F5FDF5FEF50B
:1002C000FA75FB05F5FC75FE010000000090023296
:1002D000F0900232E0F9A3E0FEA3E029F582E43ECB
:1002E000F583E0FF900235E0FAA3E029F582E43AD5
:1002F000F583EFF0900232E004F0E0B440D3E4F58F
:10030000FAECF5FBAF058FFC75FDA500000000754C
:10031000FE0300000000E4F5FDF5FEF5FA75FB05AF
:10032000F5FC900237E0FEA3E0FFC3EE9404400F1B
:10033000D3EF9400EE94055006438D2012000090F8
:100340000237E0FEA3E0B40014EEB40110900237CF
:100350007405F0A3E4F0A37445F0A3E4F090023731
:10036000E0FEA3E0C394FFEE943F50030201D69059
:1003700002377404F0A3E4F00201D612050043A88A
:0103800080FC
:010381002259
:103AEB00242424416C61726D2075700D0A0024240E
:0D3AFB002454696D652073796E630D0A0017
:0B345200900239EBF0A3EAF0A3E9F0D0
:10345D00123C5E7834E670F87838F67F649001950A
:10346D00E4F0A3DFFCE4FF900239E0FBA3E0FAA354
:10347D00E0F912246BFE601974952FF582E4340186
:10348D00F583EEF090023AE475F0011224E50F8019
:10349D00D6E47839F6783476017837760A7839E6D5
:0D34AD00062495F582E43401F583E0F5E591
:0134BA0022EF
:10336900783AE660357838E6C394144029123C5E11
:103379007834E670F8783A167838F608F6783476BC
:10338900017837760A7839E6062495F582E434011E
:10339900F583E0F5E5227838062230070EC2077872
:1033A9003A76037BFF7A3A79EB800F30060FC20633
:1033B900783A76037BFF7A3A79F9023452900231EE
:1033C900E0601990020AE070047F0180027F001218
:0D33D900289D900231E014F0783A7602222F
:1032DA00900002E0FEA3E0FF900000E06E7003A3FE
:1032EA00E06F607A123C5E7836760A900002E0FE61
:1032FA00A3E0FF2468F58274003EF583E0FD18E63A
:10330A002404F582E43400F583EDF074682FF58225
:10331A0074003EF583E4F090000275F0011224E592
:10332A00FEC3E5F0942CEE94014007E4900002F00D
:10333A00A3F07835E6062404F582E43400F583E048
:10334A00640A708C7B017A0079041205297F6490E3
:0E335A000004E4F0A3DFFCE47835F60232DA7A
:013368002242
:10313700020500E493A3F8E493A34003F68001F2A9
:1031470008DFF48029E493A3F85407240CC8C33399
:10315700C4540F4420C8834004F456800146F6DF68
:10316700E4800B0102040810204080903C51E47E6B
:10317700019360BCA3FF543F30E509541FFEE4935D
:10318700A360010ECF54C025E060A840B8E493A324
:10319700FAE493A3F8E493A3C8C582C8CAC583CA4F
:1031A700F0A3C8C582C8CAC583CADFE9DEE780BE07
:013C5700006C
:10237500E709F608DFFA8046E709F208DFFA803E4A
:1023850088828C83E709F0A3DFFA8032E309F60837
:10239500DFFA8078E309F208DFFA807088828C839F
:1023A500E309F0A3DFFA806489828A83E0A3F60853
:1023B500DFFA805889828A83E0A3F208DFFA804C2D
:1023C50080D280FA80C680D4806980F28033801004
:1023D50080A680EA809A80A880DA80E280CA80336D
:1023E50089828A83ECFAE493A3C8C582C8CCC583E5
:1023F500CCF0A3C8C582C8CCC583CCDFE9DEE780B5
:102405000D89828A83E493A3F608DFF9ECFAA9F033
:10241500EDFB2289828A83ECFAE0A3C8C582C8CC89
:10242500C583CCF0A3C8C582C8CCC583CCDFEADEA2
:10243500E880DB89828A83E493A3F208DFF980CC04
:1024450088F0EF60010E4E60C388F0ED2402B404FD
:102455000050B9F582EB2402B4040050AF232345A4
:0624650082239023C573E1
:10246B00BB010689828A83E0225002E722BBFE026F
:09247B00E32289828A83E49322A2
:10248400BB010CE58229F582E5833AF583E022500D
:1024940006E92582F8E622BBFE06E92582F8E22257
:0D24A400E58229F582E5833AF583E4932271
:1024B100BB010689828A83F0225002F722BBFE010A
:0224C100F32204
:1024C300F8BB010DE58229F582E5833AF583E8F04F
:1024D300225006E92582C8F622BBFE05E92582C8FB
:0224E300F222E3
:1024E500C5F0F8A3E028F0C5F0F8E5821582700282
:0624F5001583E038F0221F
:1024FB00A3F8E0C5F025F0F0E58215827002158394
:06250B00E0C838F0E822F0
:10251100D083D082F8E4937012740193700DA3A359
:1025210093F8740193F5828883E47374029368606D
:06253100EFA3A3A380DF6D
:00000001FF
