:030000000234FBCC
:1034FB0078FFE4F6D8FD9000007F007E03E4F0A394
:0A350B00DFFCDEFA75813A020100D0
:1005000053A87F1238AB123E07123EFD123EE51291
:100510003E9E123E35123E5E123EAB43A880123B19
:060520003412010080FE10
:03001B000236B8F2
:0F36B800C0E0C083C082C0D075D000C000C00782
:1036C700AFF553F1DF7825760A300E237827E6C366
:1036D7009408500DE606243FF582E43402F583EFA3
:1036E700F0EF640A702A7827F6D210B20E8021789C
:1036F70027E6C39408500DE6062447F582E4340212
:10370700F583EFF0EFB40A0878277600D211B20EEE
:0D371700D007D000D0D0D082D083D0E032D7
:03002300023A6E30
:103A6E00C0E0C083C082C0D075D000C00053F17FCB
:103A7E007824E660247826760A7828E6062437F538
:103A8E0082E43402F583E0F5F5E62437F582E4347A
:103A9E0002F583E070037824F6D000D0D0D082D027
:043AAE0083D0E032AF
:03004B0002385028
:10385000C0E0C0F0C083C082C0D075D000C000C03E
:0538600004C006C007D2
:10386500AFE553E1DF900000E0FCA3E02468F582BA
:1038750074003CF583EFF0900000E475F001122A26
:103885009BFEC3E5F0942CEE94014007900000E404
:03389500F0A3F0AD
:10389800D007D006D004D000D0D0D082D083D0F0CA
:0338A800D0E0323B
:03005300023AB2BC
:103AB200C0E0C083C082C0D075D000C00053E17F97
:103AC2007834E660247837760A7839E6062494F565
:103AD20082E43401F583E0F5E5E62494F582E434EA
:103AE20001F583E070037834F6D000D0D0D082D0D4
:043AF20083D0E0326B
:03006B00023BB0A5
:103BB000C0E0C0F0C083C082C0D075D000C000C0DB
:103BC00001C002C003C004C005C006C0071237F31D
:103BD000D007D006D005D004D003D002D001D00049
:0B3BE000D0D0D082D083D0F0D0E032F3
:03008300023AF648
:103AF600C0E0C0F0C083C082C0D075D000C000C096
:103B060001C002C003C004C005C006C007123225AA
:103B16001232F6D007D006D005D004D003D002D09A
:0E3B260001D000D0D0D082D083D0F0D0E032D9
:0300A3000239E23D
:1039E200C0E0C0D075D000C000C007B20230022DC6
:1039F200780E06E6D3943B40247600780A06E6D396
:103A0200943B40197600780F06E6D39417400E7661
:103A120000780BE625E0FFF6BF80027601D007D0E2
:063A220000D0D0D0E0321C
:083EDC00AF9FEFFEAD9EEDFF6C
:013EE40022BB
:073EFD00759C80759D0722F2
:0F3E8100EF540FFFE59C54F04FF59C439C4022FB
:083EE500E4F59AF599F59B2222
:0D3E9E0075B28875B45D43AA0243B20122DB
:103E3500901000748AF0A3744AF043AA1090100001
:053E4500E04401F02241
:103E5E0075DA0275D90643DAECE4F5DB75E30C434B
:033E6E00A918226E
:103DEF0020181275EA0275E90643EAECE4F5EB7563
:083DFF00F34D43A818D218226D
:103E4A0030180EE4F5EAF5E9F5EAF5EBF5F353A8CF
:043E5A00E7C2182281
:0D3EAB0075968875890175898143AB0422E5
:103E070090103874A8F075C80A758B09E58B30E7F0
:083E1700FB758A0143C8052276
:1038AB0075A17FE4F5ACF591F5DEF58075B19875F2
:1038BB00AD20F592F5DFF58875B9FFF5AEF593F50B
:1038CB009075C1FEF5AFF59875C9FEF5A3F594F5A6
:1038DB00A075D1FFF595F5B075D320F5D2F5D5755B
:1038EB00D403F5D775D603F5EE75EF0A75FF2D22C8
:103DB90024242454696D652073796E630D0A0024E7
:0D3DC9002424416C61726D2075700D0A009C
:1037F300D2057813E6FF7002D208EFB40102D209B2
:10380300EFB40202D20AEFB40302D20BEFB4040204
:10381300D20CEFB40502D20DEF640670247837168C
:10382300E670037834F6783616E670037835F67862
:103833002616E670037824F6782516E670037827B3
:0D384300F6781306E6C3940A4002E4F6226C
:10276700780EE6FF781466700302292AA6079002FE
:102777005FE0601990024FE004F0D3940A400EE442
:10278700F0900259E0FF7812E69F5001069002652B
:10279700E0B40121900263E004F0E0C3940A40151D
:1027A700E4F0783A76037BFF7A3D79B912394A909B
:1027B70002657402F0780AE6FF7810667003022952
:1027C7002AA607780CE6601F16E6701B123CBBE4CE
:1027D70090025EF0783A7603900260E070047F0121
:1027E70080027F00122AED90025FE0601F14F070F4
:1027F7001B123CBBE490025EF0783A7605900260CB
:10280700E070047F0180027F00122AED900251E000
:10281700640160030228DC900253E0780F666003CE
:102827000228DCA3E0780A6660030228DC900252E3
:10283700E0FF08E6FEEF5E70030228DCEF20E70604
:10284700EEF4FEEF5EF078127601C201E490024FDB
:10285700F090025E04F09002607403F0900255E07D
:1028670090026DF0900256E090026AF0900257E0F5
:10287700900268F0900258E0900287F090025AE0C8
:1028870024FF9217201703C38001D3920120170456
:102897007F1880027F177830A60790025BE09002CE
:1028A70069F090025CE0900277F090025DE09002A0
:1028B7005FF0780CF6900250F0900260E070047FB1
:1028C7000180027F00122AED783A76037BFF7A3D7A
:1028D70079C812394A900265E0B4021B900263E09E
:1028E70004F0E0C39402400FE4F0783A76037BFFEC
:1028F7007A3D79B912394A780FE6FF78086660237E
:10290700A607900262E004F0E0C394184015E4F0D3
:102917009002657402F0783A76037BFF7A3D79B9C5
:0329270012394A18
:01292A00228A
:102F850030073D900261E004F0C3940C400FE4F07B
:102F9500900264E004F0D394184002C207900264E2
:102FA500E0FF30E00543801080035380EFEF30E011
:102FB5000543802080035380DFEF30E05102305C11
:102FC500300325900261E004F0C394324012E4F02E
:102FD500900264E004F0D394064005C20312000099
:102FE500438010438020806F300025900261E0040B
:102FF500F0C3940C400FE4F0900264E004F0D39425
:10300500104002C200900264E030E0028049805125
:10301500900260E0D394015018900269E070125359
:1030250080EF5380DF5380BFE4780CF6900250F0B8
:1030350022900250E0FFB40F084380105380DF80D8
:1030450020EFB41E085380EF4380208014EFB43C7A
:103055000A5380EF5380DF438040225380EF538033
:05306500DF5380BF22D3
:103D4100781276029002777401F0900260F0D2014D
:103D51005390EF783A7603E070047F0180027F0090
:0A3D6100122AED9002657401F022B1
:103B3400123D41123454300502C205300808C2084F
:103B4400123F0412217D300905C20912314B300A9B
:103B540005C20A1223D4300B05C20B1225A0300C67
:0E3B6400D2C20C122F85123C2212276780C598
:102E910020202020200D0A0041542B4D540D0A0002
:102EA10041542B4D410D0A0041542B4D450D0A0053
:102EB10041542B4D440D0A0041542B43410D0A004E
:102EC10041542B43420D0A0041542B43430D0A0048
:102ED10041542B43500D0A0041542B43440D0A0029
:102EE10041542B435A0D0A0041542B48300D0A001E
:102EF10041542B48310D0A0041542B48320D0A0030
:102F010041542B48330D0A0041542B48340D0A001B
:102F110041542B48350D0A0041542B48360D0A0007
:102F210041542B48370D0A0041542B48380D0A00F3
:102F310041542B48390D0A0041542B48410D0A00D8
:102F410041542B48420D0A0041542B48430D0A00BD
:102F510041542B48440D0A0041542B48450D0A00A9
:102F610041542B48460D0A00000102030607090AD5
:102F71000C0E0F00010203040404050606070708EE
:042F810008090A0A27
:103A28007824E670FB7F08900237E4F0A3DFFCE41B
:103A3800FF122A21FE601674372FF582E43402F54E
:103A480083EEF0740129F9E43AFA0F80E4E4782867
:103A5800F6782476017828E6062437F582E43402DD
:053A6800F583E0F5F517
:013A6D002236
:103D1600EFC3940B500CEF75F008A42491F9742EA0
:103D260080107812E6902F699375F008A424E9F9BB
:0A3D3600742E35F0FA7BFF123A28D4
:013D40002260
:102D9500201006201103022E90301012C21090024E
:102DA5001A7401F0A37402F0A3743FF08010C211ED
:102DB50090021A7401F0A37402F0A37447F0900214
:102DC5001AE0FBA3E0FAA3E0F9122A21FFB4491F98
:102DD500900001122A3AFEB44902D213EEB4410220
:102DE500C213EE64586003022E75C213022E75EFEE
:102DF500B44D1C900001122A3AFFB44102C214EFEF
:102E05006442706CD2147812E6F47829F680611267
:102E15002A21FFB44F12900001122A3A64467050DD
:102E2500900260E064028048EF644870439002605D
:052E3500E06402703BA7
:102E3A00900001122A3AFFD3648094B94005EF2426
:102E4A00C9801390021AE0FBA3E0FAA3E0F990000C
:102E5A0001122A3A24D07812F67812E6D3940F4057
:0B2E6A0002760F7812E6902F7493F6AA
:102E7500E4FF90021AE0FBA3E0FAA3E0F98F827564
:0B2E85008300E4122A790FEFB408E785
:012E9000221F
:10314B00122D95900260E0640260030231DE200FC5
:10315B0013782BF6C213C2147812E6F47829F6E42E
:10316B00900236F0D20F900236E014601D14601CF2
:10317B0014601E14601D240470215390EF439002C1
:10318B00E58830E603023224800780055390BF8028
:10319B00688066439040123DEF80627812E6FF78BC
:1031AB0029666009A6077F0B123D16800D782AE66B
:1031BB00FF6007123D16E4782AF6E58830E21078B6
:1031CB002BE6D39405400443901022782B06225310
:1031DB0090EF22300F08E4782BF6900236F0C20FF6
:1031EB00900236E014601214601114601014601415
:1031FB00240470255390EF800480028000900236E7
:10320B00E004F022900236E004F0900260E0D394E8
:0A321B000150065390BF123E4A22F4
:10372400242424415457510D0A002424244661635F
:10373400746F72792073657474696E670D0A00245E
:103744002424576966692072657365740D0A002420
:103754002424456E74657220546573744D6F6465DA
:103764003A302E32370D0A00000004C00601086703
:103774000A900BE50D560E000050056006A10907DE
:083784000B300C850DF60E0060
:1033A800E490021AF0123EDC90027AEEF0A3EFF0FD
:1033B800C394A0EE940F504AE4FFEF25E0246CF587
:1033C80082E43437F583E493FC740193FD90027A28
:1033D800E0FAA3E0FBC39DEA9C4022EF25E0247CB1
:1033E800F582E43437F583E493FC740193FDD3EB61
:1033F8009DEA9C5008EF0490021AF080050FEFB484
:1034080008B87F05123E8190021AE0FFB4040AE56D
:103418008820E5057408F0802DEFB4010DE58820BB
:10342800E50890021A7409F0801CEFB4020DE588D3
:1034380020E50890021A740AF0800BE58820E5065A
:0B34480090021A7403F090021AE0FFDB
:013453002256
:102C9300E4900278F0900281E0FE6F600EA3E06F93
:102CA3006003EFF022900281EFF022900280E0FFB8
:102CB3006E6003022D40EF7003022D9490027CE0BE
:102CC3007003022D9490027CE014F06003022D94B3
:102CD300900280E090027EF0900279E0700590020D
:102CE3007804F090027FE014602114603214602FA6
:102CF30024036003022D9490027F7401F090027EFE
:102D0300E04420F090027C7432F02290027F74023F
:102D1300F090027EE04460F090027C7414F0229004
:102D2300027F7403F090027EE04480F090027C7492
:102D330014F0A3E0C394FA5058E004F02290028008
:102D4300E0603790027EF0900279E070059002789F
:102D530004F090027FE024FE601014600F240270E0
:102D63001290027EE04440F08009800090027EE0F1
:102D730044C0F0E490027FF08009E4900279F0907F
:102D8300027DF090027C7405F0900281E090028055
:022D9300F0222C
:063F04001233A8022C9309
:10217D00900278E070030223D390025EE06016E4D3
:10218D00F090027904F0783A7605123CBBE49002A7
:10219D005FF00222EA90027EE0122AC721E041227E
:1021AD001442227B4322924422AA4522F246235214
:1021BD0047225F6223386623606721FC81227B837F
:1021CD00229284236D8823968923B48A21E0C1004D
:1021DD000023D390027DE0C3941940030223D378EA
:1021ED003A7605900260E06003023CBB023998909C
:1021FD00027DE0641960030223D3783A76057BFFF4
:10220D007A3779240223D0900260E0FF64016004E4
:10221D00EFB40216C201C2179002607403F090026F
:10222D0087E060030223D304F022900260E0640390
:10223D0060030223D3C201301704C2178026C217D0
:10224D00900287E004F0D3940650030223D3740167
:10225D00F022900260E0640360030223D3B21720E2
:10226D001707C2017830761822783076172290023F
:10227D0060E0D3940150030223D37812E6940A5000
:10228D000106C20122900260E0D3940150030223A3
:10229D00D37812E6D39401400116C2012290026058
:1022AD00E0D394015009900269E070030223D390AA
:1022BD000250E0FF7008780C760F740FF022EFB427
:1022CD000F0B780C761E900250741EF022EFB41E88
:1022DD000B780C763C900250743CF022E4780CF6AE
:1022ED00900250F022900260E070030223D390021E
:1022FD0069E0B40A028015900277E0700404F08062
:10230D000E900269E004F0D3940940037401F0903B
:10231D000269E0640960030223D3900270F0900219
:10232D006EF090026CF090026BF022900269E070FA
:10233D00030223D3900277E004F0D39403500302F9
:10234D0023D3E4F022900260E0607B640260777436
:10235D0002F022900260E06402706B782A7605220A
:10236D0090027DE06432705E900261F0900264F044
:10237D00D20390026004F0783A76057BFF7A3779C4
:10238D002E12394A7F0A023D1690027DE0643270AA
:10239D0035D207900261F0900264F0783A76057BB1
:1023AD00FF7A377943801C90027DE0B41918D20072
:1023BD00E4900261F0900264F0783A76037BFF7A44
:0723CD0037795312394A224F
:10322500900276E014F070035398F7900275E0145D
:10323500F070035398EF900274E014F07003539804
:10324500DF900271E014F060030232F5900277E03E
:10325500FF700A900276F0900275F0805AEFB40183
:103265002290026EE01313543F900276F090026CA8
:10327500E01313543F900275F090026BE013135462
:103285003F8034900277E090026EB40219E0C313D8
:10329500900276F090026CE0C313900275F09002F4
:1032A5006BE0C3138011E0900276F090026CE09021
:1032B5000275F090026BE0900274F0900260E0B449
:1032C500020AE58830E10543881080035388EF90B2
:1032D5000276E06003439808900275E06003439826
:1032E50010900274E060034398209002667401F028
:0132F50022B6
:103E710090026EEFF090026CEDF090026BEBF0228D
:101EAF0090026FE004F0C39404500302217CE4908D
:101EBF00026FF0A3E0FF705A90026EE0C394FF50E0
:101ECF0003E004F090026CE0D394004003E014F0C0
:101EDF0090026BE0D394004003E014F090026EE0A8
:101EEF00F4600302217C90026CE0600302217C907D
:101EFF00026BE0600302217C90027275F001122ADE
:101F0F009BFCD3E5F0941EEC9400500302217C025D
:101F1F002116EF6401707490026EE0C394FF5003BA
:101F2F00E004F090026EE0D394FF4003E014F090D1
:101F3F00026CE0C394805003E004F090026CE0D395
:101F4F0094804003E014F090026BE0D394004003C0
:101F5F00E014F090026EE0F4600302217C90026CBA
:101F6F00E06480600302217C90026BE06003022139
:101F7F007C90027275F001122A9BFED3E5F0941E3D
:101F8F00EE9400500302217C022116900270E0FFB4
:101F9F006402705B90026EE0C394FF5003E004F0A4
:101FAF0090026CE0C394FF5003E004F090026BE0EA
:101FBF00D394004003E014F090026EE0F46003024B
:101FCF00217C90026CE0F4600302217C90026BE0B4
:101FDF00600302217C90027275F001122A9BFCD3E0
:101FEF00E5F0941EEC9400500302217C022116EFC1
:101FFF006403705A90026EE0D394004003E014F033
:10200F0090026CE0C394FF5003E004F090026BE089
:10201F00D394004003E014F090026EE060030221BD
:10202F007C90026CE0F4600302217C90026BE06014
:10203F000302217C90027275F001122A9BFED3E5F8
:10204F00F0941EEE9400500302217C0221169002A0
:10205F0070E0FF6404705990026EE0D39400400367
:10206F00E014F090026CE0D394004003E014F09081
:10207F00026BE0C394FF5003E004F090026EE06047
:10208F000302217C90026CE0600302217C90026BC2
:10209F00E0F4600302217C90027275F001122A9B1A
:1020AF00FCD3E5F0941EEC9400500302217C805782
:1020BF00EF6405706090026EE0D394004003E0146B
:1020CF00F090026CE0C394FF5003E004F090026BB9
:1020DF00E0C394FF5003E004F090026EE06003024F
:1020EF00217C90026CE0F4600302217C90026BE093
:1020FF00F4707A90027275F001122A9BFED3E5F00C
:10210F00941EEE94004066E4900272F0A3F09002E9
:10211F0070E004F02290026EE0C394FF5003E004DD
:10212F00F090026CE0D394004003E014F090026B47
:10213F00E0C394FF5003E004F090026EE0B4FF2D73
:10214F0090026CE0702790026BE0B4FF2090027257
:10215F00E475F001122A9BFED3E5F09432EE940061
:0E216F00400BE4900272F0A3F0900270F02298
:1025A000900266E07003022766E4900266F09002F3
:1025B00069E0FFB4091B7811666016E0F6E490024A
:1025C00070F090026E747FF0E490026CF090026BF9
:1025D000F0900260E06007900269E0FE7004E4FBA6
:1025E0008051EEB401047BFF8021900269E0FEB4CB
:1025F0000205E4FBFD8016EEB40306E4FB7D80805B
:102600000C900269E0FEB40408E4FB7DFF7FFF80CC
:1026100034EEB40507E4FB7DFFFF8029900269E0FA
:10262000FEB406087BFF7DFFE4FF8019EEB40707C8
:102630007BFFE4FDFF800E900269E0FEB4080C7B96
:10264000FFE4FD7F80123E7102273CEE640A6003C6
:1026500002273290026DE0FFA3F090026AE0FE9044
:10266000026CF0900268E0FD90026BF0EFB4FF1195
:10267000EEB4FF0DEDB4FF099002697401F002277A
:102680003C90026DE0B4FF1390026AE0700D90027E
:1026900068E07007A37402F002273C90026DE0FF2F
:1026A000B4FF1490026AE0B4800D900268E07007F5
:1026B000A37403F002273CEFB4FF1390026AE0B466
:1026C000FF0C900268E07006A37404F0806E900224
:1026D0006DE0701390026AE0B4FF0C900268E07045
:1026E00006A37405F0805590026DE0FF701490020F
:1026F0006AE0B4FF0D900268E0B4FF06A37406F030
:10270000803AEF701390026AE0700D900268E0B4B6
:10271000FF06A37407F0802490026DE0B4801D9042
:10272000026AE07017900268E0B4FF10A37408F02A
:10273000800A900269E0B40903121EAF900269E0BA
:10274000FF701AEFB40A1690026EE090026DF090DE
:10275000026CE090026AF0A3E0900268F0900269D7
:07276000E060037811F6228E
:0B3ED100000102030507090A0C0E0F98
:0E3E9000EF903ED193FFC374169FFF023DD604
:103DD600201515D215EF14782DF6E4782FF67832E3
:093DE600F653887F782C76C82280
:1032F6002015030233A7783206E6C3782C965003CE
:103306000233A7E47832F6782FE6B41300400302BE
:10331600339F90331FF82828730233580233610213
:10332600336A02337E02336A02337E02336A023321
:103336007E02336A02337E02336A02337E02336AC6
:1033460002337E02336A02337E02336A02337E021E
:103356003399438880782C76A0804353887F782CD5
:103366007614803A438880782DE630E70518761E75
:10337600802C782C760A802653887F782DE6FF30BD
:10338600E70518760A8004782C761EEF25E0782D5E
:10339600F6800B782C76C8800553887FC215782F67
:0233A6000622FD
:1023D400900260E06403600302253F201615783103
:1023E400F6900287E0F47833F67812E6F4782EF665
:1023F400E4A3F0D216900288E01460281460381424
:10240400604A240370495390EF783106E6D3941957
:10241400500302259F5390FD439040123DEFE47812
:102424003102256C439802783106E6D39432500386
:1024340002259FE402256C783106E6D394C8500344
:1024440002259F900288E004F0E4F62202257D78BC
:1024540030E6FF603930150302259FB417097BFF6E
:102464007A1D791512394A7830E6B4181590028726
:10247400E075F018A42415F9741D35F0FA7BFF12E9
:10248400394A7830E6FF123DD6E47830F6229002DD
:1024940087E0783366604830150302259FE0FFF635
:1024A400EF6003B4170ED217783376177BFF7A1DCB
:1024B40079158019900287E0FFD394065012EF75C6
:1024C400F018A42415F9741D35F0FA7BFF12394A6B
:1024D4007833E6FF123DD6900287E07833F622790E
:1024E40012E7782E66601030150302259F7812E6F5
:1024F400FF782EF6023E90A201300401B3502978F1
:102504003AE67024A20192043001087BFF7A1D7917
:10251400158012900287E075F018A42415F9741D33
:1025240035F0FA7BFF02394A20170820010578129A
:10253400E670045390EF2243901022301605E49085
:102544000288F0C216900288E014601214601C1411
:10255400602E240370452013035390EF801B7831C1
:1025640006E6D394144034E4F6800E783AE6702BF1
:102574007BFF7A1D791512394A900288E004F02213
:10258400201318900288E004F05398FD900260E054
:0C259400D3940150065390BF123E4A221F
:103E1F00757064617465206661696C0075706461AA
:063E2F007465206F6B00BA
:0C3EC50053E13F8FE5E5E154C060FA22B4
:103B720090022DEBF0A3EAF0A3E9F0801690022D5B
:103B8200E0FBA3E0FAA3E0F9122A216020E5E15468
:103B9200C060EA53E13F90022DE0FBA3E475F0011F
:0E3BA200122AB1A9F0FA122A21F5E580D022EC
:1016DB0053ABFB53A8E753A9E753AAEFE47817F6EC
:1016EB00781AF608F67815F608F6900226F0A3F0AD
:1016FB00A3F09002897400F0A37468F0E4900222C6
:10170B00F0A3F0900222E0FEA3E0FFC3942CEE9432
:10171B00015020900289E0FCA3E02FF582EC3EF50E
:10172B0083E4F0900223E004F070D8900222E004EE
:10173B00F080D07F43123EC57817E6B40800400313
:10174B00021B42901755F828287302176D0217F2E7
:10175B0002188F0219150219A6021A08021A47025B
:10176B001AF4E5E130E534900289E0FEA3E0F5825E
:10177B008E83C083C082781A0806E618860670012D
:10178B000614D082D0832582F582E5833EF583E56E
:10179B00E5F0E4900226F0A3F0A3F0900289E0FEBE
:1017AB00A3E0F5828E83E0B46E25781DE6184660C3
:1017BB000E7BFF7A3E791F123B72E47817F6227B81
:1017CB00FF7A3E792B123B7278177606021B46780E
:1017DB001BE66407700418E664016003021B46787D
:1017EB001AF608F6021AEFE4781AF608F690028950
:1017FB00E0FEA3E0F5828E83E0F9A3E0FE90028980
:10180B00E0FCA3E0F5828C83A3A3E0FDAC06900281
:10181B0089E0FAA3E0FBF5828A83A3A3A3E0FEEBA6
:10182B002404F582E43AF583E0FBEBFFE9B4020E06
:10183B00EFF4FFEEF4FEEF6D7002EE6C6003021935
:10184B000D7815E6FE08E6FFC3ED9FFFEC9EFEEF5D
:10185B0064014E6004EF4E7025AE04AF057815A6FB
:10186B000608A607E6FEE42400FFEE3440FE9002D5
:10187B0029F0A3EFF0D394FFEE947F4004220219DA
:10188B000D021AEFE4900224F0A3F0FFFE90022267
:10189B00F0A3F0900222E0FCA3E0FDC3EC94015016
:1018AB0034ED2405FDE43CFC900289E0FAA3E02D25
:1018BB00F582EA3CF583E0FD900225E02DF09002E5
:1018CB0024E03400F0900223E004F070C690022272
:1018DB00E004F080BE900289E0FCA3E0FD2405F556
:1018EB0082EC3401F583E0FEED2406F582EC340145
:1018FB00F583E0FDEDFF900224E06E7003A3E06F33
:10190B0060057F15021A41021AEF900229E0FEA32F
:10191B00E0FF90028AE02405FD900289E03400FA92
:10192B00A9057B0112359590022AE02440FF900215
:10193B0029E03400FE90028AE02445FD900289E004
:10194B003400FAA9057B0112359590022AE0248018
:10195B00FF900229E03400FE90028AE02485FD907E
:10196B000289E03400FAA9057B0112359590022A11
:10197B00E024C0FF900229E03400FE90028AE024AC
:10198B00C5FD900289E03400FAA9057B011235955B
:10199B00781DE61618700116021AEFE4900222F079
:1019AB00A3F0900222E0FEA3E0FFC3EE9401504AA5
:1019BB0090022AE02FFF900229E03EFE123EF590A6
:1019CB000223E02405FD900222E03400FC90028902
:1019DB00E0FAA3E02DF582EA3CF583E06F600B7F24
:1019EB0015123EC5E47817F68010900223E004F040
:1019FB0070B0900222E004F080A8021AEFE490028B
:101A0B0022F0A3F0900222E0FEA3E0FFC3942CEEA1
:101A1B0094015020900289E0FCA3E02FF582EC3E6C
:101A2B00F583E4F0900223E004F070D8900222E0FA
:101A3B0004F080D07F96123EC5021B4290022B749D
:101A4B0001F0A3E4F09002297441F0A3E4F09002BA
:101A5B002BE0FEA3E0C394FFEE94034003021AEFC6
:101A6B00E4900222F0A3F0900222E0FEA3E0FFC379
:101A7B009440EE9400503790022AE02FFF900229F9
:101A8B00E03EFE123EF5900222E0FCA3E0FD900248
:101A9B0089E0FAA3E02DF582EA3CF583EFF09002A2
:101AAB0023E004F070C1900222E004F080B99002B0
:101ABB002BE0FEA3E0FF900289E0FCA3E0AA04F96F
:101ACB007B0112359590022AE02440F0900229E028
:101ADB003400F090022CE02440F090022BE0340014
:101AEB00F0021A597817068052E4900222F0A3F004
:101AFB00900222E0FEA3E0FFC39440EE940050213D
:101B0B00900289E0FCA3E02FF582EC3EF58374AAEA
:101B1B00F0900223E004F070D7900222E004F080F2
:101B2B00CF900289E0FEA3E0AA06F97B017F007E3D
:101B3B0004123595020000E47817F6900226E004B3
:101B4B00F06003021743A3E004F06003021743A302
:101B5B00E004F0C394025003021743120000021773
:011B6B004336
:101B6C007B54696D6553796E63005475726E206F8A
:101B7C006E20756E6974005475726E206F666620E7
:101B8C00756E6974004770537461005475726E20E1
:101B9C006F6E204254006D7573696320706C6179AF
:101BAC00006D757369632070617573650053656CA6
:101BBC0065637420536F756E642066696C65007B79
:101BCC004D757369635374617475730041646A7500
:101BDC007374204F757470757420566F6C756D65C9
:101BEC0000766F6C756D6520757000766F6C756D19
:101BFC006520646F776E006D75736963206D757405
:101C0C0065006D7573696320756E6D757465005331
:101C1C0065742054696D6572005475726E206F6620
:101C2C00662054696D6572005475726E206F6E205B
:101C3C004C6967687472005475726E206F6666200A
:101C4C004C6967687472006C696768742075700001
:101C5C006C6967687420646F776E004368616E67A7
:101C6C0065206C6967687420636F6C6F72004164E7
:101C7C006A757374204C696768742042726967686E
:101C8C00746E657373005573657220636F6C6F723D
:101C9C00007B50726F6772616D0050726F506C6197
:101CAC00790D0A007B416C61726D4F6E4F66660058
:101CBC007B416C61726D536574007B416C61477044
:101CCC00537461007B4E6F724770537461002075C2
:101CDC00706461746500415457510D0A00564552A9
:101CEC000D0A00242424564552302E32370D0A009A
:101CFC00456E74657220546573744D6F64653A005B
:101D0C000101020408102040802424247B4D7573AB
:101D1C0069635374617475733A5B30375D7D0D0A7A
:101D2C00002424247B4D757369635374617475733B
:101D3C003A5B30315D7D0D0A002424247B4D757394
:101D4C0069635374617475733A5B30325D7D0D0A4F
:101D5C00002424247B4D757369635374617475730B
:101D6C003A5B30335D7D0D0A002424247B4D757362
:101D7C0069635374617475733A5B30345D7D0D0A1D
:101D8C00002424247B4D75736963537461747573DB
:101D9C003A5B30355D7D0D0A002424247B4D757330
:101DAC0069635374617475733A5B30365D7D0D0AEB
:101DBC00002424247B47705374613A5B30302C3000
:101DCC00302C30302C30302C3030303030302C3017
:101DDC00302C30302C30302C30303B30302C3030FC
:101DEC002C30302C3030303030302C30302C3030F7
:101DFC002C30302C30302C30303A30302C30305DB0
:101E0C007D0D0A002424247B416C6147705374615E
:101E1C003A5B30302C30302C30302C30302C303091
:101E2C00303030302C30302C30302C30302C3030B6
:101E3C002C30302C30303A30302C30305D7D0D0A67
:101E4C00002424247B4E6F7247705374613A5B30CC
:101E5C00302C30302C30302C30302C303030303086
:101E6C00302C30302C30302C30302C30305D7D0D1F
:101E7C000A002424247B4E6F7247705374613A5BC2
:101E8C0030302C30302C30302C30302C3030303056
:101E9C0030302C30302C30302C30302C30305D7DCC
:031EAC000D0A001C
:10378C0090022574FFF0A3741BF07476A3F09002E2
:09379C001FE0FBA3E0FAA3E0F931
:1037A500900222EBF0A3EAF0A3E9F0900225E0FBFA
:1037B500A3E0FAA3E0F9122A21FF602F900222E08C
:1037C500FBA3E0FAA3E0F9122A21B507056003EF90
:1037D50070037F0122900223E475F001122A9B9069
:0E37E5000226E475F001122A9B80C07F0022AC
:10306A00900269EFF09001F9F090021FE0FBA3E0F3
:10307A00FAA3E0F9900016122A3AFF900017122AD2
:10308A003AFD12312090026DEFF09001FAF09002B1
:10309A001FE0FBA3E0FAA3E0F9900018122A3AFF16
:1030AA00900019122A3AFD12312090026AEFF0902C
:1030BA0001FBF090021FE0FBA3E0FAA3E0F9900005
:1030CA001A122A3AFF90001B122A3AFD1231209056
:1030DA000268EFF09001FCF090021FE0FBA3E0FA17
:1030EA00A3E0F990001D122A3AFF90001E122A3A14
:1030FA00FD123C8F900277EFF09001FDF090021FD5
:10310A00E0FBA3E0FAA3E0F9900020122A3A90002B
:06311A0021FF122A3AFD1C
:10312000C3EF648094C14006EF24C9FF800474D0CB
:103130002FFFC3ED648094C14006ED24C9FD8004D7
:0B31400074D02DFDEFC454F04DFF22B1
:053C8A00FF122A3AFDC3
:103C8F00C3EF648094C14006EF24C9FF800474D051
:103C9F002FFFC3ED648094C14006ED24C9FD80045D
:0C3CAF0074D02DFDEF75F00AA42DFF224B
:1036290012368990021BE0FBA3E0FAA3E0241AF901
:10363900E43AFA90026DE0FD12368990021BE0FB34
:10364900A3E0FAA3E0241CF9E43AFA90026AE0FD47
:1036590012368990021BE0FBA3E0FAA3E0241EF9CD
:10366900E43AFA900268E0FD12368990021BE0FB09
:10367900A3E0FAA3E09002772421F9E43AFAE0FD05
:10368900EDC4540FFFC3940AEF4004243780022489
:1036990030122A67740129F9E43AFAED540FFFC38D
:0E36A900940AEF4004243780022430122A676E
:0136B70022F0
:103998009002607401F0780DE6B403047F0380029E
:1039A8007F01900260EFF07809E67812F67811E668
:1039B800900269F0900277E0FF70067E017F018037
:1039C80000900277EFF0900260E070047F018002BF
:0A39D8007F00122AED783A760322F0
:103C58009002607401F07809E67812F6900277E035
:103C6800FF70067E017F018000900277EFF09002DE
:103C780060E070047F0180027F00122AED783A76B6
:023C8800032215
:103CBB00900260E0780DF6E4F07812E67809F69061
:103CCB000269E07811F6E4F0780CF6900250F0708F
:0F3CDB00047F0180027F00122AED783A760322DF
:103CEA00E490025EF0900279F0123CBB783A7605D5
:103CFA00900260E070047F0180027F00122AEDE4E6
:0C3D0A0090025FF0780CF6900250F0225E
:052AED00900222EFF051
:102AF2007834E670FBE47838F67F64900194E4F071
:102B0200A3DFFCE4FFEFFD3395E0FC74BD2DF582FD
:102B1200741D3CF583E493FE74942DF58274013C9C
:102B2200F583EEF00FEFB452DC7B017A01799F90CE
:102B32000222E0FD1236897A0179A2900260E0B4A5
:102B42000308900287E0FFFD80027D071236897B31
:102B5200017A0179A5900269E07003FD80027D018E
:102B62001236897B017A0179A8900269E0B40904DE
:102B72007D0180027D001236897B017A0179AB905A
:102B8200026DE0FD1236897A0179AD90026AE0FDAC
:102B92001236897A0179AF900268E0FD1236897A9D
:102BA2000179B2900277E0FD1236897A0179B5781F
:102BB20012E6FD1236897A0179B8A217E433FD12C2
:102BC20036897A0179BB780CE6FD1236897A017969
:102BD200BEE4FD1236897A0179C1900258E0FD12F5
:102BE20036897A0179C4900267E0B409047D0180D4
:102BF200027D001236897B017A0179C7900255E085
:102C0200FD1236897A0179C9900256E0FD123689A1
:102C12007A0179CB900257E0FD1236897A0179CE9A
:102C220090025CE0FD1236897A0179D1900259E076
:102C3200FD1236897A0179D4900251E0FD1236896B
:102C42007A0179D7900252E0FD1236897A0179DA57
:102C5200900253E0FD1236897A0179DD900254E048
:102C6200FD1236897A0179E090025DE0FD12368923
:102C7200783A7602E47839F6783476017837760A4B
:102C82007839E6062494F582E43401F583E0F5E52B
:012C9200221F
:0B05260090021BEBF0A3EAF0A3E9F049
:100531002403F9E43AFA90021FEBF0A3EAF0A3E9ED
:10054100F0900260E0700302121090022574FFF037
:10055100A3741BF0746C123798EF707590021FE052
:10056100FBA3E0FAA3E0F990000B122A3A90000CE9
:1005710012311B780FA60790021FE0FBA3E0FAA33C
:10058100E0F990000E122A3AFF90000F12311C7808
:100591000AA60790021FE0FBA3E0FAA3E0F990008E
:1005A10011122A3AFF90001212311C780EA6079000
:1005B100021FE0FBA3E0FAA3E0F990001E122A3A21
:1005C10024D0780BF6E6901D0C93F6E4900265F0CA
:1005D1002212378CEF700C900260E06003020980F8
:1005E10002122D90022574FFF0A3741BF0A37483F3
:1005F100123799EF701E90021BE0FBA3E0FAA3E013
:10060100F912394A90025EE06003020960783A7695
:1006110003023CBB90022574FFF0A3741BF0A3748A
:1006210091123799EF700302157E90022574FFF045
:10063100A3741BF0A37497123799EF7009900260AD
:100641007402F002098090022574FFF0A3741BF07C
:10065100A374A2123799EF70179002607403F0C26D
:1006610001C217F0900287E0700304F0220213F038
:1006710090022574FFF0A3741BF0A374AD12379997
:10068100EF7012900260E0640360030216DAD21781
:10069100783076172290022574FFF0A3741BF0A323
:1006A10074B9123799EF704090025EE0600BE4F08C
:1006B100A3F0780CF6900250F0C201C217900260CC
:1006C1007403F090021FE0FBA3E0FAA3E0F99000AD
:1006D1001A122A3A24D0FF900287F07833E6B50740
:1006E10004783076180213A090022574FFF0A374E9
:1006F1001BF0A374CB123799EF700122900225747D
:10070100FFF0A3741BF0A374D8123799EF702390F4
:10071100025EE0600302096090021FE0FBA3E0FAC1
:10072100A3E0F9900014122A3A900015123C8A02B3
:1007310007A990022574FFF0A3741BF0A374ED12B6
:100741003799EF702990025EE06003020960781228
:10075100E6FFC3940A5013EF94085007E62402FF02
:10076100F68009781206E6FF80027F0A803A90023D
:100771002574FFF0A3741BF0A374F7123799EF707F
:100781003090025EE060030209607812E6FFD394C4
:10079100014013EF94034007E624FEFFF680097839
:1007A1001216E6FF80027F017812A607C201020934
:1007B1008090022574FFF0A3741CF0A37403123718
:1007C10099EF7003D2012290022574FFF0A3741CEB
:1007D100F0A3740E123799EF7003C2012290022523
:1007E10074FFF0A3741CF0A3741B123799EF7025EA
:1007F10090025EE0600302096090021FE0FBA3E04B
:10080100FAA3E0F990000A122A3A90000B123C8AEE
:10081100780CEF801F90022574FFF0A3741CF0A3E5
:100821007425123799EF701490025EE0600302099B
:1008310060E4780CF6900250F00209809002257471
:10084100FFF0A3741CF0A37434123799EF702D904C
:10085100025EE0600BE4F0A3F0780CF6900250F039
:100861007811E6900269F0700204F0900277E0FFDF
:1008710070077E017F0102097B02097B90022574CA
:10088100FFF0A3741CF0A37443123799EF70119019
:10089100025EE06003020960E4900269F0020980EF
:1008A10090022574FFF0A3741CF0A37453123799BE
:1008B100EF701B90025EE06003020960900277E036
:1008C100C394034003020980E004F002098090020E
:1008D1002574FFF0A3741CF0A3745C123799EF70B8
:1008E1001B90025EE06003020960900277E0D394FE
:1008F100005003020980E014F0020980900225747F
:10090100FFF0A3741CF0A37467123799EF7037904E
:10091100025EE0600BE4F0A3F0780CF6900250F078
:100921009002697409F0E4900270F090026EF09008
:10093100026CF090026BF0900277E0FF70067E018E
:100941007F018000803490022574FFF0A3741CF0B5
:10095100A3747A123799EF702690025EE060030269
:100961003CEA90021FE0FBA3E0FAA3E0F990001833
:10097100122A3AFF900019123C8B900277EFF09007
:10098100022574FFF0A3741CF0A37492123799EF3F
:100991006003020A1990025EE0600BE4F0A3F078B4
:1009A1000CF6900250F090021FE0FBA3E0FAA3E0E6
:1009B100F990000B122A3AFF90000C12311C9002A0
:1009C1006DEFF090021FE0FBA3E0FAA3E0F99000C5
:1009D1000D122A3AFF90000E12311C90026AEFF0BC
:1009E10090021FE0FBA3E0FAA3E0F990000F122AA6
:1009F1003AFF90001012311C900268EFF0900269EA
:100A0100740AF0900277E0FF70067E017F0180009A
:100A1100900277EFF00216CC90022574FFF0A374D8
:100A21001CF0A3749D123799EF6003020B0390022F
:100A31005EE0600BE4F0A3F0780CF6900250F01247
:100A41003D9390021FE0FBA3E0FAA3E0F990000EB2
:100A5100122A3A24D0900287F09001F8F090001108
:100A6100122A3AFFB431047E0180027E00900269AD
:100A7100EEF09001F9F0EFB4311C90021FE0FBA3FE
:100A8100E0FAA3E0F9900014122A3AB431047F0984
:100A910080067F0A80027F0012306A7812EFF6909A
:100AA10001FEF09002607403F09001FFF090021FCC
:100AB100E0FBA3E0FAA3E0F9900024122A3A24D043
:100AC10024FF9217E433900200F0201703C3800142
:100AD100D39201E433900201F02017047F188002C1
:100AE1007F177830A607900026122A3AFF90002738
:100AF10012311C780CEFF6900250F0900202F002D5
:100B010016CC90022574FFF0A3741CF0A374A612F6
:100B11003799EF6003020B9690025EE0600BE4F000
:100B2100A3F0780CF6900250F09001F8E090028763
:100B3100F09001F9E0900269F09001FAE090026D05
:100B4100F09001FBE090026AF09001FCE0900268F5
:100B5100F09001FDE0900277F09001FEE07812F64E
:100B6100A3E0900260F0900200E024FF92172017AA
:100B710003C38001D39201E433900201F0201704F2
:100B81007F1880027F177830A607900202E090025A
:100B910050F00216CC90022574FFF0A3741CF0A350
:100BA10074B0123799EF707190021FE0FBA3E0FA65
:100BB100A3E0F9900011122A3A24D0900251F0904A
:100BC1000013122A3AFF90001412311C780FA60765
:100BD10090021FE0FBA3E0FAA3E0F9900016122AAD
:100BE1003AFF90001712311C780AA60790021FE005
:100BF100FBA3E0FAA3E0F9900019122A3AFF900052
:100C01001A12311C780EA60790021FE0FBA3E0FA2E
:100C1100A3E0F9900026020DE590022574FFF0A3F0
:100C2100741CF0A374BC123799EF6003020DF690A7
:100C3100021FE0FBA3E0FAA3E0F990000F122A3AA9
:100C410024D0900258F0C394074002E4F0900012BF
:100C5100122A3AFF24D090025BF0EFB431119000D8
:100C610015122A3AB431047F0980067F0A80027F77
:100C71000090025BEFF090021FE0FBA3E0FAA3E01B
:100C8100F9900017122A3AFF90001812311C9002B5
:100C910055EFF090021FE0FBA3E0FAA3E0F990000A
:100CA10019122A3AFF90001A12311C900256EFF0E5
:100CB10090021FE0FBA3E0FAA3E0F990001B122AC7
:100CC1003AFF90001C12311C900257EFF090021F66
:100CD100E0FBA3E0FAA3E0F990001F122A3A24D026
:100CE10090025CF0900021122A3AFF90002212310A
:100CF1001C900259EFF090021FE0FBA3E0FAA3E081
:100D0100F9900025122A3A24D090025AF090002836
:100D1100122A3A24D0900251F090002A122A3AFF66
:100D210090002B12311C900252EFF090021FE0FB59
:100D3100A3E0FAA3E0F990002D122A3AFF90002EC9
:100D410012311C900253EFF090021FE0FBA3E0FA76
:100D5100A3E0F9900030122A3AFF90003112311CC1
:100D6100900254EFF090021FE0FBA3E0FAA3E0F938
:100D7100900033122A3AFF90003412311C90025D28
:100D8100EFF090021FE0FBA3E0FAA3E0F990003638
:100D9100122A3AFF90003712311C780FA6079002F1
:100DA1001FE0FBA3E0FAA3E0F9900039122A3AFF11
:100DB10090003A12311C780AA60790021FE0FBA3AB
:100DC100E0FAA3E0F990003C122A3AFF90003D12AC
:100DD100311C780EA60790021FE0FBA3E0FAA3E006
:100DE100F9900049122A3A24D0780BF6E6901D0CAE
:100DF10093F60216CC90022574FFF0A3741CF0A3A5
:0B0E010074C6123799EF6003020FD493
:100E0C0090021EF090021EE0FFC39464501C9002EE
:100E1C001BE0FBA3E0FAA3E0F98F82758300E412D8
:100E2C002A7990021EE004F080DAE490021EF09021
:100E3C00021EE0FF901E1093FE90021BE0FBA3E04D
:100E4C00FAA3E0F98F82758300EE122A7990021EC4
:100E5C00E004F0E0B43ED890021BE0FBA3E0FAA360
:100E6C00E0240EF9E43AFAE4FD12368990021BE014
:100E7C00FBA3E0FAA3E02411F9E43AFA900258E05B
:100E8C00FF6003FD80027D0712368990021BE0FB98
:100E9C00A3E0FAA3E02414F9E43AFA90025BE070C0
:100EAC0003FD80027D0112368990021BE0FBA3E05A
:100EBC00FAA3E02417F9E43AFA90025BE0B40904CF
:100ECC007D0180027D0012368990021BE0FBA3E0BD
:100EDC00FAA3E0241AF9E43AFA900255E0FD12362E
:100EEC008990021BE0FBA3E0FAA3E0241CF9E43A8E
:100EFC00FA900256E0FD12368990021BE0FBA3E04B
:100F0C00FAA3E0241EF9E43AFA900257E0FD1236F7
:100F1C008990021BE0FBA3E0FAA3E090025C12367E
:100F2C008190021BE0FBA3E0FAA3E02424F9E43A4D
:100F3C00FA900259E0FD12368990021BE0FBA3E007
:100F4C00FAA3E02427F9E43AFA90025AE0FD1236AB
:100F5C008990021BE0FBA3E0FAA3E0242AF9E43A0F
:100F6C00FA900251E0FD12368990021BE0FBA3E0DF
:100F7C00FAA3E0242DF9E43AFA900252E0FD12367D
:100F8C008990021BE0FBA3E0FAA3E02430F9E43AD9
:100F9C00FA900253E0FD12368990021BE0FBA3E0AD
:100FAC00FAA3E02433F9E43AFA900254E0FD123645
:100FBC008990021BE0FBA3E0FAA3E02436F9E43AA3
:050FCC00FA90025DE057
:100FD1000210FA90022574FFF0A3741CF0A374D0E0
:090FE100123799EF6003021105BB
:100FEA0090021EF090021EE0FFC39464501C90020F
:100FFA001BE0FBA3E0FAA3E0F98F82758300E412F9
:10100A002A7990021EE004F080DAE490021EF09041
:10101A00021EE0FF901E4D93FE90021BE0FBA3E030
:10102A00FAA3E0F98F82758300EE122A7990021EE4
:10103A00E004F0E0B430D890021BE0FBA3E0FAA38E
:10104A00E0240EF9E43AFA7D0112368990021BE097
:10105A00FBA3E0FAA3E02411F9E43AFA900260E073
:10106A00B40308900287E0FFFD80027D07123689EB
:10107A0090021BE0FBA3E0FAA3E02414F9E43AFA95
:10108A00900269E07003FD80027D011236899002A8
:10109A001BE0FBA3E0FAA3E02417F9E43AFA900272
:1010AA0069E0B409047D0080027D011236299002AC
:1010BA001BE0FBA3E0FAA3E02424F9E43AFA78124D
:1010CA00E6FD12368990021BE0FBA3E0FAA3E024B6
:1010DA0027F9E43AFAA217E433FD12368990021B83
:1010EA00E0FBA3E0FAA3E0242AF9E43AFA780CE652
:0810FA00FD123689783A7602F6
:101102000216CC90022574FFF0A3741CF0A374DACB
:10111200123799EF60030211B790021FE0FBA3E0C0
:10112200FAA3E0F990000A122A3AFF90000B12315A
:101132001CEF7F00FEC007C00690021FE0FBA3E089
:10114200FAA3E0F990000C122A3AFF90000D123136
:101152001CEFFD3395E0FCD0E04CFED0E04D78185A
:10116200A60608F690021FE0FBA3E0FAA3E0F990BE
:101172000011122A3AFF90001212311CEF7F00FE7A
:10118200C007C00690021FE0FBA3E0FAA3E0F990BB
:101192000013122A3AFF90001412311CEFFD33950E
:1011A200E0FCD0E04CFED0E04D781CA60608F6121A
:1011B20016DB0216CC90022574FFF0A3741CF0A378
:1011C20074E2123799EF700302157E90022574FFC4
:1011D200F0A3741CF0A374E9123799EF700302159F
:1011E2009590022574FFF0A3741CF0A374FC1237CF
:1011F20099EF60030216CC783AF6900261F0900201
:1012020064F0D20390026004F07F0A023D161237A6
:101212008CEF701E90021BE0FBA3E0FAA3E0F91230
:10122200394A900260E060030216CC783A760302F3
:10123200399890022574FFF0A3741CF0A374341241
:101242003799EF702B90021BE0FBA3E0FAA3E0F9C1
:1012520012394A123C587811E6900269F070020481
:10126200F0900277E0FF70057F0102134A02134AF1
:1012720090022574FFF0A3741CF0A37467123799CF
:10128200EF703690021BE0FBA3E0FAA3E0F91239FB
:101292004A123C589002697409F0E4900270F0908E
:1012A200026EF090026CF090026BF0900277E0FF19
:1012B20070047F01800002134A90022574FFF0A39C
:1012C200741CF0A37492123799EF600302135090CA
:1012D200021BE0FBA3E0FAA3E0F912394A123C58E0
:1012E20090021FE0FBA3E0FAA3E0F990000B122AA0
:1012F2003AFF90000C12311C90026DEFF090021F29
:10130200E0FBA3E0FAA3E0F990000D122A3AFF9065
:10131200000E12311C90026AEFF090021FE0FBA354
:10132200E0FAA3E0F990000F122A3AFF900010129F
:10133200311C900268EFF0900269740AF090027713
:10134200E0FF70047F018000900277EFF0229002AC
:101352002574FFF0A3741BF0A374B9123799EF70D0
:101362005690021BE0FBA3E0FAA3E0F912394A12FD
:101372003C58C201C2179002607403F090021FE051
:10138200FBA3E0FAA3E0F990001A122A3A24D0FF54
:10139200900287F07833E6B5070478307618783A09
:1013A2007601900287E075F018A42415F9741D35B2
:1013B200F0FA7BFF0216D790022574FFF0A3741B8C
:1013C200F0A374A2123799EF702990021BE0FBA3DD
:1013D200E0FAA3E0F912394A123C58900260740311
:1013E200F0C201C217900287E0700304F022783045
:1013F20076182290022574FFF0A3741CF0A374A641
:10140200123799EF707B90021BE0FBA3E0FAA3E096
:10141200F912394A123C589001F8E0900287F09094
:1014220001F9E0900269F09001FAE090026DF0900B
:1014320001FBE090026AF09001FCE0900268F090FB
:1014420001FDE0900277F09001FEE07812F6A3E051
:10145200900260F0900200E024FF9217201703C36D
:101462008001D39201E433900201F02017047F1827
:1014720080027F177830A607900202E0900250F0B7
:101482002290022574FFF0A3741CF0A3749D1237FE
:1014920099EF600302156B90021BE0FBA3E0FAA335
:1014A200E0F912394A123C58123D9390021FE0FBB8
:1014B200A3E0FAA3E0F990000E122A3A24D0900297
:1014C20087F09001F8F0900011122A3AFFB431042B
:1014D2007E0180027E00900269EEF09001F9F0EF49
:1014E200B4311C90021FE0FBA3E0FAA3E0F99000E4
:1014F20014122A3AB431047F0980067F0A80027FDF
:101502000012306A7812EFF69001FEF090026074D9
:1015120003F09001FFF090021FE0FBA3E0FAA3E0CA
:10152200F9900024122A3A24D024FF9217E433902F
:101532000200F0201703C38001D39201E43390022A
:1015420001F02017047F1880027F177830A60790D9
:101552000026122A3AFF90002712311C780CEFF66F
:10156200900250F0900202F02290022574FFF0A344
:10157200741BF0A37491123799EF7004783AF62233
:1015820090022574FFF0A3741CF0A374E91237993A
:10159200EF70097BFF7A1C79EF0216D7900225744F
:1015A200FFF0A3741CF0A374D0123799EF6003020A
:0215B20016CC55
:1015B40090021EF090021EE0FFC39464501C90023F
:1015C4001BE0FBA3E0FAA3E0F98F82758300E41229
:1015D4002A7990021EE004F080DAE490021EF09072
:1015E400021EE0FF901E7E93FE90021BE0FBA3E030
:1015F400FAA3E0F98F82758300EE122A7990021E15
:10160400E004F0E0B430D890021BE0FBA3E0FAA3BE
:10161400E0240EF9E43AFAE4FD12368990021BE064
:10162400FBA3E0FAA3E02411F9E43AFA900260E0A3
:10163400B40308900287E0FFFD80027D071236891B
:1016440090021BE0FBA3E0FAA3E02414F9E43AFAC5
:10165400900269E07003FD80027D011236899002D8
:101664001BE0FBA3E0FAA3E02417F9E43AFA9002A2
:1016740069E0B409047D0080027D011236299002DC
:101684001BE0FBA3E0FAA3E02424F9E43AFA78127D
:10169400E6FD12368990021BE0FBA3E0FAA3E024E6
:1016A40027F9E43AFAA217E433FD12368990021BB3
:1016B400E0FBA3E0FAA3E0242AF9E43AFA780CE682
:0816C400FD123689783A760226
:0E16CC0090021BE0FBA3E0FAA3E0F912394AFA
:0116DA0022ED
:103D9300780E7C027D017B017A0279037E007F0B22
:103DA3001229FB78037C027D017B017A0179F87E7D
:063DB300007F0B0229FB5A
:0D3EB800E4F5FDF5FEF5FA75FB40F5FC2282
:033F0A00020000B2
:103D6B00E4FE7DA2EF600E74832EF582E43402F53F
:103D7B0083EDF0800C74832EF582E43402F583E43A
:073D8B00F00D0EEEB404DDA3
:013D9200220E
:083EED0075FE01000000002237
:103BEB00AD07AC06E4F5FAECF5FBAF058FFC75FD04
:103BFB00A5900283E064A27018A3E0B4A313A3E022
:103C0B00B4A40EA3E0B4A50975FE03000000008068
:073C1B0003123F0A023EB84C
:1038FB00AD07AC067F007E80123EEDE4FBEF2BF5AF
:10390B0082E43EF583E4F00BEBB440F1E4F5FAEC22
:10391B00F5FBAF058FFC75FDA5900283E064A270EB
:10392B0018A3E0B4A313A3E0B4A40EA3E0B4A509B9
:0F393B0075FE02000000008003123F0A023EB832
:0B35950090022DEBF0A3EAF0A3E9F098
:1035A000E4900231F0A37480F0A3E4F0A3EEF0A362
:1035B000EFF053A87F7F01123D6B900234E0FEA331
:1035C000E0FF1238FB123EEDE4900230F090022D45
:1035D000E0FBA3E0FAA3E0F9900231E0FF04F08FF2
:1035E00082758300122A3AFF900230E0FE90023288
:1035F000E0FCA3E02EF582E43CF583EFF09002308E
:10360000E004F0E0B440C6900234E0FEA3E0FF1214
:103610003BEBE4FF123D6B900235E02440F090025A
:0836200034E03400F043A880FF
:01362800227F
:073EF5008F828E83E493FF2E
:013EFC0022A3
:1001000090021B7400F0A37468F0A37480F0A3E461
:10011000F090021AF090021AE0FFC394405016A328
:10012000E0FCA3E02FF582E43CF583E4F090021AB2
:10013000E004F080E09002217404F0A3E4F0900267
:100140001AF090021AE0FFC394405034900221E06C
:10015000FCA3E0F5828C83E493FE90021BE0FCA3F9
:10016000E02FF582E43CF583EEF0900222E004F00B
:100170007006900221E004F090021AE004F080C2C0
:1001800090021BE0FEA3E0FFF5828E83E064AA608C
:100190000302036FA3A3E064AA600302036F90024B
:1001A0001BA3E02404F582E43EF583E064AA600327
:1001B00002036FEF2406F582E43EF583E064AA6053
:1001C0000302036F53A87F90021FF0A3F0A37440B3
:1001D00002036890021FE0FEA3E0FDAC06E490027B
:1001E0001AF090021AE0F9C39440400302026D90A5
:1001F000021FE0FEA3E0FFC3EE94004009D3EF949A
:1002000000EE9404400FC3EE94054045D3EF94FFF5
:10021000EE943F503C900221E0FEA3E0F5828E83F5
:10022000E493FF90021BE0FAA3E029F582E43AF59B
:1002300083EFF0900222E004F07006900221E004C7
:10024000F0900220E004F0701B90021FE004F080A8
:100250001390021AE0FFA3E0FAA3E02FF582E43A3C
:10026000F583E4F090021AE004F00201E275FE0169
:1002700000000000E490021AF090021AE0FFC3941C
:1002800040501890021DE0FAA3E02FF582E43AF501
:1002900083E4F090021AE004F080DEE4F5FAECF575
:1002A000FB8DFC75FDA50000000075FE020000003E
:1002B00000E4F5FDF5FEF5FA75FB05F5FC75FE01AC
:1002C0000000000090021AF090021AE0F9A3E0FE8C
:1002D000A3E029F582E43EF583E0FF90021DE0FAF9
:1002E000A3E029F582E43AF583EFF090021AE004E6
:1002F000F0E0B440D3E4F5FAECF5FBAF058FFC7504
:10030000FDA50000000075FE0300000000E4F5FDFF
:10031000F5FEF5FA75FB05F5FC90021FE0FEA3E083
:10032000FFC3EE9404400CD3EF9400EE9405500309
:1003300012000090021FE0FEA3E0B40014EEB4012E
:100340001090021F7405F0A3E4F0A37445F0A3E439
:10035000F090021FE0FEA3E0C394FFEE943F500331
:100360000201D390021F7404F0A3E4F00201D3123F
:05037000050043A88018
:010375002265
:10394A007834E670FBE47838F67F64900194E4F00A
:10395A00A3DFFCE4FF122A21FE601674942FF5827D
:10396A00E43401F583EEF0740129F9E43AFA0F80A0
:10397A00E4E47839F6783476017837760A7839E6E5
:0D398A00062494F582E43401F583E0F5E5B0
:01399700220D
:103C2200783AE660307838E6B414277834E670FBE8
:103C3200783A16E47838F608F678347601783776EA
:103C42000A7839E6062494F582E43401F583E0F536
:063C5200E522783806228D
:10345400900002E0FEA3E0FF900000E06E7003A382
:10346400E06F70030234FA7836760A900002E0FEC8
:10347400A3E0FF2468F58274003EF583E0FD18E6BE
:103484002404F582E43400F583EDF074682FF582AA
:1034940074003EF583E4F090000275F001122A9B5B
:1034A400FEC3E5F0942CEE94014007E4900002F092
:1034B400A3F07835E6062404F582E43400F583E0CD
:1034C400640A708C7B017A007904120526E478354D
:1034D400F690021AF090021AE0FFC39464400302CB
:1034E400345474042FF582E43400F583E4F090023C
:0634F4001AE004F080DF85
:0134FA0022AF
:10351500020500E493A3F8E493A34003F68001F2C7
:1035250008DFF48029E493A3F85407240CC8C333B7
:10353500C4540F4420C8834004F456800146F6DF86
:10354500E4800B0102040810204080903F0DE47ECA
:10355500019360BCA3FF543F30E509541FFEE4937B
:10356500A360010ECF54C025E060A840B8E493A342
:10357500FAE493A3F8E493A3C8C582C8CAC583CA6D
:10358500F0A3C8C582C8CAC583CADFE9DEE780BE25
:013F0D0000B3
:10292B00E709F608DFFA8046E709F208DFFA803E8E
:10293B0088828C83E709F0A3DFFA8032E309F6087B
:10294B00DFFA8078E309F208DFFA807088828C83E3
:10295B00E309F0A3DFFA806489828A83E0A3F60897
:10296B00DFFA805889828A83E0A3F208DFFA804C71
:10297B0080D280FA80C680D4806980F28033801048
:10298B0080A680EA809A80A880DA80E280CA8033B1
:10299B0089828A83ECFAE493A3C8C582C8CCC58329
:1029AB00CCF0A3C8C582C8CCC583CCDFE9DEE780F9
:1029BB000D89828A83E493A3F608DFF9ECFAA9F078
:1029CB00EDFB2289828A83ECFAE0A3C8C582C8CCCE
:1029DB00C583CCF0A3C8C582C8CCC583CCDFEADEE7
:1029EB00E880DB89828A83E493A3F208DFF980CC49
:1029FB0088F0EF60010E4E60C388F0ED2402B40442
:102A0B000050B9F582EB2402B4040050AF232345E8
:062A1B00822390297B7369
:102A2100BB010689828A83E0225002E722BBFE02B3
:092A3100E32289828A83E49322E6
:102A3A00BB010CE58229F582E5833AF583E0225051
:102A4A0006E92582F8E622BBFE06E92582F8E2229B
:0D2A5A00E58229F582E5833AF583E49322B5
:102A6700BB010689828A83F0225002F722BBFE014E
:022A7700F32248
:102A7900F8BB010DE58229F582E5833AF583E8F093
:102A8900225006E92582C8F622BBFE05E92582C83F
:022A9900F22227
:102A9B00C5F0F8A3E028F0C5F0F8E58215827002C6
:062AAB001583E038F02263
:102AB100A3F8E0C5F025F0F0E582158270021583D8
:062AC100E0C838F0E82235
:102AC700D083D082F8E4937012740193700DA3A39E
:102AD70093F8740193F5828883E4737402936860B2
:062AE700EFA3A3A380DFB2
:00000001FF
