:0300000002346C5B
:10346C0078FFE4F6D8FD9000007F007E03E4F0A323
:0A347C00DFFCDEFA75813A02010060
:1005000053A87F12381C123D69123E5F123E4712FB
:100510003E00123D97123DC0123E0D43A880123A94
:06052000A012010080FEA4
:03001B0002362981
:0F362900C0E0C083C082C0D075D000C000C00711
:10363800AFF553F1DF7825760A300E237827E6C3F5
:103648009408500DE606243FF582E43402F583EF32
:10365800F0EF640A702A7827F6D210B20E8021782B
:1036680027E6C39408500DE6062447F582E43402A1
:10367800F583EFF0EFB40A0878277600D211B20E7E
:0D368800D007D000D0D0D082D083D0E03267
:030023000239DAC5
:1039DA00C0E0C083C082C0D075D000C00053F17F60
:1039EA007824E660247826760A7828E6062437F5CD
:1039FA0082E43402F583E0F5F5E62437F582E4340F
:103A0A0002F583E070037824F6D000D0D0D082D0BB
:043A1A0083D0E03243
:03004B000237C1B8
:1037C100C0E0C0F0C083C082C0D075D000C000C0CE
:0537D10004C006C00762
:1037D600AFE553E1DF900000E0FCA3E02468F5824A
:1037E60074003CF583EFF0900000E475F001122AB6
:1037F6000CFEC3E5F0942CEE94014007900000E423
:03380600F0A3F03C
:10380900D007D006D004D000D0D0D082D083D0F059
:03381900D0E032CA
:03005300023A1E50
:103A1E00C0E0C083C082C0D075D000C00053E17F2B
:103A2E007834E660247837760A7839E6062494F5F9
:103A3E0082E43401F583E0F5E5E62494F582E4347E
:103A4E0001F583E070037834F6D000D0D0D082D068
:043A5E0083D0E032FF
:03006B00023B1C39
:103B1C00C0E0C0F0C083C082C0D075D000C000C06F
:103B2C0001C002C003C004C005C006C00712376440
:103B3C00D007D006D005D004D003D002D001D000DD
:0B3B4C00D0D0D082D083D0F0D0E03287
:03008300023A62DC
:103A6200C0E0C0F0C083C082C0D075D000C000C02A
:103A720001C002C003C004C005C006C007123196CF
:103A8200123267D007D006D005D004D003D002D0BE
:0E3A920001D000D0D0D082D083D0F0D0E0326E
:0300A30002390916
:10390900C0E0C0D075D000C000C007B20230022D9F
:10391900780E06E6D3943B40247600780A06E6D36F
:10392900943B40197600780F06E6D39417400E763B
:1039390000780BE625E0FFF6BF80027601D007D0BC
:0639490000D0D0D0E032F6
:083E3E00AF9FEFFEAD9EEDFF0A
:013E46002259
:073E5F00759C80759D072290
:0F3DE300EF540FFFE59C54F04FF59C439C40229A
:083E4700E4F59AF599F59B22C0
:0D3E000075B28875B45D43AA0243B2012279
:103D9700901000748AF0A3744AF043AA10901000A0
:053DA700E04401F022E0
:103DC00075DA0275D90643DAECE4F5DB75E30C43EA
:033DD000A918220D
:103D510020181275EA0275E90643EAECE4F5EB7501
:083D6100F34D43A818D218220B
:103DAC0030180EE4F5EAF5E9F5EAF5EBF5F353A86E
:043DBC00E7C2182220
:0D3E0D0075968875890175898143AB042283
:103D690090103874A8F075C80A758B09E58B30E78F
:083D7900FB758A0143C8052215
:10381C0075A17FE4F5ACF591F5DEF58075B1987581
:10382C00AD20F592F5DFF58875B9FFF5AEF593F59A
:10383C009075C1FEF5AFF59875C9FEF5A3F594F535
:10384C00A075D1FFF595F5B075D320F5D2F5D575EA
:10385C00D403F5D775D603F5EE75EF0A75FF2D2257
:103D1B0024242454696D652073796E630D0A002485
:0D3D2B002424416C61726D2075700D0A003A
:10376400D2057813E6FF7002D208EFB40102D20941
:10377400EFB40202D20AEFB40302D20BEFB4040294
:10378400D20CEFB40502D20DEF640670247837161C
:10379400E670037834F6783616E670037835F678F2
:1037A4002616E670037824F6782516E67003782743
:0D37B400F6781306E6C3940A4002E4F622FC
:1026D800780EE6FF781466700302289BA60790021E
:1026E8005FE0601990024FE004F0D3940A400EE4D2
:1026F800F0900259E0FF7812E69F500106900265BB
:10270800E0B40121900263E004F0E0C3940A4015AC
:10271800E4F0783A76037BFF7A3D791B1238BB9058
:1027280002657402F0780AE6FF78106670030228E2
:102738009BA607780CE6601F16E6701B123CA3E404
:1027480090025EF0783A7603900260E070047F01B0
:1027580080027F00122A5E90025FE0601F14F07012
:102768001B123CA3E490025EF0783A760590026072
:10277800E070047F0180027F00122A5E900251E01F
:102788006401600302284D900253E0780F666003ED
:1027980002284DA3E0780A66600302284D90025291
:1027A800E0FF08E6FEEF5E700302284DEF20E70623
:1027B800EEF4FEEF5EF078127601C201E490024F6B
:1027C800F090025E04F09002607403F0900255E00D
:1027D80090026DF0900256E090026AF0900257E085
:1027E800900268F0900258E0900287F090025AE058
:1027F80024FF9217201703C38001D39201201704E6
:102808007F1880027F177830A60790025BE090025D
:1028180069F090025CE0900277F090025DE090022F
:102828005FF0780CF6900250F0900260E070047F40
:102838000180027F00122A5E783A76037BFF7A3D98
:10284800792A1238BB900265E0B4021B900263E05B
:1028580004F0E0C39402400FE4F0783A76037BFF7B
:102868007A3D791B1238BB780FE6FF78086660233B
:10287800A607900262E004F0E0C394184015E4F063
:102888009002657402F0783A76037BFF7A3D791BF3
:032898001238BB38
:01289B00221A
:102EF60030073D900261E004F0C3940C400FE4F00B
:102F0600900264E004F0D394184002C20790026471
:102F1600E0FF30E00543801080035380EFEF30E0A0
:102F26000543802080035380DFEF30E051022FCD30
:102F3600300325900261E004F0C394324012E4F0BD
:102F4600900264E004F0D394064005C20312000028
:102F5600438010438020806F300025900261E0049A
:102F6600F0C3940C400FE4F0900264E004F0D394B4
:102F7600104002C200900264E030E00280498051B5
:102F8600900260E0D394015018900269E0701253E9
:102F960080EF5380DF5380BFE4780CF6900250F048
:102FA60022900250E0FFB40F084380105380DF8068
:102FB60020EFB41E085380EF4380208014EFB43C0A
:102FC6000A5380EF5380DF438040225380EF5380C3
:052FD600DF5380BF2263
:103C7900781276029002777401F0900260F0D20116
:103C89005390EF783A7603E070047F0180027F0059
:0A3C9900122A5E9002657401F02209
:103AA000123C791233C5300502C205300808C2083D
:103AB000123E661220EE300905C2091230BC300AEF
:103AC00005C20A122345300B05C20B122511300C1A
:0E3AD000D2C20C122EF6123B8E1226D880C5E2
:102E020020202020200D0A0041542B4D540D0A0091
:102E120041542B4D410D0A0041542B4D450D0A00E2
:102E220041542B4D440D0A0041542B43410D0A00DD
:102E320041542B43420D0A0041542B43430D0A00D7
:102E420041542B43500D0A0041542B43440D0A00B8
:102E520041542B435A0D0A0041542B48300D0A00AD
:102E620041542B48310D0A0041542B48320D0A00BF
:102E720041542B48330D0A0041542B48340D0A00AB
:102E820041542B48350D0A0041542B48360D0A0097
:102E920041542B48370D0A0041542B48380D0A0083
:102EA20041542B48390D0A0041542B48410D0A0068
:102EB20041542B48420D0A0041542B48430D0A004D
:102EC20041542B48440D0A0041542B48450D0A0039
:102ED20041542B48460D0A00000102030607090A65
:102EE2000C0E0F000102030404040506060707087E
:042EF20008090A0AB7
:10394F007824E670FB7F08900237E4F0A3DFFCE4F5
:10395F00FF122992FE601674372FF582E43402F5B8
:10396F0083EEF0740129F9E43AFA0F80E4E4782841
:10397F00F6782476017828E6062437F582E43402B7
:05398F00F583E0F5F5F1
:013994002210
:103C4E00EFC3940B500CEF75F008A42402F9742EF8
:103C5E0080107812E6902EDA9375F008A4245AF9A3
:0A3C6E00742E35F0FA7BFF12394F77
:013C78002229
:102D0600201006201103022E01301012C21090026C
:102D16001A7401F0A37402F0A3743FF08010C2117C
:102D260090021A7401F0A37402F0A37447F09002A3
:102D36001AE0FBA3E0FAA3E0F9122992FFB4491FB7
:102D46009000011229ABFEB44902D213EEB441023F
:102D5600C213EE64586003022DE6C213022DE6EF9D
:102D6600B44D1C9000011229ABFFB44102C214EF0E
:102D76006442706CD2147812E6F47829F6806112F7
:102D86002992FFB44F129000011229AB644670508D
:102D9600900260E064028048EF64487043900260ED
:052DA600E06402703B37
:102DAB009000011229ABFFD3648094B94005EF2446
:102DBB00C9801390021AE0FBA3E0FAA3E0F990009C
:102DCB00011229AB24D07812F67812E6D3940F4077
:0B2DDB0002760F7812E6902EE593F6CA
:102DE600E4FF90021AE0FBA3E0FAA3E0F98F8275F4
:0B2DF6008300E41229EA0FEFB408E7A5
:012E010022AE
:1030BC00122D06900260E06402600302314F200F73
:1030CC0013782BF6C213C2147812E6F47829F6E4BE
:1030DC00900236F0D20F900236E014601D14601C82
:1030EC0014601E14601D240470215390EF43900251
:1030FC00E58830E603023195800780055390BF8048
:10310C00688066439040123D5180627812E6FF78E9
:10311C0029666009A6077F0B123C4E800D782AE6C3
:10312C00FF6007123C4EE4782AF6E58830E210780E
:10313C002BE6D39405400443901022782B0622539F
:10314C0090EF22300F08E4782BF6900236F0C20F85
:10315C00900236E0146012146011146010146014A4
:10316C00240470255390EF80048002800090023676
:10317C00E004F022900236E004F0900260E0D39478
:0A318C000150065390BF123DAC2223
:10369500242424415457510D0A00242424466163EF
:1036A500746F72792073657474696E670D0A0024EE
:1036B5002424576966692072657365740D0A0024B0
:1036C5002424456E74657220546573744D6F64656A
:1036D5003A302E31370D0A00000004C00601086794
:1036E5000A900BE50D560E000050056006A109076E
:0836F5000B300C850DF60E00F0
:10331900E490021AF0123E3E90027AEEF0A3EFF02A
:10332900C394A0EE940F504AE4FFEF25E024DDF5A5
:1033390082E43436F583E493FC740193FD90027AB8
:10334900E0FAA3E0FBC39DEA9C4022EF25E024EDCF
:10335900F582E43436F583E493FC740193FDD3EBF1
:103369009DEA9C5008EF0490021AF080050FEFB413
:1033790008B87F05123DE390021AE0FFB4040AE59C
:103389008820E5057408F0802DEFB4010DE588204B
:10339900E50890021A7409F0801CEFB4020DE58863
:1033A90020E50890021A740AF0800BE58820E506EA
:0B33B90090021A7403F090021AE0FF6B
:0133C40022E6
:102C0400E4900278F0900281E0FE6F600EA3E06F22
:102C14006003EFF022900281EFF022900280E0FF47
:102C24006E6003022CB1EF7003022D0590027CE06C
:102C34007003022D0590027CE014F06003022D0560
:102C4400900280E090027EF0900279E0700590029C
:102C54007804F090027FE014602114603214602F35
:102C640024036003022D0590027F7401F090027E1C
:102C7400E04420F090027C7432F02290027F7402CF
:102C8400F090027EE04460F090027C7414F0229094
:102C9400027F7403F090027EE04480F090027C7422
:102CA40014F0A3E0C394FA5058E004F02290028098
:102CB400E0603790027EF0900279E070059002782F
:102CC40004F090027FE024FE601014600F24027070
:102CD4001290027EE04440F08009800090027EE081
:102CE40044C0F0E490027FF08009E4900279F0900F
:102CF400027DF090027C7405F0900281E0900280E5
:022D0400F022BB
:063E6600123319022C04C6
:1020EE00900278E0700302234490025EE06016E4F2
:1020FE00F090027904F0783A7605123CA3E490024F
:10210E005FF002225B90027EE0122A3821514121BB
:10211E00854221EC43220344221B4522634622C3FF
:10212E004721D06222A96622D167216D8121EC83DD
:10213E0022038422DE8823078923258A2151C100A8
:10214E0000234490027DE0C3941940030223447897
:10215E003A7605900260E06003023CA30239959046
:10216E00027DE064196003022344783A76057BFF12
:10217E007A367995022341900260E0FF6401600493
:10218E00EFB40216C201C2179002607403F09002FF
:10219E0087E0600302234404F022900260E06403AF
:1021AE006003022344C201301704C2178026C217EF
:1021BE00900287E004F0D394065003022344740186
:1021CE00F022900260E064036003022344B2172001
:1021DE001707C201783076182278307617229002CF
:1021EE0060E0D3940150030223447812E6940A501F
:1021FE000106C20122900260E0D394015003022333
:10220E00447812E6D39401400116C2012290026076
:10221E00E0D394015009900269E0700302234490C8
:10222E000250E0FF7008780C760F740FF022EFB4B6
:10223E000F0B780C761E900250741EF022EFB41E17
:10224E000B780C763C900250743CF022E4780CF63D
:10225E00900250F022900260E0700302234490023C
:10226E0069E0B40A028015900277E0700404F080F1
:10227E000E900269E004F0D3940940037401F090CB
:10228E000269E064096003022344900270F0900238
:10229E006EF090026CF090026BF022900269E0708A
:1022AE0003022344900277E004F0D3940350030218
:1022BE002344E4F022900260E0607B640260777455
:1022CE0002F022900260E06402706B782A7605229A
:1022DE0090027DE06432705E900261F0900264F0D4
:1022EE00D20390026004F0783A76057BFF7A367955
:1022FE009F1238BB7F0A023C4E90027DE064327022
:10230E0035D207900261F0900264F0783A76057B40
:10231E00FF7A3679B4801C90027DE0B41918D20091
:10232E00E4900261F0900264F0783A76037BFF7AD3
:07233E003679C41238BB22FE
:10319600900276E014F070035398F7900275E014ED
:1031A600F070035398EF900274E014F07003539894
:1031B600DF900271E014F06003023266900277E05D
:1031C600FF700A900276F0900275F0805AEFB40113
:1031D6002290026EE01313543F900276F090026C38
:1031E600E01313543F900275F090026BE0131354F2
:1031F6003F8034900277E090026EB40219E0C31368
:10320600900276F090026CE0C313900275F0900283
:103216006BE0C3138011E0900276F090026CE090B0
:103226000275F090026BE0900274F0900260E0B4D8
:10323600020AE58830E10543881080035388EF9041
:103246000276E06003439808900275E060034398B5
:1032560010900274E060034398209002667401F0B7
:013266002245
:103DD30090026EEFF090026CEDF090026BEBF0222C
:101E200090026FE004F0C3940450030220EDE490AC
:101E3000026FF0A3E0FF705A90026EE0C394FF506F
:101E400003E004F090026CE0D394004003E014F04F
:101E500090026BE0D394004003E014F090026EE037
:101E6000F460030220ED90026CE060030220ED902C
:101E7000026BE060030220ED90027275F001122AFD
:101E80000CFCD3E5F0941EEC940050030220ED020C
:101E90002087EF6401707490026EE0C394FF5003DA
:101EA000E004F090026EE0D394FF4003E014F09061
:101EB000026CE0C394805003E004F090026CE0D325
:101EC00094804003E014F090026BE0D39400400350
:101ED000E014F090026EE0F460030220ED90026CDA
:101EE000E0648060030220ED90026BE0600302205A
:101EF000ED90027275F001122A0CFED3E5F0941EEB
:101F0000EE940050030220ED022087900270E0FF63
:101F10006402705B90026EE0C394FF5003E004F033
:101F200090026CE0C394FF5003E004F090026BE079
:101F3000D394004003E014F090026EE0F4600302DA
:101F400020ED90026CE0F460030220ED90026BE063
:101F500060030220ED90027275F001122A0CFCD38E
:101F6000E5F0941EEC940050030220ED022087EF70
:101F70006403705A90026EE0D394004003E014F0C2
:101F800090026CE0C394FF5003E004F090026BE019
:101F9000D394004003E014F090026EE0600302204E
:101FA000ED90026CE0F460030220ED90026BE060C3
:101FB000030220ED90027275F001122A0CFED3E5A7
:101FC000F0941EEE940050030220ED022087900250
:101FD00070E0FF6404705990026EE0D394004003F7
:101FE000E014F090026CE0D394004003E014F09011
:101FF000026BE0C394FF5003E004F090026EE060D7
:10200000030220ED90026CE060030220ED90026B71
:10201000E0F460030220ED90027275F001122A0CC8
:10202000FCD3E5F0941EEC940050030220ED8057A1
:10203000EF6405706090026EE0D394004003E014FA
:10204000F090026CE0C394FF5003E004F090026B48
:10205000E0C394FF5003E004F090026EE0600302DE
:1020600020ED90026CE0F460030220ED90026BE042
:10207000F4707A90027275F001122A0CFED3E5F02A
:10208000941EEE94004066E4900272F0A3F0900279
:1020900070E004F02290026EE0C394FF5003E0046D
:1020A000F090026CE0D394004003E014F090026BD7
:1020B000E0C394FF5003E004F090026EE0B4FF2D03
:1020C00090026CE0702790026BE0B4FF20900272E7
:1020D000E475F001122A0CFED3E5F09432EE940080
:0E20E000400BE4900272F0A3F0900270F02228
:10251100900266E070030226D7E4900266F0900212
:1025210069E0FFB4091B7811666016E0F6E49002D9
:1025310070F090026E747FF0E490026CF090026B88
:10254100F0900260E06007900269E0FE7004E4FB35
:102551008051EEB401047BFF8021900269E0FEB45A
:102561000205E4FBFD8016EEB40306E4FB7D8080EA
:102571000C900269E0FEB40408E4FB7DFF7FFF805C
:1025810034EEB40507E4FB7DFFFF8029900269E08A
:10259100FEB406087BFF7DFFE4FF8019EEB4070758
:1025A1007BFFE4FDFF800E900269E0FEB4080C7B26
:1025B100FFE4FD7F80123DD30226ADEE640A600385
:1025C1000226A390026DE0FFA3F090026AE0FE9064
:1025D100026CF0900268E0FD90026BF0EFB4FF1125
:1025E100EEB4FF0DEDB4FF099002697401F002260B
:1025F100AD90026DE0B4FF1390026AE0700D90029D
:1026010068E07007A37402F00226AD90026DE0FF4E
:10261100B4FF1490026AE0B4800D900268E0700784
:10262100A37403F00226ADEFB4FF1390026AE0B485
:10263100FF0C900268E07006A37404F0806E9002B3
:102641006DE0701390026AE0B4FF0C900268E070D4
:1026510006A37405F0805590026DE0FF701490029E
:102661006AE0B4FF0D900268E0B4FF06A37406F0BF
:10267100803AEF701390026AE0700D900268E0B446
:10268100FF06A37407F0802490026DE0B4801D90D2
:10269100026AE07017900268E0B4FF10A37408F0BA
:1026A100800A900269E0B40903121E20900269E0D9
:1026B100FF701AEFB40A1690026EE090026DF0906E
:1026C100026CE090026AF0A3E0900268F090026967
:0726D100E060037811F6221E
:0B3E3300000102030507090A0C0E0F36
:0E3DF200EF903E3393FFC374169FFF023D38DF
:103D3800201515D215EF14782DF6E4782FF6783281
:093D4800F653887F782C76C8221E
:10326700201503023318783206E6C3782C965003EC
:10327700023318E47832F6782FE6B41300400302DD
:103287003310903290F82828730232C90232D202E2
:1032970032DB0232EF0232DB0232EF0232DB023282
:1032A700EF0232DB0232EF0232DB0232EF0232DBB5
:1032B7000232EF0232DB0232EF0232DB0232EF027E
:1032C700330A438880782C76A0804353887F782CF4
:1032D7007614803A438880782DE630E70518761E05
:1032E700802C782C760A802653887F782DE6FF304D
:1032F700E70518760A8004782C761EEF25E0782DEE
:10330700F6800B782C76C8800553887FC215782FF6
:0233170006228C
:10234500900260E0640360030224B0201615783122
:10235500F6900287E0F47833F67812E6F4782EF6F4
:10236500E4A3F0D216900288E014602814603814B3
:10237500604A240370495390EF783106E6D39419E7
:1023850050030225105390FD439040123D51E478CF
:10239500310224DD439802783106E6D394325003A6
:1023A500022510E40224DD783106E6D394C85003F3
:1023B500022510900288E004F0E4F6220224EE786B
:1023C50030E6FF6039301503022510B417097BFF8D
:1023D5007A1C79861238BB7830E6B41815900287D6
:1023E500E075F018A42486F9741C35F0FA7BFF1209
:1023F50038BB7830E6FF123D38E47830F62290029B
:1024050087E07833666048301503022510E0FFF653
:10241500EF6003B4170ED217783376177BFF7A1C5B
:1024250079868019900287E0FFD394065012EF75E4
:10243500F018A42486F9741C35F0FA7BFF1238BB1A
:102445007833E6FF123D38900287E07833F622793B
:1024550012E7782E6660103015030225107812E613
:10246500FF782EF6023DF2A201300401B35029781F
:102475003AE67024A20192043001087BFF7A1C79A8
:10248500868012900287E075F018A42486F9741CE2
:1024950035F0FA7BFF0238BB2017082001057812BA
:1024A500E670045390EF2243901022301605E49015
:1024B5000288F0C216900288E014601214601C14A1
:1024C500602E240370452013035390EF801B783151
:1024D50006E6D394144034E4F6800E783AE6702B81
:1024E5007BFF7A1C79861238BB900288E004F022C3
:1024F500201318900288E004F05398FD900260E0E4
:0C250500D3940150065390BF123DAC224D
:103D8100757064617465206661696C007570646149
:063D91007465206F6B0059
:0C3E270053E13F8FE5E5E154C060FA2252
:103ADE0090022DEBF0A3EAF0A3E9F0801690022DF0
:103AEE00E0FBA3E0FAA3E0F91229926020E5E1548D
:103AFE00C060EA53E13F90022DE0FBA3E475F001B4
:0E3B0E00122A22A9F0FA122992F5E580D0229F
:10164C0053ABFB53A8E753A9E753AAEFE47817F67B
:10165C00781AF608F67815F608F6900226F0A3F03C
:10166C00A3F09002897400F0A37468F0E490022255
:10167C00F0A3F0900222E0FEA3E0FFC3942CEE94C2
:10168C00015020900289E0FCA3E02FF582EC3EF59E
:10169C0083E4F0900223E004F070D8900222E0047E
:1016AC00F080D07F43123E277817E6B40800400341
:1016BC00021AB39016C6F82828730216DE021763B6
:1016CC000218000218860219170219790219B802B9
:1016DC001A65E5E130E534900289E0FEA3E0F5827D
:1016EC008E83C083C082781A0806E61886067001BD
:1016FC000614D082D0832582F582E5833EF583E5FE
:10170C00E5F0E4900226F0A3F0A3F0900289E0FE4D
:10171C00A3E0F5828E83E0B46E25781DE618466052
:10172C000E7BFF7A3D7981123ADEE47817F6227B44
:10173C00FF7A3D798D123ADE78177606021AB77861
:10174C001BE66407700418E664016003021AB7789C
:10175C001AF608F6021A60E4781AF608F69002896E
:10176C00E0FEA3E0F5828E83E0F9A3E0FE9002890F
:10177C00E0FCA3E0F5828C83A3A3E0FDAC06900211
:10178C0089E0FAA3E0FBF5828A83A3A3A3E0FEEB36
:10179C002404F582E43AF583E0FBEBFFE9B4020E96
:1017AC00EFF4FFEEF4FEEF6D7002EE6C60030218C6
:1017BC007E7815E6FE08E6FFC3ED9FFFEC9EFEEF7C
:1017CC0064014E6004EF4E7025AE04AF057815A68B
:1017DC000608A607E6FEE42400FFEE3440FE900265
:1017EC0029F0A3EFF0D394FFEE947F40042202186B
:1017FC007E021A60E4900224F0A3F0FFFE90022215
:10180C00F0A3F0900222E0FCA3E0FDC3EC940150A5
:10181C0034ED2405FDE43CFC900289E0FAA3E02DB4
:10182C00F582EA3CF583E0FD900225E02DF0900274
:10183C0024E03400F0900223E004F070C690022201
:10184C00E004F080BE900289E0FCA3E0FD2405F5E5
:10185C0082EC3401F583E0FEED2406F582EC3401D4
:10186C00F583E0FDEDFF900224E06E7003A3E06FC2
:10187C0060057F150219B2021A60900229E0FEA3DE
:10188C00E0FF90028AE02405FD900289E03400FA22
:10189C00A9057B0112350690022AE02440FF900234
:1018AC0029E03400FE90028AE02445FD900289E094
:1018BC003400FAA9057B0112350690022AE0248037
:1018CC00FF900229E03400FE90028AE02485FD900E
:1018DC000289E03400FAA9057B0112350690022A30
:1018EC00E024C0FF900229E03400FE90028AE0243C
:1018FC00C5FD900289E03400FAA9057B011235067A
:10190C00781DE61618700116021A60E4900222F097
:10191C00A3F0900222E0FEA3E0FFC3EE9401504A34
:10192C0090022AE02FFF900229E03EFE123E5790D3
:10193C000223E02405FD900222E03400FC90028991
:10194C00E0FAA3E02DF582EA3CF583E06F600B7FB3
:10195C0015123E27E47817F68010900223E004F06D
:10196C0070B0900222E004F080A8021A60E49002A9
:10197C0022F0A3F0900222E0FEA3E0FFC3942CEE31
:10198C0094015020900289E0FCA3E02FF582EC3EFC
:10199C00F583E4F0900223E004F070D8900222E08A
:1019AC0004F080D07F96123E27021AB390022B745B
:1019BC0001F0A3E4F09002297441F0A3E4F090024A
:1019CC002BE0FEA3E0C394FFEE94034003021A60E5
:1019DC00E4900222F0A3F0900222E0FEA3E0FFC309
:1019EC009440EE9400503790022AE02FFF90022989
:1019FC00E03EFE123E57900222E0FCA3E0FD900276
:101A0C0089E0FAA3E02DF582EA3CF583EFF0900231
:101A1C0023E004F070C1900222E004F080B990023F
:101A2C002BE0FEA3E0FF900289E0FCA3E0AA04F9FE
:101A3C007B0112350690022AE02440F0900229E046
:101A4C003400F090022CE02440F090022BE03400A3
:101A5C00F00219CA7817068052E4900222F0A3F023
:101A6C00900222E0FEA3E0FFC39440EE94005021CC
:101A7C00900289E0FCA3E02FF582EC3EF58374AA7A
:101A8C00F0900223E004F070D7900222E004F08082
:101A9C00CF900289E0FEA3E0AA06F97B017F007ECD
:101AAC0004123506020000E47817F6900226E004D2
:101ABC00F060030216B4A3E004F060030216B4A3B2
:101ACC00E004F0C3940250030216B4120000021694
:011ADC00B455
:101ADD007B54696D6553796E63005475726E206F1A
:101AED006E20756E6974005475726E206F66662077
:101AFD00756E6974004770537461005475726E2071
:101B0D006F6E204254006D7573696320706C61793E
:101B1D00006D757369632070617573650053656C35
:101B2D0065637420536F756E642066696C65007B08
:101B3D004D757369635374617475730041646A758F
:101B4D007374204F757470757420566F6C756D6558
:101B5D0000766F6C756D6520757000766F6C756DA8
:101B6D006520646F776E006D75736963206D757494
:101B7D0065006D7573696320756E6D7574650053C1
:101B8D0065742054696D6572005475726E206F66B0
:101B9D00662054696D6572005475726E206F6E20EB
:101BAD004C6967687472005475726E206F6666209A
:101BBD004C6967687472006C696768742075700091
:101BCD006C6967687420646F776E004368616E6737
:101BDD0065206C6967687420636F6C6F7200416477
:101BED006A757374204C69676874204272696768FE
:101BFD00746E657373005573657220636F6C6F72CD
:101C0D00007B50726F6772616D0050726F506C6126
:101C1D00790D0A007B416C61726D4F6E4F666600E7
:101C2D007B416C61726D536574007B416C614770D3
:101C3D00537461007B4E6F72477053746100207551
:101C4D00706461746500415457510D0A0056455238
:101C5D000D0A00242424564552302E31370D0A002A
:101C6D00456E74657220546573744D6F64653A00EA
:101C7D000101020408102040802424247B4D75733B
:101C8D0069635374617475733A5B30375D7D0D0A0A
:101C9D00002424247B4D75736963537461747573CB
:101CAD003A5B30315D7D0D0A002424247B4D757324
:101CBD0069635374617475733A5B30325D7D0D0ADF
:101CCD00002424247B4D757369635374617475739B
:101CDD003A5B30335D7D0D0A002424247B4D7573F2
:101CED0069635374617475733A5B30345D7D0D0AAD
:101CFD00002424247B4D757369635374617475736B
:101D0D003A5B30355D7D0D0A002424247B4D7573BF
:101D1D0069635374617475733A5B30365D7D0D0A7A
:101D2D00002424247B47705374613A5B30302C308F
:101D3D00302C30302C30302C3030303030302C30A6
:101D4D00302C30302C30302C30303B30302C30308B
:101D5D002C30302C3030303030302C30302C303086
:101D6D002C30302C30302C30303A30302C30305D3F
:101D7D007D0D0A002424247B416C614770537461EE
:101D8D003A5B30302C30302C30302C30302C303021
:101D9D00303030302C30302C30302C30302C303046
:101DAD002C30302C30303A30302C30305D7D0D0AF7
:101DBD00002424247B4E6F7247705374613A5B305C
:101DCD00302C30302C30302C30302C303030303016
:101DDD00302C30302C30302C30302C30305D7D0DAF
:101DED000A002424247B4E6F7247705374613A5B52
:101DFD0030302C30302C30302C30302C30303030E6
:101E0D0030302C30302C30302C30302C30305D7D5B
:031E1D000D0A00AB
:1036FD0090022574FFF0A3741AF074E7A3F0900202
:09370D001FE0FBA3E0FAA3E0F9C0
:10371600900222EBF0A3EAF0A3E9F0900225E0FB89
:10372600A3E0FAA3E0F9122992FF602F900222E0AB
:10373600FBA3E0FAA3E0F9122992B507056003EFAF
:1037460070037F0122900223E475F001122A0C9087
:0E3756000226E475F001122A0C80C07F0022CA
:102FDB00900269EFF09001F9F090021FE0FBA3E083
:102FEB00FAA3E0F99000161229ABFF9000171229F3
:102FFB00ABFD12309190026DEFF09001FAF0900260
:10300B001FE0FBA3E0FAA3E0F99000181229ABFF35
:10301B009000191229ABFD12309190026AEFF090DB
:10302B0001FBF090021FE0FBA3E0FAA3E0F9900094
:10303B001A1229ABFF90001B1229ABFD1230919095
:10304B000268EFF09001FCF090021FE0FBA3E0FAA6
:10305B00A3E0F990001D1229ABFF90001E1229ABC3
:10306B00FD123BC9900277EFF09001FDF090021F2B
:10307B00E0FBA3E0FAA3E0F99000201229AB90004B
:06308B0021FF1229ABFD3C
:10309100C3EF648094C14006EF24C9FF800474D05B
:1030A1002FFFC3ED648094C14006ED24C9FD800467
:0B30B10074D02DFDEFC454F04DFF2241
:053BC400FF1229ABFD1A
:103BC900C3EF648094C14006EF24C9FF800474D018
:103BD9002FFFC3ED648094C14006ED24C9FD800424
:0C3BE90074D02DFDEF75F00AA42DFF2212
:10359A001235FA90021BE0FBA3E0FAA3E0241AF921
:1035AA00E43AFA90026DE0FD1235FA90021BE0FB54
:1035BA00A3E0FAA3E0241CF9E43AFA90026AE0FDD7
:1035CA001235FA90021BE0FBA3E0FAA3E0241EF9ED
:1035DA00E43AFA900268E0FD1235FA90021BE0FB29
:1035EA00A3E0FAA3E09002772421F9E43AFAE0FD95
:1035FA00EDC4540FFFC3940AEF4004243780022419
:10360A00301229D8740129F9E43AFAED540FFFC3AC
:0E361A00940AEF40042437800224301229D88D
:01362800227F
:103995009002607401F0780DE6B403047F038002A1
:1039A5007F01900260EFF07809E67812F67811E66B
:1039B500900269F0900277E0FF70067E017F01803A
:1039C50000900277EFF0900260E070047F018002C2
:0539D5007F00022A5EE4
:103BF5009002607401F07809E67812F6900277E099
:103C0500FF70067E017F018000900277EFF0900241
:0D3C150060E070047F0180027F00022A5EE3
:103CA300900260E0780DF6E4F07812E67809F69079
:103CB3000269E07811F6E4F0780CF6900250F070A7
:0A3CC300047F0180027F00022A5EE8
:103C2200E490025EF0900279F0123CA3783A7605B5
:103C3200900260E070047F0180027F00122A5EE43D
:0C3C420090025FF0780CF6900250F02227
:052A5E00900222EFF0E0
:102A63007834E670FBE47838F67F64900194E4F000
:102A7300A3DFFCE4FFEFFD3395E0FC742E2DF5821C
:102A8300741D3CF583E493FE74942DF58274013C2C
:102A9300F583EEF00FEFB452DC7B017A01799F905E
:102AA3000222E0FD1235FA7A0179A2900260E0B4C5
:102AB3000308900287E0FFFD80027D071235FA7B51
:102AC300017A0179A5900269E07003FD80027D011E
:102AD3001235FA7B017A0179A8900269E0B40904FE
:102AE3007D0180027D001235FA7B017A0179AB907A
:102AF300026DE0FD1235FA7A0179AD90026AE0FDCC
:102B03001235FA7A0179AF900268E0FD1235FA7A4C
:102B13000179B2900277E0FD1235FA7A0179B5783E
:102B230012E6FD1235FA7A0179B8A217E433FD12E1
:102B330035FA7A0179BB780CE6FD1235FA7A017918
:102B4300BEE4FD1235FA7A0179C1900258E0FD1214
:102B530035FA7A0179C4900267E0B409047D0180F3
:102B6300027D001235FA7B017A0179C7900255E0A4
:102B7300FD1235FA7A0179C9900256E0FD1235FA51
:102B83007A0179CB900257E0FD1235FA7A0179CEBA
:102B930090025CE0FD1235FA7A0179D1900259E096
:102BA300FD1235FA7A0179D4900251E0FD1235FA1B
:102BB3007A0179D7900252E0FD1235FA7A0179DA77
:102BC300900253E0FD1235FA7A0179DD900254E068
:102BD300FD1235FA7A0179E090025DE0FD1235FAD3
:102BE300783A7602E47839F6783476017837760ADB
:102BF3007839E6062494F582E43401F583E0F5E5BB
:012C030022AE
:0B05260090021BEBF0A3EAF0A3E9F049
:100531002403F9E43AFA90021FEBF0A3EAF0A3E9ED
:10054100F0900260E070030211E290022574FFF066
:10055100A3741AF074DD123709EF707590021FE071
:10056100FBA3E0FAA3E0F990000B1229AB90000C79
:1005710012308C780FA60790021FE0FBA3E0FAA3CC
:10058100E0F990000E1229ABFF90000F12308D7828
:100591000AA60790021FE0FBA3E0FAA3E0F990008E
:1005A100111229ABFF90001212308D780EA6079020
:1005B100021FE0FBA3E0FAA3E0F990001E1229ABB1
:1005C10024D0780BF6E6901C7D93F6E4900265F05A
:1005D100221236FDEF700C900260E0600302098088
:1005E1000211FF90022574FFF0A3741AF0A374F4B2
:1005F10012370AEF701E90021BE0FBA3E0FAA3E0A2
:10060100F91238BB90025EE06003020960783A7625
:1006110003023CA390022574FFF0A3741BF0A374A2
:100621000212370AEF70012290022574FFF0A374C1
:100631001BF0A3740812370AEF700990026074026C
:10064100F002098090022574FFF0A3741BF0A374DB
:100651001312370AEF70199002607403F0C201C2DD
:1006610017F0900287E0700304F0227830761822A8
:1006710090022574FFF0A3741BF0A3741E12370AB5
:10068100EF7012900260E06403600302164BD21710
:10069100783076172290022574FFF0A3741BF0A323
:1006A100742A12370AEF704090025EE0600BE4F0AA
:1006B100A3F0780CF6900250F0C201C217900260CC
:1006C1007403F090021FE0FBA3E0FAA3E0F99000AD
:1006D1001A1229AB24D0FF900287F07833E6B507D0
:1006E100047830761802137790022574FFF0A37412
:1006F1001BF0A3743C12370AEF700122900225749B
:10070100FFF0A3741BF0A3744912370AEF70239012
:10071100025EE0600302096090021FE0FBA3E0FAC1
:10072100A3E0F99000141229AB900015123BC4020A
:1007310007A990022574FFF0A3741BF0A3745E1245
:10074100370AEF702990025EE060030209607812B7
:10075100E6FFC3940A5013EF94085007E62402FF02
:10076100F68009781206E6FF80027F0A803A90023D
:100771002574FFF0A3741BF0A3746812370AEF709D
:100781003090025EE060030209607812E6FFD394C4
:10079100014013EF94034007E624FEFFF680097839
:1007A1001216E6FF80027F017812A607C201020934
:1007B1008090022574FFF0A3741BF0A374741237A8
:1007C1000AEF7003D2012290022574FFF0A3741B7B
:1007D100F0A3747F12370AEF7003C2012290022541
:1007E10074FFF0A3741BF0A3748C12370AEF702509
:1007F10090025EE0600302096090021FE0FBA3E04B
:10080100FAA3E0F990000A1229AB90000B123BC445
:10081100780CEF801F90022574FFF0A3741BF0A3E6
:10082100749612370AEF701490025EE060030209B9
:1008310060E4780CF6900250F00209809002257471
:10084100FFF0A3741BF0A374A512370AEF702D906B
:10085100025EE0600BE4F0A3F0780CF6900250F039
:100861007811E6900269F0700204F0900277E0FFDF
:1008710070077E017F0102097B02097B90022574CA
:10088100FFF0A3741BF0A374B412370AEF70119038
:10089100025EE06003020960E4900269F0020980EF
:1008A10090022574FFF0A3741BF0A374C412370ADD
:1008B100EF701B90025EE06003020960900277E036
:1008C100C394034003020980E004F002098090020E
:1008D1002574FFF0A3741BF0A374CD12370AEF70D7
:1008E1001B90025EE06003020960900277E0D394FE
:1008F100005003020980E014F0020980900225747F
:10090100FFF0A3741BF0A374D812370AEF7037906D
:10091100025EE0600BE4F0A3F0780CF6900250F078
:100921009002697409F0E4900270F090026EF09008
:10093100026CF090026BF0900277E0FF70067E018E
:100941007F018000803490022574FFF0A3741BF0B6
:10095100A374EB12370AEF702690025EE060030287
:100961003C2290021FE0FBA3E0FAA3E0F9900018FB
:100971001229ABFF900019123BC5900277EFF0905E
:10098100022574FFF0A3741CF0A3740312370AEF5D
:100991006003020A1990025EE0600BE4F0A3F078B4
:1009A1000CF6900250F090021FE0FBA3E0FAA3E0E6
:1009B100F990000B1229ABFF90000C12308D9002C0
:1009C1006DEFF090021FE0FBA3E0FAA3E0F99000C5
:1009D1000D1229ABFF90000E12308D90026AEFF0DC
:1009E10090021FE0FBA3E0FAA3E0F990000F1229A7
:1009F100ABFF90001012308D900268EFF090026909
:100A0100740AF0900277E0FF70067E017F0180009A
:100A1100900277EFF002163D90022574FFF0A37467
:100A21001CF0A3740E12370AEF6003020B0390024D
:100A31005EE0600BE4F0A3F0780CF6900250F01247
:100A41003CF590021FE0FBA3E0FAA3E0F990000E51
:100A51001229AB24D0900287F09001F8F090001198
:100A61001229ABFFB431047E0180027E009002693D
:100A7100EEF09001F9F0EFB4311C90021FE0FBA3FE
:100A8100E0FAA3E0F99000141229ABB431047F0914
:100A910080067F0A80027F00122FDB7812EFF6902A
:100AA10001FEF09002607403F09001FFF090021FCC
:100AB100E0FBA3E0FAA3E0F99000241229AB24D0D3
:100AC10024FF9217E433900200F0201703C3800142
:100AD100D39201E433900201F02017047F188002C1
:100AE1007F177830A6079000261229ABFF900027C8
:100AF10012308D780CEFF6900250F0900202F00265
:100B0100163D90022574FFF0A3741CF0A374171214
:100B1100370AEF706690025EE0600BE4F0A3F078B4
:100B21000CF6900250F09001F8E0900287F09001ED
:100B3100F9E0900269F09001FAE090026DF0900105
:100B4100FBE090026AF09001FCE0900268F09001F5
:100B5100FDE0900277F09001FEE07812F6A3E090BC
:100B61000260F0900200E024FF9217201702C201F8
:100B7100900202E0900250F002163D90022574FFAF
:100B8100F0A3741CF0A3742112370AEF7071900264
:100B91001FE0FBA3E0FAA3E0F99000111229AB24B6
:100BA100D0900251F09000131229ABFF9000141263
:100BB100308D780FA60790021FE0FBA3E0FAA3E0B7
:100BC100F99000161229ABFF90001712308D780AA8
:100BD100A60790021FE0FBA3E0FAA3E0F990001939
:100BE1001229ABFF90001A12308D780EA6079002E1
:100BF1001FE0FBA3E0FAA3E0F9900026020DCB90E1
:100C0100022574FFF0A3741CF0A3742D12370AEFB0
:100C11006003020DDC90021FE0FBA3E0FAA3E0F900
:100C210090000F1229AB24D0900258F0C3940740D2
:100C310002E4F09000121229ABFF24D090025BF085
:100C4100EFB431119000151229ABB431047F098042
:100C5100067F0A80027F0090025BEFF090021FE0A6
:100C6100FBA3E0FAA3E0F99000171229ABFF900073
:100C71001812308D900255EFF090021FE0FBA3E0B7
:100C8100FAA3E0F99000191229ABFF90001A123073
:100C91008D900256EFF090021FE0FBA3E0FAA3E073
:100CA100F990001B1229ABFF90001C12308D9002AD
:100CB10057EFF090021FE0FBA3E0FAA3E0F99000E8
:100CC1001F1229AB24D090025CF09000211229ABB5
:100CD100FF90002212308D900259EFF090021FE038
:100CE100FBA3E0FAA3E0F99000251229AB24D090F0
:100CF100025AF09000281229AB24D0900251F090B2
:100D0100002A1229ABFF90002B12308D900252EF76
:100D1100F090021FE0FBA3E0FAA3E0F990002D128E
:100D210029ABFF90002E12308D900253EFF090020C
:100D31001FE0FBA3E0FAA3E0F99000301229ABFF1A
:100D410090003112308D900254EFF090021FE0FBC1
:100D5100A3E0FAA3E0F99000331229ABFF9000342D
:100D610012308D90025DEFF090021FE0FBA3E0FADC
:100D7100A3E0F99000361229ABFF90003712308DB5
:100D8100780FA60790021FE0FBA3E0FAA3E0F99019
:100D910000391229ABFF90003A12308D780AA6076C
:100DA10090021FE0FBA3E0FAA3E0F990003C1229B6
:100DB100ABFF90003D12308D780EA60790021FE028
:100DC100FBA3E0FAA3E0F99000491229AB24D07803
:100DD1000BF6E6901C7D93F602163D90022574FFFA
:100DE100F0A3741CF0A3743712370AEF6003020FEB
:010DF100BA47
:100DF20090021EF090021EE0FFC39464501C900209
:100E02001BE0FBA3E0FAA3E0F98F82758300E412F2
:100E120029EA90021EE004F080DAE490021EF090CB
:100E2200021EE0FF901D8193FE90021BE0FBA3E0F7
:100E3200FAA3E0F98F82758300EE1229EA90021E6E
:100E4200E004F0E0B43ED890021BE0FBA3E0FAA37A
:100E5200E0240EF9E43AFAE4FD1235FA90021BE0BE
:100E6200FBA3E0FAA3E02411F9E43AFA900258E075
:100E7200FF6003FD80027D071235FA90021BE0FB42
:100E8200A3E0FAA3E02414F9E43AFA90025BE070DA
:100E920003FD80027D011235FA90021BE0FBA3E004
:100EA200FAA3E02417F9E43AFA90025BE0B40904E9
:100EB2007D0180027D001235FA90021BE0FBA3E067
:100EC200FAA3E0241AF9E43AFA900255E0FD123549
:100ED200FA90021BE0FBA3E0FAA3E0241CF9E43A37
:100EE200FA900256E0FD1235FA90021BE0FBA3E0F5
:100EF200FAA3E0241EF9E43AFA900257E0FD123513
:100F0200FA90021BE0FBA3E0FAA3E090025C123528
:100F1200F290021BE0FBA3E0FAA3E02424F9E43AF6
:100F2200FA900259E0FD1235FA90021BE0FBA3E0B1
:100F3200FAA3E02427F9E43AFA90025AE0FD1235C6
:100F4200FA90021BE0FBA3E0FAA3E0242AF9E43AB8
:100F5200FA900251E0FD1235FA90021BE0FBA3E089
:100F6200FAA3E0242DF9E43AFA900252E0FD123598
:100F7200FA90021BE0FBA3E0FAA3E02430F9E43A82
:100F8200FA900253E0FD1235FA90021BE0FBA3E057
:100F9200FAA3E02433F9E43AFA900254E0FD123560
:100FA200FA90021BE0FBA3E0FAA3E02436F9E43A4C
:050FB200FA90025DE071
:100FB7000210E090022574FFF0A3741CF0A37441A3
:090FC70012370AEF60030210EB7F
:100FD00090021EF090021EE0FFC39464501C900229
:100FE0001BE0FBA3E0FAA3E0F98F82758300E41213
:100FF00029EA90021EE004F080DAE490021EF090EC
:10100000021EE0FF901DBE93FE90021BE0FBA3E0DA
:10101000FAA3E0F98F82758300EE1229EA90021E8E
:10102000E004F0E0B430D890021BE0FBA3E0FAA3A8
:10103000E0240EF9E43AFA7D011235FA90021BE041
:10104000FBA3E0FAA3E02411F9E43AFA900260E08D
:10105000B40308900287E0FFFD80027D071235FA95
:1010600090021BE0FBA3E0FAA3E02414F9E43AFAAF
:10107000900269E07003FD80027D011235FA900252
:101080001BE0FBA3E0FAA3E02417F9E43AFA90028C
:1010900069E0B409047D0080027D0112359A900256
:1010A0001BE0FBA3E0FAA3E02424F9E43AFA781267
:1010B000E6FD1235FA90021BE0FBA3E0FAA3E02460
:1010C00027F9E43AFAA217E433FD1235FA90021B2D
:1010D000E0FBA3E0FAA3E0242AF9E43AFA780CE66C
:0810E000FD1235FA783A7602A0
:1010E80002163D90022574FFF0A3741CF0A3744B04
:1010F80012370AEF600302119D90021FE0FBA3E084
:10110800FAA3E0F990000A1229ABFF90000B123005
:101118008DEF7F00FEC007C00690021FE0FBA3E032
:10112800FAA3E0F990000C1229ABFF90000D1230E1
:101138008DEFFD3395E0FCD0E04CFED0E04D781803
:10114800A60608F690021FE0FBA3E0FAA3E0F990D8
:1011580000111229ABFF90001212308DEF7F00FEB4
:10116800C007C00690021FE0FBA3E0FAA3E0F990D5
:1011780000131229ABFF90001412308DEFFD339548
:10118800E0FCD0E04CFED0E04D781CA60608F61234
:10119800164C02163D90022574FFF0A3741CF0A3B0
:1011A800745312370AEF7002802C90022574FFF0F6
:1011B800A3741CF0A3745A12370AEF7003021506C1
:1011C80090022574FFF0A3741CF0A3746D12370A03
:1011D800EF600302163D783AF6221236FDEF701ED4
:1011E80090021BE0FBA3E0FAA3E0F91238BB9002DF
:1011F80060E0600302163D783A7603023995900262
:101208002574FFF0A3741BF0A374A512370AEF70BE
:101218002A90021BE0FBA3E0FAA3E0F91238BB1204
:101228003BF5900269E0700204F0900277E0FF70ED
:10123800077E017F0102131F02131F90022574FF0E
:10124800F0A3741BF0A374D812370AEF7038900219
:101258001BE0FBA3E0FAA3E0F91238BB123BF590C0
:1012680002697409F0E4900270F090026EF0900246
:101278006CF090026BF0900277E0FF70067E017FC1
:1012880001800002131F90022574FFF0A3741CF064
:10129800A3740312370AEF600302132790021BE0BE
:1012A800FBA3E0FAA3E0F91238BB123BF590021F4A
:1012B800E0FBA3E0FAA3E0F990000B1229ABFF9042
:1012C800000C12308D90026DEFF090021FE0FBA32E
:1012D800E0FAA3E0F990000D1229ABFF90000E127E
:1012E800308D90026AEFF090021FE0FBA3E0FAA3B2
:1012F800E0F990000F1229ABFF90001012308D908A
:101308000268EFF0900269740AF0900277E0FF70CB
:10131800067E017F018000900277EFF002163D9073
:10132800022574FFF0A3741BF0A3742A12370AEF86
:10133800705690021BE0FBA3E0FAA3E0F91238BB59
:10134800123BF5C201C2179002607403F090021FAD
:10135800E0FBA3E0FAA3E0F990001A1229AB24D02D
:10136800FF900287F07833E6B5070478307618786E
:101378003A7601900287E075F018A42486F9741C67
:1013880035F0FA7BFF02164890022574FFF0A3742B
:101398001CF0A3741712370AEF706690021BE0FB6B
:1013A800A3E0FAA3E0F91238BB123BF59001F8E08C
:1013B800900287F09001F9E0900269F09001FAE05C
:1013C80090026DF09001FBE090026AF09001FCE061
:1013D800900268F09001FDE0900277F09001FEE045
:1013E8007812F6A3E0900260F0900200E024FF92E9
:1013F80017201702C201900202E0900250F0021674
:101408003D90022574FFF0A3741CF0A3740E1237EC
:101418000AEF60030214DF90021BE0FBA3E0FAA3CB
:10142800E0F91238BB123BF5123CF590021FE0FBC5
:10143800A3E0FAA3E0F990000E1229AB24D09002A1
:1014480087F09001F8F09000111229ABFFB4310435
:101458007E0180027E00900269EEF09001F9F0EFC3
:10146800B4311C90021FE0FBA3E0FAA3E0F990005E
:10147800141229ABB431047F0980067F0A80027FE9
:1014880000122FDB7812EFF69001FEF090026074E4
:1014980003F09001FFF090021FE0FBA3E0FAA3E045
:1014A800F99000241229AB24D024FF9217E433903A
:1014B8000200F0201705C201E4A3F09000261229CB
:1014C800ABFF90002712308D780CEFF6900250F0A9
:1014D800900202F002163D90022574FFF0A3741BDF
:1014E800F0A3740212370AEF70012290022574FFEC
:1014F800F0A3741CF0A3745A12370AEF70097BFF2B
:101508007A1C796002164890022574FFF0A3741CB7
:0D151800F0A3744112370AEF600302163D84
:1015250090021EF090021EE0FFC39464501C9002CE
:101535001BE0FBA3E0FAA3E0F98F82758300E412B8
:1015450029EA90021EE004F080DAE490021EF09091
:10155500021EE0FF901DEF93FE90021BE0FBA3E04F
:10156500FAA3E0F98F82758300EE1229EA90021E34
:10157500E004F0E0B430D890021BE0FBA3E0FAA34E
:10158500E0240EF9E43AFAE4FD1235FA90021BE084
:10159500FBA3E0FAA3E02411F9E43AFA900260E033
:1015A500B40308900287E0FFFD80027D071235FA3B
:1015B50090021BE0FBA3E0FAA3E02414F9E43AFA55
:1015C500900269E07003FD80027D011235FA9002F8
:1015D5001BE0FBA3E0FAA3E02417F9E43AFA900232
:1015E50069E0B409047D0080027D0112359A9002FC
:1015F5001BE0FBA3E0FAA3E02424F9E43AFA78120D
:10160500E6FD1235FA90021BE0FBA3E0FAA3E02405
:1016150027F9E43AFAA217E433FD1235FA90021BD2
:10162500E0FBA3E0FAA3E0242AF9E43AFA780CE611
:08163500FD1235FA783A760245
:0E163D0090021BE0FBA3E0FAA3E0F91238BB19
:01164B00227C
:103CF500780E7C027D017B017A0279037E007F0BC1
:103D050012296C78037C027D017B017A0179F87EAA
:063D1500007F0B02296C87
:0D3E1A00E4F5FDF5FEF5FA75FB40F5FC2220
:033E6C0002000051
:103CCD00E4FE7DA2EF600E74832EF582E43402F5DE
:103CDD0083EDF0800C74832EF582E43402F583E4D9
:073CED00F00D0EEEB404DD42
:013CF40022AD
:083E4F0075FE010000000022D5
:103B5700AD07AC06E4F5FAECF5FBAF058FFC75FD98
:103B6700A5900283E064A27018A3E0B4A313A3E0B6
:103B7700B4A40EA3E0B4A50975FE030000000080FD
:073B870003123E6C023E1A1E
:10386C00AD07AC067F007E80123E4FE4FBEF2BF5DC
:10387C0082E43EF583E4F00BEBB440F1E4F5FAECB2
:10388C00F5FBAF058FFC75FDA5900283E064A2707B
:10389C0018A3E0B4A313A3E0B4A40EA3E0B4A50949
:0F38AC0075FE02000000008003123E6C023E1AFF
:0B35060090022DEBF0A3EAF0A3E9F027
:10351100E4900231F0A37480F0A3E4F0A3EEF0A3F1
:10352100EFF053A87F7F01123CCD900234E0FEA35F
:10353100E0FF12386C123E4FE4900230F090022D01
:10354100E0FBA3E0FAA3E0F9900231E0FF04F08F81
:10355100827583001229ABFF900230E0FE900232A7
:10356100E0FCA3E02EF582E43CF583EFF09002301D
:10357100E004F0E0B440C6900234E0FEA3E0FF12A4
:103581003B57E4FF123CCD900235E02440F090021D
:0835910034E03400F043A8808F
:01359900220F
:073E57008F828E83E493FFCC
:013E5E002241
:1001000090021B7400F0A37468F0A37480F0A3E461
:10011000F090021AF090021AE0FFC394405016A328
:10012000E0FCA3E02FF582E43CF583E4F090021AB2
:10013000E004F080E09002217404F0A3E4F0900267
:100140001AF090021AE0FFC394405034900221E06C
:10015000FCA3E0F5828C83E493FE90021BE0FCA3F9
:10016000E02FF582E43CF583EEF0900222E004F00B
:100170007006900221E004F090021AE004F080C2C0
:1001800090021BE0FEA3E0FFF5828E83E064AA608C
:100190000302036FA3A3E064AA600302036F90024B
:1001A0001BA3E02404F582E43EF583E064AA600327
:1001B00002036FEF2406F582E43EF583E064AA6053
:1001C0000302036F53A87F90021FF0A3F0A37440B3
:1001D00002036890021FE0FEA3E0FDAC06E490027B
:1001E0001AF090021AE0F9C39440400302026D90A5
:1001F000021FE0FEA3E0FFC3EE94004009D3EF949A
:1002000000EE9404400FC3EE94054045D3EF94FFF5
:10021000EE943F503C900221E0FEA3E0F5828E83F5
:10022000E493FF90021BE0FAA3E029F582E43AF59B
:1002300083EFF0900222E004F07006900221E004C7
:10024000F0900220E004F0701B90021FE004F080A8
:100250001390021AE0FFA3E0FAA3E02FF582E43A3C
:10026000F583E4F090021AE004F00201E275FE0169
:1002700000000000E490021AF090021AE0FFC3941C
:1002800040501890021DE0FAA3E02FF582E43AF501
:1002900083E4F090021AE004F080DEE4F5FAECF575
:1002A000FB8DFC75FDA50000000075FE020000003E
:1002B00000E4F5FDF5FEF5FA75FB05F5FC75FE01AC
:1002C0000000000090021AF090021AE0F9A3E0FE8C
:1002D000A3E029F582E43EF583E0FF90021DE0FAF9
:1002E000A3E029F582E43AF583EFF090021AE004E6
:1002F000F0E0B440D3E4F5FAECF5FBAF058FFC7504
:10030000FDA50000000075FE0300000000E4F5FDFF
:10031000F5FEF5FA75FB05F5FC90021FE0FEA3E083
:10032000FFC3EE9404400CD3EF9400EE9405500309
:1003300012000090021FE0FEA3E0B40014EEB4012E
:100340001090021F7405F0A3E4F0A37445F0A3E439
:10035000F090021FE0FEA3E0C394FFEE943F500331
:100360000201D390021F7404F0A3E4F00201D3123F
:05037000050043A88018
:010375002265
:1038BB007834E670FBE47838F67F64900194E4F09A
:1038CB00A3DFFCE4FF122992FE601674942FF5829D
:1038DB00E43401F583EEF0740129F9E43AFA0F8030
:1038EB00E4E47839F6783476017837760A7839E675
:0D38FB00062494F582E43401F583E0F5E540
:01390800229C
:103B8E00783AE660307838E6B414277834E670FB7D
:103B9E00783A16E47838F608F6783476017837767F
:103BAE000A7839E6062494F582E43401F583E0F5CB
:063BBE00E5227838062222
:1033C500900002E0FEA3E0FF900000E06E7003A312
:1033D500E06F700302346B7836760A900002E0FEE7
:1033E500A3E0FF2468F58274003EF583E0FD18E64E
:1033F5002404F582E43400F583EDF074682FF5823A
:1034050074003EF583E4F090000275F001122A0C79
:10341500FEC3E5F0942CEE94014007E4900002F021
:10342500A3F07835E6062404F582E43400F583E05C
:10343500640A708C7B017A007904120526E47835DC
:10344500F690021AF090021AE0FFC394644003025A
:1034550033C574042FF582E43400F583E4F090025B
:063465001AE004F080DF14
:01346B00223E
:10348600020500E493A3F8E493A34003F68001F257
:1034960008DFF48029E493A3F85407240CC8C33347
:1034A600C4540F4420C8834004F456800146F6DF16
:1034B600E4800B0102040810204080903E6FE47EF9
:1034C600019360BCA3FF543F30E509541FFEE4930B
:1034D600A360010ECF54C025E060A840B8E493A3D2
:1034E600FAE493A3F8E493A3C8C582C8CAC583CAFD
:1034F600F0A3C8C582C8CAC583CADFE9DEE780BEB5
:013E6F000052
:10289C00E709F608DFFA8046E709F208DFFA803E1E
:1028AC0088828C83E709F0A3DFFA8032E309F6080B
:1028BC00DFFA8078E309F208DFFA807088828C8373
:1028CC00E309F0A3DFFA806489828A83E0A3F60827
:1028DC00DFFA805889828A83E0A3F208DFFA804C01
:1028EC0080D280FA80C680D4806980F280338010D8
:1028FC0080A680EA809A80A880DA80E280CA803341
:10290C0089828A83ECFAE493A3C8C582C8CCC583B8
:10291C00CCF0A3C8C582C8CCC583CCDFE9DEE78088
:10292C000D89828A83E493A3F608DFF9ECFAA9F007
:10293C00EDFB2289828A83ECFAE0A3C8C582C8CC5D
:10294C00C583CCF0A3C8C582C8CCC583CCDFEADE76
:10295C00E880DB89828A83E493A3F208DFF980CCD8
:10296C0088F0EF60010E4E60C388F0ED2402B404D1
:10297C000050B9F582EB2402B4040050AF23234578
:06298C0082239028EC7389
:10299200BB010689828A83E0225002E722BBFE0243
:0929A200E32289828A83E4932276
:1029AB00BB010CE58229F582E5833AF583E02250E1
:1029BB0006E92582F8E622BBFE06E92582F8E2222B
:0D29CB00E58229F582E5833AF583E4932245
:1029D800BB010689828A83F0225002F722BBFE01DE
:0229E800F322D8
:1029EA00F8BB010DE58229F582E5833AF583E8F023
:1029FA00225006E92582C8F622BBFE05E92582C8CF
:022A0A00F222B6
:102A0C00C5F0F8A3E028F0C5F0F8E5821582700255
:062A1C001583E038F022F2
:102A2200A3F8E0C5F025F0F0E58215827002158367
:062A3200E0C838F0E822C4
:102A3800D083D082F8E4937012740193700DA3A32D
:102A480093F8740193F5828883E473740293686041
:062A5800EFA3A3A380DF41
:00000001FF
